{
  "contracts/Renderers/RenderShield2.sol": {
    "RenderShield2": {
      "abi": [
        {
          "inputs": [],
          "name": "render",
          "outputs": [
            {
              "internalType": "string",
              "name": "",
              "type": "string"
            }
          ],
          "stateMutability": "pure",
          "type": "function"
        }
      ],
      "evm": {
        "bytecode": {
          "linkReferences": {},
          "object": "6080604052348015600f57600080fd5b5061540e8061001f6000396000f3fe608060405234801561001057600080fd5b506004361061002b5760003560e01c8063d607497a14610030575b600080fd5b61003861004e565b6040516100459190610071565b60405180910390f35b606060405180615340016040528061531981526020016100c06153199139905090565b602081526000825180602084015260005b8181101561009f5760208186018101516040868401015201610082565b506000604082850101526040601f19601f8301168401019150509291505056fe3c7061746820643d224d31313120313230682d3520336c3320312d312d315a6d2d3720302d312d312d3120312d31203168346c2d312d315a6d2d342030682d3176316831762d315a6d2d322030682d336c2d31203168356c2d312d315a6d2d382030682d3176316831762d315a6d2d322030682d3176316831762d315a6d3531203435762d31682d326c2d3220312d342d33682d316c2d342d34682d31306c2d362d36682d396c2d312032483835762d33682d36762d33386c332d3120322d3268396c332d3320322d326831346c3320322033203368336c332d3420342d332033362d31203320322032203276356831327633336c2d3420357633682d327636682d396c2d3620337632682d3676316c2d3120312d342d31682d346c2d312d312d322d317634682d33762d315a22207374796c653d2266696c6c3a233763666266623b222f3e3c7061746820643d224d31333920313635762d31682d326c2d3220312d342d33682d316c2d342d34682d31306c2d362d36682d396c2d312032483835762d33682d36762d33386c332d3120322d3268396c332d3320322d326831346c3320322033203368336c332d3420342d332033362d31203320322032203276356831327633336c2d3420357633682d327636682d396c2d3620337632682d3676316c2d3120312d342d31682d346c2d312d312d322d317634682d33762d315a22207374796c653d2266696c6c3a233537653366313b222f3e3c7061746820643d224d31313120313230682d3520336c3320312d312d315a6d2d3720302d312d312d3120312d31203168346c2d312d315a6d2d342030682d3176316831762d315a6d2d322030682d336c2d31203168356c2d312d315a6d2d382030682d3176316831762d315a6d2d322030682d3176316831762d315a6d3138203130762d31682d3276326832762d315a6d36332031322d312d32382d343820327632366c323020332032392d335a6d2d3330203233762d31682d326c2d3220312d342d33682d316c2d342d34682d31306c2d362d36682d396c2d312032483835762d33682d36762d33386c332d3120322d3268396c332d3320322d326831346c3320322033203368336c332d3420342d332033362d31203320322032203276356831327633336c2d3420357633682d327636682d396c2d3620337632682d3676316c2d3120312d342d31682d346c2d312d312d322d317634682d33762d315a22207374796c653d2266696c6c3a233865383937633b222f3e3c7061746820643d224d31353920313035682d3176316831762d315a6d2d332030682d3176316831762d315a6d2d3520302d312d3176316c2d31203168336c2d312d315a6d2d332030682d3176316831762d315a6d2d3220302d312d3176316c2d31203168336c2d312d315a6d2d332030682d3176316831762d315a6d2d322030682d3176316831762d315a6d2d382030682d3176316831762d315a6d32392031762d31682d32763268316c312d315a6d322032682d3176316831762d315a6d2d33342030682d3176316831762d315a6d2d31392030762d31682d3576326835762d315a6d2d362030762d31682d3376326833762d315a6d2d342030762d31682d3276326832762d315a6d36302031682d3176316831762d315a6d313720332d312d3176316c2d31203168336c2d312d315a6d2d36302031762d316c322033762d33682d3576336833762d325a6d2d342030762d31682d396c2d312032683130762d315a6d2d31312030762d314838376c2d3220317632683138762d325a6d352033682d3176316831762d315a6d2d32322030682d3176316831762d315a6d362031682d3176316831762d315a6d383720312d312d312d3120312d31203168346c2d312d315a6d2d3420302d312d312d3120312d31203168346c2d312d315a6d2d342030762d31682d3376326833762d315a6d2d353220302d312d31682d356c312031203220316833762d315a6d2d382030682d3176316831762d315a6d2d32362032682d3176316831762d315a6d322032682d3176316831762d315a6d39302033682d3176316831762d315a6d2d35392030682d3176316831762d315a6d2d31322035762d31682d3276326832762d315a6d362d392d312d314838376831326c313220312031203176396c312037762d31366c2d312d315a6d2d3235203136682d3176316831762d315a6d312032682d3176316831762d315a6d38302d31302d322d3134682d3436763238683438762d31345a6d2d3331203231682d3176316831762d315a6d31352034682d3176316831762d315a6d2d332030682d3176316831762d315a6d2d3420302d312d3176316c2d31203168336c2d312d315a6d2d3320302d312d312d3120312d31203168346c2d312d315a6d2d352030682d3176316831762d315a6d322031302d312d322d3120322d312031682d326c2d312d322d312d312d332d322d342d32682d396c2d362d36682d396c2d312032483836762d326c2d312d31682d36762d33386c352d3268396c352d366831346c35203568346c372d376833376c3220322032203176356831327633336c2d3420357633682d327636682d313176316c2d362034682d3476316c2d3120312d342d31682d346c2d312d31682d316c2d3120312d312032682d316c2d312d325a22207374796c653d2266696c6c3a233738373236363b222f3e3c7061746820643d226d313336203130352d312d3176316c2d31203168336c2d312d315a6d2d332030682d3176316831762d315a6d323620302d312d3176336c312d3168316c2d312d315a6d2d33203068312d386c31203176316c332d3120332d315a6d2d382030682d31316c3620316835762d315a6d31362032762d32682d3476326c322d3120312d3176346831762d325a6d2d33312031682d3176316831762d315a6d2d32322030762d31682d3976326839762d315a6d2d31302030762d31682d3276326832762d315a6d36302031682d3176316831762d315a6d2d31302030682d3176316831762d315a6d2d32302030762d31682d336c2d31203268336c312d315a6d34382034762d31682d376c31203176316c322d316832763268316c312d325a6d2d3631203068317631682d31762d315a6d322030762d31682d3576336835762d325a6d2d362030762d31682d3976316c2d312031203520316835762d325a6d2d31312030762d314838376c2d3220317632683138762d325a6d2d313620332d312d3176316c2d31203168336c2d312d315a6d323120302d312d3176336c312d3168316c2d312d315a6d2d322031762d31682d316c2d31203268316c312d315a6d2d392030682d3176316831762d315a6d2d352030682d3176316831762d315a6d38372031682d3720392d325a6d2d382030762d31682d3376326833762d315a6d2d35322030762d31682d3676326836762d315a6d2d382030682d3176316831762d315a6d2d32362030682d3176316831762d315a6d302032682d3176316831762d315a6d39322035682d3176316831762d315a6d2d353920302d312d3176316c2d31203168336c2d312d315a6d2d31322035762d31682d3276326832762d315a6d2d31392030762d38682d317631366831762d385a6d32362030762d386c2d312d312d312d314838376c3234203120312032203120322d31203776366831762d385a6d2d372039682d3176316831762d315a6d2d322030682d3176316831762d315a6d2d3520302d312d3176316c2d31203168336c2d312d315a6d2d3320302d312d312d3120312d31203168346c2d312d315a6d2d342030682d3520362d315a6d34382d3131762d3132682d327632366c322d31762d31335a6d2d31332d37762d372032382d32315a6d33372030762d372032392d32325a6d2d342030762d372032392d32325a6d2d342030762d372032396c312d31342d312d385a6d2d342030762d372032396c312d31342d312d385a6d2d3320302d312d377632396c312d3135762d375a6d2d3420302d312d377632396c312d3135762d375a6d2d31302030762d372032392d32325a6d2d332037762d3132682d327632376c312d3220312d31335a6d2d382d36762d372032382d32315a6d3133203238682d3176316831762d315a6d32322034682d3176316831762d315a6d2d332030682d3620382d325a6d2d372030682d3176316831762d315a6d2d342030682d392031322d335a6d2d313020302d312d3176316c2d31203168336c2d312d315a6d342031302d312d322d3120322d312031682d326c2d312d322d312d312d332d322d342d32682d396c2d362d36682d396c2d312032483836762d326c2d312d31682d36762d33386c352d3268396c322d3320332d336831346c35203568346c372d376833376c3220322032203276346831327633336c2d3420357633682d327636682d313176316c2d362034682d3476316c2d3120312d342d31682d346c2d312d31682d316c2d3120312d312032682d316c2d312d325a22207374796c653d2266696c6c3a233139386462653b222f3e3c7061746820643d226d313336203130352d312d3176316c2d31203168336c2d312d315a6d2d332030682d3176316831762d315a6d323620302d312d3176336c312d3168316c2d312d315a6d2d33203068312d386c31203176316c332d3120332d315a6d2d382030682d31316c3620316835762d315a6d31362032762d32682d3476326c322d3120312d3176346831762d325a6d2d33312031682d3176316831762d315a6d2d32322030762d31682d3976326839762d315a6d2d31302030762d31682d3276326832762d315a6d36302031682d3176316831762d315a6d2d31302030682d3176316831762d315a6d2d32302030762d31682d336c2d31203268336c312d315a6d34382034762d31682d376c31203176316c322d316832763268316c312d325a6d2d3631203068317631682d31762d315a6d322030762d31682d3576336835762d325a6d2d362030762d31682d3976316c2d312031203520316835762d325a6d2d31312030762d314838376c2d3220317632683138762d325a6d2d313620332d312d3176316c2d31203168336c2d312d315a6d323120302d312d3176336c312d3168316c2d312d315a6d2d322031762d31682d316c2d31203268316c312d315a6d2d392030682d3176316831762d315a6d2d352030682d3176316831762d315a6d38372031682d3720392d325a6d2d382030762d31682d3376326833762d315a6d2d35322030762d31682d3676326836762d315a6d2d382030682d3176316831762d315a6d2d32362030682d3176316831762d315a6d302032682d3176316831762d315a6d39322035682d3176316831762d315a6d2d353920302d312d3176316c2d31203168336c2d312d315a6d2d31352035682d3176316831762d315a6d342d312d312d31682d32763368346c2d312d325a6d33352037682d3176316831762d315a6d2d35352d36762d38682d317631366831762d385a6d32362030762d386c2d312d312d312d314838376c3234203120312032203120322d31203776366831762d385a6d32392039682d3176316831762d315a6d2d33362030682d3176316831762d315a6d2d322030682d3176316831762d315a6d2d3520302d312d3176316c2d31203168336c2d312d315a6d2d3320302d312d312d3120312d31203168346c2d312d315a6d2d342030682d3520362d315a6d35302032682d3176316831762d315a6d3138203176316d332d3220312032762d3238682d316c2d32203176336c2d312d32762d336c2d3120332d3120322d312d322d312d332d3120332d3120322031203776366c312031316d2d31342d3130762d326c31203120312031682d316c2d312031762d315a6d3320342d312d3620322d37683176396c3120313020312d36762d313568316c3120317632306831762d316c312d3132762d31326c2d322d3476346c2d3120332d312d36682d356c2d3120312d3220322031203137683176386832762d365a6d2d352d38762d3134682d327631316c2d3120313120312033203120336831762d31345a6d2d342d3132762d32682d327631336c2d312031322031203220312031762d31326c312d3132762d325a6d2d34203132762d3134682d327632386832762d31345a6d2d382030762d3168316c3120317632682d32762d325a6d31203676356c312031203120326831762d3238682d357631326c2d312031312031203320312032762d366c312d3676345a6d3132203135682d3176316831762d315a6d32322034682d3176316831762d315a6d2d332030682d3620382d325a6d2d372030682d3176316831762d315a6d2d342030682d392031322d335a6d2d313020302d312d3176316c2d31203168336c2d312d315a6d342031302d312d322d3120322d312031682d326c2d312d322d312d312d332d322d342d32682d396c2d362d36682d396c2d312032483836762d326c2d312d31682d36762d33386c352d3268396c322d3320332d336831346c35203568346c372d376833376c3220322032203276346831327633336c2d3420357633682d327636682d313176316c2d362034682d3476316c2d3120312d342d31682d346c2d312d31682d316c2d3120312d312032682d316c2d312d325a22207374796c653d2266696c6c3a233732363735613b222f3e3c7061746820643d226d313336203130352d312d3176316c2d31203168336c2d312d315a6d2d3320302d312d3176316c2d31203168336c2d312d315a6d3234203068312d3976326c342d3168336c312d315a6d2d392030682d313176326c362d316835762d315a6d392033682d3176316831762d315a6d2d34362030762d31682d3976326839762d315a6d2d31302030762d31682d3276326832762d315a6d36322d3120312032762d34682d3676326c322d3176346c332d3576325a6d2d323620322d312d31682d3176316c2d3120316833762d315a6d32322d312d312d3176346c312d3168316c2d312d325a6d2d362032762d31682d336c312031763168316c312d315a6d2d32322d31682d312033762d32682d326c2d3220312d3120312d3220316835762d315a6d2d31382031682d3176316831762d315a6d363720332d312d31682d3776336838762d325a6d2d36302030762d31682d3576336835762d325a6d2d362030762d31682d31307633683130762d325a6d2d31312030762d314838376c2d3220317632683138762d325a6d37322033682d3176316831762d315a6d2d38352030682d3176316831762d315a6d3720312d312d312d312d312031203276316831762d315a6d2d332030682d3176316831762d315a6d2d322030682d3176316831762d315a6d38372031682d3720392d325a6d2d36302030762d31682d3676326836762d315a6d2d313320302d312d322034203220322031762d33682d3676316c2d3120326832762d325a6d2d31392d31762d31682d336c3320312d3320326833762d325a6d383320326831762d32682d3476346c312d31762d3168325a6d2d38352031682d3176316831762d315a6d393320352d312d3176316c2d31203168336c2d312d315a6d2d36302031762d31682d32763268316c312d315a6d2d32342033682d3176316831762d315a6d392031682d3176316831762d315a6d342d312d312d31682d32763368346c2d312d325a6d36312037682d3176316831762d315a6d2d32362030682d3176316831762d315a6d2d35352d36762d38682d317631366831762d385a6d35352039682d3176316831762d315a6d2d33302d3120312d31762d31356c2d312d312d312d314838376831326c31322031203120317631366c2d3220312d32203168336c312d325a6d2d352031682d3520362d315a6d2d313020304838376831332d335a6d34352032682d3176316831762d315a6d31362d3231203220323276316c312d3132762d31326c3120347631366c31203220312032762d3238682d316c2d32203176336c2d312d32762d336c2d3120332d3120322d312d322d312d332d3120332d3120322031203776366c3120313120312d313220312d313276315a6d2d3136203133762d326c31203120312031682d316c2d312031762d315a6d3320342d312d3620322d37683176396c3120313020312d36762d313568316c3120317632306831762d316c312d3132762d31326c2d322d3476346c2d3120332d312d36682d356c2d3120312d3220322031203137683176386832762d365a6d2d352d38762d3134682d327631316c2d3120313120312033203120336831762d31345a6d2d342d3132762d32682d327631336c2d312031322031203220312031762d31326c312d3132762d325a6d2d34203132762d3134682d327632386832762d31345a6d2d382030762d3168316c3120317632682d32762d325a6d31203676356c312031203120326831762d3238682d357631326c2d312031312031203320312032762d366c312d3676345a6d3238203135682d3176316831762d315a6d2d31362030682d3176316831762d315a6d31382032682d3176316831762d315a6d2d322030682d3176316831762d315a6d2d322030682d3176316831762d315a6d382032682d3176316831762d315a6d2d332030682d3620382d325a6d2d372030682d3176316831762d315a6d2d342030682d392031322d335a6d2d313020302d312d3176316c2d31203168336c2d312d315a6d342031302d312d322d3120322d312031682d326c2d312d322d312d312d332d322d342d32682d396c2d362d36682d396c2d312032483836762d326c2d312d31682d36762d33386c352d3268396c322d3320332d336831346c35203568346c372d376833376c3220322032203276346831327633336c2d3420357633682d327636682d313176316c2d362034682d3476316c2d3120312d342d31682d346c2d312d31682d316c2d3120312d312032682d316c2d312d325a22207374796c653d2266696c6c3a233130373561383b222f3e3c7061746820643d226d313336203130352d312d3176316c2d31203168336c2d312d315a6d2d3320302d312d3176316c2d31203168336c2d312d315a6d3234203068312d3976326c342d3168336c312d315a6d2d392030682d313176326c362d316835762d315a6d392033682d3176316831762d315a6d2d34362030762d31682d3976326839762d315a6d2d31302030762d31682d3276326832762d315a6d36322d3120312032762d34682d3676326c322d3176346c332d3576325a6d2d323620322d312d31682d3176316c2d3120316833762d315a6d32322d312d312d3176346c312d3168316c2d312d325a6d2d362032762d31682d336c312031763168316c312d315a6d2d32322d31682d312033762d32682d326c2d3220312d3120312d3220316835762d315a6d2d31382031682d3176316831762d315a6d363720332d312d31682d3776336838762d325a6d2d36302030762d31682d3576336835762d325a6d2d362030762d31682d31307633683130762d325a6d2d31312030762d314838376c2d3220317632683138762d325a6d37322033682d3176316831762d315a6d2d38352030682d3176316831762d315a6d3720312d312d312d312d312031203276316831762d315a6d2d332030682d3176316831762d315a6d2d322030682d3176316831762d315a6d38372031682d3720392d325a6d2d36302030762d31682d3676326836762d315a6d2d313320302d312d322034203220322031762d33682d3676316c2d3120326832762d325a6d2d31392d31762d31682d336c3320312d3320326833762d325a6d383320326831762d32682d3476346c312d31762d3168325a6d2d38352031682d3176316831762d315a6d393320352d312d3176316c2d31203168336c2d312d315a6d2d36302031762d31682d32763268316c312d315a6d34382d36762d342031342d31305a6d2d37322039682d3176316831762d315a6d31312032762d316c31203120312031682d336c312d315a6d32203020312d312d312d32682d326c2d3220312d3120312033203368316c312d325a6d36312035682d3176316831762d315a6d2d38312d36762d38682d317631366831762d385a6d3235203820312d31762d31356c2d312d312d312d314838376831326c31322031203120317631366c2d3220312d32203168336c312d325a6d2d352031682d3520362d315a6d2d313020304838376831332d335a6d35362d323268317631682d31762d315a6d2d3231203131762d326c31203120312031682d316c2d312031762d315a6d32312030762d336c31203176336c2d312031762d325a6d2d32312034762d326c31203120312031682d316c2d312031762d315a6d31372031762d326c31203120312031682d316c2d312031762d315a6d2d382030762d3420372d335a6d31362033762d336c31203176336c2d312031762d325a6d342d31762d3520392d345a6d2d3135203668317631682d31762d315a6d2d323020312032203120312d39762d392031326c31203376346c322d31762d346c312d3476346c31203468326c312d323176323168336c312d3776376838762d336c312d332031203720322d3120312d3133203120313268316c312031762d356c32203520322d3376326c32203120312031762d3239682d32366c2d31203276316c2d322d33682d356c2d3120322d312031762d33682d357631336c2d312031332031203220312031762d3268325a6d32372038682d3176316831762d315a6d2d31362030682d3176316831762d315a6d31382032682d3176316831762d315a6d2d322030682d3176316831762d315a6d2d322030682d3176316831762d315a6d382032682d3176316831762d315a6d2d332030682d3620382d325a6d2d372030682d3176316831762d315a6d2d342030682d392031322d335a6d2d313020302d312d3176316c2d31203168336c2d312d315a6d342031302d312d322d3120322d312031682d326c2d312d322d312d312d332d322d342d32682d396c2d362d36682d396c2d312032483836762d326c2d312d31682d36762d33386c352d3268396c322d3320332d336831346c35203568346c372d376833376c3220322032203276346831327633336c2d3420357633682d327636682d313176316c2d362034682d3476316c2d3120312d342d31682d346c2d312d31682d316c2d3120312d312032682d316c2d312d325a22207374796c653d2266696c6c3a233562356135343b222f3e3c7061746820643d224d393820313038682d3176316831762d315a6d36342031762d316c312d3120312d322d31203276336c312031762d36682d3676356c342031762d325a6d2d31362031682d3176316831762d315a6d322d3468317631682d31762d315a6d37203168317631682d31762d315a6d2d323220302d322d3168356c332032682d326c2d312d31682d335a6d2d33203268317631682d31762d315a6d3136203168346c3320312d312d312d312d3220322032203220316832762d36682d32366c2d3320332d3220332031392d3168315a6d2d33332d312d312d3176336c312d3168316c2d312d315a6d2d36203068317631682d31762d315a6d2d3520312d312d3168336c32203120352031762d3448393976346833762d315a6d363220322d312d3176336c312d3168316c2d312d315a6d31362031762d31682d38763368396c2d312d325a6d2d3130203168312d347631682d3120336c312d315a6d2d38372031682d3176316831762d315a6d39362031682d3720392d325a6d2d37322d3168317631682d31762d315a6d352032762d31682d316c2d322d3168336c332d31203120316834762d33682d3136763368332d316c2d32203176336838762d325a6d2d392030762d314839336c2d3220317632683132762d325a6d2d31322030762d31682d327632682d326c312d31762d316c2d312d31682d32203138762d334838356c2d312033763468366c312d325a6d2d362033682d3176316831762d315a6d39332035762d31682d3276326832762d315a6d2d312033762d31682d316c2d3120312031203176316831762d325a6d2d31312d38762d342031342d31305a6d31302031762d316c2d332d3168336c332033682d33762d315a6d2d31203320312d316834762d35682d386c31203135762d386c322d315a6d3420313120312d312d3120312d3120312d322d322d312d312d33203220322d3168316c3120312031203268316c312d325a6d2d3131203068317631682d31762d315a6d332d38762d3130682d347631396c322031203120316831762d31315a6d2d35342d37762d316c31203120312031682d336c312d315a6d302034762d316c31203120312031682d336c312d315a6d302031322d312d316833762d38682d326c322d33762d37682d36763468327631376c312d316831762d315a6d35392032682d3176316831762d315a6d2d36302031682d3176316831762d315a6d2d31352d3131682d3176316831762d315a6d2d362032762d31682d32763268316c312d315a6d31302031762d316c31203120312031682d336c312d315a6d32203020312d312d312d32682d326c2d3220312d3120312033203368316c312d325a6d322035682d3176316831762d315a6d2d32322d36762d396832346c3120327631356c2d32352031762d395a6d32362038762d31376c2d312d314838386c2d3320327631356c3320336832346c312d325a6d363120332d322d3176326832762d315a6d2d35372030682d3176316831762d315a6d353320312d312d3120322d3168312d356c332033762d315a6d2d31372d323568317631682d31762d315a6d2d3231203131762d326c31203120312031682d316c2d312031762d315a6d32312030762d336c31203176336c2d312031762d325a6d2d32312034762d326c31203120312031682d316c2d312031762d315a6d31372031762d326c31203120312031682d316c2d312031762d315a6d2d382030762d3420372d335a6d31362033762d336c31203176336c2d312031762d325a6d342d31762d3520392d345a6d2d3135203668317631682d31762d315a6d2d323020312032203120312d39762d392031326c31203376346c322d31762d346c312d3476346c31203468326c312d323176323168336c312d3776376838762d336c312d332031203720322d3120312d3133203120313268316c312031762d356c32203520322d3376326c32203120312031762d3239682d32366c2d31203276316c2d322d33682d356c2d3120322d312031762d33682d357631336c2d312031332031203220312031762d3268325a6d2d31322d312d312d3176346c312d3168316c2d312d325a6d2d323820332d312d312d312d312031203276316831762d315a6d3830203120312d312d312d312d3220312d32203268336c312d315a6d2d392030682d31342031392d355a6d2d31362030682d3620382d325a6d2d3720302d312d3176316c2d31203168336c2d312d315a6d2d342030682d3620382d325a6d2d382d312d312d312d3120312031203176316831762d325a6d33312036682d3176316831762d315a6d2d31362030682d3176316831762d315a6d3234203268312d3476336c312d3120312d3120312d315a6d2d39203168317631682d31762d315a6d352030762d31682d376c312032682d32762d326c2d312d3176346839762d325a6d2d3134203068336c3120312d332d31682d3320325a6d342030762d31682d31316c3420312d3220312d322031683131762d325a6d2d31322030762d31682d3276336832762d325a6d342031312d312d322d3120322d3120312d392d36762d31682d31316c2d362d36682d396c2d312032483836762d326c2d312d31682d36762d33386c352d3268396c322d3320332d336831346c35203568346c372d376833376c3220322032203276346831327633346c2d3420347633682d327636682d313176316c2d352033682d357632682d31306c2d312d312d3120312d312032682d316c2d312d325a22207374796c653d2266696c6c3a233062353838663b222f3e3c7061746820643d224d393820313038682d3176316831762d315a6d36342031762d316c312d3120312d322d31203276336c312031762d36682d3676356c342031762d325a6d2d31362031682d3176316831762d315a6d322d3468317631682d31762d315a6d37203168317631682d31762d315a6d2d323220302d322d3168356c332032682d326c2d312d31682d335a6d2d33203268317631682d31762d315a6d3136203168346c3320312d312d312d312d3220322032203220316832762d36682d32366c2d3320332d3220332031392d3168315a6d2d33332d312d312d3176336c312d3168316c2d312d315a6d2d36203068317631682d31762d315a6d2d3520312d312d3168336c32203120352031762d3448393976346833762d315a6d363220322d312d3176336c312d3168316c2d312d315a6d31362031762d31682d38763368396c2d312d325a6d2d39372032682d3176316831762d315a6d39362031682d3720392d325a6d2d37322d3168317631682d31762d315a6d352032762d31682d316c2d322d3168336c332d31203120316834762d33682d3136763368332d316c2d32203176336838762d325a6d2d392030762d314839336c2d3220317632683132762d325a6d2d31322030762d31682d327632682d326c312d31762d316c2d312d31682d32203138762d334838356c2d312033763468366c312d325a6d2d362033682d3176316831762d315a6d39332035762d31682d3276326832762d315a6d2d312033762d31682d316c2d3120312031203176316831762d325a6d2d312d37762d316c2d332d3168336c332033682d33762d315a6d2d31203320312d316834762d35682d386c31203135762d386c322d315a6d3420313120312d312d3120312d3120312d322d322d312d312d33203220322d3168316c3120312031203268316c312d325a6d2d3131203068317631682d31762d315a6d332d38762d3130682d347631396c322031203120316831762d31315a6d2d35342d37762d316c31203120312031682d336c312d315a6d302034762d316c31203120312031682d336c312d315a6d302031322d312d316833762d38682d326c322d33762d37682d36763468327631376c312d316831762d315a6d35392032682d3176316831762d315a6d2d36302031682d3176316831762d315a6d2d31352d3131682d3176316831762d315a6d2d362032762d31682d32763268316c312d315a6d3133203120312d322d322d312d322d312d3220312d3120322031203368346c312d325a6d312035682d3176316831762d315a6d2d32322d36762d396832346c3120327631356c2d32352031762d395a6d32362038762d31376c2d312d314838386c2d3320327631356c3320336832346c312d325a6d363120332d322d3176326832762d315a6d2d35372030682d3176316831762d315a6d353320312d312d3120322d3168312d356c332033762d315a6d2d35362d312d312d3176346c312d3168316c2d312d325a6d2d323820332d312d312d312d312031203276316831762d315a6d3830203120312d312d312d312d3220312d32203268336c312d315a6d2d392030682d31342031392d355a6d2d31362030682d3620382d325a6d2d3720302d312d3176316c2d31203168336c2d312d315a6d2d342030682d3620382d325a6d33342d313268317631682d31762d315a6d30203368317631682d31762d315a6d302033762d326c31203120312032682d316c2d312031762d325a6d2d343220352d312d316832316c3231203120322d3220312d3120312d323668326c322d31682d336c2d3220312d322032762d32682d34316c2d3320327632376c3120326831762d325a6d33312036682d3176316831762d315a6d2d31362030682d3176316831762d315a6d3234203268312d3476336c312d3120312d3120312d315a6d2d39203168317631682d31762d315a6d352030762d31682d376c312032682d32762d326c2d312d3176346839762d325a6d2d3134203068336c3120312d332d31682d3320325a6d342030762d31682d31316c3420312d3220312d322031683131762d325a6d2d31322030762d31682d3276336832762d325a6d342031312d312d322d3120322d3120312d392d36762d31682d31316c2d362d36682d396c2d312032483836762d326c2d312d31682d36762d33386c352d3268396c322d3320332d336831346c35203568346c372d376833376c3220322032203276346831327633346c2d3420347633682d327636682d313176316c2d352033682d357632682d31306c2d312d312d3120312d312032682d316c2d312d325a22207374796c653d2266696c6c3a233366336633643b222f3e3c7061746820643d224d3133342031303668317631682d31762d315a6d33302032762d33682d33376c31203176316c312d3168316c2d34203420312d3220312d31682d316c2d3220322d322032683431762d335a6d2d36362031762d316c3120317632683132762d336c322033762d344839386c2d3120322d3220326833762d325a6d36362034762d31682d34307632683430762d315a6d372032762d31682d3576326835762d315a6d35203068317631682d31762d315a6d2d33203068317631682d31762d315a6d372d31762d32682d3876356838762d335a6d2d3839203268317631682d31762d315a6d2d33203068317631682d31762d315a6d3135203020312d3276356838762d336c332d31203320316832762d346c3120322031203120312d3120312d312d312d314838376c2d3120312d32203120322d332d3220322d32203176326c322d317634683139762d335a6d2d323020352d312d3176336c312d3168316c2d312d315a6d302033682d3176316831762d315a6d302033682d3176316831762d315a6d393420302d312d3168326c3120317631682d32762d315a6d332034762d346c2d312d33682d34763868346c312d315a6d2d36312d34762d3130682d367635683276313568326c322031762d31315a6d35332031762d313020323168356c322d3320312d32762d316c2d362d31762d336c2d312d3320332d336834762d35682d366c2d372d3276323368346c312d31315a6d2d36362d33682d3176316831762d315a6d2d322031762d31682d316c2d31203268316c312d315a6d372030762d31682d3276326c2d312d312d312d312031203176326c322d3120312d315a6d2d32312031682d3176316831762d315a6d323020322d312d3176346c312d3168316c2d312d325a6d2d32203220312d322d322d312d322d312d3220312d3120322031203368346c312d325a6d2d372d32762d3220336c2d31203320312d31762d335a6d312035682d3176316831762d315a6d2d342d3220312d312d342032762d36682d3476326c322d3176346c3120312031203220332d335a6d313320322d312d3176336c312d3168316c2d312d315a6d2d3420312d312d3176316c2d31203168336c2d312d315a6d2d332030682d3176316831762d315a6d352032762d316c2d34203176316834762d315a6d2d372030762d31682d336c312031763168316c312d315a6d2d31352d37762d396832346c3120327631356c2d32352031762d395a6d32362038762d31376c2d312d314838346c3220312d3120313720312031203220316832346c312d325a6d2d33302031682d3176316831762d315a6d38312d3668317631682d31762d315a6d30203368317631682d31762d315a6d302033762d326c31203120312032682d316c2d312031762d325a6d31203320312d31762d32356c2d322031762d32682d34316c2d3320327632346c3320336834306c322d325a6d36203068317631682d31762d315a6d34203020322d32682d3130763568356c332d335a6d2d35362030762d33682d356c2d3120322d3120322d312031682d326c3520316835762d335a6d2d31322032682d382031302d325a6d2d31332030682d35762d336c2d3320332d312d316832762d326c2d312d31682d3176356c31342d31682d355a6d37322030762d326c2d332033682d3176316834762d325a6d2d392031682d31342031392d355a6d2d31372030682d382031312d335a6d2d31302030682d3620382d325a6d2d382d312d312d31682d316c3120332032203220312d322d322d325a6d333220362d312d3176316c2d31203168336c2d312d315a6d2d31372d312d312d3176336c312d3168316c2d312d315a6d2d34382031682d3176316831762d315a6d34322031682d3176316831762d315a6d2d31342030682d3176316831762d315a6d322031682d3176316831762d315a6d31362031762d316c2d322d337635682d336c3320316832762d325a6d323620326832762d33682d3576356c312d3120312d3168325a6d2d31322d3268317631682d31762d315a6d2d32203068317631682d31762d315a6d32203268336c312031682d356c312d315a6d2d37203068362d3820325a6d313320312d322d316834762d33682d323176356831316c31312d31682d335a6d2d323420362d332d322d312d31762d31682d31316c2d362d36682d396c2d312032483836762d326c2d312d31682d36762d33386c352d3268396c322d3320332d336831346c35203568346c372d376833376c3220322032203276346831327633336c2d3420357633682d327635682d386c2d372035682d3676326c2d31302031762d316c2d312d322d3120322d3120312d342d322d3120322d312d312d342d325a22207374796c653d2266696c6c3a233233333234313b222f3e3c7061746820643d224d3133342031303668317631682d31762d315a6d33302032762d33682d33376c31203176316c312d3168316c2d34203420312d3220312d31682d316c2d3220322d322032683431762d335a6d2d36362031762d316c3120317632683132762d336c322033762d344839386c2d3120322d3220326833762d325a6d37332036762d31682d3576326835762d315a6d35203068317631682d31762d315a6d2d33203068317631682d31762d315a6d372d31762d32682d3876356838762d335a6d2d3839203268317631682d31762d315a6d2d33203068317631682d31762d315a6d3135203020312d3276356838762d336c332d31203320316832762d346c3120322031203120312d3120312d312d312d314838376c2d3120312d32203120322d332d3220322d32203176326c322d317634683139762d335a6d2d323020352d312d3176336c312d3168316c2d312d315a6d302033682d3176316831762d315a6d302033682d3176316831762d315a6d393420302d312d3168326c3120317631682d32762d315a6d332034762d346c2d312d33682d34763868346c312d315a6d2d36312d34762d3130682d367635683276313568326c322031762d31315a6d35332031762d313020323168356c322d3320312d32762d316c2d362d31762d336c2d312d3320312d3220322d316834762d35682d366c2d372d3276323368346c312d31315a6d2d36362d33682d3176316831762d315a6d2d31362032682d3176316831762d315a6d323020322d312d3176346c312d3168316c2d312d325a6d2d382035682d3176316831762d315a6d2d342d3220312d312d342032762d36682d3476326c322d3176346c3120312031203220332d335a6d313320322d312d3176336c312d3168316c2d312d315a6d2d3520312d312d3120322d3168326c2d312d33762d336c31203120312d3120322d312d312d312d312d3176316c2d3120312d36203120322d332d3120312d3120317632682d3376356c322d3120312d3176326c3120312d31203168336c3220312d322d315a6d332032762d316c2d34203176316834762d315a6d2d372030762d31682d336c312031763168316c312d315a6d2d31352d37762d396832346c3120327631356c2d32352031762d395a6d32362038762d31376c2d312d314838346c3220312d3120313720312031203220316832346c312d325a6d2d33302031682d3176316831762d315a6d37332d323568317631682d31762d315a6d2d323320306832332d333120385a6d333220323820312d31762d32356c2d342d312d342d316837762d316c2d312d31682d34307633682d326c2d3220317632356c3320336834316c312d325a6d36203068317631682d31762d315a6d34203020322d32682d3130763568356c332d335a6d2d35362030762d33682d356c2d3120322d3120322d312031682d326c3520316835762d335a6d2d31322032682d382031302d325a6d2d31332030682d35762d336c2d3320332d312d316832762d326c2d312d31682d3176356c31342d31682d355a6d37322030762d326c2d332033682d3176316834762d325a6d2d392031682d31342031392d355a6d2d31372030682d382031312d335a6d2d31302030682d3620382d325a6d2d382d312d312d31682d316c3120332032203220312d322d322d325a6d333220362d312d3176316c2d31203168336c2d312d315a6d2d31372d312d312d3176336c312d3168316c2d312d315a6d2d34382031682d3176316831762d315a6d34322031682d3176316831762d315a6d2d31342030682d3176316831762d315a6d322031682d3176316831762d315a6d31362031762d316c2d322d337635682d336c3320316832762d325a6d323620326832762d33682d3576356c312d3120312d3168325a6d2d31322d3268317631682d31762d315a6d2d32203068317631682d31762d315a6d32203268336c312031682d356c312d315a6d2d37203068362d3820325a6d313320312d322d316834762d33682d323176356831316c31312d31682d335a6d2d323420362d332d322d312d31762d31682d31316c2d362d36682d396c2d312032483836762d326c2d312d31682d36762d33386c352d3268396c322d3320332d336831346c35203568346c372d376833376c3220322032203276346831327633336c2d3420357633682d327635682d386c2d372035682d3676326c2d31302031762d316c2d312d322d3120322d3120312d342d322d3120322d312d312d342d325a22207374796c653d2266696c6c3a233234326433353b222f3e3c7061746820643d226d39362031313120322d3120312d31762d31203368386c372d31203220324839356c312d315a6d3634203368336c3120312d332d31682d3320325a6d2d34203068317631682d31762d315a6d2d35203068352d3720325a6d2d313320306831302d313320335a6d2d3130203068372d3920325a6d2d3235203168317631682d31762d315a6d2d3132203168317631682d31762d315a6d2d33203068317631682d31762d315a6d3235203020312d3168336c332031762d346c312032203120312d3120312d312031682d386c312d315a6d362034762d326c31203120312031682d316c2d312031762d315a6d30203368317631682d31762d315a6d312035762d3320356c2d31203120312d335a6d34372d3139762d32682d3276346832762d325a6d2d332d32762d33682d33356c2d3620357632683431762d345a6d362035682d3176316831762d315a6d33203368317631682d31762d315a6d372d31762d32682d3876356838762d335a6d2d39372034682d3176316831762d315a6d31382038762d31682d32763268316c312d315a6d3735203068317631682d31762d315a6d34203420312d312d312d332d312d32682d34763868346c312d325a6d2d37312d332d312d3220312031203120317631682d31762d315a6d322d31762d31682d387631682d3120326c322d31203220322031203176326c31203220312d35762d315a6d2d32203131762d31682d37762d32682d316c2d312031762d326c312d3120322d3176326c31203176316c2d31203168356c2d322d312d312d3120322d31683176316c2d31203120312d316831762d336c2d312d332d332d322d3320322d312d312d31203376336c2d3120327633683130762d315a6d2d31342d31302d312d3168326c3120317632682d316c2d312d325a6d332037762d326c2d332d316833762d356c2d322d31682d316c2d3220312d32203176326c312d31683176356c31203120322032682d34762d326c2d3120312d32203120332d352d312d322d312d3220332d32682d347631316c32203220332d316834762d335a6d2d31352d3130762d352031392d31345a6d302031352d312d3176356c312d31762d335a6d3931203368317631682d31762d315a6d2d32203420312d312d312d3168336c352d36762d356c2d362d312d312d33762d336c332d336834762d35682d366c2d372d3276323368346c312d323176323168376c2d31322031763868336c322d325a6d2d34392030762d316c2d332d3376366833762d325a6d2d31392d36762d316c31203120312031682d336c312d315a6d2d33203068317631682d31762d315a6d302033762d3168366c2d3220312d312031682d33762d315a6d2d392d312d312d3120342d3168347634682d32762d32682d346c332032682d336c2d312d325a6d2d332030762d316c2d3120312d322d312d312d3120312d3120312d3176336c332d31203120327632682d32762d325a6d2d33203168317631682d31762d315a6d32372033762d316c3220317631682d32762d315a6d2d32203068317631682d31762d315a6d2d3230203068317631682d31762d315a6d2d3520302d312d3168336c312032682d33762d315a6d3132203020312d3276346839762d37683276336c2d312034683130762d39682d346c2d332032762d33682d31326c2d31332031762d31386832346c3120317631346c2d312d342d3220322031203276316833762d31366c2d312d3148383468316c3120317631682d317631396c2d3120322d3120332032203120322031683131762d325a6d32342033682d3176316831762d315a6d333320312d312d312d3120312d31203168346c2d312d315a6d2d342030682d3176316831762d315a6d2d322030682d3176316831762d315a6d2d332030682d3720392d325a6d2d392d312d312d3176336c312d3168316c2d312d315a6d2d32332031682d3176316831762d315a6d2d322030682d3176316831762d315a6d2d31362d312d312d3176336c312d3168316c2d312d315a6d2d352031682d3176316831762d315a6d2d322030682d3176316831762d315a6d38332032762d316c2d322d31682d3376336835762d315a6d2d34332d322d312d3176346c312d3168316c2d312d325a6d2d322032762d316c2d31302d31682d3176316c3120317631683130762d315a6d34322033682d3176316831762d315a6d2d343920302d312d3176316c2d31203168336c2d312d315a6d33372d3120312d32763568336c332d312d352d316835762d326c2d312d31682d32377635683231762d335a6d2d33332032762d31682d316c2d31203268316c312d315a6d382d3368317631682d31762d315a6d3020332d312d3220312031203220326831762d38682d3276332d316c2d312d31682d3276386832762d325a6d2d3120362d332d322d312d31762d31682d31316c2d322d322d322d3220312d31762d31682d31316c2d3120312d312031483836762d326c2d312d31682d36762d33376c332d3220322d3168317632682d316c2d322d3176356c322d3376356831396c312d32762d31203368396c32203576313368326c32203120312d377631306c3320336831326c2d31312031763368376c312d32762d312033683130762d336c3320332031362d3120312d31762d3120336834762d366c2d3120322d3120312d31352d31682d31342032396c322d33762d32356c2d322d3120372031762d32682d356c312d32682d343376336c2d312d32762d31682d366c2d322d332d332d324839386c2d3220322d332033682d346c2d332d3168376c322d3320332d336831346c35203568346c372d376833376c3220322032203276346831327633346c2d352032203120327632682d316c2d3120317635682d386c2d372035682d3676326c2d31302031762d316c2d312d322d3120322d3120312d342d322d312032682d316c2d342d335a22207374796c653d2266696c6c3a233232323432363b222f3e3c7061746820643d226d3136302031313120312d312031203120312031682d326c2d322d3168315a6d2d323620306832352d333420395a6d2d3134203268317631682d31762d315a6d3339203120312d312031203120312031682d326c2d322d3168315a6d2d33203068317631682d31762d315a6d2d322030762d316c31203120312031682d336c312d315a6d2d34203020312d312031203120312031682d326c2d322d3168315a6d2d313220306831302d313320335a6d2d3130203068372d3920325a6d2d35203068317631682d31762d315a6d35372030762d326c2d332d31682d3420376c31203176336c2d312031762d325a6d2d3839203268317631682d31762d315a6d2d33203068317631682d31762d315a6d3235203120312d3120382d312d3120312d342031682d3520315a6d2d37203268317631682d31762d315a6d2d33203068317631682d31762d315a6d2d33203068317631682d31762d315a6d2d33203068317631682d31762d315a6d2d34203068336c3120312d332d31682d3320325a6d2d34203068317631682d31762d315a6d2d32203068317631682d31762d315a6d33322031762d326c31203120312031682d316c2d312031762d315a6d2d372031762d31682d326c2d322d3168326c322d3120312032203120312d322031762d315a6d2d32382031762d3168326c2d312032682d31762d315a6d30203268317631682d31762d315a6d31382032762d32203268352d326c2d3120312d3120312d312031762d335a6d37332031762d3468332d316c2d32203176362d335a6d2d35352031762d3320356c2d31203120312d335a6d2d3336203120312d33203120332d3220312d31203120312d325a6d32392037762d326c31203120312031682d316c2d312031762d315a6d2d342d39682d3176316831762d315a6d302037762d31682d316c2d31203268316c312d315a6d2d372d312d312d3176336c312d3168316c2d312d315a6d2d3120322d312d3120322d3320312032203120312d31203268356c2d322d312d312d3120322d3168326c2d312d34762d346c32203176386c2d3220312d312032682d346c2d322d325a6d3137203320312d3120312d33762d332038682d336c312d315a6d2d33203068317631682d31762d315a6d2d33312d3220312d33762d312037682d326c312d335a6d32382034762d316c322d3176326c2d322031762d315a6d2d31372d31332d312d322031203120322032682d3176316c2d312d325a6d312034762d316c31203120312031682d336c312d315a6d2d3420342d322d3120312d31762d346c322031763568326c3120312d312d31682d335a6d362d34762d36682d346c2d3220312d32203220332d33682d35763133683130762d375a6d2d31312038762d31376832357631346c2d322d3520312d33762d34682d31317631346831322d31326c2d3133203176312d315a6d2d342033762d326c31203120312032682d316c2d312031762d325a6d3737203268346c312d3220312d31762d3235682d326c312d312032203120332031682d3376323268346c312d3231763232682d3576346c2d312d31682d3176316c2d3120312d382d3168345a6d2d323020306831362d323120355a6d2d3130203068352d3720325a6d2d34203068317631682d31762d315a6d2d34352d3139682d3176316831762d315a6d3938203138682d3176316831762d315a6d2d373020362d312d312d3120312d31203168346c2d312d315a6d353420312d312d31682d3576326836762d315a6d2d372030762d31682d3476326834762d315a6d31392030762d31682d3276336c322d31762d315a6d2d373520312d312d3120322d3168312d3576326c2d322d337632682d33762d326c2d332033762d326c2d3220317632683133762d315a6d32392030762d32682d31337635683133762d335a6d2d31342032762d31682d326c312d3220312d31682d3476326c3320336831762d315a6d353420312d312d3220312031203120317631682d31762d315a6d332d32762d33682d3576356c312031203120316833762d345a6d2d34332033682d313276326c362d316836762d315a6d323320352d312d3168326c3120326833762d33682d366c2d31203368346c2d322d315a6d2d332d3968317631682d31762d315a6d2d38203068352d3720325a6d2d34203068317631682d31762d315a6d39203820312d312031203120312031682d326c2d322d3168315a6d2d3720302d322d3268346c2d32203120322031203120326837762d336c2d382d316832316c2d34203176336c352d3320312d3220312d312d312d322d312d31682d3131762d326c2d312d31682d31346c2d322032762d32682d3576386c33203368326c312d35763668356c2d322d325a6d2d3820332d332d322d312d31762d31682d31316c2d362d36682d396c2d312032483836762d326c2d312d31682d35762d33336c312d31762d316c2d312d31682d316c322d3220332d3220312031682d316c2d32203176356c32203120312031682d337632346c3320346831336c312d32762d31203368396c312d34762d342038683130762d336c312d332d312d31762d316c322032203220312031203120322031682d336c2d332d33763668336c312d32762d3120336831386c312d32762d3120336832336c312d32762d32203468346c352d3520342d35762d36682d326c2d3220312d312d312d312d316836762d3133682d39762d34682d356c312d31762d316c2d332d316833762d346c2d342d33682d33346c2d372036203320322d342d31682d346c2d322d322d332d324839386c2d3220322d332033682d316c362d376831346c35203568346c372d376833376c3220322032203276336c312033762d316c312d316831763668397632376c2d3220322d3220312d3120352d312035682d386c2d372035682d3676326c2d312d31682d326c312031682d38762d316c2d312d312d3120322d3120312d342d322d3120322d312d312d342d325a22207374796c653d2266696c6c3a233134316432323b222f3e3c7061746820643d224d3135352031313168317631682d31762d315a6d2d35203068317631682d31762d315a6d2d32203068317631682d31762d315a6d2d3131203068317631682d31762d315a6d34332034762d326c31203120312031682d316c2d312031762d315a6d2d3132203168317631682d31762d315a6d2d3530203068317631682d31762d315a6d2d33203068317631682d31762d315a6d2d32203068317631682d31762d315a6d2d3232203068317631682d31762d315a6d2d33203068317631682d31762d315a6d3930203168317631682d31762d315a6d2d33203068317631682d31762d315a6d2d332d312d312d32682d346c312d362d352d34682d33346c2d3420342d342033682d326c2d322d312d372d3448393876316c2d3120312d34203320352d366831346c35203568346c372d376833376c322032203320332d3220312031203420322d3168316c3120337633682d31762d325a6d2d3630203468317631682d31762d315a6d3632203668317631682d31762d315a6d2d37302030762d316c31203120312031682d336c312d315a6d2d39203168317631682d31762d315a6d2d342030762d3168316c2d312032682d316c312d315a6d2d3132203068317631682d31762d315a6d3939203568317631682d31762d315a6d2d3320302d312d3168326c3120317631682d32762d315a6d2d3638203120312d31762d376c3120317638682d336c312d315a6d2d3720302d312d3120312d3576346c31203376316c2d312d325a6d2d392030762d356c312031203120317634682d336c312d315a6d31312031762d326c31203120312032682d316c2d312031762d325a6d2d342031762d326c31203120312031682d316c2d312031762d315a6d382031762d316c31203120312031682d336c312d315a6d3131203268317631682d31762d315a6d2d3136203068362d3820325a6d2d31342d38762d386832357631332d31682d31762d31316c2d3320312d34203120312d31762d31682d326c2d3320312d31203176316c2d312d31762d32682d396c2d312031356831312d366c2d362031762d395a6d2d34203868317631682d31762d315a6d38392d39762d31312032322d31315a6d2d3539203130762d316c31203120312031682d336c312d315a6d3431203968336c312031682d356c312d315a6d2d37203068352d3720325a6d2d36203068336c312031682d356c312d315a6d2d33203068317631682d31762d315a6d2d3132203068317631682d31762d315a6d39203168317631682d31762d315a6d3430203168317631682d31762d315a6d2d323320312d312d3220312031203120317631682d31762d315a6d2d3337203168317631682d31762d315a6d3539203368317631682d31762d315a6d2d34342d32762d3420372d335a6d3237203468317631682d31762d315a6d32322d3133762d31682d316c2d3120326832762d315a6d2d3420332d312d3176316c2d31203168336c2d312d315a6d2d31372031342d312d31762d326c3120312031203220352d34762d346c2d322d3120312d3220312d31682d366c312d3168366c362d3120392d37762d31326c312d3131763233682d316c2d31203120312031203220312d372036682d32763368327632682d33762d35682d3576326c2d322d3276346c312033762d326c312d3376366c2d3820352d312d315a6d2d33203068317631682d31762d315a6d2d34352d31312d312d31682d3676326837762d315a6d2d39203120322d3248393376326c2d312d32682d3576346831326c322d325a6d333020382d312d312d312d312031203276316831762d315a6d32322034762d31682d33763268326c312d315a6d2d362030762d31682d336c31203268316c312d315a6d2d3920302d322d312d342d31682d336c2d322d33682d31316c2d362d36682d396c2d312032483836762d326c2d312d31682d36762d366c312d3620322d362d322d31682d316c322d32762d36682d316c2d31203120312d3220312d3420312d33682d326c2d312d3120322d3220332d32203120312d322031682d316c31203334682d33763368336c322d326833386c322031682d313476326c3620366831336c3220312032203268323076326c2d3120312d312031682d386c2d322d32682d336c31203176316c312d3168317632682d326c2d322d325a6d2d3420312d312d3168326c312032682d32762d315a22207374796c653d2266696c6c3a233064306631313b222f3ea264697066735822122041304d4f6e90ea68a3c75c15d0f049365ec930678d35a2794be31bc06155574364736f6c634300081c0033",
          "opcodes": "PUSH1 0x80 PUSH1 0x40 MSTORE CALLVALUE DUP1 ISZERO PUSH1 0xF JUMPI PUSH1 0x0 DUP1 REVERT JUMPDEST POP PUSH2 0x540E DUP1 PUSH2 0x1F PUSH1 0x0 CODECOPY PUSH1 0x0 RETURN INVALID PUSH1 0x80 PUSH1 0x40 MSTORE CALLVALUE DUP1 ISZERO PUSH2 0x10 JUMPI PUSH1 0x0 DUP1 REVERT JUMPDEST POP PUSH1 0x4 CALLDATASIZE LT PUSH2 0x2B JUMPI PUSH1 0x0 CALLDATALOAD PUSH1 0xE0 SHR DUP1 PUSH4 0xD607497A EQ PUSH2 0x30 JUMPI JUMPDEST PUSH1 0x0 DUP1 REVERT JUMPDEST PUSH2 0x38 PUSH2 0x4E JUMP JUMPDEST PUSH1 0x40 MLOAD PUSH2 0x45 SWAP2 SWAP1 PUSH2 0x71 JUMP JUMPDEST PUSH1 0x40 MLOAD DUP1 SWAP2 SUB SWAP1 RETURN JUMPDEST PUSH1 0x60 PUSH1 0x40 MLOAD DUP1 PUSH2 0x5340 ADD PUSH1 0x40 MSTORE DUP1 PUSH2 0x5319 DUP2 MSTORE PUSH1 0x20 ADD PUSH2 0xC0 PUSH2 0x5319 SWAP2 CODECOPY SWAP1 POP SWAP1 JUMP JUMPDEST PUSH1 0x20 DUP2 MSTORE PUSH1 0x0 DUP3 MLOAD DUP1 PUSH1 0x20 DUP5 ADD MSTORE PUSH1 0x0 JUMPDEST DUP2 DUP2 LT ISZERO PUSH2 0x9F JUMPI PUSH1 0x20 DUP2 DUP7 ADD DUP2 ADD MLOAD PUSH1 0x40 DUP7 DUP5 ADD ADD MSTORE ADD PUSH2 0x82 JUMP JUMPDEST POP PUSH1 0x0 PUSH1 0x40 DUP3 DUP6 ADD ADD MSTORE PUSH1 0x40 PUSH1 0x1F NOT PUSH1 0x1F DUP4 ADD AND DUP5 ADD ADD SWAP2 POP POP SWAP3 SWAP2 POP POP JUMP INVALID EXTCODECOPY PUSH17 0x61746820643D224D31313120313230682D CALLDATALOAD KECCAK256 CALLER PUSH13 0x3320312D312D315A6D2D372030 0x2D BALANCE 0x2D BALANCE 0x2D BALANCE KECCAK256 BALANCE 0x2D BALANCE KECCAK256 BALANCE PUSH9 0x346C2D312D315A6D2D CALLVALUE KECCAK256 ADDRESS PUSH9 0x2D3176316831762D31 GAS PUSH14 0x2D322030682D336C2D3120316835 PUSH13 0x2D312D315A6D2D382030682D31 PUSH23 0x316831762D315A6D2D322030682D3176316831762D315A PUSH14 0x3531203435762D31682D326C2D32 KECCAK256 BALANCE 0x2D CALLVALUE 0x2D CALLER PUSH9 0x2D316C2D342D34682D BALANCE ADDRESS PUSH13 0x2D362D36682D396C2D31203248 CODESIZE CALLDATALOAD PUSH23 0x2D33682D36762D33386C332D3120322D3268396C332D33 KECCAK256 ORIGIN 0x2D ORIGIN PUSH9 0x31346C332032203320 CALLER PUSH9 0x336C332D3420342D33 KECCAK256 CALLER CALLDATASIZE 0x2D BALANCE KECCAK256 CALLER KECCAK256 ORIGIN KECCAK256 ORIGIN KECCAK256 ORIGIN PUSH23 0x356831327633336C2D3420357633682D327636682D396C 0x2D CALLDATASIZE KECCAK256 CALLER PUSH23 0x32682D3676316C2D3120312D342D31682D346C2D312D31 0x2D ORIGIN 0x2D BALANCE PUSH23 0x34682D33762D315A22207374796C653D2266696C6C3A23 CALLDATACOPY PUSH4 0x66626662 EXTCODESIZE 0x22 0x2F RETURNDATACOPY EXTCODECOPY PUSH17 0x61746820643D224D31333920313635762D BALANCE PUSH9 0x2D326C2D3220312D34 0x2D CALLER PUSH9 0x2D316C2D342D34682D BALANCE ADDRESS PUSH13 0x2D362D36682D396C2D31203248 CODESIZE CALLDATALOAD PUSH23 0x2D33682D36762D33386C332D3120322D3268396C332D33 KECCAK256 ORIGIN 0x2D ORIGIN PUSH9 0x31346C332032203320 CALLER PUSH9 0x336C332D3420342D33 KECCAK256 CALLER CALLDATASIZE 0x2D BALANCE KECCAK256 CALLER KECCAK256 ORIGIN KECCAK256 ORIGIN KECCAK256 ORIGIN PUSH23 0x356831327633336C2D3420357633682D327636682D396C 0x2D CALLDATASIZE KECCAK256 CALLER PUSH23 0x32682D3676316C2D3120312D342D31682D346C2D312D31 0x2D ORIGIN 0x2D BALANCE PUSH23 0x34682D33762D315A22207374796C653D2266696C6C3A23 CALLDATALOAD CALLDATACOPY PUSH6 0x3366313B222F RETURNDATACOPY EXTCODECOPY PUSH17 0x61746820643D224D31313120313230682D CALLDATALOAD KECCAK256 CALLER PUSH13 0x3320312D312D315A6D2D372030 0x2D BALANCE 0x2D BALANCE 0x2D BALANCE KECCAK256 BALANCE 0x2D BALANCE KECCAK256 BALANCE PUSH9 0x346C2D312D315A6D2D CALLVALUE KECCAK256 ADDRESS PUSH9 0x2D3176316831762D31 GAS PUSH14 0x2D322030682D336C2D3120316835 PUSH13 0x2D312D315A6D2D382030682D31 PUSH23 0x316831762D315A6D2D322030682D3176316831762D315A PUSH14 0x3138203130762D31682D32763268 ORIGIN PUSH23 0x2D315A6D36332031322D312D32382D343820327632366C ORIGIN ADDRESS KECCAK256 CALLER KECCAK256 ORIGIN CODECOPY 0x2D CALLER GAS PUSH14 0x2D3330203233762D31682D326C2D ORIGIN KECCAK256 BALANCE 0x2D CALLVALUE 0x2D CALLER PUSH9 0x2D316C2D342D34682D BALANCE ADDRESS PUSH13 0x2D362D36682D396C2D31203248 CODESIZE CALLDATALOAD PUSH23 0x2D33682D36762D33386C332D3120322D3268396C332D33 KECCAK256 ORIGIN 0x2D ORIGIN PUSH9 0x31346C332032203320 CALLER PUSH9 0x336C332D3420342D33 KECCAK256 CALLER CALLDATASIZE 0x2D BALANCE KECCAK256 CALLER KECCAK256 ORIGIN KECCAK256 ORIGIN KECCAK256 ORIGIN PUSH23 0x356831327633336C2D3420357633682D327636682D396C 0x2D CALLDATASIZE KECCAK256 CALLER PUSH23 0x32682D3676316C2D3120312D342D31682D346C2D312D31 0x2D ORIGIN 0x2D BALANCE PUSH23 0x34682D33762D315A22207374796C653D2266696C6C3A23 CODESIZE PUSH6 0x383937633B22 0x2F RETURNDATACOPY EXTCODECOPY PUSH17 0x61746820643D224D31353920313035682D BALANCE PUSH23 0x316831762D315A6D2D332030682D3176316831762D315A PUSH14 0x2D3520302D312D3176316C2D3120 BALANCE PUSH9 0x336C2D312D315A6D2D CALLER KECCAK256 ADDRESS PUSH9 0x2D3176316831762D31 GAS PUSH14 0x2D3220302D312D3176316C2D3120 BALANCE PUSH9 0x336C2D312D315A6D2D CALLER KECCAK256 ADDRESS PUSH9 0x2D3176316831762D31 GAS PUSH14 0x2D322030682D3176316831762D31 GAS PUSH14 0x2D382030682D3176316831762D31 GAS PUSH14 0x32392031762D31682D3276326831 PUSH13 0x312D315A6D322032682D317631 PUSH9 0x31762D315A6D2D3334 KECCAK256 ADDRESS PUSH9 0x2D3176316831762D31 GAS PUSH14 0x2D31392030762D31682D35763268 CALLDATALOAD PUSH23 0x2D315A6D2D362030762D31682D3376326833762D315A6D 0x2D CALLVALUE KECCAK256 ADDRESS PUSH23 0x2D31682D3276326832762D315A6D36302031682D317631 PUSH9 0x31762D315A6D313720 CALLER 0x2D BALANCE 0x2D BALANCE PUSH23 0x316C2D31203168336C2D312D315A6D2D36302031762D31 PUSH13 0x322033762D33682D3576336833 PUSH23 0x2D325A6D2D342030762D31682D396C2D31203268313076 0x2D BALANCE GAS PUSH14 0x2D31312030762D314838376C2D32 KECCAK256 BALANCE PUSH23 0x32683138762D325A6D352033682D3176316831762D315A PUSH14 0x2D32322030682D3176316831762D BALANCE GAS PUSH14 0x362031682D3176316831762D315A PUSH14 0x383720312D312D312D3120312D31 KECCAK256 BALANCE PUSH9 0x346C2D312D315A6D2D CALLVALUE KECCAK256 ADDRESS 0x2D BALANCE 0x2D BALANCE 0x2D BALANCE KECCAK256 BALANCE 0x2D BALANCE KECCAK256 BALANCE PUSH9 0x346C2D312D315A6D2D CALLVALUE KECCAK256 ADDRESS PUSH23 0x2D31682D3376326833762D315A6D2D353220302D312D31 PUSH9 0x2D356C312031203220 BALANCE PUSH9 0x33762D315A6D2D3820 ADDRESS PUSH9 0x2D3176316831762D31 GAS PUSH14 0x2D32362032682D3176316831762D BALANCE GAS PUSH14 0x322032682D3176316831762D315A PUSH14 0x39302033682D3176316831762D31 GAS PUSH14 0x2D35392030682D3176316831762D BALANCE GAS PUSH14 0x2D31322035762D31682D32763268 ORIGIN PUSH23 0x2D315A6D362D392D312D314838376831326C3132203120 BALANCE KECCAK256 BALANCE PUSH23 0x396C312037762D31366C2D312D315A6D2D323520313668 0x2D BALANCE PUSH23 0x316831762D315A6D312032682D3176316831762D315A6D CODESIZE ADDRESS 0x2D BALANCE ADDRESS 0x2D ORIGIN 0x2D BALANCE CALLVALUE PUSH9 0x2D3436763238683438 PUSH23 0x2D31345A6D2D3331203231682D3176316831762D315A6D BALANCE CALLDATALOAD KECCAK256 CALLVALUE PUSH9 0x2D3176316831762D31 GAS PUSH14 0x2D332030682D3176316831762D31 GAS PUSH14 0x2D3420302D312D3176316C2D3120 BALANCE PUSH9 0x336C2D312D315A6D2D CALLER KECCAK256 ADDRESS 0x2D BALANCE 0x2D BALANCE 0x2D BALANCE KECCAK256 BALANCE 0x2D BALANCE KECCAK256 BALANCE PUSH9 0x346C2D312D315A6D2D CALLDATALOAD KECCAK256 ADDRESS PUSH9 0x2D3176316831762D31 GAS PUSH14 0x322031302D312D322D3120322D31 KECCAK256 BALANCE PUSH9 0x2D326C2D312D322D31 0x2D BALANCE 0x2D CALLER 0x2D ORIGIN 0x2D CALLVALUE 0x2D ORIGIN PUSH9 0x2D396C2D362D36682D CODECOPY PUSH13 0x2D312032483836762D326C2D31 0x2D BALANCE PUSH9 0x2D36762D33386C352D ORIGIN PUSH9 0x396C352D366831346C CALLDATALOAD KECCAK256 CALLDATALOAD PUSH9 0x346C372D376833376C ORIGIN KECCAK256 ORIGIN KECCAK256 ORIGIN KECCAK256 BALANCE PUSH23 0x356831327633336C2D3420357633682D327636682D3131 PUSH23 0x316C2D362034682D3476316C2D3120312D342D31682D34 PUSH13 0x2D312D31682D316C2D3120312D BALANCE KECCAK256 ORIGIN PUSH9 0x2D316C2D312D325A22 KECCAK256 PUSH20 0x74796C653D2266696C6C3A233738373236363B22 0x2F RETURNDATACOPY EXTCODECOPY PUSH17 0x61746820643D226D313336203130352D31 0x2D BALANCE PUSH23 0x316C2D31203168336C2D312D315A6D2D332030682D3176 BALANCE PUSH9 0x31762D315A6D323620 ADDRESS 0x2D BALANCE 0x2D BALANCE PUSH23 0x336C312D3168316C2D312D315A6D2D33203068312D386C BALANCE KECCAK256 BALANCE PUSH23 0x316C332D3120332D315A6D2D382030682D31316C362031 PUSH9 0x35762D315A6D313620 ORIGIN PUSH23 0x2D32682D3476326C322D3120312D3176346831762D325A PUSH14 0x2D33312031682D3176316831762D BALANCE GAS PUSH14 0x2D32322030762D31682D39763268 CODECOPY PUSH23 0x2D315A6D2D31302030762D31682D3276326832762D315A PUSH14 0x36302031682D3176316831762D31 GAS PUSH14 0x2D31302030682D3176316831762D BALANCE GAS PUSH14 0x2D32302030762D31682D336C2D31 KECCAK256 ORIGIN PUSH9 0x336C312D315A6D3438 KECCAK256 CALLVALUE PUSH23 0x2D31682D376C31203176316C322D316832763268316C31 0x2D ORIGIN GAS PUSH14 0x2D3631203068317631682D31762D BALANCE GAS PUSH14 0x322030762D31682D357633683576 0x2D ORIGIN GAS PUSH14 0x2D362030762D31682D3976316C2D BALANCE KECCAK256 BALANCE KECCAK256 CALLDATALOAD KECCAK256 BALANCE PUSH9 0x35762D325A6D2D3131 KECCAK256 ADDRESS PUSH23 0x2D314838376C2D3220317632683138762D325A6D2D3136 KECCAK256 CALLER 0x2D BALANCE 0x2D BALANCE PUSH23 0x316C2D31203168336C2D312D315A6D323120302D312D31 PUSH23 0x336C312D3168316C2D312D315A6D2D322031762D31682D BALANCE PUSH13 0x2D31203268316C312D315A6D2D CODECOPY KECCAK256 ADDRESS PUSH9 0x2D3176316831762D31 GAS PUSH14 0x2D352030682D3176316831762D31 GAS PUSH14 0x38372031682D3720392D325A6D2D CODESIZE KECCAK256 ADDRESS PUSH23 0x2D31682D3376326833762D315A6D2D35322030762D3168 0x2D CALLDATASIZE PUSH23 0x326836762D315A6D2D382030682D3176316831762D315A PUSH14 0x2D32362030682D3176316831762D BALANCE GAS PUSH14 0x302032682D3176316831762D315A PUSH14 0x39322035682D3176316831762D31 GAS PUSH14 0x2D353920302D312D3176316C2D31 KECCAK256 BALANCE PUSH9 0x336C2D312D315A6D2D BALANCE ORIGIN KECCAK256 CALLDATALOAD PUSH23 0x2D31682D3276326832762D315A6D2D31392030762D3868 0x2D BALANCE PUSH23 0x31366831762D385A6D32362030762D386C2D312D312D31 0x2D BALANCE BASEFEE CODESIZE CALLDATACOPY PUSH13 0x3234203120312032203120322D BALANCE KECCAK256 CALLDATACOPY PUSH23 0x366831762D385A6D2D372039682D3176316831762D315A PUSH14 0x2D322030682D3176316831762D31 GAS PUSH14 0x2D3520302D312D3176316C2D3120 BALANCE PUSH9 0x336C2D312D315A6D2D CALLER KECCAK256 ADDRESS 0x2D BALANCE 0x2D BALANCE 0x2D BALANCE KECCAK256 BALANCE 0x2D BALANCE KECCAK256 BALANCE PUSH9 0x346C2D312D315A6D2D CALLVALUE KECCAK256 ADDRESS PUSH9 0x2D3520362D315A6D34 CODESIZE 0x2D BALANCE BALANCE PUSH23 0x2D3132682D327632366C322D31762D31335A6D2D31332D CALLDATACOPY PUSH23 0x2D372032382D32315A6D33372030762D372032392D3232 GAS PUSH14 0x2D342030762D372032392D32325A PUSH14 0x2D342030762D372032396C312D31 CALLVALUE 0x2D BALANCE 0x2D CODESIZE GAS PUSH14 0x2D342030762D372032396C312D31 CALLVALUE 0x2D BALANCE 0x2D CODESIZE GAS PUSH14 0x2D3320302D312D377632396C312D BALANCE CALLDATALOAD PUSH23 0x2D375A6D2D3420302D312D377632396C312D3135762D37 GAS PUSH14 0x2D31302030762D372032392D3232 GAS PUSH14 0x2D332037762D3132682D32763237 PUSH13 0x312D3220312D31335A6D2D382D CALLDATASIZE PUSH23 0x2D372032382D32315A6D3133203238682D317631683176 0x2D BALANCE GAS PUSH14 0x32322034682D3176316831762D31 GAS PUSH14 0x2D332030682D3620382D325A6D2D CALLDATACOPY KECCAK256 ADDRESS PUSH9 0x2D3176316831762D31 GAS PUSH14 0x2D342030682D392031322D335A6D 0x2D BALANCE ADDRESS KECCAK256 ADDRESS 0x2D BALANCE 0x2D BALANCE PUSH23 0x316C2D31203168336C2D312D315A6D342031302D312D32 0x2D BALANCE KECCAK256 ORIGIN 0x2D BALANCE KECCAK256 BALANCE PUSH9 0x2D326C2D312D322D31 0x2D BALANCE 0x2D CALLER 0x2D ORIGIN 0x2D CALLVALUE 0x2D ORIGIN PUSH9 0x2D396C2D362D36682D CODECOPY PUSH13 0x2D312032483836762D326C2D31 0x2D BALANCE PUSH9 0x2D36762D33386C352D ORIGIN PUSH9 0x396C322D3320332D33 PUSH9 0x31346C35203568346C CALLDATACOPY 0x2D CALLDATACOPY PUSH9 0x33376C322032203220 ORIGIN PUSH23 0x346831327633336C2D3420357633682D327636682D3131 PUSH23 0x316C2D362034682D3476316C2D3120312D342D31682D34 PUSH13 0x2D312D31682D316C2D3120312D BALANCE KECCAK256 ORIGIN PUSH9 0x2D316C2D312D325A22 KECCAK256 PUSH20 0x74796C653D2266696C6C3A233139386462653B22 0x2F RETURNDATACOPY EXTCODECOPY PUSH17 0x61746820643D226D313336203130352D31 0x2D BALANCE PUSH23 0x316C2D31203168336C2D312D315A6D2D332030682D3176 BALANCE PUSH9 0x31762D315A6D323620 ADDRESS 0x2D BALANCE 0x2D BALANCE PUSH23 0x336C312D3168316C2D312D315A6D2D33203068312D386C BALANCE KECCAK256 BALANCE PUSH23 0x316C332D3120332D315A6D2D382030682D31316C362031 PUSH9 0x35762D315A6D313620 ORIGIN PUSH23 0x2D32682D3476326C322D3120312D3176346831762D325A PUSH14 0x2D33312031682D3176316831762D BALANCE GAS PUSH14 0x2D32322030762D31682D39763268 CODECOPY PUSH23 0x2D315A6D2D31302030762D31682D3276326832762D315A PUSH14 0x36302031682D3176316831762D31 GAS PUSH14 0x2D31302030682D3176316831762D BALANCE GAS PUSH14 0x2D32302030762D31682D336C2D31 KECCAK256 ORIGIN PUSH9 0x336C312D315A6D3438 KECCAK256 CALLVALUE PUSH23 0x2D31682D376C31203176316C322D316832763268316C31 0x2D ORIGIN GAS PUSH14 0x2D3631203068317631682D31762D BALANCE GAS PUSH14 0x322030762D31682D357633683576 0x2D ORIGIN GAS PUSH14 0x2D362030762D31682D3976316C2D BALANCE KECCAK256 BALANCE KECCAK256 CALLDATALOAD KECCAK256 BALANCE PUSH9 0x35762D325A6D2D3131 KECCAK256 ADDRESS PUSH23 0x2D314838376C2D3220317632683138762D325A6D2D3136 KECCAK256 CALLER 0x2D BALANCE 0x2D BALANCE PUSH23 0x316C2D31203168336C2D312D315A6D323120302D312D31 PUSH23 0x336C312D3168316C2D312D315A6D2D322031762D31682D BALANCE PUSH13 0x2D31203268316C312D315A6D2D CODECOPY KECCAK256 ADDRESS PUSH9 0x2D3176316831762D31 GAS PUSH14 0x2D352030682D3176316831762D31 GAS PUSH14 0x38372031682D3720392D325A6D2D CODESIZE KECCAK256 ADDRESS PUSH23 0x2D31682D3376326833762D315A6D2D35322030762D3168 0x2D CALLDATASIZE PUSH23 0x326836762D315A6D2D382030682D3176316831762D315A PUSH14 0x2D32362030682D3176316831762D BALANCE GAS PUSH14 0x302032682D3176316831762D315A PUSH14 0x39322035682D3176316831762D31 GAS PUSH14 0x2D353920302D312D3176316C2D31 KECCAK256 BALANCE PUSH9 0x336C2D312D315A6D2D BALANCE CALLDATALOAD KECCAK256 CALLDATALOAD PUSH9 0x2D3176316831762D31 GAS PUSH14 0x342D312D312D31682D3276336834 PUSH13 0x2D312D325A6D33352037682D31 PUSH23 0x316831762D315A6D2D35352D36762D38682D3176313668 BALANCE PUSH23 0x2D385A6D32362030762D386C2D312D312D312D31483837 PUSH13 0x3234203120312032203120322D BALANCE KECCAK256 CALLDATACOPY PUSH23 0x366831762D385A6D32392039682D3176316831762D315A PUSH14 0x2D33362030682D3176316831762D BALANCE GAS PUSH14 0x2D322030682D3176316831762D31 GAS PUSH14 0x2D3520302D312D3176316C2D3120 BALANCE PUSH9 0x336C2D312D315A6D2D CALLER KECCAK256 ADDRESS 0x2D BALANCE 0x2D BALANCE 0x2D BALANCE KECCAK256 BALANCE 0x2D BALANCE KECCAK256 BALANCE PUSH9 0x346C2D312D315A6D2D CALLVALUE KECCAK256 ADDRESS PUSH9 0x2D3520362D315A6D35 ADDRESS KECCAK256 ORIGIN PUSH9 0x2D3176316831762D31 GAS PUSH14 0x3138203176316D332D3220312032 PUSH23 0x2D3238682D316C2D32203176336C2D312D32762D336C2D BALANCE KECCAK256 CALLER 0x2D BALANCE KECCAK256 ORIGIN 0x2D BALANCE 0x2D ORIGIN 0x2D BALANCE 0x2D CALLER 0x2D BALANCE KECCAK256 CALLER 0x2D BALANCE KECCAK256 ORIGIN KECCAK256 BALANCE KECCAK256 CALLDATACOPY PUSH23 0x366C312031316D2D31342D3130762D326C312031203120 BALANCE PUSH9 0x2D316C2D312031762D BALANCE GAS PUSH14 0x3320342D312D3620322D37683176 CODECOPY PUSH13 0x3120313020312D36762D313568 BALANCE PUSH13 0x3120317632306831762D316C31 0x2D BALANCE ORIGIN PUSH23 0x2D31326C2D322D3476346C2D3120332D312D36682D356C 0x2D BALANCE KECCAK256 BALANCE 0x2D ORIGIN KECCAK256 ORIGIN KECCAK256 BALANCE KECCAK256 BALANCE CALLDATACOPY PUSH9 0x3176386832762D365A PUSH14 0x2D352D38762D3134682D32763131 PUSH13 0x2D312031312031203320312033 PUSH9 0x31762D31345A6D2D34 0x2D BALANCE ORIGIN PUSH23 0x2D32682D327631336C2D31203132203120322031203176 0x2D BALANCE ORIGIN PUSH13 0x312D3132762D325A6D2D342031 ORIGIN PUSH23 0x2D3134682D327632386832762D31345A6D2D382030762D BALANCE PUSH9 0x316C3120317632682D ORIGIN PUSH23 0x2D325A6D31203676356C312031203120326831762D3238 PUSH9 0x2D357631326C2D3120 BALANCE BALANCE KECCAK256 BALANCE KECCAK256 CALLER KECCAK256 BALANCE KECCAK256 ORIGIN PUSH23 0x2D366C312D3676345A6D3132203135682D317631683176 0x2D BALANCE GAS PUSH14 0x32322034682D3176316831762D31 GAS PUSH14 0x2D332030682D3620382D325A6D2D CALLDATACOPY KECCAK256 ADDRESS PUSH9 0x2D3176316831762D31 GAS PUSH14 0x2D342030682D392031322D335A6D 0x2D BALANCE ADDRESS KECCAK256 ADDRESS 0x2D BALANCE 0x2D BALANCE PUSH23 0x316C2D31203168336C2D312D315A6D342031302D312D32 0x2D BALANCE KECCAK256 ORIGIN 0x2D BALANCE KECCAK256 BALANCE PUSH9 0x2D326C2D312D322D31 0x2D BALANCE 0x2D CALLER 0x2D ORIGIN 0x2D CALLVALUE 0x2D ORIGIN PUSH9 0x2D396C2D362D36682D CODECOPY PUSH13 0x2D312032483836762D326C2D31 0x2D BALANCE PUSH9 0x2D36762D33386C352D ORIGIN PUSH9 0x396C322D3320332D33 PUSH9 0x31346C35203568346C CALLDATACOPY 0x2D CALLDATACOPY PUSH9 0x33376C322032203220 ORIGIN PUSH23 0x346831327633336C2D3420357633682D327636682D3131 PUSH23 0x316C2D362034682D3476316C2D3120312D342D31682D34 PUSH13 0x2D312D31682D316C2D3120312D BALANCE KECCAK256 ORIGIN PUSH9 0x2D316C2D312D325A22 KECCAK256 PUSH20 0x74796C653D2266696C6C3A233732363735613B22 0x2F RETURNDATACOPY EXTCODECOPY PUSH17 0x61746820643D226D313336203130352D31 0x2D BALANCE PUSH23 0x316C2D31203168336C2D312D315A6D2D3320302D312D31 PUSH23 0x316C2D31203168336C2D312D315A6D3234203068312D39 PUSH23 0x326C342D3168336C312D315A6D2D392030682D31317632 PUSH13 0x362D316835762D315A6D392033 PUSH9 0x2D3176316831762D31 GAS PUSH14 0x2D34362030762D31682D39763268 CODECOPY PUSH23 0x2D315A6D2D31302030762D31682D3276326832762D315A PUSH14 0x36322D3120312032762D34682D36 PUSH23 0x326C322D3176346C332D3576325A6D2D323620322D312D BALANCE PUSH9 0x2D3176316C2D312031 PUSH9 0x33762D315A6D32322D BALANCE 0x2D BALANCE 0x2D BALANCE PUSH23 0x346C312D3168316C2D312D325A6D2D362032762D31682D CALLER PUSH13 0x312031763168316C312D315A6D 0x2D ORIGIN ORIGIN 0x2D BALANCE PUSH9 0x2D312033762D32682D ORIGIN PUSH13 0x2D3220312D3120312D32203168 CALLDATALOAD PUSH23 0x2D315A6D2D31382031682D3176316831762D315A6D3637 KECCAK256 CALLER 0x2D BALANCE 0x2D BALANCE PUSH9 0x2D3776336838762D32 GAS PUSH14 0x2D36302030762D31682D35763368 CALLDATALOAD PUSH23 0x2D325A6D2D362030762D31682D31307633683130762D32 GAS PUSH14 0x2D31312030762D314838376C2D32 KECCAK256 BALANCE PUSH23 0x32683138762D325A6D37322033682D3176316831762D31 GAS PUSH14 0x2D38352030682D3176316831762D BALANCE GAS PUSH14 0x3720312D312D312D312D31203120 ORIGIN PUSH23 0x316831762D315A6D2D332030682D3176316831762D315A PUSH14 0x2D322030682D3176316831762D31 GAS PUSH14 0x38372031682D3720392D325A6D2D CALLDATASIZE ADDRESS KECCAK256 ADDRESS PUSH23 0x2D31682D3676326836762D315A6D2D313320302D312D32 KECCAK256 CALLVALUE KECCAK256 ORIGIN KECCAK256 ORIGIN KECCAK256 BALANCE PUSH23 0x2D33682D3676316C2D3120326832762D325A6D2D31392D BALANCE PUSH23 0x2D31682D336C3320312D3320326833762D325A6D383320 ORIGIN PUSH9 0x31762D32682D347634 PUSH13 0x312D31762D3168325A6D2D3835 KECCAK256 BALANCE PUSH9 0x2D3176316831762D31 GAS PUSH14 0x393320352D312D3176316C2D3120 BALANCE PUSH9 0x336C2D312D315A6D2D CALLDATASIZE ADDRESS KECCAK256 BALANCE PUSH23 0x2D31682D32763268316C312D315A6D2D32342033682D31 PUSH23 0x316831762D315A6D392031682D3176316831762D315A6D CALLVALUE 0x2D BALANCE 0x2D BALANCE 0x2D BALANCE PUSH9 0x2D32763368346C2D31 0x2D ORIGIN GAS PUSH14 0x36312037682D3176316831762D31 GAS PUSH14 0x2D32362030682D3176316831762D BALANCE GAS PUSH14 0x2D35352D36762D38682D31763136 PUSH9 0x31762D385A6D353520 CODECOPY PUSH9 0x2D3176316831762D31 GAS PUSH14 0x2D33302D3120312D31762D31356C 0x2D BALANCE 0x2D BALANCE 0x2D BALANCE 0x2D BALANCE BASEFEE CODESIZE CALLDATACOPY PUSH9 0x31326C313220312031 KECCAK256 BALANCE PUSH23 0x31366C2D3220312D32203168336C312D325A6D2D352031 PUSH9 0x2D3520362D315A6D2D BALANCE ADDRESS KECCAK256 ADDRESS BASEFEE CODESIZE CALLDATACOPY PUSH9 0x31332D335A6D343520 ORIGIN PUSH9 0x2D3176316831762D31 GAS PUSH14 0x31362D3231203220323276316C31 0x2D BALANCE ORIGIN PUSH23 0x2D31326C3120347631366C31203220312032762D323868 0x2D BALANCE PUSH13 0x2D32203176336C2D312D32762D CALLER PUSH13 0x2D3120332D3120322D312D322D BALANCE 0x2D CALLER 0x2D BALANCE KECCAK256 CALLER 0x2D BALANCE KECCAK256 ORIGIN KECCAK256 BALANCE KECCAK256 CALLDATACOPY PUSH23 0x366C3120313120312D313220312D313276315A6D2D3136 KECCAK256 BALANCE CALLER PUSH23 0x2D326C31203120312031682D316C2D312031762D315A6D CALLER KECCAK256 CALLVALUE 0x2D BALANCE 0x2D CALLDATASIZE KECCAK256 ORIGIN 0x2D CALLDATACOPY PUSH9 0x3176396C3120313020 BALANCE 0x2D CALLDATASIZE PUSH23 0x2D313568316C3120317632306831762D316C312D313276 0x2D BALANCE ORIGIN PUSH13 0x2D322D3476346C2D3120332D31 0x2D CALLDATASIZE PUSH9 0x2D356C2D3120312D32 KECCAK256 ORIGIN KECCAK256 BALANCE KECCAK256 BALANCE CALLDATACOPY PUSH9 0x3176386832762D365A PUSH14 0x2D352D38762D3134682D32763131 PUSH13 0x2D312031312031203320312033 PUSH9 0x31762D31345A6D2D34 0x2D BALANCE ORIGIN PUSH23 0x2D32682D327631336C2D31203132203120322031203176 0x2D BALANCE ORIGIN PUSH13 0x312D3132762D325A6D2D342031 ORIGIN PUSH23 0x2D3134682D327632386832762D31345A6D2D382030762D BALANCE PUSH9 0x316C3120317632682D ORIGIN PUSH23 0x2D325A6D31203676356C312031203120326831762D3238 PUSH9 0x2D357631326C2D3120 BALANCE BALANCE KECCAK256 BALANCE KECCAK256 CALLER KECCAK256 BALANCE KECCAK256 ORIGIN PUSH23 0x2D366C312D3676345A6D3238203135682D317631683176 0x2D BALANCE GAS PUSH14 0x2D31362030682D3176316831762D BALANCE GAS PUSH14 0x31382032682D3176316831762D31 GAS PUSH14 0x2D322030682D3176316831762D31 GAS PUSH14 0x2D322030682D3176316831762D31 GAS PUSH14 0x382032682D3176316831762D315A PUSH14 0x2D332030682D3620382D325A6D2D CALLDATACOPY KECCAK256 ADDRESS PUSH9 0x2D3176316831762D31 GAS PUSH14 0x2D342030682D392031322D335A6D 0x2D BALANCE ADDRESS KECCAK256 ADDRESS 0x2D BALANCE 0x2D BALANCE PUSH23 0x316C2D31203168336C2D312D315A6D342031302D312D32 0x2D BALANCE KECCAK256 ORIGIN 0x2D BALANCE KECCAK256 BALANCE PUSH9 0x2D326C2D312D322D31 0x2D BALANCE 0x2D CALLER 0x2D ORIGIN 0x2D CALLVALUE 0x2D ORIGIN PUSH9 0x2D396C2D362D36682D CODECOPY PUSH13 0x2D312032483836762D326C2D31 0x2D BALANCE PUSH9 0x2D36762D33386C352D ORIGIN PUSH9 0x396C322D3320332D33 PUSH9 0x31346C35203568346C CALLDATACOPY 0x2D CALLDATACOPY PUSH9 0x33376C322032203220 ORIGIN PUSH23 0x346831327633336C2D3420357633682D327636682D3131 PUSH23 0x316C2D362034682D3476316C2D3120312D342D31682D34 PUSH13 0x2D312D31682D316C2D3120312D BALANCE KECCAK256 ORIGIN PUSH9 0x2D316C2D312D325A22 KECCAK256 PUSH20 0x74796C653D2266696C6C3A233130373561383B22 0x2F RETURNDATACOPY EXTCODECOPY PUSH17 0x61746820643D226D313336203130352D31 0x2D BALANCE PUSH23 0x316C2D31203168336C2D312D315A6D2D3320302D312D31 PUSH23 0x316C2D31203168336C2D312D315A6D3234203068312D39 PUSH23 0x326C342D3168336C312D315A6D2D392030682D31317632 PUSH13 0x362D316835762D315A6D392033 PUSH9 0x2D3176316831762D31 GAS PUSH14 0x2D34362030762D31682D39763268 CODECOPY PUSH23 0x2D315A6D2D31302030762D31682D3276326832762D315A PUSH14 0x36322D3120312032762D34682D36 PUSH23 0x326C322D3176346C332D3576325A6D2D323620322D312D BALANCE PUSH9 0x2D3176316C2D312031 PUSH9 0x33762D315A6D32322D BALANCE 0x2D BALANCE 0x2D BALANCE PUSH23 0x346C312D3168316C2D312D325A6D2D362032762D31682D CALLER PUSH13 0x312031763168316C312D315A6D 0x2D ORIGIN ORIGIN 0x2D BALANCE PUSH9 0x2D312033762D32682D ORIGIN PUSH13 0x2D3220312D3120312D32203168 CALLDATALOAD PUSH23 0x2D315A6D2D31382031682D3176316831762D315A6D3637 KECCAK256 CALLER 0x2D BALANCE 0x2D BALANCE PUSH9 0x2D3776336838762D32 GAS PUSH14 0x2D36302030762D31682D35763368 CALLDATALOAD PUSH23 0x2D325A6D2D362030762D31682D31307633683130762D32 GAS PUSH14 0x2D31312030762D314838376C2D32 KECCAK256 BALANCE PUSH23 0x32683138762D325A6D37322033682D3176316831762D31 GAS PUSH14 0x2D38352030682D3176316831762D BALANCE GAS PUSH14 0x3720312D312D312D312D31203120 ORIGIN PUSH23 0x316831762D315A6D2D332030682D3176316831762D315A PUSH14 0x2D322030682D3176316831762D31 GAS PUSH14 0x38372031682D3720392D325A6D2D CALLDATASIZE ADDRESS KECCAK256 ADDRESS PUSH23 0x2D31682D3676326836762D315A6D2D313320302D312D32 KECCAK256 CALLVALUE KECCAK256 ORIGIN KECCAK256 ORIGIN KECCAK256 BALANCE PUSH23 0x2D33682D3676316C2D3120326832762D325A6D2D31392D BALANCE PUSH23 0x2D31682D336C3320312D3320326833762D325A6D383320 ORIGIN PUSH9 0x31762D32682D347634 PUSH13 0x312D31762D3168325A6D2D3835 KECCAK256 BALANCE PUSH9 0x2D3176316831762D31 GAS PUSH14 0x393320352D312D3176316C2D3120 BALANCE PUSH9 0x336C2D312D315A6D2D CALLDATASIZE ADDRESS KECCAK256 BALANCE PUSH23 0x2D31682D32763268316C312D315A6D34382D36762D3420 BALANCE CALLVALUE 0x2D BALANCE ADDRESS GAS PUSH14 0x2D37322039682D3176316831762D BALANCE GAS PUSH14 0x31312032762D316C312031203120 BALANCE PUSH9 0x2D336C312D315A6D32 KECCAK256 ADDRESS KECCAK256 BALANCE 0x2D BALANCE 0x2D BALANCE 0x2D ORIGIN PUSH9 0x2D326C2D3220312D31 KECCAK256 BALANCE KECCAK256 CALLER KECCAK256 CALLER PUSH9 0x316C312D325A6D3631 KECCAK256 CALLDATALOAD PUSH9 0x2D3176316831762D31 GAS PUSH14 0x2D38312D36762D38682D31763136 PUSH9 0x31762D385A6D323520 CODESIZE KECCAK256 BALANCE 0x2D BALANCE PUSH23 0x2D31356C2D312D312D312D314838376831326C31322031 KECCAK256 BALANCE KECCAK256 BALANCE PUSH23 0x31366C2D3220312D32203168336C312D325A6D2D352031 PUSH9 0x2D3520362D315A6D2D BALANCE ADDRESS KECCAK256 ADDRESS BASEFEE CODESIZE CALLDATACOPY PUSH9 0x31332D335A6D35362D ORIGIN ORIGIN PUSH9 0x317631682D31762D31 GAS PUSH14 0x2D3231203131762D326C31203120 BALANCE KECCAK256 BALANCE PUSH9 0x2D316C2D312031762D BALANCE GAS PUSH14 0x32312030762D336C31203176336C 0x2D BALANCE KECCAK256 BALANCE PUSH23 0x2D325A6D2D32312034762D326C31203120312031682D31 PUSH13 0x2D312031762D315A6D31372031 PUSH23 0x2D326C31203120312031682D316C2D312031762D315A6D 0x2D CODESIZE KECCAK256 ADDRESS PUSH23 0x2D3420372D335A6D31362033762D336C31203176336C2D BALANCE KECCAK256 BALANCE PUSH23 0x2D325A6D342D31762D3520392D345A6D2D313520366831 PUSH23 0x31682D31762D315A6D2D323020312032203120312D3976 0x2D CODECOPY KECCAK256 BALANCE ORIGIN PUSH13 0x31203376346C322D31762D346C BALANCE 0x2D CALLVALUE PUSH23 0x346C31203468326C312D323176323168336C312D377637 PUSH9 0x38762D336C312D3320 BALANCE KECCAK256 CALLDATACOPY KECCAK256 ORIGIN 0x2D BALANCE KECCAK256 BALANCE 0x2D BALANCE CALLER KECCAK256 BALANCE KECCAK256 BALANCE ORIGIN PUSH9 0x316C312031762D356C ORIGIN KECCAK256 CALLDATALOAD KECCAK256 ORIGIN 0x2D CALLER PUSH23 0x326C32203120312031762D3239682D32366C2D31203276 BALANCE PUSH13 0x2D322D33682D356C2D3120322D BALANCE KECCAK256 BALANCE PUSH23 0x2D33682D357631336C2D31203133203120322031203176 0x2D ORIGIN PUSH9 0x325A6D32372038682D BALANCE PUSH23 0x316831762D315A6D2D31362030682D3176316831762D31 GAS PUSH14 0x31382032682D3176316831762D31 GAS PUSH14 0x2D322030682D3176316831762D31 GAS PUSH14 0x2D322030682D3176316831762D31 GAS PUSH14 0x382032682D3176316831762D315A PUSH14 0x2D332030682D3620382D325A6D2D CALLDATACOPY KECCAK256 ADDRESS PUSH9 0x2D3176316831762D31 GAS PUSH14 0x2D342030682D392031322D335A6D 0x2D BALANCE ADDRESS KECCAK256 ADDRESS 0x2D BALANCE 0x2D BALANCE PUSH23 0x316C2D31203168336C2D312D315A6D342031302D312D32 0x2D BALANCE KECCAK256 ORIGIN 0x2D BALANCE KECCAK256 BALANCE PUSH9 0x2D326C2D312D322D31 0x2D BALANCE 0x2D CALLER 0x2D ORIGIN 0x2D CALLVALUE 0x2D ORIGIN PUSH9 0x2D396C2D362D36682D CODECOPY PUSH13 0x2D312032483836762D326C2D31 0x2D BALANCE PUSH9 0x2D36762D33386C352D ORIGIN PUSH9 0x396C322D3320332D33 PUSH9 0x31346C35203568346C CALLDATACOPY 0x2D CALLDATACOPY PUSH9 0x33376C322032203220 ORIGIN PUSH23 0x346831327633336C2D3420357633682D327636682D3131 PUSH23 0x316C2D362034682D3476316C2D3120312D342D31682D34 PUSH13 0x2D312D31682D316C2D3120312D BALANCE KECCAK256 ORIGIN PUSH9 0x2D316C2D312D325A22 KECCAK256 PUSH20 0x74796C653D2266696C6C3A233562356135343B22 0x2F RETURNDATACOPY EXTCODECOPY PUSH17 0x61746820643D224D393820313038682D31 PUSH23 0x316831762D315A6D36342031762D316C312D3120312D32 0x2D BALANCE KECCAK256 ORIGIN PUSH23 0x336C312031762D36682D3676356C342031762D325A6D2D BALANCE CALLDATASIZE KECCAK256 BALANCE PUSH9 0x2D3176316831762D31 GAS PUSH14 0x322D3468317631682D31762D315A PUSH14 0x37203168317631682D31762D315A PUSH14 0x2D323220302D322D3168356C3320 ORIGIN PUSH9 0x2D326C2D312D31682D CALLER GAS PUSH14 0x2D33203268317631682D31762D31 GAS PUSH14 0x3136203168346C3320312D312D31 0x2D BALANCE 0x2D ORIGIN KECCAK256 ORIGIN KECCAK256 ORIGIN KECCAK256 ORIGIN KECCAK256 BALANCE PUSH9 0x32762D36682D32366C 0x2D CALLER KECCAK256 CALLER 0x2D ORIGIN KECCAK256 CALLER KECCAK256 BALANCE CODECOPY 0x2D BALANCE PUSH9 0x315A6D2D33332D312D BALANCE 0x2D BALANCE PUSH23 0x336C312D3168316C2D312D315A6D2D3620306831763168 0x2D BALANCE PUSH23 0x2D315A6D2D3520312D312D3168336C3220312035203176 0x2D CALLVALUE BASEFEE CODECOPY CODECOPY PUSH23 0x346833762D315A6D363220322D312D3176336C312D3168 BALANCE PUSH13 0x2D312D315A6D31362031762D31 PUSH9 0x2D38763368396C2D31 0x2D ORIGIN GAS PUSH14 0x2D3130203168312D347631682D31 KECCAK256 CALLER PUSH13 0x312D315A6D2D38372031682D31 PUSH23 0x316831762D315A6D39362031682D3720392D325A6D2D37 ORIGIN 0x2D BALANCE PUSH9 0x317631682D31762D31 GAS PUSH14 0x352032762D31682D316C2D322D31 PUSH9 0x336C332D3120312031 PUSH9 0x34762D33682D313676 CALLER PUSH9 0x332D316C2D32203176 CALLER PUSH9 0x38762D325A6D2D3920 ADDRESS PUSH23 0x2D314839336C2D3220317632683132762D325A6D2D3132 KECCAK256 ADDRESS PUSH23 0x2D31682D327632682D326C312D31762D316C2D312D3168 0x2D ORIGIN KECCAK256 BALANCE CODESIZE PUSH23 0x2D334838356C2D312033763468366C312D325A6D2D3620 CALLER PUSH9 0x2D3176316831762D31 GAS PUSH14 0x39332035762D31682D3276326832 PUSH23 0x2D315A6D2D312033762D31682D316C2D31203120312031 PUSH23 0x316831762D325A6D2D31312D38762D342031342D31305A PUSH14 0x31302031762D316C2D332D316833 PUSH13 0x332033682D33762D315A6D2D31 KECCAK256 CALLER KECCAK256 BALANCE 0x2D BALANCE PUSH9 0x34762D35682D386C31 KECCAK256 BALANCE CALLDATALOAD PUSH23 0x2D386C322D315A6D3420313120312D312D3120312D3120 BALANCE 0x2D ORIGIN 0x2D ORIGIN 0x2D BALANCE 0x2D BALANCE 0x2D CALLER KECCAK256 ORIGIN KECCAK256 ORIGIN 0x2D BALANCE PUSH9 0x316C31203120312032 PUSH9 0x316C312D325A6D2D31 BALANCE KECCAK256 ADDRESS PUSH9 0x317631682D31762D31 GAS PUSH14 0x332D38762D3130682D347631396C ORIGIN KECCAK256 BALANCE KECCAK256 BALANCE KECCAK256 BALANCE PUSH9 0x31762D31315A6D2D35 CALLVALUE 0x2D CALLDATACOPY PUSH23 0x2D316C31203120312031682D336C312D315A6D30203476 0x2D BALANCE PUSH13 0x31203120312031682D336C312D BALANCE GAS PUSH14 0x302031322D312D316833762D3868 0x2D ORIGIN PUSH13 0x322D33762D37682D3676346832 PUSH23 0x31376C312D316831762D315A6D35392032682D31763168 BALANCE PUSH23 0x2D315A6D2D36302031682D3176316831762D315A6D2D31 CALLDATALOAD 0x2D BALANCE BALANCE PUSH9 0x2D3176316831762D31 GAS PUSH14 0x2D362032762D31682D3276326831 PUSH13 0x312D315A6D31302031762D316C BALANCE KECCAK256 BALANCE KECCAK256 BALANCE KECCAK256 BALANCE PUSH9 0x2D336C312D315A6D32 KECCAK256 ADDRESS KECCAK256 BALANCE 0x2D BALANCE 0x2D BALANCE 0x2D ORIGIN PUSH9 0x2D326C2D3220312D31 KECCAK256 BALANCE KECCAK256 CALLER KECCAK256 CALLER PUSH9 0x316C312D325A6D3220 CALLDATALOAD PUSH9 0x2D3176316831762D31 GAS PUSH14 0x2D32322D36762D396832346C3120 ORIGIN PUSH23 0x31356C2D32352031762D395A6D32362038762D31376C2D BALANCE 0x2D BALANCE BASEFEE CODESIZE CODESIZE PUSH13 0x2D3320327631356C3320336832 CALLVALUE PUSH13 0x312D325A6D363120332D322D31 PUSH23 0x326832762D315A6D2D35372030682D3176316831762D31 GAS PUSH14 0x353320312D312D3120322D316831 0x2D CALLDATALOAD PUSH13 0x332033762D315A6D2D31372D32 CALLDATALOAD PUSH9 0x317631682D31762D31 GAS PUSH14 0x2D3231203131762D326C31203120 BALANCE KECCAK256 BALANCE PUSH9 0x2D316C2D312031762D BALANCE GAS PUSH14 0x32312030762D336C31203176336C 0x2D BALANCE KECCAK256 BALANCE PUSH23 0x2D325A6D2D32312034762D326C31203120312031682D31 PUSH13 0x2D312031762D315A6D31372031 PUSH23 0x2D326C31203120312031682D316C2D312031762D315A6D 0x2D CODESIZE KECCAK256 ADDRESS PUSH23 0x2D3420372D335A6D31362033762D336C31203176336C2D BALANCE KECCAK256 BALANCE PUSH23 0x2D325A6D342D31762D3520392D345A6D2D313520366831 PUSH23 0x31682D31762D315A6D2D323020312032203120312D3976 0x2D CODECOPY KECCAK256 BALANCE ORIGIN PUSH13 0x31203376346C322D31762D346C BALANCE 0x2D CALLVALUE PUSH23 0x346C31203468326C312D323176323168336C312D377637 PUSH9 0x38762D336C312D3320 BALANCE KECCAK256 CALLDATACOPY KECCAK256 ORIGIN 0x2D BALANCE KECCAK256 BALANCE 0x2D BALANCE CALLER KECCAK256 BALANCE KECCAK256 BALANCE ORIGIN PUSH9 0x316C312031762D356C ORIGIN KECCAK256 CALLDATALOAD KECCAK256 ORIGIN 0x2D CALLER PUSH23 0x326C32203120312031762D3239682D32366C2D31203276 BALANCE PUSH13 0x2D322D33682D356C2D3120322D BALANCE KECCAK256 BALANCE PUSH23 0x2D33682D357631336C2D31203133203120322031203176 0x2D ORIGIN PUSH9 0x325A6D2D31322D312D BALANCE 0x2D BALANCE PUSH23 0x346C312D3168316C2D312D325A6D2D323820332D312D31 0x2D BALANCE 0x2D BALANCE KECCAK256 BALANCE KECCAK256 ORIGIN PUSH23 0x316831762D315A6D3830203120312D312D312D312D3220 BALANCE 0x2D ORIGIN KECCAK256 ORIGIN PUSH9 0x336C312D315A6D2D39 KECCAK256 ADDRESS PUSH9 0x2D31342031392D355A PUSH14 0x2D31362030682D3620382D325A6D 0x2D CALLDATACOPY KECCAK256 ADDRESS 0x2D BALANCE 0x2D BALANCE PUSH23 0x316C2D31203168336C2D312D315A6D2D342030682D3620 CODESIZE 0x2D ORIGIN GAS PUSH14 0x2D382D312D312D312D3120312031 KECCAK256 BALANCE PUSH23 0x316831762D325A6D33312036682D3176316831762D315A PUSH14 0x2D31362030682D3176316831762D BALANCE GAS PUSH14 0x3234203268312D3476336C312D31 KECCAK256 BALANCE 0x2D BALANCE KECCAK256 BALANCE 0x2D BALANCE GAS PUSH14 0x2D39203168317631682D31762D31 GAS PUSH14 0x352030762D31682D376C31203268 0x2D ORIGIN PUSH23 0x2D326C2D312D3176346839762D325A6D2D313420306833 PUSH13 0x3120312D332D31682D3320325A PUSH14 0x342030762D31682D31316C342031 0x2D ORIGIN KECCAK256 BALANCE 0x2D ORIGIN KECCAK256 BALANCE PUSH9 0x3131762D325A6D2D31 ORIGIN KECCAK256 ADDRESS PUSH23 0x2D31682D3276336832762D325A6D342031312D312D322D BALANCE KECCAK256 ORIGIN 0x2D BALANCE KECCAK256 BALANCE 0x2D CODECOPY 0x2D CALLDATASIZE PUSH23 0x2D31682D31316C2D362D36682D396C2D31203248383676 0x2D ORIGIN PUSH13 0x2D312D31682D36762D33386C35 0x2D ORIGIN PUSH9 0x396C322D3320332D33 PUSH9 0x31346C35203568346C CALLDATACOPY 0x2D CALLDATACOPY PUSH9 0x33376C322032203220 ORIGIN PUSH23 0x346831327633346C2D3420347633682D327636682D3131 PUSH23 0x316C2D352033682D357632682D31306C2D312D312D3120 BALANCE 0x2D BALANCE KECCAK256 ORIGIN PUSH9 0x2D316C2D312D325A22 KECCAK256 PUSH20 0x74796C653D2266696C6C3A233062353838663B22 0x2F RETURNDATACOPY EXTCODECOPY PUSH17 0x61746820643D224D393820313038682D31 PUSH23 0x316831762D315A6D36342031762D316C312D3120312D32 0x2D BALANCE KECCAK256 ORIGIN PUSH23 0x336C312031762D36682D3676356C342031762D325A6D2D BALANCE CALLDATASIZE KECCAK256 BALANCE PUSH9 0x2D3176316831762D31 GAS PUSH14 0x322D3468317631682D31762D315A PUSH14 0x37203168317631682D31762D315A PUSH14 0x2D323220302D322D3168356C3320 ORIGIN PUSH9 0x2D326C2D312D31682D CALLER GAS PUSH14 0x2D33203268317631682D31762D31 GAS PUSH14 0x3136203168346C3320312D312D31 0x2D BALANCE 0x2D ORIGIN KECCAK256 ORIGIN KECCAK256 ORIGIN KECCAK256 ORIGIN KECCAK256 BALANCE PUSH9 0x32762D36682D32366C 0x2D CALLER KECCAK256 CALLER 0x2D ORIGIN KECCAK256 CALLER KECCAK256 BALANCE CODECOPY 0x2D BALANCE PUSH9 0x315A6D2D33332D312D BALANCE 0x2D BALANCE PUSH23 0x336C312D3168316C2D312D315A6D2D3620306831763168 0x2D BALANCE PUSH23 0x2D315A6D2D3520312D312D3168336C3220312035203176 0x2D CALLVALUE BASEFEE CODECOPY CODECOPY PUSH23 0x346833762D315A6D363220322D312D3176336C312D3168 BALANCE PUSH13 0x2D312D315A6D31362031762D31 PUSH9 0x2D38763368396C2D31 0x2D ORIGIN GAS PUSH14 0x2D39372032682D3176316831762D BALANCE GAS PUSH14 0x39362031682D3720392D325A6D2D CALLDATACOPY ORIGIN 0x2D BALANCE PUSH9 0x317631682D31762D31 GAS PUSH14 0x352032762D31682D316C2D322D31 PUSH9 0x336C332D3120312031 PUSH9 0x34762D33682D313676 CALLER PUSH9 0x332D316C2D32203176 CALLER PUSH9 0x38762D325A6D2D3920 ADDRESS PUSH23 0x2D314839336C2D3220317632683132762D325A6D2D3132 KECCAK256 ADDRESS PUSH23 0x2D31682D327632682D326C312D31762D316C2D312D3168 0x2D ORIGIN KECCAK256 BALANCE CODESIZE PUSH23 0x2D334838356C2D312033763468366C312D325A6D2D3620 CALLER PUSH9 0x2D3176316831762D31 GAS PUSH14 0x39332035762D31682D3276326832 PUSH23 0x2D315A6D2D312033762D31682D316C2D31203120312031 PUSH23 0x316831762D325A6D2D312D37762D316C2D332D3168336C CALLER KECCAK256 CALLER PUSH9 0x2D33762D315A6D2D31 KECCAK256 CALLER KECCAK256 BALANCE 0x2D BALANCE PUSH9 0x34762D35682D386C31 KECCAK256 BALANCE CALLDATALOAD PUSH23 0x2D386C322D315A6D3420313120312D312D3120312D3120 BALANCE 0x2D ORIGIN 0x2D ORIGIN 0x2D BALANCE 0x2D BALANCE 0x2D CALLER KECCAK256 ORIGIN KECCAK256 ORIGIN 0x2D BALANCE PUSH9 0x316C31203120312032 PUSH9 0x316C312D325A6D2D31 BALANCE KECCAK256 ADDRESS PUSH9 0x317631682D31762D31 GAS PUSH14 0x332D38762D3130682D347631396C ORIGIN KECCAK256 BALANCE KECCAK256 BALANCE KECCAK256 BALANCE PUSH9 0x31762D31315A6D2D35 CALLVALUE 0x2D CALLDATACOPY PUSH23 0x2D316C31203120312031682D336C312D315A6D30203476 0x2D BALANCE PUSH13 0x31203120312031682D336C312D BALANCE GAS PUSH14 0x302031322D312D316833762D3868 0x2D ORIGIN PUSH13 0x322D33762D37682D3676346832 PUSH23 0x31376C312D316831762D315A6D35392032682D31763168 BALANCE PUSH23 0x2D315A6D2D36302031682D3176316831762D315A6D2D31 CALLDATALOAD 0x2D BALANCE BALANCE PUSH9 0x2D3176316831762D31 GAS PUSH14 0x2D362032762D31682D3276326831 PUSH13 0x312D315A6D3133203120312D32 0x2D ORIGIN 0x2D BALANCE 0x2D ORIGIN 0x2D BALANCE 0x2D ORIGIN KECCAK256 BALANCE 0x2D BALANCE KECCAK256 ORIGIN KECCAK256 BALANCE KECCAK256 CALLER PUSH9 0x346C312D325A6D3120 CALLDATALOAD PUSH9 0x2D3176316831762D31 GAS PUSH14 0x2D32322D36762D396832346C3120 ORIGIN PUSH23 0x31356C2D32352031762D395A6D32362038762D31376C2D BALANCE 0x2D BALANCE BASEFEE CODESIZE CODESIZE PUSH13 0x2D3320327631356C3320336832 CALLVALUE PUSH13 0x312D325A6D363120332D322D31 PUSH23 0x326832762D315A6D2D35372030682D3176316831762D31 GAS PUSH14 0x353320312D312D3120322D316831 0x2D CALLDATALOAD PUSH13 0x332033762D315A6D2D35362D31 0x2D BALANCE 0x2D BALANCE PUSH23 0x346C312D3168316C2D312D325A6D2D323820332D312D31 0x2D BALANCE 0x2D BALANCE KECCAK256 BALANCE KECCAK256 ORIGIN PUSH23 0x316831762D315A6D3830203120312D312D312D312D3220 BALANCE 0x2D ORIGIN KECCAK256 ORIGIN PUSH9 0x336C312D315A6D2D39 KECCAK256 ADDRESS PUSH9 0x2D31342031392D355A PUSH14 0x2D31362030682D3620382D325A6D 0x2D CALLDATACOPY KECCAK256 ADDRESS 0x2D BALANCE 0x2D BALANCE PUSH23 0x316C2D31203168336C2D312D315A6D2D342030682D3620 CODESIZE 0x2D ORIGIN GAS PUSH14 0x33342D313268317631682D31762D BALANCE GAS PUSH14 0x30203368317631682D31762D315A PUSH14 0x302033762D326C31203120312032 PUSH9 0x2D316C2D312031762D ORIGIN GAS PUSH14 0x2D343220352D312D316832316C32 BALANCE KECCAK256 BALANCE KECCAK256 ORIGIN 0x2D ORIGIN KECCAK256 BALANCE 0x2D BALANCE KECCAK256 BALANCE 0x2D ORIGIN CALLDATASIZE PUSH9 0x326C322D31682D336C 0x2D ORIGIN KECCAK256 BALANCE 0x2D ORIGIN KECCAK256 ORIGIN PUSH23 0x2D32682D34316C2D3320327632376C3120326831762D32 GAS PUSH14 0x33312036682D3176316831762D31 GAS PUSH14 0x2D31362030682D3176316831762D BALANCE GAS PUSH14 0x3234203268312D3476336C312D31 KECCAK256 BALANCE 0x2D BALANCE KECCAK256 BALANCE 0x2D BALANCE GAS PUSH14 0x2D39203168317631682D31762D31 GAS PUSH14 0x352030762D31682D376C31203268 0x2D ORIGIN PUSH23 0x2D326C2D312D3176346839762D325A6D2D313420306833 PUSH13 0x3120312D332D31682D3320325A PUSH14 0x342030762D31682D31316C342031 0x2D ORIGIN KECCAK256 BALANCE 0x2D ORIGIN KECCAK256 BALANCE PUSH9 0x3131762D325A6D2D31 ORIGIN KECCAK256 ADDRESS PUSH23 0x2D31682D3276336832762D325A6D342031312D312D322D BALANCE KECCAK256 ORIGIN 0x2D BALANCE KECCAK256 BALANCE 0x2D CODECOPY 0x2D CALLDATASIZE PUSH23 0x2D31682D31316C2D362D36682D396C2D31203248383676 0x2D ORIGIN PUSH13 0x2D312D31682D36762D33386C35 0x2D ORIGIN PUSH9 0x396C322D3320332D33 PUSH9 0x31346C35203568346C CALLDATACOPY 0x2D CALLDATACOPY PUSH9 0x33376C322032203220 ORIGIN PUSH23 0x346831327633346C2D3420347633682D327636682D3131 PUSH23 0x316C2D352033682D357632682D31306C2D312D312D3120 BALANCE 0x2D BALANCE KECCAK256 ORIGIN PUSH9 0x2D316C2D312D325A22 KECCAK256 PUSH20 0x74796C653D2266696C6C3A233366336633643B22 0x2F RETURNDATACOPY EXTCODECOPY PUSH17 0x61746820643D224D313334203130366831 PUSH23 0x31682D31762D315A6D33302032762D33682D33376C3120 BALANCE PUSH23 0x316C312D3168316C2D34203420312D3220312D31682D31 PUSH13 0x2D3220322D322032683431762D CALLER GAS PUSH14 0x2D36362031762D316C3120317632 PUSH9 0x3132762D336C322033 PUSH23 0x2D344839386C2D3120322D3220326833762D325A6D3636 KECCAK256 CALLVALUE PUSH23 0x2D31682D34307632683430762D315A6D372032762D3168 0x2D CALLDATALOAD PUSH23 0x326835762D315A6D35203068317631682D31762D315A6D 0x2D CALLER KECCAK256 ADDRESS PUSH9 0x317631682D31762D31 GAS PUSH14 0x372D31762D32682D387635683876 0x2D CALLER GAS PUSH14 0x2D3839203268317631682D31762D BALANCE GAS PUSH14 0x2D33203068317631682D31762D31 GAS PUSH14 0x3135203020312D3276356838762D CALLER PUSH13 0x332D31203320316832762D346C BALANCE KECCAK256 ORIGIN KECCAK256 BALANCE KECCAK256 BALANCE KECCAK256 BALANCE 0x2D BALANCE KECCAK256 BALANCE 0x2D BALANCE 0x2D BALANCE 0x2D BALANCE BASEFEE CODESIZE CALLDATACOPY PUSH13 0x2D3120312D32203120322D332D ORIGIN KECCAK256 ORIGIN 0x2D ORIGIN KECCAK256 BALANCE PUSH23 0x326C322D317634683139762D335A6D2D323020352D312D BALANCE PUSH23 0x336C312D3168316C2D312D315A6D302033682D31763168 BALANCE PUSH23 0x2D315A6D302033682D3176316831762D315A6D39342030 0x2D BALANCE 0x2D BALANCE PUSH9 0x326C3120317631682D ORIGIN PUSH23 0x2D315A6D332034762D346C2D312D33682D34763868346C BALANCE 0x2D BALANCE GAS PUSH14 0x2D36312D34762D3130682D367635 PUSH9 0x3276313568326C3220 BALANCE PUSH23 0x2D31315A6D35332031762D313020323168356C322D3320 BALANCE 0x2D ORIGIN PUSH23 0x2D316C2D362D31762D336C2D312D3320332D336834762D CALLDATALOAD PUSH9 0x2D366C2D372D327632 CALLER PUSH9 0x346C312D31315A6D2D CALLDATASIZE CALLDATASIZE 0x2D CALLER PUSH9 0x2D3176316831762D31 GAS PUSH14 0x2D322031762D31682D316C2D3120 ORIGIN PUSH9 0x316C312D315A6D3720 ADDRESS PUSH23 0x2D31682D3276326C2D312D312D312D312031203176326C ORIGIN 0x2D BALANCE KECCAK256 BALANCE 0x2D BALANCE GAS PUSH14 0x2D32312031682D3176316831762D BALANCE GAS PUSH14 0x323020322D312D3176346C312D31 PUSH9 0x316C2D312D325A6D2D ORIGIN KECCAK256 ORIGIN KECCAK256 BALANCE 0x2D ORIGIN 0x2D ORIGIN 0x2D BALANCE 0x2D ORIGIN 0x2D BALANCE 0x2D ORIGIN KECCAK256 BALANCE 0x2D BALANCE KECCAK256 ORIGIN KECCAK256 BALANCE KECCAK256 CALLER PUSH9 0x346C312D325A6D2D37 0x2D ORIGIN PUSH23 0x2D3220336C2D31203320312D31762D335A6D312035682D BALANCE PUSH23 0x316831762D315A6D2D342D3220312D312D342032762D36 PUSH9 0x2D3476326C322D3176 CALLVALUE PUSH13 0x3120312031203220332D335A6D BALANCE CALLER KECCAK256 ORIGIN 0x2D BALANCE 0x2D BALANCE PUSH23 0x336C312D3168316C2D312D315A6D2D3420312D312D3176 BALANCE PUSH13 0x2D31203168336C2D312D315A6D 0x2D CALLER KECCAK256 ADDRESS PUSH9 0x2D3176316831762D31 GAS PUSH14 0x352032762D316C2D342031763168 CALLVALUE PUSH23 0x2D315A6D2D372030762D31682D336C312031763168316C BALANCE 0x2D BALANCE GAS PUSH14 0x2D31352D37762D396832346C3120 ORIGIN PUSH23 0x31356C2D32352031762D395A6D32362038762D31376C2D BALANCE 0x2D BALANCE BASEFEE CODESIZE CALLVALUE PUSH13 0x3220312D312031372031203120 ORIGIN KECCAK256 BALANCE PUSH9 0x32346C312D325A6D2D CALLER ADDRESS KECCAK256 BALANCE PUSH9 0x2D3176316831762D31 GAS PUSH14 0x38312D3668317631682D31762D31 GAS PUSH14 0x30203368317631682D31762D315A PUSH14 0x302033762D326C31203120312032 PUSH9 0x2D316C2D312031762D ORIGIN GAS PUSH14 0x31203320312D31762D32356C2D32 KECCAK256 BALANCE PUSH23 0x2D32682D34316C2D3320327632346C3320336834306C32 0x2D ORIGIN GAS PUSH14 0x36203068317631682D31762D315A PUSH14 0x34203020322D32682D3130763568 CALLDATALOAD PUSH13 0x332D335A6D2D35362030762D33 PUSH9 0x2D356C2D3120322D31 KECCAK256 ORIGIN 0x2D BALANCE KECCAK256 BALANCE PUSH9 0x2D326C352031683576 0x2D CALLER GAS PUSH14 0x2D31322032682D382031302D325A PUSH14 0x2D31332030682D35762D336C2D33 KECCAK256 CALLER 0x2D BALANCE 0x2D BALANCE PUSH9 0x32762D326C2D312D31 PUSH9 0x2D3176356C31342D31 PUSH9 0x2D355A6D3732203076 0x2D ORIGIN PUSH13 0x2D332033682D3176316834762D ORIGIN GAS PUSH14 0x2D392031682D31342031392D355A PUSH14 0x2D31372030682D382031312D335A PUSH14 0x2D31302030682D3620382D325A6D 0x2D CODESIZE 0x2D BALANCE 0x2D BALANCE 0x2D BALANCE PUSH9 0x2D316C312033203220 ORIGIN KECCAK256 BALANCE 0x2D ORIGIN 0x2D ORIGIN 0x2D ORIGIN GAS PUSH14 0x333220362D312D3176316C2D3120 BALANCE PUSH9 0x336C2D312D315A6D2D BALANCE CALLDATACOPY 0x2D BALANCE 0x2D BALANCE 0x2D BALANCE PUSH23 0x336C312D3168316C2D312D315A6D2D34382031682D3176 BALANCE PUSH9 0x31762D315A6D343220 BALANCE PUSH9 0x2D3176316831762D31 GAS PUSH14 0x2D31342030682D3176316831762D BALANCE GAS PUSH14 0x322031682D3176316831762D315A PUSH14 0x31362031762D316C2D322D337635 PUSH9 0x2D336C332031683276 0x2D ORIGIN GAS PUSH14 0x323620326832762D33682D357635 PUSH13 0x312D3120312D3168325A6D2D31 ORIGIN 0x2D ORIGIN PUSH9 0x317631682D31762D31 GAS PUSH14 0x2D32203068317631682D31762D31 GAS PUSH14 0x32203268336C312031682D356C31 0x2D BALANCE GAS PUSH14 0x2D37203068362D3820325A6D3133 KECCAK256 BALANCE 0x2D ORIGIN 0x2D BALANCE PUSH9 0x34762D33682D323176 CALLDATALOAD PUSH9 0x31316C31312D31682D CALLER GAS PUSH14 0x2D323420362D332D322D312D3176 0x2D BALANCE PUSH9 0x2D31316C2D362D3668 0x2D CODECOPY PUSH13 0x2D312032483836762D326C2D31 0x2D BALANCE PUSH9 0x2D36762D33386C352D ORIGIN PUSH9 0x396C322D3320332D33 PUSH9 0x31346C35203568346C CALLDATACOPY 0x2D CALLDATACOPY PUSH9 0x33376C322032203220 ORIGIN PUSH23 0x346831327633336C2D3420357633682D327635682D386C 0x2D CALLDATACOPY KECCAK256 CALLDATALOAD PUSH9 0x2D3676326C2D313020 BALANCE PUSH23 0x2D316C2D312D322D3120322D3120312D342D322D312032 0x2D BALANCE 0x2D BALANCE 0x2D CALLVALUE 0x2D ORIGIN GAS 0x22 KECCAK256 PUSH20 0x74796C653D2266696C6C3A233233333234313B22 0x2F RETURNDATACOPY EXTCODECOPY PUSH17 0x61746820643D224D313334203130366831 PUSH23 0x31682D31762D315A6D33302032762D33682D33376C3120 BALANCE PUSH23 0x316C312D3168316C2D34203420312D3220312D31682D31 PUSH13 0x2D3220322D322032683431762D CALLER GAS PUSH14 0x2D36362031762D316C3120317632 PUSH9 0x3132762D336C322033 PUSH23 0x2D344839386C2D3120322D3220326833762D325A6D3733 KECCAK256 CALLDATASIZE PUSH23 0x2D31682D3576326835762D315A6D35203068317631682D BALANCE PUSH23 0x2D315A6D2D33203068317631682D31762D315A6D372D31 PUSH23 0x2D32682D3876356838762D335A6D2D3839203268317631 PUSH9 0x2D31762D315A6D2D33 KECCAK256 ADDRESS PUSH9 0x317631682D31762D31 GAS PUSH14 0x3135203020312D3276356838762D CALLER PUSH13 0x332D31203320316832762D346C BALANCE KECCAK256 ORIGIN KECCAK256 BALANCE KECCAK256 BALANCE KECCAK256 BALANCE 0x2D BALANCE KECCAK256 BALANCE 0x2D BALANCE 0x2D BALANCE 0x2D BALANCE BASEFEE CODESIZE CALLDATACOPY PUSH13 0x2D3120312D32203120322D332D ORIGIN KECCAK256 ORIGIN 0x2D ORIGIN KECCAK256 BALANCE PUSH23 0x326C322D317634683139762D335A6D2D323020352D312D BALANCE PUSH23 0x336C312D3168316C2D312D315A6D302033682D31763168 BALANCE PUSH23 0x2D315A6D302033682D3176316831762D315A6D39342030 0x2D BALANCE 0x2D BALANCE PUSH9 0x326C3120317631682D ORIGIN PUSH23 0x2D315A6D332034762D346C2D312D33682D34763868346C BALANCE 0x2D BALANCE GAS PUSH14 0x2D36312D34762D3130682D367635 PUSH9 0x3276313568326C3220 BALANCE PUSH23 0x2D31315A6D35332031762D313020323168356C322D3320 BALANCE 0x2D ORIGIN PUSH23 0x2D316C2D362D31762D336C2D312D3320312D3220322D31 PUSH9 0x34762D35682D366C2D CALLDATACOPY 0x2D ORIGIN PUSH23 0x323368346C312D31315A6D2D36362D33682D3176316831 PUSH23 0x2D315A6D2D31362032682D3176316831762D315A6D3230 KECCAK256 ORIGIN 0x2D BALANCE 0x2D BALANCE PUSH23 0x346C312D3168316C2D312D325A6D2D382035682D317631 PUSH9 0x31762D315A6D2D342D ORIGIN KECCAK256 BALANCE 0x2D BALANCE 0x2D CALLVALUE KECCAK256 ORIGIN PUSH23 0x2D36682D3476326C322D3176346C312031203120322033 0x2D CALLER GAS PUSH14 0x313320322D312D3176336C312D31 PUSH9 0x316C2D312D315A6D2D CALLDATALOAD KECCAK256 BALANCE 0x2D BALANCE 0x2D BALANCE KECCAK256 ORIGIN 0x2D BALANCE PUSH9 0x326C2D312D33762D33 PUSH13 0x31203120312D3120322D312D31 0x2D BALANCE 0x2D BALANCE 0x2D BALANCE PUSH23 0x316C2D3120312D36203120322D332D3120312D31203176 ORIGIN PUSH9 0x2D3376356C322D3120 BALANCE 0x2D BALANCE PUSH23 0x326C3120312D31203168336C3220312D322D315A6D3320 ORIGIN PUSH23 0x2D316C2D34203176316834762D315A6D2D372030762D31 PUSH9 0x2D336C312031763168 BALANCE PUSH13 0x312D315A6D2D31352D37762D39 PUSH9 0x32346C312032763135 PUSH13 0x2D32352031762D395A6D323620 CODESIZE PUSH23 0x2D31376C2D312D314838346C3220312D31203137203120 BALANCE KECCAK256 ORIGIN KECCAK256 BALANCE PUSH9 0x32346C312D325A6D2D CALLER ADDRESS KECCAK256 BALANCE PUSH9 0x2D3176316831762D31 GAS PUSH14 0x37332D323568317631682D31762D BALANCE GAS PUSH14 0x2D323320306832332D333120385A PUSH14 0x333220323820312D31762D32356C 0x2D CALLVALUE 0x2D BALANCE 0x2D CALLVALUE 0x2D BALANCE PUSH9 0x37762D316C2D312D31 PUSH9 0x2D34307633682D326C 0x2D ORIGIN KECCAK256 BALANCE PUSH23 0x32356C3320336834316C312D325A6D3620306831763168 0x2D BALANCE PUSH23 0x2D315A6D34203020322D32682D3130763568356C332D33 GAS PUSH14 0x2D35362030762D33682D356C2D31 KECCAK256 ORIGIN 0x2D BALANCE KECCAK256 ORIGIN 0x2D BALANCE KECCAK256 BALANCE PUSH9 0x2D326C352031683576 0x2D CALLER GAS PUSH14 0x2D31322032682D382031302D325A PUSH14 0x2D31332030682D35762D336C2D33 KECCAK256 CALLER 0x2D BALANCE 0x2D BALANCE PUSH9 0x32762D326C2D312D31 PUSH9 0x2D3176356C31342D31 PUSH9 0x2D355A6D3732203076 0x2D ORIGIN PUSH13 0x2D332033682D3176316834762D ORIGIN GAS PUSH14 0x2D392031682D31342031392D355A PUSH14 0x2D31372030682D382031312D335A PUSH14 0x2D31302030682D3620382D325A6D 0x2D CODESIZE 0x2D BALANCE 0x2D BALANCE 0x2D BALANCE PUSH9 0x2D316C312033203220 ORIGIN KECCAK256 BALANCE 0x2D ORIGIN 0x2D ORIGIN 0x2D ORIGIN GAS PUSH14 0x333220362D312D3176316C2D3120 BALANCE PUSH9 0x336C2D312D315A6D2D BALANCE CALLDATACOPY 0x2D BALANCE 0x2D BALANCE 0x2D BALANCE PUSH23 0x336C312D3168316C2D312D315A6D2D34382031682D3176 BALANCE PUSH9 0x31762D315A6D343220 BALANCE PUSH9 0x2D3176316831762D31 GAS PUSH14 0x2D31342030682D3176316831762D BALANCE GAS PUSH14 0x322031682D3176316831762D315A PUSH14 0x31362031762D316C2D322D337635 PUSH9 0x2D336C332031683276 0x2D ORIGIN GAS PUSH14 0x323620326832762D33682D357635 PUSH13 0x312D3120312D3168325A6D2D31 ORIGIN 0x2D ORIGIN PUSH9 0x317631682D31762D31 GAS PUSH14 0x2D32203068317631682D31762D31 GAS PUSH14 0x32203268336C312031682D356C31 0x2D BALANCE GAS PUSH14 0x2D37203068362D3820325A6D3133 KECCAK256 BALANCE 0x2D ORIGIN 0x2D BALANCE PUSH9 0x34762D33682D323176 CALLDATALOAD PUSH9 0x31316C31312D31682D CALLER GAS PUSH14 0x2D323420362D332D322D312D3176 0x2D BALANCE PUSH9 0x2D31316C2D362D3668 0x2D CODECOPY PUSH13 0x2D312032483836762D326C2D31 0x2D BALANCE PUSH9 0x2D36762D33386C352D ORIGIN PUSH9 0x396C322D3320332D33 PUSH9 0x31346C35203568346C CALLDATACOPY 0x2D CALLDATACOPY PUSH9 0x33376C322032203220 ORIGIN PUSH23 0x346831327633336C2D3420357633682D327635682D386C 0x2D CALLDATACOPY KECCAK256 CALLDATALOAD PUSH9 0x2D3676326C2D313020 BALANCE PUSH23 0x2D316C2D312D322D3120322D3120312D342D322D312032 0x2D BALANCE 0x2D BALANCE 0x2D CALLVALUE 0x2D ORIGIN GAS 0x22 KECCAK256 PUSH20 0x74796C653D2266696C6C3A233234326433353B22 0x2F RETURNDATACOPY EXTCODECOPY PUSH17 0x61746820643D226D39362031313120322D BALANCE KECCAK256 BALANCE 0x2D BALANCE PUSH23 0x2D31203368386C372D31203220324839356C312D315A6D CALLDATASIZE CALLVALUE KECCAK256 CALLER PUSH9 0x336C3120312D332D31 PUSH9 0x2D3320325A6D2D3420 ADDRESS PUSH9 0x317631682D31762D31 GAS PUSH14 0x2D35203068352D3720325A6D2D31 CALLER KECCAK256 ADDRESS PUSH9 0x31302D313320335A6D 0x2D BALANCE ADDRESS KECCAK256 ADDRESS PUSH9 0x372D3920325A6D2D32 CALLDATALOAD KECCAK256 BALANCE PUSH9 0x317631682D31762D31 GAS PUSH14 0x2D3132203168317631682D31762D BALANCE GAS PUSH14 0x2D33203068317631682D31762D31 GAS PUSH14 0x3235203020312D3168336C332031 PUSH23 0x2D346C312032203120312D3120312D312031682D386C31 0x2D BALANCE GAS PUSH14 0x362034762D326C31203120312031 PUSH9 0x2D316C2D312031762D BALANCE GAS PUSH14 0x30203368317631682D31762D315A PUSH14 0x312035762D3320356C2D31203120 BALANCE 0x2D CALLER GAS PUSH14 0x34372D3139762D32682D32763468 ORIGIN PUSH23 0x2D325A6D2D332D32762D33682D33356C2D362035763268 CALLVALUE BALANCE PUSH23 0x2D345A6D362035682D3176316831762D315A6D33203368 BALANCE PUSH23 0x31682D31762D315A6D372D31762D32682D387635683876 0x2D CALLER GAS PUSH14 0x2D39372034682D3176316831762D BALANCE GAS PUSH14 0x31382038762D31682D3276326831 PUSH13 0x312D315A6D3735203068317631 PUSH9 0x2D31762D315A6D3420 CALLVALUE KECCAK256 BALANCE 0x2D BALANCE 0x2D BALANCE 0x2D CALLER 0x2D BALANCE 0x2D ORIGIN PUSH9 0x2D34763868346C312D ORIGIN GAS PUSH14 0x2D37312D332D312D322031203120 BALANCE KECCAK256 BALANCE PUSH23 0x31682D31762D315A6D322D31762D31682D387631682D31 KECCAK256 ORIGIN PUSH13 0x322D3120322032203120317632 PUSH13 0x31203220312D35762D315A6D2D ORIGIN KECCAK256 BALANCE BALANCE PUSH23 0x2D31682D37762D32682D316C2D312031762D326C312D31 KECCAK256 ORIGIN 0x2D BALANCE PUSH23 0x326C31203176316C2D31203168356C2D322D312D312D31 KECCAK256 ORIGIN 0x2D BALANCE PUSH9 0x3176316C2D31203120 BALANCE 0x2D BALANCE PUSH9 0x31762D336C2D312D33 0x2D CALLER 0x2D ORIGIN 0x2D CALLER KECCAK256 ORIGIN 0x2D BALANCE 0x2D BALANCE 0x2D BALANCE KECCAK256 CALLER PUSH23 0x336C2D3120327633683130762D315A6D2D31342D31302D BALANCE 0x2D BALANCE PUSH9 0x326C3120317632682D BALANCE PUSH13 0x2D312D325A6D332037762D326C 0x2D CALLER 0x2D BALANCE PUSH9 0x33762D356C2D322D31 PUSH9 0x2D316C2D3220312D32 KECCAK256 BALANCE PUSH23 0x326C312D31683176356C31203120322032682D34762D32 PUSH13 0x2D3120312D32203120332D352D BALANCE 0x2D ORIGIN 0x2D BALANCE 0x2D ORIGIN KECCAK256 CALLER 0x2D ORIGIN PUSH9 0x2D347631316C322032 KECCAK256 CALLER 0x2D BALANCE PUSH9 0x34762D335A6D2D3135 0x2D BALANCE ADDRESS PUSH23 0x2D352031392D31345A6D302031352D312D3176356C312D BALANCE PUSH23 0x2D335A6D3931203368317631682D31762D315A6D2D3220 CALLVALUE KECCAK256 BALANCE 0x2D BALANCE 0x2D BALANCE 0x2D BALANCE PUSH9 0x336C352D36762D356C 0x2D CALLDATASIZE 0x2D BALANCE 0x2D BALANCE 0x2D CALLER PUSH23 0x2D336C332D336834762D35682D366C2D372D3276323368 CALLVALUE PUSH13 0x312D323176323168376C2D3132 KECCAK256 BALANCE PUSH23 0x3868336C322D325A6D2D34392030762D316C2D332D3376 CALLDATASIZE PUSH9 0x33762D325A6D2D3139 0x2D CALLDATASIZE PUSH23 0x2D316C31203120312031682D336C312D315A6D2D332030 PUSH9 0x317631682D31762D31 GAS PUSH14 0x302033762D3168366C2D3220312D BALANCE KECCAK256 BALANCE PUSH9 0x2D33762D315A6D2D39 0x2D BALANCE 0x2D BALANCE 0x2D BALANCE KECCAK256 CALLVALUE 0x2D BALANCE PUSH9 0x347634682D32762D32 PUSH9 0x2D346C332032682D33 PUSH13 0x2D312D325A6D2D332030762D31 PUSH13 0x2D3120312D322D312D312D3120 BALANCE 0x2D BALANCE KECCAK256 BALANCE 0x2D BALANCE PUSH23 0x336C332D31203120327632682D32762D325A6D2D332031 PUSH9 0x317631682D31762D31 GAS PUSH14 0x32372033762D316C322031763168 0x2D ORIGIN PUSH23 0x2D315A6D2D32203068317631682D31762D315A6D2D3230 KECCAK256 ADDRESS PUSH9 0x317631682D31762D31 GAS PUSH14 0x2D3520302D312D3168336C312032 PUSH9 0x2D33762D315A6D3132 KECCAK256 ADDRESS KECCAK256 BALANCE 0x2D ORIGIN PUSH23 0x346839762D37683276336C2D312034683130762D39682D CALLVALUE PUSH13 0x2D332032762D33682D31326C2D BALANCE CALLER KECCAK256 BALANCE PUSH23 0x2D31386832346C3120317631346C2D312D342D32203220 BALANCE KECCAK256 ORIGIN PUSH23 0x316833762D31366C2D312D3148383468316C3120317631 PUSH9 0x2D317631396C2D3120 ORIGIN 0x2D BALANCE KECCAK256 CALLER KECCAK256 ORIGIN KECCAK256 BALANCE KECCAK256 ORIGIN KECCAK256 BALANCE PUSH9 0x3131762D325A6D3234 KECCAK256 CALLER PUSH9 0x2D3176316831762D31 GAS PUSH14 0x333320312D312D312D3120312D31 KECCAK256 BALANCE PUSH9 0x346C2D312D315A6D2D CALLVALUE KECCAK256 ADDRESS PUSH9 0x2D3176316831762D31 GAS PUSH14 0x2D322030682D3176316831762D31 GAS PUSH14 0x2D332030682D3720392D325A6D2D CODECOPY 0x2D BALANCE 0x2D BALANCE 0x2D BALANCE PUSH23 0x336C312D3168316C2D312D315A6D2D32332031682D3176 BALANCE PUSH9 0x31762D315A6D2D3220 ADDRESS PUSH9 0x2D3176316831762D31 GAS PUSH14 0x2D31362D312D312D3176336C312D BALANCE PUSH9 0x316C2D312D315A6D2D CALLDATALOAD KECCAK256 BALANCE PUSH9 0x2D3176316831762D31 GAS PUSH14 0x2D322030682D3176316831762D31 GAS PUSH14 0x38332032762D316C2D322D31682D CALLER PUSH23 0x336835762D315A6D2D34332D322D312D3176346C312D31 PUSH9 0x316C2D312D325A6D2D ORIGIN KECCAK256 ORIGIN PUSH23 0x2D316C2D31302D31682D3176316C312031763168313076 0x2D BALANCE GAS PUSH14 0x34322033682D3176316831762D31 GAS PUSH14 0x2D343920302D312D3176316C2D31 KECCAK256 BALANCE PUSH9 0x336C2D312D315A6D33 CALLDATACOPY 0x2D BALANCE KECCAK256 BALANCE 0x2D ORIGIN PUSH23 0x3568336C332D312D352D316835762D326C2D312D31682D ORIGIN CALLDATACOPY PUSH23 0x35683231762D335A6D2D33332032762D31682D316C2D31 KECCAK256 ORIGIN PUSH9 0x316C312D315A6D382D CALLER PUSH9 0x317631682D31762D31 GAS PUSH14 0x3020332D312D3220312031203220 ORIGIN PUSH9 0x31762D38682D327633 0x2D BALANCE PUSH13 0x2D312D31682D3276386832762D ORIGIN GAS PUSH14 0x2D3120362D332D322D312D31762D BALANCE PUSH9 0x2D31316C2D322D322D ORIGIN 0x2D ORIGIN KECCAK256 BALANCE 0x2D BALANCE PUSH23 0x2D31682D31316C2D3120312D312031483836762D326C2D BALANCE 0x2D BALANCE PUSH9 0x2D36762D33376C332D ORIGIN KECCAK256 ORIGIN 0x2D BALANCE PUSH9 0x317632682D316C2D32 0x2D BALANCE PUSH23 0x356C322D3376356831396C312D32762D31203368396C32 KECCAK256 CALLDATALOAD PUSH23 0x313368326C32203120312D377631306C3320336831326C 0x2D BALANCE BALANCE KECCAK256 BALANCE PUSH23 0x3368376C312D32762D312033683130762D336C33203320 BALANCE CALLDATASIZE 0x2D BALANCE KECCAK256 BALANCE 0x2D BALANCE PUSH23 0x2D3120336834762D366C2D3120322D3120312D31352D31 PUSH9 0x2D31342032396C322D CALLER PUSH23 0x2D32356C2D322D3120372031762D32682D356C312D3268 0x2D CALLVALUE CALLER PUSH23 0x336C2D312D32762D31682D366C2D322D332D332D324839 CODESIZE PUSH13 0x2D3220322D332033682D346C2D CALLER 0x2D BALANCE PUSH9 0x376C322D3320332D33 PUSH9 0x31346C35203568346C CALLDATACOPY 0x2D CALLDATACOPY PUSH9 0x33376C322032203220 ORIGIN PUSH23 0x346831327633346C2D352032203120327632682D316C2D BALANCE KECCAK256 BALANCE PUSH23 0x35682D386C2D372035682D3676326C2D31302031762D31 PUSH13 0x2D312D322D3120322D3120312D CALLVALUE 0x2D ORIGIN 0x2D BALANCE KECCAK256 ORIGIN PUSH9 0x2D316C2D342D335A22 KECCAK256 PUSH20 0x74796C653D2266696C6C3A233232323432363B22 0x2F RETURNDATACOPY EXTCODECOPY PUSH17 0x61746820643D226D313630203131312031 0x2D BALANCE KECCAK256 BALANCE KECCAK256 BALANCE KECCAK256 BALANCE KECCAK256 BALANCE PUSH9 0x2D326C2D322D316831 GAS PUSH14 0x2D323620306832352D333420395A PUSH14 0x2D3134203268317631682D31762D BALANCE GAS PUSH14 0x3339203120312D31203120312031 KECCAK256 BALANCE PUSH9 0x2D326C2D322D316831 GAS PUSH14 0x2D33203068317631682D31762D31 GAS PUSH14 0x2D322030762D316C312031203120 BALANCE PUSH9 0x2D336C312D315A6D2D CALLVALUE KECCAK256 ADDRESS KECCAK256 BALANCE 0x2D BALANCE KECCAK256 BALANCE KECCAK256 BALANCE KECCAK256 BALANCE KECCAK256 BALANCE PUSH9 0x2D326C2D322D316831 GAS PUSH14 0x2D313220306831302D313320335A PUSH14 0x2D3130203068372D3920325A6D2D CALLDATALOAD KECCAK256 ADDRESS PUSH9 0x317631682D31762D31 GAS PUSH14 0x35372030762D326C2D332D31682D CALLVALUE KECCAK256 CALLDATACOPY PUSH13 0x31203176336C2D312031762D32 GAS PUSH14 0x2D3839203268317631682D31762D BALANCE GAS PUSH14 0x2D33203068317631682D31762D31 GAS PUSH14 0x3235203120312D3120382D312D31 KECCAK256 BALANCE 0x2D CALLVALUE KECCAK256 BALANCE PUSH9 0x2D3520315A6D2D3720 ORIGIN PUSH9 0x317631682D31762D31 GAS PUSH14 0x2D33203068317631682D31762D31 GAS PUSH14 0x2D33203068317631682D31762D31 GAS PUSH14 0x2D33203068317631682D31762D31 GAS PUSH14 0x2D34203068336C3120312D332D31 PUSH9 0x2D3320325A6D2D3420 ADDRESS PUSH9 0x317631682D31762D31 GAS PUSH14 0x2D32203068317631682D31762D31 GAS PUSH14 0x33322031762D326C312031203120 BALANCE PUSH9 0x2D316C2D312031762D BALANCE GAS PUSH14 0x2D372031762D31682D326C2D322D BALANCE PUSH9 0x326C322D3120312032 KECCAK256 BALANCE KECCAK256 BALANCE 0x2D ORIGIN KECCAK256 BALANCE PUSH23 0x2D315A6D2D32382031762D3168326C2D312032682D3176 0x2D BALANCE GAS PUSH14 0x30203268317631682D31762D315A PUSH14 0x31382032762D32203268352D326C 0x2D BALANCE KECCAK256 BALANCE 0x2D BALANCE KECCAK256 BALANCE 0x2D BALANCE KECCAK256 BALANCE PUSH23 0x2D335A6D37332031762D3468332D316C2D32203176362D CALLER GAS PUSH14 0x2D35352031762D3320356C2D3120 BALANCE KECCAK256 BALANCE 0x2D CALLER GAS PUSH14 0x2D3336203120312D33203120332D ORIGIN KECCAK256 BALANCE 0x2D BALANCE KECCAK256 BALANCE KECCAK256 BALANCE 0x2D ORIGIN GAS PUSH14 0x32392037762D326C312031203120 BALANCE PUSH9 0x2D316C2D312031762D BALANCE GAS PUSH14 0x2D342D39682D3176316831762D31 GAS PUSH14 0x302037762D31682D316C2D312032 PUSH9 0x316C312D315A6D2D37 0x2D BALANCE 0x2D BALANCE 0x2D BALANCE PUSH23 0x336C312D3168316C2D312D315A6D2D3120322D312D3120 ORIGIN 0x2D CALLER KECCAK256 BALANCE KECCAK256 ORIGIN KECCAK256 BALANCE KECCAK256 BALANCE 0x2D BALANCE KECCAK256 ORIGIN PUSH9 0x356C2D322D312D312D BALANCE KECCAK256 ORIGIN 0x2D BALANCE PUSH9 0x326C2D312D34762D34 PUSH13 0x32203176386C2D3220312D3120 ORIGIN PUSH9 0x2D346C2D322D325A6D BALANCE CALLDATACOPY KECCAK256 CALLER KECCAK256 BALANCE 0x2D BALANCE KECCAK256 BALANCE 0x2D CALLER PUSH23 0x2D332038682D336C312D315A6D2D33203068317631682D BALANCE PUSH23 0x2D315A6D2D33312D3220312D33762D312037682D326C31 0x2D CALLER GAS PUSH14 0x32382034762D316C322D3176326C 0x2D ORIGIN KECCAK256 BALANCE PUSH23 0x2D315A6D2D31372D31332D312D32203120312032203268 0x2D BALANCE PUSH23 0x316C2D312D325A6D312034762D316C3120312031203168 0x2D CALLER PUSH13 0x312D315A6D2D3420342D322D31 KECCAK256 BALANCE 0x2D BALANCE PUSH23 0x2D346C322031763568326C3120312D312D31682D335A6D CALLDATASIZE 0x2D CALLVALUE PUSH23 0x2D36682D346C2D3220312D32203220332D33682D357631 CALLER PUSH9 0x3130762D375A6D2D31 BALANCE KECCAK256 CODESIZE PUSH23 0x2D31376832357631346C2D322D3520312D33762D34682D BALANCE BALANCE PUSH23 0x31346831322D31326C2D3133203176312D315A6D2D3420 CALLER PUSH23 0x2D326C31203120312032682D316C2D312031762D325A6D CALLDATACOPY CALLDATACOPY KECCAK256 ORIGIN PUSH9 0x346C312D3220312D31 PUSH23 0x2D3235682D326C312D312032203120332031682D337632 ORIGIN PUSH9 0x346C312D3231763232 PUSH9 0x2D3576346C2D312D31 PUSH9 0x2D3176316C2D312031 0x2D CODESIZE 0x2D BALANCE PUSH9 0x345A6D2D3230203068 BALANCE CALLDATASIZE 0x2D ORIGIN BALANCE KECCAK256 CALLDATALOAD GAS PUSH14 0x2D3130203068352D3720325A6D2D CALLVALUE KECCAK256 ADDRESS PUSH9 0x317631682D31762D31 GAS PUSH14 0x2D34352D3139682D317631683176 0x2D BALANCE GAS PUSH14 0x3938203138682D3176316831762D BALANCE GAS PUSH14 0x2D373020362D312D312D3120312D BALANCE KECCAK256 BALANCE PUSH9 0x346C2D312D315A6D35 CALLVALUE KECCAK256 BALANCE 0x2D BALANCE 0x2D BALANCE PUSH9 0x2D3576326836762D31 GAS PUSH14 0x2D372030762D31682D3476326834 PUSH23 0x2D315A6D31392030762D31682D3276336C322D31762D31 GAS PUSH14 0x2D373520312D312D3120322D3168 BALANCE 0x2D CALLDATALOAD PUSH23 0x326C2D322D337632682D33762D326C2D332033762D326C 0x2D ORIGIN KECCAK256 BALANCE PUSH23 0x32683133762D315A6D32392030762D32682D3133763568 BALANCE CALLER PUSH23 0x2D335A6D2D31342032762D31682D326C312D3220312D31 PUSH9 0x2D3476326C33203368 BALANCE PUSH23 0x2D315A6D353420312D312D322031203120312031763168 0x2D BALANCE PUSH23 0x2D315A6D332D32762D33682D3576356C31203120312031 PUSH9 0x33762D345A6D2D3433 KECCAK256 CALLER PUSH9 0x2D313276326C362D31 PUSH9 0x36762D315A6D323320 CALLDATALOAD 0x2D BALANCE 0x2D BALANCE PUSH9 0x326C3120326833762D CALLER PUSH9 0x2D366C2D3120336834 PUSH13 0x2D322D315A6D2D332D39683176 BALANCE PUSH9 0x2D31762D315A6D2D38 KECCAK256 ADDRESS PUSH9 0x352D3720325A6D2D34 KECCAK256 ADDRESS PUSH9 0x317631682D31762D31 GAS PUSH14 0x39203820312D3120312031203120 BALANCE PUSH9 0x2D326C2D322D316831 GAS PUSH14 0x2D3720302D322D3268346C2D3220 BALANCE KECCAK256 ORIGIN KECCAK256 BALANCE KECCAK256 BALANCE KECCAK256 ORIGIN PUSH9 0x37762D336C2D382D31 PUSH9 0x32316C2D3420317633 PUSH13 0x352D3320312D3220312D312D31 0x2D ORIGIN 0x2D BALANCE 0x2D BALANCE PUSH9 0x2D3131762D326C2D31 0x2D BALANCE PUSH9 0x2D31346C2D32203276 0x2D ORIGIN PUSH9 0x2D3576386C33203368 ORIGIN PUSH13 0x312D35763668356C2D322D325A PUSH14 0x2D3820332D332D322D312D31762D BALANCE PUSH9 0x2D31316C2D362D3668 0x2D CODECOPY PUSH13 0x2D312032483836762D326C2D31 0x2D BALANCE PUSH9 0x2D35762D33336C312D BALANCE PUSH23 0x2D316C2D312D31682D316C322D3220332D322031203168 0x2D BALANCE PUSH13 0x2D32203176356C322031203120 BALANCE PUSH9 0x2D337632346C332034 PUSH9 0x31336C312D32762D31 KECCAK256 CALLER PUSH9 0x396C312D34762D3420 CODESIZE PUSH9 0x3130762D336C312D33 0x2D BALANCE 0x2D BALANCE PUSH23 0x2D316C322032203220312031203120322031682D336C2D CALLER 0x2D CALLER PUSH23 0x3668336C312D32762D3120336831386C312D32762D3120 CALLER PUSH9 0x32336C312D32762D32 KECCAK256 CALLVALUE PUSH9 0x346C352D3520342D35 PUSH23 0x2D36682D326C2D3220312D312D312D312D316836762D31 CALLER PUSH9 0x2D39762D34682D356C BALANCE 0x2D BALANCE PUSH23 0x2D316C2D332D316833762D346C2D342D33682D33346C2D CALLDATACOPY KECCAK256 CALLDATASIZE KECCAK256 CALLER KECCAK256 ORIGIN 0x2D CALLVALUE 0x2D BALANCE PUSH9 0x2D346C2D322D322D33 0x2D ORIGIN BASEFEE CODECOPY CODESIZE PUSH13 0x2D3220322D332033682D316C36 0x2D CALLDATACOPY PUSH9 0x31346C35203568346C CALLDATACOPY 0x2D CALLDATACOPY PUSH9 0x33376C322032203220 ORIGIN PUSH23 0x336C312033762D316C312D316831763668397632376C2D ORIGIN KECCAK256 ORIGIN 0x2D ORIGIN KECCAK256 BALANCE 0x2D BALANCE KECCAK256 CALLDATALOAD 0x2D BALANCE KECCAK256 CALLDATALOAD PUSH9 0x2D386C2D372035682D CALLDATASIZE PUSH23 0x326C2D312D31682D326C312031682D38762D316C2D312D BALANCE 0x2D BALANCE KECCAK256 ORIGIN 0x2D BALANCE KECCAK256 BALANCE 0x2D CALLVALUE 0x2D ORIGIN 0x2D BALANCE KECCAK256 ORIGIN 0x2D BALANCE 0x2D BALANCE 0x2D CALLVALUE 0x2D ORIGIN GAS 0x22 KECCAK256 PUSH20 0x74796C653D2266696C6C3A233134316432323B22 0x2F RETURNDATACOPY EXTCODECOPY PUSH17 0x61746820643D224D313535203131316831 PUSH23 0x31682D31762D315A6D2D35203068317631682D31762D31 GAS PUSH14 0x2D32203068317631682D31762D31 GAS PUSH14 0x2D3131203068317631682D31762D BALANCE GAS PUSH14 0x34332034762D326C312031203120 BALANCE PUSH9 0x2D316C2D312031762D BALANCE GAS PUSH14 0x2D3132203168317631682D31762D BALANCE GAS PUSH14 0x2D3530203068317631682D31762D BALANCE GAS PUSH14 0x2D33203068317631682D31762D31 GAS PUSH14 0x2D32203068317631682D31762D31 GAS PUSH14 0x2D3232203068317631682D31762D BALANCE GAS PUSH14 0x2D33203068317631682D31762D31 GAS PUSH14 0x3930203168317631682D31762D31 GAS PUSH14 0x2D33203068317631682D31762D31 GAS PUSH14 0x2D332D312D312D32682D346C312D CALLDATASIZE 0x2D CALLDATALOAD 0x2D CALLVALUE PUSH9 0x2D33346C2D3420342D CALLVALUE KECCAK256 CALLER PUSH9 0x2D326C2D322D312D37 0x2D CALLVALUE BASEFEE CODECOPY CODESIZE PUSH23 0x316C2D3120312D34203320352D366831346C3520356834 PUSH13 0x372D376833376C322032203320 CALLER 0x2D ORIGIN KECCAK256 BALANCE KECCAK256 BALANCE KECCAK256 CALLVALUE KECCAK256 ORIGIN 0x2D BALANCE PUSH9 0x316C3120337633682D BALANCE PUSH23 0x2D325A6D2D3630203468317631682D31762D315A6D3632 KECCAK256 CALLDATASIZE PUSH9 0x317631682D31762D31 GAS PUSH14 0x2D37302030762D316C3120312031 KECCAK256 BALANCE PUSH9 0x2D336C312D315A6D2D CODECOPY KECCAK256 BALANCE PUSH9 0x317631682D31762D31 GAS PUSH14 0x2D342030762D3168316C2D312032 PUSH9 0x2D316C312D315A6D2D BALANCE ORIGIN KECCAK256 ADDRESS PUSH9 0x317631682D31762D31 GAS PUSH14 0x3939203568317631682D31762D31 GAS PUSH14 0x2D3320302D312D3168326C312031 PUSH23 0x31682D32762D315A6D2D3638203120312D31762D376C31 KECCAK256 BALANCE PUSH23 0x38682D336C312D315A6D2D3720302D312D3120312D3576 CALLVALUE PUSH13 0x31203376316C2D312D325A6D2D CODECOPY KECCAK256 ADDRESS PUSH23 0x2D356C312031203120317634682D336C312D315A6D3131 KECCAK256 BALANCE PUSH23 0x2D326C31203120312032682D316C2D312031762D325A6D 0x2D CALLVALUE KECCAK256 BALANCE PUSH23 0x2D326C31203120312031682D316C2D312031762D315A6D CODESIZE KECCAK256 BALANCE PUSH23 0x2D316C31203120312031682D336C312D315A6D31312032 PUSH9 0x317631682D31762D31 GAS PUSH14 0x2D3136203068362D3820325A6D2D BALANCE CALLVALUE 0x2D CODESIZE PUSH23 0x2D386832357631332D31682D31762D31316C2D3320312D CALLVALUE KECCAK256 BALANCE KECCAK256 BALANCE 0x2D BALANCE PUSH23 0x2D31682D326C2D3320312D31203176316C2D312D31762D ORIGIN PUSH9 0x2D396C2D3120313568 BALANCE BALANCE 0x2D CALLDATASIZE PUSH13 0x2D362031762D395A6D2D342038 PUSH9 0x317631682D31762D31 GAS PUSH14 0x38392D39762D31312032322D3131 GAS PUSH14 0x2D3539203130762D316C31203120 BALANCE KECCAK256 BALANCE PUSH9 0x2D336C312D315A6D34 BALANCE KECCAK256 CODECOPY PUSH9 0x336C312031682D356C BALANCE 0x2D BALANCE GAS PUSH14 0x2D37203068352D3720325A6D2D36 KECCAK256 ADDRESS PUSH9 0x336C312031682D356C BALANCE 0x2D BALANCE GAS PUSH14 0x2D33203068317631682D31762D31 GAS PUSH14 0x2D3132203068317631682D31762D BALANCE GAS PUSH14 0x39203168317631682D31762D315A PUSH14 0x3430203168317631682D31762D31 GAS PUSH14 0x2D323320312D312D322031203120 BALANCE KECCAK256 BALANCE PUSH23 0x31682D31762D315A6D2D3337203168317631682D31762D BALANCE GAS PUSH14 0x3539203368317631682D31762D31 GAS PUSH14 0x2D34342D32762D3420372D335A6D ORIGIN CALLDATACOPY KECCAK256 CALLVALUE PUSH9 0x317631682D31762D31 GAS PUSH14 0x32322D3133762D31682D316C2D31 KECCAK256 ORIGIN PUSH9 0x32762D315A6D2D3420 CALLER 0x2D BALANCE 0x2D BALANCE PUSH23 0x316C2D31203168336C2D312D315A6D2D31372031342D31 0x2D BALANCE PUSH23 0x2D326C3120312031203220352D34762D346C2D322D3120 BALANCE 0x2D ORIGIN KECCAK256 BALANCE 0x2D BALANCE PUSH9 0x2D366C312D3168366C CALLDATASIZE 0x2D BALANCE KECCAK256 CODECOPY 0x2D CALLDATACOPY PUSH23 0x2D31326C312D3131763233682D316C2D31203120312031 KECCAK256 ORIGIN KECCAK256 BALANCE 0x2D CALLDATACOPY KECCAK256 CALLDATASIZE PUSH9 0x2D3276336832763268 0x2D CALLER PUSH23 0x2D35682D3576326C2D322D3276346C312033762D326C31 0x2D CALLER PUSH23 0x366C2D3820352D312D315A6D2D33203068317631682D31 PUSH23 0x2D315A6D2D34352D31312D312D31682D3676326837762D BALANCE GAS PUSH14 0x2D39203120322D3248393376326C 0x2D BALANCE 0x2D ORIGIN PUSH9 0x2D3576346831326C32 0x2D ORIGIN GAS PUSH14 0x333020382D312D312D312D312031 KECCAK256 ORIGIN PUSH23 0x316831762D315A6D32322034762D31682D33763268326C BALANCE 0x2D BALANCE GAS PUSH14 0x2D362030762D31682D336C312032 PUSH9 0x316C312D315A6D2D39 KECCAK256 ADDRESS 0x2D ORIGIN 0x2D BALANCE 0x2D CALLVALUE 0x2D BALANCE PUSH9 0x2D336C2D322D33682D BALANCE BALANCE PUSH13 0x2D362D36682D396C2D31203248 CODESIZE CALLDATASIZE PUSH23 0x2D326C2D312D31682D36762D366C312D3620322D362D32 0x2D BALANCE PUSH9 0x2D316C322D32762D36 PUSH9 0x2D316C2D3120312031 0x2D ORIGIN KECCAK256 BALANCE 0x2D CALLVALUE KECCAK256 BALANCE 0x2D CALLER PUSH9 0x2D326C2D312D312032 0x2D ORIGIN KECCAK256 CALLER 0x2D ORIGIN KECCAK256 BALANCE KECCAK256 BALANCE 0x2D ORIGIN KECCAK256 BALANCE PUSH9 0x2D316C31203334682D CALLER PUSH23 0x3368336C322D326833386C322031682D313476326C3620 CALLDATASIZE PUSH9 0x31336C322031203220 ORIGIN PUSH9 0x323076326C2D312031 0x2D BALANCE KECCAK256 BALANCE PUSH9 0x2D386C2D322D32682D CALLER PUSH13 0x31203176316C312D3168317632 PUSH9 0x2D326C2D322D325A6D 0x2D CALLVALUE KECCAK256 BALANCE 0x2D BALANCE 0x2D BALANCE PUSH9 0x326C312032682D3276 0x2D BALANCE GAS 0x22 KECCAK256 PUSH20 0x74796C653D2266696C6C3A233064306631313B22 0x2F RETURNDATACOPY LOG2 PUSH5 0x6970667358 0x22 SLT KECCAK256 COINBASE ADDRESS 0x4D 0x4F PUSH15 0x90EA68A3C75C15D0F049365EC93067 DUP14 CALLDATALOAD LOG2 PUSH26 0x4BE31BC06155574364736F6C634300081C003300000000000000 "
        },
        "methodIdentifiers": {
          "render()": "d607497a"
        }
      }
    }
  }
}