{
  "contracts/GenerateNewShip.sol": {
    "GenerateNewShip": {
      "abi": [
        {
          "inputs": [
            {
              "internalType": "address",
              "name": "_shipNames",
              "type": "address"
            }
          ],
          "stateMutability": "nonpayable",
          "type": "constructor"
        },
        {
          "inputs": [
            {
              "internalType": "uint256",
              "name": "id",
              "type": "uint256"
            },
            {
              "internalType": "uint256",
              "name": "serialNumber",
              "type": "uint256"
            },
            {
              "internalType": "uint64",
              "name": "randomBase",
              "type": "uint64"
            },
            {
              "internalType": "uint16",
              "name": "numberOfVariants",
              "type": "uint16"
            }
          ],
          "name": "generateShip",
          "outputs": [
            {
              "components": [
                {
                  "internalType": "string",
                  "name": "name",
                  "type": "string"
                },
                {
                  "internalType": "uint256",
                  "name": "id",
                  "type": "uint256"
                },
                {
                  "components": [
                    {
                      "internalType": "enum MainWeapon",
                      "name": "mainWeapon",
                      "type": "uint8"
                    },
                    {
                      "internalType": "enum Armor",
                      "name": "armor",
                      "type": "uint8"
                    },
                    {
                      "internalType": "enum Shields",
                      "name": "shields",
                      "type": "uint8"
                    },
                    {
                      "internalType": "enum Special",
                      "name": "special",
                      "type": "uint8"
                    }
                  ],
                  "internalType": "struct Equipment",
                  "name": "equipment",
                  "type": "tuple"
                },
                {
                  "components": [
                    {
                      "internalType": "uint256",
                      "name": "serialNumber",
                      "type": "uint256"
                    },
                    {
                      "components": [
                        {
                          "internalType": "uint8",
                          "name": "h1",
                          "type": "uint8"
                        },
                        {
                          "internalType": "uint8",
                          "name": "s1",
                          "type": "uint8"
                        },
                        {
                          "internalType": "uint8",
                          "name": "l1",
                          "type": "uint8"
                        },
                        {
                          "internalType": "uint8",
                          "name": "h2",
                          "type": "uint8"
                        },
                        {
                          "internalType": "uint8",
                          "name": "s2",
                          "type": "uint8"
                        },
                        {
                          "internalType": "uint8",
                          "name": "l2",
                          "type": "uint8"
                        }
                      ],
                      "internalType": "struct Colors",
                      "name": "colors",
                      "type": "tuple"
                    },
                    {
                      "internalType": "uint8",
                      "name": "variant",
                      "type": "uint8"
                    },
                    {
                      "internalType": "uint8",
                      "name": "accuracy",
                      "type": "uint8"
                    },
                    {
                      "internalType": "uint8",
                      "name": "hull",
                      "type": "uint8"
                    },
                    {
                      "internalType": "uint8",
                      "name": "speed",
                      "type": "uint8"
                    }
                  ],
                  "internalType": "struct Traits",
                  "name": "traits",
                  "type": "tuple"
                },
                {
                  "components": [
                    {
                      "internalType": "uint32",
                      "name": "shipsDestroyed",
                      "type": "uint32"
                    },
                    {
                      "internalType": "uint16",
                      "name": "costsVersion",
                      "type": "uint16"
                    },
                    {
                      "internalType": "uint16",
                      "name": "cost",
                      "type": "uint16"
                    },
                    {
                      "internalType": "bool",
                      "name": "shiny",
                      "type": "bool"
                    },
                    {
                      "internalType": "bool",
                      "name": "constructed",
                      "type": "bool"
                    },
                    {
                      "internalType": "bool",
                      "name": "inFleet",
                      "type": "bool"
                    },
                    {
                      "internalType": "uint256",
                      "name": "timestampDestroyed",
                      "type": "uint256"
                    }
                  ],
                  "internalType": "struct ShipData",
                  "name": "shipData",
                  "type": "tuple"
                },
                {
                  "internalType": "address",
                  "name": "owner",
                  "type": "address"
                }
              ],
              "internalType": "struct Ship",
              "name": "",
              "type": "tuple"
            }
          ],
          "stateMutability": "view",
          "type": "function"
        },
        {
          "inputs": [
            {
              "internalType": "uint256",
              "name": "id",
              "type": "uint256"
            },
            {
              "internalType": "uint256",
              "name": "",
              "type": "uint256"
            },
            {
              "components": [
                {
                  "internalType": "string",
                  "name": "name",
                  "type": "string"
                },
                {
                  "internalType": "uint256",
                  "name": "id",
                  "type": "uint256"
                },
                {
                  "components": [
                    {
                      "internalType": "enum MainWeapon",
                      "name": "mainWeapon",
                      "type": "uint8"
                    },
                    {
                      "internalType": "enum Armor",
                      "name": "armor",
                      "type": "uint8"
                    },
                    {
                      "internalType": "enum Shields",
                      "name": "shields",
                      "type": "uint8"
                    },
                    {
                      "internalType": "enum Special",
                      "name": "special",
                      "type": "uint8"
                    }
                  ],
                  "internalType": "struct Equipment",
                  "name": "equipment",
                  "type": "tuple"
                },
                {
                  "components": [
                    {
                      "internalType": "uint256",
                      "name": "serialNumber",
                      "type": "uint256"
                    },
                    {
                      "components": [
                        {
                          "internalType": "uint8",
                          "name": "h1",
                          "type": "uint8"
                        },
                        {
                          "internalType": "uint8",
                          "name": "s1",
                          "type": "uint8"
                        },
                        {
                          "internalType": "uint8",
                          "name": "l1",
                          "type": "uint8"
                        },
                        {
                          "internalType": "uint8",
                          "name": "h2",
                          "type": "uint8"
                        },
                        {
                          "internalType": "uint8",
                          "name": "s2",
                          "type": "uint8"
                        },
                        {
                          "internalType": "uint8",
                          "name": "l2",
                          "type": "uint8"
                        }
                      ],
                      "internalType": "struct Colors",
                      "name": "colors",
                      "type": "tuple"
                    },
                    {
                      "internalType": "uint8",
                      "name": "variant",
                      "type": "uint8"
                    },
                    {
                      "internalType": "uint8",
                      "name": "accuracy",
                      "type": "uint8"
                    },
                    {
                      "internalType": "uint8",
                      "name": "hull",
                      "type": "uint8"
                    },
                    {
                      "internalType": "uint8",
                      "name": "speed",
                      "type": "uint8"
                    }
                  ],
                  "internalType": "struct Traits",
                  "name": "traits",
                  "type": "tuple"
                },
                {
                  "components": [
                    {
                      "internalType": "uint32",
                      "name": "shipsDestroyed",
                      "type": "uint32"
                    },
                    {
                      "internalType": "uint16",
                      "name": "costsVersion",
                      "type": "uint16"
                    },
                    {
                      "internalType": "uint16",
                      "name": "cost",
                      "type": "uint16"
                    },
                    {
                      "internalType": "bool",
                      "name": "shiny",
                      "type": "bool"
                    },
                    {
                      "internalType": "bool",
                      "name": "constructed",
                      "type": "bool"
                    },
                    {
                      "internalType": "bool",
                      "name": "inFleet",
                      "type": "bool"
                    },
                    {
                      "internalType": "uint256",
                      "name": "timestampDestroyed",
                      "type": "uint256"
                    }
                  ],
                  "internalType": "struct ShipData",
                  "name": "shipData",
                  "type": "tuple"
                },
                {
                  "internalType": "address",
                  "name": "owner",
                  "type": "address"
                }
              ],
              "internalType": "struct Ship",
              "name": "ship",
              "type": "tuple"
            }
          ],
          "name": "generateSpecificShip",
          "outputs": [
            {
              "components": [
                {
                  "internalType": "string",
                  "name": "name",
                  "type": "string"
                },
                {
                  "internalType": "uint256",
                  "name": "id",
                  "type": "uint256"
                },
                {
                  "components": [
                    {
                      "internalType": "enum MainWeapon",
                      "name": "mainWeapon",
                      "type": "uint8"
                    },
                    {
                      "internalType": "enum Armor",
                      "name": "armor",
                      "type": "uint8"
                    },
                    {
                      "internalType": "enum Shields",
                      "name": "shields",
                      "type": "uint8"
                    },
                    {
                      "internalType": "enum Special",
                      "name": "special",
                      "type": "uint8"
                    }
                  ],
                  "internalType": "struct Equipment",
                  "name": "equipment",
                  "type": "tuple"
                },
                {
                  "components": [
                    {
                      "internalType": "uint256",
                      "name": "serialNumber",
                      "type": "uint256"
                    },
                    {
                      "components": [
                        {
                          "internalType": "uint8",
                          "name": "h1",
                          "type": "uint8"
                        },
                        {
                          "internalType": "uint8",
                          "name": "s1",
                          "type": "uint8"
                        },
                        {
                          "internalType": "uint8",
                          "name": "l1",
                          "type": "uint8"
                        },
                        {
                          "internalType": "uint8",
                          "name": "h2",
                          "type": "uint8"
                        },
                        {
                          "internalType": "uint8",
                          "name": "s2",
                          "type": "uint8"
                        },
                        {
                          "internalType": "uint8",
                          "name": "l2",
                          "type": "uint8"
                        }
                      ],
                      "internalType": "struct Colors",
                      "name": "colors",
                      "type": "tuple"
                    },
                    {
                      "internalType": "uint8",
                      "name": "variant",
                      "type": "uint8"
                    },
                    {
                      "internalType": "uint8",
                      "name": "accuracy",
                      "type": "uint8"
                    },
                    {
                      "internalType": "uint8",
                      "name": "hull",
                      "type": "uint8"
                    },
                    {
                      "internalType": "uint8",
                      "name": "speed",
                      "type": "uint8"
                    }
                  ],
                  "internalType": "struct Traits",
                  "name": "traits",
                  "type": "tuple"
                },
                {
                  "components": [
                    {
                      "internalType": "uint32",
                      "name": "shipsDestroyed",
                      "type": "uint32"
                    },
                    {
                      "internalType": "uint16",
                      "name": "costsVersion",
                      "type": "uint16"
                    },
                    {
                      "internalType": "uint16",
                      "name": "cost",
                      "type": "uint16"
                    },
                    {
                      "internalType": "bool",
                      "name": "shiny",
                      "type": "bool"
                    },
                    {
                      "internalType": "bool",
                      "name": "constructed",
                      "type": "bool"
                    },
                    {
                      "internalType": "bool",
                      "name": "inFleet",
                      "type": "bool"
                    },
                    {
                      "internalType": "uint256",
                      "name": "timestampDestroyed",
                      "type": "uint256"
                    }
                  ],
                  "internalType": "struct ShipData",
                  "name": "shipData",
                  "type": "tuple"
                },
                {
                  "internalType": "address",
                  "name": "owner",
                  "type": "address"
                }
              ],
              "internalType": "struct Ship",
              "name": "",
              "type": "tuple"
            }
          ],
          "stateMutability": "pure",
          "type": "function"
        },
        {
          "inputs": [
            {
              "internalType": "uint256",
              "name": "_trait",
              "type": "uint256"
            }
          ],
          "name": "getTierOfTrait",
          "outputs": [
            {
              "internalType": "uint8",
              "name": "",
              "type": "uint8"
            }
          ],
          "stateMutability": "pure",
          "type": "function"
        },
        {
          "inputs": [],
          "name": "shipNames",
          "outputs": [
            {
              "internalType": "contract IOnchainRandomShipNames",
              "name": "",
              "type": "address"
            }
          ],
          "stateMutability": "view",
          "type": "function"
        }
      ],
      "evm": {
        "bytecode": {
          "linkReferences": {},
          "object": "60a0604052348015600f57600080fd5b5060405161128f38038061128f833981016040819052602c91603c565b6001600160a01b0316608052606a565b600060208284031215604d57600080fd5b81516001600160a01b0381168114606357600080fd5b9392505050565b60805161120461008b600039600081816080015261016a01526112046000f3fe608060405234801561001057600080fd5b506004361061004c5760003560e01c80636e0f7a4814610051578063a355a6da1461007b578063dd1a57a2146100ba578063e02f592a146100da575b600080fd5b61006461005f3660046109da565b6100ed565b60405160ff90911681526020015b60405180910390f35b6100a27f000000000000000000000000000000000000000000000000000000000000000081565b6040516001600160a01b039091168152602001610072565b6100cd6100c8366004610d1c565b61011e565b6040516100729190610fcd565b6100cd6100e836600461106c565b61013c565b6000603282101561010057506000919050565b605082101561011157506001919050565b506002919050565b919050565b6101266108e3565b5060208101929092525060608101516000905290565b6101446108e3565b61014c6108e3565b60208101869052606081015185905283610165816110d7565b9450507f00000000000000000000000000000000000000000000000000000000000000006001600160a01b031663549188c6856040516020016101a89190611104565b60408051808303601f1901815290829052805160209091012060e083901b6001600160e01b03191682526004820152602401600060405180830381865afa1580156101f7573d6000803e3d6000fd5b505050506040513d6000823e601f3d908101601f1916820160405261021f919081019061111c565b81528361022b816110d7565b945050610168846040516020016102429190611104565b6040516020818303038152906040528051906020012060001c6102659190611193565b60608201516020015160ff90911690528361027f816110d7565b9450506064846040516020016102959190611104565b6040516020818303038152906040528051906020012060001c6102b89190611193565b606082015160209081015160ff909216910152836102d5816110d7565b9450506064846040516020016102eb9190611104565b6040516020818303038152906040528051906020012060001c61030e9190611193565b60608201516020015160ff9091166040909101528361032c816110d7565b945050610168846040516020016103439190611104565b6040516020818303038152906040528051906020012060001c6103669190611193565b6060808301516020015160ff90921691015283610382816110d7565b9450506064846040516020016103989190611104565b6040516020818303038152906040528051906020012060001c6103bb9190611193565b60608201516020015160ff909116608090910152836103d9816110d7565b9450506064846040516020016103ef9190611104565b6040516020818303038152906040528051906020012060001c6104129190611193565b60608201516020015160ff90911660a09091015283610430816110d7565b94505061046c6064856040516020016104499190611104565b6040516020818303038152906040528051906020012060001c61005f9190611193565b60608083015160ff90921691015283610484816110d7565b94505061049d6064856040516020016104499190611104565b606082015160ff909116608090910152836104b7816110d7565b9450506104d06064856040516020016104499190611104565b606082015160ff90911660a090910152836104ea816110d7565b9450508261ffff16846040516020016105039190611104565b6040516020818303038152906040528051906020012060001c6105269190611193565b606082015160ff90911660409091015283610540816110d7565b9450506004846040516020016105569190611104565b6040516020818303038152906040528051906020012060001c6105799190611193565b600381111561058a5761058a610e59565b60408201519060038111156105a1576105a1610e59565b908160038111156105b4576105b4610e59565b905250836105c1816110d7565b94505060006002856040516020016105d99190611104565b6040516020818303038152906040528051906020012060001c6105fc9190611193565b15905084610609816110d7565b955050801561068e576004856040516020016106259190611104565b6040516020818303038152906040528051906020012060001c6106489190611193565b600381111561065957610659610e59565b826040015160200190600381111561067357610673610e59565b9081600381111561068657610686610e59565b905250610706565b6004856040516020016106a19190611104565b6040516020818303038152906040528051906020012060001c6106c49190611193565b60038111156106d5576106d5610e59565b82604001516040019060038111156106ef576106ef610e59565b9081600381111561070257610702610e59565b9052505b84610710816110d7565b9550506004856040516020016107269190611104565b6040516020818303038152906040528051906020012060001c6107499190611193565b600381111561075a5761075a610e59565b826040015160600190600381111561077457610774610e59565b9081600381111561078757610787610e59565b8152505060006064866040516020016107a09190611104565b6040516020818303038152906040528051906020012060001c6107c39190611193565b9050600881116107db57608083015160016060909101525b856107e5816110d7565b96505060006064876040516020016107fd9190611104565b6040516020818303038152906040528051906020012060001c6108209190611193565b9050604b81101561085457610836600582611193565b6108419060016111b5565b608085015161ffff9190911690526108d6565b605a81101561087357610868600582611193565b6108419060066111b5565b605f81101561089257610887602882611193565b61084190600b6111b5565b60638110156108b1576108a6603282611193565b6108419060336111b5565b6108bc603282611193565b6108c79060656111b5565b608085015161ffff9190911690525b5091979650505050505050565b6040518060c0016040528060608152602001600081526020016109276040805160808101909152806000815260200160008152602001600081526020016000905290565b81526020016109916040805160c080820183526000808352835191820184528082526020828101829052938201819052606082018190526080820181905260a082015290918201908152600060208201819052604082018190526060820181905260809091015290565b81526040805160e08101825260008082526020828101829052928201819052606082018190526080820181905260a0820181905260c08201529101908152600060209091015290565b6000602082840312156109ec57600080fd5b5035919050565b634e487b7160e01b600052604160045260246000fd5b60405160c0810167ffffffffffffffff81118282101715610a2c57610a2c6109f3565b60405290565b60405160e0810167ffffffffffffffff81118282101715610a2c57610a2c6109f3565b604051601f8201601f1916810167ffffffffffffffff81118282101715610a7e57610a7e6109f3565b604052919050565b600067ffffffffffffffff821115610aa057610aa06109f3565b50601f01601f191660200190565b60048110610abb57600080fd5b50565b600060808284031215610ad057600080fd5b6040516080810167ffffffffffffffff81118282101715610af357610af36109f3565b6040529050808235610b0481610aae565b81526020830135610b1481610aae565b60208201526040830135610b2781610aae565b60408201526060830135610b3a81610aae565b6060919091015292915050565b803560ff8116811461011957600080fd5b6000818303610160811215610b6c57600080fd5b610b74610a09565b83358152915060c0601f1982011215610b8c57600080fd5b50610b95610a09565b610ba160208401610b47565b8152610baf60408401610b47565b6020820152610bc060608401610b47565b6040820152610bd160808401610b47565b6060820152610be260a08401610b47565b6080820152610bf360c08401610b47565b60a08201526020820152610c0960e08301610b47565b6040820152610c1b6101008301610b47565b6060820152610c2d6101208301610b47565b6080820152610c3f6101408301610b47565b60a082015292915050565b803561ffff8116811461011957600080fd5b8035801515811461011957600080fd5b600060e08284031215610c7e57600080fd5b610c86610a32565b9050813563ffffffff81168114610c9c57600080fd5b8152610caa60208301610c4a565b6020820152610cbb60408301610c4a565b6040820152610ccc60608301610c5c565b6060820152610cdd60808301610c5c565b6080820152610cee60a08301610c5c565b60a082015260c09182013591810191909152919050565b80356001600160a01b038116811461011957600080fd5b600080600060608486031215610d3157600080fd5b8335925060208401359150604084013567ffffffffffffffff811115610d5657600080fd5b84016103208187031215610d6957600080fd5b610d71610a09565b813567ffffffffffffffff811115610d8857600080fd5b8201601f81018813610d9957600080fd5b8035610dac610da782610a86565b610a55565b818152896020838501011115610dc157600080fd5b81602084016020830137600060209282018301528352838101359083015250610ded8760408401610abe565b6040820152610dff8760c08401610b58565b6060820152610e12876102208401610c6c565b6080820152610e246103008301610d05565b60a082015280925050509250925092565b60005b83811015610e50578181015183820152602001610e38565b50506000910152565b634e487b7160e01b600052602160045260246000fd5b60048110610abb57634e487b7160e01b600052602160045260246000fd5b8051610e9881610e6f565b82526020810151610ea881610e6f565b60208301526040810151610ebb81610e6f565b60408301526060810151610ece81610e6f565b806060840152505050565b80518252602081015160ff815116602084015260ff602082015116604084015260ff604082015116606084015260ff606082015116608084015260ff60808201511660a084015260ff60a08201511660c0840152506040810151610f4260e084018260ff169052565b50606081015160ff9081166101008401526080820151811661012084015260a0909101511661014090910152565b63ffffffff815116825261ffff602082015116602083015261ffff604082015116604083015260608101511515606083015260808101511515608083015260a0810151610fc160a084018215159052565b5060c090810151910152565b60208152600082516103206020840152805180610340850152610ff881610360860160208501610e35565b60208501516040850152604085015191506110166060850183610e8d565b6060850151915061102a60e0850183610ed9565b6080850151915061103f610240850183610f70565b60a08501516001600160a01b0381166103208601529150601f01601f191692909201610360019392505050565b6000806000806080858703121561108257600080fd5b8435935060208501359250604085013567ffffffffffffffff811681146110a857600080fd5b91506110b660608601610c4a565b905092959194509250565b634e487b7160e01b600052601160045260246000fd5b600067ffffffffffffffff821667ffffffffffffffff81036110fb576110fb6110c1565b60010192915050565b60c09190911b6001600160c01b031916815260080190565b60006020828403121561112e57600080fd5b815167ffffffffffffffff81111561114557600080fd5b8201601f8101841361115657600080fd5b8051611164610da782610a86565b81815285602083850101111561117957600080fd5b61118a826020830160208601610e35565b95945050505050565b6000826111b057634e487b7160e01b600052601260045260246000fd5b500690565b808201808211156111c8576111c86110c1565b9291505056fea2646970667358221220b40ecd06069424ce4ec46e3acd2cf419e31f91ef4d2c37f57a12d30fc324b52364736f6c634300081c0033",
          "opcodes": "PUSH1 0xA0 PUSH1 0x40 MSTORE CALLVALUE DUP1 ISZERO PUSH1 0xF JUMPI PUSH1 0x0 DUP1 REVERT JUMPDEST POP PUSH1 0x40 MLOAD PUSH2 0x128F CODESIZE SUB DUP1 PUSH2 0x128F DUP4 CODECOPY DUP2 ADD PUSH1 0x40 DUP2 SWAP1 MSTORE PUSH1 0x2C SWAP2 PUSH1 0x3C JUMP JUMPDEST PUSH1 0x1 PUSH1 0x1 PUSH1 0xA0 SHL SUB AND PUSH1 0x80 MSTORE PUSH1 0x6A JUMP JUMPDEST PUSH1 0x0 PUSH1 0x20 DUP3 DUP5 SUB SLT ISZERO PUSH1 0x4D JUMPI PUSH1 0x0 DUP1 REVERT JUMPDEST DUP2 MLOAD PUSH1 0x1 PUSH1 0x1 PUSH1 0xA0 SHL SUB DUP2 AND DUP2 EQ PUSH1 0x63 JUMPI PUSH1 0x0 DUP1 REVERT JUMPDEST SWAP4 SWAP3 POP POP POP JUMP JUMPDEST PUSH1 0x80 MLOAD PUSH2 0x1204 PUSH2 0x8B PUSH1 0x0 CODECOPY PUSH1 0x0 DUP2 DUP2 PUSH1 0x80 ADD MSTORE PUSH2 0x16A ADD MSTORE PUSH2 0x1204 PUSH1 0x0 RETURN INVALID PUSH1 0x80 PUSH1 0x40 MSTORE CALLVALUE DUP1 ISZERO PUSH2 0x10 JUMPI PUSH1 0x0 DUP1 REVERT JUMPDEST POP PUSH1 0x4 CALLDATASIZE LT PUSH2 0x4C JUMPI PUSH1 0x0 CALLDATALOAD PUSH1 0xE0 SHR DUP1 PUSH4 0x6E0F7A48 EQ PUSH2 0x51 JUMPI DUP1 PUSH4 0xA355A6DA EQ PUSH2 0x7B JUMPI DUP1 PUSH4 0xDD1A57A2 EQ PUSH2 0xBA JUMPI DUP1 PUSH4 0xE02F592A EQ PUSH2 0xDA JUMPI JUMPDEST PUSH1 0x0 DUP1 REVERT JUMPDEST PUSH2 0x64 PUSH2 0x5F CALLDATASIZE PUSH1 0x4 PUSH2 0x9DA JUMP JUMPDEST PUSH2 0xED JUMP JUMPDEST PUSH1 0x40 MLOAD PUSH1 0xFF SWAP1 SWAP2 AND DUP2 MSTORE PUSH1 0x20 ADD JUMPDEST PUSH1 0x40 MLOAD DUP1 SWAP2 SUB SWAP1 RETURN JUMPDEST PUSH2 0xA2 PUSH32 0x0 DUP2 JUMP JUMPDEST PUSH1 0x40 MLOAD PUSH1 0x1 PUSH1 0x1 PUSH1 0xA0 SHL SUB SWAP1 SWAP2 AND DUP2 MSTORE PUSH1 0x20 ADD PUSH2 0x72 JUMP JUMPDEST PUSH2 0xCD PUSH2 0xC8 CALLDATASIZE PUSH1 0x4 PUSH2 0xD1C JUMP JUMPDEST PUSH2 0x11E JUMP JUMPDEST PUSH1 0x40 MLOAD PUSH2 0x72 SWAP2 SWAP1 PUSH2 0xFCD JUMP JUMPDEST PUSH2 0xCD PUSH2 0xE8 CALLDATASIZE PUSH1 0x4 PUSH2 0x106C JUMP JUMPDEST PUSH2 0x13C JUMP JUMPDEST PUSH1 0x0 PUSH1 0x32 DUP3 LT ISZERO PUSH2 0x100 JUMPI POP PUSH1 0x0 SWAP2 SWAP1 POP JUMP JUMPDEST PUSH1 0x50 DUP3 LT ISZERO PUSH2 0x111 JUMPI POP PUSH1 0x1 SWAP2 SWAP1 POP JUMP JUMPDEST POP PUSH1 0x2 SWAP2 SWAP1 POP JUMP JUMPDEST SWAP2 SWAP1 POP JUMP JUMPDEST PUSH2 0x126 PUSH2 0x8E3 JUMP JUMPDEST POP PUSH1 0x20 DUP2 ADD SWAP3 SWAP1 SWAP3 MSTORE POP PUSH1 0x60 DUP2 ADD MLOAD PUSH1 0x0 SWAP1 MSTORE SWAP1 JUMP JUMPDEST PUSH2 0x144 PUSH2 0x8E3 JUMP JUMPDEST PUSH2 0x14C PUSH2 0x8E3 JUMP JUMPDEST PUSH1 0x20 DUP2 ADD DUP7 SWAP1 MSTORE PUSH1 0x60 DUP2 ADD MLOAD DUP6 SWAP1 MSTORE DUP4 PUSH2 0x165 DUP2 PUSH2 0x10D7 JUMP JUMPDEST SWAP5 POP POP PUSH32 0x0 PUSH1 0x1 PUSH1 0x1 PUSH1 0xA0 SHL SUB AND PUSH4 0x549188C6 DUP6 PUSH1 0x40 MLOAD PUSH1 0x20 ADD PUSH2 0x1A8 SWAP2 SWAP1 PUSH2 0x1104 JUMP JUMPDEST PUSH1 0x40 DUP1 MLOAD DUP1 DUP4 SUB PUSH1 0x1F NOT ADD DUP2 MSTORE SWAP1 DUP3 SWAP1 MSTORE DUP1 MLOAD PUSH1 0x20 SWAP1 SWAP2 ADD KECCAK256 PUSH1 0xE0 DUP4 SWAP1 SHL PUSH1 0x1 PUSH1 0x1 PUSH1 0xE0 SHL SUB NOT AND DUP3 MSTORE PUSH1 0x4 DUP3 ADD MSTORE PUSH1 0x24 ADD PUSH1 0x0 PUSH1 0x40 MLOAD DUP1 DUP4 SUB DUP2 DUP7 GAS STATICCALL ISZERO DUP1 ISZERO PUSH2 0x1F7 JUMPI RETURNDATASIZE PUSH1 0x0 DUP1 RETURNDATACOPY RETURNDATASIZE PUSH1 0x0 REVERT JUMPDEST POP POP POP POP PUSH1 0x40 MLOAD RETURNDATASIZE PUSH1 0x0 DUP3 RETURNDATACOPY PUSH1 0x1F RETURNDATASIZE SWAP1 DUP2 ADD PUSH1 0x1F NOT AND DUP3 ADD PUSH1 0x40 MSTORE PUSH2 0x21F SWAP2 SWAP1 DUP2 ADD SWAP1 PUSH2 0x111C JUMP JUMPDEST DUP2 MSTORE DUP4 PUSH2 0x22B DUP2 PUSH2 0x10D7 JUMP JUMPDEST SWAP5 POP POP PUSH2 0x168 DUP5 PUSH1 0x40 MLOAD PUSH1 0x20 ADD PUSH2 0x242 SWAP2 SWAP1 PUSH2 0x1104 JUMP JUMPDEST PUSH1 0x40 MLOAD PUSH1 0x20 DUP2 DUP4 SUB SUB DUP2 MSTORE SWAP1 PUSH1 0x40 MSTORE DUP1 MLOAD SWAP1 PUSH1 0x20 ADD KECCAK256 PUSH1 0x0 SHR PUSH2 0x265 SWAP2 SWAP1 PUSH2 0x1193 JUMP JUMPDEST PUSH1 0x60 DUP3 ADD MLOAD PUSH1 0x20 ADD MLOAD PUSH1 0xFF SWAP1 SWAP2 AND SWAP1 MSTORE DUP4 PUSH2 0x27F DUP2 PUSH2 0x10D7 JUMP JUMPDEST SWAP5 POP POP PUSH1 0x64 DUP5 PUSH1 0x40 MLOAD PUSH1 0x20 ADD PUSH2 0x295 SWAP2 SWAP1 PUSH2 0x1104 JUMP JUMPDEST PUSH1 0x40 MLOAD PUSH1 0x20 DUP2 DUP4 SUB SUB DUP2 MSTORE SWAP1 PUSH1 0x40 MSTORE DUP1 MLOAD SWAP1 PUSH1 0x20 ADD KECCAK256 PUSH1 0x0 SHR PUSH2 0x2B8 SWAP2 SWAP1 PUSH2 0x1193 JUMP JUMPDEST PUSH1 0x60 DUP3 ADD MLOAD PUSH1 0x20 SWAP1 DUP2 ADD MLOAD PUSH1 0xFF SWAP1 SWAP3 AND SWAP2 ADD MSTORE DUP4 PUSH2 0x2D5 DUP2 PUSH2 0x10D7 JUMP JUMPDEST SWAP5 POP POP PUSH1 0x64 DUP5 PUSH1 0x40 MLOAD PUSH1 0x20 ADD PUSH2 0x2EB SWAP2 SWAP1 PUSH2 0x1104 JUMP JUMPDEST PUSH1 0x40 MLOAD PUSH1 0x20 DUP2 DUP4 SUB SUB DUP2 MSTORE SWAP1 PUSH1 0x40 MSTORE DUP1 MLOAD SWAP1 PUSH1 0x20 ADD KECCAK256 PUSH1 0x0 SHR PUSH2 0x30E SWAP2 SWAP1 PUSH2 0x1193 JUMP JUMPDEST PUSH1 0x60 DUP3 ADD MLOAD PUSH1 0x20 ADD MLOAD PUSH1 0xFF SWAP1 SWAP2 AND PUSH1 0x40 SWAP1 SWAP2 ADD MSTORE DUP4 PUSH2 0x32C DUP2 PUSH2 0x10D7 JUMP JUMPDEST SWAP5 POP POP PUSH2 0x168 DUP5 PUSH1 0x40 MLOAD PUSH1 0x20 ADD PUSH2 0x343 SWAP2 SWAP1 PUSH2 0x1104 JUMP JUMPDEST PUSH1 0x40 MLOAD PUSH1 0x20 DUP2 DUP4 SUB SUB DUP2 MSTORE SWAP1 PUSH1 0x40 MSTORE DUP1 MLOAD SWAP1 PUSH1 0x20 ADD KECCAK256 PUSH1 0x0 SHR PUSH2 0x366 SWAP2 SWAP1 PUSH2 0x1193 JUMP JUMPDEST PUSH1 0x60 DUP1 DUP4 ADD MLOAD PUSH1 0x20 ADD MLOAD PUSH1 0xFF SWAP1 SWAP3 AND SWAP2 ADD MSTORE DUP4 PUSH2 0x382 DUP2 PUSH2 0x10D7 JUMP JUMPDEST SWAP5 POP POP PUSH1 0x64 DUP5 PUSH1 0x40 MLOAD PUSH1 0x20 ADD PUSH2 0x398 SWAP2 SWAP1 PUSH2 0x1104 JUMP JUMPDEST PUSH1 0x40 MLOAD PUSH1 0x20 DUP2 DUP4 SUB SUB DUP2 MSTORE SWAP1 PUSH1 0x40 MSTORE DUP1 MLOAD SWAP1 PUSH1 0x20 ADD KECCAK256 PUSH1 0x0 SHR PUSH2 0x3BB SWAP2 SWAP1 PUSH2 0x1193 JUMP JUMPDEST PUSH1 0x60 DUP3 ADD MLOAD PUSH1 0x20 ADD MLOAD PUSH1 0xFF SWAP1 SWAP2 AND PUSH1 0x80 SWAP1 SWAP2 ADD MSTORE DUP4 PUSH2 0x3D9 DUP2 PUSH2 0x10D7 JUMP JUMPDEST SWAP5 POP POP PUSH1 0x64 DUP5 PUSH1 0x40 MLOAD PUSH1 0x20 ADD PUSH2 0x3EF SWAP2 SWAP1 PUSH2 0x1104 JUMP JUMPDEST PUSH1 0x40 MLOAD PUSH1 0x20 DUP2 DUP4 SUB SUB DUP2 MSTORE SWAP1 PUSH1 0x40 MSTORE DUP1 MLOAD SWAP1 PUSH1 0x20 ADD KECCAK256 PUSH1 0x0 SHR PUSH2 0x412 SWAP2 SWAP1 PUSH2 0x1193 JUMP JUMPDEST PUSH1 0x60 DUP3 ADD MLOAD PUSH1 0x20 ADD MLOAD PUSH1 0xFF SWAP1 SWAP2 AND PUSH1 0xA0 SWAP1 SWAP2 ADD MSTORE DUP4 PUSH2 0x430 DUP2 PUSH2 0x10D7 JUMP JUMPDEST SWAP5 POP POP PUSH2 0x46C PUSH1 0x64 DUP6 PUSH1 0x40 MLOAD PUSH1 0x20 ADD PUSH2 0x449 SWAP2 SWAP1 PUSH2 0x1104 JUMP JUMPDEST PUSH1 0x40 MLOAD PUSH1 0x20 DUP2 DUP4 SUB SUB DUP2 MSTORE SWAP1 PUSH1 0x40 MSTORE DUP1 MLOAD SWAP1 PUSH1 0x20 ADD KECCAK256 PUSH1 0x0 SHR PUSH2 0x5F SWAP2 SWAP1 PUSH2 0x1193 JUMP JUMPDEST PUSH1 0x60 DUP1 DUP4 ADD MLOAD PUSH1 0xFF SWAP1 SWAP3 AND SWAP2 ADD MSTORE DUP4 PUSH2 0x484 DUP2 PUSH2 0x10D7 JUMP JUMPDEST SWAP5 POP POP PUSH2 0x49D PUSH1 0x64 DUP6 PUSH1 0x40 MLOAD PUSH1 0x20 ADD PUSH2 0x449 SWAP2 SWAP1 PUSH2 0x1104 JUMP JUMPDEST PUSH1 0x60 DUP3 ADD MLOAD PUSH1 0xFF SWAP1 SWAP2 AND PUSH1 0x80 SWAP1 SWAP2 ADD MSTORE DUP4 PUSH2 0x4B7 DUP2 PUSH2 0x10D7 JUMP JUMPDEST SWAP5 POP POP PUSH2 0x4D0 PUSH1 0x64 DUP6 PUSH1 0x40 MLOAD PUSH1 0x20 ADD PUSH2 0x449 SWAP2 SWAP1 PUSH2 0x1104 JUMP JUMPDEST PUSH1 0x60 DUP3 ADD MLOAD PUSH1 0xFF SWAP1 SWAP2 AND PUSH1 0xA0 SWAP1 SWAP2 ADD MSTORE DUP4 PUSH2 0x4EA DUP2 PUSH2 0x10D7 JUMP JUMPDEST SWAP5 POP POP DUP3 PUSH2 0xFFFF AND DUP5 PUSH1 0x40 MLOAD PUSH1 0x20 ADD PUSH2 0x503 SWAP2 SWAP1 PUSH2 0x1104 JUMP JUMPDEST PUSH1 0x40 MLOAD PUSH1 0x20 DUP2 DUP4 SUB SUB DUP2 MSTORE SWAP1 PUSH1 0x40 MSTORE DUP1 MLOAD SWAP1 PUSH1 0x20 ADD KECCAK256 PUSH1 0x0 SHR PUSH2 0x526 SWAP2 SWAP1 PUSH2 0x1193 JUMP JUMPDEST PUSH1 0x60 DUP3 ADD MLOAD PUSH1 0xFF SWAP1 SWAP2 AND PUSH1 0x40 SWAP1 SWAP2 ADD MSTORE DUP4 PUSH2 0x540 DUP2 PUSH2 0x10D7 JUMP JUMPDEST SWAP5 POP POP PUSH1 0x4 DUP5 PUSH1 0x40 MLOAD PUSH1 0x20 ADD PUSH2 0x556 SWAP2 SWAP1 PUSH2 0x1104 JUMP JUMPDEST PUSH1 0x40 MLOAD PUSH1 0x20 DUP2 DUP4 SUB SUB DUP2 MSTORE SWAP1 PUSH1 0x40 MSTORE DUP1 MLOAD SWAP1 PUSH1 0x20 ADD KECCAK256 PUSH1 0x0 SHR PUSH2 0x579 SWAP2 SWAP1 PUSH2 0x1193 JUMP JUMPDEST PUSH1 0x3 DUP2 GT ISZERO PUSH2 0x58A JUMPI PUSH2 0x58A PUSH2 0xE59 JUMP JUMPDEST PUSH1 0x40 DUP3 ADD MLOAD SWAP1 PUSH1 0x3 DUP2 GT ISZERO PUSH2 0x5A1 JUMPI PUSH2 0x5A1 PUSH2 0xE59 JUMP JUMPDEST SWAP1 DUP2 PUSH1 0x3 DUP2 GT ISZERO PUSH2 0x5B4 JUMPI PUSH2 0x5B4 PUSH2 0xE59 JUMP JUMPDEST SWAP1 MSTORE POP DUP4 PUSH2 0x5C1 DUP2 PUSH2 0x10D7 JUMP JUMPDEST SWAP5 POP POP PUSH1 0x0 PUSH1 0x2 DUP6 PUSH1 0x40 MLOAD PUSH1 0x20 ADD PUSH2 0x5D9 SWAP2 SWAP1 PUSH2 0x1104 JUMP JUMPDEST PUSH1 0x40 MLOAD PUSH1 0x20 DUP2 DUP4 SUB SUB DUP2 MSTORE SWAP1 PUSH1 0x40 MSTORE DUP1 MLOAD SWAP1 PUSH1 0x20 ADD KECCAK256 PUSH1 0x0 SHR PUSH2 0x5FC SWAP2 SWAP1 PUSH2 0x1193 JUMP JUMPDEST ISZERO SWAP1 POP DUP5 PUSH2 0x609 DUP2 PUSH2 0x10D7 JUMP JUMPDEST SWAP6 POP POP DUP1 ISZERO PUSH2 0x68E JUMPI PUSH1 0x4 DUP6 PUSH1 0x40 MLOAD PUSH1 0x20 ADD PUSH2 0x625 SWAP2 SWAP1 PUSH2 0x1104 JUMP JUMPDEST PUSH1 0x40 MLOAD PUSH1 0x20 DUP2 DUP4 SUB SUB DUP2 MSTORE SWAP1 PUSH1 0x40 MSTORE DUP1 MLOAD SWAP1 PUSH1 0x20 ADD KECCAK256 PUSH1 0x0 SHR PUSH2 0x648 SWAP2 SWAP1 PUSH2 0x1193 JUMP JUMPDEST PUSH1 0x3 DUP2 GT ISZERO PUSH2 0x659 JUMPI PUSH2 0x659 PUSH2 0xE59 JUMP JUMPDEST DUP3 PUSH1 0x40 ADD MLOAD PUSH1 0x20 ADD SWAP1 PUSH1 0x3 DUP2 GT ISZERO PUSH2 0x673 JUMPI PUSH2 0x673 PUSH2 0xE59 JUMP JUMPDEST SWAP1 DUP2 PUSH1 0x3 DUP2 GT ISZERO PUSH2 0x686 JUMPI PUSH2 0x686 PUSH2 0xE59 JUMP JUMPDEST SWAP1 MSTORE POP PUSH2 0x706 JUMP JUMPDEST PUSH1 0x4 DUP6 PUSH1 0x40 MLOAD PUSH1 0x20 ADD PUSH2 0x6A1 SWAP2 SWAP1 PUSH2 0x1104 JUMP JUMPDEST PUSH1 0x40 MLOAD PUSH1 0x20 DUP2 DUP4 SUB SUB DUP2 MSTORE SWAP1 PUSH1 0x40 MSTORE DUP1 MLOAD SWAP1 PUSH1 0x20 ADD KECCAK256 PUSH1 0x0 SHR PUSH2 0x6C4 SWAP2 SWAP1 PUSH2 0x1193 JUMP JUMPDEST PUSH1 0x3 DUP2 GT ISZERO PUSH2 0x6D5 JUMPI PUSH2 0x6D5 PUSH2 0xE59 JUMP JUMPDEST DUP3 PUSH1 0x40 ADD MLOAD PUSH1 0x40 ADD SWAP1 PUSH1 0x3 DUP2 GT ISZERO PUSH2 0x6EF JUMPI PUSH2 0x6EF PUSH2 0xE59 JUMP JUMPDEST SWAP1 DUP2 PUSH1 0x3 DUP2 GT ISZERO PUSH2 0x702 JUMPI PUSH2 0x702 PUSH2 0xE59 JUMP JUMPDEST SWAP1 MSTORE POP JUMPDEST DUP5 PUSH2 0x710 DUP2 PUSH2 0x10D7 JUMP JUMPDEST SWAP6 POP POP PUSH1 0x4 DUP6 PUSH1 0x40 MLOAD PUSH1 0x20 ADD PUSH2 0x726 SWAP2 SWAP1 PUSH2 0x1104 JUMP JUMPDEST PUSH1 0x40 MLOAD PUSH1 0x20 DUP2 DUP4 SUB SUB DUP2 MSTORE SWAP1 PUSH1 0x40 MSTORE DUP1 MLOAD SWAP1 PUSH1 0x20 ADD KECCAK256 PUSH1 0x0 SHR PUSH2 0x749 SWAP2 SWAP1 PUSH2 0x1193 JUMP JUMPDEST PUSH1 0x3 DUP2 GT ISZERO PUSH2 0x75A JUMPI PUSH2 0x75A PUSH2 0xE59 JUMP JUMPDEST DUP3 PUSH1 0x40 ADD MLOAD PUSH1 0x60 ADD SWAP1 PUSH1 0x3 DUP2 GT ISZERO PUSH2 0x774 JUMPI PUSH2 0x774 PUSH2 0xE59 JUMP JUMPDEST SWAP1 DUP2 PUSH1 0x3 DUP2 GT ISZERO PUSH2 0x787 JUMPI PUSH2 0x787 PUSH2 0xE59 JUMP JUMPDEST DUP2 MSTORE POP POP PUSH1 0x0 PUSH1 0x64 DUP7 PUSH1 0x40 MLOAD PUSH1 0x20 ADD PUSH2 0x7A0 SWAP2 SWAP1 PUSH2 0x1104 JUMP JUMPDEST PUSH1 0x40 MLOAD PUSH1 0x20 DUP2 DUP4 SUB SUB DUP2 MSTORE SWAP1 PUSH1 0x40 MSTORE DUP1 MLOAD SWAP1 PUSH1 0x20 ADD KECCAK256 PUSH1 0x0 SHR PUSH2 0x7C3 SWAP2 SWAP1 PUSH2 0x1193 JUMP JUMPDEST SWAP1 POP PUSH1 0x8 DUP2 GT PUSH2 0x7DB JUMPI PUSH1 0x80 DUP4 ADD MLOAD PUSH1 0x1 PUSH1 0x60 SWAP1 SWAP2 ADD MSTORE JUMPDEST DUP6 PUSH2 0x7E5 DUP2 PUSH2 0x10D7 JUMP JUMPDEST SWAP7 POP POP PUSH1 0x0 PUSH1 0x64 DUP8 PUSH1 0x40 MLOAD PUSH1 0x20 ADD PUSH2 0x7FD SWAP2 SWAP1 PUSH2 0x1104 JUMP JUMPDEST PUSH1 0x40 MLOAD PUSH1 0x20 DUP2 DUP4 SUB SUB DUP2 MSTORE SWAP1 PUSH1 0x40 MSTORE DUP1 MLOAD SWAP1 PUSH1 0x20 ADD KECCAK256 PUSH1 0x0 SHR PUSH2 0x820 SWAP2 SWAP1 PUSH2 0x1193 JUMP JUMPDEST SWAP1 POP PUSH1 0x4B DUP2 LT ISZERO PUSH2 0x854 JUMPI PUSH2 0x836 PUSH1 0x5 DUP3 PUSH2 0x1193 JUMP JUMPDEST PUSH2 0x841 SWAP1 PUSH1 0x1 PUSH2 0x11B5 JUMP JUMPDEST PUSH1 0x80 DUP6 ADD MLOAD PUSH2 0xFFFF SWAP2 SWAP1 SWAP2 AND SWAP1 MSTORE PUSH2 0x8D6 JUMP JUMPDEST PUSH1 0x5A DUP2 LT ISZERO PUSH2 0x873 JUMPI PUSH2 0x868 PUSH1 0x5 DUP3 PUSH2 0x1193 JUMP JUMPDEST PUSH2 0x841 SWAP1 PUSH1 0x6 PUSH2 0x11B5 JUMP JUMPDEST PUSH1 0x5F DUP2 LT ISZERO PUSH2 0x892 JUMPI PUSH2 0x887 PUSH1 0x28 DUP3 PUSH2 0x1193 JUMP JUMPDEST PUSH2 0x841 SWAP1 PUSH1 0xB PUSH2 0x11B5 JUMP JUMPDEST PUSH1 0x63 DUP2 LT ISZERO PUSH2 0x8B1 JUMPI PUSH2 0x8A6 PUSH1 0x32 DUP3 PUSH2 0x1193 JUMP JUMPDEST PUSH2 0x841 SWAP1 PUSH1 0x33 PUSH2 0x11B5 JUMP JUMPDEST PUSH2 0x8BC PUSH1 0x32 DUP3 PUSH2 0x1193 JUMP JUMPDEST PUSH2 0x8C7 SWAP1 PUSH1 0x65 PUSH2 0x11B5 JUMP JUMPDEST PUSH1 0x80 DUP6 ADD MLOAD PUSH2 0xFFFF SWAP2 SWAP1 SWAP2 AND SWAP1 MSTORE JUMPDEST POP SWAP2 SWAP8 SWAP7 POP POP POP POP POP POP POP JUMP JUMPDEST PUSH1 0x40 MLOAD DUP1 PUSH1 0xC0 ADD PUSH1 0x40 MSTORE DUP1 PUSH1 0x60 DUP2 MSTORE PUSH1 0x20 ADD PUSH1 0x0 DUP2 MSTORE PUSH1 0x20 ADD PUSH2 0x927 PUSH1 0x40 DUP1 MLOAD PUSH1 0x80 DUP2 ADD SWAP1 SWAP2 MSTORE DUP1 PUSH1 0x0 DUP2 MSTORE PUSH1 0x20 ADD PUSH1 0x0 DUP2 MSTORE PUSH1 0x20 ADD PUSH1 0x0 DUP2 MSTORE PUSH1 0x20 ADD PUSH1 0x0 SWAP1 MSTORE SWAP1 JUMP JUMPDEST DUP2 MSTORE PUSH1 0x20 ADD PUSH2 0x991 PUSH1 0x40 DUP1 MLOAD PUSH1 0xC0 DUP1 DUP3 ADD DUP4 MSTORE PUSH1 0x0 DUP1 DUP4 MSTORE DUP4 MLOAD SWAP2 DUP3 ADD DUP5 MSTORE DUP1 DUP3 MSTORE PUSH1 0x20 DUP3 DUP2 ADD DUP3 SWAP1 MSTORE SWAP4 DUP3 ADD DUP2 SWAP1 MSTORE PUSH1 0x60 DUP3 ADD DUP2 SWAP1 MSTORE PUSH1 0x80 DUP3 ADD DUP2 SWAP1 MSTORE PUSH1 0xA0 DUP3 ADD MSTORE SWAP1 SWAP2 DUP3 ADD SWAP1 DUP2 MSTORE PUSH1 0x0 PUSH1 0x20 DUP3 ADD DUP2 SWAP1 MSTORE PUSH1 0x40 DUP3 ADD DUP2 SWAP1 MSTORE PUSH1 0x60 DUP3 ADD DUP2 SWAP1 MSTORE PUSH1 0x80 SWAP1 SWAP2 ADD MSTORE SWAP1 JUMP JUMPDEST DUP2 MSTORE PUSH1 0x40 DUP1 MLOAD PUSH1 0xE0 DUP2 ADD DUP3 MSTORE PUSH1 0x0 DUP1 DUP3 MSTORE PUSH1 0x20 DUP3 DUP2 ADD DUP3 SWAP1 MSTORE SWAP3 DUP3 ADD DUP2 SWAP1 MSTORE PUSH1 0x60 DUP3 ADD DUP2 SWAP1 MSTORE PUSH1 0x80 DUP3 ADD DUP2 SWAP1 MSTORE PUSH1 0xA0 DUP3 ADD DUP2 SWAP1 MSTORE PUSH1 0xC0 DUP3 ADD MSTORE SWAP2 ADD SWAP1 DUP2 MSTORE PUSH1 0x0 PUSH1 0x20 SWAP1 SWAP2 ADD MSTORE SWAP1 JUMP JUMPDEST PUSH1 0x0 PUSH1 0x20 DUP3 DUP5 SUB SLT ISZERO PUSH2 0x9EC JUMPI PUSH1 0x0 DUP1 REVERT JUMPDEST POP CALLDATALOAD SWAP2 SWAP1 POP JUMP JUMPDEST PUSH4 0x4E487B71 PUSH1 0xE0 SHL PUSH1 0x0 MSTORE PUSH1 0x41 PUSH1 0x4 MSTORE PUSH1 0x24 PUSH1 0x0 REVERT JUMPDEST PUSH1 0x40 MLOAD PUSH1 0xC0 DUP2 ADD PUSH8 0xFFFFFFFFFFFFFFFF DUP2 GT DUP3 DUP3 LT OR ISZERO PUSH2 0xA2C JUMPI PUSH2 0xA2C PUSH2 0x9F3 JUMP JUMPDEST PUSH1 0x40 MSTORE SWAP1 JUMP JUMPDEST PUSH1 0x40 MLOAD PUSH1 0xE0 DUP2 ADD PUSH8 0xFFFFFFFFFFFFFFFF DUP2 GT DUP3 DUP3 LT OR ISZERO PUSH2 0xA2C JUMPI PUSH2 0xA2C PUSH2 0x9F3 JUMP JUMPDEST PUSH1 0x40 MLOAD PUSH1 0x1F DUP3 ADD PUSH1 0x1F NOT AND DUP2 ADD PUSH8 0xFFFFFFFFFFFFFFFF DUP2 GT DUP3 DUP3 LT OR ISZERO PUSH2 0xA7E JUMPI PUSH2 0xA7E PUSH2 0x9F3 JUMP JUMPDEST PUSH1 0x40 MSTORE SWAP2 SWAP1 POP JUMP JUMPDEST PUSH1 0x0 PUSH8 0xFFFFFFFFFFFFFFFF DUP3 GT ISZERO PUSH2 0xAA0 JUMPI PUSH2 0xAA0 PUSH2 0x9F3 JUMP JUMPDEST POP PUSH1 0x1F ADD PUSH1 0x1F NOT AND PUSH1 0x20 ADD SWAP1 JUMP JUMPDEST PUSH1 0x4 DUP2 LT PUSH2 0xABB JUMPI PUSH1 0x0 DUP1 REVERT JUMPDEST POP JUMP JUMPDEST PUSH1 0x0 PUSH1 0x80 DUP3 DUP5 SUB SLT ISZERO PUSH2 0xAD0 JUMPI PUSH1 0x0 DUP1 REVERT JUMPDEST PUSH1 0x40 MLOAD PUSH1 0x80 DUP2 ADD PUSH8 0xFFFFFFFFFFFFFFFF DUP2 GT DUP3 DUP3 LT OR ISZERO PUSH2 0xAF3 JUMPI PUSH2 0xAF3 PUSH2 0x9F3 JUMP JUMPDEST PUSH1 0x40 MSTORE SWAP1 POP DUP1 DUP3 CALLDATALOAD PUSH2 0xB04 DUP2 PUSH2 0xAAE JUMP JUMPDEST DUP2 MSTORE PUSH1 0x20 DUP4 ADD CALLDATALOAD PUSH2 0xB14 DUP2 PUSH2 0xAAE JUMP JUMPDEST PUSH1 0x20 DUP3 ADD MSTORE PUSH1 0x40 DUP4 ADD CALLDATALOAD PUSH2 0xB27 DUP2 PUSH2 0xAAE JUMP JUMPDEST PUSH1 0x40 DUP3 ADD MSTORE PUSH1 0x60 DUP4 ADD CALLDATALOAD PUSH2 0xB3A DUP2 PUSH2 0xAAE JUMP JUMPDEST PUSH1 0x60 SWAP2 SWAP1 SWAP2 ADD MSTORE SWAP3 SWAP2 POP POP JUMP JUMPDEST DUP1 CALLDATALOAD PUSH1 0xFF DUP2 AND DUP2 EQ PUSH2 0x119 JUMPI PUSH1 0x0 DUP1 REVERT JUMPDEST PUSH1 0x0 DUP2 DUP4 SUB PUSH2 0x160 DUP2 SLT ISZERO PUSH2 0xB6C JUMPI PUSH1 0x0 DUP1 REVERT JUMPDEST PUSH2 0xB74 PUSH2 0xA09 JUMP JUMPDEST DUP4 CALLDATALOAD DUP2 MSTORE SWAP2 POP PUSH1 0xC0 PUSH1 0x1F NOT DUP3 ADD SLT ISZERO PUSH2 0xB8C JUMPI PUSH1 0x0 DUP1 REVERT JUMPDEST POP PUSH2 0xB95 PUSH2 0xA09 JUMP JUMPDEST PUSH2 0xBA1 PUSH1 0x20 DUP5 ADD PUSH2 0xB47 JUMP JUMPDEST DUP2 MSTORE PUSH2 0xBAF PUSH1 0x40 DUP5 ADD PUSH2 0xB47 JUMP JUMPDEST PUSH1 0x20 DUP3 ADD MSTORE PUSH2 0xBC0 PUSH1 0x60 DUP5 ADD PUSH2 0xB47 JUMP JUMPDEST PUSH1 0x40 DUP3 ADD MSTORE PUSH2 0xBD1 PUSH1 0x80 DUP5 ADD PUSH2 0xB47 JUMP JUMPDEST PUSH1 0x60 DUP3 ADD MSTORE PUSH2 0xBE2 PUSH1 0xA0 DUP5 ADD PUSH2 0xB47 JUMP JUMPDEST PUSH1 0x80 DUP3 ADD MSTORE PUSH2 0xBF3 PUSH1 0xC0 DUP5 ADD PUSH2 0xB47 JUMP JUMPDEST PUSH1 0xA0 DUP3 ADD MSTORE PUSH1 0x20 DUP3 ADD MSTORE PUSH2 0xC09 PUSH1 0xE0 DUP4 ADD PUSH2 0xB47 JUMP JUMPDEST PUSH1 0x40 DUP3 ADD MSTORE PUSH2 0xC1B PUSH2 0x100 DUP4 ADD PUSH2 0xB47 JUMP JUMPDEST PUSH1 0x60 DUP3 ADD MSTORE PUSH2 0xC2D PUSH2 0x120 DUP4 ADD PUSH2 0xB47 JUMP JUMPDEST PUSH1 0x80 DUP3 ADD MSTORE PUSH2 0xC3F PUSH2 0x140 DUP4 ADD PUSH2 0xB47 JUMP JUMPDEST PUSH1 0xA0 DUP3 ADD MSTORE SWAP3 SWAP2 POP POP JUMP JUMPDEST DUP1 CALLDATALOAD PUSH2 0xFFFF DUP2 AND DUP2 EQ PUSH2 0x119 JUMPI PUSH1 0x0 DUP1 REVERT JUMPDEST DUP1 CALLDATALOAD DUP1 ISZERO ISZERO DUP2 EQ PUSH2 0x119 JUMPI PUSH1 0x0 DUP1 REVERT JUMPDEST PUSH1 0x0 PUSH1 0xE0 DUP3 DUP5 SUB SLT ISZERO PUSH2 0xC7E JUMPI PUSH1 0x0 DUP1 REVERT JUMPDEST PUSH2 0xC86 PUSH2 0xA32 JUMP JUMPDEST SWAP1 POP DUP2 CALLDATALOAD PUSH4 0xFFFFFFFF DUP2 AND DUP2 EQ PUSH2 0xC9C JUMPI PUSH1 0x0 DUP1 REVERT JUMPDEST DUP2 MSTORE PUSH2 0xCAA PUSH1 0x20 DUP4 ADD PUSH2 0xC4A JUMP JUMPDEST PUSH1 0x20 DUP3 ADD MSTORE PUSH2 0xCBB PUSH1 0x40 DUP4 ADD PUSH2 0xC4A JUMP JUMPDEST PUSH1 0x40 DUP3 ADD MSTORE PUSH2 0xCCC PUSH1 0x60 DUP4 ADD PUSH2 0xC5C JUMP JUMPDEST PUSH1 0x60 DUP3 ADD MSTORE PUSH2 0xCDD PUSH1 0x80 DUP4 ADD PUSH2 0xC5C JUMP JUMPDEST PUSH1 0x80 DUP3 ADD MSTORE PUSH2 0xCEE PUSH1 0xA0 DUP4 ADD PUSH2 0xC5C JUMP JUMPDEST PUSH1 0xA0 DUP3 ADD MSTORE PUSH1 0xC0 SWAP2 DUP3 ADD CALLDATALOAD SWAP2 DUP2 ADD SWAP2 SWAP1 SWAP2 MSTORE SWAP2 SWAP1 POP JUMP JUMPDEST DUP1 CALLDATALOAD PUSH1 0x1 PUSH1 0x1 PUSH1 0xA0 SHL SUB DUP2 AND DUP2 EQ PUSH2 0x119 JUMPI PUSH1 0x0 DUP1 REVERT JUMPDEST PUSH1 0x0 DUP1 PUSH1 0x0 PUSH1 0x60 DUP5 DUP7 SUB SLT ISZERO PUSH2 0xD31 JUMPI PUSH1 0x0 DUP1 REVERT JUMPDEST DUP4 CALLDATALOAD SWAP3 POP PUSH1 0x20 DUP5 ADD CALLDATALOAD SWAP2 POP PUSH1 0x40 DUP5 ADD CALLDATALOAD PUSH8 0xFFFFFFFFFFFFFFFF DUP2 GT ISZERO PUSH2 0xD56 JUMPI PUSH1 0x0 DUP1 REVERT JUMPDEST DUP5 ADD PUSH2 0x320 DUP2 DUP8 SUB SLT ISZERO PUSH2 0xD69 JUMPI PUSH1 0x0 DUP1 REVERT JUMPDEST PUSH2 0xD71 PUSH2 0xA09 JUMP JUMPDEST DUP2 CALLDATALOAD PUSH8 0xFFFFFFFFFFFFFFFF DUP2 GT ISZERO PUSH2 0xD88 JUMPI PUSH1 0x0 DUP1 REVERT JUMPDEST DUP3 ADD PUSH1 0x1F DUP2 ADD DUP9 SGT PUSH2 0xD99 JUMPI PUSH1 0x0 DUP1 REVERT JUMPDEST DUP1 CALLDATALOAD PUSH2 0xDAC PUSH2 0xDA7 DUP3 PUSH2 0xA86 JUMP JUMPDEST PUSH2 0xA55 JUMP JUMPDEST DUP2 DUP2 MSTORE DUP10 PUSH1 0x20 DUP4 DUP6 ADD ADD GT ISZERO PUSH2 0xDC1 JUMPI PUSH1 0x0 DUP1 REVERT JUMPDEST DUP2 PUSH1 0x20 DUP5 ADD PUSH1 0x20 DUP4 ADD CALLDATACOPY PUSH1 0x0 PUSH1 0x20 SWAP3 DUP3 ADD DUP4 ADD MSTORE DUP4 MSTORE DUP4 DUP2 ADD CALLDATALOAD SWAP1 DUP4 ADD MSTORE POP PUSH2 0xDED DUP8 PUSH1 0x40 DUP5 ADD PUSH2 0xABE JUMP JUMPDEST PUSH1 0x40 DUP3 ADD MSTORE PUSH2 0xDFF DUP8 PUSH1 0xC0 DUP5 ADD PUSH2 0xB58 JUMP JUMPDEST PUSH1 0x60 DUP3 ADD MSTORE PUSH2 0xE12 DUP8 PUSH2 0x220 DUP5 ADD PUSH2 0xC6C JUMP JUMPDEST PUSH1 0x80 DUP3 ADD MSTORE PUSH2 0xE24 PUSH2 0x300 DUP4 ADD PUSH2 0xD05 JUMP JUMPDEST PUSH1 0xA0 DUP3 ADD MSTORE DUP1 SWAP3 POP POP POP SWAP3 POP SWAP3 POP SWAP3 JUMP JUMPDEST PUSH1 0x0 JUMPDEST DUP4 DUP2 LT ISZERO PUSH2 0xE50 JUMPI DUP2 DUP2 ADD MLOAD DUP4 DUP3 ADD MSTORE PUSH1 0x20 ADD PUSH2 0xE38 JUMP JUMPDEST POP POP PUSH1 0x0 SWAP2 ADD MSTORE JUMP JUMPDEST PUSH4 0x4E487B71 PUSH1 0xE0 SHL PUSH1 0x0 MSTORE PUSH1 0x21 PUSH1 0x4 MSTORE PUSH1 0x24 PUSH1 0x0 REVERT JUMPDEST PUSH1 0x4 DUP2 LT PUSH2 0xABB JUMPI PUSH4 0x4E487B71 PUSH1 0xE0 SHL PUSH1 0x0 MSTORE PUSH1 0x21 PUSH1 0x4 MSTORE PUSH1 0x24 PUSH1 0x0 REVERT JUMPDEST DUP1 MLOAD PUSH2 0xE98 DUP2 PUSH2 0xE6F JUMP JUMPDEST DUP3 MSTORE PUSH1 0x20 DUP2 ADD MLOAD PUSH2 0xEA8 DUP2 PUSH2 0xE6F JUMP JUMPDEST PUSH1 0x20 DUP4 ADD MSTORE PUSH1 0x40 DUP2 ADD MLOAD PUSH2 0xEBB DUP2 PUSH2 0xE6F JUMP JUMPDEST PUSH1 0x40 DUP4 ADD MSTORE PUSH1 0x60 DUP2 ADD MLOAD PUSH2 0xECE DUP2 PUSH2 0xE6F JUMP JUMPDEST DUP1 PUSH1 0x60 DUP5 ADD MSTORE POP POP POP JUMP JUMPDEST DUP1 MLOAD DUP3 MSTORE PUSH1 0x20 DUP2 ADD MLOAD PUSH1 0xFF DUP2 MLOAD AND PUSH1 0x20 DUP5 ADD MSTORE PUSH1 0xFF PUSH1 0x20 DUP3 ADD MLOAD AND PUSH1 0x40 DUP5 ADD MSTORE PUSH1 0xFF PUSH1 0x40 DUP3 ADD MLOAD AND PUSH1 0x60 DUP5 ADD MSTORE PUSH1 0xFF PUSH1 0x60 DUP3 ADD MLOAD AND PUSH1 0x80 DUP5 ADD MSTORE PUSH1 0xFF PUSH1 0x80 DUP3 ADD MLOAD AND PUSH1 0xA0 DUP5 ADD MSTORE PUSH1 0xFF PUSH1 0xA0 DUP3 ADD MLOAD AND PUSH1 0xC0 DUP5 ADD MSTORE POP PUSH1 0x40 DUP2 ADD MLOAD PUSH2 0xF42 PUSH1 0xE0 DUP5 ADD DUP3 PUSH1 0xFF AND SWAP1 MSTORE JUMP JUMPDEST POP PUSH1 0x60 DUP2 ADD MLOAD PUSH1 0xFF SWAP1 DUP2 AND PUSH2 0x100 DUP5 ADD MSTORE PUSH1 0x80 DUP3 ADD MLOAD DUP2 AND PUSH2 0x120 DUP5 ADD MSTORE PUSH1 0xA0 SWAP1 SWAP2 ADD MLOAD AND PUSH2 0x140 SWAP1 SWAP2 ADD MSTORE JUMP JUMPDEST PUSH4 0xFFFFFFFF DUP2 MLOAD AND DUP3 MSTORE PUSH2 0xFFFF PUSH1 0x20 DUP3 ADD MLOAD AND PUSH1 0x20 DUP4 ADD MSTORE PUSH2 0xFFFF PUSH1 0x40 DUP3 ADD MLOAD AND PUSH1 0x40 DUP4 ADD MSTORE PUSH1 0x60 DUP2 ADD MLOAD ISZERO ISZERO PUSH1 0x60 DUP4 ADD MSTORE PUSH1 0x80 DUP2 ADD MLOAD ISZERO ISZERO PUSH1 0x80 DUP4 ADD MSTORE PUSH1 0xA0 DUP2 ADD MLOAD PUSH2 0xFC1 PUSH1 0xA0 DUP5 ADD DUP3 ISZERO ISZERO SWAP1 MSTORE JUMP JUMPDEST POP PUSH1 0xC0 SWAP1 DUP2 ADD MLOAD SWAP2 ADD MSTORE JUMP JUMPDEST PUSH1 0x20 DUP2 MSTORE PUSH1 0x0 DUP3 MLOAD PUSH2 0x320 PUSH1 0x20 DUP5 ADD MSTORE DUP1 MLOAD DUP1 PUSH2 0x340 DUP6 ADD MSTORE PUSH2 0xFF8 DUP2 PUSH2 0x360 DUP7 ADD PUSH1 0x20 DUP6 ADD PUSH2 0xE35 JUMP JUMPDEST PUSH1 0x20 DUP6 ADD MLOAD PUSH1 0x40 DUP6 ADD MSTORE PUSH1 0x40 DUP6 ADD MLOAD SWAP2 POP PUSH2 0x1016 PUSH1 0x60 DUP6 ADD DUP4 PUSH2 0xE8D JUMP JUMPDEST PUSH1 0x60 DUP6 ADD MLOAD SWAP2 POP PUSH2 0x102A PUSH1 0xE0 DUP6 ADD DUP4 PUSH2 0xED9 JUMP JUMPDEST PUSH1 0x80 DUP6 ADD MLOAD SWAP2 POP PUSH2 0x103F PUSH2 0x240 DUP6 ADD DUP4 PUSH2 0xF70 JUMP JUMPDEST PUSH1 0xA0 DUP6 ADD MLOAD PUSH1 0x1 PUSH1 0x1 PUSH1 0xA0 SHL SUB DUP2 AND PUSH2 0x320 DUP7 ADD MSTORE SWAP2 POP PUSH1 0x1F ADD PUSH1 0x1F NOT AND SWAP3 SWAP1 SWAP3 ADD PUSH2 0x360 ADD SWAP4 SWAP3 POP POP POP JUMP JUMPDEST PUSH1 0x0 DUP1 PUSH1 0x0 DUP1 PUSH1 0x80 DUP6 DUP8 SUB SLT ISZERO PUSH2 0x1082 JUMPI PUSH1 0x0 DUP1 REVERT JUMPDEST DUP5 CALLDATALOAD SWAP4 POP PUSH1 0x20 DUP6 ADD CALLDATALOAD SWAP3 POP PUSH1 0x40 DUP6 ADD CALLDATALOAD PUSH8 0xFFFFFFFFFFFFFFFF DUP2 AND DUP2 EQ PUSH2 0x10A8 JUMPI PUSH1 0x0 DUP1 REVERT JUMPDEST SWAP2 POP PUSH2 0x10B6 PUSH1 0x60 DUP7 ADD PUSH2 0xC4A JUMP JUMPDEST SWAP1 POP SWAP3 SWAP6 SWAP2 SWAP5 POP SWAP3 POP JUMP JUMPDEST PUSH4 0x4E487B71 PUSH1 0xE0 SHL PUSH1 0x0 MSTORE PUSH1 0x11 PUSH1 0x4 MSTORE PUSH1 0x24 PUSH1 0x0 REVERT JUMPDEST PUSH1 0x0 PUSH8 0xFFFFFFFFFFFFFFFF DUP3 AND PUSH8 0xFFFFFFFFFFFFFFFF DUP2 SUB PUSH2 0x10FB JUMPI PUSH2 0x10FB PUSH2 0x10C1 JUMP JUMPDEST PUSH1 0x1 ADD SWAP3 SWAP2 POP POP JUMP JUMPDEST PUSH1 0xC0 SWAP2 SWAP1 SWAP2 SHL PUSH1 0x1 PUSH1 0x1 PUSH1 0xC0 SHL SUB NOT AND DUP2 MSTORE PUSH1 0x8 ADD SWAP1 JUMP JUMPDEST PUSH1 0x0 PUSH1 0x20 DUP3 DUP5 SUB SLT ISZERO PUSH2 0x112E JUMPI PUSH1 0x0 DUP1 REVERT JUMPDEST DUP2 MLOAD PUSH8 0xFFFFFFFFFFFFFFFF DUP2 GT ISZERO PUSH2 0x1145 JUMPI PUSH1 0x0 DUP1 REVERT JUMPDEST DUP3 ADD PUSH1 0x1F DUP2 ADD DUP5 SGT PUSH2 0x1156 JUMPI PUSH1 0x0 DUP1 REVERT JUMPDEST DUP1 MLOAD PUSH2 0x1164 PUSH2 0xDA7 DUP3 PUSH2 0xA86 JUMP JUMPDEST DUP2 DUP2 MSTORE DUP6 PUSH1 0x20 DUP4 DUP6 ADD ADD GT ISZERO PUSH2 0x1179 JUMPI PUSH1 0x0 DUP1 REVERT JUMPDEST PUSH2 0x118A DUP3 PUSH1 0x20 DUP4 ADD PUSH1 0x20 DUP7 ADD PUSH2 0xE35 JUMP JUMPDEST SWAP6 SWAP5 POP POP POP POP POP JUMP JUMPDEST PUSH1 0x0 DUP3 PUSH2 0x11B0 JUMPI PUSH4 0x4E487B71 PUSH1 0xE0 SHL PUSH1 0x0 MSTORE PUSH1 0x12 PUSH1 0x4 MSTORE PUSH1 0x24 PUSH1 0x0 REVERT JUMPDEST POP MOD SWAP1 JUMP JUMPDEST DUP1 DUP3 ADD DUP1 DUP3 GT ISZERO PUSH2 0x11C8 JUMPI PUSH2 0x11C8 PUSH2 0x10C1 JUMP JUMPDEST SWAP3 SWAP2 POP POP JUMP INVALID LOG2 PUSH5 0x6970667358 0x22 SLT KECCAK256 0xB4 0xE 0xCD MOD MOD SWAP5 0x24 0xCE 0x4E 0xC4 PUSH15 0x3ACD2CF419E31F91EF4D2C37F57A12 0xD3 0xF 0xC3 0x24 0xB5 0x23 PUSH5 0x736F6C6343 STOP ADDMOD SHR STOP CALLER "
        },
        "methodIdentifiers": {
          "generateShip(uint256,uint256,uint64,uint16)": "e02f592a",
          "generateSpecificShip(uint256,uint256,(string,uint256,(uint8,uint8,uint8,uint8),(uint256,(uint8,uint8,uint8,uint8,uint8,uint8),uint8,uint8,uint8,uint8),(uint32,uint16,uint16,bool,bool,bool,uint256),address))": "dd1a57a2",
          "getTierOfTrait(uint256)": "6e0f7a48",
          "shipNames()": "a355a6da"
        }
      }
    }
  }
}