{
  "contracts/Renderers/RenderShield3.sol": {
    "RenderShield3": {
      "abi": [
        {
          "inputs": [],
          "name": "render",
          "outputs": [
            {
              "internalType": "string",
              "name": "",
              "type": "string"
            }
          ],
          "stateMutability": "pure",
          "type": "function"
        }
      ],
      "evm": {
        "bytecode": {
          "linkReferences": {},
          "object": "6080604052348015600f57600080fd5b50615c218061001f6000396000f3fe608060405234801561001057600080fd5b506004361061002b5760003560e01c8063d607497a14610030575b600080fd5b61003861004e565b6040516100459190610071565b60405180910390f35b606060405180615b600160405280615b2c81526020016100c0615b2c9139905090565b602081526000825180602084015260005b8181101561009f5760208186018101516040868401015201610082565b506000604082850101526040601f19601f8301168401019150509291505056fe3c706174682066696c6c3d22233463643765392220643d224d31323020313135683530763431682d35307a222f3e3c706174682066696c6c3d22233834383538342220643d224d31343920313230762d31682d31763168315a6d392031762d31682d31763168315a6d2d31392030762d31682d31763168315a6d313620312d312d312d31203168325a6d2d313320302d312d312d31203168325a6d392032762d31682d31763168315a6d2d382031762d31682d31763168315a6d31362032762d31682d31763168315a6d2d313120302d322d322d322d312031203368335a6d2d342030762d31682d31763168315a6d2d3920302d312d312d312031682d3120352d325a6d31362032762d31682d31763168315a6d2d3220302d312d312d31203168325a6d2d332030762d31682d31763168315a6d2d31302030762d31682d31763168315a6d31382032762d31682d31763168315a6d2d313120302d312d312d31203168325a6d382031762d31682d31763168315a6d2d31332031762d31682d31763168315a6d2d34302030762d31682d316c2d312d3176316c31203168315a6d36302031762d316c2d322d3176316c2d31203168335a6d3320322d312d312d312031682d3120352d325a6d2d3132203020312d31682d366c2d31203168365a6d2d313420302d312d312d312031682d3120352d325a6d2d322032762d31682d31763168315a6d2d322030762d31682d31763168315a6d32382031762d31682d316c2d31203268316c312d315a6d2d31352030762d31682d316c2d31203268316c312d315a6d2d352031762d31682d31763168315a6d31322031762d31682d31763168315a6d2d32302030762d31682d31763168315a6d32362031762d31682d31763168315a6d2d31352030682d326c2d3120312d31203120332d3168336c2d322d315a6d32302033762d31682d31763168315a6d2d322030762d31682d316c2d322d312031203268325a6d2d31342d35762d316c31203176316c2d312031762d325a6d34203420322d322d322031682d316c2d312d322d312d3220312d3120322d31682d346c2d3120342d312031763168366c2d35203268346c312d315a6d2d313520312d312d312d312031682d3120352d325a6d31372031762d3168317631682d315a6d3320302d312d322d312d31203120316831762d32682d336c2d3120332d3120326835762d315a6d2d362032762d31682d31763168315a6d2d362d31762d3168317631682d315a6d31203020312d312d332d31682d326c2d3120312d3120326836762d315a6d313120332d312d312d312031682d3120335a6d2d313320302d312d312d312031682d3120352d325a6d2d31322032322d312d312d31352d31362d3220322d3320324839376c2d352d36682d386c2d332d33762d33386837762d336831346c32203220332d3320322d3368396c312d3120312d3268376c312d31762d326833366c35203568336c342d317631336c3220322032203168327633356c2d3920392d392039682d33345a222f3e3c706174682066696c6c3d22233165633864612220643d224d31343920313230762d31682d31763168315a6d392031762d31682d31763168315a6d2d31392030762d31682d31763168315a6d313620312d312d312d31203168325a6d2d313320302d312d312d31203168325a6d392032762d31682d31763168315a6d2d382031762d31682d31763168315a6d31362032762d31682d31763168315a6d2d313120302d322d322d322d312031203368335a6d2d342030762d31682d31763168315a6d2d3920302d312d312d312031682d3120352d325a6d31362032762d31682d31763168315a6d2d3220302d312d312d31203168325a6d2d332030762d31682d31763168315a6d2d31302030762d31682d31763168315a6d31382032762d31682d31763168315a6d2d313120302d312d312d31203168325a6d382031762d31682d31763168315a6d2d31332031762d31682d31763168315a6d2d34302030762d31682d316c2d312d3176316c31203168315a6d36302031762d316c2d322d3176316c2d31203168335a6d32312032762d31682d31763168315a6d2d313820302d312d312d312031682d3120352d325a6d2d3132203020312d31682d366c2d31203168365a6d2d313420302d312d312d312031682d3120352d325a6d2d322032762d31682d31763168315a6d2d322030762d31682d31763168315a6d343820312d312d312d31203168325a6d2d32302030762d31682d316c2d31203268316c312d315a6d2d31352030762d31682d316c2d31203268316c312d315a6d2d352031762d31682d31763168315a6d31322031762d31682d31763168315a6d2d32302030762d31682d31763168315a6d32362031762d31682d31763168315a6d2d353320312d342d312d342031682d332031352d345a6d2d313520302d312d312d312031682d3120352d325a6d35332d31682d326c2d3120312d31203120332d3168336c2d322d315a6d32302033762d31682d31763168315a6d2d322030762d31682d316c2d322d312031203268325a6d2d31342d35762d316c31203176316c2d312031762d325a6d34203420322d322d322031682d316c2d312d322d312d3220312d3120322d31682d346c2d3120342d312031763168366c2d35203268346c312d315a6d2d313520312d312d312d312031682d3120352d325a6d2d32342031762d31682d316c2d312d3176316c31203168315a6d34312030762d3168317631682d315a6d3320302d312d322d312d31203120316831762d32682d336c2d3120332d3120326835762d315a6d2d362032762d31682d31763168315a6d2d362d31762d3168317631682d315a6d31203020312d312d332d31682d326c2d3120312d3120326836762d315a6d313120332d312d312d312031682d3120335a6d2d313320302d312d312d312031682d3120352d325a6d2d323220302d322d312d322031682d3120372d325a6d2d362030762d31682d31763168315a6d2d3620302d342d3148383476326c31342d316831352d355a6d31322036762d31682d316c2d312d3176316c31203168315a6d35352030762d31682d316c2d31203268316c312d315a6d2d362036762d31682d31763168315a6d2d343120332d322d322d322d322033203468315a6d33382d3120322d312d3220312d322031763168316c312d325a6d2d33362033762d31682d31763168315a6d323820322d312d312d33203168362d325a6d2d3920302d312d312d31203168325a6d2d3320302d312d312d31203168325a6d2d3820302d312d312d312031682d3120335a6d372032682d31356c2d382d382d392d382d3220322d3220324839376c2d352d36682d386c2d312d322d322d31762d31396c312d313820362d31762d336831346c31203320332d3320342d3468386c312d3120312d3268376c312d31762d326833366c3220332032203268346c342d317631336c332032203220327633346c2d3136203137682d326c2d3220312d31362d315a222f3e3c706174682066696c6c3d22233135396163322220643d224d31343920313230762d31682d31763168315a6d2d322030762d31682d31763168315a6d31312031762d31682d31763168315a6d2d3320312d312d312d312031682d3120335a6d2d31332030762d316c2d342d312031203268335a6d392032762d31682d31763168315a6d2d382031762d31682d31763168315a6d31362032762d31682d31763168315a6d2d322030762d31682d316c2d312d3176316c31203168315a6d2d392030762d316c2d342d3220312032763168335a6d2d313320302d312d312d312031682d3120352d325a6d3020322d312d312d312031682d3120352d325a6d32332032762d31682d31763168315a6d2d322d31762d31682d366c32203268336c312d315a6d2d3133203020312d32762d326c2d332031682d336c312d31762d316c2d312031682d316c3120322031203176326834762d315a6d2d3720312d312d312d31203168325a6d2d342030762d31682d31763168315a6d32382032762d31682d31763168315a6d2d32322030762d31682d31763168315a6d2d34302d31762d316c2d322d3176336832762d315a6d333720312d312d3176336c312d31762d315a6d34342033762d31682d31763168315a6d2d313820302d312d312d312031682d3120352d325a6d2d31362d32762d3168317631682d315a6d342031762d316c312d3120312d312d312d322d312d32682d346c2d31203376346c31203168356c2d312d315a6d2d31332031762d31682d356c31203168345a6d2d352032762d31682d31763168315a6d343820312d312d312d31203168325a6d2d3233203020312d312d312d33762d326c3220322d312d332d3120312d322031682d316c2d312d312d322034203120312031203268336c312d315a6d2d31322d32762d326c2d322d312d322d312d33203376326c3120326836762d335a6d31352033762d32682d316c2d32203468316c322d31762d315a6d2d33302033762d31682d31763168315a6d2d323520302d342d312d342031682d332031352d345a6d2d313520302d312d312d312031682d3120352d325a6d37332032762d31682d356c31203168345a6d2d31322d3120312d322d312d322d312d33682d336c2d3120322d31203220312032763268346c312d315a6d2d31332d3120312d312d322d322d312d32203120332d332d342d3120322d32203276316c322d3120312032203120312d312031682d3120346c312d325a6d2d32362033762d31682d316c2d312d3176316c31203168315a6d323620332d312d312d31203168325a6d3138203020312d34762d316c2d312d32682d336c2d3120322d3120322033203468325a6d2d31332030682d316c322d3120322d312d312d322d312d33682d346c2d3120322d3120322033203468346c2d322d315a6d2d323220312d322d312d322031682d3120372d325a6d2d362030762d31682d31763168315a6d33342030762d3168317631682d315a6d312030762d33682d3476346834762d315a6d2d343120302d342d3148383476326c31342d316831352d355a6d31322036762d31682d316c2d312d3176316c31203168315a6d35352030762d31682d316c2d31203268316c312d315a6d2d362036762d31682d31763168315a6d2d343120332d322d322d322d322033203468315a6d33382d3120322d312d3220312d322031763168316c312d325a6d2d33362033762d31682d31763168315a6d323820322d312d312d33203168362d325a6d2d3920302d312d312d31203168325a6d2d3320302d312d312d31203168325a6d2d3820302d312d312d312031682d3120335a6d372032682d31356c2d382d382d392d382d3220322d3220324839376c2d352d36682d386c2d312d322d322d31762d31396c312d313820362d31762d336831346c31203320332d3320342d3468386c312d3120312d3268376c312d31762d326833366c3220332032203268346c342d317631336c332032203220327633346c2d3136203137682d326c2d3220312d31362d315a222f3e3c706174682066696c6c3d22233064353638362220643d224d31343520313134762d31682d31763168315a6d31322032762d31682d31763168315a6d2d3220302d312d312d31203168325a6d2d31302030762d31682d31763168315a6d3420302d312d31682d326c332032762d315a6d31302032762d31682d31763168315a6d342034762d31682d31763168315a6d2d38203020312d312d312d322d312d31203120316832762d316c2d312d312d332031682d326c312d31762d326c2d312031682d3176346c3120312031203168335a6d2d31322d3120312d312d322d332d3120312d31203120312d3220312d32682d336c2d3120322d31203220312032203120316834762d315a6d3137203520312d3120312031682d325a6d332030762d316c2d322d322d322d32762d316c322031762d32682d336c2d3120322d3120322033203468336c312d315a6d2d31332d3120312d322d322d34682d326c2d3220322d322031203120332031203268346c312d325a6d2d3133203020312d322d322d34682d3476326c2d31203220312032763268346c312d325a6d33302034762d31682d316c2d312d3176316c31203168315a6d2d363920302d312d312d31203168325a6d363920322d312d312d31203168325a6d2d31302d32762d326c2d322d34682d326c2d33203376336c3120312031203168346c312d325a6d2d3237203120322d322d322d31682d316c312d31762d316c2d3220322d322032763268336c312d315a6d2d33322032762d31682d326c2d312031763168346c2d312d315a6d37312033762d31682d31763168315a6d31302031762d31682d31763168315a6d2d31362d3120312d31762d376c2d31203176316c2d332d312d3220322d322032203120322032203268336c312d315a6d2d3236203020312d322d312d322d312d33682d346c2d3120332d312032203120322031203168346c312d315a6d323920332d312d3120312d3220312d32682d326c2d3120322d3120322031203168342d325a6d313320312d312d312d31203168325a6d2d313220312d312d312d31203168325a6d2d31302d31762d336c2d312d33682d346c2d3120322d31203120312032763268356c312d315a6d2d33312030762d3168317631682d315a6d34203020312d322d322d34682d356c312032203120322d31203120312031763168336c312d315a6d2d323620342d342d312d342031682d332031352d345a6d2d313520302d312d312d312031682d3120352d325a6d37372d312d3220322d31203120322d3120322d312d312d315a6d2d33203120312d322d322d34682d346c2d3120332d312032203120322031203168346c312d325a6d2d35322033762d31682d316c2d312d3176316c31203168315a6d33332d39762d326c34203176316c2d342031762d315a6d313220313120312d322d322d352d3320322d32203120312d31762d316c2d312d332d312d3320312d3220312d322d322d34682d347632682d326c312d332d322d34682d326c2d3220332d3220322032203220312031683476326c312031682d326c2d322d312d3220322d32203268317631682d326c2d322d312d3220322d312032203120322032203268336c312d3120312d322d312d332034203220322d3120312d3176326c31203468346c3220332031203268336c312d325a6d2d3132203120312d322d312d332d312d332d3420312d3120322d3120322033203468326c322d315a6d2d323420312d322d312d322031682d3120372d325a6d2d362030762d31682d31763168315a6d34362d3120312d312031203120312031762d326c2d312d31682d346c2d3120312d312032763168336c312d325a6d2d353220312d342d3148383476326c31342d316831352d355a6d3432203220312d322d322d322d322d322d3120312d32203176346831763168346c312d315a6d2d3720312d312d312d312031682d3120335a6d2d352d342d312d32682d336c2d332031762d336c2d312d33682d346c33203620322031683176316c2d31203168346c31203176316c322d32762d325a6d2d31382037762d31682d316c2d312d3176316c31203168315a6d35352030762d31682d316c2d31203268316c312d315a6d2d362036762d31682d31763168315a6d2d343120332d322d322d322d322033203468315a6d33382d3120322d312d3220312d322031763168316c312d325a6d2d33362033762d31682d31763168315a6d323820322d312d312d33203168362d325a6d2d3920302d312d312d31203168325a6d2d3320302d312d312d31203168325a6d2d3820302d312d312d312031682d3120335a6d372032682d31356c2d382d382d392d382d3220322d3220324839376c2d352d36682d386c2d312d322d322d31762d31396c312d313820362d31762d336831346c31203320332d3320342d3468386c312d3120312d3268376c312d31762d326833366c3220332032203268346c342d317631336c332032203220327633346c2d3136203137682d326c2d3220312d31362d315a222f3e3c706174682066696c6c3d22233432343434332220643d224d31353320313132762d31682d31763168315a6d3720342d312d322d312d312d322033203120312031203168336c2d312d325a6d2d3233203020312d322d3520312d31203368346c312d325a6d32362033762d31682d31763168315a6d2d37203120312d312d312d322d322d32682d336c2d3120322d312032203120312032203268336c312d325a6d2d3132203020322d332031203168316c312d3220312d322d332d332d33203176336c3120342d312d322d322d32682d336c2d3120322d312032203120322031203168336c322d325a6d2d31332d322d312d317633682d316c2d312d3176316c312031682d326c31203220322d3220312d32762d315a6d3332203720312d312d322d332d312d32682d336c2d3120322d312031203120332031203268346c312d325a6d2d363420342d312d312d312031682d3120335a6d36372d33762d3168317631682d315a6d33203320312d312d312d322d322d322d3320312d31203276316c3120322031203168336c312d325a6d2d31322030762d326c2d322d34682d336c2d3120312d31203276336c3120312031203168346c312d325a6d2d3237203120312d322d312d322d312d32682d34763768346c312d315a6d34302033762d31682d31763168315a6d2d37312d312d312d32682d336c2d31203420352d3176316c2d31203220312d3120312d312d312d325a6d38302034762d31682d31763168315a6d3020332d312d312d31203168325a6d2d392032762d31682d31763168315a6d2d34352031762d31682d31763168315a6d2d323120312d342d312d342031682d332031352d345a6d2d313520302d312d312d312031682d3120352d325a6d32322033762d31682d316c2d312d3176316c31203168315a6d35372d32762d31682d316c2d312d312d3220312d3120322031203276326c342d34762d315a6d2d343820362d322d312d322031682d3120372d325a6d2d362030762d31682d31763168315a6d2d3620302d342d3148383476326c31342d316831352d355a6d33302031762d326c2d312d312d312d322d3320312d32203176336c3320326834762d325a6d2d312d3139762d3168366c31203276326c2d312d312d312d322d352032762d325a6d382035762d3168316c2d312032682d316c312d315a6d31312033762d3168317631682d315a6d2d31332030762d3168317631682d315a6d392031762d3168316c2d312032682d316c312d315a6d2d392031762d3168317631682d315a6d2d362d31762d326c3220312031203176316c2d312031682d32762d325a6d31332033762d3168317631682d315a6d2d362030762d3168317631682d315a6d30203320322d3268336c3320342d332d322d322d312d3220322d32203220312d335a6d362035762d336c33203168336c31203368336c312d3120322d32762d316c2d312d322d332031682d336c312d31762d316c2d312d322d312d332033203468346c312d3220312d32762d316c2d312d31203220312032203120322d3220312d322d312d322d312d32682d336c2d3120322d312033682d366c312d31762d3168346c312d3120312d322d312d322d312d33682d336c2d33203420322033682d32762d326c2d342d312d3120322d3120322031203276326c2d312d322d312d3220312d3220312d322d332d3520322d3220312d322d312d322d312d32682d336c2d3120322d322032203120322031203268326c2d332033682d316c312d332d322d34682d336c2d3120327631682d326c312d3120312d322d312d322d312d32682d346c2d3120322d3120322031203220312032683476316c3120312d322d31682d336c2d3120322d312032203120322031203268357632682d356c2d322d342d362d312031203376336c3120312031203120332d3176326c3120312d332d31682d3276326c3120332031203268326c312d3468356c33203568336c35203468326c312d325a6d35203220312d312d342d322d3120312d312032763168346c312d315a6d2d3131203168316c2d322d322d322d322d3220322d32203268326c32203168326c312d315a6d2d32342031762d31682d316c2d312d3176316c31203168315a6d35352030762d31682d316c2d31203268316c312d315a6d2d362036762d31682d31763168315a6d2d343120332d322d322d322d322033203468315a6d33382d3120322d312d3220312d322031763168316c312d325a6d2d33362033762d31682d31763168315a6d323820322d312d312d33203168362d325a6d2d3920302d312d312d31203168325a6d2d3320302d312d312d31203168325a6d2d3820302d312d312d312031682d3120335a6d372032682d31356c2d382d382d392d382d3220322d3220324839376c2d352d36682d386c2d312d322d322d31762d31396c312d313820362d31762d336831346c31203320332d3320342d3468386c312d3120312d3268376c312d31762d326833366c3220332032203268346c342d317631336c332032203220327633346c2d3136203137682d326c2d3220312d31362d315a222f3e3c706174682066696c6c3d22233264333333382220643d226d313438203130322d322d312d332031682d322031302d335a6d35203130762d31682d31763168315a6d31332032762d31682d316c2d312d3176316c31203168315a6d2d33392031762d31682d31763168315a6d2d34312032762d31682d31763168315a6d37342d312d312d322d312d312d322033203120312031203168336c2d312d325a6d2d3233203020312d322d3520312d31203368346c312d325a6d2d323220322d312d312d31203168325a6d2d31372d312d312d3176336c312d31762d315a6d36352032762d31682d31763168315a6d2d33392030762d31682d31763168315a6d2d31382d31762d31682d316c2d31203268316c312d315a6d382032762d31682d31763168315a6d2d32382d31762d31682d32763268316c312d315a6d2d332031762d31682d31763168315a6d333420302d312d3176336c312d31762d315a6d3339203020312d312d312d322d322d32682d336c2d3120322d312032203120312032203268336c312d325a6d2d3132203020322d332031203168316c312d3220312d322d332d332d33203176336c3120342d312d322d322d32682d336c2d3120322d312032203120322031203168336c322d325a6d32382033762d31682d31763168315a6d2d34312d352d312d317633682d316c2d312d3176316c312031682d326c31203220322d3220312d32762d315a6d2d343720342d312d3176336c312d31762d315a6d38392033762d31682d31763168315a6d2d3130203020312d312d322d332d312d32682d336c2d3120322d312031203120332031203268346c312d325a6d2d34322033762d31682d31763168315a6d2d323220312d312d312d312031682d3120335a6d342031762d31682d31763168315a6d36332d34762d3168317631682d315a6d33203320312d312d312d322d322d322d3320312d31203276316c3120322031203168336c312d325a6d2d31322030762d326c2d322d34682d336c2d3120312d31203276336c3120312031203168346c312d325a6d2d3237203120312d322d312d322d312d32682d34763768346c312d315a6d34302033762d31682d31763168315a6d2d36372031762d31682d31763168315a6d2d31332030762d31682d31763168315a6d38342031762d31682d31763168315a6d2d37352d332d312d32682d336c2d31203420352d3176316c2d31203220312d3120312d312d312d325a6d38302034762d31682d31763168315a6d2d39322d392d312d347631346c312d33762d375a6d333320372d312d3276366c312d31762d335a6d2d32362033762d31682d316c2d312d3176316c31203168315a6d383020302d312d3176336c312d31762d315a6d2d38322031762d31682d31763168315a6d38382030762d31682d33763268326c312d315a6d2d36392d35762d316c3220317631682d336c312d315a6d3520362d312d32762d366c312d352d312d312d312d312d3120317631682d316c2d322d3120312d31762d316c3320316832762d32682d36762d316c312d3120312d32762d316c2d342033203120327631386837762d315a6d2d31302d37762d396c2d313720316831367631366831762d385a6d373320392d312d312d31203168325a6d2d392030762d31682d31763168315a6d2d34392d312d312d3176336c312d31762d315a6d35322032762d31682d31763168315a6d2d34382030762d31682d31763168315a6d2d332031762d31682d31763168315a6d2d31352d314838386c2d312d332d312d327636683231762d315a6d36352033762d31682d31763168315a6d2d34392030762d31682d31763168315a6d312032762d31682d31763168315a6d2d392d316832762d316c2d312d32682d326c2d362031203220322031203120322d3120312d31203120315a6d35332d32762d31682d316c2d312d312d3220312d3120322031203276326c342d34762d315a6d312036762d31682d31763168315a6d313020312d312d312d31203168325a6d2d342030762d31682d31763168315a6d2d35342d312d312d31682d3776326838762d315a6d2d31392d34762d3168317631682d315a6d2d31362032762d3168317631682d315a6d31322030762d316c3220317631682d32762d315a6d2d35203120312d3120312031682d325a6d31392031762d32682d316c2d322d317632682d36762d326c31203168326c312d31762d316c2d322d312d332d312d322032762d316c2d312d312d342031682d356c31203120312031682d326c2d32203120312d332d312031682d32762d326c2d312d33682d336c32203376346c2d322d3176316c31203220322031683237762d315a6d32352d3138762d3168366c31203276326c2d312d312d312d322d352032762d325a6d382035762d3168316c2d312032682d316c312d315a6d31312033762d3168317631682d315a6d2d31332030762d3168317631682d315a6d392031762d3168316c2d312032682d316c312d315a6d2d392031762d3168317631682d315a6d2d362d31762d326c3220312031203176316c2d312031682d32762d325a6d31332033762d3168317631682d315a6d2d362030762d3168317631682d315a6d30203320322d3268336c3320342d332d322d322d312d3220322d32203220312d335a6d362035762d336c33203168336c31203368336c312d3120322d32762d316c2d312d322d332031682d336c312d31762d316c2d312d322d312d332033203468346c312d3220312d32762d316c2d312d31203220312032203120322d3220312d322d312d322d312d32682d336c2d3120322d312033682d366c312d31762d3168346c312d3120312d322d312d322d312d33682d336c2d33203420322033682d32762d326c2d342d312d3120322d3120322031203276326c2d312d322d312d3220312d3220312d322d332d3520322d3220312d322d312d322d312d32682d336c2d3120322d322032203120322031203268326c2d332033682d316c312d332d322d34682d336c2d3120327631682d326c312d3120312d322d312d322d312d32682d346c2d3120322d3120322031203220312032683476316c3120312d322d31682d336c2d3120322d312032203120322031203268357632682d356c2d322d342d362d312031203376336c3120312031203120332d3176326c3120312d332d31682d3276326c3120332031203268326c312d3468356c33203568336c35203468326c312d325a6d35203220312d312d342d322d3120312d312032763168346c312d315a6d3130203020312d32682d316c2d3120322d32203268316c322d325a6d2d31382032762d31682d31763168315a6d2d332d3168316c2d322d322d322d322d34203420312d362d322d332d3320312d32203176326c312032203420322035203268326c312d315a6d2d33362030762d316c2d322031682d326c2d332d3276316c2d31203176316838762d315a6d35332032762d31682d31763168315a6d313520312d312d3120312d3220312d322d3220322d322032763168335a6d2d31372030762d31682d31763168315a6d2d32372d322d332d322d352d36203220342038203668316c2d332d325a6d2d31332d312d322d322d31203120342034762d326c2d312d315a6d31382034762d31682d31763168315a6d2d382030762d31682d31763168315a6d32352031762d31682d31763168315a6d2d31342030762d31682d31763168315a6d2d31312033762d31682d31763168315a6d322032762d31682d31763168315a6d3220302d312d3176336c312d31762d315a6d3335203020352d342d322d322d3320332d342033762d31682d316c312033682d33336c2d31302d3976346831762d316c3220322032203276316c322032203320326833326c352d355a6d2d34362d322d392d382d3120322d3220322d372d31682d366c2d332d322d322d33682d386c2d332d33762d333768326c312d316834762d336831346c31203320332d3320332d3368386c322d3220312d3268376c312d31762d326833356c3320332032203268346c342d317631336c322032203320327633356c2d3820382d392038682d33346c2d382d385a222f3e3c706174682066696c6c3d22233061333935662220643d224d31353420313032762d31682d31366c31203176316831346c312d315a6d2d313720302d312d3176336c312d31762d315a6d313520352d312d312d31203168325a6d2d3320302d312d312d312031682d3120335a6d2d352030762d31682d31763168315a6d313320312d312d312d31203168325a6d2d313820302d312d312d31203168325a6d2d3320312d312d312d31203168325a6d3338203120312032762d326c2d312d312d312d31682d3176346c312d32762d316c3120315a6d2d31322031762d31682d316c2d312d3176316c31203168315a6d2d392031762d31682d31763168315a6d2d32322030762d31682d31763168315a6d333720342d332d332d322d32203220322032203368315a6d2d34312d3120322d33682d316c2d34203568316c322d325a6d333320312d312d322d312d312d322033203120312031203168336c2d312d325a6d2d3233203020312d322d3520312d31203368346c312d325a6d32362033762d31682d31763168315a6d2d333920302d312d3176336c312d31762d315a6d343620302d312d312031203276316831762d316c2d312d315a6d2d3134203120312d312d312d322d322d32682d336c2d3120322d312032203120312032203268336c312d325a6d2d3132203020322d332031203168316c312d3220312d322d332d332d33203176336c3120342d312d322d322d32682d336c2d3120322d312032203120322031203168336c322d325a6d32382033762d31682d31763168315a6d2d34312d352d312d317633682d316c2d312d3176316c312031682d326c31203220322d3220312d32762d315a6d34322037762d31682d31763168315a6d2d332030762d31682d31763168315a6d2d37203020312d312d322d332d312d32682d336c2d3120322d312031203120332031203268346c312d325a6d2d343220312d312d3176356c312d33762d315a6d34352030762d3168317631682d315a6d33203320312d312d312d322d322d322d3320312d31203276316c3120322031203168336c312d325a6d2d31322030762d326c2d322d34682d336c2d3120312d31203276336c3120312031203168346c312d325a6d2d3237203120312d322d312d322d312d32682d34763768346c312d315a6d34382033762d31682d31763168315a6d2d382030762d31682d31763168315a6d392033762d31682d31763168315a6d2d352d362d312d347631346c312d33762d375a6d352031312d312d312d31203168325a6d2d392030762d31682d31763168315a6d2d35302d362d312d3576376c31203468316c2d312d365a6d2d392d3134762d3168317631682d315a6d3020342d312d3168326c3120322d322d315a6d352037762d31306c322d3120322d32682d326c332d32682d346c2d3420312d322d3248393976336c342d3276336c322d3120312d312031203120312031762d326c2d312d3168346c2d3220337632316837762d395a6d39203130762d31682d31763168315a6d343820302d312d3176336c312d31762d315a6d2d37342d3135762d31682d31763168315a6d2d382031762d31682d31763168315a6d3820312d312d312d312031682d3120335a6d2d392032762d31682d31763168315a6d31322d332d322d317632683276346c312d32762d316c2d312d325a6d2d313220352d312d3176336c312d31762d315a6d392d312d312d32682d336c2d31203420352d3176316c2d31203220312d3120312d312d312d325a6d352033762d32682d326c31203276316831762d315a6d2d313120302d312d3176326c3120316831762d316c2d312d315a6d362033762d31682d31763168315a6d2d322030762d31682d31763168315a6d2d352030762d31682d31763168315a6d2d3420342d312d31386831387631366c2d31203176314838385a6d31392030762d31682d326c312d3220312d31322d312d322d312d334839316c2d352031763230683231762d315a6d313520312d312d3176326c3120316831762d316c2d312d315a6d34362031762d31682d316c2d312d312d3220312d3120322031203276326c342d34762d315a6d342031762d316c2d3120312d3120332d32203320322d3320322d32762d315a6d372035762d32682d3176326c2d3120316832762d315a6d2d332030762d326c2d322031682d3176326833762d315a6d2d382032762d31682d31763168315a6d2d38332d3334762d3168317631682d315a6d2d322033762d3168317631682d315a6d30203234762d326c3120322d312033762d335a6d332033762d3168317631682d315a6d31392031762d3168317631682d315a6d36203220322d3176336c312d31762d316837762d316c2d312d31682d386c2d322d312d312d3176316c2d312032762d346c352031762d316c312d31203120312031203168316c322d312d312d322d322d31682d386c3120324839396c2d392d3176326c3120322d312d322d322d32682d33762d366c2d322034762d31396c32203135762d3138683131762d316c2d312d31203220316831762d334838366c2d3420337633306c322031203120322031322d316831345a6d35372033762d31682d31763168315a6d2d33312d3232762d3168366c31203276326c2d312d312d312d322d352032762d325a6d382035762d3168316c2d312032682d316c312d315a6d31312033762d3168317631682d315a6d2d31332030762d3168317631682d315a6d392031762d3168316c2d312032682d316c312d315a6d2d392031762d3168317631682d315a6d2d362d31762d326c3220312031203176316c2d312031682d32762d325a6d31332033762d3168317631682d315a6d2d362030762d3168317631682d315a6d30203320322d3268336c3320342d332d322d322d312d3220322d32203220312d335a6d362035762d336c33203168336c31203368336c312d3120322d32762d316c2d312d322d332031682d336c312d31762d316c2d312d322d312d332033203468346c312d3220312d32762d316c2d312d31203220312032203120322d3220312d322d312d322d312d32682d336c2d3120322d312033682d366c312d31762d3168346c312d3120312d322d312d322d312d33682d336c2d33203420322033682d32762d326c2d342d312d3120322d3120322031203276326c2d312d322d312d3220312d3220312d322d332d3520322d3220312d322d312d322d312d32682d336c2d3120322d322032203120322031203268326c2d332033682d316c312d332d322d34682d336c2d3120327631682d326c312d3120312d322d312d322d312d32682d346c2d3120322d3120322031203220312032683476316c3120312d322d31682d336c2d3120322d312032203120322031203268357632682d356c2d322d342d362d312031203376336c3120312031203120332d3176326c3120312d332d31682d3276326c3120332031203268326c312d3468356c33203568336c35203468326c312d325a6d35203220312d312d342d322d3120312d312032763168346c312d315a6d31312d31762d31682d316c2d3220322d31203320342d33762d315a6d2d31392033762d31682d31763168315a6d2d322d312d322d322d322d322d34203420312d362d322d332d3320312d32203176326c31203220322031203320312d312031763168386c312d315a6d31362032762d31682d31763168315a6d2d35332d3168316c2d312d322d312d312d3120317631682d33762d32682d3376346838762d315a6d2d392d312d312d312d3120312031203176326c312d32762d315a6d373320332d312d312d312031682d3120335a6d2d31332030762d31682d31763168315a6d2d33372d34762d316c2d3120332d342d33682d326c3120327631683376336c322d3220322d322d312d315a6d3534203420322d322d312d31762d326c2d3220322d322032763268316c322d315a6d2d34312d312d332d312d332d332d332d332d312d322d322d32203120332032203376312d316c3520342034203368336c2d332d325a6d32322032762d316c2d322031682d32763168336c312d315a6d2d31372031762d31682d31763168315a6d323520316831762d336c2d312032682d3476316c2d31203168326c332d315a6d2d372032762d31682d31763168315a6d2d32322030762d31682d31763168315a6d2d362d332d312d322d312032682d336c31203176316c312d3120312d3168326c2d3120312d31203276326c322d3220322d322d322d315a6d312035762d31682d31763168315a6d3337203120352d35762d326c2d322031682d316c2d3220312d33203220312031682d327633682d33762d326c2d322032682d32356c2d322d337633682d316c2d352d342d352d3576316c2d312031683276326c342034203520346833326c352d345a6d2d34372d332d382d382d3220322d3120322d31332d312d352d35682d386c2d332d33762d333768326c312d316834762d336831346c31203320332d3320332d3368386c322d3220312d3268376c312d31762d326833356c3320332032203268346c342d317631336c33203220322032763137682d34763268326c312d31203120347631336c2d3137203136682d33346c2d392d385a222f3e3c706174682066696c6c3d22233238326533332220643d224d31353420313032762d31682d31366c31203176316831346c312d315a6d2d313720302d312d3176336c312d31762d315a6d313520352d312d312d31203168325a6d2d3320302d312d312d312031682d3120335a6d2d352030762d31682d31763168315a6d313320312d312d312d31203168325a6d2d313820302d312d312d31203168325a6d2d3320312d312d312d31203168325a6d3338203120312032762d326c2d312d312d312d31682d3176346c312d32762d316c3120315a6d2d31322031762d31682d316c2d312d3176316c31203168315a6d2d33312031762d31682d31763168315a6d32352030762d316c2d332d332d3420322d312d32682d33763268346c3120322031203168346c312d315a6d2d31322d31762d32682d356c2d3120322031203176316835762d325a6d323420352d332d332d322d32203220322032203368315a6d2d34312d3120322d33682d316c2d34203568316c322d325a6d2d3320342d312d3176336c312d31762d315a6d343620302d312d312031203276316831762d316c2d312d315a6d2d322032762d316c2d322d322d322d322d322033203320336833762d315a6d342032762d31682d31763168315a6d2d34322d3220312d332d312d312d312d312d3220322d32203220312032763168336c312d325a6d34332034762d31682d31763168315a6d352038762d31682d31763168315a6d312033762d31682d31763168315a6d2d372d332d312d322d312d332d312d3220312d3120312d31682d316c2d312d317632682d326c2d332d3176326c2d312032203120322032203220322d3220322d312d31203320312032203120326831762d335a6d2d3438203120312d322d312d322d322d3276326c2d322d3576346c322031763668316c312d325a6d35302d342d312d347631346c312d33762d375a6d352031312d312d312d31203168325a6d2d35392d362d312d3576376c31203468316c2d312d365a6d2d392d3134762d3168317631682d315a6d3020342d312d3168326c3120322d322d315a6d352037762d31306c322d3120322d32682d326c332d32682d346c2d3420312d322d3248393976336c342d3276336c322d3120312d312031203120312031762d326c2d312d3168346c2d3220337632316837762d395a6d35372031302d312d3176336c312d31762d315a6d2d312d33682d316c2d312031682d3176346c322d3220312d32762d315a6d2d37332d3132762d31682d31763168315a6d2d382031762d31682d31763168315a6d2d312033762d31682d31763168315a6d3020322d312d3176336c312d31762d315a6d372d33762d3168317631682d315a6d2d332032762d326c31203176326c2d312031762d325a6d362031762d3468326c312034762d346c2d332d327632682d356c2d3120312d31203220312032203120316835762d325a6d342032762d32682d326c31203276316831762d315a6d2d313120302d312d3176326c3120316831762d316c2d312d315a6d362033762d31682d31763168315a6d2d322030762d31682d31763168315a6d2d352030762d31682d31763168315a6d2d3420342d312d31386831387631366c2d31203176314838385a6d31392030762d31682d326c312d3220312d31322d312d322d312d334839316c2d352031763230683231762d315a6d313520312d312d3176326c3120316831762d316c2d312d315a6d35302032762d316c2d3120312d3120332d32203320322d3320322d32762d315a6d372035762d32682d3176326c2d3120316832762d315a6d2d332030762d326c2d322031682d3176326833762d315a6d2d382032762d31682d31763168315a6d2d38332d3334762d3168317631682d315a6d2d322033762d3168317631682d315a6d30203234762d326c3120322d312033762d335a6d332033762d3168317631682d315a6d31392031762d3168317631682d315a6d36203220322d3176336c312d31762d316837762d316c2d312d31682d386c2d322d312d312d3176316c2d312032762d346c352031762d316c312d31203120312031203168316c322d312d312d322d322d31682d386c3120324839396c2d392d3176326c3120322d312d322d322d32682d33762d366c2d322034762d31396c32203135762d3138683131762d316c2d312d31203220316831762d334838366c2d3420337633306c322031203120322031322d316831345a6d35372033762d31682d31763168315a6d2d322d31762d31682d316c2d3220322d31203320342d33762d315a6d2d313820332d312d312d31203168325a6d31332031762d31682d31763168315a6d2d31372d3330762d326c3120322d312033762d335a6d2d392031762d316c31203168317631682d316c2d312d315a6d3232203120312d312d312d312d312d3268316c312031203220322d34203220312d315a6d2d382030762d316c31203168317631682d316c2d312d315a6d2d3132203268367631682d36762d315a6d3135203120312d3168326c322031682d336c2d33203120312d315a6d2d31352032762d3168317631682d315a6d31392030762d316c31203168317631682d316c2d312d315a6d2d32352033762d3168317631682d315a6d31322033762d3168317631682d315a6d2d31342031762d3168317631682d315a6d312032762d3168317631682d315a6d3135203320312d3120312031682d325a6d2d31342030762d31683576316c312031682d36762d315a6d3236203120312d312d312d3168356c312d3220322d3376326c2d3120322d3220322031203168312d356c2d33203220312d325a6d2d382d312d312d3120312031203220317631682d316c2d312d325a6d2d352032762d3168316c2d312032682d316c312d315a6d2d36203420312d312d312d322033203120332031682d346c2d3220322d31203120312d325a6d362032762d326c32203120332032203120312031203168326c332d3168316c2d312d322d312d332d35203120312d3268346c3220322032203220342d32762d346c3220312031203120332d362d312d312d322d3120342d35762d326c2d312d32682d346c2d322034682d356c342d3120322d32762d346c2d312d312d322d3120332d352d312d322d312d32682d346c2d322034682d336c2d3220322d32203220312d3320322d3268336c312d3120312d322d312d31762d326c3220312032203220322d3220312d322d322d322d312d32682d336c2d3120327632682d356c2d3120322d31203176316c3120322d312d32682d346c2d32203320312d3220312d312d312d322031203168326c322d3120312d31762d34682d326c2d322d312d312031682d3176346c2d332d31682d326c2d342d342d3220312d32203276336c3220312031203120322d3220322d312d3120332031203220312031683476326c2d342d312d3120327631682d326c312d3220312d322d312d312d312d32682d346c2d322034203220347631682d31762d326c2d312d32682d356c2d3120332031203468346c322d3276356c2d332d312d322d312d32203476336c322031203120312d3120312d322d322d322d32203320352033203668316c322d312d31203176316c33203468356c2d3220312d3120312032203168386c2d312d335a6d2d3336203268316c2d312d322d312d312d3120317631682d33762d32682d3376346838762d315a6d2d392d312d312d312d3120312031203176326c312d32762d315a6d373320332d312d312d312031682d3120335a6d2d31332030762d31682d31763168315a6d2d33372d34762d316c2d3120332d342d33682d326c3120327631683376336c322d3220322d322d312d315a6d3534203420322d322d312d31762d326c2d3220322d322032763268316c322d315a6d2d34312d312d332d312d332d332d332d332d312d322d322d32203120332032203376312d316c3520342034203368336c2d332d325a6d32322032762d316c2d322031682d32763168336c312d315a6d2d31372031762d31682d31763168315a6d323520316831762d336c2d312032682d3476316c2d31203168326c332d315a6d2d372032762d31682d31763168315a6d2d32322030762d31682d31763168315a6d2d362d332d312d322d312032682d336c31203176316c312d3120312d3168326c2d3120312d31203276326c322d3220322d322d322d315a6d312035762d31682d31763168315a6d3337203120352d35762d326c2d322031682d316c2d3220312d33203220312031682d327633682d33762d326c2d322032682d32356c2d322d337633682d316c2d352d342d352d3576316c2d312031683276326c342034203520346833326c352d345a6d2d34372d332d382d382d3220322d3120322d31332d312d352d35682d386c2d332d33762d333768326c312d316834762d336831346c31203320332d3320332d3368386c322d3220312d3268376c312d31762d326833356c3320332032203268346c342d317631336c33203220322032763137682d34763268326c312d31203120347631336c2d3137203136682d33346c2d392d385a222f3e3c706174682066696c6c3d22233230323532392220643d224d31333420313032762d31682d31763168315a6d32312030762d31682d31376c312032683136762d315a6d2d31382030762d31682d316c2d3120326832762d315a6d313420352d342d312d342031682d332031352d345a6d2d32392030762d31682d31763168315a6d333520312d312d312d31203168325a6d2d313820302d312d312d31203168325a6d2d31372032762d31682d31763168315a6d353320302d312d312d312d31682d3176336833762d315a6d2d35392031762d31682d31763168315a6d2d342030762d31682d31763168315a6d2d332030762d31682d31763168315a6d34372031762d316c2d332d332d3420322d312d32682d33763268346c3120322031203168346c312d315a6d2d31322d31762d32682d356c2d3120322031203176316835762d325a6d2d32332035762d31682d316c2d312d3176316c31203168315a6d35203020312d3220352d3320342d33682d326c2d3420332d3320332d3220322d3120316832762d315a6d34322035762d316c2d322d322d322d322d322033203320336833762d315a6d2d3338203020312d332d312d312d312d312d3220322d32203220312032763168336c312d325a6d2d362d32762d316c2d33203576326c332d35762d315a6d343820322d322d342d392d38762d326c2d3220312d31203120322031203120312038203620322034203120346831762d316c2d312d335a6d372031322d312d312d31203168325a6d302033762d31682d31763168315a6d2d372d332d312d322d312d332d312d3220312d3120312d31682d316c2d312d317632682d326c2d332d3176326c2d312032203120322032203220322d3220322d312d31203320312032203120326831762d335a6d322d322d312d357631346c322d342d312d355a6d352031302d312d312d31203168325a6d2d35392d36762d366c32203276336c31203320312d3320312d322d312d322d322d322d312032762d356c2d3120312d3120362d31203720312031203220312d312d365a6d2d312036762d31682d31763168315a6d2d31322d3233762d3168317631682d315a6d352038762d3168317631682d315a6d34203620312d3920312d3320322d322d372d312d362d31682d386c3120346835762d326c32203168316c312d3268326c2d3120322d3120312d31203976396c3120336837762d395a6d35372031302d312d3176336c312d31762d315a6d2d312d33682d316c2d312031682d3176346c322d3220312d32762d315a6d37203130762d33682d3276356832762d325a6d2d332030762d326c2d33203276326833762d325a6d2d39332d3235762d316c31203176316c2d312031762d325a6d302036762d3168317631682d315a6d302035762d316c31203176316c2d312031762d325a6d32322036762d3168317631682d315a6d2d31302d3134762d31682d31763168315a6d2d332d3120322d312d3220312d322031763168316c312d325a6d2d3220352d312d3176356c312d33762d315a6d372d31762d3168317631682d315a6d2d332032762d326c31203176326c2d312031762d325a6d31302033762d32682d326c312d342d352d3320312032682d346c2d3120322d3120312031203276326836762d336c2d312d34203220316831763968316c312d31762d325a6d2d352033762d31682d31763168315a6d2d342d322d322d322d312031203220322031203168326c2d322d325a6d2d332032762d31682d316c2d312d3176316c31203168315a6d322033762d31682d31763168315a6d2d362d38762d396831377631346c2d312034483838762d395a6d2d35203132762d3168317631682d315a6d372032762d3168317631682d315a6d32342034762d316c3120312031203220352d32762d316c2d312d31682d386c2d312d322d322d312034203168356c312d312d322d322d312d32682d356c2d312031682d326c3120332d322d32762d32316c2d31362d312d3520317632306c32312031483835762d3234683133762d34682d376c2d38203120312031682d327633316c31203120322032683239762d315a6d35352031682d316c342d36762d326c2d3420372d31203176326c322d31762d315a6d2d323120342d312d312d31203168325a6d2d33372030762d31682d31763168315a6d33332d3239762d326c3120322d312033762d335a6d2d392031762d316c31203168317631682d316c2d312d315a6d3232203120312d312d312d312d312d3268316c312031203220322d34203220312d315a6d2d382030762d316c31203168317631682d316c2d312d315a6d2d3132203268367631682d36762d315a6d3135203120312d3168326c322031682d336c2d33203120312d315a6d2d31352032762d3168317631682d315a6d31392030762d316c31203168317631682d316c2d312d315a6d2d32352033762d3168317631682d315a6d31322033762d3168317631682d315a6d2d31342031762d3168317631682d315a6d312032762d3168317631682d315a6d3135203320312d3120312031682d325a6d2d31342030762d31683576316c312031682d36762d315a6d3236203120312d312d312d3168356c312d3220322d3376326c2d3120322d3220322031203168312d356c2d33203220312d325a6d2d382d312d312d3120312031203220317631682d316c2d312d325a6d2d352032762d3168316c2d312032682d316c312d315a6d2d36203420312d312d312d322033203120332031682d346c2d3220322d31203120312d325a6d362032762d326c32203120332032203120312031203168326c332d3168316c2d312d322d312d332d35203120312d3268346c3220322032203220342d32762d346c3220312031203120332d362d312d312d322d3120342d35762d326c2d312d32682d346c2d322034682d356c322d3168326c322d3220312d322d322d322d322d3220332d352d312d322d312d32682d346c2d322034682d336c2d3220322d32203220312d3320322d3268336c312d3120312d322d312d31762d326c3220312032203220322d3220312d322d322d322d312d32682d336c2d3120327632682d356c2d3120322d31203176316c3120322d312d32682d346c2d32203320312d3220312d312d312d322031203168326c322d3120312d31762d34682d326c2d322d312d312031682d3176346c2d332d31682d326c2d342d342d3220312d32203276336c3220312031203120322d3220322d312d3120332031203220312031683476326c2d342d312d3120327631682d326c312d3220312d322d312d312d312d32682d346c2d322034203220347631682d31762d326c2d312d32682d356c2d3120332031203468346c322d3276356c2d332d312d322d312d32203476336c322031203120312d3120312d322d322d322d32203320352033203668316c322d312d31203176316c33203468356c2d3220312d3120312032203168386c2d312d335a6d2d33352032762d316c2d312d312d312d312d312032682d33762d32682d33763468386c312d315a6d2d31302030762d32682d316c2d322d31203220346831762d315a6d3232203120322d32762d32682d3876326c33203368316c322d315a6d3536203020322d33682d316c2d312d312d322032682d326c312d32682d337631682d316c3220332032203268316c322d325a6d2d343220302d332d312d332d332d332d332d322d342d322d34682d3176326c2d31203168316c312d3120312033763268326c2d31203268326c2d31203176326c312d3120312d312033203468326c3120322031203168346c2d332d325a6d3234203120342d3220332d32762d326c2d3220322d3220322d3520322d34203268326c342d325a6d2d313920322d312d312d31203168325a6d372031762d31682d31763168315a6d31312033762d31682d32337632683233762d315a6d31312d3420312d3120312031682d325a6d2d34312032762d3168317631682d315a6d2d342d322d312d3120312031203220317631682d316c2d312d325a6d3420352d312d322031203168316c312d31762d316c32203176336c2d322d3376336c31203168322d336c2d322d325a6d3430203020352d34762d326c2d312d32682d326c2d322d312d3420332d35203320312031763168326c2d312d32683176316c322d3120312d3176326c2d312031682d316c312033682d336c312d32682d337632682d3235762d356c2d352d332d352d342d3220332d3220322031312031306833326c352d355a6d2d34372d322d382d382d3320334839376c2d352d35682d386c2d332d33762d333768326c312d316834762d336831346c32203320352d3668386c322d3220312d3268376c312d31762d326833306c34203120342031203120322031203120382d317631336c2d332d32763268326c322031203220322d33203120352d317631316c2d312037682d33763268326c312d3176326c31203776386c2d3137203136682d33346c2d392d385a222f3e3c706174682066696c6c3d22233038306331312220643d226d3132382031303220312d33203120312d3120322d32203220312d325a6d2d312033762d3168317631682d315a6d3235203320312d3120312031682d325a6d2d322030762d3168317631682d315a6d2d31302030762d3168317631682d315a6d2d33203120312d3120312031682d325a6d2d31352030762d3168317631682d315a6d2d322030762d3168317631682d315a6d31342031762d3168317632682d326c312d315a6d323520312d332d32762d316c36203376316c2d332d315a6d31362d31762d346c31203276346c2d312032762d345a6d2d33322033762d3168317631682d315a6d32302031762d3168317631682d315a6d2d33342030762d3168317631682d315a6d2d322031762d3168317631682d315a6d34382030762d316c31203176316c2d312031762d325a6d2d372031762d3168317631682d315a6d2d332d31762d316c31203168317631682d316c2d312d315a6d2d3438203220312d3120312031682d325a6d2d32372d352d312d3176336c312d31762d315a6d313120302d312d31682d3976326837763168326c312d31762d315a6d2d31392035762d326c2d312d3268356c322d31762d33683133763268316c312d3176316c2d31203168326c352d3668346c2d3320312d3220312d3220342031203120312d3120322d32763448383376326c2d312032762d315a6d32382031762d3168317631682d315a6d36312032762d3168317631682d315a6d2d39302030762d3168317631682d315a6d3938203120312d3120312031682d325a6d2d35362030762d3168317631682d315a6d2d31362030762d3168317631682d315a6d36332031762d3168317631682d315a6d2d38392030762d316c31203176316c2d312031762d325a6d39302032762d3168317631682d315a6d2d34392030762d3168317631682d315a6d2d31352030762d3168317631682d315a6d2d3232203020312d326832312d32316c2d312034762d325a6d32372032762d3168317631682d315a6d2d392031762d3168317631682d315a6d31382031762d3168317631682d315a6d35312030762d326c31203176326c2d312031762d325a6d2d373120302d312d32682d366c332d3168336c32203220312032682d316c2d312d315a6d2d31312032762d3168317631682d315a6d2d392d31762d346c31203276346c2d312032762d345a6d39352034762d3168317631682d315a6d322031762d3168317631682d315a6d2d362d32762d326c3120322d312033762d335a6d2d38302030762d3368316c312d312d3120337633682d31762d325a6d2d322032762d3168317631682d315a6d31302030762d3168326c2d312032682d31762d315a6d2d322032762d3168317631682d315a6d2d342030762d3168317631682d315a6d32362d32762d356c31203376356c2d312032762d355a6d2d323720332d312d312032203168317631682d32762d315a6d31342031762d316c31203176316c2d312031762d325a6d37322031762d3168316c2d312032682d316c312d315a6d2d372d31762d326c3120322d312033762d335a6d2d3739203220342d31203820314838396c342d315a6d37382033762d3168317631682d315a6d2d34392d312d312d3220312031203120317631682d31762d315a6d2d33372032762d3168317631682d315a6d38312d3431762d31682d316c2d322d31763268335a6d3133203233762d32682d3276346c322d31762d315a6d2d3631203136762d31682d31763168315a6d2d3120322d312d32682d346c2d352031762d326831306c2d312d37762d376c312d3420322d3320332d36682d313120326c332d31762d346c2d342d316836762d326c2d34203120322d3120332d31762d316c312d3268376c2d322031682d316c2d3520337633682d32763468366c312d3120312d3120322d3220322d31762d316c2d312d3168326c322d31762d366c312032763368346c312d35763568326c322d316831346c31203168316c32203168336c2d312d34682d326c2d3220312d312d332032203168326c32203168336c32203368377631682d3376336c2d312034762d37682d366c2d3120312032203220322031762d316c312d3276326c312032763268316c312031203220332031203468326c2d3120327631683476326c3120317635682d35762d366c2d352d392d332d342d332d332d31302d35682d31346c2d313020332d3720372d3320342d322035763232682d316c2d312d315a6d3720322d312d3220312031203120317631682d31762d315a6d2d31352031762d3168317631682d315a6d37302d31762d33682d3276356c2d312d342d32203120312d3420312d3520312d312d312034763368347636682d31762d325a6d2d332034762d3168317631682d315a6d2d342d3220322d3268316c2d322034682d326c312d325a6d2d34322034762d3168317631682d315a6d2d332d322d322d322033203176326c312031682d316c2d312d325a6d2d32332033762d3168317631682d315a6d2d3136203020322d312032203168322d3720315a6d2d352d322d322d31762d31376c322031362031203220322032682d326c2d312d325a6d37372033762d3168317631682d315a6d38203020312d3220312d3168396c312031203220312d312031682d316c2d322d312d322d3176336c2d312d312d312d322d322031682d327632682d32762d315a6d2d353620302d312d3168382d356c3120317631682d33762d315a6d3636203220312d3120312031682d325a6d2d31352d3220332d3320342d3676326c2d3220322d3120332d3320322d322032682d326c332d325a6d2d333020322d312d312032203168317631682d32762d315a6d2d3138203120312d3120312031682d325a6d2d352030762d3168317631682d315a6d35352030762d316c322d3176326c2d322031762d315a6d2d34352031762d3168317631682d315a6d2d32352d322d312d3220322031203220326831762d34682d326c2d312d31683476356c313020314839376c2d322d325a6d38312032762d3168316c2d312032682d316c312d315a6d2d333920302d312d3168336c312032682d33762d315a6d3131203168376c322d3220322d3176316c2d3320322d342031682d31306c362d315a6d2d33302031762d3168317631682d315a6d31322d312d322d322d332d312d322d31762d32682d346c342d31762d326c2d322d312d312d31682d3920316c392d31203220332032203420342033203420337631682d316c2d322d325a6d2d352033762d3168317631682d315a6d313120312d322d31762d326c3920326831336c342d3220342d3376326c2d3420322d342032682d32305a6d32372031762d3168317631682d315a6d2d33342030762d3168317631682d315a6d34322d3120332d3376326c2d3120312d3220312d32203120322d325a6d2d33372032762d326c31203176326c2d312031762d325a6d3136203220332d312033203168332d313120325a6d2d342030762d3168317631682d315a6d2d38203020322d3120352031682d3920325a6d32372032762d316c322d3120322d312d332033682d315a6d2d34203220322d312031203168322d3620315a6d2d39203020312d3120312031682d325a6d2d332030762d3168317631682d315a6d2d35203020312d312031203168322d3520315a6d2d35203020312d3120312031682d325a6d2d332030762d3168317631682d315a6d2d332030762d3168317631682d315a222f3ea2646970667358221220d0f1a8e087ef874e088cbe0e2bc7e89a65fe062c5d84bb3c1e767bca4b0cca0864736f6c634300081c0033",
          "opcodes": "PUSH1 0x80 PUSH1 0x40 MSTORE CALLVALUE DUP1 ISZERO PUSH1 0xF JUMPI PUSH1 0x0 DUP1 REVERT JUMPDEST POP PUSH2 0x5C21 DUP1 PUSH2 0x1F PUSH1 0x0 CODECOPY PUSH1 0x0 RETURN INVALID PUSH1 0x80 PUSH1 0x40 MSTORE CALLVALUE DUP1 ISZERO PUSH2 0x10 JUMPI PUSH1 0x0 DUP1 REVERT JUMPDEST POP PUSH1 0x4 CALLDATASIZE LT PUSH2 0x2B JUMPI PUSH1 0x0 CALLDATALOAD PUSH1 0xE0 SHR DUP1 PUSH4 0xD607497A EQ PUSH2 0x30 JUMPI JUMPDEST PUSH1 0x0 DUP1 REVERT JUMPDEST PUSH2 0x38 PUSH2 0x4E JUMP JUMPDEST PUSH1 0x40 MLOAD PUSH2 0x45 SWAP2 SWAP1 PUSH2 0x71 JUMP JUMPDEST PUSH1 0x40 MLOAD DUP1 SWAP2 SUB SWAP1 RETURN JUMPDEST PUSH1 0x60 PUSH1 0x40 MLOAD DUP1 PUSH2 0x5B60 ADD PUSH1 0x40 MSTORE DUP1 PUSH2 0x5B2C DUP2 MSTORE PUSH1 0x20 ADD PUSH2 0xC0 PUSH2 0x5B2C SWAP2 CODECOPY SWAP1 POP SWAP1 JUMP JUMPDEST PUSH1 0x20 DUP2 MSTORE PUSH1 0x0 DUP3 MLOAD DUP1 PUSH1 0x20 DUP5 ADD MSTORE PUSH1 0x0 JUMPDEST DUP2 DUP2 LT ISZERO PUSH2 0x9F JUMPI PUSH1 0x20 DUP2 DUP7 ADD DUP2 ADD MLOAD PUSH1 0x40 DUP7 DUP5 ADD ADD MSTORE ADD PUSH2 0x82 JUMP JUMPDEST POP PUSH1 0x0 PUSH1 0x40 DUP3 DUP6 ADD ADD MSTORE PUSH1 0x40 PUSH1 0x1F NOT PUSH1 0x1F DUP4 ADD AND DUP5 ADD ADD SWAP2 POP POP SWAP3 SWAP2 POP POP JUMP INVALID EXTCODECOPY PUSH17 0x6174682066696C6C3D2223346364376539 0x22 KECCAK256 PUSH5 0x3D224D3132 ADDRESS KECCAK256 BALANCE BALANCE CALLDATALOAD PUSH9 0x3530763431682D3530 PUSH27 0x222F3E3C706174682066696C6C3D22233834383538342220643D22 0x4D BALANCE CALLVALUE CODECOPY KECCAK256 BALANCE ORIGIN ADDRESS PUSH23 0x2D31682D31763168315A6D392031762D31682D31763168 BALANCE GAS PUSH14 0x2D31392030762D31682D31763168 BALANCE GAS PUSH14 0x313620312D312D312D3120316832 GAS PUSH14 0x2D313320302D312D312D31203168 ORIGIN GAS PUSH14 0x392032762D31682D31763168315A PUSH14 0x2D382031762D31682D3176316831 GAS PUSH14 0x31362032762D31682D3176316831 GAS PUSH14 0x2D313120302D322D322D322D3120 BALANCE KECCAK256 CALLER PUSH9 0x335A6D2D342030762D BALANCE PUSH9 0x2D31763168315A6D2D CODECOPY KECCAK256 ADDRESS 0x2D BALANCE 0x2D BALANCE 0x2D BALANCE KECCAK256 BALANCE PUSH9 0x2D3120352D325A6D31 CALLDATASIZE KECCAK256 ORIGIN PUSH23 0x2D31682D31763168315A6D2D3220302D312D312D312031 PUSH9 0x325A6D2D332030762D BALANCE PUSH9 0x2D31763168315A6D2D BALANCE ADDRESS KECCAK256 ADDRESS PUSH23 0x2D31682D31763168315A6D31382032762D31682D317631 PUSH9 0x315A6D2D313120302D BALANCE 0x2D BALANCE 0x2D BALANCE KECCAK256 BALANCE PUSH9 0x325A6D382031762D31 PUSH9 0x2D31763168315A6D2D BALANCE CALLER KECCAK256 BALANCE PUSH23 0x2D31682D31763168315A6D2D34302030762D31682D316C 0x2D BALANCE 0x2D BALANCE PUSH23 0x316C31203168315A6D36302031762D316C2D322D317631 PUSH13 0x2D31203168335A6D3320322D31 0x2D BALANCE 0x2D BALANCE KECCAK256 BALANCE PUSH9 0x2D3120352D325A6D2D BALANCE ORIGIN KECCAK256 ADDRESS KECCAK256 BALANCE 0x2D BALANCE PUSH9 0x2D366C2D3120316836 GAS PUSH14 0x2D313420302D312D312D31203168 0x2D BALANCE KECCAK256 CALLDATALOAD 0x2D ORIGIN GAS PUSH14 0x2D322032762D31682D3176316831 GAS PUSH14 0x2D322030762D31682D3176316831 GAS PUSH14 0x32382031762D31682D316C2D3120 ORIGIN PUSH9 0x316C312D315A6D2D31 CALLDATALOAD KECCAK256 ADDRESS PUSH23 0x2D31682D316C2D31203268316C312D315A6D2D35203176 0x2D BALANCE PUSH9 0x2D31763168315A6D31 ORIGIN KECCAK256 BALANCE PUSH23 0x2D31682D31763168315A6D2D32302030762D31682D3176 BALANCE PUSH9 0x315A6D32362031762D BALANCE PUSH9 0x2D31763168315A6D2D BALANCE CALLDATALOAD KECCAK256 ADDRESS PUSH9 0x2D326C2D3120312D31 KECCAK256 BALANCE KECCAK256 CALLER 0x2D BALANCE PUSH9 0x336C2D322D315A6D32 ADDRESS KECCAK256 CALLER PUSH23 0x2D31682D31763168315A6D2D322030762D31682D316C2D ORIGIN 0x2D BALANCE KECCAK256 BALANCE KECCAK256 ORIGIN PUSH9 0x325A6D2D31342D3576 0x2D BALANCE PUSH13 0x31203176316C2D312031762D32 GAS PUSH14 0x34203420322D322D322031682D31 PUSH13 0x2D312D322D312D3220312D3120 ORIGIN 0x2D BALANCE PUSH9 0x2D346C2D3120342D31 KECCAK256 BALANCE PUSH23 0x3168366C2D35203268346C312D315A6D2D313520312D31 0x2D BALANCE 0x2D BALANCE KECCAK256 BALANCE PUSH9 0x2D3120352D325A6D31 CALLDATACOPY KECCAK256 BALANCE PUSH23 0x2D3168317631682D315A6D3320302D312D322D312D3120 BALANCE KECCAK256 BALANCE PUSH9 0x31762D32682D336C2D BALANCE KECCAK256 CALLER 0x2D BALANCE KECCAK256 ORIGIN PUSH9 0x35762D315A6D2D3620 ORIGIN PUSH23 0x2D31682D31763168315A6D2D362D31762D316831763168 0x2D BALANCE GAS PUSH14 0x31203020312D312D332D31682D32 PUSH13 0x2D3120312D3120326836762D31 GAS PUSH14 0x313120332D312D312D312031682D BALANCE KECCAK256 CALLER GAS PUSH14 0x2D313320302D312D312D31203168 0x2D BALANCE KECCAK256 CALLDATALOAD 0x2D ORIGIN GAS PUSH14 0x2D31322032322D312D312D31352D BALANCE CALLDATASIZE 0x2D ORIGIN KECCAK256 ORIGIN 0x2D CALLER KECCAK256 ORIGIN BASEFEE CODECOPY CALLDATACOPY PUSH13 0x2D352D36682D386C2D332D3376 0x2D CALLER CODESIZE PUSH9 0x37762D336831346C32 KECCAK256 ORIGIN KECCAK256 CALLER 0x2D CALLER KECCAK256 ORIGIN 0x2D CALLER PUSH9 0x396C312D3120312D32 PUSH9 0x376C312D31762D3268 CALLER CALLDATASIZE PUSH13 0x35203568336C342D317631336C ORIGIN KECCAK256 ORIGIN KECCAK256 ORIGIN KECCAK256 BALANCE PUSH9 0x327633356C2D392039 0x2D CODECOPY KECCAK256 CODECOPY PUSH9 0x2D33345A222F3E3C70 PUSH2 0x7468 KECCAK256 PUSH7 0x696C6C3D222331 PUSH6 0x633864612220 PUSH5 0x3D224D3134 CODECOPY KECCAK256 BALANCE ORIGIN ADDRESS PUSH23 0x2D31682D31763168315A6D392031762D31682D31763168 BALANCE GAS PUSH14 0x2D31392030762D31682D31763168 BALANCE GAS PUSH14 0x313620312D312D312D3120316832 GAS PUSH14 0x2D313320302D312D312D31203168 ORIGIN GAS PUSH14 0x392032762D31682D31763168315A PUSH14 0x2D382031762D31682D3176316831 GAS PUSH14 0x31362032762D31682D3176316831 GAS PUSH14 0x2D313120302D322D322D322D3120 BALANCE KECCAK256 CALLER PUSH9 0x335A6D2D342030762D BALANCE PUSH9 0x2D31763168315A6D2D CODECOPY KECCAK256 ADDRESS 0x2D BALANCE 0x2D BALANCE 0x2D BALANCE KECCAK256 BALANCE PUSH9 0x2D3120352D325A6D31 CALLDATASIZE KECCAK256 ORIGIN PUSH23 0x2D31682D31763168315A6D2D3220302D312D312D312031 PUSH9 0x325A6D2D332030762D BALANCE PUSH9 0x2D31763168315A6D2D BALANCE ADDRESS KECCAK256 ADDRESS PUSH23 0x2D31682D31763168315A6D31382032762D31682D317631 PUSH9 0x315A6D2D313120302D BALANCE 0x2D BALANCE 0x2D BALANCE KECCAK256 BALANCE PUSH9 0x325A6D382031762D31 PUSH9 0x2D31763168315A6D2D BALANCE CALLER KECCAK256 BALANCE PUSH23 0x2D31682D31763168315A6D2D34302030762D31682D316C 0x2D BALANCE 0x2D BALANCE PUSH23 0x316C31203168315A6D36302031762D316C2D322D317631 PUSH13 0x2D31203168335A6D3231203276 0x2D BALANCE PUSH9 0x2D31763168315A6D2D BALANCE CODESIZE KECCAK256 ADDRESS 0x2D BALANCE 0x2D BALANCE 0x2D BALANCE KECCAK256 BALANCE PUSH9 0x2D3120352D325A6D2D BALANCE ORIGIN KECCAK256 ADDRESS KECCAK256 BALANCE 0x2D BALANCE PUSH9 0x2D366C2D3120316836 GAS PUSH14 0x2D313420302D312D312D31203168 0x2D BALANCE KECCAK256 CALLDATALOAD 0x2D ORIGIN GAS PUSH14 0x2D322032762D31682D3176316831 GAS PUSH14 0x2D322030762D31682D3176316831 GAS PUSH14 0x343820312D312D312D3120316832 GAS PUSH14 0x2D32302030762D31682D316C2D31 KECCAK256 ORIGIN PUSH9 0x316C312D315A6D2D31 CALLDATALOAD KECCAK256 ADDRESS PUSH23 0x2D31682D316C2D31203268316C312D315A6D2D35203176 0x2D BALANCE PUSH9 0x2D31763168315A6D31 ORIGIN KECCAK256 BALANCE PUSH23 0x2D31682D31763168315A6D2D32302030762D31682D3176 BALANCE PUSH9 0x315A6D32362031762D BALANCE PUSH9 0x2D31763168315A6D2D CALLDATALOAD CALLER KECCAK256 BALANCE 0x2D CALLVALUE 0x2D BALANCE 0x2D CALLVALUE KECCAK256 BALANCE PUSH9 0x2D332031352D345A6D 0x2D BALANCE CALLDATALOAD KECCAK256 ADDRESS 0x2D BALANCE 0x2D BALANCE 0x2D BALANCE KECCAK256 BALANCE PUSH9 0x2D3120352D325A6D35 CALLER 0x2D BALANCE PUSH9 0x2D326C2D3120312D31 KECCAK256 BALANCE KECCAK256 CALLER 0x2D BALANCE PUSH9 0x336C2D322D315A6D32 ADDRESS KECCAK256 CALLER PUSH23 0x2D31682D31763168315A6D2D322030762D31682D316C2D ORIGIN 0x2D BALANCE KECCAK256 BALANCE KECCAK256 ORIGIN PUSH9 0x325A6D2D31342D3576 0x2D BALANCE PUSH13 0x31203176316C2D312031762D32 GAS PUSH14 0x34203420322D322D322031682D31 PUSH13 0x2D312D322D312D3220312D3120 ORIGIN 0x2D BALANCE PUSH9 0x2D346C2D3120342D31 KECCAK256 BALANCE PUSH23 0x3168366C2D35203268346C312D315A6D2D313520312D31 0x2D BALANCE 0x2D BALANCE KECCAK256 BALANCE PUSH9 0x2D3120352D325A6D2D ORIGIN CALLVALUE KECCAK256 BALANCE PUSH23 0x2D31682D316C2D312D3176316C31203168315A6D343120 ADDRESS PUSH23 0x2D3168317631682D315A6D3320302D312D322D312D3120 BALANCE KECCAK256 BALANCE PUSH9 0x31762D32682D336C2D BALANCE KECCAK256 CALLER 0x2D BALANCE KECCAK256 ORIGIN PUSH9 0x35762D315A6D2D3620 ORIGIN PUSH23 0x2D31682D31763168315A6D2D362D31762D316831763168 0x2D BALANCE GAS PUSH14 0x31203020312D312D332D31682D32 PUSH13 0x2D3120312D3120326836762D31 GAS PUSH14 0x313120332D312D312D312031682D BALANCE KECCAK256 CALLER GAS PUSH14 0x2D313320302D312D312D31203168 0x2D BALANCE KECCAK256 CALLDATALOAD 0x2D ORIGIN GAS PUSH14 0x2D323220302D322D312D32203168 0x2D BALANCE KECCAK256 CALLDATACOPY 0x2D ORIGIN GAS PUSH14 0x2D362030762D31682D3176316831 GAS PUSH14 0x2D3620302D342D3148383476326C BALANCE CALLVALUE 0x2D BALANCE PUSH9 0x31352D355A6D313220 CALLDATASIZE PUSH23 0x2D31682D316C2D312D3176316C31203168315A6D353520 ADDRESS PUSH23 0x2D31682D316C2D31203268316C312D315A6D2D36203676 0x2D BALANCE PUSH9 0x2D31763168315A6D2D CALLVALUE BALANCE KECCAK256 CALLER 0x2D ORIGIN 0x2D ORIGIN 0x2D ORIGIN 0x2D ORIGIN KECCAK256 CALLER KECCAK256 CALLVALUE PUSH9 0x315A6D33382D312032 0x2D BALANCE 0x2D ORIGIN KECCAK256 BALANCE 0x2D ORIGIN KECCAK256 BALANCE PUSH23 0x3168316C312D325A6D2D33362033762D31682D31763168 BALANCE GAS PUSH14 0x323820322D312D312D3320316836 0x2D ORIGIN GAS PUSH14 0x2D3920302D312D312D3120316832 GAS PUSH14 0x2D3320302D312D312D3120316832 GAS PUSH14 0x2D3820302D312D312D312031682D BALANCE KECCAK256 CALLER GAS PUSH14 0x372032682D31356C2D382D382D39 0x2D CODESIZE 0x2D ORIGIN KECCAK256 ORIGIN 0x2D ORIGIN KECCAK256 ORIGIN BASEFEE CODECOPY CALLDATACOPY PUSH13 0x2D352D36682D386C2D312D322D ORIGIN 0x2D BALANCE PUSH23 0x2D31396C312D313820362D31762D336831346C31203320 CALLER 0x2D CALLER KECCAK256 CALLVALUE 0x2D CALLVALUE PUSH9 0x386C312D3120312D32 PUSH9 0x376C312D31762D3268 CALLER CALLDATASIZE PUSH13 0x3220332032203268346C342D31 PUSH23 0x31336C332032203220327633346C2D3136203137682D32 PUSH13 0x2D3220312D31362D315A222F3E EXTCODECOPY PUSH17 0x6174682066696C6C3D2223313539616332 0x22 KECCAK256 PUSH5 0x3D224D3134 CODECOPY KECCAK256 BALANCE ORIGIN ADDRESS PUSH23 0x2D31682D31763168315A6D2D322030762D31682D317631 PUSH9 0x315A6D31312031762D BALANCE PUSH9 0x2D31763168315A6D2D CALLER KECCAK256 BALANCE 0x2D BALANCE 0x2D BALANCE 0x2D BALANCE KECCAK256 BALANCE PUSH9 0x2D3120335A6D2D3133 KECCAK256 ADDRESS PUSH23 0x2D316C2D342D312031203268335A6D392032762D31682D BALANCE PUSH23 0x3168315A6D2D382031762D31682D31763168315A6D3136 KECCAK256 ORIGIN PUSH23 0x2D31682D31763168315A6D2D322030762D31682D316C2D BALANCE 0x2D BALANCE PUSH23 0x316C31203168315A6D2D392030762D316C2D342D322031 KECCAK256 ORIGIN PUSH23 0x3168335A6D2D313320302D312D312D312031682D312035 0x2D ORIGIN GAS PUSH14 0x3020322D312D312D312031682D31 KECCAK256 CALLDATALOAD 0x2D ORIGIN GAS PUSH14 0x32332032762D31682D3176316831 GAS PUSH14 0x2D322D31762D31682D366C322032 PUSH9 0x336C312D315A6D2D31 CALLER KECCAK256 ADDRESS KECCAK256 BALANCE 0x2D ORIGIN PUSH23 0x2D326C2D332031682D336C312D31762D316C2D31203168 0x2D BALANCE PUSH13 0x3120322031203176326834762D BALANCE GAS PUSH14 0x2D3720312D312D312D3120316832 GAS PUSH14 0x2D342030762D31682D3176316831 GAS PUSH14 0x32382032762D31682D3176316831 GAS PUSH14 0x2D32322030762D31682D31763168 BALANCE GAS PUSH14 0x2D34302D31762D316C2D322D3176 CALLER PUSH9 0x32762D315A6D333720 BALANCE 0x2D BALANCE 0x2D BALANCE PUSH23 0x336C312D31762D315A6D34342033762D31682D31763168 BALANCE GAS PUSH14 0x2D313820302D312D312D31203168 0x2D BALANCE KECCAK256 CALLDATALOAD 0x2D ORIGIN GAS PUSH14 0x2D31362D32762D3168317631682D BALANCE GAS PUSH14 0x342031762D316C312D3120312D31 0x2D BALANCE 0x2D ORIGIN 0x2D BALANCE 0x2D ORIGIN PUSH9 0x2D346C2D3120337634 PUSH13 0x31203168356C2D312D315A6D2D BALANCE CALLER KECCAK256 BALANCE PUSH23 0x2D31682D356C31203168345A6D2D352032762D31682D31 PUSH23 0x3168315A6D343820312D312D312D31203168325A6D2D32 CALLER KECCAK256 ADDRESS KECCAK256 BALANCE 0x2D BALANCE 0x2D BALANCE 0x2D CALLER PUSH23 0x2D326C3220322D312D332D3120312D322031682D316C2D BALANCE 0x2D BALANCE 0x2D ORIGIN KECCAK256 CALLVALUE KECCAK256 BALANCE KECCAK256 BALANCE KECCAK256 BALANCE KECCAK256 ORIGIN PUSH9 0x336C312D315A6D2D31 ORIGIN 0x2D ORIGIN PUSH23 0x2D326C2D322D312D322D312D33203376326C3120326836 PUSH23 0x2D335A6D31352033762D32682D316C2D32203468316C32 0x2D BALANCE PUSH23 0x2D315A6D2D33302033762D31682D31763168315A6D2D32 CALLDATALOAD KECCAK256 ADDRESS 0x2D CALLVALUE 0x2D BALANCE 0x2D CALLVALUE KECCAK256 BALANCE PUSH9 0x2D332031352D345A6D 0x2D BALANCE CALLDATALOAD KECCAK256 ADDRESS 0x2D BALANCE 0x2D BALANCE 0x2D BALANCE KECCAK256 BALANCE PUSH9 0x2D3120352D325A6D37 CALLER KECCAK256 ORIGIN PUSH23 0x2D31682D356C31203168345A6D2D31322D3120312D322D BALANCE 0x2D ORIGIN 0x2D BALANCE 0x2D CALLER PUSH9 0x2D336C2D3120322D31 KECCAK256 ORIGIN KECCAK256 BALANCE KECCAK256 ORIGIN PUSH23 0x3268346C312D315A6D2D31332D3120312D312D322D322D BALANCE 0x2D ORIGIN KECCAK256 BALANCE KECCAK256 CALLER 0x2D CALLER 0x2D CALLVALUE 0x2D BALANCE KECCAK256 ORIGIN 0x2D ORIGIN KECCAK256 ORIGIN PUSH23 0x316C322D3120312032203120312D312031682D3120346C BALANCE 0x2D ORIGIN GAS PUSH14 0x2D32362033762D31682D316C2D31 0x2D BALANCE PUSH23 0x316C31203168315A6D323620332D312D312D3120316832 GAS PUSH14 0x3138203020312D34762D316C2D31 0x2D ORIGIN PUSH9 0x2D336C2D3120322D31 KECCAK256 ORIGIN KECCAK256 CALLER KECCAK256 CALLVALUE PUSH9 0x325A6D2D3133203068 0x2D BALANCE PUSH13 0x322D3120322D312D312D322D31 0x2D CALLER PUSH9 0x2D346C2D3120322D31 KECCAK256 ORIGIN KECCAK256 CALLER KECCAK256 CALLVALUE PUSH9 0x346C2D322D315A6D2D ORIGIN ORIGIN KECCAK256 BALANCE 0x2D ORIGIN 0x2D BALANCE 0x2D ORIGIN KECCAK256 BALANCE PUSH9 0x2D3120372D325A6D2D CALLDATASIZE KECCAK256 ADDRESS PUSH23 0x2D31682D31763168315A6D33342030762D316831763168 0x2D BALANCE GAS PUSH14 0x312030762D33682D347634683476 0x2D BALANCE GAS PUSH14 0x2D343120302D342D314838347632 PUSH13 0x31342D316831352D355A6D3132 KECCAK256 CALLDATASIZE PUSH23 0x2D31682D316C2D312D3176316C31203168315A6D353520 ADDRESS PUSH23 0x2D31682D316C2D31203268316C312D315A6D2D36203676 0x2D BALANCE PUSH9 0x2D31763168315A6D2D CALLVALUE BALANCE KECCAK256 CALLER 0x2D ORIGIN 0x2D ORIGIN 0x2D ORIGIN 0x2D ORIGIN KECCAK256 CALLER KECCAK256 CALLVALUE PUSH9 0x315A6D33382D312032 0x2D BALANCE 0x2D ORIGIN KECCAK256 BALANCE 0x2D ORIGIN KECCAK256 BALANCE PUSH23 0x3168316C312D325A6D2D33362033762D31682D31763168 BALANCE GAS PUSH14 0x323820322D312D312D3320316836 0x2D ORIGIN GAS PUSH14 0x2D3920302D312D312D3120316832 GAS PUSH14 0x2D3320302D312D312D3120316832 GAS PUSH14 0x2D3820302D312D312D312031682D BALANCE KECCAK256 CALLER GAS PUSH14 0x372032682D31356C2D382D382D39 0x2D CODESIZE 0x2D ORIGIN KECCAK256 ORIGIN 0x2D ORIGIN KECCAK256 ORIGIN BASEFEE CODECOPY CALLDATACOPY PUSH13 0x2D352D36682D386C2D312D322D ORIGIN 0x2D BALANCE PUSH23 0x2D31396C312D313820362D31762D336831346C31203320 CALLER 0x2D CALLER KECCAK256 CALLVALUE 0x2D CALLVALUE PUSH9 0x386C312D3120312D32 PUSH9 0x376C312D31762D3268 CALLER CALLDATASIZE PUSH13 0x3220332032203268346C342D31 PUSH23 0x31336C332032203220327633346C2D3136203137682D32 PUSH13 0x2D3220312D31362D315A222F3E EXTCODECOPY PUSH17 0x6174682066696C6C3D2223306435363836 0x22 KECCAK256 PUSH5 0x3D224D3134 CALLDATALOAD KECCAK256 BALANCE BALANCE CALLVALUE PUSH23 0x2D31682D31763168315A6D31322032762D31682D317631 PUSH9 0x315A6D2D3220302D31 0x2D BALANCE 0x2D BALANCE KECCAK256 BALANCE PUSH9 0x325A6D2D3130203076 0x2D BALANCE PUSH9 0x2D31763168315A6D34 KECCAK256 ADDRESS 0x2D BALANCE 0x2D BALANCE PUSH9 0x2D326C332032762D31 GAS PUSH14 0x31302032762D31682D3176316831 GAS PUSH14 0x342034762D31682D31763168315A PUSH14 0x2D38203020312D312D312D322D31 0x2D BALANCE KECCAK256 BALANCE KECCAK256 BALANCE PUSH9 0x32762D316C2D312D31 0x2D CALLER KECCAK256 BALANCE PUSH9 0x2D326C312D31762D32 PUSH13 0x2D312031682D3176346C312031 KECCAK256 BALANCE KECCAK256 BALANCE PUSH9 0x335A6D2D31322D3120 BALANCE 0x2D BALANCE 0x2D ORIGIN 0x2D CALLER 0x2D BALANCE KECCAK256 BALANCE 0x2D BALANCE KECCAK256 BALANCE KECCAK256 BALANCE 0x2D ORIGIN KECCAK256 BALANCE 0x2D ORIGIN PUSH9 0x2D336C2D3120322D31 KECCAK256 ORIGIN KECCAK256 BALANCE KECCAK256 ORIGIN KECCAK256 BALANCE KECCAK256 BALANCE PUSH9 0x34762D315A6D313720 CALLDATALOAD KECCAK256 BALANCE 0x2D BALANCE KECCAK256 BALANCE KECCAK256 BALANCE PUSH9 0x2D325A6D332030762D BALANCE PUSH13 0x2D322D322D322D32762D316C32 KECCAK256 BALANCE PUSH23 0x2D32682D336C2D3120322D3120322033203468336C312D BALANCE GAS PUSH14 0x2D31332D3120312D322D322D3468 0x2D ORIGIN PUSH13 0x2D3220322D3220312031203320 BALANCE KECCAK256 ORIGIN PUSH9 0x346C312D325A6D2D31 CALLER KECCAK256 ADDRESS KECCAK256 BALANCE 0x2D ORIGIN 0x2D ORIGIN 0x2D CALLVALUE PUSH9 0x2D3476326C2D312032 KECCAK256 BALANCE KECCAK256 ORIGIN PUSH23 0x3268346C312D325A6D33302034762D31682D316C2D312D BALANCE PUSH23 0x316C31203168315A6D2D363920302D312D312D31203168 ORIGIN GAS PUSH14 0x363920322D312D312D3120316832 GAS PUSH14 0x2D31302D32762D326C2D322D3468 0x2D ORIGIN PUSH13 0x2D33203376336C312031203120 BALANCE PUSH9 0x346C312D325A6D2D32 CALLDATACOPY KECCAK256 BALANCE KECCAK256 ORIGIN 0x2D ORIGIN 0x2D ORIGIN 0x2D BALANCE PUSH9 0x2D316C312D31762D31 PUSH13 0x2D3220322D322032763268336C BALANCE 0x2D BALANCE GAS PUSH14 0x2D33322032762D31682D326C2D31 KECCAK256 BALANCE PUSH23 0x3168346C2D312D315A6D37312033762D31682D31763168 BALANCE GAS PUSH14 0x31302031762D31682D3176316831 GAS PUSH14 0x2D31362D3120312D31762D376C2D BALANCE KECCAK256 BALANCE PUSH23 0x316C2D332D312D3220322D322032203120322032203268 CALLER PUSH13 0x312D315A6D2D3236203020312D ORIGIN 0x2D BALANCE 0x2D ORIGIN 0x2D BALANCE 0x2D CALLER PUSH9 0x2D346C2D3120332D31 KECCAK256 ORIGIN KECCAK256 BALANCE KECCAK256 ORIGIN KECCAK256 BALANCE KECCAK256 BALANCE PUSH9 0x346C312D315A6D3239 KECCAK256 CALLER 0x2D BALANCE 0x2D BALANCE KECCAK256 BALANCE 0x2D ORIGIN KECCAK256 BALANCE 0x2D ORIGIN PUSH9 0x2D326C2D3120322D31 KECCAK256 ORIGIN KECCAK256 BALANCE KECCAK256 BALANCE PUSH9 0x342D325A6D31332031 0x2D BALANCE 0x2D BALANCE 0x2D BALANCE KECCAK256 BALANCE PUSH9 0x325A6D2D313220312D BALANCE 0x2D BALANCE 0x2D BALANCE KECCAK256 BALANCE PUSH9 0x325A6D2D31302D3176 0x2D CALLER PUSH13 0x2D312D33682D346C2D3120322D BALANCE KECCAK256 BALANCE KECCAK256 BALANCE KECCAK256 ORIGIN PUSH23 0x3268356C312D315A6D2D33312030762D3168317631682D BALANCE GAS PUSH14 0x34203020312D322D322D34682D35 PUSH13 0x312032203120322D3120312031 KECCAK256 BALANCE PUSH23 0x3168336C312D315A6D2D323620342D342D312D34203168 0x2D CALLER KECCAK256 BALANCE CALLDATALOAD 0x2D CALLVALUE GAS PUSH14 0x2D313520302D312D312D31203168 0x2D BALANCE KECCAK256 CALLDATALOAD 0x2D ORIGIN GAS PUSH14 0x37372D312D3220322D3120312032 0x2D BALANCE KECCAK256 ORIGIN 0x2D BALANCE 0x2D BALANCE 0x2D BALANCE GAS PUSH14 0x2D33203120312D322D322D34682D CALLVALUE PUSH13 0x2D3120332D3120322031203220 BALANCE KECCAK256 BALANCE PUSH9 0x346C312D325A6D2D35 ORIGIN KECCAK256 CALLER PUSH23 0x2D31682D316C2D312D3176316C31203168315A6D33332D CODECOPY PUSH23 0x2D326C34203176316C2D342031762D315A6D3132203131 KECCAK256 BALANCE 0x2D ORIGIN 0x2D ORIGIN 0x2D CALLDATALOAD 0x2D CALLER KECCAK256 ORIGIN 0x2D ORIGIN KECCAK256 BALANCE KECCAK256 BALANCE 0x2D BALANCE PUSH23 0x2D316C2D312D332D312D3320312D3220312D322D322D34 PUSH9 0x2D347632682D326C31 0x2D CALLER 0x2D ORIGIN 0x2D CALLVALUE PUSH9 0x2D326C2D3220332D32 KECCAK256 ORIGIN KECCAK256 ORIGIN KECCAK256 ORIGIN KECCAK256 BALANCE KECCAK256 BALANCE PUSH9 0x3476326C312031682D ORIGIN PUSH13 0x2D322D312D3220322D32203268 BALANCE PUSH23 0x31682D326C2D322D312D3220322D312032203120322032 KECCAK256 ORIGIN PUSH9 0x336C312D3120312D32 0x2D BALANCE 0x2D CALLER KECCAK256 CALLVALUE KECCAK256 ORIGIN KECCAK256 ORIGIN 0x2D BALANCE KECCAK256 BALANCE 0x2D BALANCE PUSH23 0x326C31203468346C3220332031203268336C312D325A6D 0x2D BALANCE ORIGIN KECCAK256 BALANCE KECCAK256 BALANCE 0x2D ORIGIN 0x2D BALANCE 0x2D CALLER 0x2D BALANCE 0x2D CALLER 0x2D CALLVALUE KECCAK256 BALANCE 0x2D BALANCE KECCAK256 ORIGIN 0x2D BALANCE KECCAK256 ORIGIN KECCAK256 CALLER KECCAK256 CALLVALUE PUSH9 0x326C322D315A6D2D32 CALLVALUE KECCAK256 BALANCE 0x2D ORIGIN 0x2D BALANCE 0x2D ORIGIN KECCAK256 BALANCE PUSH9 0x2D3120372D325A6D2D CALLDATASIZE KECCAK256 ADDRESS PUSH23 0x2D31682D31763168315A6D34362D3120312D3120312031 KECCAK256 BALANCE KECCAK256 BALANCE PUSH23 0x2D326C2D312D31682D346C2D3120312D31203276316833 PUSH13 0x312D325A6D2D353220312D342D BALANCE BASEFEE CODESIZE CALLVALUE PUSH23 0x326C31342D316831352D355A6D3432203220312D322D32 0x2D ORIGIN 0x2D ORIGIN 0x2D ORIGIN 0x2D BALANCE KECCAK256 BALANCE 0x2D ORIGIN KECCAK256 BALANCE PUSH23 0x346831763168346C312D315A6D2D3720312D312D312D31 KECCAK256 BALANCE PUSH9 0x2D3120335A6D2D352D CALLVALUE 0x2D BALANCE 0x2D ORIGIN PUSH9 0x2D336C2D332031762D CALLER PUSH13 0x2D312D33682D346C3320362032 KECCAK256 BALANCE PUSH9 0x3176316C2D31203168 CALLVALUE PUSH13 0x31203176316C322D32762D325A PUSH14 0x2D31382037762D31682D316C2D31 0x2D BALANCE PUSH23 0x316C31203168315A6D35352030762D31682D316C2D3120 ORIGIN PUSH9 0x316C312D315A6D2D36 KECCAK256 CALLDATASIZE PUSH23 0x2D31682D31763168315A6D2D343120332D322D322D322D ORIGIN KECCAK256 CALLER KECCAK256 CALLVALUE PUSH9 0x315A6D33382D312032 0x2D BALANCE 0x2D ORIGIN KECCAK256 BALANCE 0x2D ORIGIN KECCAK256 BALANCE PUSH23 0x3168316C312D325A6D2D33362033762D31682D31763168 BALANCE GAS PUSH14 0x323820322D312D312D3320316836 0x2D ORIGIN GAS PUSH14 0x2D3920302D312D312D3120316832 GAS PUSH14 0x2D3320302D312D312D3120316832 GAS PUSH14 0x2D3820302D312D312D312031682D BALANCE KECCAK256 CALLER GAS PUSH14 0x372032682D31356C2D382D382D39 0x2D CODESIZE 0x2D ORIGIN KECCAK256 ORIGIN 0x2D ORIGIN KECCAK256 ORIGIN BASEFEE CODECOPY CALLDATACOPY PUSH13 0x2D352D36682D386C2D312D322D ORIGIN 0x2D BALANCE PUSH23 0x2D31396C312D313820362D31762D336831346C31203320 CALLER 0x2D CALLER KECCAK256 CALLVALUE 0x2D CALLVALUE PUSH9 0x386C312D3120312D32 PUSH9 0x376C312D31762D3268 CALLER CALLDATASIZE PUSH13 0x3220332032203268346C342D31 PUSH23 0x31336C332032203220327633346C2D3136203137682D32 PUSH13 0x2D3220312D31362D315A222F3E EXTCODECOPY PUSH17 0x6174682066696C6C3D2223343234343433 0x22 KECCAK256 PUSH5 0x3D224D3135 CALLER KECCAK256 BALANCE BALANCE ORIGIN PUSH23 0x2D31682D31763168315A6D3720342D312D322D312D312D ORIGIN KECCAK256 CALLER KECCAK256 BALANCE KECCAK256 BALANCE KECCAK256 BALANCE KECCAK256 BALANCE PUSH9 0x336C2D312D325A6D2D ORIGIN CALLER KECCAK256 ADDRESS KECCAK256 BALANCE 0x2D ORIGIN 0x2D CALLDATALOAD KECCAK256 BALANCE 0x2D BALANCE KECCAK256 CALLER PUSH9 0x346C312D325A6D3236 KECCAK256 CALLER PUSH23 0x2D31682D31763168315A6D2D37203120312D312D312D32 0x2D ORIGIN 0x2D ORIGIN PUSH9 0x2D336C2D3120322D31 KECCAK256 ORIGIN KECCAK256 BALANCE KECCAK256 BALANCE KECCAK256 ORIGIN KECCAK256 ORIGIN PUSH9 0x336C312D325A6D2D31 ORIGIN KECCAK256 ADDRESS KECCAK256 ORIGIN 0x2D CALLER KECCAK256 BALANCE KECCAK256 BALANCE PUSH9 0x316C312D3220312D32 0x2D CALLER 0x2D CALLER 0x2D CALLER KECCAK256 BALANCE PUSH23 0x336C3120342D312D322D322D32682D336C2D3120322D31 KECCAK256 ORIGIN KECCAK256 BALANCE KECCAK256 ORIGIN KECCAK256 BALANCE KECCAK256 BALANCE PUSH9 0x336C322D325A6D2D31 CALLER 0x2D ORIGIN 0x2D BALANCE 0x2D BALANCE PUSH23 0x33682D316C2D312D3176316C312031682D326C31203220 ORIGIN 0x2D ORIGIN KECCAK256 BALANCE 0x2D ORIGIN PUSH23 0x2D315A6D3332203720312D312D322D332D312D32682D33 PUSH13 0x2D3120322D3120312031203320 BALANCE KECCAK256 ORIGIN PUSH9 0x346C312D325A6D2D36 CALLVALUE KECCAK256 CALLVALUE 0x2D BALANCE 0x2D BALANCE 0x2D BALANCE KECCAK256 BALANCE PUSH9 0x2D3120335A6D36372D CALLER PUSH23 0x2D3168317631682D315A6D33203320312D312D312D322D ORIGIN 0x2D ORIGIN 0x2D CALLER KECCAK256 BALANCE 0x2D BALANCE KECCAK256 ORIGIN PUSH23 0x316C3120322031203168336C312D325A6D2D3132203076 0x2D ORIGIN PUSH13 0x2D322D34682D336C2D3120312D BALANCE KECCAK256 ORIGIN PUSH23 0x336C3120312031203168346C312D325A6D2D3237203120 BALANCE 0x2D ORIGIN 0x2D BALANCE 0x2D ORIGIN 0x2D BALANCE 0x2D ORIGIN PUSH9 0x2D34763768346C312D BALANCE GAS PUSH14 0x34302033762D31682D3176316831 GAS PUSH14 0x2D37312D312D312D32682D336C2D BALANCE KECCAK256 CALLVALUE KECCAK256 CALLDATALOAD 0x2D BALANCE PUSH23 0x316C2D31203220312D3120312D312D312D325A6D383020 CALLVALUE PUSH23 0x2D31682D31763168315A6D3020332D312D312D31203168 ORIGIN GAS PUSH14 0x2D392032762D31682D3176316831 GAS PUSH14 0x2D34352031762D31682D31763168 BALANCE GAS PUSH14 0x2D323120312D342D312D34203168 0x2D CALLER KECCAK256 BALANCE CALLDATALOAD 0x2D CALLVALUE GAS PUSH14 0x2D313520302D312D312D31203168 0x2D BALANCE KECCAK256 CALLDATALOAD 0x2D ORIGIN GAS PUSH14 0x32322033762D31682D316C2D312D BALANCE PUSH23 0x316C31203168315A6D35372D32762D31682D316C2D312D BALANCE 0x2D ORIGIN KECCAK256 BALANCE 0x2D BALANCE KECCAK256 ORIGIN KECCAK256 BALANCE KECCAK256 ORIGIN PUSH23 0x326C342D34762D315A6D2D343820362D322D312D322031 PUSH9 0x2D3120372D325A6D2D CALLDATASIZE KECCAK256 ADDRESS PUSH23 0x2D31682D31763168315A6D2D3620302D342D3148383476 ORIGIN PUSH13 0x31342D316831352D355A6D3330 KECCAK256 BALANCE PUSH23 0x2D326C2D312D312D312D322D3320312D32203176336C33 KECCAK256 ORIGIN PUSH9 0x34762D325A6D2D312D BALANCE CODECOPY PUSH23 0x2D3168366C31203276326C2D312D312D312D322D352032 PUSH23 0x2D325A6D382035762D3168316C2D312032682D316C312D BALANCE GAS PUSH14 0x31312033762D3168317631682D31 GAS PUSH14 0x2D31332030762D3168317631682D BALANCE GAS PUSH14 0x392031762D3168316C2D31203268 0x2D BALANCE PUSH13 0x312D315A6D2D392031762D3168 BALANCE PUSH23 0x31682D315A6D2D362D31762D326C322031203120317631 PUSH13 0x2D312031682D32762D325A6D31 CALLER KECCAK256 CALLER PUSH23 0x2D3168317631682D315A6D2D362030762D316831763168 0x2D BALANCE GAS PUSH14 0x30203320322D3268336C3320342D CALLER 0x2D ORIGIN 0x2D ORIGIN 0x2D BALANCE 0x2D ORIGIN KECCAK256 ORIGIN 0x2D ORIGIN KECCAK256 ORIGIN KECCAK256 BALANCE 0x2D CALLER GAS PUSH14 0x362035762D336C33203168336C31 KECCAK256 CALLER PUSH9 0x336C312D3120322D32 PUSH23 0x2D316C2D312D322D332031682D336C312D31762D316C2D BALANCE 0x2D ORIGIN 0x2D BALANCE 0x2D CALLER KECCAK256 CALLER KECCAK256 CALLVALUE PUSH9 0x346C312D3220312D32 PUSH23 0x2D316C2D312D31203220312032203120322D3220312D32 0x2D BALANCE 0x2D ORIGIN 0x2D BALANCE 0x2D ORIGIN PUSH9 0x2D336C2D3120322D31 KECCAK256 CALLER PUSH9 0x2D366C312D31762D31 PUSH9 0x346C312D3120312D32 0x2D BALANCE 0x2D ORIGIN 0x2D BALANCE 0x2D CALLER PUSH9 0x2D336C2D3320342032 KECCAK256 CALLER PUSH9 0x2D32762D326C2D342D BALANCE 0x2D BALANCE KECCAK256 ORIGIN 0x2D BALANCE KECCAK256 ORIGIN KECCAK256 BALANCE KECCAK256 ORIGIN PUSH23 0x326C2D312D322D312D3220312D3220312D322D332D3520 ORIGIN 0x2D ORIGIN KECCAK256 BALANCE 0x2D ORIGIN 0x2D BALANCE 0x2D ORIGIN 0x2D BALANCE 0x2D ORIGIN PUSH9 0x2D336C2D3120322D32 KECCAK256 ORIGIN KECCAK256 BALANCE KECCAK256 ORIGIN KECCAK256 BALANCE KECCAK256 ORIGIN PUSH9 0x326C2D332033682D31 PUSH13 0x312D332D322D34682D336C2D31 KECCAK256 ORIGIN PUSH23 0x31682D326C312D3120312D322D312D322D312D32682D34 PUSH13 0x2D3120322D3120322031203220 BALANCE KECCAK256 ORIGIN PUSH9 0x3476316C3120312D32 0x2D BALANCE PUSH9 0x2D336C2D3120322D31 KECCAK256 ORIGIN KECCAK256 BALANCE KECCAK256 ORIGIN KECCAK256 BALANCE KECCAK256 ORIGIN PUSH9 0x357632682D356C2D32 0x2D CALLVALUE 0x2D CALLDATASIZE 0x2D BALANCE KECCAK256 BALANCE KECCAK256 CALLER PUSH23 0x336C3120312031203120332D3176326C3120312D332D31 PUSH9 0x2D3276326C31203320 BALANCE KECCAK256 ORIGIN PUSH9 0x326C312D3468356C33 KECCAK256 CALLDATALOAD PUSH9 0x336C35203468326C31 0x2D ORIGIN GAS PUSH14 0x35203220312D312D342D322D3120 BALANCE 0x2D BALANCE KECCAK256 ORIGIN PUSH23 0x3168346C312D315A6D2D3131203168316C2D322D322D32 0x2D ORIGIN 0x2D ORIGIN KECCAK256 ORIGIN 0x2D ORIGIN KECCAK256 ORIGIN PUSH9 0x326C32203168326C31 0x2D BALANCE GAS PUSH14 0x2D32342031762D31682D316C2D31 0x2D BALANCE PUSH23 0x316C31203168315A6D35352030762D31682D316C2D3120 ORIGIN PUSH9 0x316C312D315A6D2D36 KECCAK256 CALLDATASIZE PUSH23 0x2D31682D31763168315A6D2D343120332D322D322D322D ORIGIN KECCAK256 CALLER KECCAK256 CALLVALUE PUSH9 0x315A6D33382D312032 0x2D BALANCE 0x2D ORIGIN KECCAK256 BALANCE 0x2D ORIGIN KECCAK256 BALANCE PUSH23 0x3168316C312D325A6D2D33362033762D31682D31763168 BALANCE GAS PUSH14 0x323820322D312D312D3320316836 0x2D ORIGIN GAS PUSH14 0x2D3920302D312D312D3120316832 GAS PUSH14 0x2D3320302D312D312D3120316832 GAS PUSH14 0x2D3820302D312D312D312031682D BALANCE KECCAK256 CALLER GAS PUSH14 0x372032682D31356C2D382D382D39 0x2D CODESIZE 0x2D ORIGIN KECCAK256 ORIGIN 0x2D ORIGIN KECCAK256 ORIGIN BASEFEE CODECOPY CALLDATACOPY PUSH13 0x2D352D36682D386C2D312D322D ORIGIN 0x2D BALANCE PUSH23 0x2D31396C312D313820362D31762D336831346C31203320 CALLER 0x2D CALLER KECCAK256 CALLVALUE 0x2D CALLVALUE PUSH9 0x386C312D3120312D32 PUSH9 0x376C312D31762D3268 CALLER CALLDATASIZE PUSH13 0x3220332032203268346C342D31 PUSH23 0x31336C332032203220327633346C2D3136203137682D32 PUSH13 0x2D3220312D31362D315A222F3E EXTCODECOPY PUSH17 0x6174682066696C6C3D2223326433333338 0x22 KECCAK256 PUSH5 0x3D226D3134 CODESIZE KECCAK256 BALANCE ADDRESS ORIGIN 0x2D ORIGIN 0x2D BALANCE 0x2D CALLER KECCAK256 BALANCE PUSH9 0x2D322031302D335A6D CALLDATALOAD KECCAK256 BALANCE ADDRESS PUSH23 0x2D31682D31763168315A6D31332032762D31682D316C2D BALANCE 0x2D BALANCE PUSH23 0x316C31203168315A6D2D33392031762D31682D31763168 BALANCE GAS PUSH14 0x2D34312032762D31682D31763168 BALANCE GAS PUSH14 0x37342D312D312D322D312D312D32 KECCAK256 CALLER KECCAK256 BALANCE KECCAK256 BALANCE KECCAK256 BALANCE KECCAK256 BALANCE PUSH9 0x336C2D312D325A6D2D ORIGIN CALLER KECCAK256 ADDRESS KECCAK256 BALANCE 0x2D ORIGIN 0x2D CALLDATALOAD KECCAK256 BALANCE 0x2D BALANCE KECCAK256 CALLER PUSH9 0x346C312D325A6D2D32 ORIGIN KECCAK256 ORIGIN 0x2D BALANCE 0x2D BALANCE 0x2D BALANCE KECCAK256 BALANCE PUSH9 0x325A6D2D31372D312D BALANCE 0x2D BALANCE PUSH23 0x336C312D31762D315A6D36352032762D31682D31763168 BALANCE GAS PUSH14 0x2D33392030762D31682D31763168 BALANCE GAS PUSH14 0x2D31382D31762D31682D316C2D31 KECCAK256 ORIGIN PUSH9 0x316C312D315A6D3820 ORIGIN PUSH23 0x2D31682D31763168315A6D2D32382D31762D31682D3276 ORIGIN PUSH9 0x316C312D315A6D2D33 KECCAK256 BALANCE PUSH23 0x2D31682D31763168315A6D333420302D312D3176336C31 0x2D BALANCE PUSH23 0x2D315A6D3339203020312D312D312D322D322D32682D33 PUSH13 0x2D3120322D3120322031203120 ORIGIN KECCAK256 ORIGIN PUSH9 0x336C312D325A6D2D31 ORIGIN KECCAK256 ADDRESS KECCAK256 ORIGIN 0x2D CALLER KECCAK256 BALANCE KECCAK256 BALANCE PUSH9 0x316C312D3220312D32 0x2D CALLER 0x2D CALLER 0x2D CALLER KECCAK256 BALANCE PUSH23 0x336C3120342D312D322D322D32682D336C2D3120322D31 KECCAK256 ORIGIN KECCAK256 BALANCE KECCAK256 ORIGIN KECCAK256 BALANCE KECCAK256 BALANCE PUSH9 0x336C322D325A6D3238 KECCAK256 CALLER PUSH23 0x2D31682D31763168315A6D2D34312D352D312D31763368 0x2D BALANCE PUSH13 0x2D312D3176316C312031682D32 PUSH13 0x31203220322D3220312D32762D BALANCE GAS PUSH14 0x2D343720342D312D3176336C312D BALANCE PUSH23 0x2D315A6D38392033762D31682D31763168315A6D2D3130 KECCAK256 ADDRESS KECCAK256 BALANCE 0x2D BALANCE 0x2D ORIGIN 0x2D CALLER 0x2D BALANCE 0x2D ORIGIN PUSH9 0x2D336C2D3120322D31 KECCAK256 BALANCE KECCAK256 BALANCE KECCAK256 CALLER KECCAK256 BALANCE KECCAK256 ORIGIN PUSH9 0x346C312D325A6D2D34 ORIGIN KECCAK256 CALLER PUSH23 0x2D31682D31763168315A6D2D323220312D312D312D3120 BALANCE PUSH9 0x2D3120335A6D342031 PUSH23 0x2D31682D31763168315A6D36332D34762D316831763168 0x2D BALANCE GAS PUSH14 0x33203320312D312D312D322D322D ORIGIN 0x2D CALLER KECCAK256 BALANCE 0x2D BALANCE KECCAK256 ORIGIN PUSH23 0x316C3120322031203168336C312D325A6D2D3132203076 0x2D ORIGIN PUSH13 0x2D322D34682D336C2D3120312D BALANCE KECCAK256 ORIGIN PUSH23 0x336C3120312031203168346C312D325A6D2D3237203120 BALANCE 0x2D ORIGIN 0x2D BALANCE 0x2D ORIGIN 0x2D BALANCE 0x2D ORIGIN PUSH9 0x2D34763768346C312D BALANCE GAS PUSH14 0x34302033762D31682D3176316831 GAS PUSH14 0x2D36372031762D31682D31763168 BALANCE GAS PUSH14 0x2D31332030762D31682D31763168 BALANCE GAS PUSH14 0x38342031762D31682D3176316831 GAS PUSH14 0x2D37352D332D312D32682D336C2D BALANCE KECCAK256 CALLVALUE KECCAK256 CALLDATALOAD 0x2D BALANCE PUSH23 0x316C2D31203220312D3120312D312D312D325A6D383020 CALLVALUE PUSH23 0x2D31682D31763168315A6D2D39322D392D312D34763134 PUSH13 0x312D33762D375A6D333320372D BALANCE 0x2D ORIGIN PUSH23 0x366C312D31762D335A6D2D32362033762D31682D316C2D BALANCE 0x2D BALANCE PUSH23 0x316C31203168315A6D383020302D312D3176336C312D31 PUSH23 0x2D315A6D2D38322031762D31682D31763168315A6D3838 KECCAK256 ADDRESS PUSH23 0x2D31682D33763268326C312D315A6D2D36392D35762D31 PUSH13 0x3220317631682D336C312D315A PUSH14 0x3520362D312D32762D366C312D35 0x2D BALANCE 0x2D BALANCE 0x2D BALANCE 0x2D BALANCE 0x2D BALANCE KECCAK256 BALANCE PUSH23 0x31682D316C2D322D3120312D31762D316C332031683276 0x2D ORIGIN PUSH9 0x2D36762D316C312D31 KECCAK256 BALANCE 0x2D ORIGIN PUSH23 0x2D316C2D342033203120327631386837762D315A6D2D31 ADDRESS 0x2D CALLDATACOPY PUSH23 0x2D396C2D313720316831367631366831762D385A6D3733 KECCAK256 CODECOPY 0x2D BALANCE 0x2D BALANCE 0x2D BALANCE KECCAK256 BALANCE PUSH9 0x325A6D2D392030762D BALANCE PUSH9 0x2D31763168315A6D2D CALLVALUE CODECOPY 0x2D BALANCE 0x2D BALANCE 0x2D BALANCE PUSH23 0x336C312D31762D315A6D35322032762D31682D31763168 BALANCE GAS PUSH14 0x2D34382030762D31682D31763168 BALANCE GAS PUSH14 0x2D332031762D31682D3176316831 GAS PUSH14 0x2D31352D314838386C2D312D332D BALANCE 0x2D ORIGIN PUSH23 0x36683231762D315A6D36352033762D31682D3176316831 GAS PUSH14 0x2D34392030762D31682D31763168 BALANCE GAS PUSH14 0x312032762D31682D31763168315A PUSH14 0x2D392D316832762D316C2D312D32 PUSH9 0x2D326C2D3620312032 KECCAK256 ORIGIN KECCAK256 BALANCE KECCAK256 BALANCE KECCAK256 ORIGIN 0x2D BALANCE KECCAK256 BALANCE 0x2D BALANCE KECCAK256 BALANCE KECCAK256 BALANCE GAS PUSH14 0x35332D32762D31682D316C2D312D BALANCE 0x2D ORIGIN KECCAK256 BALANCE 0x2D BALANCE KECCAK256 ORIGIN KECCAK256 BALANCE KECCAK256 ORIGIN PUSH23 0x326C342D34762D315A6D312036762D31682D3176316831 GAS PUSH14 0x313020312D312D312D3120316832 GAS PUSH14 0x2D342030762D31682D3176316831 GAS PUSH14 0x2D35342D312D312D31682D377632 PUSH9 0x38762D315A6D2D3139 0x2D CALLVALUE PUSH23 0x2D3168317631682D315A6D2D31362032762D3168317631 PUSH9 0x2D315A6D3132203076 0x2D BALANCE PUSH13 0x3220317631682D32762D315A6D 0x2D CALLDATALOAD KECCAK256 BALANCE KECCAK256 BALANCE 0x2D BALANCE KECCAK256 BALANCE KECCAK256 BALANCE PUSH9 0x2D325A6D3139203176 0x2D ORIGIN PUSH9 0x2D316C2D322D317632 PUSH9 0x2D36762D326C312031 PUSH9 0x326C312D31762D316C 0x2D ORIGIN 0x2D BALANCE 0x2D CALLER 0x2D BALANCE 0x2D ORIGIN KECCAK256 ORIGIN PUSH23 0x2D316C2D312D312D342031682D356C3120312031203168 0x2D ORIGIN PUSH13 0x2D32203120312D332D31203168 0x2D ORIGIN PUSH23 0x2D326C2D312D33682D336C32203376346C2D322D317631 PUSH13 0x31203220322031683237762D31 GAS PUSH14 0x32352D3138762D3168366C312032 PUSH23 0x326C2D312D312D312D322D352032762D325A6D38203576 0x2D BALANCE PUSH9 0x316C2D312032682D31 PUSH13 0x312D315A6D31312033762D3168 BALANCE PUSH23 0x31682D315A6D2D31332030762D3168317631682D315A6D CODECOPY KECCAK256 BALANCE PUSH23 0x2D3168316C2D312032682D316C312D315A6D2D39203176 0x2D BALANCE PUSH9 0x317631682D315A6D2D CALLDATASIZE 0x2D BALANCE PUSH23 0x2D326C3220312031203176316C2D312031682D32762D32 GAS PUSH14 0x31332033762D3168317631682D31 GAS PUSH14 0x2D362030762D3168317631682D31 GAS PUSH14 0x30203320322D3268336C3320342D CALLER 0x2D ORIGIN 0x2D ORIGIN 0x2D BALANCE 0x2D ORIGIN KECCAK256 ORIGIN 0x2D ORIGIN KECCAK256 ORIGIN KECCAK256 BALANCE 0x2D CALLER GAS PUSH14 0x362035762D336C33203168336C31 KECCAK256 CALLER PUSH9 0x336C312D3120322D32 PUSH23 0x2D316C2D312D322D332031682D336C312D31762D316C2D BALANCE 0x2D ORIGIN 0x2D BALANCE 0x2D CALLER KECCAK256 CALLER KECCAK256 CALLVALUE PUSH9 0x346C312D3220312D32 PUSH23 0x2D316C2D312D31203220312032203120322D3220312D32 0x2D BALANCE 0x2D ORIGIN 0x2D BALANCE 0x2D ORIGIN PUSH9 0x2D336C2D3120322D31 KECCAK256 CALLER PUSH9 0x2D366C312D31762D31 PUSH9 0x346C312D3120312D32 0x2D BALANCE 0x2D ORIGIN 0x2D BALANCE 0x2D CALLER PUSH9 0x2D336C2D3320342032 KECCAK256 CALLER PUSH9 0x2D32762D326C2D342D BALANCE 0x2D BALANCE KECCAK256 ORIGIN 0x2D BALANCE KECCAK256 ORIGIN KECCAK256 BALANCE KECCAK256 ORIGIN PUSH23 0x326C2D312D322D312D3220312D3220312D322D332D3520 ORIGIN 0x2D ORIGIN KECCAK256 BALANCE 0x2D ORIGIN 0x2D BALANCE 0x2D ORIGIN 0x2D BALANCE 0x2D ORIGIN PUSH9 0x2D336C2D3120322D32 KECCAK256 ORIGIN KECCAK256 BALANCE KECCAK256 ORIGIN KECCAK256 BALANCE KECCAK256 ORIGIN PUSH9 0x326C2D332033682D31 PUSH13 0x312D332D322D34682D336C2D31 KECCAK256 ORIGIN PUSH23 0x31682D326C312D3120312D322D312D322D312D32682D34 PUSH13 0x2D3120322D3120322031203220 BALANCE KECCAK256 ORIGIN PUSH9 0x3476316C3120312D32 0x2D BALANCE PUSH9 0x2D336C2D3120322D31 KECCAK256 ORIGIN KECCAK256 BALANCE KECCAK256 ORIGIN KECCAK256 BALANCE KECCAK256 ORIGIN PUSH9 0x357632682D356C2D32 0x2D CALLVALUE 0x2D CALLDATASIZE 0x2D BALANCE KECCAK256 BALANCE KECCAK256 CALLER PUSH23 0x336C3120312031203120332D3176326C3120312D332D31 PUSH9 0x2D3276326C31203320 BALANCE KECCAK256 ORIGIN PUSH9 0x326C312D3468356C33 KECCAK256 CALLDATALOAD PUSH9 0x336C35203468326C31 0x2D ORIGIN GAS PUSH14 0x35203220312D312D342D322D3120 BALANCE 0x2D BALANCE KECCAK256 ORIGIN PUSH23 0x3168346C312D315A6D3130203020312D32682D316C2D31 KECCAK256 ORIGIN 0x2D ORIGIN KECCAK256 ORIGIN PUSH9 0x316C322D325A6D2D31 CODESIZE KECCAK256 ORIGIN PUSH23 0x2D31682D31763168315A6D2D332D3168316C2D322D322D ORIGIN 0x2D ORIGIN 0x2D CALLVALUE KECCAK256 CALLVALUE KECCAK256 BALANCE 0x2D CALLDATASIZE 0x2D ORIGIN 0x2D CALLER 0x2D CALLER KECCAK256 BALANCE 0x2D ORIGIN KECCAK256 BALANCE PUSH23 0x326C312032203420322035203268326C312D315A6D2D33 CALLDATASIZE KECCAK256 ADDRESS PUSH23 0x2D316C2D322031682D326C2D332D3276316C2D31203176 BALANCE PUSH9 0x38762D315A6D353320 ORIGIN PUSH23 0x2D31682D31763168315A6D313520312D312D3120312D32 KECCAK256 BALANCE 0x2D ORIGIN 0x2D ORIGIN KECCAK256 ORIGIN 0x2D ORIGIN KECCAK256 ORIGIN PUSH23 0x3168335A6D2D31372030762D31682D31763168315A6D2D ORIGIN CALLDATACOPY 0x2D ORIGIN 0x2D CALLER 0x2D ORIGIN 0x2D CALLDATALOAD 0x2D CALLDATASIZE KECCAK256 ORIGIN KECCAK256 CALLVALUE KECCAK256 CODESIZE KECCAK256 CALLDATASIZE PUSH9 0x316C2D332D325A6D2D BALANCE CALLER 0x2D BALANCE 0x2D ORIGIN 0x2D ORIGIN 0x2D BALANCE KECCAK256 BALANCE KECCAK256 CALLVALUE KECCAK256 CALLVALUE PUSH23 0x2D326C2D312D315A6D31382034762D31682D3176316831 GAS PUSH14 0x2D382030762D31682D3176316831 GAS PUSH14 0x32352031762D31682D3176316831 GAS PUSH14 0x2D31342030762D31682D31763168 BALANCE GAS PUSH14 0x2D31312033762D31682D31763168 BALANCE GAS PUSH14 0x322032762D31682D31763168315A PUSH14 0x3220302D312D3176336C312D3176 0x2D BALANCE GAS PUSH14 0x3335203020352D342D322D322D33 KECCAK256 CALLER 0x2D CALLVALUE KECCAK256 CALLER PUSH23 0x2D31682D316C312033682D33336C2D31302D3976346831 PUSH23 0x2D316C3220322032203276316C32203220332032683332 PUSH13 0x352D355A6D2D34362D322D392D CODESIZE 0x2D BALANCE KECCAK256 ORIGIN 0x2D ORIGIN KECCAK256 ORIGIN 0x2D CALLDATACOPY 0x2D BALANCE PUSH9 0x2D366C2D332D322D32 0x2D CALLER PUSH9 0x2D386C2D332D33762D CALLER CALLDATACOPY PUSH9 0x326C312D316834762D CALLER PUSH9 0x31346C31203320332D CALLER KECCAK256 CALLER 0x2D CALLER PUSH9 0x386C322D3220312D32 PUSH9 0x376C312D31762D3268 CALLER CALLDATALOAD PUSH13 0x3320332032203268346C342D31 PUSH23 0x31336C322032203320327633356C2D3820382D39203868 0x2D CALLER CALLVALUE PUSH13 0x2D382D385A222F3E3C70617468 KECCAK256 PUSH7 0x696C6C3D222330 PUSH2 0x3339 CALLDATALOAD PUSH7 0x2220643D224D31 CALLDATALOAD CALLVALUE KECCAK256 BALANCE ADDRESS ORIGIN PUSH23 0x2D31682D31366C31203176316831346C312D315A6D2D31 CALLDATACOPY KECCAK256 ADDRESS 0x2D BALANCE 0x2D BALANCE PUSH23 0x336C312D31762D315A6D313520352D312D312D31203168 ORIGIN GAS PUSH14 0x2D3320302D312D312D312031682D BALANCE KECCAK256 CALLER GAS PUSH14 0x2D352030762D31682D3176316831 GAS PUSH14 0x313320312D312D312D3120316832 GAS PUSH14 0x2D313820302D312D312D31203168 ORIGIN GAS PUSH14 0x2D3320312D312D312D3120316832 GAS PUSH14 0x3338203120312032762D326C2D31 0x2D BALANCE 0x2D BALANCE 0x2D BALANCE PUSH9 0x2D3176346C312D3276 0x2D BALANCE PUSH13 0x3120315A6D2D31322031762D31 PUSH9 0x2D316C2D312D317631 PUSH13 0x31203168315A6D2D392031762D BALANCE PUSH9 0x2D31763168315A6D2D ORIGIN ORIGIN KECCAK256 ADDRESS PUSH23 0x2D31682D31763168315A6D333720342D332D332D322D32 KECCAK256 ORIGIN KECCAK256 ORIGIN KECCAK256 ORIGIN KECCAK256 CALLER PUSH9 0x315A6D2D34312D3120 ORIGIN 0x2D CALLER PUSH9 0x2D316C2D3420356831 PUSH13 0x322D325A6D333320312D312D32 0x2D BALANCE 0x2D BALANCE 0x2D ORIGIN KECCAK256 CALLER KECCAK256 BALANCE KECCAK256 BALANCE KECCAK256 BALANCE KECCAK256 BALANCE PUSH9 0x336C2D312D325A6D2D ORIGIN CALLER KECCAK256 ADDRESS KECCAK256 BALANCE 0x2D ORIGIN 0x2D CALLDATALOAD KECCAK256 BALANCE 0x2D BALANCE KECCAK256 CALLER PUSH9 0x346C312D325A6D3236 KECCAK256 CALLER PUSH23 0x2D31682D31763168315A6D2D333920302D312D3176336C BALANCE 0x2D BALANCE PUSH23 0x2D315A6D343620302D312D312031203276316831762D31 PUSH13 0x2D312D315A6D2D313420312031 0x2D BALANCE 0x2D BALANCE 0x2D ORIGIN 0x2D ORIGIN 0x2D ORIGIN PUSH9 0x2D336C2D3120322D31 KECCAK256 ORIGIN KECCAK256 BALANCE KECCAK256 BALANCE KECCAK256 ORIGIN KECCAK256 ORIGIN PUSH9 0x336C312D325A6D2D31 ORIGIN KECCAK256 ADDRESS KECCAK256 ORIGIN 0x2D CALLER KECCAK256 BALANCE KECCAK256 BALANCE PUSH9 0x316C312D3220312D32 0x2D CALLER 0x2D CALLER 0x2D CALLER KECCAK256 BALANCE PUSH23 0x336C3120342D312D322D322D32682D336C2D3120322D31 KECCAK256 ORIGIN KECCAK256 BALANCE KECCAK256 ORIGIN KECCAK256 BALANCE KECCAK256 BALANCE PUSH9 0x336C322D325A6D3238 KECCAK256 CALLER PUSH23 0x2D31682D31763168315A6D2D34312D352D312D31763368 0x2D BALANCE PUSH13 0x2D312D3176316C312031682D32 PUSH13 0x31203220322D3220312D32762D BALANCE GAS PUSH14 0x34322037762D31682D3176316831 GAS PUSH14 0x2D332030762D31682D3176316831 GAS PUSH14 0x2D37203020312D312D322D332D31 0x2D ORIGIN PUSH9 0x2D336C2D3120322D31 KECCAK256 BALANCE KECCAK256 BALANCE KECCAK256 CALLER KECCAK256 BALANCE KECCAK256 ORIGIN PUSH9 0x346C312D325A6D2D34 ORIGIN KECCAK256 BALANCE 0x2D BALANCE 0x2D BALANCE PUSH23 0x356C312D33762D315A6D34352030762D3168317631682D BALANCE GAS PUSH14 0x33203320312D312D312D322D322D ORIGIN 0x2D CALLER KECCAK256 BALANCE 0x2D BALANCE KECCAK256 ORIGIN PUSH23 0x316C3120322031203168336C312D325A6D2D3132203076 0x2D ORIGIN PUSH13 0x2D322D34682D336C2D3120312D BALANCE KECCAK256 ORIGIN PUSH23 0x336C3120312031203168346C312D325A6D2D3237203120 BALANCE 0x2D ORIGIN 0x2D BALANCE 0x2D ORIGIN 0x2D BALANCE 0x2D ORIGIN PUSH9 0x2D34763768346C312D BALANCE GAS PUSH14 0x34382033762D31682D3176316831 GAS PUSH14 0x2D382030762D31682D3176316831 GAS PUSH14 0x392033762D31682D31763168315A PUSH14 0x2D352D362D312D347631346C312D CALLER PUSH23 0x2D375A6D352031312D312D312D31203168325A6D2D3920 ADDRESS PUSH23 0x2D31682D31763168315A6D2D35302D362D312D3576376C BALANCE KECCAK256 CALLVALUE PUSH9 0x316C2D312D365A6D2D CODECOPY 0x2D BALANCE CALLVALUE PUSH23 0x2D3168317631682D315A6D3020342D312D3168326C3120 ORIGIN 0x2D ORIGIN 0x2D BALANCE GAS PUSH14 0x352037762D31306C322D3120322D ORIGIN PUSH9 0x2D326C332D32682D34 PUSH13 0x2D3420312D322D324839397633 PUSH13 0x342D3276336C322D3120312D31 KECCAK256 BALANCE KECCAK256 BALANCE KECCAK256 BALANCE KECCAK256 BALANCE PUSH23 0x2D326C2D312D3168346C2D3220337632316837762D395A PUSH14 0x39203130762D31682D3176316831 GAS PUSH14 0x343820302D312D3176336C312D31 PUSH23 0x2D315A6D2D37342D3135762D31682D31763168315A6D2D CODESIZE KECCAK256 BALANCE PUSH23 0x2D31682D31763168315A6D3820312D312D312D31203168 0x2D BALANCE KECCAK256 CALLER GAS PUSH14 0x2D392032762D31682D3176316831 GAS PUSH14 0x31322D332D322D31763268327634 PUSH13 0x312D32762D316C2D312D325A6D 0x2D BALANCE ORIGIN KECCAK256 CALLDATALOAD 0x2D BALANCE 0x2D BALANCE PUSH23 0x336C312D31762D315A6D392D312D312D32682D336C2D31 KECCAK256 CALLVALUE KECCAK256 CALLDATALOAD 0x2D BALANCE PUSH23 0x316C2D31203220312D3120312D312D312D325A6D352033 PUSH23 0x2D32682D326C31203276316831762D315A6D2D31312030 0x2D BALANCE 0x2D BALANCE PUSH23 0x326C3120316831762D316C2D312D315A6D362033762D31 PUSH9 0x2D31763168315A6D2D ORIGIN KECCAK256 ADDRESS PUSH23 0x2D31682D31763168315A6D2D352030762D31682D317631 PUSH9 0x315A6D2D3420342D31 0x2D BALANCE CODESIZE PUSH9 0x31387631366C2D3120 BALANCE PUSH23 0x314838385A6D31392030762D31682D326C312D3220312D BALANCE ORIGIN 0x2D BALANCE 0x2D ORIGIN 0x2D BALANCE 0x2D CALLER BASEFEE CODECOPY BALANCE PUSH13 0x2D352031763230683231762D31 GAS PUSH14 0x313520312D312D3176326C312031 PUSH9 0x31762D316C2D312D31 GAS PUSH14 0x34362031762D31682D316C2D312D BALANCE 0x2D ORIGIN KECCAK256 BALANCE 0x2D BALANCE KECCAK256 ORIGIN KECCAK256 BALANCE KECCAK256 ORIGIN PUSH23 0x326C342D34762D315A6D342031762D316C2D3120312D31 KECCAK256 CALLER 0x2D ORIGIN KECCAK256 CALLER KECCAK256 ORIGIN 0x2D CALLER KECCAK256 ORIGIN 0x2D ORIGIN PUSH23 0x2D315A6D372035762D32682D3176326C2D312031683276 0x2D BALANCE GAS PUSH14 0x2D332030762D326C2D322031682D BALANCE PUSH23 0x326833762D315A6D2D382032762D31682D31763168315A PUSH14 0x2D38332D3334762D316831763168 0x2D BALANCE GAS PUSH14 0x2D322033762D3168317631682D31 GAS PUSH14 0x30203234762D326C3120322D3120 CALLER PUSH23 0x2D335A6D332033762D3168317631682D315A6D31392031 PUSH23 0x2D3168317631682D315A6D36203220322D3176336C312D BALANCE PUSH23 0x2D316837762D316C2D312D31682D386C2D322D312D312D BALANCE PUSH23 0x316C2D312032762D346C352031762D316C312D31203120 BALANCE KECCAK256 BALANCE KECCAK256 BALANCE PUSH9 0x316C322D312D312D32 0x2D ORIGIN 0x2D BALANCE PUSH9 0x2D386C312032483939 PUSH13 0x2D392D3176326C3120322D312D ORIGIN 0x2D ORIGIN 0x2D ORIGIN PUSH9 0x2D33762D366C2D3220 CALLVALUE PUSH23 0x2D31396C32203135762D3138683131762D316C2D312D31 KECCAK256 ORIGIN KECCAK256 BALANCE PUSH9 0x31762D334838366C2D CALLVALUE KECCAK256 CALLER PUSH23 0x33306C322031203120322031322D316831345A6D353720 CALLER PUSH23 0x2D31682D31763168315A6D2D33312D3232762D3168366C BALANCE KECCAK256 ORIGIN PUSH23 0x326C2D312D312D312D322D352032762D325A6D38203576 0x2D BALANCE PUSH9 0x316C2D312032682D31 PUSH13 0x312D315A6D31312033762D3168 BALANCE PUSH23 0x31682D315A6D2D31332030762D3168317631682D315A6D CODECOPY KECCAK256 BALANCE PUSH23 0x2D3168316C2D312032682D316C312D315A6D2D39203176 0x2D BALANCE PUSH9 0x317631682D315A6D2D CALLDATASIZE 0x2D BALANCE PUSH23 0x2D326C3220312031203176316C2D312031682D32762D32 GAS PUSH14 0x31332033762D3168317631682D31 GAS PUSH14 0x2D362030762D3168317631682D31 GAS PUSH14 0x30203320322D3268336C3320342D CALLER 0x2D ORIGIN 0x2D ORIGIN 0x2D BALANCE 0x2D ORIGIN KECCAK256 ORIGIN 0x2D ORIGIN KECCAK256 ORIGIN KECCAK256 BALANCE 0x2D CALLER GAS PUSH14 0x362035762D336C33203168336C31 KECCAK256 CALLER PUSH9 0x336C312D3120322D32 PUSH23 0x2D316C2D312D322D332031682D336C312D31762D316C2D BALANCE 0x2D ORIGIN 0x2D BALANCE 0x2D CALLER KECCAK256 CALLER KECCAK256 CALLVALUE PUSH9 0x346C312D3220312D32 PUSH23 0x2D316C2D312D31203220312032203120322D3220312D32 0x2D BALANCE 0x2D ORIGIN 0x2D BALANCE 0x2D ORIGIN PUSH9 0x2D336C2D3120322D31 KECCAK256 CALLER PUSH9 0x2D366C312D31762D31 PUSH9 0x346C312D3120312D32 0x2D BALANCE 0x2D ORIGIN 0x2D BALANCE 0x2D CALLER PUSH9 0x2D336C2D3320342032 KECCAK256 CALLER PUSH9 0x2D32762D326C2D342D BALANCE 0x2D BALANCE KECCAK256 ORIGIN 0x2D BALANCE KECCAK256 ORIGIN KECCAK256 BALANCE KECCAK256 ORIGIN PUSH23 0x326C2D312D322D312D3220312D3220312D322D332D3520 ORIGIN 0x2D ORIGIN KECCAK256 BALANCE 0x2D ORIGIN 0x2D BALANCE 0x2D ORIGIN 0x2D BALANCE 0x2D ORIGIN PUSH9 0x2D336C2D3120322D32 KECCAK256 ORIGIN KECCAK256 BALANCE KECCAK256 ORIGIN KECCAK256 BALANCE KECCAK256 ORIGIN PUSH9 0x326C2D332033682D31 PUSH13 0x312D332D322D34682D336C2D31 KECCAK256 ORIGIN PUSH23 0x31682D326C312D3120312D322D312D322D312D32682D34 PUSH13 0x2D3120322D3120322031203220 BALANCE KECCAK256 ORIGIN PUSH9 0x3476316C3120312D32 0x2D BALANCE PUSH9 0x2D336C2D3120322D31 KECCAK256 ORIGIN KECCAK256 BALANCE KECCAK256 ORIGIN KECCAK256 BALANCE KECCAK256 ORIGIN PUSH9 0x357632682D356C2D32 0x2D CALLVALUE 0x2D CALLDATASIZE 0x2D BALANCE KECCAK256 BALANCE KECCAK256 CALLER PUSH23 0x336C3120312031203120332D3176326C3120312D332D31 PUSH9 0x2D3276326C31203320 BALANCE KECCAK256 ORIGIN PUSH9 0x326C312D3468356C33 KECCAK256 CALLDATALOAD PUSH9 0x336C35203468326C31 0x2D ORIGIN GAS PUSH14 0x35203220312D312D342D322D3120 BALANCE 0x2D BALANCE KECCAK256 ORIGIN PUSH23 0x3168346C312D315A6D31312D31762D31682D316C2D3220 ORIGIN 0x2D BALANCE KECCAK256 CALLER KECCAK256 CALLVALUE 0x2D CALLER PUSH23 0x2D315A6D2D31392033762D31682D31763168315A6D2D32 0x2D BALANCE 0x2D ORIGIN 0x2D ORIGIN 0x2D ORIGIN 0x2D ORIGIN 0x2D CALLVALUE KECCAK256 CALLVALUE KECCAK256 BALANCE 0x2D CALLDATASIZE 0x2D ORIGIN 0x2D CALLER 0x2D CALLER KECCAK256 BALANCE 0x2D ORIGIN KECCAK256 BALANCE PUSH23 0x326C31203220322031203320312D312031763168386C31 0x2D BALANCE GAS PUSH14 0x31362032762D31682D3176316831 GAS PUSH14 0x2D35332D3168316C2D312D322D31 0x2D BALANCE 0x2D BALANCE KECCAK256 BALANCE PUSH23 0x31682D33762D32682D3376346838762D315A6D2D392D31 0x2D BALANCE 0x2D BALANCE 0x2D BALANCE KECCAK256 BALANCE KECCAK256 BALANCE KECCAK256 BALANCE PUSH23 0x326C312D32762D315A6D373320332D312D312D31203168 0x2D BALANCE KECCAK256 CALLER GAS PUSH14 0x2D31332030762D31682D31763168 BALANCE GAS PUSH14 0x2D33372D34762D316C2D3120332D CALLVALUE 0x2D CALLER PUSH9 0x2D326C312032763168 CALLER PUSH23 0x336C322D3220322D322D312D315A6D3534203420322D32 0x2D BALANCE 0x2D BALANCE PUSH23 0x2D326C2D3220322D322032763268316C322D315A6D2D34 BALANCE 0x2D BALANCE 0x2D CALLER 0x2D BALANCE 0x2D CALLER 0x2D CALLER 0x2D CALLER 0x2D CALLER 0x2D BALANCE 0x2D ORIGIN 0x2D ORIGIN 0x2D ORIGIN KECCAK256 BALANCE KECCAK256 CALLER KECCAK256 ORIGIN KECCAK256 CALLER PUSH23 0x312D316C3520342034203368336C2D332D325A6D323220 ORIGIN PUSH23 0x2D316C2D322031682D32763168336C312D315A6D2D3137 KECCAK256 BALANCE PUSH23 0x2D31682D31763168315A6D323520316831762D336C2D31 KECCAK256 ORIGIN PUSH9 0x2D3476316C2D312031 PUSH9 0x326C332D315A6D2D37 KECCAK256 ORIGIN PUSH23 0x2D31682D31763168315A6D2D32322030762D31682D3176 BALANCE PUSH9 0x315A6D2D362D332D31 0x2D ORIGIN 0x2D BALANCE KECCAK256 ORIGIN PUSH9 0x2D336C31203176316C BALANCE 0x2D BALANCE KECCAK256 BALANCE 0x2D BALANCE PUSH9 0x326C2D3120312D3120 ORIGIN PUSH23 0x326C322D3220322D322D322D315A6D312035762D31682D BALANCE PUSH23 0x3168315A6D3337203120352D35762D326C2D322031682D BALANCE PUSH13 0x2D3220312D3320322031203168 0x2D ORIGIN PUSH23 0x33682D33762D326C2D322032682D32356C2D322D337633 PUSH9 0x2D316C2D352D342D35 0x2D CALLDATALOAD PUSH23 0x316C2D312031683276326C342034203520346833326C35 0x2D CALLVALUE GAS PUSH14 0x2D34372D332D382D382D3220322D BALANCE KECCAK256 ORIGIN 0x2D BALANCE CALLER 0x2D BALANCE 0x2D CALLDATALOAD 0x2D CALLDATALOAD PUSH9 0x2D386C2D332D33762D CALLER CALLDATACOPY PUSH9 0x326C312D316834762D CALLER PUSH9 0x31346C31203320332D CALLER KECCAK256 CALLER 0x2D CALLER PUSH9 0x386C322D3220312D32 PUSH9 0x376C312D31762D3268 CALLER CALLDATALOAD PUSH13 0x3320332032203268346C342D31 PUSH23 0x31336C33203220322032763137682D34763268326C312D BALANCE KECCAK256 BALANCE KECCAK256 CALLVALUE PUSH23 0x31336C2D3137203136682D33346C2D392D385A222F3E3C PUSH17 0x6174682066696C6C3D2223323832653333 0x22 KECCAK256 PUSH5 0x3D224D3135 CALLVALUE KECCAK256 BALANCE ADDRESS ORIGIN PUSH23 0x2D31682D31366C31203176316831346C312D315A6D2D31 CALLDATACOPY KECCAK256 ADDRESS 0x2D BALANCE 0x2D BALANCE PUSH23 0x336C312D31762D315A6D313520352D312D312D31203168 ORIGIN GAS PUSH14 0x2D3320302D312D312D312031682D BALANCE KECCAK256 CALLER GAS PUSH14 0x2D352030762D31682D3176316831 GAS PUSH14 0x313320312D312D312D3120316832 GAS PUSH14 0x2D313820302D312D312D31203168 ORIGIN GAS PUSH14 0x2D3320312D312D312D3120316832 GAS PUSH14 0x3338203120312032762D326C2D31 0x2D BALANCE 0x2D BALANCE 0x2D BALANCE PUSH9 0x2D3176346C312D3276 0x2D BALANCE PUSH13 0x3120315A6D2D31322031762D31 PUSH9 0x2D316C2D312D317631 PUSH13 0x31203168315A6D2D3331203176 0x2D BALANCE PUSH9 0x2D31763168315A6D32 CALLDATALOAD KECCAK256 ADDRESS PUSH23 0x2D316C2D332D332D3420322D312D32682D33763268346C BALANCE KECCAK256 ORIGIN KECCAK256 BALANCE KECCAK256 BALANCE PUSH9 0x346C312D315A6D2D31 ORIGIN 0x2D BALANCE PUSH23 0x2D32682D356C2D3120322031203176316835762D325A6D ORIGIN CALLVALUE KECCAK256 CALLDATALOAD 0x2D CALLER 0x2D CALLER 0x2D ORIGIN 0x2D ORIGIN KECCAK256 ORIGIN KECCAK256 ORIGIN KECCAK256 ORIGIN KECCAK256 CALLER PUSH9 0x315A6D2D34312D3120 ORIGIN 0x2D CALLER PUSH9 0x2D316C2D3420356831 PUSH13 0x322D325A6D2D3320342D312D31 PUSH23 0x336C312D31762D315A6D343620302D312D312031203276 BALANCE PUSH9 0x31762D316C2D312D31 GAS PUSH14 0x2D322032762D316C2D322D322D32 0x2D ORIGIN 0x2D ORIGIN KECCAK256 CALLER KECCAK256 CALLER KECCAK256 CALLER PUSH9 0x33762D315A6D342032 PUSH23 0x2D31682D31763168315A6D2D34322D3220312D332D312D BALANCE 0x2D BALANCE 0x2D BALANCE 0x2D ORIGIN KECCAK256 ORIGIN 0x2D ORIGIN KECCAK256 ORIGIN KECCAK256 BALANCE KECCAK256 ORIGIN PUSH23 0x3168336C312D325A6D34332034762D31682D3176316831 GAS PUSH14 0x352038762D31682D31763168315A PUSH14 0x312033762D31682D31763168315A PUSH14 0x2D372D332D312D322D312D332D31 0x2D ORIGIN KECCAK256 BALANCE 0x2D BALANCE KECCAK256 BALANCE 0x2D BALANCE PUSH9 0x2D316C2D312D317632 PUSH9 0x2D326C2D332D317632 PUSH13 0x2D312032203120322032203220 ORIGIN 0x2D ORIGIN KECCAK256 ORIGIN 0x2D BALANCE 0x2D BALANCE KECCAK256 CALLER KECCAK256 BALANCE KECCAK256 ORIGIN KECCAK256 BALANCE KECCAK256 ORIGIN PUSH9 0x31762D335A6D2D3438 KECCAK256 BALANCE KECCAK256 BALANCE 0x2D ORIGIN 0x2D BALANCE 0x2D ORIGIN 0x2D ORIGIN 0x2D ORIGIN PUSH23 0x326C2D322D3576346C322031763668316C312D325A6D35 ADDRESS 0x2D CALLVALUE 0x2D BALANCE 0x2D CALLVALUE PUSH23 0x31346C312D33762D375A6D352031312D312D312D312031 PUSH9 0x325A6D2D35392D362D BALANCE 0x2D CALLDATALOAD PUSH23 0x376C31203468316C2D312D365A6D2D392D3134762D3168 BALANCE PUSH23 0x31682D315A6D3020342D312D3168326C3120322D322D31 GAS PUSH14 0x352037762D31306C322D3120322D ORIGIN PUSH9 0x2D326C332D32682D34 PUSH13 0x2D3420312D322D324839397633 PUSH13 0x342D3276336C322D3120312D31 KECCAK256 BALANCE KECCAK256 BALANCE KECCAK256 BALANCE KECCAK256 BALANCE PUSH23 0x2D326C2D312D3168346C2D3220337632316837762D395A PUSH14 0x35372031302D312D3176336C312D BALANCE PUSH23 0x2D315A6D2D312D33682D316C2D312031682D3176346C32 0x2D ORIGIN KECCAK256 BALANCE 0x2D ORIGIN PUSH23 0x2D315A6D2D37332D3132762D31682D31763168315A6D2D CODESIZE KECCAK256 BALANCE PUSH23 0x2D31682D31763168315A6D2D312033762D31682D317631 PUSH9 0x315A6D3020322D312D BALANCE PUSH23 0x336C312D31762D315A6D372D33762D3168317631682D31 GAS PUSH14 0x2D332032762D326C31203176326C 0x2D BALANCE KECCAK256 BALANCE PUSH23 0x2D325A6D362031762D3468326C312034762D346C2D332D ORIGIN PUSH23 0x32682D356C2D3120312D31203220312032203120316835 PUSH23 0x2D325A6D342032762D32682D326C31203276316831762D BALANCE GAS PUSH14 0x2D313120302D312D3176326C3120 BALANCE PUSH9 0x31762D316C2D312D31 GAS PUSH14 0x362033762D31682D31763168315A PUSH14 0x2D322030762D31682D3176316831 GAS PUSH14 0x2D352030762D31682D3176316831 GAS PUSH14 0x2D3420342D312D31386831387631 CALLDATASIZE PUSH13 0x2D31203176314838385A6D3139 KECCAK256 ADDRESS PUSH23 0x2D31682D326C312D3220312D31322D312D322D312D3348 CODECOPY BALANCE PUSH13 0x2D352031763230683231762D31 GAS PUSH14 0x313520312D312D3176326C312031 PUSH9 0x31762D316C2D312D31 GAS PUSH14 0x35302032762D316C2D3120312D31 KECCAK256 CALLER 0x2D ORIGIN KECCAK256 CALLER KECCAK256 ORIGIN 0x2D CALLER KECCAK256 ORIGIN 0x2D ORIGIN PUSH23 0x2D315A6D372035762D32682D3176326C2D312031683276 0x2D BALANCE GAS PUSH14 0x2D332030762D326C2D322031682D BALANCE PUSH23 0x326833762D315A6D2D382032762D31682D31763168315A PUSH14 0x2D38332D3334762D316831763168 0x2D BALANCE GAS PUSH14 0x2D322033762D3168317631682D31 GAS PUSH14 0x30203234762D326C3120322D3120 CALLER PUSH23 0x2D335A6D332033762D3168317631682D315A6D31392031 PUSH23 0x2D3168317631682D315A6D36203220322D3176336C312D BALANCE PUSH23 0x2D316837762D316C2D312D31682D386C2D322D312D312D BALANCE PUSH23 0x316C2D312032762D346C352031762D316C312D31203120 BALANCE KECCAK256 BALANCE KECCAK256 BALANCE PUSH9 0x316C322D312D312D32 0x2D ORIGIN 0x2D BALANCE PUSH9 0x2D386C312032483939 PUSH13 0x2D392D3176326C3120322D312D ORIGIN 0x2D ORIGIN 0x2D ORIGIN PUSH9 0x2D33762D366C2D3220 CALLVALUE PUSH23 0x2D31396C32203135762D3138683131762D316C2D312D31 KECCAK256 ORIGIN KECCAK256 BALANCE PUSH9 0x31762D334838366C2D CALLVALUE KECCAK256 CALLER PUSH23 0x33306C322031203120322031322D316831345A6D353720 CALLER PUSH23 0x2D31682D31763168315A6D2D322D31762D31682D316C2D ORIGIN KECCAK256 ORIGIN 0x2D BALANCE KECCAK256 CALLER KECCAK256 CALLVALUE 0x2D CALLER PUSH23 0x2D315A6D2D313820332D312D312D31203168325A6D3133 KECCAK256 BALANCE PUSH23 0x2D31682D31763168315A6D2D31372D3330762D326C3120 ORIGIN 0x2D BALANCE KECCAK256 CALLER PUSH23 0x2D335A6D2D392031762D316C31203168317631682D316C 0x2D BALANCE 0x2D BALANCE GAS PUSH14 0x3232203120312D312D312D312D31 0x2D ORIGIN PUSH9 0x316C31203120322032 0x2D CALLVALUE KECCAK256 ORIGIN KECCAK256 BALANCE 0x2D BALANCE GAS PUSH14 0x2D382030762D316C312031683176 BALANCE PUSH9 0x2D316C2D312D315A6D 0x2D BALANCE ORIGIN KECCAK256 ORIGIN PUSH9 0x367631682D36762D31 GAS PUSH14 0x3135203120312D3168326C322031 PUSH9 0x2D336C2D3320312031 0x2D BALANCE GAS PUSH14 0x2D31352032762D3168317631682D BALANCE GAS PUSH14 0x31392030762D316C312031683176 BALANCE PUSH9 0x2D316C2D312D315A6D 0x2D ORIGIN CALLDATALOAD KECCAK256 CALLER PUSH23 0x2D3168317631682D315A6D31322033762D316831763168 0x2D BALANCE GAS PUSH14 0x2D31342031762D3168317631682D BALANCE GAS PUSH14 0x312032762D3168317631682D315A PUSH14 0x3135203320312D3120312031682D ORIGIN GAS PUSH14 0x2D31342030762D31683576316C31 KECCAK256 BALANCE PUSH9 0x2D36762D315A6D3236 KECCAK256 BALANCE KECCAK256 BALANCE 0x2D BALANCE 0x2D BALANCE 0x2D BALANCE PUSH9 0x356C312D3220322D33 PUSH23 0x326C2D3120322D3220322031203168312D356C2D332032 KECCAK256 BALANCE 0x2D ORIGIN GAS PUSH14 0x2D382D312D312D31203120312032 KECCAK256 BALANCE PUSH23 0x31682D316C2D312D325A6D2D352032762D3168316C2D31 KECCAK256 ORIGIN PUSH9 0x2D316C312D315A6D2D CALLDATASIZE KECCAK256 CALLVALUE KECCAK256 BALANCE 0x2D BALANCE 0x2D BALANCE 0x2D ORIGIN KECCAK256 CALLER KECCAK256 BALANCE KECCAK256 CALLER KECCAK256 BALANCE PUSH9 0x2D346C2D3220322D31 KECCAK256 BALANCE KECCAK256 BALANCE 0x2D ORIGIN GAS PUSH14 0x362032762D326C32203120332032 KECCAK256 BALANCE KECCAK256 BALANCE KECCAK256 BALANCE KECCAK256 BALANCE PUSH9 0x326C332D3168316C2D BALANCE 0x2D ORIGIN 0x2D BALANCE 0x2D CALLER 0x2D CALLDATALOAD KECCAK256 BALANCE KECCAK256 BALANCE 0x2D ORIGIN PUSH9 0x346C32203220322032 KECCAK256 CALLVALUE 0x2D ORIGIN PUSH23 0x2D346C3220312031203120332D362D312D312D322D3120 CALLVALUE 0x2D CALLDATALOAD PUSH23 0x2D326C2D312D32682D346C2D322034682D356C342D3120 ORIGIN 0x2D ORIGIN PUSH23 0x2D346C2D312D312D322D3120332D352D312D322D312D32 PUSH9 0x2D346C2D322034682D CALLER PUSH13 0x2D3220322D32203220312D3320 ORIGIN 0x2D ORIGIN PUSH9 0x336C312D3120312D32 0x2D BALANCE 0x2D BALANCE PUSH23 0x2D326C3220312032203220322D3220312D322D322D322D BALANCE 0x2D ORIGIN PUSH9 0x2D336C2D3120327632 PUSH9 0x2D356C2D3120322D31 KECCAK256 BALANCE PUSH23 0x316C3120322D312D32682D346C2D32203320312D322031 0x2D BALANCE 0x2D BALANCE 0x2D ORIGIN KECCAK256 BALANCE KECCAK256 BALANCE PUSH9 0x326C322D3120312D31 PUSH23 0x2D34682D326C2D322D312D312031682D3176346C2D332D BALANCE PUSH9 0x2D326C2D342D342D32 KECCAK256 BALANCE 0x2D ORIGIN KECCAK256 ORIGIN PUSH23 0x336C3220312031203120322D3220322D312D3120332031 KECCAK256 ORIGIN KECCAK256 BALANCE KECCAK256 BALANCE PUSH9 0x3476326C2D342D312D BALANCE KECCAK256 ORIGIN PUSH23 0x31682D326C312D3220312D322D312D312D312D32682D34 PUSH13 0x2D322034203220347631682D31 PUSH23 0x2D326C2D312D32682D356C2D3120332031203468346C32 0x2D ORIGIN PUSH23 0x356C2D332D312D322D312D32203476336C322031203120 BALANCE 0x2D BALANCE KECCAK256 BALANCE 0x2D ORIGIN 0x2D ORIGIN 0x2D ORIGIN 0x2D ORIGIN KECCAK256 CALLER KECCAK256 CALLDATALOAD KECCAK256 CALLER KECCAK256 CALLDATASIZE PUSH9 0x316C322D312D312031 PUSH23 0x316C33203468356C2D3220312D3120312032203168386C 0x2D BALANCE 0x2D CALLER GAS PUSH14 0x2D3336203268316C2D312D322D31 0x2D BALANCE 0x2D BALANCE KECCAK256 BALANCE PUSH23 0x31682D33762D32682D3376346838762D315A6D2D392D31 0x2D BALANCE 0x2D BALANCE 0x2D BALANCE KECCAK256 BALANCE KECCAK256 BALANCE KECCAK256 BALANCE PUSH23 0x326C312D32762D315A6D373320332D312D312D31203168 0x2D BALANCE KECCAK256 CALLER GAS PUSH14 0x2D31332030762D31682D31763168 BALANCE GAS PUSH14 0x2D33372D34762D316C2D3120332D CALLVALUE 0x2D CALLER PUSH9 0x2D326C312032763168 CALLER PUSH23 0x336C322D3220322D322D312D315A6D3534203420322D32 0x2D BALANCE 0x2D BALANCE PUSH23 0x2D326C2D3220322D322032763268316C322D315A6D2D34 BALANCE 0x2D BALANCE 0x2D CALLER 0x2D BALANCE 0x2D CALLER 0x2D CALLER 0x2D CALLER 0x2D CALLER 0x2D BALANCE 0x2D ORIGIN 0x2D ORIGIN 0x2D ORIGIN KECCAK256 BALANCE KECCAK256 CALLER KECCAK256 ORIGIN KECCAK256 CALLER PUSH23 0x312D316C3520342034203368336C2D332D325A6D323220 ORIGIN PUSH23 0x2D316C2D322031682D32763168336C312D315A6D2D3137 KECCAK256 BALANCE PUSH23 0x2D31682D31763168315A6D323520316831762D336C2D31 KECCAK256 ORIGIN PUSH9 0x2D3476316C2D312031 PUSH9 0x326C332D315A6D2D37 KECCAK256 ORIGIN PUSH23 0x2D31682D31763168315A6D2D32322030762D31682D3176 BALANCE PUSH9 0x315A6D2D362D332D31 0x2D ORIGIN 0x2D BALANCE KECCAK256 ORIGIN PUSH9 0x2D336C31203176316C BALANCE 0x2D BALANCE KECCAK256 BALANCE 0x2D BALANCE PUSH9 0x326C2D3120312D3120 ORIGIN PUSH23 0x326C322D3220322D322D322D315A6D312035762D31682D BALANCE PUSH23 0x3168315A6D3337203120352D35762D326C2D322031682D BALANCE PUSH13 0x2D3220312D3320322031203168 0x2D ORIGIN PUSH23 0x33682D33762D326C2D322032682D32356C2D322D337633 PUSH9 0x2D316C2D352D342D35 0x2D CALLDATALOAD PUSH23 0x316C2D312031683276326C342034203520346833326C35 0x2D CALLVALUE GAS PUSH14 0x2D34372D332D382D382D3220322D BALANCE KECCAK256 ORIGIN 0x2D BALANCE CALLER 0x2D BALANCE 0x2D CALLDATALOAD 0x2D CALLDATALOAD PUSH9 0x2D386C2D332D33762D CALLER CALLDATACOPY PUSH9 0x326C312D316834762D CALLER PUSH9 0x31346C31203320332D CALLER KECCAK256 CALLER 0x2D CALLER PUSH9 0x386C322D3220312D32 PUSH9 0x376C312D31762D3268 CALLER CALLDATALOAD PUSH13 0x3320332032203268346C342D31 PUSH23 0x31336C33203220322032763137682D34763268326C312D BALANCE KECCAK256 BALANCE KECCAK256 CALLVALUE PUSH23 0x31336C2D3137203136682D33346C2D392D385A222F3E3C PUSH17 0x6174682066696C6C3D2223323032353239 0x22 KECCAK256 PUSH5 0x3D224D3133 CALLVALUE KECCAK256 BALANCE ADDRESS ORIGIN PUSH23 0x2D31682D31763168315A6D32312030762D31682D31376C BALANCE KECCAK256 ORIGIN PUSH9 0x3136762D315A6D2D31 CODESIZE KECCAK256 ADDRESS PUSH23 0x2D31682D316C2D3120326832762D315A6D313420352D34 0x2D BALANCE 0x2D CALLVALUE KECCAK256 BALANCE PUSH9 0x2D332031352D345A6D 0x2D ORIGIN CODECOPY KECCAK256 ADDRESS PUSH23 0x2D31682D31763168315A6D333520312D312D312D312031 PUSH9 0x325A6D2D313820302D BALANCE 0x2D BALANCE 0x2D BALANCE KECCAK256 BALANCE PUSH9 0x325A6D2D3137203276 0x2D BALANCE PUSH9 0x2D31763168315A6D35 CALLER KECCAK256 ADDRESS 0x2D BALANCE 0x2D BALANCE 0x2D BALANCE 0x2D BALANCE PUSH9 0x2D3176336833762D31 GAS PUSH14 0x2D35392031762D31682D31763168 BALANCE GAS PUSH14 0x2D342030762D31682D3176316831 GAS PUSH14 0x2D332030762D31682D3176316831 GAS PUSH14 0x34372031762D316C2D332D332D34 KECCAK256 ORIGIN 0x2D BALANCE 0x2D ORIGIN PUSH9 0x2D33763268346C3120 ORIGIN KECCAK256 BALANCE KECCAK256 BALANCE PUSH9 0x346C312D315A6D2D31 ORIGIN 0x2D BALANCE PUSH23 0x2D32682D356C2D3120322031203176316835762D325A6D 0x2D ORIGIN CALLER KECCAK256 CALLDATALOAD PUSH23 0x2D31682D316C2D312D3176316C31203168315A6D352030 KECCAK256 BALANCE 0x2D ORIGIN KECCAK256 CALLDATALOAD 0x2D CALLER KECCAK256 CALLVALUE 0x2D CALLER PUSH9 0x2D326C2D3420332D33 KECCAK256 CALLER 0x2D ORIGIN KECCAK256 ORIGIN 0x2D BALANCE KECCAK256 BALANCE PUSH9 0x32762D315A6D343220 CALLDATALOAD PUSH23 0x2D316C2D322D322D322D322D322033203320336833762D BALANCE GAS PUSH14 0x2D3338203020312D332D312D312D BALANCE 0x2D BALANCE 0x2D ORIGIN KECCAK256 ORIGIN 0x2D ORIGIN KECCAK256 ORIGIN KECCAK256 BALANCE KECCAK256 ORIGIN PUSH23 0x3168336C312D325A6D2D362D32762D316C2D3320357632 PUSH13 0x332D35762D315A6D343820322D ORIGIN 0x2D CALLVALUE 0x2D CODECOPY 0x2D CODESIZE PUSH23 0x2D326C2D3220312D312031203220312031203120382036 KECCAK256 ORIGIN KECCAK256 CALLVALUE KECCAK256 BALANCE KECCAK256 CALLVALUE PUSH9 0x31762D316C2D312D33 GAS PUSH14 0x372031322D312D312D3120316832 GAS PUSH14 0x302033762D31682D31763168315A PUSH14 0x2D372D332D312D322D312D332D31 0x2D ORIGIN KECCAK256 BALANCE 0x2D BALANCE KECCAK256 BALANCE 0x2D BALANCE PUSH9 0x2D316C2D312D317632 PUSH9 0x2D326C2D332D317632 PUSH13 0x2D312032203120322032203220 ORIGIN 0x2D ORIGIN KECCAK256 ORIGIN 0x2D BALANCE 0x2D BALANCE KECCAK256 CALLER KECCAK256 BALANCE KECCAK256 ORIGIN KECCAK256 BALANCE KECCAK256 ORIGIN PUSH9 0x31762D335A6D322D32 0x2D BALANCE 0x2D CALLDATALOAD PUSH23 0x31346C322D342D312D355A6D352031302D312D312D3120 BALANCE PUSH9 0x325A6D2D35392D3676 0x2D CALLDATASIZE PUSH13 0x32203276336C31203320312D33 KECCAK256 BALANCE 0x2D ORIGIN 0x2D BALANCE 0x2D ORIGIN 0x2D ORIGIN 0x2D ORIGIN 0x2D BALANCE KECCAK256 ORIGIN PUSH23 0x2D356C2D3120312D3120362D3120372031203120322031 0x2D BALANCE 0x2D CALLDATASIZE GAS PUSH14 0x2D312036762D31682D3176316831 GAS PUSH14 0x2D31322D3233762D316831763168 0x2D BALANCE GAS PUSH14 0x352038762D3168317631682D315A PUSH14 0x34203620312D3920312D3320322D ORIGIN 0x2D CALLDATACOPY 0x2D BALANCE 0x2D CALLDATASIZE 0x2D BALANCE PUSH9 0x2D386C312034683576 0x2D ORIGIN PUSH13 0x32203168316C312D3268326C2D BALANCE KECCAK256 ORIGIN 0x2D BALANCE KECCAK256 BALANCE 0x2D BALANCE KECCAK256 CODECOPY PUSH23 0x396C3120336837762D395A6D35372031302D312D317633 PUSH13 0x312D31762D315A6D2D312D3368 0x2D BALANCE PUSH13 0x2D312031682D3176346C322D32 KECCAK256 BALANCE 0x2D ORIGIN PUSH23 0x2D315A6D37203130762D33682D3276356832762D325A6D 0x2D CALLER KECCAK256 ADDRESS PUSH23 0x2D326C2D33203276326833762D325A6D2D39332D323576 0x2D BALANCE PUSH13 0x31203176316C2D312031762D32 GAS PUSH14 0x302036762D3168317631682D315A PUSH14 0x302035762D316C31203176316C2D BALANCE KECCAK256 BALANCE PUSH23 0x2D325A6D32322036762D3168317631682D315A6D2D3130 0x2D BALANCE CALLVALUE PUSH23 0x2D31682D31763168315A6D2D332D3120322D312D322031 0x2D ORIGIN KECCAK256 BALANCE PUSH23 0x3168316C312D325A6D2D3220352D312D3176356C312D33 PUSH23 0x2D315A6D372D31762D3168317631682D315A6D2D332032 PUSH23 0x2D326C31203176326C2D312031762D325A6D3130203376 0x2D ORIGIN PUSH9 0x2D326C312D342D352D CALLER KECCAK256 BALANCE KECCAK256 ORIGIN PUSH9 0x2D346C2D3120322D31 KECCAK256 BALANCE KECCAK256 BALANCE KECCAK256 ORIGIN PUSH23 0x326836762D336C2D312D34203220316831763968316C31 0x2D BALANCE PUSH23 0x2D325A6D2D352033762D31682D31763168315A6D2D342D ORIGIN 0x2D ORIGIN 0x2D ORIGIN 0x2D BALANCE KECCAK256 BALANCE KECCAK256 ORIGIN KECCAK256 ORIGIN KECCAK256 BALANCE KECCAK256 BALANCE PUSH9 0x326C2D322D325A6D2D CALLER KECCAK256 ORIGIN PUSH23 0x2D31682D316C2D312D3176316C31203168315A6D322033 PUSH23 0x2D31682D31763168315A6D2D362D38762D396831377631 CALLVALUE PUSH13 0x2D312034483838762D395A6D2D CALLDATALOAD KECCAK256 BALANCE ORIGIN PUSH23 0x2D3168317631682D315A6D372032762D3168317631682D BALANCE GAS PUSH14 0x32342034762D316C312031203120 ORIGIN KECCAK256 CALLDATALOAD 0x2D ORIGIN PUSH23 0x2D316C2D312D31682D386C2D312D322D322D3120342031 PUSH9 0x356C312D312D322D32 0x2D BALANCE 0x2D ORIGIN PUSH9 0x2D356C2D312031682D ORIGIN PUSH13 0x3120332D322D32762D32316C2D BALANCE CALLDATASIZE 0x2D BALANCE 0x2D CALLDATALOAD KECCAK256 BALANCE PUSH23 0x32306C32312031483835762D3234683133762D34682D37 PUSH13 0x2D38203120312031682D327633 BALANCE PUSH13 0x31203120322032683239762D31 GAS PUSH14 0x35352031682D316C342D36762D32 PUSH13 0x2D3420372D31203176326C322D BALANCE PUSH23 0x2D315A6D2D323120342D312D312D31203168325A6D2D33 CALLDATACOPY KECCAK256 ADDRESS PUSH23 0x2D31682D31763168315A6D33332D3239762D326C312032 0x2D BALANCE KECCAK256 CALLER PUSH23 0x2D335A6D2D392031762D316C31203168317631682D316C 0x2D BALANCE 0x2D BALANCE GAS PUSH14 0x3232203120312D312D312D312D31 0x2D ORIGIN PUSH9 0x316C31203120322032 0x2D CALLVALUE KECCAK256 ORIGIN KECCAK256 BALANCE 0x2D BALANCE GAS PUSH14 0x2D382030762D316C312031683176 BALANCE PUSH9 0x2D316C2D312D315A6D 0x2D BALANCE ORIGIN KECCAK256 ORIGIN PUSH9 0x367631682D36762D31 GAS PUSH14 0x3135203120312D3168326C322031 PUSH9 0x2D336C2D3320312031 0x2D BALANCE GAS PUSH14 0x2D31352032762D3168317631682D BALANCE GAS PUSH14 0x31392030762D316C312031683176 BALANCE PUSH9 0x2D316C2D312D315A6D 0x2D ORIGIN CALLDATALOAD KECCAK256 CALLER PUSH23 0x2D3168317631682D315A6D31322033762D316831763168 0x2D BALANCE GAS PUSH14 0x2D31342031762D3168317631682D BALANCE GAS PUSH14 0x312032762D3168317631682D315A PUSH14 0x3135203320312D3120312031682D ORIGIN GAS PUSH14 0x2D31342030762D31683576316C31 KECCAK256 BALANCE PUSH9 0x2D36762D315A6D3236 KECCAK256 BALANCE KECCAK256 BALANCE 0x2D BALANCE 0x2D BALANCE 0x2D BALANCE PUSH9 0x356C312D3220322D33 PUSH23 0x326C2D3120322D3220322031203168312D356C2D332032 KECCAK256 BALANCE 0x2D ORIGIN GAS PUSH14 0x2D382D312D312D31203120312032 KECCAK256 BALANCE PUSH23 0x31682D316C2D312D325A6D2D352032762D3168316C2D31 KECCAK256 ORIGIN PUSH9 0x2D316C312D315A6D2D CALLDATASIZE KECCAK256 CALLVALUE KECCAK256 BALANCE 0x2D BALANCE 0x2D BALANCE 0x2D ORIGIN KECCAK256 CALLER KECCAK256 BALANCE KECCAK256 CALLER KECCAK256 BALANCE PUSH9 0x2D346C2D3220322D31 KECCAK256 BALANCE KECCAK256 BALANCE 0x2D ORIGIN GAS PUSH14 0x362032762D326C32203120332032 KECCAK256 BALANCE KECCAK256 BALANCE KECCAK256 BALANCE KECCAK256 BALANCE PUSH9 0x326C332D3168316C2D BALANCE 0x2D ORIGIN 0x2D BALANCE 0x2D CALLER 0x2D CALLDATALOAD KECCAK256 BALANCE KECCAK256 BALANCE 0x2D ORIGIN PUSH9 0x346C32203220322032 KECCAK256 CALLVALUE 0x2D ORIGIN PUSH23 0x2D346C3220312031203120332D362D312D312D322D3120 CALLVALUE 0x2D CALLDATALOAD PUSH23 0x2D326C2D312D32682D346C2D322034682D356C322D3168 ORIGIN PUSH13 0x322D3220312D322D322D322D32 0x2D ORIGIN KECCAK256 CALLER 0x2D CALLDATALOAD 0x2D BALANCE 0x2D ORIGIN 0x2D BALANCE 0x2D ORIGIN PUSH9 0x2D346C2D322034682D CALLER PUSH13 0x2D3220322D32203220312D3320 ORIGIN 0x2D ORIGIN PUSH9 0x336C312D3120312D32 0x2D BALANCE 0x2D BALANCE PUSH23 0x2D326C3220312032203220322D3220312D322D322D322D BALANCE 0x2D ORIGIN PUSH9 0x2D336C2D3120327632 PUSH9 0x2D356C2D3120322D31 KECCAK256 BALANCE PUSH23 0x316C3120322D312D32682D346C2D32203320312D322031 0x2D BALANCE 0x2D BALANCE 0x2D ORIGIN KECCAK256 BALANCE KECCAK256 BALANCE PUSH9 0x326C322D3120312D31 PUSH23 0x2D34682D326C2D322D312D312031682D3176346C2D332D BALANCE PUSH9 0x2D326C2D342D342D32 KECCAK256 BALANCE 0x2D ORIGIN KECCAK256 ORIGIN PUSH23 0x336C3220312031203120322D3220322D312D3120332031 KECCAK256 ORIGIN KECCAK256 BALANCE KECCAK256 BALANCE PUSH9 0x3476326C2D342D312D BALANCE KECCAK256 ORIGIN PUSH23 0x31682D326C312D3220312D322D312D312D312D32682D34 PUSH13 0x2D322034203220347631682D31 PUSH23 0x2D326C2D312D32682D356C2D3120332031203468346C32 0x2D ORIGIN PUSH23 0x356C2D332D312D322D312D32203476336C322031203120 BALANCE 0x2D BALANCE KECCAK256 BALANCE 0x2D ORIGIN 0x2D ORIGIN 0x2D ORIGIN 0x2D ORIGIN KECCAK256 CALLER KECCAK256 CALLDATALOAD KECCAK256 CALLER KECCAK256 CALLDATASIZE PUSH9 0x316C322D312D312031 PUSH23 0x316C33203468356C2D3220312D3120312032203168386C 0x2D BALANCE 0x2D CALLER GAS PUSH14 0x2D33352032762D316C2D312D312D BALANCE 0x2D BALANCE 0x2D BALANCE KECCAK256 ORIGIN PUSH9 0x2D33762D32682D3376 CALLVALUE PUSH9 0x386C312D315A6D2D31 ADDRESS KECCAK256 ADDRESS PUSH23 0x2D32682D316C2D322D31203220346831762D315A6D3232 KECCAK256 BALANCE KECCAK256 ORIGIN 0x2D ORIGIN PUSH23 0x2D32682D3876326C33203368316C322D315A6D35362030 KECCAK256 ORIGIN 0x2D CALLER PUSH9 0x2D316C2D312D312D32 KECCAK256 ORIGIN PUSH9 0x2D326C312D32682D33 PUSH23 0x31682D316C3220332032203268316C322D325A6D2D3432 KECCAK256 ADDRESS 0x2D CALLER 0x2D BALANCE 0x2D CALLER 0x2D CALLER 0x2D CALLER 0x2D CALLER 0x2D ORIGIN 0x2D CALLVALUE 0x2D ORIGIN 0x2D CALLVALUE PUSH9 0x2D3176326C2D312031 PUSH9 0x316C312D3120312033 PUSH23 0x3268326C2D31203268326C2D31203176326C312D312031 0x2D BALANCE KECCAK256 CALLER KECCAK256 CALLVALUE PUSH9 0x326C31203220312031 PUSH9 0x346C2D332D325A6D32 CALLVALUE KECCAK256 BALANCE KECCAK256 CALLVALUE 0x2D ORIGIN KECCAK256 CALLER 0x2D ORIGIN PUSH23 0x2D326C2D3220322D3220322D3520322D34203268326C34 0x2D ORIGIN GAS PUSH14 0x2D313920322D312D312D31203168 ORIGIN GAS PUSH14 0x372031762D31682D31763168315A PUSH14 0x31312033762D31682D3233763268 ORIGIN CALLER PUSH23 0x2D315A6D31312D3420312D3120312031682D325A6D2D34 BALANCE KECCAK256 ORIGIN PUSH23 0x2D3168317631682D315A6D2D342D322D312D3120312031 KECCAK256 ORIGIN KECCAK256 BALANCE PUSH23 0x31682D316C2D312D325A6D3420352D312D322031203168 BALANCE PUSH13 0x312D31762D316C32203176336C 0x2D ORIGIN 0x2D CALLER PUSH23 0x336C31203168322D336C2D322D325A6D3430203020352D CALLVALUE PUSH23 0x2D326C2D312D32682D326C2D322D312D3420332D352033 KECCAK256 BALANCE KECCAK256 BALANCE PUSH23 0x3168326C2D312D32683176316C322D3120312D3176326C 0x2D BALANCE KECCAK256 BALANCE PUSH9 0x2D316C312033682D33 PUSH13 0x312D32682D337632682D323576 0x2D CALLDATALOAD PUSH13 0x2D352D332D352D342D3220332D ORIGIN KECCAK256 ORIGIN KECCAK256 BALANCE BALANCE KECCAK256 BALANCE ADDRESS PUSH9 0x33326C352D355A6D2D CALLVALUE CALLDATACOPY 0x2D ORIGIN 0x2D CODESIZE 0x2D CODESIZE 0x2D CALLER KECCAK256 CALLER BASEFEE CODECOPY CALLDATACOPY PUSH13 0x2D352D35682D386C2D332D3376 0x2D CALLER CALLDATACOPY PUSH9 0x326C312D316834762D CALLER PUSH9 0x31346C32203320352D CALLDATASIZE PUSH9 0x386C322D3220312D32 PUSH9 0x376C312D31762D3268 CALLER ADDRESS PUSH13 0x34203120342031203120322031 KECCAK256 BALANCE KECCAK256 CODESIZE 0x2D BALANCE PUSH23 0x31336C2D332D32763268326C322031203220322D332031 KECCAK256 CALLDATALOAD 0x2D BALANCE PUSH23 0x31316C2D312037682D33763268326C312D3176326C3120 CALLDATACOPY PUSH23 0x386C2D3137203136682D33346C2D392D385A222F3E3C70 PUSH2 0x7468 KECCAK256 PUSH7 0x696C6C3D222330 CODESIZE ADDRESS PUSH4 0x31312220 PUSH5 0x3D226D3132 CODESIZE KECCAK256 BALANCE ADDRESS ORIGIN KECCAK256 BALANCE 0x2D CALLER KECCAK256 BALANCE KECCAK256 BALANCE 0x2D BALANCE KECCAK256 ORIGIN 0x2D ORIGIN KECCAK256 ORIGIN KECCAK256 BALANCE 0x2D ORIGIN GAS PUSH14 0x2D312033762D3168317631682D31 GAS PUSH14 0x3235203320312D3120312031682D ORIGIN GAS PUSH14 0x2D322030762D3168317631682D31 GAS PUSH14 0x2D31302030762D3168317631682D BALANCE GAS PUSH14 0x2D33203120312D3120312031682D ORIGIN GAS PUSH14 0x2D31352030762D3168317631682D BALANCE GAS PUSH14 0x2D322030762D3168317631682D31 GAS PUSH14 0x31342031762D3168317632682D32 PUSH13 0x312D315A6D323520312D332D32 PUSH23 0x2D316C36203376316C2D332D315A6D31362D31762D346C BALANCE KECCAK256 ORIGIN PUSH23 0x346C2D312032762D345A6D2D33322033762D3168317631 PUSH9 0x2D315A6D3230203176 0x2D BALANCE PUSH9 0x317631682D315A6D2D CALLER CALLVALUE KECCAK256 ADDRESS PUSH23 0x2D3168317631682D315A6D2D322031762D316831763168 0x2D BALANCE GAS PUSH14 0x34382030762D316C31203176316C 0x2D BALANCE KECCAK256 BALANCE PUSH23 0x2D325A6D2D372031762D3168317631682D315A6D2D332D BALANCE PUSH23 0x2D316C31203168317631682D316C2D312D315A6D2D3438 KECCAK256 ORIGIN KECCAK256 BALANCE 0x2D BALANCE KECCAK256 BALANCE KECCAK256 BALANCE PUSH9 0x2D325A6D2D32372D35 0x2D BALANCE 0x2D BALANCE PUSH23 0x336C312D31762D315A6D313120302D312D31682D397632 PUSH9 0x37763168326C312D31 PUSH23 0x2D315A6D2D31392035762D326C2D312D3268356C322D31 PUSH23 0x2D33683133763268316C312D3176316C2D31203168326C CALLDATALOAD 0x2D CALLDATASIZE PUSH9 0x346C2D3320312D3220 BALANCE 0x2D ORIGIN KECCAK256 CALLVALUE KECCAK256 BALANCE KECCAK256 BALANCE KECCAK256 BALANCE 0x2D BALANCE KECCAK256 ORIGIN 0x2D ORIGIN PUSH23 0x3448383376326C2D312032762D315A6D32382031762D31 PUSH9 0x317631682D315A6D36 BALANCE KECCAK256 ORIGIN PUSH23 0x2D3168317631682D315A6D2D39302030762D3168317631 PUSH9 0x2D315A6D3938203120 BALANCE 0x2D BALANCE KECCAK256 BALANCE KECCAK256 BALANCE PUSH9 0x2D325A6D2D35362030 PUSH23 0x2D3168317631682D315A6D2D31362030762D3168317631 PUSH9 0x2D315A6D3633203176 0x2D BALANCE PUSH9 0x317631682D315A6D2D CODESIZE CODECOPY KECCAK256 ADDRESS PUSH23 0x2D316C31203176316C2D312031762D325A6D3930203276 0x2D BALANCE PUSH9 0x317631682D315A6D2D CALLVALUE CODECOPY KECCAK256 ADDRESS PUSH23 0x2D3168317631682D315A6D2D31352030762D3168317631 PUSH9 0x2D315A6D2D32322030 KECCAK256 BALANCE 0x2D ORIGIN PUSH9 0x32312D32316C2D3120 CALLVALUE PUSH23 0x2D325A6D32372032762D3168317631682D315A6D2D3920 BALANCE PUSH23 0x2D3168317631682D315A6D31382031762D316831763168 0x2D BALANCE GAS PUSH14 0x35312030762D326C31203176326C 0x2D BALANCE KECCAK256 BALANCE PUSH23 0x2D325A6D2D373120302D312D32682D366C332D3168336C ORIGIN KECCAK256 ORIGIN KECCAK256 BALANCE KECCAK256 ORIGIN PUSH9 0x2D316C2D312D315A6D 0x2D BALANCE BALANCE KECCAK256 ORIGIN PUSH23 0x2D3168317631682D315A6D2D392D31762D346C31203276 CALLVALUE PUSH13 0x2D312032762D345A6D39352034 PUSH23 0x2D3168317631682D315A6D322031762D3168317631682D BALANCE GAS PUSH14 0x2D362D32762D326C3120322D3120 CALLER PUSH23 0x2D335A6D2D38302030762D3368316C312D312D31203376 CALLER PUSH9 0x2D31762D325A6D2D32 KECCAK256 ORIGIN PUSH23 0x2D3168317631682D315A6D31302030762D3168326C2D31 KECCAK256 ORIGIN PUSH9 0x2D31762D315A6D2D32 KECCAK256 ORIGIN PUSH23 0x2D3168317631682D315A6D2D342030762D316831763168 0x2D BALANCE GAS PUSH14 0x32362D32762D356C31203376356C 0x2D BALANCE KECCAK256 ORIGIN PUSH23 0x2D355A6D2D323720332D312D312032203168317631682D ORIGIN PUSH23 0x2D315A6D31342031762D316C31203176316C2D31203176 0x2D ORIGIN GAS PUSH14 0x37322031762D3168316C2D312032 PUSH9 0x2D316C312D315A6D2D CALLDATACOPY 0x2D BALANCE PUSH23 0x2D326C3120322D312033762D335A6D2D3739203220342D BALANCE KECCAK256 CODESIZE KECCAK256 BALANCE BASEFEE CODESIZE CODECOPY PUSH13 0x342D315A6D37382033762D3168 BALANCE PUSH23 0x31682D315A6D2D34392D312D312D322031203120312031 PUSH23 0x31682D31762D315A6D2D33372032762D3168317631682D BALANCE GAS PUSH14 0x38312D3431762D31682D316C2D32 0x2D BALANCE PUSH23 0x3268335A6D3133203233762D32682D3276346C322D3176 0x2D BALANCE GAS PUSH14 0x2D3631203136762D31682D317631 PUSH9 0x315A6D2D3120322D31 0x2D ORIGIN PUSH9 0x2D346C2D352031762D ORIGIN PUSH9 0x31306C2D312D37762D CALLDATACOPY PUSH13 0x312D3420322D3320332D36682D BALANCE BALANCE KECCAK256 ORIGIN PUSH13 0x332D31762D346C2D342D316836 PUSH23 0x2D326C2D34203120322D3120332D31762D316C312D3268 CALLDATACOPY PUSH13 0x2D322031682D316C2D35203376 CALLER PUSH9 0x2D32763468366C312D BALANCE KECCAK256 BALANCE 0x2D BALANCE KECCAK256 ORIGIN 0x2D ORIGIN KECCAK256 ORIGIN 0x2D BALANCE PUSH23 0x2D316C2D312D3168326C322D31762D366C312032763368 CALLVALUE PUSH13 0x312D35763568326C322D316831 CALLVALUE PUSH13 0x31203168316C32203168336C2D BALANCE 0x2D CALLVALUE PUSH9 0x2D326C2D3220312D31 0x2D CALLER KECCAK256 ORIGIN KECCAK256 BALANCE PUSH9 0x326C32203168336C32 KECCAK256 CALLER PUSH9 0x377631682D3376336C 0x2D BALANCE KECCAK256 CALLVALUE PUSH23 0x2D37682D366C2D3120312032203220322031762D316C31 0x2D ORIGIN PUSH23 0x326C312032763268316C31203120322033203120346832 PUSH13 0x2D3120327631683476326C3120 BALANCE PUSH23 0x35682D35762D366C2D352D392D332D342D332D332D3130 0x2D CALLDATALOAD PUSH9 0x2D31346C2D31302033 0x2D CALLDATACOPY KECCAK256 CALLDATACOPY 0x2D CALLER KECCAK256 CALLVALUE 0x2D ORIGIN KECCAK256 CALLDATALOAD PUSH23 0x3232682D316C2D312D315A6D3720322D312D3220312031 KECCAK256 BALANCE KECCAK256 BALANCE PUSH23 0x31682D31762D315A6D2D31352031762D3168317631682D BALANCE GAS PUSH14 0x37302D31762D33682D3276356C2D BALANCE 0x2D CALLVALUE 0x2D ORIGIN KECCAK256 BALANCE KECCAK256 BALANCE 0x2D CALLVALUE KECCAK256 BALANCE 0x2D CALLDATALOAD KECCAK256 BALANCE 0x2D BALANCE 0x2D BALANCE KECCAK256 CALLVALUE PUSH23 0x3368347636682D31762D325A6D2D332034762D31683176 BALANCE PUSH9 0x2D315A6D2D342D3220 ORIGIN 0x2D ORIGIN PUSH9 0x316C2D322034682D32 PUSH13 0x312D325A6D2D34322034762D31 PUSH9 0x317631682D315A6D2D CALLER 0x2D ORIGIN 0x2D ORIGIN 0x2D ORIGIN KECCAK256 CALLER KECCAK256 BALANCE PUSH23 0x326C312031682D316C2D312D325A6D2D32332033762D31 PUSH9 0x317631682D315A6D2D BALANCE CALLDATASIZE KECCAK256 ADDRESS KECCAK256 ORIGIN 0x2D BALANCE KECCAK256 ORIGIN KECCAK256 BALANCE PUSH9 0x322D3720315A6D2D35 0x2D ORIGIN 0x2D ORIGIN 0x2D BALANCE PUSH23 0x2D31376C322031362031203220322032682D326C2D312D ORIGIN GAS PUSH14 0x37372033762D3168317631682D31 GAS PUSH14 0x38203020312D3220312D3168396C BALANCE KECCAK256 BALANCE KECCAK256 ORIGIN KECCAK256 BALANCE 0x2D BALANCE KECCAK256 BALANCE PUSH9 0x2D316C2D322D312D32 0x2D BALANCE PUSH23 0x336C2D312D312D312D322D322031682D327632682D3276 0x2D BALANCE GAS PUSH14 0x2D353620302D312D3168382D356C BALANCE KECCAK256 BALANCE PUSH23 0x31682D33762D315A6D3636203220312D3120312031682D ORIGIN GAS PUSH14 0x2D31352D3220332D3320342D3676 ORIGIN PUSH13 0x2D3220322D3120332D3320322D ORIGIN KECCAK256 ORIGIN PUSH9 0x2D326C332D325A6D2D CALLER ADDRESS KECCAK256 ORIGIN 0x2D BALANCE 0x2D BALANCE KECCAK256 ORIGIN KECCAK256 BALANCE PUSH9 0x317631682D32762D31 GAS PUSH14 0x2D3138203120312D312031203168 0x2D ORIGIN GAS PUSH14 0x2D352030762D3168317631682D31 GAS PUSH14 0x35352030762D316C322D3176326C 0x2D ORIGIN KECCAK256 BALANCE PUSH23 0x2D315A6D2D34352031762D3168317631682D315A6D2D32 CALLDATALOAD 0x2D ORIGIN 0x2D BALANCE 0x2D ORIGIN KECCAK256 ORIGIN KECCAK256 BALANCE KECCAK256 ORIGIN KECCAK256 ORIGIN PUSH9 0x31762D34682D326C2D BALANCE 0x2D BALANCE PUSH9 0x3476356C3130203148 CODECOPY CALLDATACOPY PUSH13 0x2D322D325A6D38312032762D31 PUSH9 0x316C2D312032682D31 PUSH13 0x312D315A6D2D333920302D312D BALANCE PUSH9 0x336C312032682D3376 0x2D BALANCE GAS PUSH14 0x3131203168376C322D3220322D31 PUSH23 0x316C2D3320322D342031682D31306C362D315A6D2D3330 KECCAK256 BALANCE PUSH23 0x2D3168317631682D315A6D31322D312D322D322D332D31 0x2D ORIGIN 0x2D BALANCE PUSH23 0x2D32682D346C342D31762D326C2D322D312D312D31682D CODECOPY KECCAK256 BALANCE PUSH13 0x392D3120322033203220342034 KECCAK256 CALLER KECCAK256 CALLVALUE KECCAK256 CALLER PUSH23 0x31682D316C2D322D325A6D2D352033762D316831763168 0x2D BALANCE GAS PUSH14 0x313120312D322D31762D326C3920 ORIGIN PUSH9 0x31336C342D3220342D CALLER PUSH23 0x326C2D3420322D342032682D32305A6D32372031762D31 PUSH9 0x317631682D315A6D2D CALLER CALLVALUE KECCAK256 ADDRESS PUSH23 0x2D3168317631682D315A6D34322D3120332D3376326C2D BALANCE KECCAK256 BALANCE 0x2D ORIGIN KECCAK256 BALANCE 0x2D ORIGIN KECCAK256 BALANCE KECCAK256 ORIGIN 0x2D ORIGIN GAS PUSH14 0x2D33372032762D326C3120317632 PUSH13 0x2D312031762D325A6D31362032 KECCAK256 CALLER 0x2D BALANCE KECCAK256 CALLER KECCAK256 BALANCE PUSH9 0x332D313120325A6D2D CALLVALUE KECCAK256 ADDRESS PUSH23 0x2D3168317631682D315A6D2D38203020322D3120352031 PUSH9 0x2D3920325A6D323720 ORIGIN PUSH23 0x2D316C322D3120322D312D332033682D315A6D2D342032 KECCAK256 ORIGIN 0x2D BALANCE KECCAK256 BALANCE KECCAK256 BALANCE PUSH9 0x322D3620315A6D2D39 KECCAK256 ADDRESS KECCAK256 BALANCE 0x2D BALANCE KECCAK256 BALANCE KECCAK256 BALANCE PUSH9 0x2D325A6D2D33203076 0x2D BALANCE PUSH9 0x317631682D315A6D2D CALLDATALOAD KECCAK256 ADDRESS KECCAK256 BALANCE 0x2D BALANCE KECCAK256 BALANCE KECCAK256 BALANCE PUSH9 0x322D3520315A6D2D35 KECCAK256 ADDRESS KECCAK256 BALANCE 0x2D BALANCE KECCAK256 BALANCE KECCAK256 BALANCE PUSH9 0x2D325A6D2D33203076 0x2D BALANCE PUSH9 0x317631682D315A6D2D CALLER KECCAK256 ADDRESS PUSH23 0x2D3168317631682D315A222F3EA2646970667358221220 0xD0 CALL 0xA8 0xE0 DUP8 0xEF DUP8 0x4E ADDMOD DUP13 0xBE 0xE 0x2B 0xC7 0xE8 SWAP11 PUSH6 0xFE062C5D84BB EXTCODECOPY 0x1E PUSH23 0x7BCA4B0CCA0864736F6C634300081C0033000000000000 "
        },
        "methodIdentifiers": {
          "render()": "d607497a"
        }
      }
    }
  }
}