{
  "contracts/mocks/MockRenderer.sol": {
    "MockRenderer": {
      "abi": [
        {
          "inputs": [
            {
              "internalType": "uint256",
              "name": "",
              "type": "uint256"
            }
          ],
          "name": "renderShip",
          "outputs": [
            {
              "internalType": "string",
              "name": "",
              "type": "string"
            }
          ],
          "stateMutability": "pure",
          "type": "function"
        },
        {
          "inputs": [
            {
              "components": [
                {
                  "internalType": "string",
                  "name": "name",
                  "type": "string"
                },
                {
                  "internalType": "uint256",
                  "name": "id",
                  "type": "uint256"
                },
                {
                  "components": [
                    {
                      "internalType": "enum MainWeapon",
                      "name": "mainWeapon",
                      "type": "uint8"
                    },
                    {
                      "internalType": "enum PointDefense",
                      "name": "pointDefense",
                      "type": "uint8"
                    },
                    {
                      "internalType": "enum Armor",
                      "name": "armor",
                      "type": "uint8"
                    },
                    {
                      "internalType": "enum Shields",
                      "name": "shields",
                      "type": "uint8"
                    },
                    {
                      "internalType": "enum Special",
                      "name": "special",
                      "type": "uint8"
                    }
                  ],
                  "internalType": "struct Equipment",
                  "name": "equipment",
                  "type": "tuple"
                },
                {
                  "components": [
                    {
                      "internalType": "enum Class",
                      "name": "class",
                      "type": "uint8"
                    },
                    {
                      "internalType": "uint256",
                      "name": "serialNumber",
                      "type": "uint256"
                    },
                    {
                      "internalType": "uint8",
                      "name": "r1",
                      "type": "uint8"
                    },
                    {
                      "internalType": "uint8",
                      "name": "g1",
                      "type": "uint8"
                    },
                    {
                      "internalType": "uint8",
                      "name": "b1",
                      "type": "uint8"
                    },
                    {
                      "internalType": "uint8",
                      "name": "r2",
                      "type": "uint8"
                    },
                    {
                      "internalType": "uint8",
                      "name": "g2",
                      "type": "uint8"
                    },
                    {
                      "internalType": "uint8",
                      "name": "b2",
                      "type": "uint8"
                    },
                    {
                      "internalType": "uint8",
                      "name": "variant",
                      "type": "uint8"
                    },
                    {
                      "internalType": "uint8",
                      "name": "accuracy",
                      "type": "uint8"
                    },
                    {
                      "internalType": "uint8",
                      "name": "brawling",
                      "type": "uint8"
                    },
                    {
                      "internalType": "uint8",
                      "name": "hull",
                      "type": "uint8"
                    },
                    {
                      "internalType": "uint8",
                      "name": "speed",
                      "type": "uint8"
                    }
                  ],
                  "internalType": "struct Traits",
                  "name": "traits",
                  "type": "tuple"
                },
                {
                  "components": [
                    {
                      "internalType": "uint256",
                      "name": "gameId",
                      "type": "uint256"
                    },
                    {
                      "components": [
                        {
                          "internalType": "uint8",
                          "name": "version",
                          "type": "uint8"
                        },
                        {
                          "internalType": "uint8",
                          "name": "range",
                          "type": "uint8"
                        },
                        {
                          "internalType": "uint8",
                          "name": "gunDamage",
                          "type": "uint8"
                        },
                        {
                          "internalType": "uint8",
                          "name": "pointDefenseDamage",
                          "type": "uint8"
                        },
                        {
                          "internalType": "uint8",
                          "name": "hullPoints",
                          "type": "uint8"
                        },
                        {
                          "internalType": "uint8",
                          "name": "movement",
                          "type": "uint8"
                        }
                      ],
                      "internalType": "struct Attributes",
                      "name": "attributes",
                      "type": "tuple"
                    },
                    {
                      "internalType": "uint8",
                      "name": "damageTaken",
                      "type": "uint8"
                    },
                    {
                      "internalType": "bool",
                      "name": "inLobby",
                      "type": "bool"
                    },
                    {
                      "internalType": "bool",
                      "name": "movedThisTurn",
                      "type": "bool"
                    },
                    {
                      "internalType": "bool",
                      "name": "firedThisTurn",
                      "type": "bool"
                    }
                  ],
                  "internalType": "struct GameData",
                  "name": "gameData",
                  "type": "tuple"
                },
                {
                  "internalType": "uint32",
                  "name": "shipsDestroyed",
                  "type": "uint32"
                },
                {
                  "internalType": "uint16",
                  "name": "costsVersion",
                  "type": "uint16"
                },
                {
                  "internalType": "uint16",
                  "name": "cost",
                  "type": "uint16"
                },
                {
                  "internalType": "bool",
                  "name": "shiny",
                  "type": "bool"
                },
                {
                  "internalType": "uint256",
                  "name": "timestampDestroyed",
                  "type": "uint256"
                },
                {
                  "internalType": "address",
                  "name": "owner",
                  "type": "address"
                }
              ],
              "internalType": "struct Ship",
              "name": "",
              "type": "tuple"
            }
          ],
          "name": "tokenURI",
          "outputs": [
            {
              "internalType": "string",
              "name": "",
              "type": "string"
            }
          ],
          "stateMutability": "pure",
          "type": "function"
        }
      ],
      "evm": {
        "bytecode": {
          "linkReferences": {},
          "object": "6080604052348015600f57600080fd5b5061068f8061001f6000396000f3fe608060405234801561001057600080fd5b50600436106100365760003560e01c806361fee5071461003b578063943f824b14610082575b600080fd5b61006c6100493660046104d7565b506040805180820190915260088152676d6f636b2d75726960c01b602082015290565b60405161007991906105f2565b60405180910390f35b61006c610090366004610640565b5060408051808201909152600d81526c6d6f636b2d7376672d6461746160981b602082015290565b634e487b7160e01b600052604160045260246000fd5b6040516101a0810167ffffffffffffffff811182821017156100f2576100f26100b8565b60405290565b60405160c0810167ffffffffffffffff811182821017156100f2576100f26100b8565b604051610160810167ffffffffffffffff811182821017156100f2576100f26100b8565b600082601f83011261015057600080fd5b813567ffffffffffffffff81111561016a5761016a6100b8565b604051601f8201601f19908116603f0116810167ffffffffffffffff81118282101715610199576101996100b8565b6040528181528382016020018510156101b157600080fd5b816020850160208301376000918101602001919091529392505050565b600481106101db57600080fd5b50565b80356101e9816101ce565b919050565b600060a0828403121561020057600080fd5b60405160a0810167ffffffffffffffff81118282101715610223576102236100b8565b6040529050808235610234816101ce565b81526020830135610244816101ce565b60208201526040830135610257816101ce565b6040820152606083013561026a816101ce565b6060820152608083013561027d816101ce565b6080919091015292915050565b803560ff811681146101e957600080fd5b60006101a082840312156102ae57600080fd5b6102b66100ce565b90506102c1826101de565b8152602082810135908201526102d96040830161028a565b60408201526102ea6060830161028a565b60608201526102fb6080830161028a565b608082015261030c60a0830161028a565b60a082015261031d60c0830161028a565b60c082015261032e60e0830161028a565b60e0820152610340610100830161028a565b610100820152610353610120830161028a565b610120820152610366610140830161028a565b610140820152610379610160830161028a565b61016082015261038c610180830161028a565b61018082015292915050565b803580151581146101e957600080fd5b60008183036101608112156103bc57600080fd5b6103c46100f8565b83358152915060c0601f19820112156103dc57600080fd5b506103e56100f8565b6103f16020840161028a565b81526103ff6040840161028a565b60208201526104106060840161028a565b60408201526104216080840161028a565b606082015261043260a0840161028a565b608082015261044360c0840161028a565b60a0820152602082015261045960e0830161028a565b604082015261046b6101008301610398565b606082015261047d6101208301610398565b608082015261048f6101408301610398565b60a082015292915050565b803563ffffffff811681146101e957600080fd5b803561ffff811681146101e957600080fd5b80356001600160a01b03811681146101e957600080fd5b6000602082840312156104e957600080fd5b813567ffffffffffffffff81111561050057600080fd5b82016104a0818503121561051357600080fd5b61051b61011b565b813567ffffffffffffffff81111561053257600080fd5b61053e8682850161013f565b8252506020828101359082015261055885604084016101ee565b604082015261056a8560e0840161029b565b606082015261057d8561028084016103a8565b608082015261058f6103e0830161049a565b60a08201526105a161040083016104ae565b60c08201526105b361042083016104ae565b60e08201526105c56104408301610398565b6101008201526104608201356101208201526105e461048083016104c0565b610140820152949350505050565b602081526000825180602084015260005b818110156106205760208186018101516040868401015201610603565b506000604082850101526040601f19601f83011684010191505092915050565b60006020828403121561065257600080fd5b503591905056fea2646970667358221220544c405598630c5de31ca6625488fcb87cf183b64105c4c2516db0efcdf560e964736f6c634300081c0033",
          "opcodes": "PUSH1 0x80 PUSH1 0x40 MSTORE CALLVALUE DUP1 ISZERO PUSH1 0xF JUMPI PUSH1 0x0 DUP1 REVERT JUMPDEST POP PUSH2 0x68F DUP1 PUSH2 0x1F PUSH1 0x0 CODECOPY PUSH1 0x0 RETURN INVALID PUSH1 0x80 PUSH1 0x40 MSTORE CALLVALUE DUP1 ISZERO PUSH2 0x10 JUMPI PUSH1 0x0 DUP1 REVERT JUMPDEST POP PUSH1 0x4 CALLDATASIZE LT PUSH2 0x36 JUMPI PUSH1 0x0 CALLDATALOAD PUSH1 0xE0 SHR DUP1 PUSH4 0x61FEE507 EQ PUSH2 0x3B JUMPI DUP1 PUSH4 0x943F824B EQ PUSH2 0x82 JUMPI JUMPDEST PUSH1 0x0 DUP1 REVERT JUMPDEST PUSH2 0x6C PUSH2 0x49 CALLDATASIZE PUSH1 0x4 PUSH2 0x4D7 JUMP JUMPDEST POP PUSH1 0x40 DUP1 MLOAD DUP1 DUP3 ADD SWAP1 SWAP2 MSTORE PUSH1 0x8 DUP2 MSTORE PUSH8 0x6D6F636B2D757269 PUSH1 0xC0 SHL PUSH1 0x20 DUP3 ADD MSTORE SWAP1 JUMP JUMPDEST PUSH1 0x40 MLOAD PUSH2 0x79 SWAP2 SWAP1 PUSH2 0x5F2 JUMP JUMPDEST PUSH1 0x40 MLOAD DUP1 SWAP2 SUB SWAP1 RETURN JUMPDEST PUSH2 0x6C PUSH2 0x90 CALLDATASIZE PUSH1 0x4 PUSH2 0x640 JUMP JUMPDEST POP PUSH1 0x40 DUP1 MLOAD DUP1 DUP3 ADD SWAP1 SWAP2 MSTORE PUSH1 0xD DUP2 MSTORE PUSH13 0x6D6F636B2D7376672D64617461 PUSH1 0x98 SHL PUSH1 0x20 DUP3 ADD MSTORE SWAP1 JUMP JUMPDEST PUSH4 0x4E487B71 PUSH1 0xE0 SHL PUSH1 0x0 MSTORE PUSH1 0x41 PUSH1 0x4 MSTORE PUSH1 0x24 PUSH1 0x0 REVERT JUMPDEST PUSH1 0x40 MLOAD PUSH2 0x1A0 DUP2 ADD PUSH8 0xFFFFFFFFFFFFFFFF DUP2 GT DUP3 DUP3 LT OR ISZERO PUSH2 0xF2 JUMPI PUSH2 0xF2 PUSH2 0xB8 JUMP JUMPDEST PUSH1 0x40 MSTORE SWAP1 JUMP JUMPDEST PUSH1 0x40 MLOAD PUSH1 0xC0 DUP2 ADD PUSH8 0xFFFFFFFFFFFFFFFF DUP2 GT DUP3 DUP3 LT OR ISZERO PUSH2 0xF2 JUMPI PUSH2 0xF2 PUSH2 0xB8 JUMP JUMPDEST PUSH1 0x40 MLOAD PUSH2 0x160 DUP2 ADD PUSH8 0xFFFFFFFFFFFFFFFF DUP2 GT DUP3 DUP3 LT OR ISZERO PUSH2 0xF2 JUMPI PUSH2 0xF2 PUSH2 0xB8 JUMP JUMPDEST PUSH1 0x0 DUP3 PUSH1 0x1F DUP4 ADD SLT PUSH2 0x150 JUMPI PUSH1 0x0 DUP1 REVERT JUMPDEST DUP2 CALLDATALOAD PUSH8 0xFFFFFFFFFFFFFFFF DUP2 GT ISZERO PUSH2 0x16A JUMPI PUSH2 0x16A PUSH2 0xB8 JUMP JUMPDEST PUSH1 0x40 MLOAD PUSH1 0x1F DUP3 ADD PUSH1 0x1F NOT SWAP1 DUP2 AND PUSH1 0x3F ADD AND DUP2 ADD PUSH8 0xFFFFFFFFFFFFFFFF DUP2 GT DUP3 DUP3 LT OR ISZERO PUSH2 0x199 JUMPI PUSH2 0x199 PUSH2 0xB8 JUMP JUMPDEST PUSH1 0x40 MSTORE DUP2 DUP2 MSTORE DUP4 DUP3 ADD PUSH1 0x20 ADD DUP6 LT ISZERO PUSH2 0x1B1 JUMPI PUSH1 0x0 DUP1 REVERT JUMPDEST DUP2 PUSH1 0x20 DUP6 ADD PUSH1 0x20 DUP4 ADD CALLDATACOPY PUSH1 0x0 SWAP2 DUP2 ADD PUSH1 0x20 ADD SWAP2 SWAP1 SWAP2 MSTORE SWAP4 SWAP3 POP POP POP JUMP JUMPDEST PUSH1 0x4 DUP2 LT PUSH2 0x1DB JUMPI PUSH1 0x0 DUP1 REVERT JUMPDEST POP JUMP JUMPDEST DUP1 CALLDATALOAD PUSH2 0x1E9 DUP2 PUSH2 0x1CE JUMP JUMPDEST SWAP2 SWAP1 POP JUMP JUMPDEST PUSH1 0x0 PUSH1 0xA0 DUP3 DUP5 SUB SLT ISZERO PUSH2 0x200 JUMPI PUSH1 0x0 DUP1 REVERT JUMPDEST PUSH1 0x40 MLOAD PUSH1 0xA0 DUP2 ADD PUSH8 0xFFFFFFFFFFFFFFFF DUP2 GT DUP3 DUP3 LT OR ISZERO PUSH2 0x223 JUMPI PUSH2 0x223 PUSH2 0xB8 JUMP JUMPDEST PUSH1 0x40 MSTORE SWAP1 POP DUP1 DUP3 CALLDATALOAD PUSH2 0x234 DUP2 PUSH2 0x1CE JUMP JUMPDEST DUP2 MSTORE PUSH1 0x20 DUP4 ADD CALLDATALOAD PUSH2 0x244 DUP2 PUSH2 0x1CE JUMP JUMPDEST PUSH1 0x20 DUP3 ADD MSTORE PUSH1 0x40 DUP4 ADD CALLDATALOAD PUSH2 0x257 DUP2 PUSH2 0x1CE JUMP JUMPDEST PUSH1 0x40 DUP3 ADD MSTORE PUSH1 0x60 DUP4 ADD CALLDATALOAD PUSH2 0x26A DUP2 PUSH2 0x1CE JUMP JUMPDEST PUSH1 0x60 DUP3 ADD MSTORE PUSH1 0x80 DUP4 ADD CALLDATALOAD PUSH2 0x27D DUP2 PUSH2 0x1CE JUMP JUMPDEST PUSH1 0x80 SWAP2 SWAP1 SWAP2 ADD MSTORE SWAP3 SWAP2 POP POP JUMP JUMPDEST DUP1 CALLDATALOAD PUSH1 0xFF DUP2 AND DUP2 EQ PUSH2 0x1E9 JUMPI PUSH1 0x0 DUP1 REVERT JUMPDEST PUSH1 0x0 PUSH2 0x1A0 DUP3 DUP5 SUB SLT ISZERO PUSH2 0x2AE JUMPI PUSH1 0x0 DUP1 REVERT JUMPDEST PUSH2 0x2B6 PUSH2 0xCE JUMP JUMPDEST SWAP1 POP PUSH2 0x2C1 DUP3 PUSH2 0x1DE JUMP JUMPDEST DUP2 MSTORE PUSH1 0x20 DUP3 DUP2 ADD CALLDATALOAD SWAP1 DUP3 ADD MSTORE PUSH2 0x2D9 PUSH1 0x40 DUP4 ADD PUSH2 0x28A JUMP JUMPDEST PUSH1 0x40 DUP3 ADD MSTORE PUSH2 0x2EA PUSH1 0x60 DUP4 ADD PUSH2 0x28A JUMP JUMPDEST PUSH1 0x60 DUP3 ADD MSTORE PUSH2 0x2FB PUSH1 0x80 DUP4 ADD PUSH2 0x28A JUMP JUMPDEST PUSH1 0x80 DUP3 ADD MSTORE PUSH2 0x30C PUSH1 0xA0 DUP4 ADD PUSH2 0x28A JUMP JUMPDEST PUSH1 0xA0 DUP3 ADD MSTORE PUSH2 0x31D PUSH1 0xC0 DUP4 ADD PUSH2 0x28A JUMP JUMPDEST PUSH1 0xC0 DUP3 ADD MSTORE PUSH2 0x32E PUSH1 0xE0 DUP4 ADD PUSH2 0x28A JUMP JUMPDEST PUSH1 0xE0 DUP3 ADD MSTORE PUSH2 0x340 PUSH2 0x100 DUP4 ADD PUSH2 0x28A JUMP JUMPDEST PUSH2 0x100 DUP3 ADD MSTORE PUSH2 0x353 PUSH2 0x120 DUP4 ADD PUSH2 0x28A JUMP JUMPDEST PUSH2 0x120 DUP3 ADD MSTORE PUSH2 0x366 PUSH2 0x140 DUP4 ADD PUSH2 0x28A JUMP JUMPDEST PUSH2 0x140 DUP3 ADD MSTORE PUSH2 0x379 PUSH2 0x160 DUP4 ADD PUSH2 0x28A JUMP JUMPDEST PUSH2 0x160 DUP3 ADD MSTORE PUSH2 0x38C PUSH2 0x180 DUP4 ADD PUSH2 0x28A JUMP JUMPDEST PUSH2 0x180 DUP3 ADD MSTORE SWAP3 SWAP2 POP POP JUMP JUMPDEST DUP1 CALLDATALOAD DUP1 ISZERO ISZERO DUP2 EQ PUSH2 0x1E9 JUMPI PUSH1 0x0 DUP1 REVERT JUMPDEST PUSH1 0x0 DUP2 DUP4 SUB PUSH2 0x160 DUP2 SLT ISZERO PUSH2 0x3BC JUMPI PUSH1 0x0 DUP1 REVERT JUMPDEST PUSH2 0x3C4 PUSH2 0xF8 JUMP JUMPDEST DUP4 CALLDATALOAD DUP2 MSTORE SWAP2 POP PUSH1 0xC0 PUSH1 0x1F NOT DUP3 ADD SLT ISZERO PUSH2 0x3DC JUMPI PUSH1 0x0 DUP1 REVERT JUMPDEST POP PUSH2 0x3E5 PUSH2 0xF8 JUMP JUMPDEST PUSH2 0x3F1 PUSH1 0x20 DUP5 ADD PUSH2 0x28A JUMP JUMPDEST DUP2 MSTORE PUSH2 0x3FF PUSH1 0x40 DUP5 ADD PUSH2 0x28A JUMP JUMPDEST PUSH1 0x20 DUP3 ADD MSTORE PUSH2 0x410 PUSH1 0x60 DUP5 ADD PUSH2 0x28A JUMP JUMPDEST PUSH1 0x40 DUP3 ADD MSTORE PUSH2 0x421 PUSH1 0x80 DUP5 ADD PUSH2 0x28A JUMP JUMPDEST PUSH1 0x60 DUP3 ADD MSTORE PUSH2 0x432 PUSH1 0xA0 DUP5 ADD PUSH2 0x28A JUMP JUMPDEST PUSH1 0x80 DUP3 ADD MSTORE PUSH2 0x443 PUSH1 0xC0 DUP5 ADD PUSH2 0x28A JUMP JUMPDEST PUSH1 0xA0 DUP3 ADD MSTORE PUSH1 0x20 DUP3 ADD MSTORE PUSH2 0x459 PUSH1 0xE0 DUP4 ADD PUSH2 0x28A JUMP JUMPDEST PUSH1 0x40 DUP3 ADD MSTORE PUSH2 0x46B PUSH2 0x100 DUP4 ADD PUSH2 0x398 JUMP JUMPDEST PUSH1 0x60 DUP3 ADD MSTORE PUSH2 0x47D PUSH2 0x120 DUP4 ADD PUSH2 0x398 JUMP JUMPDEST PUSH1 0x80 DUP3 ADD MSTORE PUSH2 0x48F PUSH2 0x140 DUP4 ADD PUSH2 0x398 JUMP JUMPDEST PUSH1 0xA0 DUP3 ADD MSTORE SWAP3 SWAP2 POP POP JUMP JUMPDEST DUP1 CALLDATALOAD PUSH4 0xFFFFFFFF DUP2 AND DUP2 EQ PUSH2 0x1E9 JUMPI PUSH1 0x0 DUP1 REVERT JUMPDEST DUP1 CALLDATALOAD PUSH2 0xFFFF DUP2 AND DUP2 EQ PUSH2 0x1E9 JUMPI PUSH1 0x0 DUP1 REVERT JUMPDEST DUP1 CALLDATALOAD PUSH1 0x1 PUSH1 0x1 PUSH1 0xA0 SHL SUB DUP2 AND DUP2 EQ PUSH2 0x1E9 JUMPI PUSH1 0x0 DUP1 REVERT JUMPDEST PUSH1 0x0 PUSH1 0x20 DUP3 DUP5 SUB SLT ISZERO PUSH2 0x4E9 JUMPI PUSH1 0x0 DUP1 REVERT JUMPDEST DUP2 CALLDATALOAD PUSH8 0xFFFFFFFFFFFFFFFF DUP2 GT ISZERO PUSH2 0x500 JUMPI PUSH1 0x0 DUP1 REVERT JUMPDEST DUP3 ADD PUSH2 0x4A0 DUP2 DUP6 SUB SLT ISZERO PUSH2 0x513 JUMPI PUSH1 0x0 DUP1 REVERT JUMPDEST PUSH2 0x51B PUSH2 0x11B JUMP JUMPDEST DUP2 CALLDATALOAD PUSH8 0xFFFFFFFFFFFFFFFF DUP2 GT ISZERO PUSH2 0x532 JUMPI PUSH1 0x0 DUP1 REVERT JUMPDEST PUSH2 0x53E DUP7 DUP3 DUP6 ADD PUSH2 0x13F JUMP JUMPDEST DUP3 MSTORE POP PUSH1 0x20 DUP3 DUP2 ADD CALLDATALOAD SWAP1 DUP3 ADD MSTORE PUSH2 0x558 DUP6 PUSH1 0x40 DUP5 ADD PUSH2 0x1EE JUMP JUMPDEST PUSH1 0x40 DUP3 ADD MSTORE PUSH2 0x56A DUP6 PUSH1 0xE0 DUP5 ADD PUSH2 0x29B JUMP JUMPDEST PUSH1 0x60 DUP3 ADD MSTORE PUSH2 0x57D DUP6 PUSH2 0x280 DUP5 ADD PUSH2 0x3A8 JUMP JUMPDEST PUSH1 0x80 DUP3 ADD MSTORE PUSH2 0x58F PUSH2 0x3E0 DUP4 ADD PUSH2 0x49A JUMP JUMPDEST PUSH1 0xA0 DUP3 ADD MSTORE PUSH2 0x5A1 PUSH2 0x400 DUP4 ADD PUSH2 0x4AE JUMP JUMPDEST PUSH1 0xC0 DUP3 ADD MSTORE PUSH2 0x5B3 PUSH2 0x420 DUP4 ADD PUSH2 0x4AE JUMP JUMPDEST PUSH1 0xE0 DUP3 ADD MSTORE PUSH2 0x5C5 PUSH2 0x440 DUP4 ADD PUSH2 0x398 JUMP JUMPDEST PUSH2 0x100 DUP3 ADD MSTORE PUSH2 0x460 DUP3 ADD CALLDATALOAD PUSH2 0x120 DUP3 ADD MSTORE PUSH2 0x5E4 PUSH2 0x480 DUP4 ADD PUSH2 0x4C0 JUMP JUMPDEST PUSH2 0x140 DUP3 ADD MSTORE SWAP5 SWAP4 POP POP POP POP JUMP JUMPDEST PUSH1 0x20 DUP2 MSTORE PUSH1 0x0 DUP3 MLOAD DUP1 PUSH1 0x20 DUP5 ADD MSTORE PUSH1 0x0 JUMPDEST DUP2 DUP2 LT ISZERO PUSH2 0x620 JUMPI PUSH1 0x20 DUP2 DUP7 ADD DUP2 ADD MLOAD PUSH1 0x40 DUP7 DUP5 ADD ADD MSTORE ADD PUSH2 0x603 JUMP JUMPDEST POP PUSH1 0x0 PUSH1 0x40 DUP3 DUP6 ADD ADD MSTORE PUSH1 0x40 PUSH1 0x1F NOT PUSH1 0x1F DUP4 ADD AND DUP5 ADD ADD SWAP2 POP POP SWAP3 SWAP2 POP POP JUMP JUMPDEST PUSH1 0x0 PUSH1 0x20 DUP3 DUP5 SUB SLT ISZERO PUSH2 0x652 JUMPI PUSH1 0x0 DUP1 REVERT JUMPDEST POP CALLDATALOAD SWAP2 SWAP1 POP JUMP INVALID LOG2 PUSH5 0x6970667358 0x22 SLT KECCAK256 SLOAD 0x4C BLOCKHASH SSTORE SWAP9 PUSH4 0xC5DE31C 0xA6 PUSH3 0x5488FC 0xB8 PUSH29 0xF183B64105C4C2516DB0EFCDF560E964736F6C634300081C0033000000 "
        },
        "methodIdentifiers": {
          "renderShip(uint256)": "943f824b",
          "tokenURI((string,uint256,(uint8,uint8,uint8,uint8,uint8),(uint8,uint256,uint8,uint8,uint8,uint8,uint8,uint8,uint8,uint8,uint8,uint8,uint8),(uint256,(uint8,uint8,uint8,uint8,uint8,uint8),uint8,bool,bool,bool),uint32,uint16,uint16,bool,uint256,address))": "61fee507"
        }
      }
    }
  }
}