{
  "contracts/mocks/MockOnchainRandomShipNames.sol": {
    "MockOnchainRandomShipNames": {
      "abi": [
        {
          "inputs": [
            {
              "internalType": "bytes32",
              "name": "",
              "type": "bytes32"
            }
          ],
          "name": "getRandomShipName",
          "outputs": [
            {
              "internalType": "string",
              "name": "",
              "type": "string"
            }
          ],
          "stateMutability": "pure",
          "type": "function"
        },
        {
          "inputs": [
            {
              "internalType": "uint256",
              "name": "",
              "type": "uint256"
            }
          ],
          "name": "getRandomness",
          "outputs": [
            {
              "internalType": "uint256",
              "name": "",
              "type": "uint256"
            }
          ],
          "stateMutability": "pure",
          "type": "function"
        },
        {
          "inputs": [],
          "name": "requestRandomness",
          "outputs": [
            {
              "internalType": "uint256",
              "name": "",
              "type": "uint256"
            }
          ],
          "stateMutability": "pure",
          "type": "function"
        }
      ],
      "evm": {
        "bytecode": {
          "linkReferences": {},
          "object": "6080604052348015600f57600080fd5b506101508061001f6000396000f3fe608060405234801561001057600080fd5b50600436106100415760003560e01c8063453f4f6214610046578063549188c61461006d578063f8413b07146100ac575b600080fd5b61005a6100543660046100b3565b50600190565b6040519081526020015b60405180910390f35b61009f61007b3660046100b3565b5060408051808201909152600981526804d6f636b20536869760bc1b602082015290565b60405161006491906100cc565b600161005a565b6000602082840312156100c557600080fd5b5035919050565b602081526000825180602084015260005b818110156100fa57602081860181015160408684010152016100dd565b506000604082850101526040601f19601f8301168401019150509291505056fea2646970667358221220219a6bd491da0ece4a3fcb5acd6aecf7281b2ac7841e3f3aebcf54175cee438664736f6c634300081c0033",
          "opcodes": "PUSH1 0x80 PUSH1 0x40 MSTORE CALLVALUE DUP1 ISZERO PUSH1 0xF JUMPI PUSH1 0x0 DUP1 REVERT JUMPDEST POP PUSH2 0x150 DUP1 PUSH2 0x1F PUSH1 0x0 CODECOPY PUSH1 0x0 RETURN INVALID PUSH1 0x80 PUSH1 0x40 MSTORE CALLVALUE DUP1 ISZERO PUSH2 0x10 JUMPI PUSH1 0x0 DUP1 REVERT JUMPDEST POP PUSH1 0x4 CALLDATASIZE LT PUSH2 0x41 JUMPI PUSH1 0x0 CALLDATALOAD PUSH1 0xE0 SHR DUP1 PUSH4 0x453F4F62 EQ PUSH2 0x46 JUMPI DUP1 PUSH4 0x549188C6 EQ PUSH2 0x6D JUMPI DUP1 PUSH4 0xF8413B07 EQ PUSH2 0xAC JUMPI JUMPDEST PUSH1 0x0 DUP1 REVERT JUMPDEST PUSH2 0x5A PUSH2 0x54 CALLDATASIZE PUSH1 0x4 PUSH2 0xB3 JUMP JUMPDEST POP PUSH1 0x1 SWAP1 JUMP JUMPDEST PUSH1 0x40 MLOAD SWAP1 DUP2 MSTORE PUSH1 0x20 ADD JUMPDEST PUSH1 0x40 MLOAD DUP1 SWAP2 SUB SWAP1 RETURN JUMPDEST PUSH2 0x9F PUSH2 0x7B CALLDATASIZE PUSH1 0x4 PUSH2 0xB3 JUMP JUMPDEST POP PUSH1 0x40 DUP1 MLOAD DUP1 DUP3 ADD SWAP1 SWAP2 MSTORE PUSH1 0x9 DUP2 MSTORE PUSH9 0x4D6F636B205368697 PUSH1 0xBC SHL PUSH1 0x20 DUP3 ADD MSTORE SWAP1 JUMP JUMPDEST PUSH1 0x40 MLOAD PUSH2 0x64 SWAP2 SWAP1 PUSH2 0xCC JUMP JUMPDEST PUSH1 0x1 PUSH2 0x5A JUMP JUMPDEST PUSH1 0x0 PUSH1 0x20 DUP3 DUP5 SUB SLT ISZERO PUSH2 0xC5 JUMPI PUSH1 0x0 DUP1 REVERT JUMPDEST POP CALLDATALOAD SWAP2 SWAP1 POP JUMP JUMPDEST PUSH1 0x20 DUP2 MSTORE PUSH1 0x0 DUP3 MLOAD DUP1 PUSH1 0x20 DUP5 ADD MSTORE PUSH1 0x0 JUMPDEST DUP2 DUP2 LT ISZERO PUSH2 0xFA JUMPI PUSH1 0x20 DUP2 DUP7 ADD DUP2 ADD MLOAD PUSH1 0x40 DUP7 DUP5 ADD ADD MSTORE ADD PUSH2 0xDD JUMP JUMPDEST POP PUSH1 0x0 PUSH1 0x40 DUP3 DUP6 ADD ADD MSTORE PUSH1 0x40 PUSH1 0x1F NOT PUSH1 0x1F DUP4 ADD AND DUP5 ADD ADD SWAP2 POP POP SWAP3 SWAP2 POP POP JUMP INVALID LOG2 PUSH5 0x6970667358 0x22 SLT KECCAK256 0x21 SWAP11 PUSH12 0xD491DA0ECE4A3FCB5ACD6AEC 0xF7 0x28 SHL 0x2A 0xC7 DUP5 0x1E EXTCODEHASH GASPRICE 0xEB 0xCF SLOAD OR TLOAD 0xEE NUMBER DUP7 PUSH5 0x736F6C6343 STOP ADDMOD SHR STOP CALLER "
        },
        "methodIdentifiers": {
          "getRandomShipName(bytes32)": "549188c6",
          "getRandomness(uint256)": "453f4f62",
          "requestRandomness()": "f8413b07"
        }
      }
    }
  }
}