{
  "_format": "hh-sol-artifact-1",
  "contractName": "RenderSpecial",
  "sourceName": "contracts/Renderers/RenderSpecial.sol",
  "abi": [
    {
      "inputs": [
        {
          "internalType": "address[]",
          "name": "renderers",
          "type": "address[]"
        }
      ],
      "stateMutability": "nonpayable",
      "type": "constructor"
    },
    {
      "inputs": [
        {
          "components": [
            {
              "internalType": "string",
              "name": "name",
              "type": "string"
            },
            {
              "internalType": "uint256",
              "name": "id",
              "type": "uint256"
            },
            {
              "components": [
                {
                  "internalType": "enum MainWeapon",
                  "name": "mainWeapon",
                  "type": "uint8"
                },
                {
                  "internalType": "enum Armor",
                  "name": "armor",
                  "type": "uint8"
                },
                {
                  "internalType": "enum Shields",
                  "name": "shields",
                  "type": "uint8"
                },
                {
                  "internalType": "enum Special",
                  "name": "special",
                  "type": "uint8"
                }
              ],
              "internalType": "struct Equipment",
              "name": "equipment",
              "type": "tuple"
            },
            {
              "components": [
                {
                  "internalType": "uint256",
                  "name": "serialNumber",
                  "type": "uint256"
                },
                {
                  "internalType": "uint8",
                  "name": "r1",
                  "type": "uint8"
                },
                {
                  "internalType": "uint8",
                  "name": "g1",
                  "type": "uint8"
                },
                {
                  "internalType": "uint8",
                  "name": "b1",
                  "type": "uint8"
                },
                {
                  "internalType": "uint8",
                  "name": "r2",
                  "type": "uint8"
                },
                {
                  "internalType": "uint8",
                  "name": "g2",
                  "type": "uint8"
                },
                {
                  "internalType": "uint8",
                  "name": "b2",
                  "type": "uint8"
                },
                {
                  "internalType": "uint8",
                  "name": "variant",
                  "type": "uint8"
                },
                {
                  "internalType": "uint8",
                  "name": "accuracy",
                  "type": "uint8"
                },
                {
                  "internalType": "uint8",
                  "name": "hull",
                  "type": "uint8"
                },
                {
                  "internalType": "uint8",
                  "name": "speed",
                  "type": "uint8"
                }
              ],
              "internalType": "struct Traits",
              "name": "traits",
              "type": "tuple"
            },
            {
              "components": [
                {
                  "internalType": "uint256",
                  "name": "gameId",
                  "type": "uint256"
                },
                {
                  "components": [
                    {
                      "internalType": "uint8",
                      "name": "version",
                      "type": "uint8"
                    },
                    {
                      "internalType": "uint8",
                      "name": "range",
                      "type": "uint8"
                    },
                    {
                      "internalType": "uint8",
                      "name": "gunDamage",
                      "type": "uint8"
                    },
                    {
                      "internalType": "uint8",
                      "name": "hullPoints",
                      "type": "uint8"
                    },
                    {
                      "internalType": "uint8",
                      "name": "movement",
                      "type": "uint8"
                    },
                    {
                      "internalType": "uint8[]",
                      "name": "statusEffects",
                      "type": "uint8[]"
                    }
                  ],
                  "internalType": "struct Attributes",
                  "name": "attributes",
                  "type": "tuple"
                },
                {
                  "internalType": "uint8",
                  "name": "damageTaken",
                  "type": "uint8"
                },
                {
                  "internalType": "bool",
                  "name": "inLobby",
                  "type": "bool"
                },
                {
                  "internalType": "bool",
                  "name": "movedThisTurn",
                  "type": "bool"
                },
                {
                  "internalType": "bool",
                  "name": "firedThisTurn",
                  "type": "bool"
                }
              ],
              "internalType": "struct GameData",
              "name": "gameData",
              "type": "tuple"
            },
            {
              "internalType": "uint32",
              "name": "shipsDestroyed",
              "type": "uint32"
            },
            {
              "internalType": "uint16",
              "name": "costsVersion",
              "type": "uint16"
            },
            {
              "internalType": "uint16",
              "name": "cost",
              "type": "uint16"
            },
            {
              "internalType": "bool",
              "name": "shiny",
              "type": "bool"
            },
            {
              "internalType": "bool",
              "name": "constructed",
              "type": "bool"
            },
            {
              "internalType": "uint256",
              "name": "timestampDestroyed",
              "type": "uint256"
            },
            {
              "internalType": "address",
              "name": "owner",
              "type": "address"
            }
          ],
          "internalType": "struct Ship",
          "name": "ship",
          "type": "tuple"
        }
      ],
      "name": "render",
      "outputs": [
        {
          "internalType": "string",
          "name": "",
          "type": "string"
        }
      ],
      "stateMutability": "view",
      "type": "function"
    },
    {
      "inputs": [],
      "name": "renderSpecial1",
      "outputs": [
        {
          "internalType": "contract IReturnSVG",
          "name": "",
          "type": "address"
        }
      ],
      "stateMutability": "view",
      "type": "function"
    },
    {
      "inputs": [],
      "name": "renderSpecial2",
      "outputs": [
        {
          "internalType": "contract IReturnSVG",
          "name": "",
          "type": "address"
        }
      ],
      "stateMutability": "view",
      "type": "function"
    },
    {
      "inputs": [],
      "name": "renderSpecial3",
      "outputs": [
        {
          "internalType": "contract IReturnSVG",
          "name": "",
          "type": "address"
        }
      ],
      "stateMutability": "view",
      "type": "function"
    }
  ],
  "bytecode": "0x60e060405234801561001057600080fd5b50604051610c79380380610c7983398101604081905261002f9161015f565b80516003146100955760405162461bcd60e51b815260206004820152602860248201527f496e76616c69642072656e64657265727320617272617920696e2052656e64656044820152671c94dc1958da585b60c21b606482015260840160405180910390fd5b806000815181106100a8576100a861022e565b60200260200101516001600160a01b03166080816001600160a01b031681525050806001815181106100dc576100dc61022e565b60200260200101516001600160a01b031660a0816001600160a01b031681525050806002815181106101105761011061022e565b60209081029190910101516001600160a01b031660c05250610244565b634e487b7160e01b600052604160045260246000fd5b80516001600160a01b038116811461015a57600080fd5b919050565b60006020828403121561017157600080fd5b81516001600160401b0381111561018757600080fd5b8201601f8101841361019857600080fd5b80516001600160401b038111156101b1576101b161012d565b604051600582901b90603f8201601f191681016001600160401b03811182821017156101df576101df61012d565b6040529182526020818401810192908101878411156101fd57600080fd5b6020850194505b838510156102235761021585610143565b815260209485019401610204565b509695505050505050565b634e487b7160e01b600052603260045260246000fd5b60805160a05160c0516109f46102856000396000818160e5015261028d015260008181607f015261020e01526000818160be015261016101526109f46000f3fe608060405234801561001057600080fd5b506004361061004c5760003560e01c80636610b05914610051578063802523351461007a5780639f530670146100b9578063b5cca06b146100e0575b600080fd5b61006461005f366004610796565b610107565b60405161007191906108ff565b60405180910390f35b6100a17f000000000000000000000000000000000000000000000000000000000000000081565b6040516001600160a01b039091168152602001610071565b6100a17f000000000000000000000000000000000000000000000000000000000000000081565b6100a17f000000000000000000000000000000000000000000000000000000000000000081565b60606000826040015160600151600381111561012557610125610932565b0361013e57505060408051602081019091526000815290565b6001826040015160600151600381111561015a5761015a610932565b036101eb577f00000000000000000000000000000000000000000000000000000000000000006001600160a01b031663d607497a6040518163ffffffff1660e01b8152600401600060405180830381865afa1580156101bd573d6000803e3d6000fd5b505050506040513d6000823e601f3d908101601f191682016040526101e59190810190610948565b92915050565b6002826040015160600151600381111561020757610207610932565b0361026a577f00000000000000000000000000000000000000000000000000000000000000006001600160a01b031663d607497a6040518163ffffffff1660e01b8152600401600060405180830381865afa1580156101bd573d6000803e3d6000fd5b6003826040015160600151600381111561028657610286610932565b036102e9577f00000000000000000000000000000000000000000000000000000000000000006001600160a01b031663d607497a6040518163ffffffff1660e01b8152600401600060405180830381865afa1580156101bd573d6000803e3d6000fd5b505060408051602081019091526000815290565b634e487b7160e01b600052604160045260246000fd5b60405161016081016001600160401b0381118282101715610336576103366102fd565b60405290565b60405160c081016001600160401b0381118282101715610336576103366102fd565b60405161018081016001600160401b0381118282101715610336576103366102fd565b604051601f8201601f191681016001600160401b03811182821017156103a9576103a96102fd565b604052919050565b60006001600160401b038211156103ca576103ca6102fd565b50601f01601f191660200190565b600082601f8301126103e957600080fd5b81356103fc6103f7826103b1565b610381565b81815284602083860101111561041157600080fd5b816020850160208301376000918101602001919091529392505050565b6004811061043b57600080fd5b50565b60006080828403121561045057600080fd5b604051608081016001600160401b0381118282101715610472576104726102fd565b60405290508082356104838161042e565b815260208301356104938161042e565b602082015260408301356104a68161042e565b604082015260608301356104b98161042e565b6060919091015292915050565b803560ff811681146104d757600080fd5b919050565b600061016082840312156104ef57600080fd5b6104f7610313565b823581529050610509602083016104c6565b602082015261051a604083016104c6565b604082015261052b606083016104c6565b606082015261053c608083016104c6565b608082015261054d60a083016104c6565b60a082015261055e60c083016104c6565b60c082015261056f60e083016104c6565b60e082015261058161010083016104c6565b61010082015261059461012083016104c6565b6101208201526105a761014083016104c6565b61014082015292915050565b803580151581146104d757600080fd5b600060c082840312156105d557600080fd5b6105dd61033c565b82358152905060208201356001600160401b038111156105fc57600080fd5b820160c0818503121561060e57600080fd5b61061661033c565b61061f826104c6565b815261062d602083016104c6565b602082015261063e604083016104c6565b604082015261064f606083016104c6565b6060820152610660608083016104c6565b608082015260a08201356001600160401b0381111561067e57600080fd5b80830192505084601f83011261069357600080fd5b81356001600160401b038111156106ac576106ac6102fd565b8060051b6106bc60208201610381565b918252602081850181019290810190888411156106d857600080fd5b6020860195505b83861015610701576106f0866104c6565b8252602095860195909101906106df565b60a085015250505060208301525061071b604083016104c6565b604082015261072c606083016105b3565b606082015261073d608083016105b3565b608082015261074e60a083016105b3565b60a082015292915050565b803563ffffffff811681146104d757600080fd5b803561ffff811681146104d757600080fd5b80356001600160a01b03811681146104d757600080fd5b6000602082840312156107a857600080fd5b81356001600160401b038111156107be57600080fd5b820161032081850312156107d157600080fd5b6107d961035e565b81356001600160401b038111156107ef57600080fd5b6107fb868285016103d8565b82525060208281013590820152610815856040840161043e565b60408201526108278560c084016104dc565b60608201526102208201356001600160401b0381111561084657600080fd5b610852868285016105c3565b6080830152506108656102408301610759565b60a0820152610877610260830161076d565b60c0820152610889610280830161076d565b60e082015261089b6102a083016105b3565b6101008201526108ae6102c083016105b3565b6101208201526102e08201356101408201526108cd610300830161077f565b610160820152949350505050565b60005b838110156108f65781810151838201526020016108de565b50506000910152565b602081526000825180602084015261091e8160408501602087016108db565b601f01601f19169190910160400192915050565b634e487b7160e01b600052602160045260246000fd5b60006020828403121561095a57600080fd5b81516001600160401b0381111561097057600080fd5b8201601f8101841361098157600080fd5b805161098f6103f7826103b1565b8181528560208385010111156109a457600080fd5b6109b58260208301602086016108db565b9594505050505056fea26469706673582212208fb1a3c8196ce69e18801e86b060e77cb6e9f9b05e3f7ff8741099d3ca71580964736f6c634300081c0033",
  "linkReferences": {},
  "deployedLinkReferences": {}
}