{
  "_format": "hh-sol-artifact-1",
  "contractName": "RenderFore",
  "sourceName": "contracts/Renderers/RenderFore.sol",
  "abi": [
    {
      "inputs": [
        {
          "internalType": "address[]",
          "name": "renderers",
          "type": "address[]"
        }
      ],
      "stateMutability": "nonpayable",
      "type": "constructor"
    },
    {
      "inputs": [
        {
          "components": [
            {
              "internalType": "string",
              "name": "name",
              "type": "string"
            },
            {
              "internalType": "uint256",
              "name": "id",
              "type": "uint256"
            },
            {
              "components": [
                {
                  "internalType": "enum MainWeapon",
                  "name": "mainWeapon",
                  "type": "uint8"
                },
                {
                  "internalType": "enum Armor",
                  "name": "armor",
                  "type": "uint8"
                },
                {
                  "internalType": "enum Shields",
                  "name": "shields",
                  "type": "uint8"
                },
                {
                  "internalType": "enum Special",
                  "name": "special",
                  "type": "uint8"
                }
              ],
              "internalType": "struct Equipment",
              "name": "equipment",
              "type": "tuple"
            },
            {
              "components": [
                {
                  "internalType": "uint256",
                  "name": "serialNumber",
                  "type": "uint256"
                },
                {
                  "internalType": "uint8",
                  "name": "r1",
                  "type": "uint8"
                },
                {
                  "internalType": "uint8",
                  "name": "g1",
                  "type": "uint8"
                },
                {
                  "internalType": "uint8",
                  "name": "b1",
                  "type": "uint8"
                },
                {
                  "internalType": "uint8",
                  "name": "r2",
                  "type": "uint8"
                },
                {
                  "internalType": "uint8",
                  "name": "g2",
                  "type": "uint8"
                },
                {
                  "internalType": "uint8",
                  "name": "b2",
                  "type": "uint8"
                },
                {
                  "internalType": "uint8",
                  "name": "variant",
                  "type": "uint8"
                },
                {
                  "internalType": "uint8",
                  "name": "accuracy",
                  "type": "uint8"
                },
                {
                  "internalType": "uint8",
                  "name": "hull",
                  "type": "uint8"
                },
                {
                  "internalType": "uint8",
                  "name": "speed",
                  "type": "uint8"
                }
              ],
              "internalType": "struct Traits",
              "name": "traits",
              "type": "tuple"
            },
            {
              "components": [
                {
                  "internalType": "uint256",
                  "name": "gameId",
                  "type": "uint256"
                },
                {
                  "components": [
                    {
                      "internalType": "uint8",
                      "name": "version",
                      "type": "uint8"
                    },
                    {
                      "internalType": "uint8",
                      "name": "range",
                      "type": "uint8"
                    },
                    {
                      "internalType": "uint8",
                      "name": "gunDamage",
                      "type": "uint8"
                    },
                    {
                      "internalType": "uint8",
                      "name": "hullPoints",
                      "type": "uint8"
                    },
                    {
                      "internalType": "uint8",
                      "name": "movement",
                      "type": "uint8"
                    },
                    {
                      "internalType": "uint8[]",
                      "name": "statusEffects",
                      "type": "uint8[]"
                    }
                  ],
                  "internalType": "struct Attributes",
                  "name": "attributes",
                  "type": "tuple"
                },
                {
                  "internalType": "uint8",
                  "name": "damageTaken",
                  "type": "uint8"
                },
                {
                  "internalType": "bool",
                  "name": "inLobby",
                  "type": "bool"
                },
                {
                  "internalType": "bool",
                  "name": "movedThisTurn",
                  "type": "bool"
                },
                {
                  "internalType": "bool",
                  "name": "firedThisTurn",
                  "type": "bool"
                }
              ],
              "internalType": "struct GameData",
              "name": "gameData",
              "type": "tuple"
            },
            {
              "components": [
                {
                  "internalType": "uint32",
                  "name": "shipsDestroyed",
                  "type": "uint32"
                },
                {
                  "internalType": "uint16",
                  "name": "costsVersion",
                  "type": "uint16"
                },
                {
                  "internalType": "uint16",
                  "name": "cost",
                  "type": "uint16"
                },
                {
                  "internalType": "bool",
                  "name": "shiny",
                  "type": "bool"
                },
                {
                  "internalType": "bool",
                  "name": "constructed",
                  "type": "bool"
                },
                {
                  "internalType": "bool",
                  "name": "inFleet",
                  "type": "bool"
                },
                {
                  "internalType": "uint256",
                  "name": "timestampDestroyed",
                  "type": "uint256"
                }
              ],
              "internalType": "struct ShipData",
              "name": "shipData",
              "type": "tuple"
            },
            {
              "internalType": "address",
              "name": "owner",
              "type": "address"
            }
          ],
          "internalType": "struct Ship",
          "name": "ship",
          "type": "tuple"
        }
      ],
      "name": "render",
      "outputs": [
        {
          "internalType": "string",
          "name": "",
          "type": "string"
        }
      ],
      "stateMutability": "view",
      "type": "function"
    },
    {
      "inputs": [],
      "name": "renderFore0",
      "outputs": [
        {
          "internalType": "contract IReturnSVG",
          "name": "",
          "type": "address"
        }
      ],
      "stateMutability": "view",
      "type": "function"
    },
    {
      "inputs": [],
      "name": "renderFore1",
      "outputs": [
        {
          "internalType": "contract IReturnSVG",
          "name": "",
          "type": "address"
        }
      ],
      "stateMutability": "view",
      "type": "function"
    },
    {
      "inputs": [],
      "name": "renderFore2",
      "outputs": [
        {
          "internalType": "contract IReturnSVG",
          "name": "",
          "type": "address"
        }
      ],
      "stateMutability": "view",
      "type": "function"
    },
    {
      "inputs": [],
      "name": "renderForeShiny",
      "outputs": [
        {
          "internalType": "contract IReturnSVG",
          "name": "",
          "type": "address"
        }
      ],
      "stateMutability": "view",
      "type": "function"
    }
  ],
  "bytecode": "0x61010060405234801561001157600080fd5b50604051610cee380380610cee83398101604081905261003091610191565b80516004146100935760405162461bcd60e51b815260206004820152602560248201527f496e76616c69642072656e64657265727320617272617920696e2052656e646560448201526472466f726560d81b606482015260840160405180910390fd5b806000815181106100a6576100a6610260565b60200260200101516001600160a01b03166080816001600160a01b031681525050806001815181106100da576100da610260565b60200260200101516001600160a01b031660a0816001600160a01b0316815250508060028151811061010e5761010e610260565b60200260200101516001600160a01b031660c0816001600160a01b0316815250508060038151811061014257610142610260565b60209081029190910101516001600160a01b031660e05250610276565b634e487b7160e01b600052604160045260246000fd5b80516001600160a01b038116811461018c57600080fd5b919050565b6000602082840312156101a357600080fd5b81516001600160401b038111156101b957600080fd5b8201601f810184136101ca57600080fd5b80516001600160401b038111156101e3576101e361015f565b604051600582901b90603f8201601f191681016001600160401b03811182821017156102115761021161015f565b60405291825260208184018101929081018784111561022f57600080fd5b6020850194505b838510156102555761024785610175565b815260209485019401610236565b509695505050505050565b634e487b7160e01b600052603260045260246000fd5b60805160a05160c05160e051610a266102c86000396000818160c9015261014b015260008181608a01526102bb015260008181610117015261025d01526000818160f001526101eb0152610a266000f3fe608060405234801561001057600080fd5b50600436106100575760003560e01c806311ffaed01461005c5780631c494d0d14610085578063755a7f52146100c4578063a076e03c146100eb578063a6bc3d8414610112575b600080fd5b61006f61006a366004610834565b610139565b60405161007c9190610947565b60405180910390f35b6100ac7f000000000000000000000000000000000000000000000000000000000000000081565b6040516001600160a01b03909116815260200161007c565b6100ac7f000000000000000000000000000000000000000000000000000000000000000081565b6100ac7f000000000000000000000000000000000000000000000000000000000000000081565b6100ac7f000000000000000000000000000000000000000000000000000000000000000081565b60608160a0015160600151156101d5577f00000000000000000000000000000000000000000000000000000000000000006001600160a01b031663d607497a6040518163ffffffff1660e01b8152600401600060405180830381865afa1580156101a7573d6000803e3d6000fd5b505050506040513d6000823e601f3d908101601f191682016040526101cf919081019061097a565b92915050565b8160600151610100015160ff16600003610247577f00000000000000000000000000000000000000000000000000000000000000006001600160a01b031663d607497a6040518163ffffffff1660e01b8152600401600060405180830381865afa1580156101a7573d6000803e3d6000fd5b8160600151610100015160ff166001036102b9577f00000000000000000000000000000000000000000000000000000000000000006001600160a01b031663d607497a6040518163ffffffff1660e01b8152600401600060405180830381865afa1580156101a7573d6000803e3d6000fd5b7f00000000000000000000000000000000000000000000000000000000000000006001600160a01b031663d607497a6040518163ffffffff1660e01b8152600401600060405180830381865afa1580156101a7573d6000803e3d6000fd5b919050565b634e487b7160e01b600052604160045260246000fd5b60405161016081016001600160401b03811182821017156103555761035561031c565b60405290565b60405160c081016001600160401b03811182821017156103555761035561031c565b60405160e081016001600160401b03811182821017156103555761035561031c565b604051601f8201601f191681016001600160401b03811182821017156103c7576103c761031c565b604052919050565b60006001600160401b038211156103e8576103e861031c565b50601f01601f191660200190565b600082601f83011261040757600080fd5b813561041a610415826103cf565b61039f565b81815284602083860101111561042f57600080fd5b816020850160208301376000918101602001919091529392505050565b6004811061045957600080fd5b50565b60006080828403121561046e57600080fd5b604051608081016001600160401b03811182821017156104905761049061031c565b60405290508082356104a18161044c565b815260208301356104b18161044c565b602082015260408301356104c48161044c565b604082015260608301356104d78161044c565b6060919091015292915050565b803560ff8116811461031757600080fd5b6000610160828403121561050857600080fd5b610510610332565b823581529050610522602083016104e4565b6020820152610533604083016104e4565b6040820152610544606083016104e4565b6060820152610555608083016104e4565b608082015261056660a083016104e4565b60a082015261057760c083016104e4565b60c082015261058860e083016104e4565b60e082015261059a61010083016104e4565b6101008201526105ad61012083016104e4565b6101208201526105c061014083016104e4565b61014082015292915050565b8035801515811461031757600080fd5b600060c082840312156105ee57600080fd5b6105f661035b565b82358152905060208201356001600160401b0381111561061557600080fd5b820160c0818503121561062757600080fd5b61062f61035b565b610638826104e4565b8152610646602083016104e4565b6020820152610657604083016104e4565b6040820152610668606083016104e4565b6060820152610679608083016104e4565b608082015260a08201356001600160401b0381111561069757600080fd5b80830192505084601f8301126106ac57600080fd5b81356001600160401b038111156106c5576106c561031c565b8060051b6106d56020820161039f565b918252602081850181019290810190888411156106f157600080fd5b6020860195505b8386101561071a57610709866104e4565b8252602095860195909101906106f8565b60a0850152505050602083015250610734604083016104e4565b6040820152610745606083016105cc565b6060820152610756608083016105cc565b608082015261076760a083016105cc565b60a082015292915050565b803561ffff8116811461031757600080fd5b600060e0828403121561079657600080fd5b61079e61037d565b9050813563ffffffff811681146107b457600080fd5b81526107c260208301610772565b60208201526107d360408301610772565b60408201526107e4606083016105cc565b60608201526107f5608083016105cc565b608082015261080660a083016105cc565b60a082015260c09182013591810191909152919050565b80356001600160a01b038116811461031757600080fd5b60006020828403121561084657600080fd5b81356001600160401b0381111561085c57600080fd5b8201610340818503121561086f57600080fd5b61087761037d565b81356001600160401b0381111561088d57600080fd5b610899868285016103f6565b825250602082810135908201526108b3856040840161045c565b60408201526108c58560c084016104f5565b60608201526102208201356001600160401b038111156108e457600080fd5b6108f0868285016105dc565b608083015250610904856102408401610784565b60a0820152610916610320830161081d565b60c0820152949350505050565b60005b8381101561093e578181015183820152602001610926565b50506000910152565b6020815260008251806020840152610966816040850160208701610923565b601f01601f19169190910160400192915050565b60006020828403121561098c57600080fd5b81516001600160401b038111156109a257600080fd5b8201601f810184136109b357600080fd5b80516109c1610415826103cf565b8181528560208385010111156109d657600080fd5b6109e7826020830160208601610923565b9594505050505056fea2646970667358221220fe53669d6101278a80cfa5713ee9f096d9023b4567df700dd12bf87980db103664736f6c634300081c0033",
  "linkReferences": {},
  "deployedLinkReferences": {}
}