{
  "_format": "hh-sol-artifact-1",
  "contractName": "Ships",
  "sourceName": "contracts/Ships.sol",
  "abi": [
    {
      "inputs": [
        {
          "internalType": "address",
          "name": "_shipNames",
          "type": "address"
        },
        {
          "internalType": "address",
          "name": "_renderer",
          "type": "address"
        }
      ],
      "stateMutability": "nonpayable",
      "type": "constructor"
    },
    {
      "inputs": [],
      "name": "BadTeamCost",
      "type": "error"
    },
    {
      "inputs": [
        {
          "internalType": "address",
          "name": "sender",
          "type": "address"
        },
        {
          "internalType": "uint256",
          "name": "tokenId",
          "type": "uint256"
        },
        {
          "internalType": "address",
          "name": "owner",
          "type": "address"
        }
      ],
      "name": "ERC721IncorrectOwner",
      "type": "error"
    },
    {
      "inputs": [
        {
          "internalType": "address",
          "name": "operator",
          "type": "address"
        },
        {
          "internalType": "uint256",
          "name": "tokenId",
          "type": "uint256"
        }
      ],
      "name": "ERC721InsufficientApproval",
      "type": "error"
    },
    {
      "inputs": [
        {
          "internalType": "address",
          "name": "approver",
          "type": "address"
        }
      ],
      "name": "ERC721InvalidApprover",
      "type": "error"
    },
    {
      "inputs": [
        {
          "internalType": "address",
          "name": "operator",
          "type": "address"
        }
      ],
      "name": "ERC721InvalidOperator",
      "type": "error"
    },
    {
      "inputs": [
        {
          "internalType": "address",
          "name": "owner",
          "type": "address"
        }
      ],
      "name": "ERC721InvalidOwner",
      "type": "error"
    },
    {
      "inputs": [
        {
          "internalType": "address",
          "name": "receiver",
          "type": "address"
        }
      ],
      "name": "ERC721InvalidReceiver",
      "type": "error"
    },
    {
      "inputs": [
        {
          "internalType": "address",
          "name": "sender",
          "type": "address"
        }
      ],
      "name": "ERC721InvalidSender",
      "type": "error"
    },
    {
      "inputs": [
        {
          "internalType": "uint256",
          "name": "tokenId",
          "type": "uint256"
        }
      ],
      "name": "ERC721NonexistentToken",
      "type": "error"
    },
    {
      "inputs": [],
      "name": "InvalidId",
      "type": "error"
    },
    {
      "inputs": [],
      "name": "InvalidPayment",
      "type": "error"
    },
    {
      "inputs": [],
      "name": "InvalidReferral",
      "type": "error"
    },
    {
      "inputs": [],
      "name": "InvalidRenderer",
      "type": "error"
    },
    {
      "inputs": [],
      "name": "MintPaused",
      "type": "error"
    },
    {
      "inputs": [
        {
          "internalType": "address",
          "name": "",
          "type": "address"
        }
      ],
      "name": "NotAuthorized",
      "type": "error"
    },
    {
      "inputs": [
        {
          "internalType": "uint256",
          "name": "",
          "type": "uint256"
        }
      ],
      "name": "NotYourShip",
      "type": "error"
    },
    {
      "inputs": [],
      "name": "OldShipCost",
      "type": "error"
    },
    {
      "inputs": [
        {
          "internalType": "address",
          "name": "owner",
          "type": "address"
        }
      ],
      "name": "OwnableInvalidOwner",
      "type": "error"
    },
    {
      "inputs": [
        {
          "internalType": "address",
          "name": "account",
          "type": "address"
        }
      ],
      "name": "OwnableUnauthorizedAccount",
      "type": "error"
    },
    {
      "inputs": [],
      "name": "ReentrancyGuardReentrantCall",
      "type": "error"
    },
    {
      "inputs": [
        {
          "internalType": "uint256",
          "name": "",
          "type": "uint256"
        }
      ],
      "name": "ShipConstructed",
      "type": "error"
    },
    {
      "inputs": [],
      "name": "ShipDestroyed",
      "type": "error"
    },
    {
      "inputs": [],
      "name": "ShipInGame",
      "type": "error"
    },
    {
      "inputs": [],
      "name": "ShipInLobby",
      "type": "error"
    },
    {
      "anonymous": false,
      "inputs": [
        {
          "indexed": true,
          "internalType": "address",
          "name": "owner",
          "type": "address"
        },
        {
          "indexed": true,
          "internalType": "address",
          "name": "approved",
          "type": "address"
        },
        {
          "indexed": true,
          "internalType": "uint256",
          "name": "tokenId",
          "type": "uint256"
        }
      ],
      "name": "Approval",
      "type": "event"
    },
    {
      "anonymous": false,
      "inputs": [
        {
          "indexed": true,
          "internalType": "address",
          "name": "owner",
          "type": "address"
        },
        {
          "indexed": true,
          "internalType": "address",
          "name": "operator",
          "type": "address"
        },
        {
          "indexed": false,
          "internalType": "bool",
          "name": "approved",
          "type": "bool"
        }
      ],
      "name": "ApprovalForAll",
      "type": "event"
    },
    {
      "anonymous": false,
      "inputs": [
        {
          "indexed": false,
          "internalType": "uint256",
          "name": "_tokenId",
          "type": "uint256"
        }
      ],
      "name": "MetadataUpdate",
      "type": "event"
    },
    {
      "anonymous": false,
      "inputs": [
        {
          "indexed": true,
          "internalType": "address",
          "name": "previousOwner",
          "type": "address"
        },
        {
          "indexed": true,
          "internalType": "address",
          "name": "newOwner",
          "type": "address"
        }
      ],
      "name": "OwnershipTransferred",
      "type": "event"
    },
    {
      "anonymous": false,
      "inputs": [
        {
          "indexed": true,
          "internalType": "address",
          "name": "from",
          "type": "address"
        },
        {
          "indexed": true,
          "internalType": "address",
          "name": "to",
          "type": "address"
        },
        {
          "indexed": true,
          "internalType": "uint256",
          "name": "tokenId",
          "type": "uint256"
        }
      ],
      "name": "Transfer",
      "type": "event"
    },
    {
      "inputs": [
        {
          "internalType": "address",
          "name": "to",
          "type": "address"
        },
        {
          "internalType": "uint256",
          "name": "tokenId",
          "type": "uint256"
        }
      ],
      "name": "approve",
      "outputs": [],
      "stateMutability": "nonpayable",
      "type": "function"
    },
    {
      "inputs": [
        {
          "internalType": "address",
          "name": "owner",
          "type": "address"
        }
      ],
      "name": "balanceOf",
      "outputs": [
        {
          "internalType": "uint256",
          "name": "",
          "type": "uint256"
        }
      ],
      "stateMutability": "view",
      "type": "function"
    },
    {
      "inputs": [],
      "name": "constructAllMyShips",
      "outputs": [],
      "stateMutability": "nonpayable",
      "type": "function"
    },
    {
      "inputs": [
        {
          "internalType": "uint256",
          "name": "_id",
          "type": "uint256"
        }
      ],
      "name": "constructShip",
      "outputs": [],
      "stateMutability": "nonpayable",
      "type": "function"
    },
    {
      "inputs": [
        {
          "internalType": "uint256[]",
          "name": "_ids",
          "type": "uint256[]"
        }
      ],
      "name": "constructShips",
      "outputs": [],
      "stateMutability": "nonpayable",
      "type": "function"
    },
    {
      "inputs": [],
      "name": "costs",
      "outputs": [
        {
          "internalType": "uint16",
          "name": "version",
          "type": "uint16"
        },
        {
          "internalType": "uint8",
          "name": "baseCost",
          "type": "uint8"
        }
      ],
      "stateMutability": "view",
      "type": "function"
    },
    {
      "inputs": [],
      "name": "costsVersion",
      "outputs": [
        {
          "internalType": "uint256",
          "name": "",
          "type": "uint256"
        }
      ],
      "stateMutability": "view",
      "type": "function"
    },
    {
      "inputs": [
        {
          "internalType": "uint256",
          "name": "num",
          "type": "uint256"
        }
      ],
      "name": "countDigits",
      "outputs": [
        {
          "internalType": "uint256",
          "name": "",
          "type": "uint256"
        }
      ],
      "stateMutability": "pure",
      "type": "function"
    },
    {
      "inputs": [],
      "name": "gameAddress",
      "outputs": [
        {
          "internalType": "address",
          "name": "",
          "type": "address"
        }
      ],
      "stateMutability": "view",
      "type": "function"
    },
    {
      "inputs": [
        {
          "internalType": "uint256",
          "name": "tokenId",
          "type": "uint256"
        }
      ],
      "name": "getApproved",
      "outputs": [
        {
          "internalType": "address",
          "name": "",
          "type": "address"
        }
      ],
      "stateMutability": "view",
      "type": "function"
    },
    {
      "inputs": [],
      "name": "getCosts",
      "outputs": [
        {
          "components": [
            {
              "internalType": "uint16",
              "name": "version",
              "type": "uint16"
            },
            {
              "internalType": "uint8",
              "name": "baseCost",
              "type": "uint8"
            },
            {
              "internalType": "uint8[]",
              "name": "accuracy",
              "type": "uint8[]"
            },
            {
              "internalType": "uint8[]",
              "name": "hull",
              "type": "uint8[]"
            },
            {
              "internalType": "uint8[]",
              "name": "speed",
              "type": "uint8[]"
            },
            {
              "internalType": "uint8[]",
              "name": "mainWeapon",
              "type": "uint8[]"
            },
            {
              "internalType": "uint8[]",
              "name": "armor",
              "type": "uint8[]"
            },
            {
              "internalType": "uint8[]",
              "name": "shields",
              "type": "uint8[]"
            },
            {
              "internalType": "uint8[]",
              "name": "special",
              "type": "uint8[]"
            }
          ],
          "internalType": "struct Costs",
          "name": "",
          "type": "tuple"
        }
      ],
      "stateMutability": "view",
      "type": "function"
    },
    {
      "inputs": [],
      "name": "getCostsVersion",
      "outputs": [
        {
          "internalType": "uint256",
          "name": "",
          "type": "uint256"
        }
      ],
      "stateMutability": "view",
      "type": "function"
    },
    {
      "inputs": [
        {
          "internalType": "uint256",
          "name": "_shipsDestroyed",
          "type": "uint256"
        }
      ],
      "name": "getRank",
      "outputs": [
        {
          "internalType": "uint8",
          "name": "",
          "type": "uint8"
        }
      ],
      "stateMutability": "pure",
      "type": "function"
    },
    {
      "inputs": [
        {
          "internalType": "uint256",
          "name": "_id",
          "type": "uint256"
        }
      ],
      "name": "getShip",
      "outputs": [
        {
          "components": [
            {
              "internalType": "string",
              "name": "name",
              "type": "string"
            },
            {
              "internalType": "uint256",
              "name": "id",
              "type": "uint256"
            },
            {
              "components": [
                {
                  "internalType": "enum MainWeapon",
                  "name": "mainWeapon",
                  "type": "uint8"
                },
                {
                  "internalType": "enum Armor",
                  "name": "armor",
                  "type": "uint8"
                },
                {
                  "internalType": "enum Shields",
                  "name": "shields",
                  "type": "uint8"
                },
                {
                  "internalType": "enum Special",
                  "name": "special",
                  "type": "uint8"
                }
              ],
              "internalType": "struct Equipment",
              "name": "equipment",
              "type": "tuple"
            },
            {
              "components": [
                {
                  "internalType": "uint256",
                  "name": "serialNumber",
                  "type": "uint256"
                },
                {
                  "internalType": "uint8",
                  "name": "r1",
                  "type": "uint8"
                },
                {
                  "internalType": "uint8",
                  "name": "g1",
                  "type": "uint8"
                },
                {
                  "internalType": "uint8",
                  "name": "b1",
                  "type": "uint8"
                },
                {
                  "internalType": "uint8",
                  "name": "r2",
                  "type": "uint8"
                },
                {
                  "internalType": "uint8",
                  "name": "g2",
                  "type": "uint8"
                },
                {
                  "internalType": "uint8",
                  "name": "b2",
                  "type": "uint8"
                },
                {
                  "internalType": "uint8",
                  "name": "variant",
                  "type": "uint8"
                },
                {
                  "internalType": "uint8",
                  "name": "accuracy",
                  "type": "uint8"
                },
                {
                  "internalType": "uint8",
                  "name": "hull",
                  "type": "uint8"
                },
                {
                  "internalType": "uint8",
                  "name": "speed",
                  "type": "uint8"
                }
              ],
              "internalType": "struct Traits",
              "name": "traits",
              "type": "tuple"
            },
            {
              "components": [
                {
                  "internalType": "uint256",
                  "name": "gameId",
                  "type": "uint256"
                },
                {
                  "components": [
                    {
                      "internalType": "uint8",
                      "name": "version",
                      "type": "uint8"
                    },
                    {
                      "internalType": "uint8",
                      "name": "range",
                      "type": "uint8"
                    },
                    {
                      "internalType": "uint8",
                      "name": "gunDamage",
                      "type": "uint8"
                    },
                    {
                      "internalType": "uint8",
                      "name": "hullPoints",
                      "type": "uint8"
                    },
                    {
                      "internalType": "uint8",
                      "name": "movement",
                      "type": "uint8"
                    },
                    {
                      "internalType": "uint8[]",
                      "name": "statusEffects",
                      "type": "uint8[]"
                    }
                  ],
                  "internalType": "struct Attributes",
                  "name": "attributes",
                  "type": "tuple"
                },
                {
                  "internalType": "uint8",
                  "name": "damageTaken",
                  "type": "uint8"
                },
                {
                  "internalType": "bool",
                  "name": "inLobby",
                  "type": "bool"
                },
                {
                  "internalType": "bool",
                  "name": "movedThisTurn",
                  "type": "bool"
                },
                {
                  "internalType": "bool",
                  "name": "firedThisTurn",
                  "type": "bool"
                }
              ],
              "internalType": "struct GameData",
              "name": "gameData",
              "type": "tuple"
            },
            {
              "internalType": "uint32",
              "name": "shipsDestroyed",
              "type": "uint32"
            },
            {
              "internalType": "uint16",
              "name": "costsVersion",
              "type": "uint16"
            },
            {
              "internalType": "uint16",
              "name": "cost",
              "type": "uint16"
            },
            {
              "internalType": "bool",
              "name": "shiny",
              "type": "bool"
            },
            {
              "internalType": "bool",
              "name": "constructed",
              "type": "bool"
            },
            {
              "internalType": "uint256",
              "name": "timestampDestroyed",
              "type": "uint256"
            },
            {
              "internalType": "address",
              "name": "owner",
              "type": "address"
            }
          ],
          "internalType": "struct Ship",
          "name": "",
          "type": "tuple"
        }
      ],
      "stateMutability": "view",
      "type": "function"
    },
    {
      "inputs": [],
      "name": "getShipCount",
      "outputs": [
        {
          "internalType": "uint256",
          "name": "",
          "type": "uint256"
        }
      ],
      "stateMutability": "view",
      "type": "function"
    },
    {
      "inputs": [],
      "name": "getShipPrice",
      "outputs": [
        {
          "internalType": "uint256",
          "name": "",
          "type": "uint256"
        }
      ],
      "stateMutability": "view",
      "type": "function"
    },
    {
      "inputs": [
        {
          "internalType": "address",
          "name": "_owner",
          "type": "address"
        }
      ],
      "name": "getShipsOwned",
      "outputs": [
        {
          "internalType": "uint256[]",
          "name": "",
          "type": "uint256[]"
        }
      ],
      "stateMutability": "view",
      "type": "function"
    },
    {
      "inputs": [],
      "name": "getTenPackPrice",
      "outputs": [
        {
          "internalType": "uint256",
          "name": "",
          "type": "uint256"
        }
      ],
      "stateMutability": "view",
      "type": "function"
    },
    {
      "inputs": [
        {
          "internalType": "uint256",
          "name": "_trait",
          "type": "uint256"
        }
      ],
      "name": "getTierOfTrait",
      "outputs": [
        {
          "internalType": "uint8",
          "name": "",
          "type": "uint8"
        }
      ],
      "stateMutability": "pure",
      "type": "function"
    },
    {
      "inputs": [
        {
          "internalType": "address",
          "name": "owner",
          "type": "address"
        },
        {
          "internalType": "address",
          "name": "operator",
          "type": "address"
        }
      ],
      "name": "isApprovedForAll",
      "outputs": [
        {
          "internalType": "bool",
          "name": "",
          "type": "bool"
        }
      ],
      "stateMutability": "view",
      "type": "function"
    },
    {
      "inputs": [],
      "name": "lobbyAddress",
      "outputs": [
        {
          "internalType": "address",
          "name": "",
          "type": "address"
        }
      ],
      "stateMutability": "view",
      "type": "function"
    },
    {
      "inputs": [],
      "name": "metadataRenderer",
      "outputs": [
        {
          "internalType": "contract IRenderMetadata",
          "name": "",
          "type": "address"
        }
      ],
      "stateMutability": "view",
      "type": "function"
    },
    {
      "inputs": [
        {
          "internalType": "address",
          "name": "_to",
          "type": "address"
        },
        {
          "internalType": "address",
          "name": "_referral",
          "type": "address"
        }
      ],
      "name": "mintShip",
      "outputs": [],
      "stateMutability": "payable",
      "type": "function"
    },
    {
      "inputs": [
        {
          "internalType": "address",
          "name": "_to",
          "type": "address"
        },
        {
          "internalType": "address",
          "name": "_referral",
          "type": "address"
        }
      ],
      "name": "mintTenPack",
      "outputs": [],
      "stateMutability": "payable",
      "type": "function"
    },
    {
      "inputs": [],
      "name": "name",
      "outputs": [
        {
          "internalType": "string",
          "name": "",
          "type": "string"
        }
      ],
      "stateMutability": "view",
      "type": "function"
    },
    {
      "inputs": [
        {
          "internalType": "address",
          "name": "",
          "type": "address"
        }
      ],
      "name": "onboardingStep",
      "outputs": [
        {
          "internalType": "uint256",
          "name": "",
          "type": "uint256"
        }
      ],
      "stateMutability": "view",
      "type": "function"
    },
    {
      "inputs": [],
      "name": "owner",
      "outputs": [
        {
          "internalType": "address",
          "name": "",
          "type": "address"
        }
      ],
      "stateMutability": "view",
      "type": "function"
    },
    {
      "inputs": [
        {
          "internalType": "uint256",
          "name": "tokenId",
          "type": "uint256"
        }
      ],
      "name": "ownerOf",
      "outputs": [
        {
          "internalType": "address",
          "name": "",
          "type": "address"
        }
      ],
      "stateMutability": "view",
      "type": "function"
    },
    {
      "inputs": [],
      "name": "paused",
      "outputs": [
        {
          "internalType": "bool",
          "name": "",
          "type": "bool"
        }
      ],
      "stateMutability": "view",
      "type": "function"
    },
    {
      "inputs": [],
      "name": "randomManager",
      "outputs": [
        {
          "internalType": "contract IRandomManager",
          "name": "",
          "type": "address"
        }
      ],
      "stateMutability": "view",
      "type": "function"
    },
    {
      "inputs": [
        {
          "internalType": "address",
          "name": "",
          "type": "address"
        }
      ],
      "name": "referralCount",
      "outputs": [
        {
          "internalType": "uint256",
          "name": "",
          "type": "uint256"
        }
      ],
      "stateMutability": "view",
      "type": "function"
    },
    {
      "inputs": [
        {
          "internalType": "uint256",
          "name": "",
          "type": "uint256"
        }
      ],
      "name": "referralPercentages",
      "outputs": [
        {
          "internalType": "uint256",
          "name": "",
          "type": "uint256"
        }
      ],
      "stateMutability": "view",
      "type": "function"
    },
    {
      "inputs": [
        {
          "internalType": "uint256",
          "name": "",
          "type": "uint256"
        }
      ],
      "name": "referralStages",
      "outputs": [
        {
          "internalType": "uint256",
          "name": "",
          "type": "uint256"
        }
      ],
      "stateMutability": "view",
      "type": "function"
    },
    {
      "inputs": [],
      "name": "renounceOwnership",
      "outputs": [],
      "stateMutability": "nonpayable",
      "type": "function"
    },
    {
      "inputs": [
        {
          "internalType": "address",
          "name": "from",
          "type": "address"
        },
        {
          "internalType": "address",
          "name": "to",
          "type": "address"
        },
        {
          "internalType": "uint256",
          "name": "tokenId",
          "type": "uint256"
        }
      ],
      "name": "safeTransferFrom",
      "outputs": [],
      "stateMutability": "nonpayable",
      "type": "function"
    },
    {
      "inputs": [
        {
          "internalType": "address",
          "name": "from",
          "type": "address"
        },
        {
          "internalType": "address",
          "name": "to",
          "type": "address"
        },
        {
          "internalType": "uint256",
          "name": "tokenId",
          "type": "uint256"
        },
        {
          "internalType": "bytes",
          "name": "data",
          "type": "bytes"
        }
      ],
      "name": "safeTransferFrom",
      "outputs": [],
      "stateMutability": "nonpayable",
      "type": "function"
    },
    {
      "inputs": [
        {
          "internalType": "address",
          "name": "operator",
          "type": "address"
        },
        {
          "internalType": "bool",
          "name": "approved",
          "type": "bool"
        }
      ],
      "name": "setApprovalForAll",
      "outputs": [],
      "stateMutability": "nonpayable",
      "type": "function"
    },
    {
      "inputs": [
        {
          "internalType": "uint256",
          "name": "_id",
          "type": "uint256"
        }
      ],
      "name": "setCostOfShip",
      "outputs": [
        {
          "internalType": "uint16",
          "name": "",
          "type": "uint16"
        }
      ],
      "stateMutability": "view",
      "type": "function"
    },
    {
      "inputs": [
        {
          "components": [
            {
              "internalType": "uint16",
              "name": "version",
              "type": "uint16"
            },
            {
              "internalType": "uint8",
              "name": "baseCost",
              "type": "uint8"
            },
            {
              "internalType": "uint8[]",
              "name": "accuracy",
              "type": "uint8[]"
            },
            {
              "internalType": "uint8[]",
              "name": "hull",
              "type": "uint8[]"
            },
            {
              "internalType": "uint8[]",
              "name": "speed",
              "type": "uint8[]"
            },
            {
              "internalType": "uint8[]",
              "name": "mainWeapon",
              "type": "uint8[]"
            },
            {
              "internalType": "uint8[]",
              "name": "armor",
              "type": "uint8[]"
            },
            {
              "internalType": "uint8[]",
              "name": "shields",
              "type": "uint8[]"
            },
            {
              "internalType": "uint8[]",
              "name": "special",
              "type": "uint8[]"
            }
          ],
          "internalType": "struct Costs",
          "name": "_costs",
          "type": "tuple"
        }
      ],
      "name": "setCosts",
      "outputs": [],
      "stateMutability": "nonpayable",
      "type": "function"
    },
    {
      "inputs": [
        {
          "internalType": "address",
          "name": "_gameAddress",
          "type": "address"
        }
      ],
      "name": "setGameAddress",
      "outputs": [],
      "stateMutability": "nonpayable",
      "type": "function"
    },
    {
      "inputs": [
        {
          "internalType": "address",
          "name": "_lobbyAddress",
          "type": "address"
        }
      ],
      "name": "setLobbyAddress",
      "outputs": [],
      "stateMutability": "nonpayable",
      "type": "function"
    },
    {
      "inputs": [
        {
          "internalType": "uint8",
          "name": "_numberOfVariants",
          "type": "uint8"
        }
      ],
      "name": "setNumberOfVariants",
      "outputs": [],
      "stateMutability": "nonpayable",
      "type": "function"
    },
    {
      "inputs": [
        {
          "internalType": "bool",
          "name": "_paused",
          "type": "bool"
        }
      ],
      "name": "setPaused",
      "outputs": [],
      "stateMutability": "nonpayable",
      "type": "function"
    },
    {
      "inputs": [
        {
          "internalType": "address",
          "name": "_randomManager",
          "type": "address"
        }
      ],
      "name": "setRandomManager",
      "outputs": [],
      "stateMutability": "nonpayable",
      "type": "function"
    },
    {
      "inputs": [
        {
          "internalType": "uint256[]",
          "name": "_referralPercentages",
          "type": "uint256[]"
        }
      ],
      "name": "setReferralPercentages",
      "outputs": [],
      "stateMutability": "nonpayable",
      "type": "function"
    },
    {
      "inputs": [
        {
          "internalType": "uint256[]",
          "name": "_referralStages",
          "type": "uint256[]"
        }
      ],
      "name": "setReferralStages",
      "outputs": [],
      "stateMutability": "nonpayable",
      "type": "function"
    },
    {
      "inputs": [
        {
          "internalType": "address",
          "name": "_shipNames",
          "type": "address"
        }
      ],
      "name": "setShipNames",
      "outputs": [],
      "stateMutability": "nonpayable",
      "type": "function"
    },
    {
      "inputs": [
        {
          "internalType": "uint256",
          "name": "_price",
          "type": "uint256"
        }
      ],
      "name": "setShipPrice",
      "outputs": [],
      "stateMutability": "nonpayable",
      "type": "function"
    },
    {
      "inputs": [
        {
          "internalType": "uint256",
          "name": "_price",
          "type": "uint256"
        }
      ],
      "name": "setTenPackPrice",
      "outputs": [],
      "stateMutability": "nonpayable",
      "type": "function"
    },
    {
      "inputs": [
        {
          "internalType": "uint256",
          "name": "_id",
          "type": "uint256"
        }
      ],
      "name": "setTimestampDestroyed",
      "outputs": [],
      "stateMutability": "nonpayable",
      "type": "function"
    },
    {
      "inputs": [],
      "name": "shipCount",
      "outputs": [
        {
          "internalType": "uint256",
          "name": "",
          "type": "uint256"
        }
      ],
      "stateMutability": "view",
      "type": "function"
    },
    {
      "inputs": [],
      "name": "shipNames",
      "outputs": [
        {
          "internalType": "contract IOnchainRandomShipNames",
          "name": "",
          "type": "address"
        }
      ],
      "stateMutability": "view",
      "type": "function"
    },
    {
      "inputs": [],
      "name": "shipPrice",
      "outputs": [
        {
          "internalType": "uint256",
          "name": "",
          "type": "uint256"
        }
      ],
      "stateMutability": "view",
      "type": "function"
    },
    {
      "inputs": [
        {
          "internalType": "uint256",
          "name": "",
          "type": "uint256"
        }
      ],
      "name": "ships",
      "outputs": [
        {
          "internalType": "string",
          "name": "name",
          "type": "string"
        },
        {
          "internalType": "uint256",
          "name": "id",
          "type": "uint256"
        },
        {
          "components": [
            {
              "internalType": "enum MainWeapon",
              "name": "mainWeapon",
              "type": "uint8"
            },
            {
              "internalType": "enum Armor",
              "name": "armor",
              "type": "uint8"
            },
            {
              "internalType": "enum Shields",
              "name": "shields",
              "type": "uint8"
            },
            {
              "internalType": "enum Special",
              "name": "special",
              "type": "uint8"
            }
          ],
          "internalType": "struct Equipment",
          "name": "equipment",
          "type": "tuple"
        },
        {
          "components": [
            {
              "internalType": "uint256",
              "name": "serialNumber",
              "type": "uint256"
            },
            {
              "internalType": "uint8",
              "name": "r1",
              "type": "uint8"
            },
            {
              "internalType": "uint8",
              "name": "g1",
              "type": "uint8"
            },
            {
              "internalType": "uint8",
              "name": "b1",
              "type": "uint8"
            },
            {
              "internalType": "uint8",
              "name": "r2",
              "type": "uint8"
            },
            {
              "internalType": "uint8",
              "name": "g2",
              "type": "uint8"
            },
            {
              "internalType": "uint8",
              "name": "b2",
              "type": "uint8"
            },
            {
              "internalType": "uint8",
              "name": "variant",
              "type": "uint8"
            },
            {
              "internalType": "uint8",
              "name": "accuracy",
              "type": "uint8"
            },
            {
              "internalType": "uint8",
              "name": "hull",
              "type": "uint8"
            },
            {
              "internalType": "uint8",
              "name": "speed",
              "type": "uint8"
            }
          ],
          "internalType": "struct Traits",
          "name": "traits",
          "type": "tuple"
        },
        {
          "components": [
            {
              "internalType": "uint256",
              "name": "gameId",
              "type": "uint256"
            },
            {
              "components": [
                {
                  "internalType": "uint8",
                  "name": "version",
                  "type": "uint8"
                },
                {
                  "internalType": "uint8",
                  "name": "range",
                  "type": "uint8"
                },
                {
                  "internalType": "uint8",
                  "name": "gunDamage",
                  "type": "uint8"
                },
                {
                  "internalType": "uint8",
                  "name": "hullPoints",
                  "type": "uint8"
                },
                {
                  "internalType": "uint8",
                  "name": "movement",
                  "type": "uint8"
                },
                {
                  "internalType": "uint8[]",
                  "name": "statusEffects",
                  "type": "uint8[]"
                }
              ],
              "internalType": "struct Attributes",
              "name": "attributes",
              "type": "tuple"
            },
            {
              "internalType": "uint8",
              "name": "damageTaken",
              "type": "uint8"
            },
            {
              "internalType": "bool",
              "name": "inLobby",
              "type": "bool"
            },
            {
              "internalType": "bool",
              "name": "movedThisTurn",
              "type": "bool"
            },
            {
              "internalType": "bool",
              "name": "firedThisTurn",
              "type": "bool"
            }
          ],
          "internalType": "struct GameData",
          "name": "gameData",
          "type": "tuple"
        },
        {
          "internalType": "uint32",
          "name": "shipsDestroyed",
          "type": "uint32"
        },
        {
          "internalType": "uint16",
          "name": "costsVersion",
          "type": "uint16"
        },
        {
          "internalType": "uint16",
          "name": "cost",
          "type": "uint16"
        },
        {
          "internalType": "bool",
          "name": "shiny",
          "type": "bool"
        },
        {
          "internalType": "bool",
          "name": "constructed",
          "type": "bool"
        },
        {
          "internalType": "uint256",
          "name": "timestampDestroyed",
          "type": "uint256"
        },
        {
          "internalType": "address",
          "name": "owner",
          "type": "address"
        }
      ],
      "stateMutability": "view",
      "type": "function"
    },
    {
      "inputs": [
        {
          "internalType": "bytes4",
          "name": "interfaceId",
          "type": "bytes4"
        }
      ],
      "name": "supportsInterface",
      "outputs": [
        {
          "internalType": "bool",
          "name": "",
          "type": "bool"
        }
      ],
      "stateMutability": "view",
      "type": "function"
    },
    {
      "inputs": [],
      "name": "symbol",
      "outputs": [
        {
          "internalType": "string",
          "name": "",
          "type": "string"
        }
      ],
      "stateMutability": "view",
      "type": "function"
    },
    {
      "inputs": [],
      "name": "tenPackPrice",
      "outputs": [
        {
          "internalType": "uint256",
          "name": "",
          "type": "uint256"
        }
      ],
      "stateMutability": "view",
      "type": "function"
    },
    {
      "inputs": [
        {
          "internalType": "uint256",
          "name": "_id",
          "type": "uint256"
        }
      ],
      "name": "tokenURI",
      "outputs": [
        {
          "internalType": "string",
          "name": "",
          "type": "string"
        }
      ],
      "stateMutability": "view",
      "type": "function"
    },
    {
      "inputs": [
        {
          "internalType": "address",
          "name": "from",
          "type": "address"
        },
        {
          "internalType": "address",
          "name": "to",
          "type": "address"
        },
        {
          "internalType": "uint256",
          "name": "tokenId",
          "type": "uint256"
        }
      ],
      "name": "transferFrom",
      "outputs": [],
      "stateMutability": "nonpayable",
      "type": "function"
    },
    {
      "inputs": [
        {
          "internalType": "address",
          "name": "newOwner",
          "type": "address"
        }
      ],
      "name": "transferOwnership",
      "outputs": [],
      "stateMutability": "nonpayable",
      "type": "function"
    },
    {
      "inputs": [
        {
          "internalType": "uint16",
          "name": "",
          "type": "uint16"
        }
      ],
      "name": "variantCostModifiers",
      "outputs": [
        {
          "internalType": "uint16",
          "name": "version",
          "type": "uint16"
        },
        {
          "internalType": "uint8",
          "name": "baseCost",
          "type": "uint8"
        }
      ],
      "stateMutability": "view",
      "type": "function"
    },
    {
      "inputs": [],
      "name": "withdraw",
      "outputs": [],
      "stateMutability": "nonpayable",
      "type": "function"
    }
  ],
  "bytecode": "0x61012060405260006080908152600a60a052601460c052602360e05260326101005261002f90600d90600561038e565b506040805160a08101825268056bc75e2d631000008152683635c9adc5dea00000602082015269021e19e0c9bab240000091810191909152690a968163f0a57b400000606082015269152d02c7e14af6800000608082015261009590600e9060056103de565b50670de0b6b3a7640000601155676f05b59d3b200000601255601e805461ffff60a01b1916600160a01b1790553480156100ce57600080fd5b506040516159c73803806159c78339810160408190526100ed916104f2565b336040518060400160405280600e81526020016d57617270666c6f7720536869707360901b815250604051806040016040528060048152602001630534849560e41b815250816000908161014191906105c4565b50600161014e82826105c4565b5050506001600160a01b03811661017f57604051631e4fbdf760e01b81526000600482015260240160405180910390fd5b6101888161033c565b506001600755601c8054610100600160a81b0319166101006001600160a01b038581169190910291909117909155601d80546001600160a01b0319169183169190911790556013805462ffffff1916623200011790556040805160608101825260008152600a602082015260199181019190915261020a906014906003610424565b506040805160608101825260008152600a6020820152601991810191909152610237906015906003610424565b506040805160608101825260008152600a6020820152601991810191909152610264906016906003610424565b506040805160808101825260198152601e602082015260289181018290526060810191909152610298906017906004610424565b50604080516080810182526000815260056020820152600a91810191909152600f60608201526102cc906018906004610424565b506040805160808101825260008152600a6020820152601491810191909152601e6060820152610300906019906004610424565b506040805160808101825260008152600a6020820152601491810191909152600f606082015261033490601a906004610424565b505050610682565b600680546001600160a01b038381166001600160a01b0319831681179093556040519116919082907f8be0079c531659141344cd1fd0a4f28419497f9722a3daafe3b4186f6b6457e090600090a35050565b8280548282559060005260206000209081019282156103ce579160200282015b828111156103ce578251829060ff169055916020019190600101906103ae565b506103da9291506104c1565b5090565b8280548282559060005260206000209081019282156103ce579160200282015b828111156103ce57825182906001600160501b03169055916020019190600101906103fe565b82805482825590600052602060002090601f016020900481019282156103ce5791602002820160005b8382111561048b57835183826101000a81548160ff021916908360ff160217905550926020019260010160208160000104928301926001030261044d565b80156104b85782816101000a81549060ff021916905560010160208160000104928301926001030261048b565b50506103da9291505b5b808211156103da57600081556001016104c2565b80516001600160a01b03811681146104ed57600080fd5b919050565b6000806040838503121561050557600080fd5b61050e836104d6565b915061051c602084016104d6565b90509250929050565b634e487b7160e01b600052604160045260246000fd5b600181811c9082168061054f57607f821691505b60208210810361056f57634e487b7160e01b600052602260045260246000fd5b50919050565b601f8211156105bf57806000526020600020601f840160051c8101602085101561059c5750805b601f840160051c820191505b818110156105bc57600081556001016105a8565b50505b505050565b81516001600160401b038111156105dd576105dd610525565b6105f1816105eb845461053b565b84610575565b6020601f821160018114610625576000831561060d5750848201515b600019600385901b1c1916600184901b1784556105bc565b600084815260208120601f198516915b828110156106555787850151825560209485019460019092019101610635565b50848210156106735786840151600019600387901b60f8161c191681555b50505050600190811b01905550565b615336806106916000396000f3fe6080604052600436106103ad5760003560e01c80637506fd3c116101e7578063b4e847a01161010d578063d70cd3c1116100a0578063ebc9b48b1161006f578063ebc9b48b14610b4b578063ef04398f14610b6b578063f2fde38b14610b8b578063fddcfb5114610bab57600080fd5b8063d70cd3c114610ab1578063db74559b14610ade578063dd81d5bf14610b0b578063e985e9c514610b2b57600080fd5b8063c4ff8edb116100dc578063c4ff8edb14610a46578063c7c031ee14610a5c578063c87b56dd14610a71578063cfca9a7f14610a9157600080fd5b8063b4e847a0146109b4578063b662abf5146109ca578063b88d4fde146109ea578063c3c5dd3714610a0a57600080fd5b806395d89b4111610185578063a355a6da11610154578063a355a6da1461092f578063a4fa88f814610954578063a5099bae14610974578063a7a070ce1461099457600080fd5b806395d89b41146108ba5780639636c762146108cf578063a168d873146108ef578063a22cb4651461090f57600080fd5b80637d9e9d30116101c15780637d9e9d30146108525780638163997c146108725780638b6e061f146108875780638da5cb5b1461089c57600080fd5b80637506fd3c146107d0578063776d62f6146107f05780637ac2bc031461083257600080fd5b80633ccfd60b116102d7578063643e7afd1161026a5780637031997011610239578063703199701461075b57806370a082311461077b578063711953ef1461079b578063715018a6146107bb57600080fd5b8063643e7afd146106e05780636dd67b65146106f65780636e0f7a48146107165780636f5dd8711461074857600080fd5b80634d4e8dfa116102a65780634d4e8dfa1461064157806356a3ee77146106795780635c975abb146106a65780636352211e146106c057600080fd5b80633ccfd60b146105ac5780634025b22d146105c157806342842e0e146105ee578063446c00f71461060e57600080fd5b806311bf541f1161034f5780631d727ba51161031e5780631d727ba5146105395780631f18fd151461055957806323b872dd146105795780633a16881a1461059957600080fd5b806311bf541f146104c457806316c38b3c146104e45780631704c271146105045780631acaf6251461051957600080fd5b806306fdde031161038b57806306fdde0314610428578063081812fc1461044a578063095ea7b31461048257806311705fc3146104a457600080fd5b806301ffc9a7146103b257806303075018146103e7578063049f85b814610409575b600080fd5b3480156103be57600080fd5b506103d26103cd366004613b78565b610bc1565b60405190151581526020015b60405180910390f35b3480156103f357600080fd5b506103fc610c13565b6040516103de9190613bd4565b34801561041557600080fd5b506011545b6040519081526020016103de565b34801561043457600080fd5b5061043d610fcb565b6040516103de9190613d21565b34801561045657600080fd5b5061046a610465366004613d34565b61105d565b6040516001600160a01b0390911681526020016103de565b34801561048e57600080fd5b506104a261049d366004613d64565b611086565b005b3480156104b057600080fd5b506104a26104bf366004613e20565b611095565b3480156104d057600080fd5b506104a26104df366004613ecb565b6110b0565b3480156104f057600080fd5b506104a26104ff366004613ef6565b6110d8565b34801561051057600080fd5b5060095461041a565b34801561052557600080fd5b506104a2610534366004613f11565b6110f3565b34801561054557600080fd5b506104a2610554366004613fad565b61111d565b34801561056557600080fd5b50601e5461046a906001600160a01b031681565b34801561058557600080fd5b506104a2610594366004614143565b61122a565b6104a26105a7366004614180565b6112b4565b3480156105b857600080fd5b506104a2611339565b3480156105cd57600080fd5b506105e16105dc366004613d34565b6113ec565b6040516103de91906143d8565b3480156105fa57600080fd5b506104a2610609366004614143565b6117e5565b34801561061a57600080fd5b5061062e610629366004613d34565b611805565b60405161ffff90911681526020016103de565b34801561064d57600080fd5b5061066161065c366004613d34565b611b1b565b6040516103de9c9b9a999897969594939291906144c0565b34801561068557600080fd5b5061041a610694366004613f11565b600b6020526000908152604090205481565b3480156106b257600080fd5b50601c546103d29060ff1681565b3480156106cc57600080fd5b5061046a6106db366004613d34565b611fab565b3480156106ec57600080fd5b5061041a601b5481565b34801561070257600080fd5b506104a2610711366004613d34565b611fb6565b34801561072257600080fd5b50610736610731366004613d34565b611fc3565b60405160ff90911681526020016103de565b6104a2610756366004614180565b611ff4565b34801561076757600080fd5b50601d5461046a906001600160a01b031681565b34801561078757600080fd5b5061041a610796366004613f11565b61205a565b3480156107a757600080fd5b506104a26107b6366004613f11565b6120a2565b3480156107c757600080fd5b506104a26120cc565b3480156107dc57600080fd5b506104a26107eb366004613f11565b6120e0565b3480156107fc57600080fd5b506013546108169061ffff81169062010000900460ff1682565b6040805161ffff909316835260ff9091166020830152016103de565b34801561083e57600080fd5b506104a261084d366004613d34565b61210a565b34801561085e57600080fd5b506104a261086d366004613e20565b612167565b34801561087e57600080fd5b506104a261219d565b34801561089357600080fd5b5060125461041a565b3480156108a857600080fd5b506006546001600160a01b031661046a565b3480156108c657600080fd5b5061043d612221565b3480156108db57600080fd5b5061041a6108ea366004613d34565b612230565b3480156108fb57600080fd5b50600f5461046a906001600160a01b031681565b34801561091b57600080fd5b506104a261092a366004614574565b61226b565b34801561093b57600080fd5b50601c5461046a9061010090046001600160a01b031681565b34801561096057600080fd5b506104a261096f366004613d34565b612276565b34801561098057600080fd5b5061073661098f366004613d34565b612283565b3480156109a057600080fd5b506104a26109af366004613f11565b61228e565b3480156109c057600080fd5b5061041a60095481565b3480156109d657600080fd5b5061041a6109e5366004613d34565b6122be565b3480156109f657600080fd5b506104a2610a053660046145c5565b6122df565b348015610a1657600080fd5b50610816610a2536600461466a565b601f6020526000908152604090205461ffff81169062010000900460ff1682565b348015610a5257600080fd5b5061041a60115481565b348015610a6857600080fd5b50601b5461041a565b348015610a7d57600080fd5b5061043d610a8c366004613d34565b6122f7565b348015610a9d57600080fd5b5061041a610aac366004613d34565b61237b565b348015610abd57600080fd5b50610ad1610acc366004613f11565b61238b565b6040516103de9190614685565b348015610aea57600080fd5b5061041a610af9366004613f11565b600c6020526000908152604090205481565b348015610b1757600080fd5b506104a2610b26366004613d34565b6123af565b348015610b3757600080fd5b506103d2610b46366004614180565b612d46565b348015610b5757600080fd5b5060105461046a906001600160a01b031681565b348015610b7757600080fd5b506104a2610b86366004613e20565b612d74565b348015610b9757600080fd5b506104a2610ba6366004613f11565b612d8f565b348015610bb757600080fd5b5061041a60125481565b60006001600160e01b031982166380ac58cd60e01b1480610bf257506001600160e01b03198216635b5e139f60e01b145b80610c0d57506301ffc9a760e01b6001600160e01b03198316145b92915050565b610c69604051806101200160405280600061ffff168152602001600060ff168152602001606081526020016060815260200160608152602001606081526020016060815260200160608152602001606081525090565b60408051610120810182526013805461ffff8116835262010000900460ff16602080840191909152601480548551818402810184018752818152949593949386019392830182828015610cf957602002820191906000526020600020906000905b825461010083900a900460ff16815260206001928301818104948501949093039092029101808411610cca5790505b5050505050815260200160028201805480602002602001604051908101604052809291908181526020018280548015610d6f57602002820191906000526020600020906000905b825461010083900a900460ff16815260206001928301818104948501949093039092029101808411610d405790505b5050505050815260200160038201805480602002602001604051908101604052809291908181526020018280548015610de557602002820191906000526020600020906000905b825461010083900a900460ff16815260206001928301818104948501949093039092029101808411610db65790505b5050505050815260200160048201805480602002602001604051908101604052809291908181526020018280548015610e5b57602002820191906000526020600020906000905b825461010083900a900460ff16815260206001928301818104948501949093039092029101808411610e2c5790505b5050505050815260200160058201805480602002602001604051908101604052809291908181526020018280548015610ed157602002820191906000526020600020906000905b825461010083900a900460ff16815260206001928301818104948501949093039092029101808411610ea25790505b5050505050815260200160068201805480602002602001604051908101604052809291908181526020018280548015610f4757602002820191906000526020600020906000905b825461010083900a900460ff16815260206001928301818104948501949093039092029101808411610f185790505b5050505050815260200160078201805480602002602001604051908101604052809291908181526020018280548015610fbd57602002820191906000526020600020906000905b825461010083900a900460ff16815260206001928301818104948501949093039092029101808411610f8e5790505b505050505081525050905090565b606060008054610fda906146c8565b80601f0160208091040260200160405190810160405280929190818152602001828054611006906146c8565b80156110535780601f1061102857610100808354040283529160200191611053565b820191906000526020600020905b81548152906001019060200180831161103657829003601f168201915b5050505050905090565b600061106882612dca565b506000828152600460205260409020546001600160a01b0316610c0d565b611091828233612e03565b5050565b61109d612e10565b805161109190600d90602084019061391d565b6110b8612e10565b601e805461ffff60a01b191660ff92909216600160a01b02919091179055565b6110e0612e10565b601c805460ff1916911515919091179055565b6110fb612e10565b601080546001600160a01b0319166001600160a01b0392909216919091179055565b611125612e10565b601b805490600061113583614718565b909155505080516013805460208085015160ff16620100000262ffffff1990921661ffff9094169390931717815560408301518051849361117b92601492910190613968565b5060608201518051611197916002840191602090910190613968565b50608082015180516111b3916003840191602090910190613968565b5060a082015180516111cf916004840191602090910190613968565b5060c082015180516111eb916005840191602090910190613968565b5060e08201518051611207916006840191602090910190613968565b506101008201518051611224916007840191602090910190613968565b50505050565b6001600160a01b03821661125957604051633250574960e11b8152600060048201526024015b60405180910390fd5b6000611266838333612e3d565b9050836001600160a01b0316816001600160a01b031614611224576040516364283d7b60e01b81526001600160a01b0380861660048301526024820184905282166044820152606401611250565b6112bc612f33565b60125434146112de5760405163078d696560e31b815260040160405180910390fd5b6001600160a01b0381166113055760405163119833d760e11b815260040160405180910390fd5b60005b600a8110156113225761131a83612f5d565b600101611308565b5061132f8160125461304a565b6110916001600755565b611341612e10565b60006113556006546001600160a01b031690565b6001600160a01b03164760405160006040518083038185875af1925050503d806000811461139f576040519150601f19603f3d011682016040523d82523d6000602084013e6113a4565b606091505b50509050806113e95760405162461bcd60e51b815260206004820152601160248201527015da5d1a191c985dd85b0819985a5b1959607a1b6044820152606401611250565b50565b6113f4613a09565b600082815260086020526040908190208151610180810190925280548290829061141d906146c8565b80601f0160208091040260200160405190810160405280929190818152602001828054611449906146c8565b80156114965780601f1061146b57610100808354040283529160200191611496565b820191906000526020600020905b81548152906001019060200180831161147957829003601f168201915b5050509183525050600182015460208201526040805160808101825260028401805492909301929091829060ff1660038111156114d5576114d56141b3565b60038111156114e6576114e66141b3565b81528154602090910190610100900460ff166003811115611509576115096141b3565b600381111561151a5761151a6141b3565b8152815460209091019062010000900460ff16600381111561153e5761153e6141b3565b600381111561154f5761154f6141b3565b815281546020909101906301000000900460ff166003811115611574576115746141b3565b6003811115611585576115856141b3565b9052508152604080516101608101825260038401548152600484015460ff808216602084810191909152610100808404831685870152620100008085048416606080880191909152630100000080870486166080808a0191909152640100000000808904881660a0808c0191909152650100000000008a04891660c0808d0191909152600160301b8b048a1660e08d0152600160381b8b048a16888d0152600160401b8b048a166101208d0152600160481b909a0489166101408c0152878d019a909a528a51808a018c5260058e01805482528c519a8b018d5260068f018054808c168d529889048b168c8b01529688048a168b8e01529387048916948a0194909452909404909516928601929092526007890180548851818602810186018a5281815298909901989297949688850196959294908601939083018282801561170b57602002820191906000526020600020906000905b825461010083900a900460ff168152602060019283018181049485019490930390920291018084116116dc5790505b5050509190925250505081526003919091015460ff80821660208085019190915261010083048216151560408086019190915262010000840483161515606080870191909152630100000090940483161515608095860152948652600987015463ffffffff81169187019190915261ffff6401000000008204811695870195909552600160301b810490941691850191909152600160401b83048116151591840191909152600160481b90910416151560a0820152600a82015460c0820152600b909101546001600160a01b031660e09091015292915050565b611800838383604051806020016040528060008152506122df565b505050565b600081815260086020526040812060028101548290601a906301000000900460ff166003811115611838576118386141b3565b60ff168154811061184b5761184b614731565b600091825260209182902091810490910154600284015460ff601f9093166101000a90910482169160199162010000900416600381111561188e5761188e6141b3565b60ff16815481106118a1576118a1614731565b600091825260209182902091810490910154600285015460ff601f90931661010090810a9092048316926018929091041660038111156118e3576118e36141b3565b60ff16815481106118f6576118f6614731565b600091825260209182902091810490910154600286015460ff601f9093166101000a909104821691601791166003811115611933576119336141b3565b60ff168154811061194657611946614731565b600091825260209182902091810490910154600487015460168054601f9094166101000a90920460ff90811693600160481b9092041690811061198b5761198b614731565b600091825260209182902091810490910154600488015460158054601f9094166101000a90920460ff90811693600160401b909204169081106119d0576119d0614731565b600091825260209182902091810490910154600489015460148054601f9094166101000a90920460ff90811693600160381b90920416908110611a1557611a15614731565b600091825260209182902091810490910154601354611a4a92601f166101000a90910460ff9081169162010000900416614747565b611a549190614747565b611a5e9190614747565b611a689190614747565b611a729190614747565b611a7c9190614747565b611a869190614747565b600983015460ff919091169150600090611aa59063ffffffff16612283565b60ff16905060006064611ab88385614760565b611ac29190614793565b90506064611ad184601e614760565b611adb9190614793565b61ffff168161ffff161115611b04576064611af784601e614760565b611b019190614793565b90505b6000611b1082856147b7565b979650505050505050565b600860205260009081526040902080548190611b36906146c8565b80601f0160208091040260200160405190810160405280929190818152602001828054611b62906146c8565b8015611baf5780601f10611b8457610100808354040283529160200191611baf565b820191906000526020600020905b815481529060010190602001808311611b9257829003601f168201915b505050505090806001015490806002016040518060800160405290816000820160009054906101000a900460ff166003811115611bee57611bee6141b3565b6003811115611bff57611bff6141b3565b81528154602090910190610100900460ff166003811115611c2257611c226141b3565b6003811115611c3357611c336141b3565b8152815460209091019062010000900460ff166003811115611c5757611c576141b3565b6003811115611c6857611c686141b3565b815281546020909101906301000000900460ff166003811115611c8d57611c8d6141b3565b6003811115611c9e57611c9e6141b3565b81525050908060030160405180610160016040529081600082015481526020016001820160009054906101000a900460ff1660ff1660ff1681526020016001820160019054906101000a900460ff1660ff1660ff1681526020016001820160029054906101000a900460ff1660ff1660ff1681526020016001820160039054906101000a900460ff1660ff1660ff1681526020016001820160049054906101000a900460ff1660ff1660ff1681526020016001820160059054906101000a900460ff1660ff1660ff1681526020016001820160069054906101000a900460ff1660ff1660ff1681526020016001820160079054906101000a900460ff1660ff1660ff1681526020016001820160089054906101000a900460ff1660ff1660ff1681526020016001820160099054906101000a900460ff1660ff1660ff168152505090806005016040518060c001604052908160008201548152602001600182016040518060c00160405290816000820160009054906101000a900460ff1660ff1660ff1681526020016000820160019054906101000a900460ff1660ff1660ff1681526020016000820160029054906101000a900460ff1660ff1660ff1681526020016000820160039054906101000a900460ff1660ff1660ff1681526020016000820160049054906101000a900460ff1660ff1660ff16815260200160018201805480602002602001604051908101604052809291908181526020018280548015611f0757602002820191906000526020600020906000905b825461010083900a900460ff16815260206001928301818104948501949093039092029101808411611ed85790505b5050509190925250505081526003919091015460ff808216602084015261010082048116151560408401526201000082048116151560608401526301000000909104811615156080909201919091526009830154600a840154600b90940154929363ffffffff82169361ffff6401000000008404811694600160301b850490911693600160401b8104821693600160481b909104909116916001600160a01b03168c565b6000610c0d82612dca565b611fbe612e10565b601155565b60006032821015611fd657506000919050565b6050821015611fe757506001919050565b506002919050565b919050565b611ffc612f33565b601154341461201e5760405163078d696560e31b815260040160405180910390fd5b6001600160a01b0381166120455760405163119833d760e11b815260040160405180910390fd5b61204e82612f5d565b61132f8160115461304a565b60006001600160a01b038216612086576040516322718ad960e21b815260006004820152602401611250565b506001600160a01b031660009081526003602052604090205490565b6120aa612e10565b600f80546001600160a01b0319166001600160a01b0392909216919091179055565b6120d4612e10565b6120de60006131d1565b565b6120e8612e10565b601e80546001600160a01b0319166001600160a01b0392909216919091179055565b6006546001600160a01b031633148015906121305750600f546001600160a01b03163314155b1561215057604051634a0bfec160e01b8152336004820152602401611250565b600090815260086020526040902042600a90910155565b60005b81518110156110915761219582828151811061218857612188614731565b60200260200101516123af565b60010161216a565b336000908152600a602052604081206121b590613223565b905060005b815181101561109157600860008383815181106121d9576121d9614731565b6020026020010151815260200190815260200160002060090160099054906101000a900460ff166122195761221982828151811061218857612188614731565b6001016121ba565b606060018054610fda906146c8565b60008160000361224257506001919050565b60005b8215610c0d578061225581614718565b91506122649050600a846147d1565b9250612245565b611091338383613237565b61227e612e10565b601255565b6000610c0d82612230565b612296612e10565b601c80546001600160a01b0390921661010002610100600160a81b0319909216919091179055565b600d81815481106122ce57600080fd5b600091825260209091200154905081565b6122ea84848461122a565b61122433858585856132d6565b601d546000828152600860205260409081902090516364f9e85f60e11b81526060926001600160a01b03169163c9f3d0be916123369190600401614ed8565b600060405180830381865afa158015612353573d6000803e3d6000fd5b505050506040513d6000823e601f3d908101601f19168201604052610c0d919081019061503b565b600e81815481106122ce57600080fd5b6001600160a01b0381166000908152600a60205260409020606090610c0d90613223565b6040518181527ff8e1a15aba9398e019f0b49df1a4fde98ee17ae345cb5f6b5e2c27f5033e8ce79060200160405180910390a16000818152600860205260409020600b8101546001600160a01b0316331461241f5760405162dd34af60e41b815260048101839052602401611250565b6009810154600160481b900460ff161561244f57604051635331ce1f60e11b815260048101839052602401611250565b60098101805460ff60481b1916600160481b179055601e546003820154604051632f09b60960e21b81526000926001600160a01b03169163bc26d8249161249d919060040190815260200190565b6020604051808303816000875af11580156124bc573d6000803e3d6000fd5b505050506040513d601f19601f820116820180604052508101906124e091906150a8565b9050806124ec816150d1565b601c5460405191935061010090046001600160a01b0316915063549188c6906125199084906020016150fc565b60408051808303601f1901815290829052805160209091012060e083901b6001600160e01b03191682526004820152602401600060405180830381865afa158015612568573d6000803e3d6000fd5b505050506040513d6000823e601f3d908101601f19168201604052612590919081019061503b565b829061259c908261515b565b50806125a7816150d1565b915050610100816040516020016125be91906150fc565b6040516020818303038152906040528051906020012060001c6125e19190615219565b60048301805460ff191660ff9290921691909117905580612601816150d1565b9150506101008160405160200161261891906150fc565b6040516020818303038152906040528051906020012060001c61263b9190615219565b60048301805460ff929092166101000261ff001990921691909117905580612662816150d1565b9150506101008160405160200161267991906150fc565b6040516020818303038152906040528051906020012060001c61269c9190615219565b60048301805460ff92909216620100000262ff000019909216919091179055806126c5816150d1565b915050610100816040516020016126dc91906150fc565b6040516020818303038152906040528051906020012060001c6126ff9190615219565b60048301805460ff9290921663010000000263ff000000199092169190911790558061272a816150d1565b9150506101008160405160200161274191906150fc565b6040516020818303038152906040528051906020012060001c6127649190615219565b60048301805460ff929092166401000000000264ff000000001990921691909117905580612791816150d1565b915050610100816040516020016127a891906150fc565b6040516020818303038152906040528051906020012060001c6127cb9190615219565b60048301805460ff92909216650100000000000265ff000000000019909216919091179055806127fa816150d1565b91505061283660648260405160200161281391906150fc565b6040516020818303038152906040528051906020012060001c6107319190615219565b60048301805460ff92909216600160381b0267ff000000000000001990921691909117905580612865816150d1565b91505061287e60648260405160200161281391906150fc565b60048301805460ff92909216600160401b0260ff60401b19909216919091179055806128a9816150d1565b9150506128c260648260405160200161281391906150fc565b60048301805460ff92909216600160481b0260ff60481b19909216919091179055806128ed816150d1565b601e54604051919350600160a01b900461ffff1691506129119083906020016150fc565b6040516020818303038152906040528051906020012060001c6129349190615219565b60048301805460ff92909216600160301b0266ff0000000000001990921691909117905580612962816150d1565b91505060048160405160200161297891906150fc565b6040516020818303038152906040528051906020012060001c61299b9190615219565b60038111156129ac576129ac6141b3565b60028301805460ff191660018360038111156129ca576129ca6141b3565b0217905550806129d9816150d1565b91505060006002826040516020016129f191906150fc565b6040516020818303038152906040528051906020012060001c612a149190615219565b15905081612a21816150d1565b9250508015612a9b57600482604051602001612a3d91906150fc565b6040516020818303038152906040528051906020012060001c612a609190615219565b6003811115612a7157612a716141b3565b60028401805461ff001916610100836003811115612a9157612a916141b3565b0217905550612b0a565b600482604051602001612aae91906150fc565b6040516020818303038152906040528051906020012060001c612ad19190615219565b6003811115612ae257612ae26141b3565b60028401805462ff0000191662010000836003811115612b0457612b046141b3565b02179055505b81612b14816150d1565b925050600482604051602001612b2a91906150fc565b6040516020818303038152906040528051906020012060001c612b4d9190615219565b6003811115612b5e57612b5e6141b3565b60028401805463ff00000019166301000000836003811115612b8257612b826141b3565b02179055506000606483604051602001612b9c91906150fc565b6040516020818303038152906040528051906020012060001c612bbf9190615219565b905080600003612bdf5760098401805460ff60401b1916600160401b1790555b82612be9816150d1565b9350506000606484604051602001612c0191906150fc565b6040516020818303038152906040528051906020012060001c612c249190615219565b9050604b811015612c6457612c3a600582615219565b612c4590600161522d565b60098601805463ffffffff191661ffff92909216919091179055612cf2565b605a811015612c8357612c78600582615219565b612c4590600661522d565b605f811015612ca257612c97602882615219565b612c4590600b61522d565b6063811015612cc157612cb6603282615219565b612c4590603361522d565b612ccc603282615219565b612cd790606561522d565b60098601805463ffffffff191661ffff929092169190911790555b60135460098601805465ffff00000000191661ffff90921664010000000002919091179055612d2086611805565b8560090160066101000a81548161ffff021916908361ffff160217905550505050505050565b6001600160a01b03918216600090815260056020908152604080832093909416825291909152205460ff1690565b612d7c612e10565b805161109190600e90602084019061391d565b612d97612e10565b6001600160a01b038116612dc157604051631e4fbdf760e01b815260006004820152602401611250565b6113e9816131d1565b6000818152600260205260408120546001600160a01b031680610c0d57604051637e27328960e01b815260048101849052602401611250565b6118008383836001613400565b6006546001600160a01b031633146120de5760405163118cdaa760e01b8152336004820152602401611250565b6000828152600860205260408120600a015415612e8d5760405162461bcd60e51b815260206004820152600e60248201526d14da1a5c0819195cdd1c9bde595960921b6044820152606401611250565b6000838152600860205260409020600b01546001600160a01b03168015612ed2576001600160a01b0381166000908152600a60205260409020612ed09085613506565b505b6001600160a01b0385166000908152600a60205260409020612ef49085613512565b506000848152600860205260409020600b0180546001600160a01b0319166001600160a01b038716179055612f2a85858561351e565b95945050505050565b600260075403612f5657604051633ee5aeb560e01b815260040160405180910390fd5b6002600755565b601c5460ff1615612f8157604051636be9245d60e11b815260040160405180910390fd5b60098054906000612f9183614718565b909155505060095460008181526008602090815260408083206001810194909455600b840180546001600160a01b0319166001600160a01b0387811691909117909155601e54825163f8413b0760e01b8152925191169363f8413b07936004808501949193929183900301908290875af1158015613013573d6000803e3d6000fd5b505050506040513d601f19601f820116820180604052508101906130379190615240565b6003820155600954611091908390613617565b6001600160a01b0382166000908152600c60205260408120805483929061307290849061522d565b9091555050600e546001905b801561310c57600e613091600183615259565b815481106130a1576130a1614731565b60009182526020808320909101546001600160a01b0387168352600c909152604090912054106130fa57600d6130d8600183615259565b815481106130e8576130e8614731565b9060005260206000200154915061310c565b806131048161526c565b91505061307e565b506000606461311b8385615283565b61312591906147d1565b90506000846001600160a01b03168260405160006040518083038185875af1925050503d8060008114613174576040519150601f19603f3d011682016040523d82523d6000602084013e613179565b606091505b50509050806131ca5760405162461bcd60e51b815260206004820152601860248201527f526566657272616c207472616e73666572206661696c656400000000000000006044820152606401611250565b5050505050565b600680546001600160a01b038381166001600160a01b0319831681179093556040519116919082907f8be0079c531659141344cd1fd0a4f28419497f9722a3daafe3b4186f6b6457e090600090a35050565b6060600061323083613631565b9392505050565b6001600160a01b03821661326957604051630b61174360e31b81526001600160a01b0383166004820152602401611250565b6001600160a01b03838116600081815260056020908152604080832094871680845294825291829020805460ff191686151590811790915591519182527f17307eab39ab6107e8899845ad3d59bd9653f200f220920489ca2b5937696c31910160405180910390a3505050565b6001600160a01b0383163b156131ca57604051630a85bd0160e11b81526001600160a01b0384169063150b7a029061331890889088908790879060040161529a565b6020604051808303816000875af1925050508015613353575060408051601f3d908101601f19168201909252613350918101906152cd565b60015b6133bc573d808015613381576040519150601f19603f3d011682016040523d82523d6000602084013e613386565b606091505b5080516000036133b457604051633250574960e11b81526001600160a01b0385166004820152602401611250565b805181602001fd5b6001600160e01b03198116630a85bd0160e11b146133f857604051633250574960e11b81526001600160a01b0385166004820152602401611250565b505050505050565b808061341457506001600160a01b03821615155b156134d657600061342484612dca565b90506001600160a01b038316158015906134505750826001600160a01b0316816001600160a01b031614155b801561346357506134618184612d46565b155b1561348c5760405163a9fbf51f60e01b81526001600160a01b0384166004820152602401611250565b81156134d45783856001600160a01b0316826001600160a01b03167f8c5be1e5ebec7d5bd14f71427d1e84f3dd0314c0f7b2291e5b200ac8c7c3b92560405160405180910390a45b505b5050600090815260046020526040902080546001600160a01b0319166001600160a01b0392909216919091179055565b6000613230838361368d565b60006132308383613787565b6000828152600260205260408120546001600160a01b039081169083161561354b5761354b8184866137d6565b6001600160a01b0381161561358957613568600085600080613400565b6001600160a01b038116600090815260036020526040902080546000190190555b6001600160a01b038516156135b8576001600160a01b0385166000908152600360205260409020805460010190555b60008481526002602052604080822080546001600160a01b0319166001600160a01b0389811691821790925591518793918516917fddf252ad1be2c89b69c2b068fc378daa952ba7f163c4a11628f55a4df523b3ef91a4949350505050565b61109182826040518060200160405280600081525061383a565b60608160000180548060200260200160405190810160405280929190818152602001828054801561368157602002820191906000526020600020905b81548152602001906001019080831161366d575b50505050509050919050565b600081815260018301602052604081205480156137765760006136b1600183615259565b85549091506000906136c590600190615259565b905080821461372a5760008660000182815481106136e5576136e5614731565b906000526020600020015490508087600001848154811061370857613708614731565b6000918252602080832090910192909255918252600188019052604090208390555b855486908061373b5761373b6152ea565b600190038181906000526020600020016000905590558560010160008681526020019081526020016000206000905560019350505050610c0d565b6000915050610c0d565b5092915050565b60008181526001830160205260408120546137ce57508154600181810184556000848152602080822090930184905584548482528286019093526040902091909155610c0d565b506000610c0d565b6137e1838383613852565b611800576001600160a01b03831661380f57604051637e27328960e01b815260048101829052602401611250565b60405163177e802f60e01b81526001600160a01b038316600482015260248101829052604401611250565b61384483836138b8565b6118003360008585856132d6565b60006001600160a01b038316158015906138b05750826001600160a01b0316846001600160a01b0316148061388c575061388c8484612d46565b806138b057506000828152600460205260409020546001600160a01b038481169116145b949350505050565b6001600160a01b0382166138e257604051633250574960e11b815260006004820152602401611250565b60006138f083836000612e3d565b90506001600160a01b03811615611800576040516339e3563760e11b815260006004820152602401611250565b828054828255906000526020600020908101928215613958579160200282015b8281111561395857825182559160200191906001019061393d565b50613964929150613b4d565b5090565b82805482825590600052602060002090601f016020900481019282156139585791602002820160005b838211156139cf57835183826101000a81548160ff021916908360ff1602179055509260200192600101602081600001049283019260010302613991565b80156139fc5782816101000a81549060ff02191690556001016020816000010492830192600103026139cf565b5050613964929150613b4d565b6040518061018001604052806060815260200160008152602001613a4e6040805160808101909152806000815260200160008152602001600081526020016000905290565b8152604080516101608101825260008082526020828101829052928201819052606082018190526080820181905260a0820181905260c0820181905260e08201819052610100820181905261012082018190526101408201529101908152602001613b166040805160c0808201835260008083528351918201845280825260208281018290529382018190526060808301829052608083019190915260a082015290918201908152600060208201819052604082018190526060820181905260809091015290565b815260006020820181905260408201819052606082018190526080820181905260a0820181905260c0820181905260e09091015290565b5b808211156139645760008155600101613b4e565b6001600160e01b0319811681146113e957600080fd5b600060208284031215613b8a57600080fd5b813561323081613b62565b600081518084526020840193506020830160005b82811015613bca57815160ff16865260209586019590910190600101613ba9565b5093949350505050565b60208152613be960208201835161ffff169052565b60006020830151613bff604084018260ff169052565b5060408301516101206060840152613c1b610140840182613b95565b90506060840151601f19848303016080850152613c388282613b95565b9150506080840151601f198483030160a0850152613c568282613b95565b91505060a0840151601f198483030160c0850152613c748282613b95565b91505060c0840151601f198483030160e0850152613c928282613b95565b91505060e0840151601f1984830301610100850152613cb18282613b95565b915050610100840151601f1984830301610120850152612f2a8282613b95565b60005b83811015613cec578181015183820152602001613cd4565b50506000910152565b60008151808452613d0d816020860160208601613cd1565b601f01601f19169290920160200192915050565b6020815260006132306020830184613cf5565b600060208284031215613d4657600080fd5b5035919050565b80356001600160a01b0381168114611fef57600080fd5b60008060408385031215613d7757600080fd5b613d8083613d4d565b946020939093013593505050565b634e487b7160e01b600052604160045260246000fd5b60405161012081016001600160401b0381118282101715613dc757613dc7613d8e565b60405290565b604051601f8201601f191681016001600160401b0381118282101715613df557613df5613d8e565b604052919050565b60006001600160401b03821115613e1657613e16613d8e565b5060051b60200190565b600060208284031215613e3257600080fd5b81356001600160401b03811115613e4857600080fd5b8201601f81018413613e5957600080fd5b8035613e6c613e6782613dfd565b613dcd565b8082825260208201915060208360051b850101925086831115613e8e57600080fd5b6020840193505b82841015613eb0578335825260209384019390910190613e95565b9695505050505050565b803560ff81168114611fef57600080fd5b600060208284031215613edd57600080fd5b61323082613eba565b80358015158114611fef57600080fd5b600060208284031215613f0857600080fd5b61323082613ee6565b600060208284031215613f2357600080fd5b61323082613d4d565b803561ffff81168114611fef57600080fd5b600082601f830112613f4f57600080fd5b8135613f5d613e6782613dfd565b8082825260208201915060208360051b860101925085831115613f7f57600080fd5b602085015b83811015613fa357613f9581613eba565b835260209283019201613f84565b5095945050505050565b600060208284031215613fbf57600080fd5b81356001600160401b03811115613fd557600080fd5b82016101208185031215613fe857600080fd5b613ff0613da4565b613ff982613f2c565b815261400760208301613eba565b602082015260408201356001600160401b0381111561402557600080fd5b61403186828501613f3e565b60408301525060608201356001600160401b0381111561405057600080fd5b61405c86828501613f3e565b60608301525060808201356001600160401b0381111561407b57600080fd5b61408786828501613f3e565b60808301525060a08201356001600160401b038111156140a657600080fd5b6140b286828501613f3e565b60a08301525060c08201356001600160401b038111156140d157600080fd5b6140dd86828501613f3e565b60c08301525060e08201356001600160401b038111156140fc57600080fd5b61410886828501613f3e565b60e0830152506101008201356001600160401b0381111561412857600080fd5b61413486828501613f3e565b61010083015250949350505050565b60008060006060848603121561415857600080fd5b61416184613d4d565b925061416f60208501613d4d565b929592945050506040919091013590565b6000806040838503121561419357600080fd5b61419c83613d4d565b91506141aa60208401613d4d565b90509250929050565b634e487b7160e01b600052602160045260246000fd5b600481106113e957634e487b7160e01b600052602160045260246000fd5b80516141f2816141c9565b82526020810151614202816141c9565b60208301526040810151614215816141c9565b60408301526060810151614228816141c9565b806060840152505050565b80518252602081015161424b602084018260ff169052565b506040810151614260604084018260ff169052565b506060810151614275606084018260ff169052565b50608081015161428a608084018260ff169052565b5060a081015161429f60a084018260ff169052565b5060c08101516142b460c084018260ff169052565b5060e08101516142c960e084018260ff169052565b506101008101516142e061010084018260ff169052565b506101208101516142f761012084018260ff169052565b5061014081015161180061014084018260ff169052565b805182526000602082015160c0602085015260ff81511660c085015260ff60208201511660e085015260ff60408201511661010085015260ff60608201511661012085015260ff60808201511661014085015260a0810151905060c061016085015261437e610180850182613b95565b90506040830151614394604086018260ff169052565b5060608301516143a8606086018215159052565b5060808301516143bc608086018215159052565b5060a08301516143d060a086018215159052565b509392505050565b602081526000825161032060208401526143f6610340840182613cf5565b905060208401516040840152604084015161441460608501826141e7565b50606084015161442760e0850182614233565b506080840151838203601f1901610240850152614444828261430e565b91505060a084015161445f61026085018263ffffffff169052565b5060c084015161ffff90811661028085015260e0850151166102a084015261010084015115156102c084015261012084015115156102e08401526101408401516103008401526101608401516001600160a01b0381166103208501526143d0565b610320815260006144d561032083018f613cf5565b8d60208401526144e8604084018e6141e7565b6144f560c084018d614233565b828103610220840152614508818c61430e565b91505063ffffffff891661024083015261ffff881661026083015261ffff871661028083015261453d6102a083018715159052565b8415156102c0830152836102e08301526145636103008301846001600160a01b03169052565b9d9c50505050505050505050505050565b6000806040838503121561458757600080fd5b61459083613d4d565b91506141aa60208401613ee6565b60006001600160401b038211156145b7576145b7613d8e565b50601f01601f191660200190565b600080600080608085870312156145db57600080fd5b6145e485613d4d565b93506145f260208601613d4d565b92506040850135915060608501356001600160401b0381111561461457600080fd5b8501601f8101871361462557600080fd5b8035614633613e678261459e565b81815288602083850101111561464857600080fd5b8160208401602083013760006020838301015280935050505092959194509250565b60006020828403121561467c57600080fd5b61323082613f2c565b602080825282518282018190526000918401906040840190835b818110156146bd57835183526020938401939092019160010161469f565b509095945050505050565b600181811c908216806146dc57607f821691505b6020821081036146fc57634e487b7160e01b600052602260045260246000fd5b50919050565b634e487b7160e01b600052601160045260246000fd5b60006001820161472a5761472a614702565b5060010190565b634e487b7160e01b600052603260045260246000fd5b60ff8181168382160190811115610c0d57610c0d614702565b61ffff818116838216029081169081811461378057613780614702565b634e487b7160e01b600052601260045260246000fd5b600061ffff8316806147a7576147a761477d565b8061ffff84160491505092915050565b61ffff8281168282160390811115610c0d57610c0d614702565b6000826147e0576147e061477d565b500490565b600081546147f2816146c8565b80855260018216801561480c57600181146148285761485f565b60ff1983166020870152602082151560051b870101935061485f565b84600052602060002060005b838110156148565781546020828a010152600182019150602081019050614834565b87016020019450505b50505092915050565b805460ff8116614877816141c9565b8352600881901c60ff1661488a816141c9565b6020840152601081901c60ff166148a0816141c9565b604084015260181c60ff16614228816141c9565b805480835260008281526020808220940193909190825b82601f82011015614a9e57815460ff81168752600881901c60ff166020880152601081901c60ff166040880152601881901c60ff166060880152602081901c60ff166080880152602881901c60ff1660a0880152603081901c60ff1660c0880152603881901c60ff1660e0880152604081901c60ff16610100880152604881901c60ff16610120880152605081901c60ff16610140880152605881901c60ff16610160880152606081901c60ff16610180880152606881901c60ff166101a0880152607081901c60ff166101c0880152607881901c60ff166101e0880152608081901c60ff16610200880152608881901c60ff16610220880152609081901c60ff16610240880152609881901c60ff1661026088015260a081901c60ff1661028088015260a881901c60ff166102a088015260b081901c60ff166102c088015260b881901c60ff166102e088015260c081901c60ff1661030088015260c881901c60ff1661032088015260d081901c60ff1661034088015260d881901c60ff1661036088015260e081901c60ff1661038088015260e881901c60ff166103a088015260f081901c60ff166103c088015260f881901c6103e0880152506104009590950194600191909101906020016148cb565b90549082811015614ab95760ff821686526020909501946001015b82811015614ad55760ff600883901c1686526020909501946001015b82811015614af15760ff601083901c1686526020909501946001015b82811015614b0d5760ff601883901c1686526020909501946001015b82811015614b2a57602082901c60ff168652602095909501946001015b82811015614b465760ff602883901c1686526020909501946001015b82811015614b625760ff603083901c1686526020909501946001015b82811015614b7e5760ff603883901c1686526020909501946001015b82811015614b9a5760ff604083901c1686526020909501946001015b82811015614bb65760ff604883901c1686526020909501946001015b82811015614bd25760ff605083901c1686526020909501946001015b82811015614bee5760ff605883901c1686526020909501946001015b82811015614c0a5760ff606083901c1686526020909501946001015b82811015614c265760ff606883901c1686526020909501946001015b82811015614c425760ff607083901c1686526020909501946001015b82811015614c5e5760ff607883901c1686526020909501946001015b82811015614c7a5760ff608083901c1686526020909501946001015b82811015614c965760ff608883901c1686526020909501946001015b82811015614cb25760ff609083901c1686526020909501946001015b82811015614cce5760ff609883901c1686526020909501946001015b82811015614cea5760ff60a083901c1686526020909501946001015b82811015614d065760ff60a883901c1686526020909501946001015b82811015614d225760ff60b083901c1686526020909501946001015b82811015614d3e5760ff60b883901c1686526020909501946001015b82811015614d5a5760ff60c083901c1686526020909501946001015b82811015614d765760ff60c883901c1686526020909501946001015b82811015614d925760ff60d083901c1686526020909501946001015b82811015614dae5760ff60d883901c1686526020909501946001015b82811015614dca5760ff60e083901c1686526020909501946001015b82811015614de65760ff60e883901c1686526020909501946001015b82811015614e025760ff60f083901c1686526020909501946001015b82811015613bca575060f81c845250506020909101919050565b8054825260c060208301526000600182015460ff811660c085015260ff8160081c1660e085015260ff8160101c16610100850152614e66610120850160ff8360181c1660ff169052565b602081901c60ff166101408501525060c0610160840152614e8e6101808401600284016148b4565b600383015460ff81166040860152614eb06060860160ff8360081c1615159052565b614ec46080860160ff8360101c1615159052565b6143d060a0860160ff8360181c1615159052565b6020815261032060208201526000614ef46103408301846147e5565b60018401546040840152614f0e6060840160028601614868565b600384015460e0840152600484015460ff808216610100860152600882901c8116610120860152601082901c8116610140860152601882901c8116610160860152602082901c8116610180860152602882901c81166101a0860152603082901c81166101c0860152603882901c81166101e0860152604082901c811661020086015260489190911c16610220840152828103601f1901610240840152614fb78160058601614e1c565b600985015463ffffffff8116610260860152909150602081901c61ffff16610280850152603081901c61ffff166102a0850152614fff6102c0850160ff8360401c1615159052565b6150146102e0850160ff8360481c1615159052565b50600a840154610300840152600b8401546001600160a01b031661032084018190526143d0565b60006020828403121561504d57600080fd5b81516001600160401b0381111561506357600080fd5b8201601f8101841361507457600080fd5b8051615082613e678261459e565b81815285602083850101111561509757600080fd5b612f2a826020830160208601613cd1565b6000602082840312156150ba57600080fd5b81516001600160401b038116811461323057600080fd5b60006001600160401b0382166001600160401b0381036150f3576150f3614702565b60010192915050565b60c09190911b6001600160c01b031916815260080190565b601f82111561180057806000526020600020601f840160051c8101602085101561513b5750805b601f840160051c820191505b818110156131ca5760008155600101615147565b81516001600160401b0381111561517457615174613d8e565b6151888161518284546146c8565b84615114565b6020601f8211600181146151bc57600083156151a45750848201515b600019600385901b1c1916600184901b1784556131ca565b600084815260208120601f198516915b828110156151ec57878501518255602094850194600190920191016151cc565b508482101561520a5786840151600019600387901b60f8161c191681555b50505050600190811b01905550565b6000826152285761522861477d565b500690565b80820180821115610c0d57610c0d614702565b60006020828403121561525257600080fd5b5051919050565b81810381811115610c0d57610c0d614702565b60008161527b5761527b614702565b506000190190565b8082028115828204841417610c0d57610c0d614702565b6001600160a01b0385811682528416602082015260408101839052608060608201819052600090613eb090830184613cf5565b6000602082840312156152df57600080fd5b815161323081613b62565b634e487b7160e01b600052603160045260246000fdfea2646970667358221220fdad57c21d67416e2de4ef53e0c3c18be5cb2e09ba8cc0697462b54a8e109ed064736f6c634300081c0033",
  "linkReferences": {},
  "deployedLinkReferences": {}
}