{
  "_format": "hh-sol-artifact-1",
  "contractName": "RenderShield2",
  "sourceName": "contracts/Renderers/RenderShield2.sol",
  "abi": [
    {
      "inputs": [
        {
          "components": [
            {
              "internalType": "string",
              "name": "name",
              "type": "string"
            },
            {
              "internalType": "uint256",
              "name": "id",
              "type": "uint256"
            },
            {
              "components": [
                {
                  "internalType": "enum MainWeapon",
                  "name": "mainWeapon",
                  "type": "uint8"
                },
                {
                  "internalType": "enum Armor",
                  "name": "armor",
                  "type": "uint8"
                },
                {
                  "internalType": "enum Shields",
                  "name": "shields",
                  "type": "uint8"
                },
                {
                  "internalType": "enum Special",
                  "name": "special",
                  "type": "uint8"
                }
              ],
              "internalType": "struct Equipment",
              "name": "equipment",
              "type": "tuple"
            },
            {
              "components": [
                {
                  "internalType": "uint256",
                  "name": "serialNumber",
                  "type": "uint256"
                },
                {
                  "components": [
                    {
                      "internalType": "uint8",
                      "name": "h1",
                      "type": "uint8"
                    },
                    {
                      "internalType": "uint8",
                      "name": "s1",
                      "type": "uint8"
                    },
                    {
                      "internalType": "uint8",
                      "name": "l1",
                      "type": "uint8"
                    },
                    {
                      "internalType": "uint8",
                      "name": "h2",
                      "type": "uint8"
                    },
                    {
                      "internalType": "uint8",
                      "name": "s2",
                      "type": "uint8"
                    },
                    {
                      "internalType": "uint8",
                      "name": "l2",
                      "type": "uint8"
                    }
                  ],
                  "internalType": "struct Colors",
                  "name": "colors",
                  "type": "tuple"
                },
                {
                  "internalType": "uint8",
                  "name": "variant",
                  "type": "uint8"
                },
                {
                  "internalType": "uint8",
                  "name": "accuracy",
                  "type": "uint8"
                },
                {
                  "internalType": "uint8",
                  "name": "hull",
                  "type": "uint8"
                },
                {
                  "internalType": "uint8",
                  "name": "speed",
                  "type": "uint8"
                }
              ],
              "internalType": "struct Traits",
              "name": "traits",
              "type": "tuple"
            },
            {
              "components": [
                {
                  "internalType": "uint32",
                  "name": "shipsDestroyed",
                  "type": "uint32"
                },
                {
                  "internalType": "uint16",
                  "name": "costsVersion",
                  "type": "uint16"
                },
                {
                  "internalType": "uint16",
                  "name": "cost",
                  "type": "uint16"
                },
                {
                  "internalType": "bool",
                  "name": "shiny",
                  "type": "bool"
                },
                {
                  "internalType": "bool",
                  "name": "constructed",
                  "type": "bool"
                },
                {
                  "internalType": "bool",
                  "name": "inFleet",
                  "type": "bool"
                },
                {
                  "internalType": "uint256",
                  "name": "timestampDestroyed",
                  "type": "uint256"
                }
              ],
              "internalType": "struct ShipData",
              "name": "shipData",
              "type": "tuple"
            },
            {
              "internalType": "address",
              "name": "owner",
              "type": "address"
            }
          ],
          "internalType": "struct Ship",
          "name": "ship",
          "type": "tuple"
        }
      ],
      "name": "render",
      "outputs": [
        {
          "internalType": "string",
          "name": "",
          "type": "string"
        }
      ],
      "stateMutability": "pure",
      "type": "function"
    }
  ],
  "bytecode": "0x6080604052348015600f57600080fd5b50614ebb8061001f6000396000f3fe608060405234801561001057600080fd5b506004361061002b5760003560e01c8063ac7ae36b14610030575b600080fd5b61004361003e3660046111c4565b610059565b6040516100509190611306565b60405180910390f35b6060600060405180610140016040528061010e815260200161394c61010e91398360800151606001516100b6576040518060400160405280601281526020017168736c283138302c203934252c203734252960701b81525061010b565b60608401516020908101518051818301516040928301518351808501909452601284527168736c283138302c203934252c203734252960701b9484019490945261010b9360ff92831693918316921690610952565b6040518060e0016040528060a981526020016138a360a99139856080015160600151610161576040518060400160405280601281526020017168736c283138352c203835252c203634252960701b8152506101b6565b60608601516020908101518051818301516040928301518351808501909452601284527168736c283138352c203835252c203634252960701b948401949094526101b69360ff92831693918316921690610952565b60405180610180016040528061014481526020016145c2610144913987608001516060015161020d576040518060400160405280601081526020016f68736c2834332c2037252c203532252960801b815250610260565b60608801516020908101518051818301516040928301518351808501909452601084526f68736c2834332c2037252c203532252960801b948401949094526102609360ff92831693918316921690610952565b6040518061050001604052806104cf8152602001612e286104cf91398960800151606001516102b9576040518060400160405280601281526020017168736c283139382c203737252c203432252960701b81525061030e565b60608a01516020908101518051818301516040928301518351808501909452601284527168736c283139382c203737252c203432252960701b9484019490945261030e9360ff92831693918316921690610952565b604051602001610325989796959493929190611339565b60408051601f198184030181526105a083019091526105638083529092506000919061405f602083013984608001516060015161038b576040518060400160405280601181526020017068736c2833322c203132252c203430252960781b8152506103df565b60608501516020908101518051818301516040928301518351808501909452601184527068736c2833322c203132252c203430252960781b948401949094526103df9360ff92831693918316921690610952565b6040518061060001604052806105d181526020016115b86105d19139866080015160600151610438576040518060400160405280601281526020017168736c283230302c203833252c203336252960701b81525061048d565b60608701516020908101518051818301516040928301518351808501909452601284527168736c283230302c203833252c203336252960701b9484019490945261048d9360ff92831693918316921690610952565b604051806105e001604052806105b481526020016128746105b491398860800151606001516104e4576040518060400160405280601081526020016f68736c2835312c2034252c203334252960801b815250610537565b60608901516020908101518051818301516040928301518351808501909452601084526f68736c2835312c2034252c203334252960801b948401949094526105379360ff92831693918316921690610952565b60405180610740016040528061071f815260200161215561071f91398a6080015160600151610590576040518060400160405280601281526020017168736c283230352c203836252c203330252960701b8152506105e5565b60608b01516020908101518051818301516040928301518351808501909452601284527168736c283230352c203836252c203330252960701b948401949094526105e59360ff92831693918316921690610952565b6040516020016105fc989796959493929190611339565b60408051601f19818403018152610640830190915261060580835290925060009190613a5a6020830139856080015160600151610661576040518060400160405280601081526020016f68736c2836302c2032252c203234252960801b8152506106b4565b60608601516020908101518051818301516040928301518351808501909452601084526f68736c2836302c2032252c203234252960801b948401949094526106b49360ff92831693918316921690610952565b6040518061060001604052806105cc8152602001611b896105cc913987608001516060015161070d576040518060400160405280601281526020017168736c283230382c203139252c203137252960701b815250610762565b60608801516020908101518051818301516040928301518351808501909452601284527168736c283230382c203139252c203137252960701b948401949094526107629360ff92831693918316921690610952565b604051806107a00160405280610780815260200161470661078091398960800151606001516107ba576040518060400160405280601181526020017068736c283231302c2036252c203134252960781b81525061080e565b60608a01516020908101518051818301516040928301518351808501909452601184527068736c283231302c2036252c203134252960781b9484019490945261080e9360ff92831693918316921690610952565b604051806105e001604052806105ac81526020016132f76105ac91398b6080015160600151610866576040518060400160405280601181526020017068736c283231302c203133252c2036252960781b8152506108ba565b60608c01516020908101518051818301516040928301518351808501909452601184527068736c283231302c203133252c2036252960781b948401949094526108ba9360ff92831693918316921690610952565b6040516020016108d1989796959493929190611339565b604051602081830303815290604052905060006040518060400160405280600381526020016211179f60e91b81525060405160200161091091906113e0565b60405160208183030381529060405290508383838360405160200161093894939291906113fc565b604051602081830303815290604052945050505050919050565b60606000829050600a815110156109af5760405162461bcd60e51b815260206004820152601960248201527f496e76616c69642048534c20737472696e6720666f726d617400000000000000604482015260640160405180910390fd5b6004805b8251811080156109e857508281815181106109d0576109d0611453565b6020910101516001600160f81b031916600b60fa1b14155b156109ff57806109f78161147f565b9150506109b3565b6000610a0c848484610d0d565b9050610a19826001611498565b92505b835183108015610a7e5750838381518110610a3957610a39611453565b6020910101516001600160f81b031916600160fd1b1480610a7e5750838381518110610a6757610a67611453565b6020910101516001600160f81b031916600b60fa1b145b15610a955782610a8d8161147f565b935050610a1c565b8291505b835182108015610ace5750838281518110610ab657610ab6611453565b6020910101516001600160f81b031916602560f81b14155b15610ae55781610add8161147f565b925050610a99565b6000610af2858585610d0d565b9050610aff836001611498565b93505b845184108015610b645750848481518110610b1f57610b1f611453565b6020910101516001600160f81b031916600160fd1b1480610b645750848481518110610b4d57610b4d611453565b6020910101516001600160f81b031916600b60fa1b145b15610b7b5783610b738161147f565b945050610b02565b8392505b845183108015610bb45750848381518110610b9c57610b9c611453565b6020910101516001600160f81b031916602560f81b14155b15610bcb5782610bc38161147f565b935050610b7f565b6000610bd8868686610d0d565b905060006028841115610c18576064610bf28d60056114b1565b610bfd86605f6114b1565b610c079190611498565b610c1191906114de565b9050610c47565b6064610c258d604b6114b1565b610c308660196114b1565b610c3a9190611498565b610c4491906114de565b90505b600060646002610c588e605a6114b1565b610c6387600a6114b1565b610c6d9190611498565b610c7791906114de565b610c8191906114de565b610c8c906032611498565b905060006064610c9d8d60056114b1565b610ca886605f6114b1565b610cb29190611498565b610cbc91906114de565b9050610cc783610db5565b610cd083610db5565b610cd983610db5565b604051602001610ceb939291906114f2565b6040516020818303038152906040529950505050505050505050949350505050565b600080835b83811015610dac576030868281518110610d2e57610d2e611453565b016020015160f81c10801590610d5e57506039868281518110610d5357610d53611453565b016020015160f81c11155b15610da4576030868281518110610d7757610d77611453565b0160200151610d89919060f81c611577565b60ff16610d9783600a6114b1565b610da19190611498565b91505b600101610d12565b50949350505050565b606081600003610ddc5750506040805180820190915260018152600360fc1b602082015290565b8160005b8115610e065780610df08161147f565b9150610dff9050600a836114de565b9150610de0565b60008167ffffffffffffffff811115610e2157610e21610ebe565b6040519080825280601f01601f191660200182016040528015610e4b576020820181803683370190505b5090505b8415610eb657610e60600183611590565b9150610e6d600a866115a3565b610e78906030611498565b60f81b818381518110610e8d57610e8d611453565b60200101906001600160f81b031916908160001a905350610eaf600a866114de565b9450610e4f565b949350505050565b634e487b7160e01b600052604160045260246000fd5b60405160c0810167ffffffffffffffff81118282101715610ef757610ef7610ebe565b60405290565b60405160e0810167ffffffffffffffff81118282101715610ef757610ef7610ebe565b604051601f8201601f1916810167ffffffffffffffff81118282101715610f4957610f49610ebe565b604052919050565b60048110610f5e57600080fd5b50565b600060808284031215610f7357600080fd5b6040516080810167ffffffffffffffff81118282101715610f9657610f96610ebe565b6040529050808235610fa781610f51565b81526020830135610fb781610f51565b60208201526040830135610fca81610f51565b60408201526060830135610fdd81610f51565b6060919091015292915050565b803560ff81168114610ffb57600080fd5b919050565b600081830361016081121561101457600080fd5b61101c610ed4565b83358152915060c0601f198201121561103457600080fd5b5061103d610ed4565b61104960208401610fea565b815261105760408401610fea565b602082015261106860608401610fea565b604082015261107960808401610fea565b606082015261108a60a08401610fea565b608082015261109b60c08401610fea565b60a082015260208201526110b160e08301610fea565b60408201526110c36101008301610fea565b60608201526110d56101208301610fea565b60808201526110e76101408301610fea565b60a082015292915050565b803561ffff81168114610ffb57600080fd5b80358015158114610ffb57600080fd5b600060e0828403121561112657600080fd5b61112e610efd565b9050813563ffffffff8116811461114457600080fd5b8152611152602083016110f2565b6020820152611163604083016110f2565b604082015261117460608301611104565b606082015261118560808301611104565b608082015261119660a08301611104565b60a082015260c09182013591810191909152919050565b80356001600160a01b0381168114610ffb57600080fd5b6000602082840312156111d657600080fd5b813567ffffffffffffffff8111156111ed57600080fd5b8201610320818503121561120057600080fd5b611208610ed4565b813567ffffffffffffffff81111561121f57600080fd5b8201601f8101861361123057600080fd5b803567ffffffffffffffff81111561124a5761124a610ebe565b61125d601f8201601f1916602001610f20565b81815287602083850101111561127257600080fd5b8160208401602083013760006020928201830152835283810135908301525061129e8560408401610f61565b60408201526112b08560c08401611000565b60608201526112c3856102208401611114565b60808201526112d561030083016111ad565b60a0820152949350505050565b60005b838110156112fd5781810151838201526020016112e5565b50506000910152565b60208152600082518060208401526113258160408501602087016112e2565b601f01601f19169190910160400192915050565b6000895161134b818460208e016112e2565b89519083019061135f818360208e016112e2565b8951910190611372818360208d016112e2565b8851910190611385818360208c016112e2565b8751910190611398818360208b016112e2565b86519101906113ab818360208a016112e2565b85519101906113be8183602089016112e2565b84519101906113d18183602088016112e2565b019a9950505050505050505050565b600082516113f28184602087016112e2565b9190910192915050565b6000855161140e818460208a016112e2565b855190830190611422818360208a016112e2565b85519101906114358183602089016112e2565b84519101906114488183602088016112e2565b019695505050505050565b634e487b7160e01b600052603260045260246000fd5b634e487b7160e01b600052601160045260246000fd5b60006001820161149157611491611469565b5060010190565b808201808211156114ab576114ab611469565b92915050565b80820281158282048414176114ab576114ab611469565b634e487b7160e01b600052601260045260246000fd5b6000826114ed576114ed6114c8565b500490565b630d0e6d8560e31b8152600084516115118160048501602089016112e2565b61016160f51b60049184019182015284516115338160068401602089016112e2565b6004818301019150506201296160ed1b6002820152835161155b8160058401602088016112e2565b61252960f01b6005929091019182015260070195945050505050565b60ff82811682821603908111156114ab576114ab611469565b818103818111156114ab576114ab611469565b6000826115b2576115b26114c8565b50069056fe222f3e3c7061746820643d226d313336203130352d312d312d31203268336c2d312d315a6d2d3320302d312d312d31203268336c2d312d315a6d3234203068312d3976326c372d3120312d315a6d2d392030682d313176326c31312d31762d315a6d392033682d3176316831762d315a6d2d34362030762d31682d3976326839762d315a6d2d31302030762d31682d3276326832762d315a6d36322d3120312032762d34682d3676326c322d3176346c332d3576325a6d2d323620322d322d312d3120326833762d315a6d32322030762d326c2d31203420322d312d312d325a6d2d362031762d31682d336c31203268316c312d315a6d2d32322d31682d312033762d326c2d3420312d3320326835762d315a6d2d31382031682d3176316831762d315a6d363720332d312d31682d3776336838762d325a6d2d36302030762d31682d3576336835762d325a6d2d362030762d31682d31307633683130762d325a6d2d31312030762d314838386c2d3320317632683138762d325a6d37322033682d3176316831762d315a6d2d38352030682d3176316831762d315a6d3720312d322d32203120336831762d315a6d2d332030682d3176316831762d315a6d2d322030682d3176316831762d315a6d38372031682d3720392d325a6d2d36302030762d31682d3676326836762d315a6d2d313320302d312d3220362033762d33682d366c2d31203368336c2d312d325a6d2d31392d31762d31682d336c3220312d3220326833762d325a6d383320326831762d32682d346c31203420312d3268315a6d2d38352031682d3176316831762d315a6d393320352d312d312d31203268336c2d312d315a6d2d36302031762d31682d32763268316c312d315a6d2d32342033682d3176316831762d315a6d392031682d3176316831762d315a6d342d312d312d31682d3276326c33203168316c2d312d325a6d36312037682d3176316831762d315a6d2d32362030682d3176316831762d315a6d2d35352d36762d38682d317631366831762d385a6d35352039682d3176316831762d315a6d2d3330203020312d32762d31356c2d332d324838386c32342031203120337631346c2d34203268336c312d325a6d2d352030682d3520362d315a6d2d313020304838376831332d335a6d34352032682d3176316831762d315a6d31362d323120312032322031203120312d3234203120347631366c322034762d32386c2d3220312d3120332d312d352d3220352d322d352d322035203220323420322d323476315a6d2d3136203133762d326c3220322d322031762d315a6d3320342d312d3620312d3768326c3120313920312d36762d31366c3220327632306c312d3120312d32342d322d342d3120372d312d36682d356c2d332032763137683276396832762d365a6d2d352d38762d31356c2d3220317632326c3120366831762d31355a6d2d342d3132762d32682d326c2d312032352032203320312d3234762d325a6d2d34203132762d31356c2d3220317632386832762d31355a6d2d382030762d3168316c312033682d32762d325a6d31203676356c3120336832762d3238682d356c2d312032332032203520312d313276345a6d3238203135682d3176316831762d315a6d2d31362030682d3176316831762d315a6d31382032682d3176316831762d315a6d2d322030682d3176316831762d315a6d2d322030682d3176316831762d315a6d382032682d3176316831762d315a6d2d332030682d3620382d325a6d2d372030682d3176316831762d315a6d2d342030682d392031322d335a6d2d313020302d312d312d31203268336c2d312d315a6d342031302d312d322d322033682d316c2d332d332d372d34682d396c2d362d36682d386c2d3220324838366c2d312d33682d36762d33386c352d3268396c352d366831346c35203568346c372d376833376c34203476346831337633336c2d3420357633682d327636682d313176316c2d372034682d336c2d322031682d386c2d322d312d312033682d326c2d312d325a22207374796c653d2266696c6c3a222f3e3c7061746820643d224d3133342031303668317631682d31762d315a6d33302032762d33682d33376c32203220312d312d34203420322d33682d316c2d342034683431762d335a6d2d36362031762d316c322033683131762d336c322033762d344839386c2d3320346833762d315a6d37332036762d31682d3576326835762d315a6d35203068317631682d31762d315a6d2d33203068317631682d31762d315a6d372d31762d32682d3876356838762d325a6d2d3839203268317631682d31762d315a6d2d33203068317631682d31762d315a6d31362030762d326c3120356837762d336838762d346c32203320322d322d312d314838376c2d33203220322d332d34203376326c322d317634683139762d3268315a6d2d323120352d312d3176336c322d312d312d315a6d302033682d3176316831762d315a6d302033682d3176316831762d315a6d393420302d312d31203320317631682d32762d315a6d332034762d316c2d312d36682d34763868346c312d315a6d2d36312d34762d3130682d36763568327631356c342031762d31315a6d35332031762d313020323168356c332d35762d316c2d362d312d312d3620322d336835762d35682d366c2d372d3176323268346c312d31305a6d2d36362d33682d3176316831762d315a6d2d31362032682d3176316831762d315a6d32302033762d326c2d31203420312d31762d315a6d2d382034682d3176316831762d315a6d2d342d3220312d312d342032762d36682d3476326c322d3176346c31203320342d335a6d313320322d312d3176336c322d312d312d315a6d2d3420312d322d3120342d312d312d362031203120332d322d322d322d3120322d36203120322d332d3220327632682d3376346c332d31763468352d325a6d322032762d316c2d34203176316834762d315a6d2d372030762d31682d336c31203268316c312d315a6d2d31352d37762d396832346c3120347631336c2d32352031762d395a6d32362038762d31356c2d312d334838346c3220312d31203137203320326832346c312d325a6d2d33302031682d3176316831762d315a6d37332d323568317631682d31762d315a6d2d323320306832332d333120385a6d333220323920312d32762d32356c2d382d3268376c2d312d32682d343076336c2d3420317632356c3320336834316c312d315a6d362d3168317631682d31762d315a6d34203020332d32682d3131763568356c332d335a6d2d35362030762d33682d356c2d3220342d3320312031302031762d335a6d2d31322032682d382031302d325a6d2d31332030682d35762d336c2d3320332d312d316832762d326c2d322d3176356c31342d31682d355a6d37322030762d326c2d3420346834762d325a6d2d392031682d31342031392d355a6d2d31372030682d382031312d335a6d2d31302030682d3620382d325a6d2d382d312d312d31682d316c332035762d326c2d312d325a6d333220362d312d312d31203268336c2d312d315a6d2d31372d312d312d3176336c322d312d312d315a6d2d34382031682d3176316831762d315a6d34322031682d3176316831762d315a6d2d31342030682d3176316831762d315a6d322031682d3176316831762d315a6d31362031762d316c2d322d3376356c2d3320316835762d315a6d3237203268326c2d312d33682d356c31203520312d3268325a6d2d31332d3268317631682d31762d315a6d2d32203068317631682d31762d315a6d32203268316c332031682d356c312d315a6d2d37203068362d3820325a6d313320312d322d316834762d33682d323176356c32322d31682d335a6d2d323420362d332d322d312d32682d31316c2d362d36682d396c2d3120324838366c2d312d33682d36762d33386c352d3268396c352d366831346c35203568346c372d376833376c34203476346831327633336c2d3420347634682d327635682d386c2d372035682d356c2d312032682d31306c2d312d322d3220332d342d322d3120322d312d312d342d325a22207374796c653d2266696c6c3a222f3e3c7061746820643d224d393820313038682d3176316831762d315a6d36342031762d316c322d332d31203320312033762d36682d3676356c3520312d312d325a6d2d31362031682d3176316831762d315a6d322d3468317631682d31762d315a6d37203168317631682d31762d315a6d2d323220302d322d3168356c3320322d332d31682d335a6d2d33203268317631682d31762d315a6d3136203168316c3620312d322d32203420326832762d36682d32366c2d3520362032302d315a6d2d33332d312d312d3176336c322d312d312d315a6d2d36203068317631682d31762d315a6d2d3520312d312d312031302032762d3448393976346833762d315a6d363220322d312d3176336c322d312d312d315a6d31362031762d31682d38763368396c2d312d315a6d2d3130203168312d346c2d31203220332d3120312d315a6d2d38372031682d3176316831762d315a6d39362031682d3720392d325a6d2d37322d3168317631682d31762d315a6d352032762d31682d336c362d32203120316834762d33682d3136763368336c2d33203176336838762d325a6d2d392030762d31682d396c2d3320317632683132762d325a6d2d31322030762d31682d327632682d326c312d322d332d31683138762d334838356c2d31203768366c312d325a6d2d362033682d3176316831762d315a6d39332035762d31682d3276326832762d315a6d2d312033762d316c2d322031203120326831762d325a6d2d31312d38762d342031342d31305a6d31302031762d316c2d332d3168336c332033682d33762d315a6d2d31203320312d316834762d35682d386c3120313520312d3820312d315a6d3420313120312d312d3220322d332d332d33203220332d312031203368326c312d315a6d2d3131203068317631682d31762d315a6d332d38762d3130682d347632306c3320316831762d31315a6d2d35342d37762d316c322032682d336c312d315a6d302034762d316c322032682d336c312d315a6d302031322d312d316833762d38682d326c322d33762d37682d36763468327631376c322d325a6d35392032682d3176316831762d315a6d2d36302031682d3176316831762d315a6d2d31352d3131682d3176316831762d315a6d2d362032762d31682d32763268316c312d315a6d31302031762d316c322032682d336c312d315a6d32203020312d312d312d32682d326c2d3320322033203368316c312d325a6d322035682d3176316831762d315a6d2d32322d36762d396832346c3120347631336c2d32352031762d395a6d32362038762d31356c2d312d334838386c2d3320327631356c3320336832346c312d325a6d363120332d322d3176326832762d315a6d2d35372030682d3176316831762d315a6d353320312d312d3120332d31682d356c33203368316c2d312d315a6d2d31372d323568317631682d31762d315a6d2d3231203131762d326c3220322d322031762d315a6d32322030762d336c3120332d312032762d325a6d2d32322034762d326c3220322d322031762d315a6d31372031762d326c3220322d322031762d315a6d2d382030762d3420372d335a6d31372033762d336c3120332d312032762d325a6d332d31762d3520392d345a6d2d3135203668317631682d31762d315a6d2d323020312032203120312d31387631326c32203720312d3120312d382031203868326c312d323176323168336c312d372031203768376c312d362031203720322d3120312d3133203120313220322031762d356c33203520312d3376326c332032762d3239682d32366c2d3120332d312d33682d366c2d322033762d33682d356c2d312032362032203320312d3268315a6d2d31322030762d326c2d31203420312d31762d315a6d2d323820322d322d32203120336831762d315a6d3830203120312d32682d316c2d34203368336c312d315a6d2d392030682d31342031392d355a6d2d31362030682d3620382d325a6d2d3720302d312d312d31203268336c2d312d315a6d2d342030682d3620382d325a6d2d382d312d312d312d312031203120326831762d325a6d33312036682d3176316831762d315a6d2d31362030682d3176316831762d315a6d3234203268312d3476336c322d3268315a6d2d39203168317631682d31762d315a6d352030762d31682d376c312032682d316c2d312d332d3120346839762d325a6d2d3134203068316c332031682d366c322d315a6d342030762d31682d31316c3420312d3420326831326c2d312d325a6d2d31322030762d31682d3276336832762d325a6d342031312d312d322d3220332d392d36762d31682d31316c2d362d36682d386c2d3220324838366c2d312d33682d36762d33386c362d3268386c352d366831346c35203568346c372d376833376c34203476346831337633346c2d3420347633682d327636682d313176326c2d362032682d346c2d3120322d3920312d322d322d322033682d316c2d312d325a22207374796c653d2266696c6c3a222f3e3c7061746820643d226d313336203130352d312d312d31203268336c2d312d315a6d2d3320302d312d312d31203268336c2d312d315a6d3234203068312d3976326c372d3120312d315a6d2d392030682d313176326c31312d31762d315a6d392033682d3176316831762d315a6d2d34362030762d31682d3976326839762d315a6d2d31302030762d31682d3276326832762d315a6d36322d3120312032762d34682d3676326c322d3176346c332d3576325a6d2d323620322d322d312d3120326833762d315a6d32322030762d326c2d31203420322d312d312d325a6d2d362031762d31682d336c31203268316c312d315a6d2d32322d31682d312033762d326c2d3420312d3320326835762d315a6d2d31382031682d3176316831762d315a6d363720332d312d31682d3776336838762d325a6d2d36302030762d31682d3576336835762d325a6d2d362030762d31682d31307633683130762d325a6d2d31312030762d314838386c2d3320317632683138762d325a6d37322033682d3176316831762d315a6d2d38352030682d3176316831762d315a6d3720312d322d32203120336831762d315a6d2d332030682d3176316831762d315a6d2d322030682d3176316831762d315a6d38372031682d3720392d325a6d2d36302030762d31682d3676326836762d315a6d2d313320302d312d3220362033762d33682d366c2d31203368336c2d312d325a6d2d31392d31762d31682d336c3220312d3220326833762d325a6d383320326831762d32682d346c31203420312d3268315a6d2d38352031682d3176316831762d315a6d393320352d312d312d31203268336c2d312d315a6d2d36302031762d31682d32763268316c312d315a6d34382d36762d342031342d31305a6d2d37322039682d3176316831762d315a6d31312032762d316c322032682d336c312d315a6d32203020312d312d312d32682d326c2d3320322033203368316c312d325a6d36312035682d3176316831762d315a6d2d38312d36762d38682d317631366831762d385a6d3235203920312d32762d31356c2d332d324838386c32342031203120337631346c2d34203268336c312d325a6d2d352030682d3520362d315a6d2d313020304838376831332d335a6d35362d323268317631682d31762d315a6d2d3231203131762d326c3220322d322031762d315a6d32322030762d336c3120332d312032762d325a6d2d32322034762d326c3220322d322031762d315a6d31372031762d326c3220322d322031762d315a6d2d382030762d3420372d335a6d31372033762d336c3120332d312032762d325a6d332d31762d3520392d345a6d2d3135203668317631682d31762d315a6d2d323020312032203120312d31387631326c32203720312d3120312d382031203868326c312d323176323168336c312d372031203768376c312d362031203720322d3120312d3133203120313220322031762d356c33203520312d3376326c332032762d3239682d32366c2d3120332d312d33682d366c2d322033762d33682d356c2d312032362032203320312d3268315a6d32372038682d3176316831762d315a6d2d31362030682d3176316831762d315a6d31382032682d3176316831762d315a6d2d322030682d3176316831762d315a6d2d322030682d3176316831762d315a6d382032682d3176316831762d315a6d2d332030682d3620382d325a6d2d372030682d3176316831762d315a6d2d342030682d392031322d335a6d2d313020302d312d312d31203268336c2d312d315a6d342031302d312d322d322033682d316c2d332d332d372d34682d396c2d362d36682d386c2d3220324838366c2d312d33682d36762d33386c352d3268396c352d366831346c35203568346c372d376833376c34203476346831337633336c2d3420357633682d327636682d313176316c2d372034682d336c2d322031682d386c2d322d312d312033682d326c2d312d325a22207374796c653d2266696c6c3a222f3e3c7061746820643d226d313336203130352d312d312d31203268336c2d312d315a6d2d332030682d3176316831762d315a6d323620302d312d3176336c322d312d312d315a6d2d33203068312d386c31203220362d325a6d2d382031762d31682d31316c36203168355a6d31362031762d32682d3476326c332d3276346831762d325a6d2d33312031682d3176316831762d315a6d2d32322030762d31682d3976326839762d315a6d2d31302030762d31682d3276326832762d315a6d36302031682d3176316831762d315a6d2d31302030682d3176316831762d315a6d2d32302030762d31682d336c2d31203268336c312d315a6d34382034762d31682d376c31203220342d31763268316c312d325a6d2d3631203068317631682d31762d315a6d322030762d31682d3576336835762d325a6d2d362030762d326c2d3920312d3120322031302031762d325a6d2d31312030762d314838386c2d3320317632683138762d325a6d2d313620332d312d312d31203268336c2d312d315a6d323120302d312d3176336c322d312d312d315a6d2d322031762d31682d316c2d31203268316c312d315a6d2d392030682d3176316831762d315a6d2d352030682d3176316831762d315a6d38372031682d3720392d325a6d2d382030762d31682d3376326833762d315a6d2d35322030762d31682d3676326836762d315a6d2d382030682d3176316831762d315a6d2d32362030682d3176316831762d315a6d302032682d3176316831762d315a6d39322035682d3176316831762d315a6d2d353920302d312d312d31203268336c2d312d315a6d2d31322035762d31682d3276326832762d315a6d2d31392030762d38682d317631366831762d385a6d32362030762d386c2d332d324838386c32342031203120347631336c312d31762d375a6d2d372039682d3176316831762d315a6d2d322030682d3176316831762d315a6d2d3520302d312d312d31203268336c2d312d315a6d2d3320302d312d312d32203268346c2d312d315a6d2d342030682d3520362d315a6d34382d3131762d3132682d327632366c322d31762d31335a6d2d31332d36762d382032382d32315a6d33372d31762d372032392d32325a6d2d342030762d372032392d32325a6d2d342030762d372032396c322d31342d322d385a6d2d342030762d372032396c312d31342d312d385a6d2d3320302d312d377632396c312d3135762d375a6d2d3420302d312d377632396c312d3135762d375a6d2d31302030762d372032392d32325a6d2d332037762d3132682d327632376c312d3220312d31335a6d2d382d35762d382032382d32315a6d3133203237682d3176316831762d315a6d32322034682d3176316831762d315a6d2d332030682d3620382d325a6d2d372030682d3176316831762d315a6d2d342030682d392031322d335a6d2d313020302d312d312d31203268336c2d312d315a6d342031302d312d322d322033682d316c2d332d332d372d34682d396c2d362d36682d386c2d3220324838366c2d312d33682d36762d33386c352d3268396c352d366831346c35203568346c372d376833376c34203476346831337633336c2d3420357633682d327636682d313176316c2d372034682d336c2d322031682d386c2d322d312d312033682d326c2d312d325a22207374796c653d2266696c6c3a222f3e3c7061746820643d224d3135352031313168317631682d31762d315a6d2d35203068317631682d31762d315a6d2d32203068317631682d31762d315a6d2d3131203068317631682d31762d315a6d34332034762d326c3220322d322031762d315a6d2d3132203168317631682d31762d315a6d2d3530203068317631682d31762d315a6d2d33203068317631682d31762d315a6d2d32203068317631682d31762d315a6d2d3232203068317631682d31762d315a6d2d33203068317631682d31762d315a6d3930203168317631682d31762d315a6d2d33203068317631682d31762d315a6d2d332d312d312d32682d346c312d362d352d34682d33346c2d3820382d342d312d372d354839386c2d3120322d34203320352d366831346c35203568346c372d376833376c3520352d3220322032203320322d3120312036682d31762d325a6d2d3630203468317631682d31762d315a6d3632203668317631682d31762d315a6d2d37302030762d316c322032682d336c312d315a6d2d39203168317631682d31762d315a6d2d342030762d3168316c2d312032682d316c312d315a6d2d3132203068317631682d31762d315a6d3939203568317631682d31762d315a6d2d3320302d312d31203320317631682d32762d315a6d2d3638203120322d312d312d3768317639682d336c312d315a6d2d3720302d312d3220312d342031203776316c2d312d325a6d2d392030762d356c3220327634682d336c312d315a6d31312031762d326c3220332d322031762d325a6d2d342031762d326c3220322d322031762d315a6d382031762d316c322032682d336c312d315a6d3131203268317631682d31762d315a6d2d3136203068362d3820325a6d2d31342d38762d386832357631336c2d312d31762d31316c2d37203220312d322d3520312d322032762d33682d396c2d312031356831316c2d31322031762d395a6d2d34203868317631682d31762d315a6d38392d39762d31312032322d31315a6d2d3539203130762d316c322032682d336c312d315a6d3431203968316c332031682d356c312d315a6d2d37203068352d3720325a6d2d36203068316c332031682d356c312d315a6d2d33203068317631682d31762d315a6d2d3132203068317631682d31762d315a6d39203168317631682d31762d315a6d3430203168317631682d31762d315a6d2d323320312d312d32203220327631682d31762d325a6d2d3337203168317631682d31762d315a6d3539203368317631682d31762d315a6d2d34342d32762d3420372d335a6d3237203468317631682d31762d315a6d32322d3133762d31682d316c2d3120326832762d315a6d2d3420332d312d312d31203268336c2d312d315a6d2d31372031342d312d31762d326c32203320352d34762d346c2d322d3120322d33682d366c312d316831326c392d3820312d32337632336c2d322031203320322d372036682d32763368327632682d33762d35682d3576326c2d322d322031203720312d3576366c2d3820352d312d315a6d2d33203068317631682d31762d315a6d2d34352d31312d312d31682d3676326837762d315a6d2d39203120322d332d3130203176326c2d312d32682d3576346831326c322d335a6d333020382d322d32203120336831762d315a6d32322034762d31682d33763268326c312d315a6d2d362030762d31682d336c31203268316c312d315a6d2d3920302d322d312d372d312d322d33682d31316c2d362d36682d396c2d3120324838366c2d312d33682d36762d366c332d31312d332d3220322d31762d376c2d32203120322d382d322d3220352d34203120312d3320322031203333682d33763368336c322d326833386c322031682d313476326c3620366831336c34203368323076326c2d322032682d386c2d322d32682d336c31203220322d317632682d326c2d322d325a6d2d3420312d312d3168326c312032682d32762d315a22207374796c653d2266696c6c3a222f3e3c7061746820643d224d31333920313635762d316c2d3420312d332d33682d326c2d342d34682d31306c2d362d36682d386c2d322032483835762d33682d36762d33386c352d3368396c352d356831346c36203568336c372d386833366c35203476356831327633336c2d3420357633682d327636682d386c2d3720337632682d356c2d322031682d386c2d322d327634682d33762d315a22207374796c653d2266696c6c3a3c7061746820643d224d31313120313230682d3520362d315a6d2d3720302d312d312d32203268346c2d312d315a6d2d342030682d3176316831762d315a6d2d322030682d326c2d32203168356c2d312d315a6d2d382030682d3176316831762d315a6d2d322030682d3176316831762d315a6d3531203435762d316c2d3420312d332d33682d326c2d342d34682d31306c2d362d36682d386c2d322032483835762d33682d36762d33386c352d3368396c352d356831346c36203568336c372d386833366c35203476356831327633336c2d3420357633682d327636682d386c2d3720337632682d356c2d322031682d386c2d322d327634682d33762d315a22207374796c653d2266696c6c3a222f3e3c7061746820643d224d393820313038682d3176316831762d315a6d36342031762d316c322d332d31203320312033762d36682d3676356c3520312d312d325a6d2d31362031682d3176316831762d315a6d322d3468317631682d31762d315a6d37203168317631682d31762d315a6d2d323220302d322d3168356c3320322d332d31682d335a6d2d33203268317631682d31762d315a6d3136203168316c3620312d322d32203420326832762d36682d32366c2d3520362032302d315a6d2d33332d312d312d3176336c322d312d312d315a6d2d36203068317631682d31762d315a6d2d3520312d312d312031302032762d3448393976346833762d315a6d363220322d312d3176336c322d312d312d315a6d31362031762d31682d38763368396c2d312d315a6d2d39372032682d3176316831762d315a6d39362031682d3720392d325a6d2d37322d3168317631682d31762d315a6d352032762d31682d336c362d32203120316834762d33682d3136763368336c2d33203176336838762d325a6d2d392030762d31682d396c2d3320317632683132762d325a6d2d31322030762d31682d327632682d326c312d322d332d31683138762d334838356c2d31203768366c312d325a6d2d362033682d3176316831762d315a6d39332035762d31682d3276326832762d315a6d2d312033762d316c2d322031203120326831762d325a6d2d312d37762d316c2d332d3168336c332033682d33762d315a6d2d31203320312d316834762d35682d386c3120313520312d3820312d315a6d3420313120312d312d3220322d332d332d33203220332d312031203368326c312d315a6d2d3131203068317631682d31762d315a6d332d38762d3130682d347632306c3320316831762d31315a6d2d35342d37762d316c322032682d336c312d315a6d302034762d316c322032682d336c312d315a6d302031322d312d316833762d38682d326c322d33762d37682d36763468327631376c322d325a6d35392032682d3176316831762d315a6d2d36302031682d3176316831762d315a6d2d31352d3131682d3176316831762d315a6d2d362032762d31682d32763268316c312d315a6d3133203120312d322d342d322d3320332031203368346c312d325a6d312035682d3176316831762d315a6d2d32322d36762d396832346c3120347631336c2d32352031762d395a6d32362038762d31356c2d312d334838386c2d3320327631356c3320336832346c312d325a6d363120332d322d3176326832762d315a6d2d35372030682d3176316831762d315a6d353320312d312d3120332d31682d356c33203368316c2d312d315a6d2d35362030762d326c2d31203420312d31762d315a6d2d323820322d322d32203120336831762d315a6d3830203120312d32682d316c2d34203368336c312d315a6d2d392030682d31342031392d355a6d2d31362030682d3620382d325a6d2d3720302d312d312d31203268336c2d312d315a6d2d342030682d3620382d325a6d33342d313268317631682d31762d315a6d30203368317631682d31762d315a6d302033762d326c3220332d322031762d325a6d2d343220352d312d31203432203120332d3320312d323668326c322d31682d336c2d342033762d32682d34316c2d332033203120323676326831762d325a6d33312036682d3176316831762d315a6d2d31362030682d3176316831762d315a6d3234203268312d3476336c322d3268315a6d2d39203168317631682d31762d315a6d352030762d31682d376c312032682d316c2d312d332d3120346839762d325a6d2d3134203068316c332031682d366c322d315a6d342030762d31682d31316c3420312d3420326831326c2d312d325a6d2d31322030762d31682d3276336832762d325a6d342031312d312d322d3220332d392d36762d31682d31316c2d362d36682d386c2d3220324838366c2d312d33682d36762d33386c362d3268386c352d366831346c35203568346c372d376833376c34203476346831337633346c2d3420347633682d327636682d313176326c2d362032682d346c2d3120322d3920312d322d322d322033682d316c2d312d325a22207374796c653d2266696c6c3a222f3e3c7061746820643d226d313336203130352d312d312d31203268336c2d312d315a6d2d332030682d3176316831762d315a6d323620302d312d3176336c322d312d312d315a6d2d33203068312d386c31203220362d325a6d2d382031762d31682d31316c36203168355a6d31362031762d32682d3476326c332d3276346831762d325a6d2d33312031682d3176316831762d315a6d2d32322030762d31682d3976326839762d315a6d2d31302030762d31682d3276326832762d315a6d36302031682d3176316831762d315a6d2d31302030682d3176316831762d315a6d2d32302030762d31682d336c2d31203268336c312d315a6d34382034762d31682d376c31203220342d31763268316c312d325a6d2d3631203068317631682d31762d315a6d322030762d31682d3576336835762d325a6d2d362030762d326c2d3920312d3120322031302031762d325a6d2d31312030762d314838386c2d3320317632683138762d325a6d2d313620332d312d312d31203268336c2d312d315a6d323120302d312d3176336c322d312d312d315a6d2d322031762d31682d316c2d31203268316c312d315a6d2d392030682d3176316831762d315a6d2d352030682d3176316831762d315a6d38372031682d3720392d325a6d2d382030762d31682d3376326833762d315a6d2d35322030762d31682d3676326836762d315a6d2d382030682d3176316831762d315a6d2d32362030682d3176316831762d315a6d302032682d3176316831762d315a6d39322035682d3176316831762d315a6d2d353920302d312d312d31203268336c2d312d315a6d2d31352035682d3176316831762d315a6d342d312d312d31682d3276326c33203168316c2d312d325a6d33352037682d3176316831762d315a6d2d35352d36762d38682d317631366831762d385a6d32362030762d386c2d332d324838386c32342031203120347631336c312d31762d375a6d32392039682d3176316831762d315a6d2d33362030682d3176316831762d315a6d2d322030682d3176316831762d315a6d2d3520302d312d312d31203268336c2d312d315a6d2d3320302d312d312d32203268346c2d312d315a6d2d342030682d3520362d315a6d35302032682d3176316831762d315a6d3138203176316d332d3220312032762d32386c2d33203176336c2d312d352d3220352d322d352d32203520322032346d2d31342d3130762d326c3220322d322031762d315a6d3320342d312d3620312d3768326c3120313920312d36762d31366c3220327632306c312d3120312d32342d322d342d3120372d312d36682d356c2d332032763137683276396832762d365a6d2d352d38762d31356c2d3220317632326c3120366831762d31355a6d2d342d3132762d32682d326c2d312032352032203320312d3234762d325a6d2d34203132762d31356c2d3220317632386832762d31355a6d2d382030762d3168316c312033682d32762d325a6d31203676356c3120336832762d3238682d356c2d312032332032203520312d313276345a6d3132203135682d3176316831762d315a6d32322034682d3176316831762d315a6d2d332030682d3620382d325a6d2d372030682d3176316831762d315a6d2d342030682d392031322d335a6d2d313020302d312d312d31203268336c2d312d315a6d342031302d312d322d322033682d316c2d332d332d372d34682d396c2d362d36682d386c2d3220324838366c2d312d33682d36762d33386c352d3268396c352d366831346c35203568346c372d376833376c34203476346831337633336c2d3420357633682d327636682d313176316c2d372034682d336c2d322031682d386c2d322d312d312033682d326c2d312d325a22207374796c653d2266696c6c3a222f3e3c7061746820643d224d31313120313230682d3520362d315a6d2d3720302d312d312d32203268346c2d312d315a6d2d342030682d3176316831762d315a6d2d322030682d326c2d32203168356c2d312d315a6d2d382030682d3176316831762d315a6d2d322030682d3176316831762d315a6d3138203130762d31682d3276326832762d315a6d36332031322d312d32372d343820317632366c323020332032392d335a6d2d3330203233762d316c2d3420312d332d33682d326c2d342d34682d31306c2d362d36682d386c2d322032483835762d33682d36762d33386c352d3368396c352d356831346c36203568336c372d386833366c35203476356831327633336c2d3420357633682d327636682d386c2d3720337632682d356c2d322031682d386c2d322d327634682d33762d315a22207374796c653d2266696c6c3a222f3e3c7061746820643d226d39362031313120322d3120312d3276336c31352d31203220324839356c312d315a6d3634203368316c332031682d366c322d315a6d2d34203068317631682d31762d315a6d2d35203068352d3720325a6d2d313320306831302d313320335a6d2d3130203068372d3920325a6d2d3235203168317631682d31762d315a6d2d3132203168317631682d31762d315a6d2d33203068317631682d31762d315a6d3235203020312d3120362031762d346c3220332d322032682d386c312d315a6d362034762d326c3220322d322031762d315a6d30203368317631682d31762d315a6d312035762d336c3120342d312032762d335a6d34372d3139762d32682d3276346832762d325a6d2d332d32762d33682d33356c2d3620357632683431762d335a6d362035682d3176316831762d315a6d33203368317631682d31762d315a6d372d31762d32682d3876356838762d325a6d2d39372034682d3176316831762d315a6d31382038762d31682d32763268316c312d315a6d3735203068317631682d31762d315a6d34203420312d312d322d35682d34763868346c312d325a6d2d37312d332d312d32203220327631682d31762d325a6d322d31762d31682d386c2d31203220342d322033203376346c322d35762d315a6d2d32203131762d31682d37762d336c2d322032762d326c322d32203220332d31203268356c2d332d3220332d312d31203220322d312d312d362d332d312d3320312d312d312d3220367635683130762d315a6d2d31342d31302d312d31203320317632682d316c2d312d325a6d332037762d32682d336c332d31762d356c2d332d312d34203276326c322d3176336c31203320322032682d34762d316c2d33203120332d342d322d3520332d32682d336c2d312031312032203220372d31762d325a6d2d31352d3130762d352031392d31345a6d30203135762d3120356c312d322d312d315a6d3931203368317631682d31762d315a6d2d32203420312d312d312d3168336c352d36762d356c2d362d312d312d3620332d336835762d35682d376c2d362d317632326834762d32316c3120323168366c2d31322031763868346c312d325a6d2d34392030762d316c2d332d3376366833762d325a6d2d31392d36762d316c322032682d336c312d315a6d2d33203068317631682d31762d315a6d302033762d3168366c2d332032682d33762d315a6d2d392d31762d316c372d317634682d32762d32682d346c332032682d336c2d312d325a6d2d332030762d326c2d3120322d332d3220322d322031203268326c312034682d32762d325a6d2d33203168317631682d31762d315a6d32372033762d326c3220327631682d32762d325a6d2d32203068317631682d31762d315a6d2d3230203068317631682d31762d315a6d2d3520302d312d3168336c312032682d33762d315a6d31322030762d326c3120346839762d3768326c2d312037683130762d39682d346c2d332032762d336c2d32352031762d31386832346c3120327631336c2d312d342d322032203120336833762d31346c2d312d342d32382031203220312d3120317631396c2d32203420342032683131762d315a6d32342033682d3176316831762d315a6d333320312d312d312d32203268346c2d312d315a6d2d342030682d3176316831762d315a6d2d322030682d3176316831762d315a6d2d332030682d3720392d325a6d2d392d312d312d3176336c322d312d312d315a6d2d32332031682d3176316831762d315a6d2d322030682d3176316831762d315a6d2d31362d312d312d3176336c322d312d312d315a6d2d352031682d3176316831762d315a6d2d322030682d3176316831762d315a6d38332032762d316c2d352d3176336835762d315a6d2d34332d31762d326c2d31203420322d312d312d315a6d2d322031762d316c2d31302d312d312031203120322031302031762d325a6d34322033682d3176316831762d315a6d2d343920302d312d312d31203268336c2d312d315a6d33382d31762d326c31203568356c2d352d326835762d326c2d332d31682d32357635683231762d3268315a6d2d33342032762d31682d316c2d31203268316c312d315a6d382d3368317631682d31762d315a6d3020332d312d32203320336831762d38682d3276336c2d312d32682d3276386832762d325a6d2d3120362d332d322d312d32682d31316c2d342d3420312d322d31312d312d3220334838366c2d312d33682d36762d33376c352d33683176326c2d332d3176356c322d3376356831396c312d33763368396c32203576313368346c312d367631306c3320336831326c2d31312031763368376c312d337633683130762d336c3320332031362d3120312d3276336834762d366c2d3220332d32392d316832396c322d33762d32356c2d322d3120372031762d32682d356c312d32682d343376336c2d312d33682d366c2d352d354839386c2d3520352d372d3168376c352d366831346c35203568346c372d376833376c34203476346831327633346c2d34203276346c2d3220317635682d386c2d372035682d356c2d312032682d31306c2d312d322d3220332d342d322d3120322d312d312d342d325a22207374796c653d2266696c6c3aa26469706673582212208a74d97defd3d7179fae4cc2bab83c682617a61dcf8de16e6ac410a534dd8fa064736f6c634300081c0033",
  "linkReferences": {},
  "deployedLinkReferences": {}
}