{
  "_format": "hh-sol-artifact-1",
  "contractName": "RenderMetadata",
  "sourceName": "contracts/RenderMetadata.sol",
  "abi": [
    {
      "inputs": [
        {
          "internalType": "address",
          "name": "_imageRenderer",
          "type": "address"
        }
      ],
      "stateMutability": "nonpayable",
      "type": "constructor"
    },
    {
      "inputs": [],
      "name": "imageRenderer",
      "outputs": [
        {
          "internalType": "contract ImageRenderer",
          "name": "",
          "type": "address"
        }
      ],
      "stateMutability": "view",
      "type": "function"
    },
    {
      "inputs": [
        {
          "components": [
            {
              "internalType": "string",
              "name": "name",
              "type": "string"
            },
            {
              "internalType": "uint256",
              "name": "id",
              "type": "uint256"
            },
            {
              "components": [
                {
                  "internalType": "enum MainWeapon",
                  "name": "mainWeapon",
                  "type": "uint8"
                },
                {
                  "internalType": "enum Armor",
                  "name": "armor",
                  "type": "uint8"
                },
                {
                  "internalType": "enum Shields",
                  "name": "shields",
                  "type": "uint8"
                },
                {
                  "internalType": "enum Special",
                  "name": "special",
                  "type": "uint8"
                }
              ],
              "internalType": "struct Equipment",
              "name": "equipment",
              "type": "tuple"
            },
            {
              "components": [
                {
                  "internalType": "uint256",
                  "name": "serialNumber",
                  "type": "uint256"
                },
                {
                  "internalType": "uint8",
                  "name": "r1",
                  "type": "uint8"
                },
                {
                  "internalType": "uint8",
                  "name": "g1",
                  "type": "uint8"
                },
                {
                  "internalType": "uint8",
                  "name": "b1",
                  "type": "uint8"
                },
                {
                  "internalType": "uint8",
                  "name": "r2",
                  "type": "uint8"
                },
                {
                  "internalType": "uint8",
                  "name": "g2",
                  "type": "uint8"
                },
                {
                  "internalType": "uint8",
                  "name": "b2",
                  "type": "uint8"
                },
                {
                  "internalType": "uint8",
                  "name": "variant",
                  "type": "uint8"
                },
                {
                  "internalType": "uint8",
                  "name": "accuracy",
                  "type": "uint8"
                },
                {
                  "internalType": "uint8",
                  "name": "hull",
                  "type": "uint8"
                },
                {
                  "internalType": "uint8",
                  "name": "speed",
                  "type": "uint8"
                }
              ],
              "internalType": "struct Traits",
              "name": "traits",
              "type": "tuple"
            },
            {
              "components": [
                {
                  "internalType": "uint256",
                  "name": "gameId",
                  "type": "uint256"
                },
                {
                  "components": [
                    {
                      "internalType": "uint8",
                      "name": "version",
                      "type": "uint8"
                    },
                    {
                      "internalType": "uint8",
                      "name": "range",
                      "type": "uint8"
                    },
                    {
                      "internalType": "uint8",
                      "name": "gunDamage",
                      "type": "uint8"
                    },
                    {
                      "internalType": "uint8",
                      "name": "hullPoints",
                      "type": "uint8"
                    },
                    {
                      "internalType": "uint8",
                      "name": "movement",
                      "type": "uint8"
                    },
                    {
                      "internalType": "uint8[]",
                      "name": "statusEffects",
                      "type": "uint8[]"
                    }
                  ],
                  "internalType": "struct Attributes",
                  "name": "attributes",
                  "type": "tuple"
                },
                {
                  "internalType": "uint8",
                  "name": "damageTaken",
                  "type": "uint8"
                },
                {
                  "internalType": "bool",
                  "name": "inLobby",
                  "type": "bool"
                },
                {
                  "internalType": "bool",
                  "name": "movedThisTurn",
                  "type": "bool"
                },
                {
                  "internalType": "bool",
                  "name": "firedThisTurn",
                  "type": "bool"
                }
              ],
              "internalType": "struct GameData",
              "name": "gameData",
              "type": "tuple"
            },
            {
              "components": [
                {
                  "internalType": "uint32",
                  "name": "shipsDestroyed",
                  "type": "uint32"
                },
                {
                  "internalType": "uint16",
                  "name": "costsVersion",
                  "type": "uint16"
                },
                {
                  "internalType": "uint16",
                  "name": "cost",
                  "type": "uint16"
                },
                {
                  "internalType": "bool",
                  "name": "shiny",
                  "type": "bool"
                },
                {
                  "internalType": "bool",
                  "name": "constructed",
                  "type": "bool"
                },
                {
                  "internalType": "bool",
                  "name": "inFleet",
                  "type": "bool"
                },
                {
                  "internalType": "uint256",
                  "name": "timestampDestroyed",
                  "type": "uint256"
                }
              ],
              "internalType": "struct ShipData",
              "name": "shipData",
              "type": "tuple"
            },
            {
              "internalType": "address",
              "name": "owner",
              "type": "address"
            }
          ],
          "internalType": "struct Ship",
          "name": "ship",
          "type": "tuple"
        }
      ],
      "name": "tokenURI",
      "outputs": [
        {
          "internalType": "string",
          "name": "",
          "type": "string"
        }
      ],
      "stateMutability": "view",
      "type": "function"
    }
  ],
  "bytecode": "0x60a0604052348015600f57600080fd5b50604051611c67380380611c67833981016040819052602c91603c565b6001600160a01b0316608052606a565b600060208284031215604d57600080fd5b81516001600160a01b0381168114606357600080fd5b9392505050565b608051611bdc61008b60003960008181606901526101030152611bdc6000f3fe608060405234801561001057600080fd5b50600436106100365760003560e01c806377842e721461003b578063c550ca5d14610064575b600080fd5b61004e610049366004610ff2565b6100a3565b60405161005b9190611131565b60405180910390f35b61008b7f000000000000000000000000000000000000000000000000000000000000000081565b6040516001600160a01b03909116815260200161005b565b606081602001516000036100e95760405162461bcd60e51b8152602060048201526009602482015268125b9d985b1a59125960ba1b604482015260640160405180910390fd5b604051631e853eab60e21b81526000906001600160a01b037f00000000000000000000000000000000000000000000000000000000000000001690637a14faac906101389086906004016113b6565b600060405180830381865afa158015610155573d6000803e3d6000fd5b505050506040513d6000823e601f3d908101601f1916820160405261017d919081019061148d565b90506000836000015161019385602001516101f8565b61019c8661028b565b846040516020016101b0949392919061151f565b604051602081830303815290604052905060006101cc826102d0565b9050806040516020016101df9190611691565b6040516020818303038152906040529350505050919050565b60606000610205836102fc565b60010190506000816001600160401b0381111561022457610224610ad5565b6040519080825280601f01601f19166020018201604052801561024e576020820181803683370190505b5090508181016020015b600019016f181899199a1a9b1b9c1cb0b131b232b360811b600a86061a8153600a8504945084610258575b509392505050565b6060610296826103d4565b61029f8361044b565b6102a8846104d7565b6040516020016102ba939291906116d6565b6040516020818303038152906040529050919050565b60606102f682604051806060016040528060408152602001611b67604091396001610530565b92915050565b60008072184f03e93ff9f4daa797ed6e38ed64bf6a1f0160401b831061033b5772184f03e93ff9f4daa797ed6e38ed64bf6a1f0160401b830492506040015b6d04ee2d6d415b85acef81000000008310610367576d04ee2d6d415b85acef8100000000830492506020015b662386f26fc10000831061038557662386f26fc10000830492506010015b6305f5e100831061039d576305f5e100830492506008015b61271083106103b157612710830492506004015b606483106103c3576064830492506002015b600a83106102f65760010192915050565b606081810151516103e4906101f8565b6103f8836060015160e0015160ff166101f8565b61040d8460600151610100015160ff166101f8565b6104228560600151610120015160ff166101f8565b6104378660600151610140015160ff166101f8565b6040516020016102ba959493929190611735565b60608160a001516060015161047d576040518060400160405280600581526020016466616c736560d81b81525061049b565b604051806040016040528060048152602001637472756560e01b8152505b60a0830151516104b09063ffffffff166101f8565b6104c58460a001516040015161ffff166101f8565b6040516020016102ba939291906118cf565b60606104ea8260400151600001516106b1565b6104fb8360400151602001516107d3565b61050c8460400151604001516108d3565b61051d8560400151606001516109db565b6040516020016102ba94939291906119c1565b6060835160000361055057506040805160208101909152600081526106aa565b600082610581576003855160046105679190611b1a565b610572906002611b31565b61057c9190611b44565b6105a6565b6003855160026105919190611b31565b61059b9190611b44565b6105a6906004611b1a565b90506000816001600160401b038111156105c2576105c2610ad5565b6040519080825280601f01601f1916602001820160405280156105ec576020820181803683370190505b50905060018501602082018788518901602081018051600082525b82841015610662576003840193508351603f8160121c168701518653600186019550603f81600c1c168701518653600186019550603f8160061c168701518653600186019550603f8116870151865350600185019450610607565b9052505085156106a3576003885106600181146106865760028114610699576106a1565b603d6001830353603d60028303536106a1565b603d60018303535b505b5090925050505b9392505050565b606060008260038111156106c7576106c7611144565b036106ed5750506040805180820190915260058152642630b9b2b960d91b602082015290565b600182600381111561070157610701611144565b036107295750506040805180820190915260078152662930b4b633bab760c91b602082015290565b600282600381111561073d5761073d611144565b0361076e57505060408051808201909152601081526f26b4b9b9b4b632902630bab731b432b960811b602082015290565b600382600381111561078257610782611144565b036107b057505060408051808201909152600d81526c283630b9b6b09021b0b73737b760991b602082015290565b50506040805180820190915260078152662ab735b737bbb760c91b602082015290565b606060008260038111156107e9576107e9611144565b0361081257505060408051808201909152600881526727379020b936b7b960c11b602082015290565b600182600381111561082657610826611144565b0361085257505060408051808201909152600b81526a2634b3b43a1020b936b7b960a91b602082015290565b600282600381111561086657610866611144565b0361089357505060408051808201909152600c81526b26b2b234bab69020b936b7b960a11b602082015290565b60038260038111156108a7576108a7611144565b036107b057505060408051808201909152600b81526a2432b0bb3c9020b936b7b960a91b602082015290565b606060008260038111156108e9576108e9611144565b0361091457505060408051808201909152600a8152694e6f20536869656c647360b01b602082015290565b600182600381111561092857610928611144565b0361095657505060408051808201909152600d81526c4c6967687420536869656c647360981b602082015290565b600282600381111561096a5761096a611144565b0361099957505060408051808201909152600e81526d4d656469756d20536869656c647360901b602082015290565b60038260038111156109ad576109ad611144565b036107b057505060408051808201909152600d81526c486561767920536869656c647360981b602082015290565b606060008260038111156109f1576109f1611144565b03610a1c57505060408051808201909152600a815269139bc814dc1958da585b60b21b602082015290565b6001826003811115610a3057610a30611144565b03610a545750506040805180820190915260038152620454d560ec1b602082015290565b6002826003811115610a6857610a68611144565b03610a9657505060408051808201909152600d81526c5265706169722044726f6e657360981b602082015290565b6003826003811115610aaa57610aaa611144565b036107b057505060408051808201909152600a815269466c616b20417272617960b01b602082015290565b634e487b7160e01b600052604160045260246000fd5b60405161016081016001600160401b0381118282101715610b0e57610b0e610ad5565b60405290565b60405160c081016001600160401b0381118282101715610b0e57610b0e610ad5565b60405160e081016001600160401b0381118282101715610b0e57610b0e610ad5565b604051601f8201601f191681016001600160401b0381118282101715610b8057610b80610ad5565b604052919050565b60006001600160401b03821115610ba157610ba1610ad5565b50601f01601f191660200190565b600082601f830112610bc057600080fd5b8135610bd3610bce82610b88565b610b58565b818152846020838601011115610be857600080fd5b816020850160208301376000918101602001919091529392505050565b60048110610c1257600080fd5b50565b600060808284031215610c2757600080fd5b604051608081016001600160401b0381118282101715610c4957610c49610ad5565b6040529050808235610c5a81610c05565b81526020830135610c6a81610c05565b60208201526040830135610c7d81610c05565b60408201526060830135610c9081610c05565b6060919091015292915050565b803560ff81168114610cae57600080fd5b919050565b60006101608284031215610cc657600080fd5b610cce610aeb565b823581529050610ce060208301610c9d565b6020820152610cf160408301610c9d565b6040820152610d0260608301610c9d565b6060820152610d1360808301610c9d565b6080820152610d2460a08301610c9d565b60a0820152610d3560c08301610c9d565b60c0820152610d4660e08301610c9d565b60e0820152610d586101008301610c9d565b610100820152610d6b6101208301610c9d565b610120820152610d7e6101408301610c9d565b61014082015292915050565b80358015158114610cae57600080fd5b600060c08284031215610dac57600080fd5b610db4610b14565b82358152905060208201356001600160401b03811115610dd357600080fd5b820160c08185031215610de557600080fd5b610ded610b14565b610df682610c9d565b8152610e0460208301610c9d565b6020820152610e1560408301610c9d565b6040820152610e2660608301610c9d565b6060820152610e3760808301610c9d565b608082015260a08201356001600160401b03811115610e5557600080fd5b80830192505084601f830112610e6a57600080fd5b81356001600160401b03811115610e8357610e83610ad5565b8060051b610e9360208201610b58565b91825260208185018101929081019088841115610eaf57600080fd5b6020860195505b83861015610ed857610ec786610c9d565b825260209586019590910190610eb6565b60a0850152505050602083015250610ef260408301610c9d565b6040820152610f0360608301610d8a565b6060820152610f1460808301610d8a565b6080820152610f2560a08301610d8a565b60a082015292915050565b803561ffff81168114610cae57600080fd5b600060e08284031215610f5457600080fd5b610f5c610b36565b9050813563ffffffff81168114610f7257600080fd5b8152610f8060208301610f30565b6020820152610f9160408301610f30565b6040820152610fa260608301610d8a565b6060820152610fb360808301610d8a565b6080820152610fc460a08301610d8a565b60a082015260c09182013591810191909152919050565b80356001600160a01b0381168114610cae57600080fd5b60006020828403121561100457600080fd5b81356001600160401b0381111561101a57600080fd5b8201610340818503121561102d57600080fd5b611035610b36565b81356001600160401b0381111561104b57600080fd5b61105786828501610baf565b825250602082810135908201526110718560408401610c15565b60408201526110838560c08401610cb3565b60608201526102208201356001600160401b038111156110a257600080fd5b6110ae86828501610d9a565b6080830152506110c2856102408401610f42565b60a08201526110d46103208301610fdb565b60c0820152949350505050565b60005b838110156110fc5781810151838201526020016110e4565b50506000910152565b6000815180845261111d8160208601602086016110e1565b601f01601f19169290920160200192915050565b6020815260006106aa6020830184611105565b634e487b7160e01b600052602160045260246000fd5b60048110610c1257634e487b7160e01b600052602160045260246000fd5b805182526020810151611190602084018260ff169052565b5060408101516111a5604084018260ff169052565b5060608101516111ba606084018260ff169052565b5060808101516111cf608084018260ff169052565b5060a08101516111e460a084018260ff169052565b5060c08101516111f960c084018260ff169052565b5060e081015161120e60e084018260ff169052565b5061010081015161122561010084018260ff169052565b5061012081015161123c61012084018260ff169052565b5061014081015161125361014084018260ff169052565b505050565b600081518084526020840193506020830160005b8281101561128d57815160ff1686526020958601959091019060010161126c565b5093949350505050565b805182526000602082015160c0602085015260ff81511660c085015260ff60208201511660e085015260ff60408201511661010085015260ff60608201511661012085015260ff60808201511661014085015260a0810151905060c0610160850152611307610180850182611258565b9050604083015161131d604086018260ff169052565b506060830151611331606086018215159052565b506080830151611345608086018215159052565b5060a083015161028360a086018215159052565b63ffffffff815116825261ffff602082015116602083015261ffff604082015116604083015260608101511515606083015260808101511515608083015260a08101516113aa60a084018215159052565b5060c090810151910152565b602081526000825161034060208401526113d4610360840182611105565b905060208401516040840152604084015180516113f08161115a565b606085015260208101516114038161115a565b608085015260408101516114168161115a565b60a0850152606001516114288161115a565b60c0840152606084015161143f60e0850182611178565b506080840151838203601f190161024085015261145c8282611297565b91505060a0840151611472610260850182611359565b5060c08401516001600160a01b038116610340850152610283565b60006020828403121561149f57600080fd5b81516001600160401b038111156114b557600080fd5b8201601f810184136114c657600080fd5b80516114d4610bce82610b88565b8181528560208385010111156114e957600080fd5b6114fa8260208301602086016110e1565b95945050505050565b600081516115158185602086016110e1565b9290920192915050565b693d913730b6b2911d101160b11b8152845160009061154581600a850160208a016110e1565b61202360f01b600a91840191820152855161156781600c840160208a016110e1565b600a818301019150507f222c226465736372697074696f6e223a20224120756e6971756520737061636560028201527f7368697020696e207468652057617270666c6f7720756e6976657273652e204560228201527f61636820736869702068617320756e69717565207472616974732c206571756960428201527f706d656e742c20616e6420737461747320746861742064657465726d696e652060628201527f697473206361706162696c697469657320696e20626174746c652e222c20226160828201526c747472696275746573223a205b60981b60a282015261168661167861167261165a60af850189611503565b6b2e961134b6b0b3b2911d101160a11b8152600c0190565b86611503565b61227d60f01b815260020190565b979650505050505050565b7f646174613a6170706c69636174696f6e2f6a736f6e3b6261736536342c0000008152600082516116c981601d8501602087016110e1565b91909101601d0192915050565b600084516116e88184602089016110e1565b600b60fa1b90830190815284516117068160018401602089016110e1565b600b60fa1b6001929091019182015283516117288160028401602088016110e1565b0160020195945050505050565b7f7b2274726169745f74797065223a202253657269616c204e756d626572222c20815269113b30b63ab2911d101160b11b60208201526000865161178081602a850160208b016110e1565b62089f4b60ea1b602a918401918201527f7b2274726169745f74797065223a202256617269616e74222c202276616c7565602d82015263111d101160e11b604d82015286516117d6816051840160208b016110e1565b602a8183010191505062089f4b60ea1b60278201526118c36118b661167261188361184661187d611854611846611840602a8a017f7b2274726169745f74797065223a20224163637572616379222c202276616c75815263032911d160e51b602082015260240190565b8e611503565b611f4b60f21b815260020190565b7f7b2274726169745f74797065223a202248756c6c222c202276616c7565223a20815260200190565b8a611503565b7f7b2274726169745f74797065223a20225370656564222c202276616c7565223a8152600160fd1b602082015260210190565b607d60f81b815260010190565b98975050505050505050565b7f7b2274726169745f74797065223a20225368696e79222c202276616c7565223a8152600160fd1b6020820152600084516119118160218501602089016110e1565b611f4b60f21b6021918401918201527f7b2274726169745f74797065223a202253686970732044657374726f7965642260238201526a01610113b30b63ab2911d160ad1b6043820152845161196d81604e8401602089016110e1565b602181830101915050611f4b60f21b602d8201527f7b2274726169745f74797065223a2022436f7374222c202276616c7565223a20602f8201526119b76118b6604f830186611503565b9695505050505050565b7f7b2274726169745f74797065223a20224d61696e20576561706f6e222c20227681526730b63ab2911d101160c11b602082015260008551611a0a816028850160208a016110e1565b62089f4b60ea1b6028918401918201527f7b2274726169745f74797065223a202241726d6f72222c202276616c7565223a602b82015261101160f11b604b8201528551611a5e81604d840160208a016110e1565b60288183010191505062089f4b60ea1b6025820152611686611678611672611ace611abf61187d602887017f7b2274726169745f74797065223a2022536869656c6473222c202276616c7565815263111d101160e11b602082015260240190565b62089f4b60ea1b815260030190565b7f7b2274726169745f74797065223a20225370656369616c222c202276616c7565815263111d101160e11b602082015260240190565b634e487b7160e01b600052601160045260246000fd5b80820281158282048414176102f6576102f6611b04565b808201808211156102f6576102f6611b04565b600082611b6157634e487b7160e01b600052601260045260246000fd5b50049056fe4142434445464748494a4b4c4d4e4f505152535455565758595a6162636465666768696a6b6c6d6e6f707172737475767778797a303132333435363738392b2fa2646970667358221220434f87fad651b65662a70cace3242abc912820e8d03b4ce17a664c2eadbb31e964736f6c634300081c0033",
  "linkReferences": {},
  "deployedLinkReferences": {}
}