{
  "_format": "hh-sol-artifact-1",
  "contractName": "RenderShield2",
  "sourceName": "contracts/Renderers/RenderShield2.sol",
  "abi": [
    {
      "inputs": [],
      "name": "render",
      "outputs": [
        {
          "internalType": "string",
          "name": "",
          "type": "string"
        }
      ],
      "stateMutability": "pure",
      "type": "function"
    }
  ],
  "bytecode": "0x6080604052348015600f57600080fd5b5061540e8061001f6000396000f3fe608060405234801561001057600080fd5b506004361061002b5760003560e01c8063d607497a14610030575b600080fd5b61003861004e565b6040516100459190610071565b60405180910390f35b606060405180615340016040528061531981526020016100c06153199139905090565b602081526000825180602084015260005b8181101561009f5760208186018101516040868401015201610082565b506000604082850101526040601f19601f8301168401019150509291505056fe3c7061746820643d224d31313120313230682d3520336c3320312d312d315a6d2d3720302d312d312d3120312d31203168346c2d312d315a6d2d342030682d3176316831762d315a6d2d322030682d336c2d31203168356c2d312d315a6d2d382030682d3176316831762d315a6d2d322030682d3176316831762d315a6d3531203435762d31682d326c2d3220312d342d33682d316c2d342d34682d31306c2d362d36682d396c2d312032483835762d33682d36762d33386c332d3120322d3268396c332d3320322d326831346c3320322033203368336c332d3420342d332033362d31203320322032203276356831327633336c2d3420357633682d327636682d396c2d3620337632682d3676316c2d3120312d342d31682d346c2d312d312d322d317634682d33762d315a22207374796c653d2266696c6c3a233763666266623b222f3e3c7061746820643d224d31333920313635762d31682d326c2d3220312d342d33682d316c2d342d34682d31306c2d362d36682d396c2d312032483835762d33682d36762d33386c332d3120322d3268396c332d3320322d326831346c3320322033203368336c332d3420342d332033362d31203320322032203276356831327633336c2d3420357633682d327636682d396c2d3620337632682d3676316c2d3120312d342d31682d346c2d312d312d322d317634682d33762d315a22207374796c653d2266696c6c3a233537653366313b222f3e3c7061746820643d224d31313120313230682d3520336c3320312d312d315a6d2d3720302d312d312d3120312d31203168346c2d312d315a6d2d342030682d3176316831762d315a6d2d322030682d336c2d31203168356c2d312d315a6d2d382030682d3176316831762d315a6d2d322030682d3176316831762d315a6d3138203130762d31682d3276326832762d315a6d36332031322d312d32382d343820327632366c323020332032392d335a6d2d3330203233762d31682d326c2d3220312d342d33682d316c2d342d34682d31306c2d362d36682d396c2d312032483835762d33682d36762d33386c332d3120322d3268396c332d3320322d326831346c3320322033203368336c332d3420342d332033362d31203320322032203276356831327633336c2d3420357633682d327636682d396c2d3620337632682d3676316c2d3120312d342d31682d346c2d312d312d322d317634682d33762d315a22207374796c653d2266696c6c3a233865383937633b222f3e3c7061746820643d224d31353920313035682d3176316831762d315a6d2d332030682d3176316831762d315a6d2d3520302d312d3176316c2d31203168336c2d312d315a6d2d332030682d3176316831762d315a6d2d3220302d312d3176316c2d31203168336c2d312d315a6d2d332030682d3176316831762d315a6d2d322030682d3176316831762d315a6d2d382030682d3176316831762d315a6d32392031762d31682d32763268316c312d315a6d322032682d3176316831762d315a6d2d33342030682d3176316831762d315a6d2d31392030762d31682d3576326835762d315a6d2d362030762d31682d3376326833762d315a6d2d342030762d31682d3276326832762d315a6d36302031682d3176316831762d315a6d313720332d312d3176316c2d31203168336c2d312d315a6d2d36302031762d316c322033762d33682d3576336833762d325a6d2d342030762d31682d396c2d312032683130762d315a6d2d31312030762d314838376c2d3220317632683138762d325a6d352033682d3176316831762d315a6d2d32322030682d3176316831762d315a6d362031682d3176316831762d315a6d383720312d312d312d3120312d31203168346c2d312d315a6d2d3420302d312d312d3120312d31203168346c2d312d315a6d2d342030762d31682d3376326833762d315a6d2d353220302d312d31682d356c312031203220316833762d315a6d2d382030682d3176316831762d315a6d2d32362032682d3176316831762d315a6d322032682d3176316831762d315a6d39302033682d3176316831762d315a6d2d35392030682d3176316831762d315a6d2d31322035762d31682d3276326832762d315a6d362d392d312d314838376831326c313220312031203176396c312037762d31366c2d312d315a6d2d3235203136682d3176316831762d315a6d312032682d3176316831762d315a6d38302d31302d322d3134682d3436763238683438762d31345a6d2d3331203231682d3176316831762d315a6d31352034682d3176316831762d315a6d2d332030682d3176316831762d315a6d2d3420302d312d3176316c2d31203168336c2d312d315a6d2d3320302d312d312d3120312d31203168346c2d312d315a6d2d352030682d3176316831762d315a6d322031302d312d322d3120322d312031682d326c2d312d322d312d312d332d322d342d32682d396c2d362d36682d396c2d312032483836762d326c2d312d31682d36762d33386c352d3268396c352d366831346c35203568346c372d376833376c3220322032203176356831327633336c2d3420357633682d327636682d313176316c2d362034682d3476316c2d3120312d342d31682d346c2d312d31682d316c2d3120312d312032682d316c2d312d325a22207374796c653d2266696c6c3a233738373236363b222f3e3c7061746820643d226d313336203130352d312d3176316c2d31203168336c2d312d315a6d2d332030682d3176316831762d315a6d323620302d312d3176336c312d3168316c2d312d315a6d2d33203068312d386c31203176316c332d3120332d315a6d2d382030682d31316c3620316835762d315a6d31362032762d32682d3476326c322d3120312d3176346831762d325a6d2d33312031682d3176316831762d315a6d2d32322030762d31682d3976326839762d315a6d2d31302030762d31682d3276326832762d315a6d36302031682d3176316831762d315a6d2d31302030682d3176316831762d315a6d2d32302030762d31682d336c2d31203268336c312d315a6d34382034762d31682d376c31203176316c322d316832763268316c312d325a6d2d3631203068317631682d31762d315a6d322030762d31682d3576336835762d325a6d2d362030762d31682d3976316c2d312031203520316835762d325a6d2d31312030762d314838376c2d3220317632683138762d325a6d2d313620332d312d3176316c2d31203168336c2d312d315a6d323120302d312d3176336c312d3168316c2d312d315a6d2d322031762d31682d316c2d31203268316c312d315a6d2d392030682d3176316831762d315a6d2d352030682d3176316831762d315a6d38372031682d3720392d325a6d2d382030762d31682d3376326833762d315a6d2d35322030762d31682d3676326836762d315a6d2d382030682d3176316831762d315a6d2d32362030682d3176316831762d315a6d302032682d3176316831762d315a6d39322035682d3176316831762d315a6d2d353920302d312d3176316c2d31203168336c2d312d315a6d2d31322035762d31682d3276326832762d315a6d2d31392030762d38682d317631366831762d385a6d32362030762d386c2d312d312d312d314838376c3234203120312032203120322d31203776366831762d385a6d2d372039682d3176316831762d315a6d2d322030682d3176316831762d315a6d2d3520302d312d3176316c2d31203168336c2d312d315a6d2d3320302d312d312d3120312d31203168346c2d312d315a6d2d342030682d3520362d315a6d34382d3131762d3132682d327632366c322d31762d31335a6d2d31332d37762d372032382d32315a6d33372030762d372032392d32325a6d2d342030762d372032392d32325a6d2d342030762d372032396c312d31342d312d385a6d2d342030762d372032396c312d31342d312d385a6d2d3320302d312d377632396c312d3135762d375a6d2d3420302d312d377632396c312d3135762d375a6d2d31302030762d372032392d32325a6d2d332037762d3132682d327632376c312d3220312d31335a6d2d382d36762d372032382d32315a6d3133203238682d3176316831762d315a6d32322034682d3176316831762d315a6d2d332030682d3620382d325a6d2d372030682d3176316831762d315a6d2d342030682d392031322d335a6d2d313020302d312d3176316c2d31203168336c2d312d315a6d342031302d312d322d3120322d312031682d326c2d312d322d312d312d332d322d342d32682d396c2d362d36682d396c2d312032483836762d326c2d312d31682d36762d33386c352d3268396c322d3320332d336831346c35203568346c372d376833376c3220322032203276346831327633336c2d3420357633682d327636682d313176316c2d362034682d3476316c2d3120312d342d31682d346c2d312d31682d316c2d3120312d312032682d316c2d312d325a22207374796c653d2266696c6c3a233139386462653b222f3e3c7061746820643d226d313336203130352d312d3176316c2d31203168336c2d312d315a6d2d332030682d3176316831762d315a6d323620302d312d3176336c312d3168316c2d312d315a6d2d33203068312d386c31203176316c332d3120332d315a6d2d382030682d31316c3620316835762d315a6d31362032762d32682d3476326c322d3120312d3176346831762d325a6d2d33312031682d3176316831762d315a6d2d32322030762d31682d3976326839762d315a6d2d31302030762d31682d3276326832762d315a6d36302031682d3176316831762d315a6d2d31302030682d3176316831762d315a6d2d32302030762d31682d336c2d31203268336c312d315a6d34382034762d31682d376c31203176316c322d316832763268316c312d325a6d2d3631203068317631682d31762d315a6d322030762d31682d3576336835762d325a6d2d362030762d31682d3976316c2d312031203520316835762d325a6d2d31312030762d314838376c2d3220317632683138762d325a6d2d313620332d312d3176316c2d31203168336c2d312d315a6d323120302d312d3176336c312d3168316c2d312d315a6d2d322031762d31682d316c2d31203268316c312d315a6d2d392030682d3176316831762d315a6d2d352030682d3176316831762d315a6d38372031682d3720392d325a6d2d382030762d31682d3376326833762d315a6d2d35322030762d31682d3676326836762d315a6d2d382030682d3176316831762d315a6d2d32362030682d3176316831762d315a6d302032682d3176316831762d315a6d39322035682d3176316831762d315a6d2d353920302d312d3176316c2d31203168336c2d312d315a6d2d31352035682d3176316831762d315a6d342d312d312d31682d32763368346c2d312d325a6d33352037682d3176316831762d315a6d2d35352d36762d38682d317631366831762d385a6d32362030762d386c2d312d312d312d314838376c3234203120312032203120322d31203776366831762d385a6d32392039682d3176316831762d315a6d2d33362030682d3176316831762d315a6d2d322030682d3176316831762d315a6d2d3520302d312d3176316c2d31203168336c2d312d315a6d2d3320302d312d312d3120312d31203168346c2d312d315a6d2d342030682d3520362d315a6d35302032682d3176316831762d315a6d3138203176316d332d3220312032762d3238682d316c2d32203176336c2d312d32762d336c2d3120332d3120322d312d322d312d332d3120332d3120322031203776366c312031316d2d31342d3130762d326c31203120312031682d316c2d312031762d315a6d3320342d312d3620322d37683176396c3120313020312d36762d313568316c3120317632306831762d316c312d3132762d31326c2d322d3476346c2d3120332d312d36682d356c2d3120312d3220322031203137683176386832762d365a6d2d352d38762d3134682d327631316c2d3120313120312033203120336831762d31345a6d2d342d3132762d32682d327631336c2d312031322031203220312031762d31326c312d3132762d325a6d2d34203132762d3134682d327632386832762d31345a6d2d382030762d3168316c3120317632682d32762d325a6d31203676356c312031203120326831762d3238682d357631326c2d312031312031203320312032762d366c312d3676345a6d3132203135682d3176316831762d315a6d32322034682d3176316831762d315a6d2d332030682d3620382d325a6d2d372030682d3176316831762d315a6d2d342030682d392031322d335a6d2d313020302d312d3176316c2d31203168336c2d312d315a6d342031302d312d322d3120322d312031682d326c2d312d322d312d312d332d322d342d32682d396c2d362d36682d396c2d312032483836762d326c2d312d31682d36762d33386c352d3268396c322d3320332d336831346c35203568346c372d376833376c3220322032203276346831327633336c2d3420357633682d327636682d313176316c2d362034682d3476316c2d3120312d342d31682d346c2d312d31682d316c2d3120312d312032682d316c2d312d325a22207374796c653d2266696c6c3a233732363735613b222f3e3c7061746820643d226d313336203130352d312d3176316c2d31203168336c2d312d315a6d2d3320302d312d3176316c2d31203168336c2d312d315a6d3234203068312d3976326c342d3168336c312d315a6d2d392030682d313176326c362d316835762d315a6d392033682d3176316831762d315a6d2d34362030762d31682d3976326839762d315a6d2d31302030762d31682d3276326832762d315a6d36322d3120312032762d34682d3676326c322d3176346c332d3576325a6d2d323620322d312d31682d3176316c2d3120316833762d315a6d32322d312d312d3176346c312d3168316c2d312d325a6d2d362032762d31682d336c312031763168316c312d315a6d2d32322d31682d312033762d32682d326c2d3220312d3120312d3220316835762d315a6d2d31382031682d3176316831762d315a6d363720332d312d31682d3776336838762d325a6d2d36302030762d31682d3576336835762d325a6d2d362030762d31682d31307633683130762d325a6d2d31312030762d314838376c2d3220317632683138762d325a6d37322033682d3176316831762d315a6d2d38352030682d3176316831762d315a6d3720312d312d312d312d312031203276316831762d315a6d2d332030682d3176316831762d315a6d2d322030682d3176316831762d315a6d38372031682d3720392d325a6d2d36302030762d31682d3676326836762d315a6d2d313320302d312d322034203220322031762d33682d3676316c2d3120326832762d325a6d2d31392d31762d31682d336c3320312d3320326833762d325a6d383320326831762d32682d3476346c312d31762d3168325a6d2d38352031682d3176316831762d315a6d393320352d312d3176316c2d31203168336c2d312d315a6d2d36302031762d31682d32763268316c312d315a6d2d32342033682d3176316831762d315a6d392031682d3176316831762d315a6d342d312d312d31682d32763368346c2d312d325a6d36312037682d3176316831762d315a6d2d32362030682d3176316831762d315a6d2d35352d36762d38682d317631366831762d385a6d35352039682d3176316831762d315a6d2d33302d3120312d31762d31356c2d312d312d312d314838376831326c31322031203120317631366c2d3220312d32203168336c312d325a6d2d352031682d3520362d315a6d2d313020304838376831332d335a6d34352032682d3176316831762d315a6d31362d3231203220323276316c312d3132762d31326c3120347631366c31203220312032762d3238682d316c2d32203176336c2d312d32762d336c2d3120332d3120322d312d322d312d332d3120332d3120322031203776366c3120313120312d313220312d313276315a6d2d3136203133762d326c31203120312031682d316c2d312031762d315a6d3320342d312d3620322d37683176396c3120313020312d36762d313568316c3120317632306831762d316c312d3132762d31326c2d322d3476346c2d3120332d312d36682d356c2d3120312d3220322031203137683176386832762d365a6d2d352d38762d3134682d327631316c2d3120313120312033203120336831762d31345a6d2d342d3132762d32682d327631336c2d312031322031203220312031762d31326c312d3132762d325a6d2d34203132762d3134682d327632386832762d31345a6d2d382030762d3168316c3120317632682d32762d325a6d31203676356c312031203120326831762d3238682d357631326c2d312031312031203320312032762d366c312d3676345a6d3238203135682d3176316831762d315a6d2d31362030682d3176316831762d315a6d31382032682d3176316831762d315a6d2d322030682d3176316831762d315a6d2d322030682d3176316831762d315a6d382032682d3176316831762d315a6d2d332030682d3620382d325a6d2d372030682d3176316831762d315a6d2d342030682d392031322d335a6d2d313020302d312d3176316c2d31203168336c2d312d315a6d342031302d312d322d3120322d312031682d326c2d312d322d312d312d332d322d342d32682d396c2d362d36682d396c2d312032483836762d326c2d312d31682d36762d33386c352d3268396c322d3320332d336831346c35203568346c372d376833376c3220322032203276346831327633336c2d3420357633682d327636682d313176316c2d362034682d3476316c2d3120312d342d31682d346c2d312d31682d316c2d3120312d312032682d316c2d312d325a22207374796c653d2266696c6c3a233130373561383b222f3e3c7061746820643d226d313336203130352d312d3176316c2d31203168336c2d312d315a6d2d3320302d312d3176316c2d31203168336c2d312d315a6d3234203068312d3976326c342d3168336c312d315a6d2d392030682d313176326c362d316835762d315a6d392033682d3176316831762d315a6d2d34362030762d31682d3976326839762d315a6d2d31302030762d31682d3276326832762d315a6d36322d3120312032762d34682d3676326c322d3176346c332d3576325a6d2d323620322d312d31682d3176316c2d3120316833762d315a6d32322d312d312d3176346c312d3168316c2d312d325a6d2d362032762d31682d336c312031763168316c312d315a6d2d32322d31682d312033762d32682d326c2d3220312d3120312d3220316835762d315a6d2d31382031682d3176316831762d315a6d363720332d312d31682d3776336838762d325a6d2d36302030762d31682d3576336835762d325a6d2d362030762d31682d31307633683130762d325a6d2d31312030762d314838376c2d3220317632683138762d325a6d37322033682d3176316831762d315a6d2d38352030682d3176316831762d315a6d3720312d312d312d312d312031203276316831762d315a6d2d332030682d3176316831762d315a6d2d322030682d3176316831762d315a6d38372031682d3720392d325a6d2d36302030762d31682d3676326836762d315a6d2d313320302d312d322034203220322031762d33682d3676316c2d3120326832762d325a6d2d31392d31762d31682d336c3320312d3320326833762d325a6d383320326831762d32682d3476346c312d31762d3168325a6d2d38352031682d3176316831762d315a6d393320352d312d3176316c2d31203168336c2d312d315a6d2d36302031762d31682d32763268316c312d315a6d34382d36762d342031342d31305a6d2d37322039682d3176316831762d315a6d31312032762d316c31203120312031682d336c312d315a6d32203020312d312d312d32682d326c2d3220312d3120312033203368316c312d325a6d36312035682d3176316831762d315a6d2d38312d36762d38682d317631366831762d385a6d3235203820312d31762d31356c2d312d312d312d314838376831326c31322031203120317631366c2d3220312d32203168336c312d325a6d2d352031682d3520362d315a6d2d313020304838376831332d335a6d35362d323268317631682d31762d315a6d2d3231203131762d326c31203120312031682d316c2d312031762d315a6d32312030762d336c31203176336c2d312031762d325a6d2d32312034762d326c31203120312031682d316c2d312031762d315a6d31372031762d326c31203120312031682d316c2d312031762d315a6d2d382030762d3420372d335a6d31362033762d336c31203176336c2d312031762d325a6d342d31762d3520392d345a6d2d3135203668317631682d31762d315a6d2d323020312032203120312d39762d392031326c31203376346c322d31762d346c312d3476346c31203468326c312d323176323168336c312d3776376838762d336c312d332031203720322d3120312d3133203120313268316c312031762d356c32203520322d3376326c32203120312031762d3239682d32366c2d31203276316c2d322d33682d356c2d3120322d312031762d33682d357631336c2d312031332031203220312031762d3268325a6d32372038682d3176316831762d315a6d2d31362030682d3176316831762d315a6d31382032682d3176316831762d315a6d2d322030682d3176316831762d315a6d2d322030682d3176316831762d315a6d382032682d3176316831762d315a6d2d332030682d3620382d325a6d2d372030682d3176316831762d315a6d2d342030682d392031322d335a6d2d313020302d312d3176316c2d31203168336c2d312d315a6d342031302d312d322d3120322d312031682d326c2d312d322d312d312d332d322d342d32682d396c2d362d36682d396c2d312032483836762d326c2d312d31682d36762d33386c352d3268396c322d3320332d336831346c35203568346c372d376833376c3220322032203276346831327633336c2d3420357633682d327636682d313176316c2d362034682d3476316c2d3120312d342d31682d346c2d312d31682d316c2d3120312d312032682d316c2d312d325a22207374796c653d2266696c6c3a233562356135343b222f3e3c7061746820643d224d393820313038682d3176316831762d315a6d36342031762d316c312d3120312d322d31203276336c312031762d36682d3676356c342031762d325a6d2d31362031682d3176316831762d315a6d322d3468317631682d31762d315a6d37203168317631682d31762d315a6d2d323220302d322d3168356c332032682d326c2d312d31682d335a6d2d33203268317631682d31762d315a6d3136203168346c3320312d312d312d312d3220322032203220316832762d36682d32366c2d3320332d3220332031392d3168315a6d2d33332d312d312d3176336c312d3168316c2d312d315a6d2d36203068317631682d31762d315a6d2d3520312d312d3168336c32203120352031762d3448393976346833762d315a6d363220322d312d3176336c312d3168316c2d312d315a6d31362031762d31682d38763368396c2d312d325a6d2d3130203168312d347631682d3120336c312d315a6d2d38372031682d3176316831762d315a6d39362031682d3720392d325a6d2d37322d3168317631682d31762d315a6d352032762d31682d316c2d322d3168336c332d31203120316834762d33682d3136763368332d316c2d32203176336838762d325a6d2d392030762d314839336c2d3220317632683132762d325a6d2d31322030762d31682d327632682d326c312d31762d316c2d312d31682d32203138762d334838356c2d312033763468366c312d325a6d2d362033682d3176316831762d315a6d39332035762d31682d3276326832762d315a6d2d312033762d31682d316c2d3120312031203176316831762d325a6d2d31312d38762d342031342d31305a6d31302031762d316c2d332d3168336c332033682d33762d315a6d2d31203320312d316834762d35682d386c31203135762d386c322d315a6d3420313120312d312d3120312d3120312d322d322d312d312d33203220322d3168316c3120312031203268316c312d325a6d2d3131203068317631682d31762d315a6d332d38762d3130682d347631396c322031203120316831762d31315a6d2d35342d37762d316c31203120312031682d336c312d315a6d302034762d316c31203120312031682d336c312d315a6d302031322d312d316833762d38682d326c322d33762d37682d36763468327631376c312d316831762d315a6d35392032682d3176316831762d315a6d2d36302031682d3176316831762d315a6d2d31352d3131682d3176316831762d315a6d2d362032762d31682d32763268316c312d315a6d31302031762d316c31203120312031682d336c312d315a6d32203020312d312d312d32682d326c2d3220312d3120312033203368316c312d325a6d322035682d3176316831762d315a6d2d32322d36762d396832346c3120327631356c2d32352031762d395a6d32362038762d31376c2d312d314838386c2d3320327631356c3320336832346c312d325a6d363120332d322d3176326832762d315a6d2d35372030682d3176316831762d315a6d353320312d312d3120322d3168312d356c332033762d315a6d2d31372d323568317631682d31762d315a6d2d3231203131762d326c31203120312031682d316c2d312031762d315a6d32312030762d336c31203176336c2d312031762d325a6d2d32312034762d326c31203120312031682d316c2d312031762d315a6d31372031762d326c31203120312031682d316c2d312031762d315a6d2d382030762d3420372d335a6d31362033762d336c31203176336c2d312031762d325a6d342d31762d3520392d345a6d2d3135203668317631682d31762d315a6d2d323020312032203120312d39762d392031326c31203376346c322d31762d346c312d3476346c31203468326c312d323176323168336c312d3776376838762d336c312d332031203720322d3120312d3133203120313268316c312031762d356c32203520322d3376326c32203120312031762d3239682d32366c2d31203276316c2d322d33682d356c2d3120322d312031762d33682d357631336c2d312031332031203220312031762d3268325a6d2d31322d312d312d3176346c312d3168316c2d312d325a6d2d323820332d312d312d312d312031203276316831762d315a6d3830203120312d312d312d312d3220312d32203268336c312d315a6d2d392030682d31342031392d355a6d2d31362030682d3620382d325a6d2d3720302d312d3176316c2d31203168336c2d312d315a6d2d342030682d3620382d325a6d2d382d312d312d312d3120312031203176316831762d325a6d33312036682d3176316831762d315a6d2d31362030682d3176316831762d315a6d3234203268312d3476336c312d3120312d3120312d315a6d2d39203168317631682d31762d315a6d352030762d31682d376c312032682d32762d326c2d312d3176346839762d325a6d2d3134203068336c3120312d332d31682d3320325a6d342030762d31682d31316c3420312d3220312d322031683131762d325a6d2d31322030762d31682d3276336832762d325a6d342031312d312d322d3120322d3120312d392d36762d31682d31316c2d362d36682d396c2d312032483836762d326c2d312d31682d36762d33386c352d3268396c322d3320332d336831346c35203568346c372d376833376c3220322032203276346831327633346c2d3420347633682d327636682d313176316c2d352033682d357632682d31306c2d312d312d3120312d312032682d316c2d312d325a22207374796c653d2266696c6c3a233062353838663b222f3e3c7061746820643d224d393820313038682d3176316831762d315a6d36342031762d316c312d3120312d322d31203276336c312031762d36682d3676356c342031762d325a6d2d31362031682d3176316831762d315a6d322d3468317631682d31762d315a6d37203168317631682d31762d315a6d2d323220302d322d3168356c332032682d326c2d312d31682d335a6d2d33203268317631682d31762d315a6d3136203168346c3320312d312d312d312d3220322032203220316832762d36682d32366c2d3320332d3220332031392d3168315a6d2d33332d312d312d3176336c312d3168316c2d312d315a6d2d36203068317631682d31762d315a6d2d3520312d312d3168336c32203120352031762d3448393976346833762d315a6d363220322d312d3176336c312d3168316c2d312d315a6d31362031762d31682d38763368396c2d312d325a6d2d39372032682d3176316831762d315a6d39362031682d3720392d325a6d2d37322d3168317631682d31762d315a6d352032762d31682d316c2d322d3168336c332d31203120316834762d33682d3136763368332d316c2d32203176336838762d325a6d2d392030762d314839336c2d3220317632683132762d325a6d2d31322030762d31682d327632682d326c312d31762d316c2d312d31682d32203138762d334838356c2d312033763468366c312d325a6d2d362033682d3176316831762d315a6d39332035762d31682d3276326832762d315a6d2d312033762d31682d316c2d3120312031203176316831762d325a6d2d312d37762d316c2d332d3168336c332033682d33762d315a6d2d31203320312d316834762d35682d386c31203135762d386c322d315a6d3420313120312d312d3120312d3120312d322d322d312d312d33203220322d3168316c3120312031203268316c312d325a6d2d3131203068317631682d31762d315a6d332d38762d3130682d347631396c322031203120316831762d31315a6d2d35342d37762d316c31203120312031682d336c312d315a6d302034762d316c31203120312031682d336c312d315a6d302031322d312d316833762d38682d326c322d33762d37682d36763468327631376c312d316831762d315a6d35392032682d3176316831762d315a6d2d36302031682d3176316831762d315a6d2d31352d3131682d3176316831762d315a6d2d362032762d31682d32763268316c312d315a6d3133203120312d322d322d312d322d312d3220312d3120322031203368346c312d325a6d312035682d3176316831762d315a6d2d32322d36762d396832346c3120327631356c2d32352031762d395a6d32362038762d31376c2d312d314838386c2d3320327631356c3320336832346c312d325a6d363120332d322d3176326832762d315a6d2d35372030682d3176316831762d315a6d353320312d312d3120322d3168312d356c332033762d315a6d2d35362d312d312d3176346c312d3168316c2d312d325a6d2d323820332d312d312d312d312031203276316831762d315a6d3830203120312d312d312d312d3220312d32203268336c312d315a6d2d392030682d31342031392d355a6d2d31362030682d3620382d325a6d2d3720302d312d3176316c2d31203168336c2d312d315a6d2d342030682d3620382d325a6d33342d313268317631682d31762d315a6d30203368317631682d31762d315a6d302033762d326c31203120312032682d316c2d312031762d325a6d2d343220352d312d316832316c3231203120322d3220312d3120312d323668326c322d31682d336c2d3220312d322032762d32682d34316c2d3320327632376c3120326831762d325a6d33312036682d3176316831762d315a6d2d31362030682d3176316831762d315a6d3234203268312d3476336c312d3120312d3120312d315a6d2d39203168317631682d31762d315a6d352030762d31682d376c312032682d32762d326c2d312d3176346839762d325a6d2d3134203068336c3120312d332d31682d3320325a6d342030762d31682d31316c3420312d3220312d322031683131762d325a6d2d31322030762d31682d3276336832762d325a6d342031312d312d322d3120322d3120312d392d36762d31682d31316c2d362d36682d396c2d312032483836762d326c2d312d31682d36762d33386c352d3268396c322d3320332d336831346c35203568346c372d376833376c3220322032203276346831327633346c2d3420347633682d327636682d313176316c2d352033682d357632682d31306c2d312d312d3120312d312032682d316c2d312d325a22207374796c653d2266696c6c3a233366336633643b222f3e3c7061746820643d224d3133342031303668317631682d31762d315a6d33302032762d33682d33376c31203176316c312d3168316c2d34203420312d3220312d31682d316c2d3220322d322032683431762d335a6d2d36362031762d316c3120317632683132762d336c322033762d344839386c2d3120322d3220326833762d325a6d36362034762d31682d34307632683430762d315a6d372032762d31682d3576326835762d315a6d35203068317631682d31762d315a6d2d33203068317631682d31762d315a6d372d31762d32682d3876356838762d335a6d2d3839203268317631682d31762d315a6d2d33203068317631682d31762d315a6d3135203020312d3276356838762d336c332d31203320316832762d346c3120322031203120312d3120312d312d312d314838376c2d3120312d32203120322d332d3220322d32203176326c322d317634683139762d335a6d2d323020352d312d3176336c312d3168316c2d312d315a6d302033682d3176316831762d315a6d302033682d3176316831762d315a6d393420302d312d3168326c3120317631682d32762d315a6d332034762d346c2d312d33682d34763868346c312d315a6d2d36312d34762d3130682d367635683276313568326c322031762d31315a6d35332031762d313020323168356c322d3320312d32762d316c2d362d31762d336c2d312d3320332d336834762d35682d366c2d372d3276323368346c312d31315a6d2d36362d33682d3176316831762d315a6d2d322031762d31682d316c2d31203268316c312d315a6d372030762d31682d3276326c2d312d312d312d312031203176326c322d3120312d315a6d2d32312031682d3176316831762d315a6d323020322d312d3176346c312d3168316c2d312d325a6d2d32203220312d322d322d312d322d312d3220312d3120322031203368346c312d325a6d2d372d32762d3220336c2d31203320312d31762d335a6d312035682d3176316831762d315a6d2d342d3220312d312d342032762d36682d3476326c322d3176346c3120312031203220332d335a6d313320322d312d3176336c312d3168316c2d312d315a6d2d3420312d312d3176316c2d31203168336c2d312d315a6d2d332030682d3176316831762d315a6d352032762d316c2d34203176316834762d315a6d2d372030762d31682d336c312031763168316c312d315a6d2d31352d37762d396832346c3120327631356c2d32352031762d395a6d32362038762d31376c2d312d314838346c3220312d3120313720312031203220316832346c312d325a6d2d33302031682d3176316831762d315a6d38312d3668317631682d31762d315a6d30203368317631682d31762d315a6d302033762d326c31203120312032682d316c2d312031762d325a6d31203320312d31762d32356c2d322031762d32682d34316c2d3320327632346c3320336834306c322d325a6d36203068317631682d31762d315a6d34203020322d32682d3130763568356c332d335a6d2d35362030762d33682d356c2d3120322d3120322d312031682d326c3520316835762d335a6d2d31322032682d382031302d325a6d2d31332030682d35762d336c2d3320332d312d316832762d326c2d312d31682d3176356c31342d31682d355a6d37322030762d326c2d332033682d3176316834762d325a6d2d392031682d31342031392d355a6d2d31372030682d382031312d335a6d2d31302030682d3620382d325a6d2d382d312d312d31682d316c3120332032203220312d322d322d325a6d333220362d312d3176316c2d31203168336c2d312d315a6d2d31372d312d312d3176336c312d3168316c2d312d315a6d2d34382031682d3176316831762d315a6d34322031682d3176316831762d315a6d2d31342030682d3176316831762d315a6d322031682d3176316831762d315a6d31362031762d316c2d322d337635682d336c3320316832762d325a6d323620326832762d33682d3576356c312d3120312d3168325a6d2d31322d3268317631682d31762d315a6d2d32203068317631682d31762d315a6d32203268336c312031682d356c312d315a6d2d37203068362d3820325a6d313320312d322d316834762d33682d323176356831316c31312d31682d335a6d2d323420362d332d322d312d31762d31682d31316c2d362d36682d396c2d312032483836762d326c2d312d31682d36762d33386c352d3268396c322d3320332d336831346c35203568346c372d376833376c3220322032203276346831327633336c2d3420357633682d327635682d386c2d372035682d3676326c2d31302031762d316c2d312d322d3120322d3120312d342d322d3120322d312d312d342d325a22207374796c653d2266696c6c3a233233333234313b222f3e3c7061746820643d224d3133342031303668317631682d31762d315a6d33302032762d33682d33376c31203176316c312d3168316c2d34203420312d3220312d31682d316c2d3220322d322032683431762d335a6d2d36362031762d316c3120317632683132762d336c322033762d344839386c2d3120322d3220326833762d325a6d37332036762d31682d3576326835762d315a6d35203068317631682d31762d315a6d2d33203068317631682d31762d315a6d372d31762d32682d3876356838762d335a6d2d3839203268317631682d31762d315a6d2d33203068317631682d31762d315a6d3135203020312d3276356838762d336c332d31203320316832762d346c3120322031203120312d3120312d312d312d314838376c2d3120312d32203120322d332d3220322d32203176326c322d317634683139762d335a6d2d323020352d312d3176336c312d3168316c2d312d315a6d302033682d3176316831762d315a6d302033682d3176316831762d315a6d393420302d312d3168326c3120317631682d32762d315a6d332034762d346c2d312d33682d34763868346c312d315a6d2d36312d34762d3130682d367635683276313568326c322031762d31315a6d35332031762d313020323168356c322d3320312d32762d316c2d362d31762d336c2d312d3320312d3220322d316834762d35682d366c2d372d3276323368346c312d31315a6d2d36362d33682d3176316831762d315a6d2d31362032682d3176316831762d315a6d323020322d312d3176346c312d3168316c2d312d325a6d2d382035682d3176316831762d315a6d2d342d3220312d312d342032762d36682d3476326c322d3176346c3120312031203220332d335a6d313320322d312d3176336c312d3168316c2d312d315a6d2d3520312d312d3120322d3168326c2d312d33762d336c31203120312d3120322d312d312d312d312d3176316c2d3120312d36203120322d332d3120312d3120317632682d3376356c322d3120312d3176326c3120312d31203168336c3220312d322d315a6d332032762d316c2d34203176316834762d315a6d2d372030762d31682d336c312031763168316c312d315a6d2d31352d37762d396832346c3120327631356c2d32352031762d395a6d32362038762d31376c2d312d314838346c3220312d3120313720312031203220316832346c312d325a6d2d33302031682d3176316831762d315a6d37332d323568317631682d31762d315a6d2d323320306832332d333120385a6d333220323820312d31762d32356c2d342d312d342d316837762d316c2d312d31682d34307633682d326c2d3220317632356c3320336834316c312d325a6d36203068317631682d31762d315a6d34203020322d32682d3130763568356c332d335a6d2d35362030762d33682d356c2d3120322d3120322d312031682d326c3520316835762d335a6d2d31322032682d382031302d325a6d2d31332030682d35762d336c2d3320332d312d316832762d326c2d312d31682d3176356c31342d31682d355a6d37322030762d326c2d332033682d3176316834762d325a6d2d392031682d31342031392d355a6d2d31372030682d382031312d335a6d2d31302030682d3620382d325a6d2d382d312d312d31682d316c3120332032203220312d322d322d325a6d333220362d312d3176316c2d31203168336c2d312d315a6d2d31372d312d312d3176336c312d3168316c2d312d315a6d2d34382031682d3176316831762d315a6d34322031682d3176316831762d315a6d2d31342030682d3176316831762d315a6d322031682d3176316831762d315a6d31362031762d316c2d322d337635682d336c3320316832762d325a6d323620326832762d33682d3576356c312d3120312d3168325a6d2d31322d3268317631682d31762d315a6d2d32203068317631682d31762d315a6d32203268336c312031682d356c312d315a6d2d37203068362d3820325a6d313320312d322d316834762d33682d323176356831316c31312d31682d335a6d2d323420362d332d322d312d31762d31682d31316c2d362d36682d396c2d312032483836762d326c2d312d31682d36762d33386c352d3268396c322d3320332d336831346c35203568346c372d376833376c3220322032203276346831327633336c2d3420357633682d327635682d386c2d372035682d3676326c2d31302031762d316c2d312d322d3120322d3120312d342d322d3120322d312d312d342d325a22207374796c653d2266696c6c3a233234326433353b222f3e3c7061746820643d226d39362031313120322d3120312d31762d31203368386c372d31203220324839356c312d315a6d3634203368336c3120312d332d31682d3320325a6d2d34203068317631682d31762d315a6d2d35203068352d3720325a6d2d313320306831302d313320335a6d2d3130203068372d3920325a6d2d3235203168317631682d31762d315a6d2d3132203168317631682d31762d315a6d2d33203068317631682d31762d315a6d3235203020312d3168336c332031762d346c312032203120312d3120312d312031682d386c312d315a6d362034762d326c31203120312031682d316c2d312031762d315a6d30203368317631682d31762d315a6d312035762d3320356c2d31203120312d335a6d34372d3139762d32682d3276346832762d325a6d2d332d32762d33682d33356c2d3620357632683431762d345a6d362035682d3176316831762d315a6d33203368317631682d31762d315a6d372d31762d32682d3876356838762d335a6d2d39372034682d3176316831762d315a6d31382038762d31682d32763268316c312d315a6d3735203068317631682d31762d315a6d34203420312d312d312d332d312d32682d34763868346c312d325a6d2d37312d332d312d3220312031203120317631682d31762d315a6d322d31762d31682d387631682d3120326c322d31203220322031203176326c31203220312d35762d315a6d2d32203131762d31682d37762d32682d316c2d312031762d326c312d3120322d3176326c31203176316c2d31203168356c2d322d312d312d3120322d31683176316c2d31203120312d316831762d336c2d312d332d332d322d3320322d312d312d31203376336c2d3120327633683130762d315a6d2d31342d31302d312d3168326c3120317632682d316c2d312d325a6d332037762d326c2d332d316833762d356c2d322d31682d316c2d3220312d32203176326c312d31683176356c31203120322032682d34762d326c2d3120312d32203120332d352d312d322d312d3220332d32682d347631316c32203220332d316834762d335a6d2d31352d3130762d352031392d31345a6d302031352d312d3176356c312d31762d335a6d3931203368317631682d31762d315a6d2d32203420312d312d312d3168336c352d36762d356c2d362d312d312d33762d336c332d336834762d35682d366c2d372d3276323368346c312d323176323168376c2d31322031763868336c322d325a6d2d34392030762d316c2d332d3376366833762d325a6d2d31392d36762d316c31203120312031682d336c312d315a6d2d33203068317631682d31762d315a6d302033762d3168366c2d3220312d312031682d33762d315a6d2d392d312d312d3120342d3168347634682d32762d32682d346c332032682d336c2d312d325a6d2d332030762d316c2d3120312d322d312d312d3120312d3120312d3176336c332d31203120327632682d32762d325a6d2d33203168317631682d31762d315a6d32372033762d316c3220317631682d32762d315a6d2d32203068317631682d31762d315a6d2d3230203068317631682d31762d315a6d2d3520302d312d3168336c312032682d33762d315a6d3132203020312d3276346839762d37683276336c2d312034683130762d39682d346c2d332032762d33682d31326c2d31332031762d31386832346c3120317631346c2d312d342d3220322031203276316833762d31366c2d312d3148383468316c3120317631682d317631396c2d3120322d3120332032203120322031683131762d325a6d32342033682d3176316831762d315a6d333320312d312d312d3120312d31203168346c2d312d315a6d2d342030682d3176316831762d315a6d2d322030682d3176316831762d315a6d2d332030682d3720392d325a6d2d392d312d312d3176336c312d3168316c2d312d315a6d2d32332031682d3176316831762d315a6d2d322030682d3176316831762d315a6d2d31362d312d312d3176336c312d3168316c2d312d315a6d2d352031682d3176316831762d315a6d2d322030682d3176316831762d315a6d38332032762d316c2d322d31682d3376336835762d315a6d2d34332d322d312d3176346c312d3168316c2d312d325a6d2d322032762d316c2d31302d31682d3176316c3120317631683130762d315a6d34322033682d3176316831762d315a6d2d343920302d312d3176316c2d31203168336c2d312d315a6d33372d3120312d32763568336c332d312d352d316835762d326c2d312d31682d32377635683231762d335a6d2d33332032762d31682d316c2d31203268316c312d315a6d382d3368317631682d31762d315a6d3020332d312d3220312031203220326831762d38682d3276332d316c2d312d31682d3276386832762d325a6d2d3120362d332d322d312d31762d31682d31316c2d322d322d322d3220312d31762d31682d31316c2d3120312d312031483836762d326c2d312d31682d36762d33376c332d3220322d3168317632682d316c2d322d3176356c322d3376356831396c312d32762d31203368396c32203576313368326c32203120312d377631306c3320336831326c2d31312031763368376c312d32762d312033683130762d336c3320332031362d3120312d31762d3120336834762d366c2d3120322d3120312d31352d31682d31342032396c322d33762d32356c2d322d3120372031762d32682d356c312d32682d343376336c2d312d32762d31682d366c2d322d332d332d324839386c2d3220322d332033682d346c2d332d3168376c322d3320332d336831346c35203568346c372d376833376c3220322032203276346831327633346c2d352032203120327632682d316c2d3120317635682d386c2d372035682d3676326c2d31302031762d316c2d312d322d3120322d3120312d342d322d312032682d316c2d342d335a22207374796c653d2266696c6c3a233232323432363b222f3e3c7061746820643d226d3136302031313120312d312031203120312031682d326c2d322d3168315a6d2d323620306832352d333420395a6d2d3134203268317631682d31762d315a6d3339203120312d312031203120312031682d326c2d322d3168315a6d2d33203068317631682d31762d315a6d2d322030762d316c31203120312031682d336c312d315a6d2d34203020312d312031203120312031682d326c2d322d3168315a6d2d313220306831302d313320335a6d2d3130203068372d3920325a6d2d35203068317631682d31762d315a6d35372030762d326c2d332d31682d3420376c31203176336c2d312031762d325a6d2d3839203268317631682d31762d315a6d2d33203068317631682d31762d315a6d3235203120312d3120382d312d3120312d342031682d3520315a6d2d37203268317631682d31762d315a6d2d33203068317631682d31762d315a6d2d33203068317631682d31762d315a6d2d33203068317631682d31762d315a6d2d34203068336c3120312d332d31682d3320325a6d2d34203068317631682d31762d315a6d2d32203068317631682d31762d315a6d33322031762d326c31203120312031682d316c2d312031762d315a6d2d372031762d31682d326c2d322d3168326c322d3120312032203120312d322031762d315a6d2d32382031762d3168326c2d312032682d31762d315a6d30203268317631682d31762d315a6d31382032762d32203268352d326c2d3120312d3120312d312031762d335a6d37332031762d3468332d316c2d32203176362d335a6d2d35352031762d3320356c2d31203120312d335a6d2d3336203120312d33203120332d3220312d31203120312d325a6d32392037762d326c31203120312031682d316c2d312031762d315a6d2d342d39682d3176316831762d315a6d302037762d31682d316c2d31203268316c312d315a6d2d372d312d312d3176336c312d3168316c2d312d315a6d2d3120322d312d3120322d3320312032203120312d31203268356c2d322d312d312d3120322d3168326c2d312d34762d346c32203176386c2d3220312d312032682d346c2d322d325a6d3137203320312d3120312d33762d332038682d336c312d315a6d2d33203068317631682d31762d315a6d2d33312d3220312d33762d312037682d326c312d335a6d32382034762d316c322d3176326c2d322031762d315a6d2d31372d31332d312d322031203120322032682d3176316c2d312d325a6d312034762d316c31203120312031682d336c312d315a6d2d3420342d322d3120312d31762d346c322031763568326c3120312d312d31682d335a6d362d34762d36682d346c2d3220312d32203220332d33682d35763133683130762d375a6d2d31312038762d31376832357631346c2d322d3520312d33762d34682d31317631346831322d31326c2d3133203176312d315a6d2d342033762d326c31203120312032682d316c2d312031762d325a6d3737203268346c312d3220312d31762d3235682d326c312d312032203120332031682d3376323268346c312d3231763232682d3576346c2d312d31682d3176316c2d3120312d382d3168345a6d2d323020306831362d323120355a6d2d3130203068352d3720325a6d2d34203068317631682d31762d315a6d2d34352d3139682d3176316831762d315a6d3938203138682d3176316831762d315a6d2d373020362d312d312d3120312d31203168346c2d312d315a6d353420312d312d31682d3576326836762d315a6d2d372030762d31682d3476326834762d315a6d31392030762d31682d3276336c322d31762d315a6d2d373520312d312d3120322d3168312d3576326c2d322d337632682d33762d326c2d332033762d326c2d3220317632683133762d315a6d32392030762d32682d31337635683133762d335a6d2d31342032762d31682d326c312d3220312d31682d3476326c3320336831762d315a6d353420312d312d3220312031203120317631682d31762d315a6d332d32762d33682d3576356c312031203120316833762d345a6d2d34332033682d313276326c362d316836762d315a6d323320352d312d3168326c3120326833762d33682d366c2d31203368346c2d322d315a6d2d332d3968317631682d31762d315a6d2d38203068352d3720325a6d2d34203068317631682d31762d315a6d39203820312d312031203120312031682d326c2d322d3168315a6d2d3720302d322d3268346c2d32203120322031203120326837762d336c2d382d316832316c2d34203176336c352d3320312d3220312d312d312d322d312d31682d3131762d326c2d312d31682d31346c2d322032762d32682d3576386c33203368326c312d35763668356c2d322d325a6d2d3820332d332d322d312d31762d31682d31316c2d362d36682d396c2d312032483836762d326c2d312d31682d35762d33336c312d31762d316c2d312d31682d316c322d3220332d3220312031682d316c2d32203176356c32203120312031682d337632346c3320346831336c312d32762d31203368396c312d34762d342038683130762d336c312d332d312d31762d316c322032203220312031203120322031682d336c2d332d33763668336c312d32762d3120336831386c312d32762d3120336832336c312d32762d32203468346c352d3520342d35762d36682d326c2d3220312d312d312d312d316836762d3133682d39762d34682d356c312d31762d316c2d332d316833762d346c2d342d33682d33346c2d372036203320322d342d31682d346c2d322d322d332d324839386c2d3220322d332033682d316c362d376831346c35203568346c372d376833376c3220322032203276336c312033762d316c312d316831763668397632376c2d3220322d3220312d3120352d312035682d386c2d372035682d3676326c2d312d31682d326c312031682d38762d316c2d312d312d3120322d3120312d342d322d3120322d312d312d342d325a22207374796c653d2266696c6c3a233134316432323b222f3e3c7061746820643d224d3135352031313168317631682d31762d315a6d2d35203068317631682d31762d315a6d2d32203068317631682d31762d315a6d2d3131203068317631682d31762d315a6d34332034762d326c31203120312031682d316c2d312031762d315a6d2d3132203168317631682d31762d315a6d2d3530203068317631682d31762d315a6d2d33203068317631682d31762d315a6d2d32203068317631682d31762d315a6d2d3232203068317631682d31762d315a6d2d33203068317631682d31762d315a6d3930203168317631682d31762d315a6d2d33203068317631682d31762d315a6d2d332d312d312d32682d346c312d362d352d34682d33346c2d3420342d342033682d326c2d322d312d372d3448393876316c2d3120312d34203320352d366831346c35203568346c372d376833376c322032203320332d3220312031203420322d3168316c3120337633682d31762d325a6d2d3630203468317631682d31762d315a6d3632203668317631682d31762d315a6d2d37302030762d316c31203120312031682d336c312d315a6d2d39203168317631682d31762d315a6d2d342030762d3168316c2d312032682d316c312d315a6d2d3132203068317631682d31762d315a6d3939203568317631682d31762d315a6d2d3320302d312d3168326c3120317631682d32762d315a6d2d3638203120312d31762d376c3120317638682d336c312d315a6d2d3720302d312d3120312d3576346c31203376316c2d312d325a6d2d392030762d356c312031203120317634682d336c312d315a6d31312031762d326c31203120312032682d316c2d312031762d325a6d2d342031762d326c31203120312031682d316c2d312031762d315a6d382031762d316c31203120312031682d336c312d315a6d3131203268317631682d31762d315a6d2d3136203068362d3820325a6d2d31342d38762d386832357631332d31682d31762d31316c2d3320312d34203120312d31762d31682d326c2d3320312d31203176316c2d312d31762d32682d396c2d312031356831312d366c2d362031762d395a6d2d34203868317631682d31762d315a6d38392d39762d31312032322d31315a6d2d3539203130762d316c31203120312031682d336c312d315a6d3431203968336c312031682d356c312d315a6d2d37203068352d3720325a6d2d36203068336c312031682d356c312d315a6d2d33203068317631682d31762d315a6d2d3132203068317631682d31762d315a6d39203168317631682d31762d315a6d3430203168317631682d31762d315a6d2d323320312d312d3220312031203120317631682d31762d315a6d2d3337203168317631682d31762d315a6d3539203368317631682d31762d315a6d2d34342d32762d3420372d335a6d3237203468317631682d31762d315a6d32322d3133762d31682d316c2d3120326832762d315a6d2d3420332d312d3176316c2d31203168336c2d312d315a6d2d31372031342d312d31762d326c3120312031203220352d34762d346c2d322d3120312d3220312d31682d366c312d3168366c362d3120392d37762d31326c312d3131763233682d316c2d31203120312031203220312d372036682d32763368327632682d33762d35682d3576326c2d322d3276346c312033762d326c312d3376366c2d3820352d312d315a6d2d33203068317631682d31762d315a6d2d34352d31312d312d31682d3676326837762d315a6d2d39203120322d3248393376326c2d312d32682d3576346831326c322d325a6d333020382d312d312d312d312031203276316831762d315a6d32322034762d31682d33763268326c312d315a6d2d362030762d31682d336c31203268316c312d315a6d2d3920302d322d312d342d31682d336c2d322d33682d31316c2d362d36682d396c2d312032483836762d326c2d312d31682d36762d366c312d3620322d362d322d31682d316c322d32762d36682d316c2d31203120312d3220312d3420312d33682d326c2d312d3120322d3220332d32203120312d322031682d316c31203334682d33763368336c322d326833386c322031682d313476326c3620366831336c3220312032203268323076326c2d3120312d312031682d386c2d322d32682d336c31203176316c312d3168317632682d326c2d322d325a6d2d3420312d312d3168326c312032682d32762d315a22207374796c653d2266696c6c3a233064306631313b222f3ea2646970667358221220762d58fef5e76e3513586811e0b7e555c5153ce76a525a086c0e65d5ef3b4a6864736f6c634300081c0033",
  "linkReferences": {},
  "deployedLinkReferences": {}
}