{
  "_format": "hh-sol-artifact-1",
  "contractName": "RenderFore",
  "sourceName": "contracts/Renderers/RenderFore.sol",
  "abi": [
    {
      "inputs": [
        {
          "internalType": "address[]",
          "name": "renderers",
          "type": "address[]"
        }
      ],
      "stateMutability": "nonpayable",
      "type": "constructor"
    },
    {
      "inputs": [
        {
          "components": [
            {
              "internalType": "string",
              "name": "name",
              "type": "string"
            },
            {
              "internalType": "uint256",
              "name": "id",
              "type": "uint256"
            },
            {
              "components": [
                {
                  "internalType": "enum MainWeapon",
                  "name": "mainWeapon",
                  "type": "uint8"
                },
                {
                  "internalType": "enum Armor",
                  "name": "armor",
                  "type": "uint8"
                },
                {
                  "internalType": "enum Shields",
                  "name": "shields",
                  "type": "uint8"
                },
                {
                  "internalType": "enum Special",
                  "name": "special",
                  "type": "uint8"
                }
              ],
              "internalType": "struct Equipment",
              "name": "equipment",
              "type": "tuple"
            },
            {
              "components": [
                {
                  "internalType": "uint256",
                  "name": "serialNumber",
                  "type": "uint256"
                },
                {
                  "internalType": "uint8",
                  "name": "r1",
                  "type": "uint8"
                },
                {
                  "internalType": "uint8",
                  "name": "g1",
                  "type": "uint8"
                },
                {
                  "internalType": "uint8",
                  "name": "b1",
                  "type": "uint8"
                },
                {
                  "internalType": "uint8",
                  "name": "r2",
                  "type": "uint8"
                },
                {
                  "internalType": "uint8",
                  "name": "g2",
                  "type": "uint8"
                },
                {
                  "internalType": "uint8",
                  "name": "b2",
                  "type": "uint8"
                },
                {
                  "internalType": "uint8",
                  "name": "variant",
                  "type": "uint8"
                },
                {
                  "internalType": "uint8",
                  "name": "accuracy",
                  "type": "uint8"
                },
                {
                  "internalType": "uint8",
                  "name": "hull",
                  "type": "uint8"
                },
                {
                  "internalType": "uint8",
                  "name": "speed",
                  "type": "uint8"
                }
              ],
              "internalType": "struct Traits",
              "name": "traits",
              "type": "tuple"
            },
            {
              "components": [
                {
                  "internalType": "uint256",
                  "name": "gameId",
                  "type": "uint256"
                },
                {
                  "components": [
                    {
                      "internalType": "uint8",
                      "name": "version",
                      "type": "uint8"
                    },
                    {
                      "internalType": "uint8",
                      "name": "range",
                      "type": "uint8"
                    },
                    {
                      "internalType": "uint8",
                      "name": "gunDamage",
                      "type": "uint8"
                    },
                    {
                      "internalType": "uint8",
                      "name": "hullPoints",
                      "type": "uint8"
                    },
                    {
                      "internalType": "uint8",
                      "name": "movement",
                      "type": "uint8"
                    },
                    {
                      "internalType": "uint8[]",
                      "name": "statusEffects",
                      "type": "uint8[]"
                    }
                  ],
                  "internalType": "struct Attributes",
                  "name": "attributes",
                  "type": "tuple"
                },
                {
                  "internalType": "uint8",
                  "name": "damageTaken",
                  "type": "uint8"
                },
                {
                  "internalType": "bool",
                  "name": "inLobby",
                  "type": "bool"
                },
                {
                  "internalType": "bool",
                  "name": "movedThisTurn",
                  "type": "bool"
                },
                {
                  "internalType": "bool",
                  "name": "firedThisTurn",
                  "type": "bool"
                }
              ],
              "internalType": "struct GameData",
              "name": "gameData",
              "type": "tuple"
            },
            {
              "internalType": "uint32",
              "name": "shipsDestroyed",
              "type": "uint32"
            },
            {
              "internalType": "uint16",
              "name": "costsVersion",
              "type": "uint16"
            },
            {
              "internalType": "uint16",
              "name": "cost",
              "type": "uint16"
            },
            {
              "internalType": "bool",
              "name": "shiny",
              "type": "bool"
            },
            {
              "internalType": "bool",
              "name": "constructed",
              "type": "bool"
            },
            {
              "internalType": "uint256",
              "name": "timestampDestroyed",
              "type": "uint256"
            },
            {
              "internalType": "address",
              "name": "owner",
              "type": "address"
            }
          ],
          "internalType": "struct Ship",
          "name": "ship",
          "type": "tuple"
        }
      ],
      "name": "render",
      "outputs": [
        {
          "internalType": "string",
          "name": "",
          "type": "string"
        }
      ],
      "stateMutability": "view",
      "type": "function"
    },
    {
      "inputs": [],
      "name": "renderFore0",
      "outputs": [
        {
          "internalType": "contract IReturnSVG",
          "name": "",
          "type": "address"
        }
      ],
      "stateMutability": "view",
      "type": "function"
    },
    {
      "inputs": [],
      "name": "renderFore1",
      "outputs": [
        {
          "internalType": "contract IReturnSVG",
          "name": "",
          "type": "address"
        }
      ],
      "stateMutability": "view",
      "type": "function"
    },
    {
      "inputs": [],
      "name": "renderFore2",
      "outputs": [
        {
          "internalType": "contract IReturnSVG",
          "name": "",
          "type": "address"
        }
      ],
      "stateMutability": "view",
      "type": "function"
    }
  ],
  "bytecode": "0x60e060405234801561001057600080fd5b50604051610bd6380380610bd683398101604081905261002f9161015c565b80516003146100925760405162461bcd60e51b815260206004820152602560248201527f496e76616c69642072656e64657265727320617272617920696e2052656e646560448201526472466f726560d81b606482015260840160405180910390fd5b806000815181106100a5576100a561022b565b60200260200101516001600160a01b03166080816001600160a01b031681525050806001815181106100d9576100d961022b565b60200260200101516001600160a01b031660a0816001600160a01b0316815250508060028151811061010d5761010d61022b565b60209081029190910101516001600160a01b031660c05250610241565b634e487b7160e01b600052604160045260246000fd5b80516001600160a01b038116811461015757600080fd5b919050565b60006020828403121561016e57600080fd5b81516001600160401b0381111561018457600080fd5b8201601f8101841361019557600080fd5b80516001600160401b038111156101ae576101ae61012a565b604051600582901b90603f8201601f191681016001600160401b03811182821017156101dc576101dc61012a565b6040529182526020818401810192908101878411156101fa57600080fd5b6020850194505b838510156102205761021285610140565b815260209485019401610201565b509695505050505050565b634e487b7160e01b600052603260045260246000fd5b60805160a05160c051610954610282600039600081816056015261021701526000818160e101526101b901526000818160ba015261011a01526109546000f3fe608060405234801561001057600080fd5b506004361061004c5760003560e01c80631c494d0d146100515780636610b05914610095578063a076e03c146100b5578063a6bc3d84146100dc575b600080fd5b6100787f000000000000000000000000000000000000000000000000000000000000000081565b6040516001600160a01b0390911681526020015b60405180910390f35b6100a86100a336600461070c565b610103565b60405161008c9190610875565b6100787f000000000000000000000000000000000000000000000000000000000000000081565b6100787f000000000000000000000000000000000000000000000000000000000000000081565b6060816060015160e0015160ff166000036101a4577f00000000000000000000000000000000000000000000000000000000000000006001600160a01b031663d607497a6040518163ffffffff1660e01b8152600401600060405180830381865afa158015610176573d6000803e3d6000fd5b505050506040513d6000823e601f3d908101601f1916820160405261019e91908101906108a8565b92915050565b816060015160e0015160ff16600103610215577f00000000000000000000000000000000000000000000000000000000000000006001600160a01b031663d607497a6040518163ffffffff1660e01b8152600401600060405180830381865afa158015610176573d6000803e3d6000fd5b7f00000000000000000000000000000000000000000000000000000000000000006001600160a01b031663d607497a6040518163ffffffff1660e01b8152600401600060405180830381865afa158015610176573d6000803e3d6000fd5b919050565b634e487b7160e01b600052604160045260246000fd5b60405161016081016001600160401b03811182821017156102b1576102b1610278565b60405290565b60405160c081016001600160401b03811182821017156102b1576102b1610278565b60405161018081016001600160401b03811182821017156102b1576102b1610278565b604051601f8201601f191681016001600160401b038111828210171561032457610324610278565b604052919050565b60006001600160401b0382111561034557610345610278565b50601f01601f191660200190565b600082601f83011261036457600080fd5b81356103776103728261032c565b6102fc565b81815284602083860101111561038c57600080fd5b816020850160208301376000918101602001919091529392505050565b600481106103b657600080fd5b50565b6000608082840312156103cb57600080fd5b604051608081016001600160401b03811182821017156103ed576103ed610278565b60405290508082356103fe816103a9565b8152602083013561040e816103a9565b60208201526040830135610421816103a9565b60408201526060830135610434816103a9565b6060919091015292915050565b803560ff8116811461027357600080fd5b6000610160828403121561046557600080fd5b61046d61028e565b82358152905061047f60208301610441565b602082015261049060408301610441565b60408201526104a160608301610441565b60608201526104b260808301610441565b60808201526104c360a08301610441565b60a08201526104d460c08301610441565b60c08201526104e560e08301610441565b60e08201526104f76101008301610441565b61010082015261050a6101208301610441565b61012082015261051d6101408301610441565b61014082015292915050565b8035801515811461027357600080fd5b600060c0828403121561054b57600080fd5b6105536102b7565b82358152905060208201356001600160401b0381111561057257600080fd5b820160c0818503121561058457600080fd5b61058c6102b7565b61059582610441565b81526105a360208301610441565b60208201526105b460408301610441565b60408201526105c560608301610441565b60608201526105d660808301610441565b608082015260a08201356001600160401b038111156105f457600080fd5b80830192505084601f83011261060957600080fd5b81356001600160401b0381111561062257610622610278565b8060051b610632602082016102fc565b9182526020818501810192908101908884111561064e57600080fd5b6020860195505b838610156106775761066686610441565b825260209586019590910190610655565b60a085015250505060208301525061069160408301610441565b60408201526106a260608301610529565b60608201526106b360808301610529565b60808201526106c460a08301610529565b60a082015292915050565b803563ffffffff8116811461027357600080fd5b803561ffff8116811461027357600080fd5b80356001600160a01b038116811461027357600080fd5b60006020828403121561071e57600080fd5b81356001600160401b0381111561073457600080fd5b8201610320818503121561074757600080fd5b61074f6102d9565b81356001600160401b0381111561076557600080fd5b61077186828501610353565b8252506020828101359082015261078b85604084016103b9565b604082015261079d8560c08401610452565b60608201526102208201356001600160401b038111156107bc57600080fd5b6107c886828501610539565b6080830152506107db61024083016106cf565b60a08201526107ed61026083016106e3565b60c08201526107ff61028083016106e3565b60e08201526108116102a08301610529565b6101008201526108246102c08301610529565b6101208201526102e082013561014082015261084361030083016106f5565b610160820152949350505050565b60005b8381101561086c578181015183820152602001610854565b50506000910152565b6020815260008251806020840152610894816040850160208701610851565b601f01601f19169190910160400192915050565b6000602082840312156108ba57600080fd5b81516001600160401b038111156108d057600080fd5b8201601f810184136108e157600080fd5b80516108ef6103728261032c565b81815285602083850101111561090457600080fd5b610915826020830160208601610851565b9594505050505056fea264697066735822122038af45e717cf0de3f2fe392254ad74a331d84334694642d60471795abbbf9bbe64736f6c634300081c0033",
  "linkReferences": {},
  "deployedLinkReferences": {}
}