{
  "_format": "hh-sol-artifact-1",
  "contractName": "Maps",
  "sourceName": "contracts/Maps.sol",
  "abi": [
    {
      "inputs": [],
      "stateMutability": "nonpayable",
      "type": "constructor"
    },
    {
      "inputs": [],
      "name": "InvalidPosition",
      "type": "error"
    },
    {
      "inputs": [],
      "name": "MapNotFound",
      "type": "error"
    },
    {
      "inputs": [],
      "name": "NotGameContract",
      "type": "error"
    },
    {
      "inputs": [
        {
          "internalType": "address",
          "name": "owner",
          "type": "address"
        }
      ],
      "name": "OwnableInvalidOwner",
      "type": "error"
    },
    {
      "inputs": [
        {
          "internalType": "address",
          "name": "account",
          "type": "address"
        }
      ],
      "name": "OwnableUnauthorizedAccount",
      "type": "error"
    },
    {
      "anonymous": false,
      "inputs": [
        {
          "indexed": true,
          "internalType": "address",
          "name": "previousOwner",
          "type": "address"
        },
        {
          "indexed": true,
          "internalType": "address",
          "name": "newOwner",
          "type": "address"
        }
      ],
      "name": "OwnershipTransferred",
      "type": "event"
    },
    {
      "inputs": [],
      "name": "GRID_HEIGHT",
      "outputs": [
        {
          "internalType": "int16",
          "name": "",
          "type": "int16"
        }
      ],
      "stateMutability": "view",
      "type": "function"
    },
    {
      "inputs": [],
      "name": "GRID_WIDTH",
      "outputs": [
        {
          "internalType": "int16",
          "name": "",
          "type": "int16"
        }
      ],
      "stateMutability": "view",
      "type": "function"
    },
    {
      "inputs": [
        {
          "internalType": "uint256",
          "name": "_gameId",
          "type": "uint256"
        },
        {
          "internalType": "uint256",
          "name": "_mapId",
          "type": "uint256"
        }
      ],
      "name": "applyPresetMapToGame",
      "outputs": [],
      "stateMutability": "nonpayable",
      "type": "function"
    },
    {
      "inputs": [
        {
          "internalType": "uint256",
          "name": "_gameId",
          "type": "uint256"
        },
        {
          "internalType": "uint256",
          "name": "_mapId",
          "type": "uint256"
        }
      ],
      "name": "applyPresetScoringMapToGame",
      "outputs": [],
      "stateMutability": "nonpayable",
      "type": "function"
    },
    {
      "inputs": [
        {
          "internalType": "uint256",
          "name": "",
          "type": "uint256"
        },
        {
          "internalType": "int16",
          "name": "",
          "type": "int16"
        },
        {
          "internalType": "int16",
          "name": "",
          "type": "int16"
        }
      ],
      "name": "blockedTiles",
      "outputs": [
        {
          "internalType": "bool",
          "name": "",
          "type": "bool"
        }
      ],
      "stateMutability": "view",
      "type": "function"
    },
    {
      "inputs": [
        {
          "components": [
            {
              "internalType": "int16",
              "name": "row",
              "type": "int16"
            },
            {
              "internalType": "int16",
              "name": "col",
              "type": "int16"
            }
          ],
          "internalType": "struct Position[]",
          "name": "_blockedPositions",
          "type": "tuple[]"
        },
        {
          "components": [
            {
              "internalType": "int16",
              "name": "row",
              "type": "int16"
            },
            {
              "internalType": "int16",
              "name": "col",
              "type": "int16"
            },
            {
              "internalType": "uint8",
              "name": "points",
              "type": "uint8"
            },
            {
              "internalType": "bool",
              "name": "onlyOnce",
              "type": "bool"
            }
          ],
          "internalType": "struct ScoringPosition[]",
          "name": "_scoringPositions",
          "type": "tuple[]"
        }
      ],
      "name": "createPresetMap",
      "outputs": [],
      "stateMutability": "nonpayable",
      "type": "function"
    },
    {
      "inputs": [
        {
          "components": [
            {
              "internalType": "int16",
              "name": "row",
              "type": "int16"
            },
            {
              "internalType": "int16",
              "name": "col",
              "type": "int16"
            }
          ],
          "internalType": "struct Position[]",
          "name": "_blockedPositions",
          "type": "tuple[]"
        }
      ],
      "name": "createPresetMap",
      "outputs": [],
      "stateMutability": "nonpayable",
      "type": "function"
    },
    {
      "inputs": [
        {
          "components": [
            {
              "internalType": "int16",
              "name": "row",
              "type": "int16"
            },
            {
              "internalType": "int16",
              "name": "col",
              "type": "int16"
            },
            {
              "internalType": "uint8",
              "name": "points",
              "type": "uint8"
            },
            {
              "internalType": "bool",
              "name": "onlyOnce",
              "type": "bool"
            }
          ],
          "internalType": "struct ScoringPosition[]",
          "name": "_scoringPositions",
          "type": "tuple[]"
        }
      ],
      "name": "createPresetScoringMap",
      "outputs": [],
      "stateMutability": "nonpayable",
      "type": "function"
    },
    {
      "inputs": [],
      "name": "gameAddress",
      "outputs": [
        {
          "internalType": "address",
          "name": "",
          "type": "address"
        }
      ],
      "stateMutability": "view",
      "type": "function"
    },
    {
      "inputs": [
        {
          "internalType": "uint256",
          "name": "_mapId",
          "type": "uint256"
        }
      ],
      "name": "getPresetMap",
      "outputs": [
        {
          "components": [
            {
              "internalType": "int16",
              "name": "row",
              "type": "int16"
            },
            {
              "internalType": "int16",
              "name": "col",
              "type": "int16"
            }
          ],
          "internalType": "struct Position[]",
          "name": "",
          "type": "tuple[]"
        }
      ],
      "stateMutability": "view",
      "type": "function"
    },
    {
      "inputs": [
        {
          "internalType": "uint256",
          "name": "_mapId",
          "type": "uint256"
        }
      ],
      "name": "getPresetScoringMap",
      "outputs": [
        {
          "components": [
            {
              "internalType": "int16",
              "name": "row",
              "type": "int16"
            },
            {
              "internalType": "int16",
              "name": "col",
              "type": "int16"
            },
            {
              "internalType": "uint8",
              "name": "points",
              "type": "uint8"
            },
            {
              "internalType": "bool",
              "name": "onlyOnce",
              "type": "bool"
            }
          ],
          "internalType": "struct ScoringPosition[]",
          "name": "",
          "type": "tuple[]"
        }
      ],
      "stateMutability": "view",
      "type": "function"
    },
    {
      "inputs": [
        {
          "internalType": "uint256",
          "name": "_gameId",
          "type": "uint256"
        },
        {
          "internalType": "int16",
          "name": "_row",
          "type": "int16"
        },
        {
          "internalType": "int16",
          "name": "_col",
          "type": "int16"
        }
      ],
      "name": "getScoreAndZeroOut",
      "outputs": [
        {
          "internalType": "uint8",
          "name": "",
          "type": "uint8"
        }
      ],
      "stateMutability": "nonpayable",
      "type": "function"
    },
    {
      "inputs": [
        {
          "internalType": "uint256",
          "name": "_gameId",
          "type": "uint256"
        },
        {
          "internalType": "int16",
          "name": "_row0",
          "type": "int16"
        },
        {
          "internalType": "int16",
          "name": "_col0",
          "type": "int16"
        },
        {
          "internalType": "int16",
          "name": "_row1",
          "type": "int16"
        },
        {
          "internalType": "int16",
          "name": "_col1",
          "type": "int16"
        }
      ],
      "name": "hasMaps",
      "outputs": [
        {
          "internalType": "bool",
          "name": "",
          "type": "bool"
        }
      ],
      "stateMutability": "view",
      "type": "function"
    },
    {
      "inputs": [
        {
          "internalType": "uint256",
          "name": "_gameId",
          "type": "uint256"
        },
        {
          "internalType": "int16",
          "name": "_row",
          "type": "int16"
        },
        {
          "internalType": "int16",
          "name": "_col",
          "type": "int16"
        }
      ],
      "name": "isTileBlocked",
      "outputs": [
        {
          "internalType": "bool",
          "name": "",
          "type": "bool"
        }
      ],
      "stateMutability": "view",
      "type": "function"
    },
    {
      "inputs": [
        {
          "internalType": "uint256",
          "name": "_gameId",
          "type": "uint256"
        },
        {
          "internalType": "int16",
          "name": "_row",
          "type": "int16"
        },
        {
          "internalType": "int16",
          "name": "_col",
          "type": "int16"
        }
      ],
      "name": "isTileScoring",
      "outputs": [
        {
          "internalType": "uint8",
          "name": "",
          "type": "uint8"
        }
      ],
      "stateMutability": "view",
      "type": "function"
    },
    {
      "inputs": [
        {
          "internalType": "uint256",
          "name": "_gameId",
          "type": "uint256"
        },
        {
          "internalType": "int16",
          "name": "_row",
          "type": "int16"
        },
        {
          "internalType": "int16",
          "name": "_col",
          "type": "int16"
        }
      ],
      "name": "isTileScoringSafe",
      "outputs": [
        {
          "internalType": "uint8",
          "name": "",
          "type": "uint8"
        }
      ],
      "stateMutability": "view",
      "type": "function"
    },
    {
      "inputs": [],
      "name": "mapCount",
      "outputs": [
        {
          "internalType": "uint256",
          "name": "",
          "type": "uint256"
        }
      ],
      "stateMutability": "view",
      "type": "function"
    },
    {
      "inputs": [
        {
          "internalType": "uint256",
          "name": "_mapId",
          "type": "uint256"
        }
      ],
      "name": "mapExists",
      "outputs": [
        {
          "internalType": "bool",
          "name": "",
          "type": "bool"
        }
      ],
      "stateMutability": "view",
      "type": "function"
    },
    {
      "inputs": [
        {
          "internalType": "uint256",
          "name": "",
          "type": "uint256"
        },
        {
          "internalType": "int16",
          "name": "",
          "type": "int16"
        },
        {
          "internalType": "int16",
          "name": "",
          "type": "int16"
        }
      ],
      "name": "onlyOnceTiles",
      "outputs": [
        {
          "internalType": "bool",
          "name": "",
          "type": "bool"
        }
      ],
      "stateMutability": "view",
      "type": "function"
    },
    {
      "inputs": [],
      "name": "owner",
      "outputs": [
        {
          "internalType": "address",
          "name": "",
          "type": "address"
        }
      ],
      "stateMutability": "view",
      "type": "function"
    },
    {
      "inputs": [
        {
          "internalType": "uint256",
          "name": "",
          "type": "uint256"
        },
        {
          "internalType": "int16",
          "name": "",
          "type": "int16"
        },
        {
          "internalType": "int16",
          "name": "",
          "type": "int16"
        }
      ],
      "name": "presetBlockedMaps",
      "outputs": [
        {
          "internalType": "bool",
          "name": "",
          "type": "bool"
        }
      ],
      "stateMutability": "view",
      "type": "function"
    },
    {
      "inputs": [
        {
          "internalType": "uint256",
          "name": "",
          "type": "uint256"
        },
        {
          "internalType": "int16",
          "name": "",
          "type": "int16"
        },
        {
          "internalType": "int16",
          "name": "",
          "type": "int16"
        }
      ],
      "name": "presetOnlyOnceMaps",
      "outputs": [
        {
          "internalType": "bool",
          "name": "",
          "type": "bool"
        }
      ],
      "stateMutability": "view",
      "type": "function"
    },
    {
      "inputs": [
        {
          "internalType": "uint256",
          "name": "",
          "type": "uint256"
        },
        {
          "internalType": "int16",
          "name": "",
          "type": "int16"
        },
        {
          "internalType": "int16",
          "name": "",
          "type": "int16"
        }
      ],
      "name": "presetScoringMaps",
      "outputs": [
        {
          "internalType": "uint8",
          "name": "",
          "type": "uint8"
        }
      ],
      "stateMutability": "view",
      "type": "function"
    },
    {
      "inputs": [],
      "name": "renounceOwnership",
      "outputs": [],
      "stateMutability": "nonpayable",
      "type": "function"
    },
    {
      "inputs": [
        {
          "internalType": "uint256",
          "name": "",
          "type": "uint256"
        },
        {
          "internalType": "int16",
          "name": "",
          "type": "int16"
        },
        {
          "internalType": "int16",
          "name": "",
          "type": "int16"
        }
      ],
      "name": "scoringTiles",
      "outputs": [
        {
          "internalType": "uint8",
          "name": "",
          "type": "uint8"
        }
      ],
      "stateMutability": "view",
      "type": "function"
    },
    {
      "inputs": [
        {
          "internalType": "uint256",
          "name": "_gameId",
          "type": "uint256"
        },
        {
          "internalType": "int16",
          "name": "_row",
          "type": "int16"
        },
        {
          "internalType": "int16",
          "name": "_col",
          "type": "int16"
        },
        {
          "internalType": "bool",
          "name": "_blocked",
          "type": "bool"
        }
      ],
      "name": "setBlockedTile",
      "outputs": [],
      "stateMutability": "nonpayable",
      "type": "function"
    },
    {
      "inputs": [
        {
          "internalType": "address",
          "name": "_gameAddress",
          "type": "address"
        }
      ],
      "name": "setGameAddress",
      "outputs": [],
      "stateMutability": "nonpayable",
      "type": "function"
    },
    {
      "inputs": [
        {
          "internalType": "uint256",
          "name": "_gameId",
          "type": "uint256"
        },
        {
          "internalType": "int16",
          "name": "_row",
          "type": "int16"
        },
        {
          "internalType": "int16",
          "name": "_col",
          "type": "int16"
        },
        {
          "internalType": "uint8",
          "name": "_points",
          "type": "uint8"
        }
      ],
      "name": "setScoringTile",
      "outputs": [],
      "stateMutability": "nonpayable",
      "type": "function"
    },
    {
      "inputs": [
        {
          "internalType": "address",
          "name": "newOwner",
          "type": "address"
        }
      ],
      "name": "transferOwnership",
      "outputs": [],
      "stateMutability": "nonpayable",
      "type": "function"
    },
    {
      "inputs": [
        {
          "internalType": "uint256",
          "name": "_mapId",
          "type": "uint256"
        },
        {
          "components": [
            {
              "internalType": "int16",
              "name": "row",
              "type": "int16"
            },
            {
              "internalType": "int16",
              "name": "col",
              "type": "int16"
            }
          ],
          "internalType": "struct Position[]",
          "name": "_blockedPositions",
          "type": "tuple[]"
        }
      ],
      "name": "updatePresetMap",
      "outputs": [],
      "stateMutability": "nonpayable",
      "type": "function"
    },
    {
      "inputs": [
        {
          "internalType": "uint256",
          "name": "_mapId",
          "type": "uint256"
        },
        {
          "components": [
            {
              "internalType": "int16",
              "name": "row",
              "type": "int16"
            },
            {
              "internalType": "int16",
              "name": "col",
              "type": "int16"
            },
            {
              "internalType": "uint8",
              "name": "points",
              "type": "uint8"
            },
            {
              "internalType": "bool",
              "name": "onlyOnce",
              "type": "bool"
            }
          ],
          "internalType": "struct ScoringPosition[]",
          "name": "_scoringPositions",
          "type": "tuple[]"
        }
      ],
      "name": "updatePresetScoringMap",
      "outputs": [],
      "stateMutability": "nonpayable",
      "type": "function"
    }
  ],
  "bytecode": "0x6080604052348015600f57600080fd5b503380603557604051631e4fbdf760e01b81526000600482015260240160405180910390fd5b603c816041565b506091565b600080546001600160a01b038381166001600160a01b0319831681178455604051919092169283917f8be0079c531659141344cd1fd0a4f28419497f9722a3daafe3b4186f6b6457e09190a35050565b6125bb806100a06000396000f3fe608060405234801561001057600080fd5b50600436106101e55760003560e01c806386e8a1a01161010f578063d4a4affa116100a2578063f2fde38b11610071578063f2fde38b146104ca578063f342d002146104dd578063f5ea3dc914610511578063fae435b41461052857600080fd5b8063d4a4affa1461047e578063dc32d63b14610491578063dd91835e146104a4578063edc6e555146104b757600080fd5b8063c95eeaad116100de578063c95eeaad146103e3578063c996553714610417578063ccc0e3521461044b578063ce4693f81461045e57600080fd5b806386e8a1a0146103855780638da5cb5b14610398578063a168d873146103bd578063a2ec85bc146103d057600080fd5b80635740685611610187578063709faade11610156578063709faade14610344578063711953ef14610357578063715018a61461036a5780638383c9951461037257600080fd5b806357406856146102d75780635a1114e3146102ea57806363228ab7146102fd5780636858bd401461033157600080fd5b8063349370d0116101c3578063349370d0146102825780633bf0684b146102a75780633fa0bb06146102bc5780634bf11ad2146102cf57600080fd5b8063046e8d0b146101ea5780630a312b8814610233578063235e78eb14610267575b600080fd5b61021e6101f8366004611e4f565b600160209081526000938452604080852082529284528284209052825290205460ff1681565b60405190151581526020015b60405180910390f35b61021e610241366004611e4f565b600560209081526000938452604080852082529284528284209052825290205460ff1681565b61026f606481565b60405160019190910b815260200161022a565b610295610290366004611e4f565b610548565b60405160ff909116815260200161022a565b6102ba6102b5366004611e8b565b6105d9565b005b6102ba6102ca36600461214f565b610767565b61026f603281565b6102ba6102e53660046121b6565b61077d565b61021e6102f8366004612224565b610970565b61029561030b366004611e4f565b600360209081526000938452604080852082529284528284209052825290205460ff1681565b61021e61033f366004611e4f565b610989565b6102ba61035236600461223d565b610a0a565b6102ba61036536600461228a565b610aa1565b6102ba610acb565b61021e6103803660046122b3565b610adf565b6102ba610393366004612311565b610bd2565b6000546001600160a01b03165b6040516001600160a01b03909116815260200161022a565b6008546103a5906001600160a01b031681565b6102956103de366004611e4f565b610d40565b61021e6103f1366004611e4f565b600660209081526000938452604080852082529284528284209052825290205460ff1681565b61021e610425366004611e4f565b600260209081526000938452604080852082529284528284209052825290205460ff1681565b6102ba610459366004612333565b610db1565b61047161046c366004612224565b610e03565b60405161022a919061236f565b6102ba61048c366004612311565b610fbb565b61029561049f366004611e4f565b611199565b6102ba6104b23660046123c2565b6111ed565b6102ba6104c53660046123f6565b61124b565b6102ba6104d836600461228a565b6112df565b6102956104eb366004611e4f565b600460209081526000938452604080852082529284528284209052825290205460ff1681565b61051a60075481565b60405190815260200161022a565b61053b610536366004612224565b61131f565b60405161022a9190612438565b6000838152600360209081526040808320600186810b8086529184528285209086900b808652908452828520548886526005855283862092865291845282852090855290925282205460ff9182169116156105cf576000858152600360209081526040808320600188810b85529083528184209087900b84529091529020805460ff191690555b90505b9392505050565b6105e161152d565b8215806105ef575060075483115b1561060d57604051639ff5bfb960e01b815260040160405180910390fd5b60006106188461155a565b905060005b815181101561068657600082828151811061063a5761063a6124a1565b60209081029190910181015160008881526002835260408082208351600190810b845290855281832093850151810b83529290935291909120805460ff1916905591909101905061061d565b5060005b828110156107605760008484838181106106a6576106a66124a1565b9050604002018036038101906106bc91906124b7565b90506000816000015160010b12806106dc57508051603260019190910b12155b806106ee57506000816020015160010b125b806107045750606460010b816020015160010b12155b156107225760405163673f032f60e11b815260040160405180910390fd5b60008681526002602090815260408083208451600190810b855290835281842094830151810b8452939091529020805460ff1916821790550161068a565b5050505050565b61076f61152d565b6107798282611708565b5050565b61078561152d565b821580610793575060075483115b156107b157604051639ff5bfb960e01b815260040160405180910390fd5b60006107bc84611905565b905060005b81518110156108545760008282815181106107de576107de6124a1565b60209081029190910181015160008881526004835260408082208351600190810b84529085528183208486018051830b8552908652828420805460ff199081169091558c8552600687528385209551830b85529486528284209051820b84529094529020805490911690559190910190506107c1565b5060005b82811015610760576000848483818110610874576108746124a1565b90506080020180360381019061088a91906124d3565b90506000816000015160010b12806108aa57508051603260019190910b12155b806108bc57506000816020015160010b125b806108d25750606460010b816020015160010b12155b156108f05760405163673f032f60e11b815260040160405180910390fd5b6040808201516000888152600460209081528382208551600190810b84529082528483208287018051830b8552908352858420805460ff90961660ff1996871617905560608701518c8552600684528685209751830b85529683528584209051820b84529091529290208054931515939091169290921790915501610858565b6000808211801561098357506007548211155b92915050565b6000808360010b12806109a157506032600184900b12155b806109af575060008260010b125b806109bf57506064600183900b12155b156109dd5760405163673f032f60e11b815260040160405180910390fd5b50600092835260016020818152604080862094830b86529381528385209290910b84525290205460ff1690565b610a1261152d565b60008360010b1280610a2957506032600184900b12155b80610a37575060008260010b125b80610a4757506064600183900b12155b15610a655760405163673f032f60e11b815260040160405180910390fd5b6000938452600360209081526040808620600195860b875282528086209390940b8552919091529120805460ff191660ff909216919091179055565b610aa961152d565b600880546001600160a01b0319166001600160a01b0392909216919091179055565b610ad361152d565b610add6000611b13565b565b6000808560010b1280610af757506032600186900b12155b80610b05575060008460010b125b80610b1557506064600185900b12155b80610b23575060008360010b125b80610b3357506032600184900b12155b80610b41575060008260010b125b80610b5157506064600183900b12155b15610b6f5760405163673f032f60e11b815260040160405180910390fd5b610b7a868686611b63565b15610b8757506000610bc9565b8260010b8560010b148015610ba157508160010b8460010b145b15610bb957610bb1868484611b63565b159050610bc9565b610bc68686868686611ba6565b90505b95945050505050565b6008546001600160a01b03163314801590610bf857506000546001600160a01b03163314155b15610c1657604051636aff438160e11b815260040160405180910390fd5b801580610c24575060075481115b15610c4257604051639ff5bfb960e01b815260040160405180910390fd5b6000610c4d82611905565b905060005b8151811015610d3a576000828281518110610c6f57610c6f6124a1565b60209081029190910181015160008681526004835260408082208351600190810b84529085528183208486018051830b8552908652828420548b8552600387528385208651840b865287528385208251840b86528752838520805460ff1990811660ff938416179091558b8652600688528486208751850b875288528486208351850b87528852848620548d8752600589528587209751850b87529688528486209251840b865291909652919092208054939094161515921691909117909155919091019050610c52565b50505050565b6000808360010b1280610d5857506032600184900b12155b80610d66575060008260010b125b80610d7657506064600183900b12155b15610d83575060006105d2565b506000928352600360209081526040808520600194850b865282528085209290930b84525290205460ff1690565b610db961152d565b60408051600080825260208201909252610e0091610df9565b6040805180820190915260008082526020820152815260200190600190039081610dd25790505b5082611708565b50565b6060811580610e13575060075482115b15610e3157604051639ff5bfb960e01b815260040160405180910390fd5b6000805b6032600182900b1215610ea35760005b6064600182900b1215610e9a576000858152600260209081526040808320600186810b85529083528184209085900b845290915290205460ff1615610e925782610e8e81612505565b9350505b600101610e45565b50600101610e35565b506000816001600160401b03811115610ebe57610ebe611f0a565b604051908082528060200260200182016040528015610f0357816020015b6040805180820190915260008082526020820152815260200190600190039081610edc5790505b5090506000805b6032600182900b1215610fb15760005b6064600182900b1215610fa8576000878152600260209081526040808320600186810b85529083528184209085900b845290915290205460ff1615610fa05760405180604001604052808360010b81526020018260010b815250848481518110610f8657610f866124a1565b60200260200101819052508280610f9c90612505565b9350505b600101610f1a565b50600101610f0a565b5090949350505050565b6008546001600160a01b03163314801590610fe157506000546001600160a01b03163314155b15610fff57604051636aff438160e11b815260040160405180910390fd5b80158061100d575060075481115b1561102b57604051639ff5bfb960e01b815260040160405180910390fd5b60006110368261155a565b905060005b81518110156110a0576000828281518110611058576110586124a1565b6020908102919091018101516000878152600180845260408083208451830b8452855280832093850151820b83529290935220805460ff19168217905591909101905061103b565b5060006110ac83611905565b905060005b81518110156107605760008282815181106110ce576110ce6124a1565b60209081029190910181015160008781526004835260408082208351600190810b84529085528183208486018051830b8552908652828420548c8552600387528385208651840b865287528385208251840b86528752838520805460ff1990811660ff938416179091558c8652600688528486208751850b875288528486208351850b87528852848620548e8752600589528587209751850b87529688528486209251840b8652919096529190922080549390941615159216919091179091559190910190506110b1565b6000808360010b12806111b157506032600184900b12155b806111bf575060008260010b125b806111cf57506064600183900b12155b15610d835760405163673f032f60e11b815260040160405180910390fd5b6111f561152d565b60408051600080825260208201909252610e0091839190611245565b6040805160808101825260008082526020808301829052928201819052606082015282526000199092019101816112115790505b50611708565b61125361152d565b60008360010b128061126a57506032600184900b12155b80611278575060008260010b125b8061128857506064600183900b12155b156112a65760405163673f032f60e11b815260040160405180910390fd5b600093845260016020818152604080872095830b87529481528486209390910b8552919091529120805460ff1916911515919091179055565b6112e761152d565b6001600160a01b03811661131657604051631e4fbdf760e01b8152600060048201526024015b60405180910390fd5b610e0081611b13565b606081158061132f575060075482115b1561134d57604051639ff5bfb960e01b815260040160405180910390fd5b6000805b6032600182900b12156113bf5760005b6064600182900b12156113b6576000858152600460209081526040808320600186810b85529083528184209085900b845290915290205460ff16156113ae57826113aa81612505565b9350505b600101611361565b50600101611351565b506000816001600160401b038111156113da576113da611f0a565b60405190808252806020026020018201604052801561142c57816020015b6040805160808101825260008082526020808301829052928201819052606082015282526000199092019101816113f85790505b5090506000805b6032600182900b1215610fb15760005b6064600182900b1215611524576000878152600460209081526040808320600186810b85529083528184209085900b845290915290205460ff161561151c5760408051608081018252600184810b8083529084900b602080840182905260008c815260048252858120848252825285812083825282528581205460ff908116868801528d8252600683528682209482529382528581209281529190529290922054909116151560608201528451859085908110611502576115026124a1565b6020026020010181905250828061151890612505565b9350505b600101611443565b50600101611433565b6000546001600160a01b03163314610add5760405163118cdaa760e01b815233600482015260240161130d565b606081158061156a575060075482115b1561158857604051639ff5bfb960e01b815260040160405180910390fd5b6000805b6032600182900b12156115fa5760005b6064600182900b12156115f1576000858152600260209081526040808320600186810b85529083528184209085900b845290915290205460ff16156115e957826115e581612505565b9350505b60010161159c565b5060010161158c565b506000816001600160401b0381111561161557611615611f0a565b60405190808252806020026020018201604052801561165a57816020015b60408051808201909152600080825260208201528152602001906001900390816116335790505b5090506000805b6032600182900b1215610fb15760005b6064600182900b12156116ff576000878152600260209081526040808320600186810b85529083528184209085900b845290915290205460ff16156116f75760405180604001604052808360010b81526020018260010b8152508484815181106116dd576116dd6124a1565b602002602001018190525082806116f390612505565b9350505b600101611671565b50600101611661565b6007805490600061171883612505565b919050555060005b82518110156117ec57600083828151811061173d5761173d6124a1565b602002602001015190506000816000015160010b128061176557508051603260019190910b12155b8061177757506000816020015160010b125b8061178d5750606460010b816020015160010b12155b156117ab5760405163673f032f60e11b815260040160405180910390fd5b60075460009081526002602090815260408083208451600190810b855290835281842094830151810b8452939091529020805460ff19168217905501611720565b5060005b815181101561190057600082828151811061180d5761180d6124a1565b602002602001015190506000816000015160010b128061183557508051603260019190910b12155b8061184757506000816020015160010b125b8061185d5750606460010b816020015160010b12155b1561187b5760405163673f032f60e11b815260040160405180910390fd5b604080820151600780546000908152600460209081528482208651600190810b84529082528583208288018051830b8552908352868420805460ff90971660ff19978816179055606088015194548452600683528684209751820b84529682528583209651810b835295905292909220805492151592909116919091179055016117f0565b505050565b6060811580611915575060075482115b1561193357604051639ff5bfb960e01b815260040160405180910390fd5b6000805b6032600182900b12156119a55760005b6064600182900b121561199c576000858152600460209081526040808320600186810b85529083528184209085900b845290915290205460ff1615611994578261199081612505565b9350505b600101611947565b50600101611937565b506000816001600160401b038111156119c0576119c0611f0a565b604051908082528060200260200182016040528015611a1257816020015b6040805160808101825260008082526020808301829052928201819052606082015282526000199092019101816119de5790505b5090506000805b6032600182900b1215610fb15760005b6064600182900b1215611b0a576000878152600460209081526040808320600186810b85529083528184209085900b845290915290205460ff1615611b025760408051608081018252600184810b8083529084900b602080840182905260008c815260048252858120848252825285812083825282528581205460ff908116868801528d8252600683528682209482529382528581209281529190529290922054909116151560608201528451859085908110611ae857611ae86124a1565b60200260200101819052508280611afe90612505565b9350505b600101611a29565b50600101611a19565b600080546001600160a01b038381166001600160a01b0319831681178455604051919092169283917f8be0079c531659141344cd1fd0a4f28419497f9722a3daafe3b4186f6b6457e09190a35050565b6000808360010b1280611b7b57506032600184900b12155b80611b89575060008260010b125b80611b9957506064600183900b12155b156109dd575060016105d2565b6000808560010b8460010b13611bc557611bc0848761251e565b611bcf565b611bcf868561251e565b905060008560010b8460010b13611bef57611bea848761251e565b611bf9565b611bf9868561251e565b905060008760010b8660010b13611c26578760010b8660010b12611c1e576000611c29565b600019611c29565b60015b905060008760010b8660010b13611c56578760010b8660010b12611c4e576000611c59565b600019611c59565b60015b90506000611c67858561251e565b905089895b8960010b8260010b148015611c8657508860010b8160010b145b15611ca557611c968d8383611b63565b15975050505050505050610bc9565b600183810b811b9081900b600003611d7557611ccb8e84611cc68886612541565b611b63565b8015611ce65750611ce68e611ce08886612541565b84611b63565b15611cfc57600098505050505050505050610bc9565b611d068583612541565b9150611d12888561251e565b9350611d1e8684612541565b9250611d2a8785612541565b93508a60010b8360010b141580611d4757508960010b8260010b14155b8015611d595750611d598e8484611b63565b15611d6f57600098505050505050505050610bc9565b50611c6c565b611d7e88612564565b60010b8160010b1315611de657611d95888561251e565b9350611da18583612541565b91508a60010b8360010b141580611dbe57508960010b8260010b14155b8015611dd05750611dd08e8484611b63565b15611de657600098505050505050505050610bc9565b8660010b8160010b1215611d6f57611dfe8785612541565b9350611e0a8684612541565b92508a60010b8360010b141580611d4757508960010b8260010b14158015611d595750611d598e8484611b63565b8035600181900b8114611e4a57600080fd5b919050565b600080600060608486031215611e6457600080fd5b83359250611e7460208501611e38565b9150611e8260408501611e38565b90509250925092565b600080600060408486031215611ea057600080fd5b8335925060208401356001600160401b03811115611ebd57600080fd5b8401601f81018613611ece57600080fd5b80356001600160401b03811115611ee457600080fd5b8660208260061b8401011115611ef957600080fd5b939660209190910195509293505050565b634e487b7160e01b600052604160045260246000fd5b604051601f8201601f191681016001600160401b0381118282101715611f4857611f48611f0a565b604052919050565b60006001600160401b03821115611f6957611f69611f0a565b5060051b60200190565b600060408284031215611f8557600080fd5b604080519081016001600160401b0381118282101715611fa757611fa7611f0a565b604052905080611fb683611e38565b8152611fc460208401611e38565b60208201525092915050565b600082601f830112611fe157600080fd5b8135611ff4611fef82611f50565b611f20565b8082825260208201915060208360061b86010192508583111561201657600080fd5b602085015b8381101561203d5761202d8782611f73565b835260209092019160400161201b565b5095945050505050565b803560ff81168114611e4a57600080fd5b80358015158114611e4a57600080fd5b60006080828403121561207a57600080fd5b604051608081016001600160401b038111828210171561209c5761209c611f0a565b6040529050806120ab83611e38565b81526120b960208401611e38565b60208201526120ca60408401612047565b60408201526120db60608401612058565b60608201525092915050565b600082601f8301126120f857600080fd5b8135612106611fef82611f50565b8082825260208201915060208360071b86010192508583111561212857600080fd5b602085015b8381101561203d5761213f8782612068565b835260209092019160800161212d565b6000806040838503121561216257600080fd5b82356001600160401b0381111561217857600080fd5b61218485828601611fd0565b92505060208301356001600160401b038111156121a057600080fd5b6121ac858286016120e7565b9150509250929050565b6000806000604084860312156121cb57600080fd5b8335925060208401356001600160401b038111156121e857600080fd5b8401601f810186136121f957600080fd5b80356001600160401b0381111561220f57600080fd5b8660208260071b8401011115611ef957600080fd5b60006020828403121561223657600080fd5b5035919050565b6000806000806080858703121561225357600080fd5b8435935061226360208601611e38565b925061227160408601611e38565b915061227f60608601612047565b905092959194509250565b60006020828403121561229c57600080fd5b81356001600160a01b03811681146105d257600080fd5b600080600080600060a086880312156122cb57600080fd5b853594506122db60208701611e38565b93506122e960408701611e38565b92506122f760608701611e38565b915061230560808701611e38565b90509295509295909350565b6000806040838503121561232457600080fd5b50508035926020909101359150565b60006020828403121561234557600080fd5b81356001600160401b0381111561235b57600080fd5b612367848285016120e7565b949350505050565b602080825282518282018190526000918401906040840190835b818110156123b75783518051600190810b8552602091820151810b8286015294019360409093019201612389565b509095945050505050565b6000602082840312156123d457600080fd5b81356001600160401b038111156123ea57600080fd5b61236784828501611fd0565b6000806000806080858703121561240c57600080fd5b8435935061241c60208601611e38565b925061242a60408601611e38565b915061227f60608601612058565b602080825282518282018190526000918401906040840190835b818110156123b7578351805160010b8452602081015160010b602085015260ff604082015116604085015260608101511515606085015250608083019250602084019350600181019050612452565b634e487b7160e01b600052603260045260246000fd5b6000604082840312156124c957600080fd5b6105d28383611f73565b6000608082840312156124e557600080fd5b6105d28383612068565b634e487b7160e01b600052601160045260246000fd5b600060018201612517576125176124ef565b5060010190565b600182810b9082900b03617fff198112617fff82131715610983576109836124ef565b600181810b9083900b01617fff8113617fff1982121715610983576109836124ef565b60008160010b617fff19810361257c5761257c6124ef565b6000039291505056fea26469706673582212205536354831d2ada60f835420c8ba6e5003e37021661734e1fcf370f00b4e1db764736f6c634300081c0033",
  "linkReferences": {},
  "deployedLinkReferences": {}
}