{
  "_format": "hh-sol-artifact-1",
  "contractName": "RenderFore",
  "sourceName": "contracts/Renderers/RenderFore.sol",
  "abi": [
    {
      "inputs": [
        {
          "internalType": "address[]",
          "name": "renderers",
          "type": "address[]"
        }
      ],
      "stateMutability": "nonpayable",
      "type": "constructor"
    },
    {
      "inputs": [
        {
          "components": [
            {
              "internalType": "string",
              "name": "name",
              "type": "string"
            },
            {
              "internalType": "uint256",
              "name": "id",
              "type": "uint256"
            },
            {
              "components": [
                {
                  "internalType": "enum MainWeapon",
                  "name": "mainWeapon",
                  "type": "uint8"
                },
                {
                  "internalType": "enum Armor",
                  "name": "armor",
                  "type": "uint8"
                },
                {
                  "internalType": "enum Shields",
                  "name": "shields",
                  "type": "uint8"
                },
                {
                  "internalType": "enum Special",
                  "name": "special",
                  "type": "uint8"
                }
              ],
              "internalType": "struct Equipment",
              "name": "equipment",
              "type": "tuple"
            },
            {
              "components": [
                {
                  "internalType": "uint256",
                  "name": "serialNumber",
                  "type": "uint256"
                },
                {
                  "internalType": "uint8",
                  "name": "r1",
                  "type": "uint8"
                },
                {
                  "internalType": "uint8",
                  "name": "g1",
                  "type": "uint8"
                },
                {
                  "internalType": "uint8",
                  "name": "b1",
                  "type": "uint8"
                },
                {
                  "internalType": "uint8",
                  "name": "r2",
                  "type": "uint8"
                },
                {
                  "internalType": "uint8",
                  "name": "g2",
                  "type": "uint8"
                },
                {
                  "internalType": "uint8",
                  "name": "b2",
                  "type": "uint8"
                },
                {
                  "internalType": "uint8",
                  "name": "variant",
                  "type": "uint8"
                },
                {
                  "internalType": "uint8",
                  "name": "accuracy",
                  "type": "uint8"
                },
                {
                  "internalType": "uint8",
                  "name": "hull",
                  "type": "uint8"
                },
                {
                  "internalType": "uint8",
                  "name": "speed",
                  "type": "uint8"
                }
              ],
              "internalType": "struct Traits",
              "name": "traits",
              "type": "tuple"
            },
            {
              "components": [
                {
                  "internalType": "uint256",
                  "name": "gameId",
                  "type": "uint256"
                },
                {
                  "components": [
                    {
                      "internalType": "uint8",
                      "name": "version",
                      "type": "uint8"
                    },
                    {
                      "internalType": "uint8",
                      "name": "range",
                      "type": "uint8"
                    },
                    {
                      "internalType": "uint8",
                      "name": "gunDamage",
                      "type": "uint8"
                    },
                    {
                      "internalType": "uint8",
                      "name": "hullPoints",
                      "type": "uint8"
                    },
                    {
                      "internalType": "uint8",
                      "name": "movement",
                      "type": "uint8"
                    },
                    {
                      "internalType": "uint8[]",
                      "name": "statusEffects",
                      "type": "uint8[]"
                    }
                  ],
                  "internalType": "struct Attributes",
                  "name": "attributes",
                  "type": "tuple"
                },
                {
                  "internalType": "uint8",
                  "name": "damageTaken",
                  "type": "uint8"
                },
                {
                  "internalType": "bool",
                  "name": "inLobby",
                  "type": "bool"
                },
                {
                  "internalType": "bool",
                  "name": "movedThisTurn",
                  "type": "bool"
                },
                {
                  "internalType": "bool",
                  "name": "firedThisTurn",
                  "type": "bool"
                }
              ],
              "internalType": "struct GameData",
              "name": "gameData",
              "type": "tuple"
            },
            {
              "internalType": "uint32",
              "name": "shipsDestroyed",
              "type": "uint32"
            },
            {
              "internalType": "uint16",
              "name": "costsVersion",
              "type": "uint16"
            },
            {
              "internalType": "uint16",
              "name": "cost",
              "type": "uint16"
            },
            {
              "internalType": "bool",
              "name": "shiny",
              "type": "bool"
            },
            {
              "internalType": "bool",
              "name": "constructed",
              "type": "bool"
            },
            {
              "internalType": "uint256",
              "name": "timestampDestroyed",
              "type": "uint256"
            },
            {
              "internalType": "address",
              "name": "owner",
              "type": "address"
            }
          ],
          "internalType": "struct Ship",
          "name": "ship",
          "type": "tuple"
        }
      ],
      "name": "render",
      "outputs": [
        {
          "internalType": "string",
          "name": "",
          "type": "string"
        }
      ],
      "stateMutability": "view",
      "type": "function"
    },
    {
      "inputs": [],
      "name": "renderFore0",
      "outputs": [
        {
          "internalType": "contract IReturnSVG",
          "name": "",
          "type": "address"
        }
      ],
      "stateMutability": "view",
      "type": "function"
    },
    {
      "inputs": [],
      "name": "renderFore1",
      "outputs": [
        {
          "internalType": "contract IReturnSVG",
          "name": "",
          "type": "address"
        }
      ],
      "stateMutability": "view",
      "type": "function"
    },
    {
      "inputs": [],
      "name": "renderFore2",
      "outputs": [
        {
          "internalType": "contract IReturnSVG",
          "name": "",
          "type": "address"
        }
      ],
      "stateMutability": "view",
      "type": "function"
    },
    {
      "inputs": [],
      "name": "renderForeShiny",
      "outputs": [
        {
          "internalType": "contract IReturnSVG",
          "name": "",
          "type": "address"
        }
      ],
      "stateMutability": "view",
      "type": "function"
    }
  ],
  "bytecode": "0x61010060405234801561001157600080fd5b50604051610cb9380380610cb983398101604081905261003091610191565b80516004146100935760405162461bcd60e51b815260206004820152602560248201527f496e76616c69642072656e64657265727320617272617920696e2052656e646560448201526472466f726560d81b606482015260840160405180910390fd5b806000815181106100a6576100a6610260565b60200260200101516001600160a01b03166080816001600160a01b031681525050806001815181106100da576100da610260565b60200260200101516001600160a01b031660a0816001600160a01b0316815250508060028151811061010e5761010e610260565b60200260200101516001600160a01b031660c0816001600160a01b0316815250508060038151811061014257610142610260565b60209081029190910101516001600160a01b031660e05250610276565b634e487b7160e01b600052604160045260246000fd5b80516001600160a01b038116811461018c57600080fd5b919050565b6000602082840312156101a357600080fd5b81516001600160401b038111156101b957600080fd5b8201601f810184136101ca57600080fd5b80516001600160401b038111156101e3576101e361015f565b604051600582901b90603f8201601f191681016001600160401b03811182821017156102115761021161015f565b60405291825260208184018101929081018784111561022f57600080fd5b6020850194505b838510156102555761024785610175565b815260209485019401610236565b509695505050505050565b634e487b7160e01b600052603260045260246000fd5b60805160a05160c05160e0516109f16102c86000396000818160c50152610144015260008181606101526102b4015260008181610113015261025601526000818160ec01526101e401526109f16000f3fe608060405234801561001057600080fd5b50600436106100575760003560e01c80631c494d0d1461005c5780636610b059146100a0578063755a7f52146100c0578063a076e03c146100e7578063a6bc3d841461010e575b600080fd5b6100837f000000000000000000000000000000000000000000000000000000000000000081565b6040516001600160a01b0390911681526020015b60405180910390f35b6100b36100ae3660046107a9565b610135565b6040516100979190610912565b6100837f000000000000000000000000000000000000000000000000000000000000000081565b6100837f000000000000000000000000000000000000000000000000000000000000000081565b6100837f000000000000000000000000000000000000000000000000000000000000000081565b6060816101000151156101ce577f00000000000000000000000000000000000000000000000000000000000000006001600160a01b031663d607497a6040518163ffffffff1660e01b8152600401600060405180830381865afa1580156101a0573d6000803e3d6000fd5b505050506040513d6000823e601f3d908101601f191682016040526101c89190810190610945565b92915050565b8160600151610100015160ff16600003610240577f00000000000000000000000000000000000000000000000000000000000000006001600160a01b031663d607497a6040518163ffffffff1660e01b8152600401600060405180830381865afa1580156101a0573d6000803e3d6000fd5b8160600151610100015160ff166001036102b2577f00000000000000000000000000000000000000000000000000000000000000006001600160a01b031663d607497a6040518163ffffffff1660e01b8152600401600060405180830381865afa1580156101a0573d6000803e3d6000fd5b7f00000000000000000000000000000000000000000000000000000000000000006001600160a01b031663d607497a6040518163ffffffff1660e01b8152600401600060405180830381865afa1580156101a0573d6000803e3d6000fd5b919050565b634e487b7160e01b600052604160045260246000fd5b60405161016081016001600160401b038111828210171561034e5761034e610315565b60405290565b60405160c081016001600160401b038111828210171561034e5761034e610315565b60405161018081016001600160401b038111828210171561034e5761034e610315565b604051601f8201601f191681016001600160401b03811182821017156103c1576103c1610315565b604052919050565b60006001600160401b038211156103e2576103e2610315565b50601f01601f191660200190565b600082601f83011261040157600080fd5b813561041461040f826103c9565b610399565b81815284602083860101111561042957600080fd5b816020850160208301376000918101602001919091529392505050565b6004811061045357600080fd5b50565b60006080828403121561046857600080fd5b604051608081016001600160401b038111828210171561048a5761048a610315565b604052905080823561049b81610446565b815260208301356104ab81610446565b602082015260408301356104be81610446565b604082015260608301356104d181610446565b6060919091015292915050565b803560ff8116811461031057600080fd5b6000610160828403121561050257600080fd5b61050a61032b565b82358152905061051c602083016104de565b602082015261052d604083016104de565b604082015261053e606083016104de565b606082015261054f608083016104de565b608082015261056060a083016104de565b60a082015261057160c083016104de565b60c082015261058260e083016104de565b60e082015261059461010083016104de565b6101008201526105a761012083016104de565b6101208201526105ba61014083016104de565b61014082015292915050565b8035801515811461031057600080fd5b600060c082840312156105e857600080fd5b6105f0610354565b82358152905060208201356001600160401b0381111561060f57600080fd5b820160c0818503121561062157600080fd5b610629610354565b610632826104de565b8152610640602083016104de565b6020820152610651604083016104de565b6040820152610662606083016104de565b6060820152610673608083016104de565b608082015260a08201356001600160401b0381111561069157600080fd5b80830192505084601f8301126106a657600080fd5b81356001600160401b038111156106bf576106bf610315565b8060051b6106cf60208201610399565b918252602081850181019290810190888411156106eb57600080fd5b6020860195505b8386101561071457610703866104de565b8252602095860195909101906106f2565b60a085015250505060208301525061072e604083016104de565b604082015261073f606083016105c6565b6060820152610750608083016105c6565b608082015261076160a083016105c6565b60a082015292915050565b803563ffffffff8116811461031057600080fd5b803561ffff8116811461031057600080fd5b80356001600160a01b038116811461031057600080fd5b6000602082840312156107bb57600080fd5b81356001600160401b038111156107d157600080fd5b820161032081850312156107e457600080fd5b6107ec610376565b81356001600160401b0381111561080257600080fd5b61080e868285016103f0565b825250602082810135908201526108288560408401610456565b604082015261083a8560c084016104ef565b60608201526102208201356001600160401b0381111561085957600080fd5b610865868285016105d6565b608083015250610878610240830161076c565b60a082015261088a6102608301610780565b60c082015261089c6102808301610780565b60e08201526108ae6102a083016105c6565b6101008201526108c16102c083016105c6565b6101208201526102e08201356101408201526108e06103008301610792565b610160820152949350505050565b60005b838110156109095781810151838201526020016108f1565b50506000910152565b60208152600082518060208401526109318160408501602087016108ee565b601f01601f19169190910160400192915050565b60006020828403121561095757600080fd5b81516001600160401b0381111561096d57600080fd5b8201601f8101841361097e57600080fd5b805161098c61040f826103c9565b8181528560208385010111156109a157600080fd5b6109b28260208301602086016108ee565b9594505050505056fea26469706673582212209116421ec3c792a5eccc3383c29a46b1636871969cb96c1678a00b38772b309764736f6c634300081c0033",
  "linkReferences": {},
  "deployedLinkReferences": {}
}