{
  "_format": "hh-sol-artifact-1",
  "contractName": "RenderSpecial",
  "sourceName": "contracts/Renderers/RenderSpecial.sol",
  "abi": [
    {
      "inputs": [
        {
          "internalType": "address[]",
          "name": "renderers",
          "type": "address[]"
        }
      ],
      "stateMutability": "nonpayable",
      "type": "constructor"
    },
    {
      "inputs": [
        {
          "components": [
            {
              "internalType": "string",
              "name": "name",
              "type": "string"
            },
            {
              "internalType": "uint256",
              "name": "id",
              "type": "uint256"
            },
            {
              "components": [
                {
                  "internalType": "enum MainWeapon",
                  "name": "mainWeapon",
                  "type": "uint8"
                },
                {
                  "internalType": "enum Armor",
                  "name": "armor",
                  "type": "uint8"
                },
                {
                  "internalType": "enum Shields",
                  "name": "shields",
                  "type": "uint8"
                },
                {
                  "internalType": "enum Special",
                  "name": "special",
                  "type": "uint8"
                }
              ],
              "internalType": "struct Equipment",
              "name": "equipment",
              "type": "tuple"
            },
            {
              "components": [
                {
                  "internalType": "uint256",
                  "name": "serialNumber",
                  "type": "uint256"
                },
                {
                  "components": [
                    {
                      "internalType": "uint8",
                      "name": "h1",
                      "type": "uint8"
                    },
                    {
                      "internalType": "uint8",
                      "name": "s1",
                      "type": "uint8"
                    },
                    {
                      "internalType": "uint8",
                      "name": "l1",
                      "type": "uint8"
                    },
                    {
                      "internalType": "uint8",
                      "name": "h2",
                      "type": "uint8"
                    },
                    {
                      "internalType": "uint8",
                      "name": "s2",
                      "type": "uint8"
                    },
                    {
                      "internalType": "uint8",
                      "name": "l2",
                      "type": "uint8"
                    }
                  ],
                  "internalType": "struct Colors",
                  "name": "colors",
                  "type": "tuple"
                },
                {
                  "internalType": "uint8",
                  "name": "variant",
                  "type": "uint8"
                },
                {
                  "internalType": "uint8",
                  "name": "accuracy",
                  "type": "uint8"
                },
                {
                  "internalType": "uint8",
                  "name": "hull",
                  "type": "uint8"
                },
                {
                  "internalType": "uint8",
                  "name": "speed",
                  "type": "uint8"
                }
              ],
              "internalType": "struct Traits",
              "name": "traits",
              "type": "tuple"
            },
            {
              "components": [
                {
                  "internalType": "uint32",
                  "name": "shipsDestroyed",
                  "type": "uint32"
                },
                {
                  "internalType": "uint16",
                  "name": "costsVersion",
                  "type": "uint16"
                },
                {
                  "internalType": "uint16",
                  "name": "cost",
                  "type": "uint16"
                },
                {
                  "internalType": "bool",
                  "name": "shiny",
                  "type": "bool"
                },
                {
                  "internalType": "bool",
                  "name": "constructed",
                  "type": "bool"
                },
                {
                  "internalType": "bool",
                  "name": "inFleet",
                  "type": "bool"
                },
                {
                  "internalType": "uint256",
                  "name": "timestampDestroyed",
                  "type": "uint256"
                }
              ],
              "internalType": "struct ShipData",
              "name": "shipData",
              "type": "tuple"
            },
            {
              "internalType": "address",
              "name": "owner",
              "type": "address"
            }
          ],
          "internalType": "struct Ship",
          "name": "ship",
          "type": "tuple"
        }
      ],
      "name": "render",
      "outputs": [
        {
          "internalType": "string",
          "name": "",
          "type": "string"
        }
      ],
      "stateMutability": "view",
      "type": "function"
    },
    {
      "inputs": [],
      "name": "renderSpecial1",
      "outputs": [
        {
          "internalType": "contract IReturnSVG",
          "name": "",
          "type": "address"
        }
      ],
      "stateMutability": "view",
      "type": "function"
    },
    {
      "inputs": [],
      "name": "renderSpecial2",
      "outputs": [
        {
          "internalType": "contract IReturnSVG",
          "name": "",
          "type": "address"
        }
      ],
      "stateMutability": "view",
      "type": "function"
    },
    {
      "inputs": [],
      "name": "renderSpecial3",
      "outputs": [
        {
          "internalType": "contract IReturnSVG",
          "name": "",
          "type": "address"
        }
      ],
      "stateMutability": "view",
      "type": "function"
    }
  ],
  "bytecode": "0x60e060405234801561001057600080fd5b50604051610c91380380610c9183398101604081905261002f9161015f565b80516003146100955760405162461bcd60e51b815260206004820152602860248201527f496e76616c69642072656e64657265727320617272617920696e2052656e64656044820152671c94dc1958da585b60c21b606482015260840160405180910390fd5b806000815181106100a8576100a861022e565b60200260200101516001600160a01b03166080816001600160a01b031681525050806001815181106100dc576100dc61022e565b60200260200101516001600160a01b031660a0816001600160a01b031681525050806002815181106101105761011061022e565b60209081029190910101516001600160a01b031660c05250610244565b634e487b7160e01b600052604160045260246000fd5b80516001600160a01b038116811461015a57600080fd5b919050565b60006020828403121561017157600080fd5b81516001600160401b0381111561018757600080fd5b8201601f8101841361019857600080fd5b80516001600160401b038111156101b1576101b161012d565b604051600582901b90603f8201601f191681016001600160401b03811182821017156101df576101df61012d565b6040529182526020818401810192908101878411156101fd57600080fd5b6020850194505b838510156102235761021585610143565b815260209485019401610204565b509695505050505050565b634e487b7160e01b600052603260045260246000fd5b60805160a05160c051610a0c6102856000396000818160e101526102970152600081816056015261022a015260008181609a01526101720152610a0c6000f3fe608060405234801561001057600080fd5b506004361061004c5760003560e01c806380252335146100515780639f53067014610095578063ac7ae36b146100bc578063b5cca06b146100dc575b600080fd5b6100787f000000000000000000000000000000000000000000000000000000000000000081565b6040516001600160a01b0390911681526020015b60405180910390f35b6100787f000000000000000000000000000000000000000000000000000000000000000081565b6100cf6100ca36600461060e565b610103565b60405161008c9190610762565b6100787f000000000000000000000000000000000000000000000000000000000000000081565b6060600082604001516060015160038111156101215761012161077c565b0361013a57505060408051602081019091526000815290565b600182604001516060015160038111156101565761015661077c565b036101f25760405163ac7ae36b60e01b81526001600160a01b037f0000000000000000000000000000000000000000000000000000000000000000169063ac7ae36b906101a79085906004016108a4565b600060405180830381865afa1580156101c4573d6000803e3d6000fd5b505050506040513d6000823e601f3d908101601f191682016040526101ec919081019061095f565b92915050565b6002826040015160600151600381111561020e5761020e61077c565b0361025f5760405163ac7ae36b60e01b81526001600160a01b037f0000000000000000000000000000000000000000000000000000000000000000169063ac7ae36b906101a79085906004016108a4565b6003826040015160600151600381111561027b5761027b61077c565b036102cc5760405163ac7ae36b60e01b81526001600160a01b037f0000000000000000000000000000000000000000000000000000000000000000169063ac7ae36b906101a79085906004016108a4565b505060408051602081019091526000815290565b634e487b7160e01b600052604160045260246000fd5b60405160c0810167ffffffffffffffff81118282101715610319576103196102e0565b60405290565b60405160e0810167ffffffffffffffff81118282101715610319576103196102e0565b604051601f8201601f1916810167ffffffffffffffff8111828210171561036b5761036b6102e0565b604052919050565b600067ffffffffffffffff82111561038d5761038d6102e0565b50601f01601f191660200190565b600481106103a857600080fd5b50565b6000608082840312156103bd57600080fd5b6040516080810167ffffffffffffffff811182821017156103e0576103e06102e0565b60405290508082356103f18161039b565b815260208301356104018161039b565b602082015260408301356104148161039b565b604082015260608301356104278161039b565b6060919091015292915050565b803560ff8116811461044557600080fd5b919050565b600081830361016081121561045e57600080fd5b6104666102f6565b83358152915060c0601f198201121561047e57600080fd5b506104876102f6565b61049360208401610434565b81526104a160408401610434565b60208201526104b260608401610434565b60408201526104c360808401610434565b60608201526104d460a08401610434565b60808201526104e560c08401610434565b60a082015260208201526104fb60e08301610434565b604082015261050d6101008301610434565b606082015261051f6101208301610434565b60808201526105316101408301610434565b60a082015292915050565b803561ffff8116811461044557600080fd5b8035801515811461044557600080fd5b600060e0828403121561057057600080fd5b61057861031f565b9050813563ffffffff8116811461058e57600080fd5b815261059c6020830161053c565b60208201526105ad6040830161053c565b60408201526105be6060830161054e565b60608201526105cf6080830161054e565b60808201526105e060a0830161054e565b60a082015260c09182013591810191909152919050565b80356001600160a01b038116811461044557600080fd5b60006020828403121561062057600080fd5b813567ffffffffffffffff81111561063757600080fd5b8201610320818503121561064a57600080fd5b6106526102f6565b813567ffffffffffffffff81111561066957600080fd5b8201601f8101861361067a57600080fd5b803561068d61068882610373565b610342565b8181528760208385010111156106a257600080fd5b816020840160208301376000602092820183015283528381013590830152506106ce85604084016103ab565b60408201526106e08560c0840161044a565b60608201526106f385610220840161055e565b608082015261070561030083016105f7565b60a0820152949350505050565b60005b8381101561072d578181015183820152602001610715565b50506000910152565b6000815180845261074e816020860160208601610712565b601f01601f19169290920160200192915050565b6020815260006107756020830184610736565b9392505050565b634e487b7160e01b600052602160045260246000fd5b600481106103a857634e487b7160e01b600052602160045260246000fd5b80518252602081015160ff815116602084015260ff602082015116604084015260ff604082015116606084015260ff606082015116608084015260ff60808201511660a084015260ff60a08201511660c084015250604081015161081960e084018260ff169052565b50606081015160ff9081166101008401526080820151811661012084015260a0909101511661014090910152565b63ffffffff815116825261ffff602082015116602083015261ffff604082015116604083015260608101511515606083015260808101511515608083015260a081015161089860a084018215159052565b5060c090810151910152565b602081526000825161032060208401526108c2610340840182610736565b905060208401516040840152604084015180516108de81610792565b606085015260208101516108f181610792565b6080850152604081015161090481610792565b60a08501526060015161091681610792565b60c0840152606084015161092d60e08501826107b0565b506080840151610941610240850182610847565b5060a08401516001600160a01b038116610320850152509392505050565b60006020828403121561097157600080fd5b815167ffffffffffffffff81111561098857600080fd5b8201601f8101841361099957600080fd5b80516109a761068882610373565b8181528560208385010111156109bc57600080fd5b6109cd826020830160208601610712565b9594505050505056fea2646970667358221220d7843d837a7a4658e1060ca1599b49fd660cbe78100af4d05b88b16f026bcade64736f6c634300081c0033",
  "linkReferences": {},
  "deployedLinkReferences": {}
}