{
  "_format": "hh-sol-artifact-1",
  "contractName": "ShipPurchaser",
  "sourceName": "contracts/ShipPurchaser.sol",
  "abi": [
    {
      "inputs": [
        {
          "internalType": "address",
          "name": "_ships",
          "type": "address"
        },
        {
          "internalType": "address",
          "name": "_universalCredits",
          "type": "address"
        }
      ],
      "stateMutability": "nonpayable",
      "type": "constructor"
    },
    {
      "inputs": [],
      "name": "ArrayLengthMismatch",
      "type": "error"
    },
    {
      "inputs": [
        {
          "internalType": "uint256",
          "name": "_required",
          "type": "uint256"
        },
        {
          "internalType": "uint256",
          "name": "_available",
          "type": "uint256"
        }
      ],
      "name": "InsufficientFunds",
      "type": "error"
    },
    {
      "inputs": [
        {
          "internalType": "uint256",
          "name": "_tier",
          "type": "uint256"
        },
        {
          "internalType": "uint256",
          "name": "_amount",
          "type": "uint256"
        }
      ],
      "name": "InvalidPurchase",
      "type": "error"
    },
    {
      "inputs": [],
      "name": "InvalidReferral",
      "type": "error"
    },
    {
      "inputs": [
        {
          "internalType": "address",
          "name": "",
          "type": "address"
        }
      ],
      "name": "NotAuthorized",
      "type": "error"
    },
    {
      "inputs": [
        {
          "internalType": "address",
          "name": "owner",
          "type": "address"
        }
      ],
      "name": "OwnableInvalidOwner",
      "type": "error"
    },
    {
      "inputs": [
        {
          "internalType": "address",
          "name": "account",
          "type": "address"
        }
      ],
      "name": "OwnableUnauthorizedAccount",
      "type": "error"
    },
    {
      "inputs": [],
      "name": "ReentrancyGuardReentrantCall",
      "type": "error"
    },
    {
      "anonymous": false,
      "inputs": [
        {
          "indexed": true,
          "internalType": "address",
          "name": "previousOwner",
          "type": "address"
        },
        {
          "indexed": true,
          "internalType": "address",
          "name": "newOwner",
          "type": "address"
        }
      ],
      "name": "OwnershipTransferred",
      "type": "event"
    },
    {
      "inputs": [],
      "name": "getPurchaseInfo",
      "outputs": [
        {
          "internalType": "uint8[]",
          "name": "",
          "type": "uint8[]"
        },
        {
          "internalType": "uint8[]",
          "name": "",
          "type": "uint8[]"
        },
        {
          "internalType": "uint256[]",
          "name": "",
          "type": "uint256[]"
        }
      ],
      "stateMutability": "view",
      "type": "function"
    },
    {
      "inputs": [
        {
          "internalType": "address",
          "name": "",
          "type": "address"
        }
      ],
      "name": "isAllowedToCreateShips",
      "outputs": [
        {
          "internalType": "bool",
          "name": "",
          "type": "bool"
        }
      ],
      "stateMutability": "view",
      "type": "function"
    },
    {
      "inputs": [],
      "name": "owner",
      "outputs": [
        {
          "internalType": "address",
          "name": "",
          "type": "address"
        }
      ],
      "stateMutability": "view",
      "type": "function"
    },
    {
      "inputs": [
        {
          "internalType": "uint256",
          "name": "",
          "type": "uint256"
        }
      ],
      "name": "purchaseTiers",
      "outputs": [
        {
          "internalType": "uint8",
          "name": "",
          "type": "uint8"
        }
      ],
      "stateMutability": "view",
      "type": "function"
    },
    {
      "inputs": [
        {
          "internalType": "address",
          "name": "_to",
          "type": "address"
        },
        {
          "internalType": "uint256",
          "name": "_tier",
          "type": "uint256"
        }
      ],
      "name": "purchaseUTCWithFlow",
      "outputs": [],
      "stateMutability": "payable",
      "type": "function"
    },
    {
      "inputs": [
        {
          "internalType": "address",
          "name": "_to",
          "type": "address"
        },
        {
          "internalType": "uint8",
          "name": "_tier",
          "type": "uint8"
        },
        {
          "internalType": "address",
          "name": "_referral",
          "type": "address"
        },
        {
          "internalType": "uint16",
          "name": "_variant",
          "type": "uint16"
        }
      ],
      "name": "purchaseWithUC",
      "outputs": [],
      "stateMutability": "nonpayable",
      "type": "function"
    },
    {
      "inputs": [
        {
          "internalType": "address",
          "name": "",
          "type": "address"
        }
      ],
      "name": "referralCount",
      "outputs": [
        {
          "internalType": "uint256",
          "name": "",
          "type": "uint256"
        }
      ],
      "stateMutability": "view",
      "type": "function"
    },
    {
      "inputs": [
        {
          "internalType": "uint256",
          "name": "",
          "type": "uint256"
        }
      ],
      "name": "referralPercentages",
      "outputs": [
        {
          "internalType": "uint8",
          "name": "",
          "type": "uint8"
        }
      ],
      "stateMutability": "view",
      "type": "function"
    },
    {
      "inputs": [
        {
          "internalType": "uint256",
          "name": "",
          "type": "uint256"
        }
      ],
      "name": "referralStages",
      "outputs": [
        {
          "internalType": "uint32",
          "name": "",
          "type": "uint32"
        }
      ],
      "stateMutability": "view",
      "type": "function"
    },
    {
      "inputs": [],
      "name": "renounceOwnership",
      "outputs": [],
      "stateMutability": "nonpayable",
      "type": "function"
    },
    {
      "inputs": [
        {
          "internalType": "uint8[]",
          "name": "_purchaseTiers",
          "type": "uint8[]"
        },
        {
          "internalType": "uint8[]",
          "name": "_tierShips",
          "type": "uint8[]"
        },
        {
          "internalType": "uint256[]",
          "name": "_tierPrices",
          "type": "uint256[]"
        }
      ],
      "name": "setPurchaseInfo",
      "outputs": [],
      "stateMutability": "nonpayable",
      "type": "function"
    },
    {
      "inputs": [],
      "name": "ships",
      "outputs": [
        {
          "internalType": "contract IShips",
          "name": "",
          "type": "address"
        }
      ],
      "stateMutability": "view",
      "type": "function"
    },
    {
      "inputs": [
        {
          "internalType": "uint256",
          "name": "",
          "type": "uint256"
        }
      ],
      "name": "tierPrices",
      "outputs": [
        {
          "internalType": "uint256",
          "name": "",
          "type": "uint256"
        }
      ],
      "stateMutability": "view",
      "type": "function"
    },
    {
      "inputs": [
        {
          "internalType": "uint256",
          "name": "",
          "type": "uint256"
        }
      ],
      "name": "tierShips",
      "outputs": [
        {
          "internalType": "uint8",
          "name": "",
          "type": "uint8"
        }
      ],
      "stateMutability": "view",
      "type": "function"
    },
    {
      "inputs": [
        {
          "internalType": "address",
          "name": "newOwner",
          "type": "address"
        }
      ],
      "name": "transferOwnership",
      "outputs": [],
      "stateMutability": "nonpayable",
      "type": "function"
    },
    {
      "inputs": [],
      "name": "universalCredits",
      "outputs": [
        {
          "internalType": "contract IERC20",
          "name": "",
          "type": "address"
        }
      ],
      "stateMutability": "view",
      "type": "function"
    },
    {
      "inputs": [],
      "name": "universalCreditsMintable",
      "outputs": [
        {
          "internalType": "contract IUniversalCredits",
          "name": "",
          "type": "address"
        }
      ],
      "stateMutability": "view",
      "type": "function"
    },
    {
      "inputs": [],
      "name": "withdrawFlow",
      "outputs": [],
      "stateMutability": "nonpayable",
      "type": "function"
    },
    {
      "inputs": [],
      "name": "withdrawUC",
      "outputs": [],
      "stateMutability": "nonpayable",
      "type": "function"
    }
  ],
  "bytecode": "0x610180604052600060e0908152600a61010052601461012052602361014052603261016052610032906002906005610214565b50604080516080810182526103e88152612710602082015261c35091810191909152620186a0606082015261006b9060039060046102ba565b5034801561007857600080fd5b5060405161193f38038061193f833981016040819052610097916103cd565b33806100bd57604051631e4fbdf760e01b81526000600482015260240160405180910390fd5b6100c6816101c4565b5060018080556001600160a01b03808416608090815290831660a081815260c091909152604080519182018152928152600260208201526003928101929092526004606083018190526005918301829052610122929091610214565b506040805160a0810182526005808252600b6020830152601c92820192909252603c6060820152607d608082015261015b919081610214565b506040805160a0810182526745400a8fd53300008152678aa39c121a270000602082015268015ace5098e9030000918101919091526802b5c0282441c70000606082015268056ba3d73af34f000060808201526101bc906006906005610356565b505050610400565b600080546001600160a01b038381166001600160a01b0319831681178455604051919092169283917f8be0079c531659141344cd1fd0a4f28419497f9722a3daafe3b4186f6b6457e09190a35050565b82805482825590600052602060002090601f016020900481019282156102aa5791602002820160005b8382111561027b57835183826101000a81548160ff021916908360ff160217905550926020019260010160208160000104928301926001030261023d565b80156102a85782816101000a81549060ff021916905560010160208160000104928301926001030261027b565b505b506102b692915061039c565b5090565b828054828255906000526020600020906007016008900481019282156102aa5791602002820160005b8382111561032657835183826101000a81548163ffffffff021916908362ffffff16021790555092602001926004016020816003010492830192600103026102e3565b80156102a85782816101000a81549063ffffffff0219169055600401602081600301049283019260010302610326565b8280548282559060005260206000209081019282156102aa579160200282015b828111156102aa57825182906001600160481b0316905591602001919060010190610376565b5b808211156102b6576000815560010161039d565b80516001600160a01b03811681146103c857600080fd5b919050565b600080604083850312156103e057600080fd5b6103e9836103b1565b91506103f7602084016103b1565b90509250929050565b60805160a05160c0516114df6104606000396000818161014d0152610be30152600081816101b3015281816104a40152818161051b0152818161070c015281816107cd0152610e5701526000818161036601526108bc01526114df6000f3fe6080604052600436106101145760003560e01c8063715018a6116100a0578063b662abf511610064578063b662abf514610334578063bbf8218a14610354578063cfca9a7f14610388578063db74559b146103bd578063f2fde38b146103ea57600080fd5b8063715018a61461029957806375bfe420146102ae5780637fb0acfa146102ee5780638da5cb5b14610303578063ad15d1071461032157600080fd5b8063300eccab116100e7578063300eccab146101d55780633f0bc9a51461020357806343e66ab11461023557806348cfc19e14610255578063612124311461027957600080fd5b8063053f5bbf146101195780630de858661461013b57806312ac049e1461018c57806317225941146101a1575b600080fd5b34801561012557600080fd5b50610139610134366004611154565b61040a565b005b34801561014757600080fd5b5061016f7f000000000000000000000000000000000000000000000000000000000000000081565b6040516001600160a01b0390911681526020015b60405180910390f35b34801561019857600080fd5b50610139610484565b3480156101ad57600080fd5b5061016f7f000000000000000000000000000000000000000000000000000000000000000081565b3480156101e157600080fd5b506101f56101f0366004611243565b610616565b604051908152602001610183565b34801561020f57600080fd5b5061022361021e366004611243565b610637565b60405160ff9091168152602001610183565b34801561024157600080fd5b50610139610250366004611273565b61066b565b34801561026157600080fd5b5061026a61092f565b6040516101839392919061130f565b34801561028557600080fd5b50610223610294366004611243565b610a77565b3480156102a557600080fd5b50610139610a87565b3480156102ba57600080fd5b506102de6102c936600461137a565b60086020526000908152604090205460ff1681565b6040519015158152602001610183565b3480156102fa57600080fd5b50610139610a9b565b34801561030f57600080fd5b506000546001600160a01b031661016f565b61013961032f36600461139c565b610b3f565b34801561034057600080fd5b5061022361034f366004611243565b610c4d565b34801561036057600080fd5b5061016f7f000000000000000000000000000000000000000000000000000000000000000081565b34801561039457600080fd5b506103a86103a3366004611243565b610c5d565b60405163ffffffff9091168152602001610183565b3480156103c957600080fd5b506101f56103d836600461137a565b60076020526000908152604090205481565b3480156103f657600080fd5b5061013961040536600461137a565b610c97565b610412610cd2565b8151835114158061042557508051825114155b156104435760405163512509d360e11b815260040160405180910390fd5b8251610456906004906020860190610f69565b50815161046a906005906020850190610f69565b50805161047e90600690602084019061100f565b50505050565b61048c610cd2565b6040516370a0823160e01b81523060048201526000907f00000000000000000000000000000000000000000000000000000000000000006001600160a01b0316906370a0823190602401602060405180830381865afa1580156104f3573d6000803e3d6000fd5b505050506040513d601f19601f8201168201806040525081019061051791906113c6565b90507f00000000000000000000000000000000000000000000000000000000000000006001600160a01b031663a9059cbb61055a6000546001600160a01b031690565b6040516001600160e01b031960e084901b1681526001600160a01b039091166004820152602481018490526044016020604051808303816000875af11580156105a7573d6000803e3d6000fd5b505050506040513d601f19601f820116820180604052508101906105cb91906113df565b6106135760405162461bcd60e51b81526020600482015260146024820152731550c81dda5d1a191c985dd85b0819985a5b195960621b60448201526064015b60405180910390fd5b50565b6006818154811061062657600080fd5b600091825260209091200154905081565b6004818154811061064757600080fd5b9060005260206000209060209182820401919006915054906101000a900460ff1681565b610673610cff565b6001600160a01b03821661069a5760405163119833d760e11b815260040160405180910390fd5b600060058460ff16815481106106b2576106b2611401565b6000918252602080832090820401546006805460ff601f9094166101000a909204831694509187169081106106e9576106e9611401565b60009182526020822001546040516370a0823160e01b81523360048201529092507f00000000000000000000000000000000000000000000000000000000000000006001600160a01b0316906370a0823190602401602060405180830381865afa15801561075b573d6000803e3d6000fd5b505050506040513d601f19601f8201168201806040525081019061077f91906113c6565b9050818110156107ab5760405162fae2d560e21b8152600481018390526024810182905260440161060a565b6040516323b872dd60e01b8152336004820152306024820152604481018390527f00000000000000000000000000000000000000000000000000000000000000006001600160a01b0316906323b872dd906064016020604051808303816000875af115801561081e573d6000803e3d6000fd5b505050506040513d601f19601f8201168201806040525081019061084291906113df565b6108835760405162461bcd60e51b81526020600482015260126024820152711550c81d1c985b9cd9995c8819985a5b195960721b604482015260640161060a565b604051631e3ea40760e21b81526001600160a01b0388811660048301526024820185905261ffff8616604483015260ff881660648301527f000000000000000000000000000000000000000000000000000000000000000016906378fa901c90608401600060405180830381600087803b15801561090057600080fd5b505af1158015610914573d6000803e3d6000fd5b50505050610923858484610d29565b50505061047e60018055565b6060806060600460056006828054806020026020016040519081016040528092919081815260200182805480156109a357602002820191906000526020600020906000905b825461010083900a900460ff168152602060019283018181049485019490930390920291018084116109745790505b5050505050925081805480602002602001604051908101604052809291908181526020018280548015610a1357602002820191906000526020600020906000905b825461010083900a900460ff168152602060019283018181049485019490930390920291018084116109e45790505b5050505050915080805480602002602001604051908101604052809291908181526020018280548015610a6557602002820191906000526020600020905b815481526020019060010190808311610a51575b50505050509050925092509250909192565b6005818154811061064757600080fd5b610a8f610cd2565b610a996000610f19565b565b610aa3610cd2565b600080546040516001600160a01b039091169047908381818185875af1925050503d8060008114610af0576040519150601f19603f3d011682016040523d82523d6000602084013e610af5565b606091505b50509050806106135760405162461bcd60e51b8152602060048201526016602482015275119313d5c81dda5d1a191c985dd85b0819985a5b195960521b604482015260640161060a565b610b47610cff565b6006548110610b72576040516312a1605d60e31b81526004810182905234602482015260440161060a565b600060068281548110610b8757610b87611401565b90600052602060002001549050803414610bbd576040516312a1605d60e31b81526004810183905234602482015260440161060a565b6040516340c10f1960e01b81526001600160a01b038481166004830152602482018390527f000000000000000000000000000000000000000000000000000000000000000016906340c10f1990604401600060405180830381600087803b158015610c2757600080fd5b505af1158015610c3b573d6000803e3d6000fd5b5050505050610c4960018055565b5050565b6002818154811061064757600080fd5b60038181548110610c6d57600080fd5b9060005260206000209060089182820401919006600402915054906101000a900463ffffffff1681565b610c9f610cd2565b6001600160a01b038116610cc957604051631e4fbdf760e01b81526000600482015260240161060a565b61061381610f19565b6000546001600160a01b03163314610a995760405163118cdaa760e01b815233600482015260240161060a565b600260015403610d2257604051633ee5aeb560e01b815260040160405180910390fd5b6002600155565b6001600160a01b03831660009081526007602052604081208054849290610d5190849061142d565b90915550506003546000905b8015610e15576003610d70600183611446565b81548110610d8057610d80611401565b600091825260208083206008830401546001600160a01b038916845260079182905260409093205491166004026101000a90910463ffffffff1611610e03576002610dcc600183611446565b81548110610ddc57610ddc611401565b60009182526020918290209181049091015460ff601f9092166101000a9004169150610e15565b80610e0d81611459565b915050610d5d565b5060006064610e248385611470565b610e2e9190611487565b60405163a9059cbb60e01b81526001600160a01b038781166004830152602482018390529192507f00000000000000000000000000000000000000000000000000000000000000009091169063a9059cbb906044016020604051808303816000875af1158015610ea2573d6000803e3d6000fd5b505050506040513d601f19601f82011682018060405250810190610ec691906113df565b610f125760405162461bcd60e51b815260206004820152601860248201527f526566657272616c207472616e73666572206661696c65640000000000000000604482015260640161060a565b5050505050565b600080546001600160a01b038381166001600160a01b0319831681178455604051919092169283917f8be0079c531659141344cd1fd0a4f28419497f9722a3daafe3b4186f6b6457e09190a35050565b82805482825590600052602060002090601f01602090048101928215610fff5791602002820160005b83821115610fd057835183826101000a81548160ff021916908360ff1602179055509260200192600101602081600001049283019260010302610f92565b8015610ffd5782816101000a81549060ff0219169055600101602081600001049283019260010302610fd0565b505b5061100b92915061104a565b5090565b828054828255906000526020600020908101928215610fff579160200282015b82811115610fff57825182559160200191906001019061102f565b5b8082111561100b576000815560010161104b565b634e487b7160e01b600052604160045260246000fd5b604051601f8201601f1916810167ffffffffffffffff8111828210171561109e5761109e61105f565b604052919050565b600067ffffffffffffffff8211156110c0576110c061105f565b5060051b60200190565b803560ff811681146110db57600080fd5b919050565b600082601f8301126110f157600080fd5b81356111046110ff826110a6565b611075565b8082825260208201915060208360051b86010192508583111561112657600080fd5b602085015b8381101561114a5761113c816110ca565b83526020928301920161112b565b5095945050505050565b60008060006060848603121561116957600080fd5b833567ffffffffffffffff81111561118057600080fd5b61118c868287016110e0565b935050602084013567ffffffffffffffff8111156111a957600080fd5b6111b5868287016110e0565b925050604084013567ffffffffffffffff8111156111d257600080fd5b8401601f810186136111e357600080fd5b80356111f16110ff826110a6565b8082825260208201915060208360051b85010192508883111561121357600080fd5b6020840193505b8284101561123557833582526020938401939091019061121a565b809450505050509250925092565b60006020828403121561125557600080fd5b5035919050565b80356001600160a01b03811681146110db57600080fd5b6000806000806080858703121561128957600080fd5b6112928561125c565b93506112a0602086016110ca565b92506112ae6040860161125c565b9150606085013561ffff811681146112c557600080fd5b939692955090935050565b600081518084526020840193506020830160005b8281101561130557815160ff168652602095860195909101906001016112e4565b5093949350505050565b60608152600061132260608301866112d0565b828103602084015261133481866112d0565b83810360408501528451808252602080870193509091019060005b8181101561136d57835183526020938401939092019160010161134f565b5090979650505050505050565b60006020828403121561138c57600080fd5b6113958261125c565b9392505050565b600080604083850312156113af57600080fd5b6113b88361125c565b946020939093013593505050565b6000602082840312156113d857600080fd5b5051919050565b6000602082840312156113f157600080fd5b8151801515811461139557600080fd5b634e487b7160e01b600052603260045260246000fd5b634e487b7160e01b600052601160045260246000fd5b8082018082111561144057611440611417565b92915050565b8181038181111561144057611440611417565b60008161146857611468611417565b506000190190565b808202811582820484141761144057611440611417565b6000826114a457634e487b7160e01b600052601260045260246000fd5b50049056fea26469706673582212204eb69ee47103275ffc69eb60704500abe5c398bf3b7bc91dae51fc9a0353a27664736f6c634300081c0033",
  "linkReferences": {},
  "deployedLinkReferences": {}
}