{
  "_format": "hh-sol-artifact-1",
  "contractName": "GenerateNewShip",
  "sourceName": "contracts/GenerateNewShip.sol",
  "abi": [
    {
      "inputs": [
        {
          "internalType": "address",
          "name": "_shipNames",
          "type": "address"
        }
      ],
      "stateMutability": "nonpayable",
      "type": "constructor"
    },
    {
      "inputs": [
        {
          "internalType": "uint64",
          "name": "randomBase",
          "type": "uint64"
        },
        {
          "internalType": "uint256",
          "name": "id",
          "type": "uint256"
        },
        {
          "internalType": "uint16",
          "name": "numberOfVariants",
          "type": "uint16"
        }
      ],
      "name": "generateShip",
      "outputs": [
        {
          "components": [
            {
              "internalType": "string",
              "name": "name",
              "type": "string"
            },
            {
              "internalType": "uint256",
              "name": "id",
              "type": "uint256"
            },
            {
              "components": [
                {
                  "internalType": "enum MainWeapon",
                  "name": "mainWeapon",
                  "type": "uint8"
                },
                {
                  "internalType": "enum Armor",
                  "name": "armor",
                  "type": "uint8"
                },
                {
                  "internalType": "enum Shields",
                  "name": "shields",
                  "type": "uint8"
                },
                {
                  "internalType": "enum Special",
                  "name": "special",
                  "type": "uint8"
                }
              ],
              "internalType": "struct Equipment",
              "name": "equipment",
              "type": "tuple"
            },
            {
              "components": [
                {
                  "internalType": "uint256",
                  "name": "serialNumber",
                  "type": "uint256"
                },
                {
                  "internalType": "uint8",
                  "name": "r1",
                  "type": "uint8"
                },
                {
                  "internalType": "uint8",
                  "name": "g1",
                  "type": "uint8"
                },
                {
                  "internalType": "uint8",
                  "name": "b1",
                  "type": "uint8"
                },
                {
                  "internalType": "uint8",
                  "name": "r2",
                  "type": "uint8"
                },
                {
                  "internalType": "uint8",
                  "name": "g2",
                  "type": "uint8"
                },
                {
                  "internalType": "uint8",
                  "name": "b2",
                  "type": "uint8"
                },
                {
                  "internalType": "uint8",
                  "name": "variant",
                  "type": "uint8"
                },
                {
                  "internalType": "uint8",
                  "name": "accuracy",
                  "type": "uint8"
                },
                {
                  "internalType": "uint8",
                  "name": "hull",
                  "type": "uint8"
                },
                {
                  "internalType": "uint8",
                  "name": "speed",
                  "type": "uint8"
                }
              ],
              "internalType": "struct Traits",
              "name": "traits",
              "type": "tuple"
            },
            {
              "components": [
                {
                  "internalType": "uint256",
                  "name": "gameId",
                  "type": "uint256"
                },
                {
                  "components": [
                    {
                      "internalType": "uint8",
                      "name": "version",
                      "type": "uint8"
                    },
                    {
                      "internalType": "uint8",
                      "name": "range",
                      "type": "uint8"
                    },
                    {
                      "internalType": "uint8",
                      "name": "gunDamage",
                      "type": "uint8"
                    },
                    {
                      "internalType": "uint8",
                      "name": "hullPoints",
                      "type": "uint8"
                    },
                    {
                      "internalType": "uint8",
                      "name": "movement",
                      "type": "uint8"
                    },
                    {
                      "internalType": "uint8[]",
                      "name": "statusEffects",
                      "type": "uint8[]"
                    }
                  ],
                  "internalType": "struct Attributes",
                  "name": "attributes",
                  "type": "tuple"
                },
                {
                  "internalType": "uint8",
                  "name": "damageTaken",
                  "type": "uint8"
                },
                {
                  "internalType": "bool",
                  "name": "inLobby",
                  "type": "bool"
                },
                {
                  "internalType": "bool",
                  "name": "movedThisTurn",
                  "type": "bool"
                },
                {
                  "internalType": "bool",
                  "name": "firedThisTurn",
                  "type": "bool"
                }
              ],
              "internalType": "struct GameData",
              "name": "gameData",
              "type": "tuple"
            },
            {
              "components": [
                {
                  "internalType": "uint32",
                  "name": "shipsDestroyed",
                  "type": "uint32"
                },
                {
                  "internalType": "uint16",
                  "name": "costsVersion",
                  "type": "uint16"
                },
                {
                  "internalType": "uint16",
                  "name": "cost",
                  "type": "uint16"
                },
                {
                  "internalType": "bool",
                  "name": "shiny",
                  "type": "bool"
                },
                {
                  "internalType": "bool",
                  "name": "constructed",
                  "type": "bool"
                },
                {
                  "internalType": "bool",
                  "name": "inFleet",
                  "type": "bool"
                },
                {
                  "internalType": "uint256",
                  "name": "timestampDestroyed",
                  "type": "uint256"
                }
              ],
              "internalType": "struct ShipData",
              "name": "shipData",
              "type": "tuple"
            },
            {
              "internalType": "address",
              "name": "owner",
              "type": "address"
            }
          ],
          "internalType": "struct Ship",
          "name": "",
          "type": "tuple"
        }
      ],
      "stateMutability": "view",
      "type": "function"
    },
    {
      "inputs": [
        {
          "internalType": "uint256",
          "name": "_trait",
          "type": "uint256"
        }
      ],
      "name": "getTierOfTrait",
      "outputs": [
        {
          "internalType": "uint8",
          "name": "",
          "type": "uint8"
        }
      ],
      "stateMutability": "pure",
      "type": "function"
    },
    {
      "inputs": [],
      "name": "shipNames",
      "outputs": [
        {
          "internalType": "contract IOnchainRandomShipNames",
          "name": "",
          "type": "address"
        }
      ],
      "stateMutability": "view",
      "type": "function"
    }
  ],
  "bytecode": "0x60a0604052348015600f57600080fd5b5060405161101b38038061101b833981016040819052602c91603c565b6001600160a01b0316608052606a565b600060208284031215604d57600080fd5b81516001600160a01b0381168114606357600080fd5b9392505050565b608051610f9061008b60003960008181609501526101210152610f906000f3fe608060405234801561001057600080fd5b50600436106100415760003560e01c80636e0f7a48146100465780638bf0bf0f14610070578063a355a6da14610090575b600080fd5b6100596100543660046109e4565b6100cf565b60405160ff90911681526020015b60405180910390f35b61008361007e3660046109fd565b6100fb565b6040516100679190610d40565b6100b77f000000000000000000000000000000000000000000000000000000000000000081565b6040516001600160a01b039091168152602001610067565b600060328210156100e257506000919050565b60508210156100f357506001919050565b506002919050565b61010361088f565b61010b61088f565b602081018490528461011c81610e0f565b9550507f00000000000000000000000000000000000000000000000000000000000000006001600160a01b031663549188c68660405160200161015f9190610e3c565b60408051808303601f1901815290829052805160209091012060e083901b6001600160e01b03191682526004820152602401600060405180830381865afa1580156101ae573d6000803e3d6000fd5b505050506040513d6000823e601f3d908101601f191682016040526101d69190810190610e6a565b8152846101e281610e0f565b955050610100856040516020016101f99190610e3c565b6040516020818303038152906040528051906020012060001c61021c9190610f1f565b606082015160ff9091166020909101528461023681610e0f565b9550506101008560405160200161024d9190610e3c565b6040516020818303038152906040528051906020012060001c6102709190610f1f565b606082015160ff9091166040909101528461028a81610e0f565b955050610100856040516020016102a19190610e3c565b6040516020818303038152906040528051906020012060001c6102c49190610f1f565b60608083015160ff909216910152846102dc81610e0f565b955050610100856040516020016102f39190610e3c565b6040516020818303038152906040528051906020012060001c6103169190610f1f565b606082015160ff9091166080909101528461033081610e0f565b955050610100856040516020016103479190610e3c565b6040516020818303038152906040528051906020012060001c61036a9190610f1f565b606082015160ff90911660a0909101528461038481610e0f565b9550506101008560405160200161039b9190610e3c565b6040516020818303038152906040528051906020012060001c6103be9190610f1f565b606082015160ff90911660c090910152846103d881610e0f565b9550506104146064866040516020016103f19190610e3c565b6040516020818303038152906040528051906020012060001c6100549190610f1f565b606082015160ff909116610100909101528461042f81610e0f565b9550506104486064866040516020016103f19190610e3c565b606082015160ff909116610120909101528461046381610e0f565b95505061047c6064866040516020016103f19190610e3c565b606082015160ff909116610140909101528461049781610e0f565b9550508261ffff16856040516020016104b09190610e3c565b6040516020818303038152906040528051906020012060001c6104d39190610f1f565b606082015160ff90911660e090910152846104ed81610e0f565b9550506004856040516020016105039190610e3c565b6040516020818303038152906040528051906020012060001c6105269190610f1f565b600381111561053757610537610a77565b604082015190600381111561054e5761054e610a77565b9081600381111561056157610561610a77565b9052508461056e81610e0f565b95505060006002866040516020016105869190610e3c565b6040516020818303038152906040528051906020012060001c6105a99190610f1f565b159050856105b681610e0f565b965050801561063b576004866040516020016105d29190610e3c565b6040516020818303038152906040528051906020012060001c6105f59190610f1f565b600381111561060657610606610a77565b826040015160200190600381111561062057610620610a77565b9081600381111561063357610633610a77565b9052506106b3565b60048660405160200161064e9190610e3c565b6040516020818303038152906040528051906020012060001c6106719190610f1f565b600381111561068257610682610a77565b826040015160400190600381111561069c5761069c610a77565b908160038111156106af576106af610a77565b9052505b856106bd81610e0f565b9650506004866040516020016106d39190610e3c565b6040516020818303038152906040528051906020012060001c6106f69190610f1f565b600381111561070757610707610a77565b826040015160600190600381111561072157610721610a77565b9081600381111561073457610734610a77565b81525050600060648760405160200161074d9190610e3c565b6040516020818303038152906040528051906020012060001c6107709190610f1f565b9050806000036107885760a083015160016060909101525b8661079281610e0f565b97505060006064886040516020016107aa9190610e3c565b6040516020818303038152906040528051906020012060001c6107cd9190610f1f565b9050604b811015610801576107e3600582610f1f565b6107ee906001610f41565b60a085015161ffff919091169052610883565b605a81101561082057610815600582610f1f565b6107ee906006610f41565b605f81101561083f57610834602882610f1f565b6107ee90600b610f41565b606381101561085e57610853603282610f1f565b6107ee906033610f41565b610869603282610f1f565b610874906065610f41565b60a085015161ffff9190911690525b50919695505050505050565b6040518060e0016040528060608152602001600081526020016108d36040805160808101909152806000815260200160008152602001600081526020016000905290565b8152604080516101608101825260008082526020828101829052928201819052606082018190526080820181905260a0820181905260c0820181905260e0820181905261010082018190526101208201819052610140820152910190815260200161099b6040805160c0808201835260008083528351918201845280825260208281018290529382018190526060808301829052608083019190915260a082015290918201908152600060208201819052604082018190526060820181905260809091015290565b81526040805160e08101825260008082526020828101829052928201819052606082018190526080820181905260a0820181905260c08201529101908152600060209091015290565b6000602082840312156109f657600080fd5b5035919050565b600080600060608486031215610a1257600080fd5b833567ffffffffffffffff81168114610a2a57600080fd5b925060208401359150604084013561ffff81168114610a4857600080fd5b809150509250925092565b60005b83811015610a6e578181015183820152602001610a56565b50506000910152565b634e487b7160e01b600052602160045260246000fd5b60048110610aab57634e487b7160e01b600052602160045260246000fd5b50565b8051610ab981610a8d565b82526020810151610ac981610a8d565b60208301526040810151610adc81610a8d565b60408301526060810151610aef81610a8d565b806060840152505050565b805182526020810151610b12602084018260ff169052565b506040810151610b27604084018260ff169052565b506060810151610b3c606084018260ff169052565b506080810151610b51608084018260ff169052565b5060a0810151610b6660a084018260ff169052565b5060c0810151610b7b60c084018260ff169052565b5060e0810151610b9060e084018260ff169052565b50610100810151610ba761010084018260ff169052565b50610120810151610bbe61012084018260ff169052565b50610140810151610bd561014084018260ff169052565b505050565b600081518084526020840193506020830160005b82811015610c0f57815160ff16865260209586019590910190600101610bee565b5093949350505050565b805182526000602082015160c0602085015260ff81511660c085015260ff60208201511660e085015260ff60408201511661010085015260ff60608201511661012085015260ff60808201511661014085015260a0810151905060c0610160850152610c89610180850182610bda565b90506040830151610c9f604086018260ff169052565b506060830151610cb3606086018215159052565b506080830151610cc7608086018215159052565b5060a0830151610cdb60a086018215159052565b509392505050565b63ffffffff815116825261ffff602082015116602083015261ffff604082015116604083015260608101511515606083015260808101511515608083015260a0810151610d3460a084018215159052565b5060c090810151910152565b60208152600082516103406020840152805180610360850152610d6b81610380860160208501610a53565b601f19601f8201168401915050602084015160408401526040840151610d946060850182610aae565b506060840151610da760e0850182610afa565b50608084015161036084830301610240850152610dc8610380830182610c19565b91505060a0840151610dde610260850182610ce3565b5060c08401516001600160a01b038116610340850152610cdb565b634e487b7160e01b600052601160045260246000fd5b600067ffffffffffffffff821667ffffffffffffffff8103610e3357610e33610df9565b60010192915050565b60c09190911b6001600160c01b031916815260080190565b634e487b7160e01b600052604160045260246000fd5b600060208284031215610e7c57600080fd5b815167ffffffffffffffff811115610e9357600080fd5b8201601f81018413610ea457600080fd5b805167ffffffffffffffff811115610ebe57610ebe610e54565b604051601f8201601f19908116603f0116810167ffffffffffffffff81118282101715610eed57610eed610e54565b604052818152828201602001861015610f0557600080fd5b610f16826020830160208601610a53565b95945050505050565b600082610f3c57634e487b7160e01b600052601260045260246000fd5b500690565b80820180821115610f5457610f54610df9565b9291505056fea2646970667358221220809f0c231131540bfc3f59a62d9e1862dd711d2084dc7beb6e428e6937a0c89964736f6c634300081c0033",
  "linkReferences": {},
  "deployedLinkReferences": {}
}