{
  "_format": "hh-sol-artifact-1",
  "contractName": "Ships",
  "sourceName": "contracts/Ships.sol",
  "abi": [
    {
      "inputs": [
        {
          "internalType": "address",
          "name": "_renderer",
          "type": "address"
        }
      ],
      "stateMutability": "nonpayable",
      "type": "constructor"
    },
    {
      "inputs": [],
      "name": "ArrayLengthMismatch",
      "type": "error"
    },
    {
      "inputs": [
        {
          "internalType": "uint256",
          "name": "",
          "type": "uint256"
        }
      ],
      "name": "CannotRecycleFreeShip",
      "type": "error"
    },
    {
      "inputs": [],
      "name": "ClaimCooldownNotPassed",
      "type": "error"
    },
    {
      "inputs": [
        {
          "internalType": "address",
          "name": "sender",
          "type": "address"
        },
        {
          "internalType": "uint256",
          "name": "tokenId",
          "type": "uint256"
        },
        {
          "internalType": "address",
          "name": "owner",
          "type": "address"
        }
      ],
      "name": "ERC721IncorrectOwner",
      "type": "error"
    },
    {
      "inputs": [
        {
          "internalType": "address",
          "name": "operator",
          "type": "address"
        },
        {
          "internalType": "uint256",
          "name": "tokenId",
          "type": "uint256"
        }
      ],
      "name": "ERC721InsufficientApproval",
      "type": "error"
    },
    {
      "inputs": [
        {
          "internalType": "address",
          "name": "approver",
          "type": "address"
        }
      ],
      "name": "ERC721InvalidApprover",
      "type": "error"
    },
    {
      "inputs": [
        {
          "internalType": "address",
          "name": "operator",
          "type": "address"
        }
      ],
      "name": "ERC721InvalidOperator",
      "type": "error"
    },
    {
      "inputs": [
        {
          "internalType": "address",
          "name": "owner",
          "type": "address"
        }
      ],
      "name": "ERC721InvalidOwner",
      "type": "error"
    },
    {
      "inputs": [
        {
          "internalType": "address",
          "name": "receiver",
          "type": "address"
        }
      ],
      "name": "ERC721InvalidReceiver",
      "type": "error"
    },
    {
      "inputs": [
        {
          "internalType": "address",
          "name": "sender",
          "type": "address"
        }
      ],
      "name": "ERC721InvalidSender",
      "type": "error"
    },
    {
      "inputs": [
        {
          "internalType": "uint256",
          "name": "tokenId",
          "type": "uint256"
        }
      ],
      "name": "ERC721NonexistentToken",
      "type": "error"
    },
    {
      "inputs": [
        {
          "internalType": "address",
          "name": "",
          "type": "address"
        }
      ],
      "name": "InsufficientPurchases",
      "type": "error"
    },
    {
      "inputs": [
        {
          "internalType": "uint256",
          "name": "_tier",
          "type": "uint256"
        },
        {
          "internalType": "uint256",
          "name": "_amount",
          "type": "uint256"
        }
      ],
      "name": "InvalidPurchase",
      "type": "error"
    },
    {
      "inputs": [],
      "name": "InvalidReferral",
      "type": "error"
    },
    {
      "inputs": [
        {
          "internalType": "uint16",
          "name": "",
          "type": "uint16"
        }
      ],
      "name": "InvalidVariant",
      "type": "error"
    },
    {
      "inputs": [],
      "name": "MintPaused",
      "type": "error"
    },
    {
      "inputs": [
        {
          "internalType": "address",
          "name": "",
          "type": "address"
        }
      ],
      "name": "NotAuthorized",
      "type": "error"
    },
    {
      "inputs": [
        {
          "internalType": "uint256",
          "name": "",
          "type": "uint256"
        }
      ],
      "name": "NotYourShip",
      "type": "error"
    },
    {
      "inputs": [
        {
          "internalType": "address",
          "name": "owner",
          "type": "address"
        }
      ],
      "name": "OwnableInvalidOwner",
      "type": "error"
    },
    {
      "inputs": [
        {
          "internalType": "address",
          "name": "account",
          "type": "address"
        }
      ],
      "name": "OwnableUnauthorizedAccount",
      "type": "error"
    },
    {
      "inputs": [],
      "name": "ReentrancyGuardReentrantCall",
      "type": "error"
    },
    {
      "inputs": [],
      "name": "ReferralTransferFailed",
      "type": "error"
    },
    {
      "inputs": [
        {
          "internalType": "uint256",
          "name": "",
          "type": "uint256"
        }
      ],
      "name": "ShipAlreadyDestroyed",
      "type": "error"
    },
    {
      "inputs": [
        {
          "internalType": "uint256",
          "name": "",
          "type": "uint256"
        }
      ],
      "name": "ShipConstructed",
      "type": "error"
    },
    {
      "inputs": [],
      "name": "ShipDestroyed",
      "type": "error"
    },
    {
      "inputs": [
        {
          "internalType": "uint256",
          "name": "",
          "type": "uint256"
        }
      ],
      "name": "ShipInFleet",
      "type": "error"
    },
    {
      "inputs": [],
      "name": "WithdrawalFailed",
      "type": "error"
    },
    {
      "anonymous": false,
      "inputs": [
        {
          "indexed": true,
          "internalType": "address",
          "name": "owner",
          "type": "address"
        },
        {
          "indexed": true,
          "internalType": "address",
          "name": "approved",
          "type": "address"
        },
        {
          "indexed": true,
          "internalType": "uint256",
          "name": "tokenId",
          "type": "uint256"
        }
      ],
      "name": "Approval",
      "type": "event"
    },
    {
      "anonymous": false,
      "inputs": [
        {
          "indexed": true,
          "internalType": "address",
          "name": "owner",
          "type": "address"
        },
        {
          "indexed": true,
          "internalType": "address",
          "name": "operator",
          "type": "address"
        },
        {
          "indexed": false,
          "internalType": "bool",
          "name": "approved",
          "type": "bool"
        }
      ],
      "name": "ApprovalForAll",
      "type": "event"
    },
    {
      "anonymous": false,
      "inputs": [
        {
          "indexed": false,
          "internalType": "uint256",
          "name": "tokenId",
          "type": "uint256"
        }
      ],
      "name": "Locked",
      "type": "event"
    },
    {
      "anonymous": false,
      "inputs": [
        {
          "indexed": false,
          "internalType": "uint256",
          "name": "_tokenId",
          "type": "uint256"
        }
      ],
      "name": "MetadataUpdate",
      "type": "event"
    },
    {
      "anonymous": false,
      "inputs": [
        {
          "indexed": true,
          "internalType": "address",
          "name": "previousOwner",
          "type": "address"
        },
        {
          "indexed": true,
          "internalType": "address",
          "name": "newOwner",
          "type": "address"
        }
      ],
      "name": "OwnershipTransferred",
      "type": "event"
    },
    {
      "anonymous": false,
      "inputs": [
        {
          "indexed": true,
          "internalType": "address",
          "name": "from",
          "type": "address"
        },
        {
          "indexed": true,
          "internalType": "address",
          "name": "to",
          "type": "address"
        },
        {
          "indexed": true,
          "internalType": "uint256",
          "name": "tokenId",
          "type": "uint256"
        }
      ],
      "name": "Transfer",
      "type": "event"
    },
    {
      "anonymous": false,
      "inputs": [
        {
          "indexed": false,
          "internalType": "uint256",
          "name": "tokenId",
          "type": "uint256"
        }
      ],
      "name": "Unlocked",
      "type": "event"
    },
    {
      "inputs": [
        {
          "internalType": "address",
          "name": "",
          "type": "address"
        }
      ],
      "name": "amountPurchased",
      "outputs": [
        {
          "internalType": "uint256",
          "name": "",
          "type": "uint256"
        }
      ],
      "stateMutability": "view",
      "type": "function"
    },
    {
      "inputs": [
        {
          "internalType": "address",
          "name": "to",
          "type": "address"
        },
        {
          "internalType": "uint256",
          "name": "tokenId",
          "type": "uint256"
        }
      ],
      "name": "approve",
      "outputs": [],
      "stateMutability": "nonpayable",
      "type": "function"
    },
    {
      "inputs": [
        {
          "internalType": "address",
          "name": "owner",
          "type": "address"
        }
      ],
      "name": "balanceOf",
      "outputs": [
        {
          "internalType": "uint256",
          "name": "",
          "type": "uint256"
        }
      ],
      "stateMutability": "view",
      "type": "function"
    },
    {
      "inputs": [],
      "name": "claimCooldownPeriod",
      "outputs": [
        {
          "internalType": "uint256",
          "name": "",
          "type": "uint256"
        }
      ],
      "stateMutability": "view",
      "type": "function"
    },
    {
      "inputs": [
        {
          "internalType": "uint16",
          "name": "_variant",
          "type": "uint16"
        }
      ],
      "name": "claimFreeShips",
      "outputs": [],
      "stateMutability": "nonpayable",
      "type": "function"
    },
    {
      "inputs": [],
      "name": "config",
      "outputs": [
        {
          "internalType": "address",
          "name": "gameAddress",
          "type": "address"
        },
        {
          "internalType": "address",
          "name": "lobbyAddress",
          "type": "address"
        },
        {
          "internalType": "address",
          "name": "fleetsAddress",
          "type": "address"
        },
        {
          "internalType": "contract IRenderMetadata",
          "name": "metadataRenderer",
          "type": "address"
        },
        {
          "internalType": "contract IRandomManager",
          "name": "randomManager",
          "type": "address"
        },
        {
          "internalType": "contract IGenerateNewShip",
          "name": "shipGenerator",
          "type": "address"
        },
        {
          "internalType": "contract IShipAttributes",
          "name": "shipAttributes",
          "type": "address"
        }
      ],
      "stateMutability": "view",
      "type": "function"
    },
    {
      "inputs": [],
      "name": "constructAllMyShips",
      "outputs": [],
      "stateMutability": "nonpayable",
      "type": "function"
    },
    {
      "inputs": [
        {
          "internalType": "uint256",
          "name": "_id",
          "type": "uint256"
        }
      ],
      "name": "constructShip",
      "outputs": [],
      "stateMutability": "nonpayable",
      "type": "function"
    },
    {
      "inputs": [
        {
          "internalType": "uint256[]",
          "name": "_ids",
          "type": "uint256[]"
        }
      ],
      "name": "constructShips",
      "outputs": [],
      "stateMutability": "nonpayable",
      "type": "function"
    },
    {
      "inputs": [
        {
          "internalType": "address",
          "name": "_to",
          "type": "address"
        },
        {
          "internalType": "uint256",
          "name": "_amount",
          "type": "uint256"
        },
        {
          "internalType": "uint16",
          "name": "_variant",
          "type": "uint16"
        },
        {
          "internalType": "uint8",
          "name": "_tier",
          "type": "uint8"
        }
      ],
      "name": "createShips",
      "outputs": [],
      "stateMutability": "nonpayable",
      "type": "function"
    },
    {
      "inputs": [
        {
          "internalType": "uint256",
          "name": "_id",
          "type": "uint256"
        },
        {
          "components": [
            {
              "internalType": "string",
              "name": "name",
              "type": "string"
            },
            {
              "internalType": "uint256",
              "name": "id",
              "type": "uint256"
            },
            {
              "components": [
                {
                  "internalType": "enum MainWeapon",
                  "name": "mainWeapon",
                  "type": "uint8"
                },
                {
                  "internalType": "enum Armor",
                  "name": "armor",
                  "type": "uint8"
                },
                {
                  "internalType": "enum Shields",
                  "name": "shields",
                  "type": "uint8"
                },
                {
                  "internalType": "enum Special",
                  "name": "special",
                  "type": "uint8"
                }
              ],
              "internalType": "struct Equipment",
              "name": "equipment",
              "type": "tuple"
            },
            {
              "components": [
                {
                  "internalType": "uint256",
                  "name": "serialNumber",
                  "type": "uint256"
                },
                {
                  "components": [
                    {
                      "internalType": "uint16",
                      "name": "h1",
                      "type": "uint16"
                    },
                    {
                      "internalType": "uint8",
                      "name": "s1",
                      "type": "uint8"
                    },
                    {
                      "internalType": "uint8",
                      "name": "l1",
                      "type": "uint8"
                    },
                    {
                      "internalType": "uint16",
                      "name": "h2",
                      "type": "uint16"
                    },
                    {
                      "internalType": "uint8",
                      "name": "s2",
                      "type": "uint8"
                    },
                    {
                      "internalType": "uint8",
                      "name": "l2",
                      "type": "uint8"
                    },
                    {
                      "internalType": "uint16",
                      "name": "h3",
                      "type": "uint16"
                    },
                    {
                      "internalType": "uint8",
                      "name": "s3",
                      "type": "uint8"
                    },
                    {
                      "internalType": "uint8",
                      "name": "l3",
                      "type": "uint8"
                    }
                  ],
                  "internalType": "struct Colors",
                  "name": "colors",
                  "type": "tuple"
                },
                {
                  "internalType": "uint16",
                  "name": "variant",
                  "type": "uint16"
                },
                {
                  "internalType": "uint8",
                  "name": "accuracy",
                  "type": "uint8"
                },
                {
                  "internalType": "uint8",
                  "name": "hull",
                  "type": "uint8"
                },
                {
                  "internalType": "uint8",
                  "name": "speed",
                  "type": "uint8"
                }
              ],
              "internalType": "struct Traits",
              "name": "traits",
              "type": "tuple"
            },
            {
              "components": [
                {
                  "internalType": "uint32",
                  "name": "shipsDestroyed",
                  "type": "uint32"
                },
                {
                  "internalType": "uint16",
                  "name": "costsVersion",
                  "type": "uint16"
                },
                {
                  "internalType": "uint16",
                  "name": "cost",
                  "type": "uint16"
                },
                {
                  "internalType": "uint16",
                  "name": "modified",
                  "type": "uint16"
                },
                {
                  "internalType": "bool",
                  "name": "shiny",
                  "type": "bool"
                },
                {
                  "internalType": "bool",
                  "name": "constructed",
                  "type": "bool"
                },
                {
                  "internalType": "bool",
                  "name": "inFleet",
                  "type": "bool"
                },
                {
                  "internalType": "bool",
                  "name": "isFreeShip",
                  "type": "bool"
                },
                {
                  "internalType": "uint256",
                  "name": "timestampDestroyed",
                  "type": "uint256"
                }
              ],
              "internalType": "struct ShipData",
              "name": "shipData",
              "type": "tuple"
            },
            {
              "internalType": "address",
              "name": "owner",
              "type": "address"
            }
          ],
          "internalType": "struct Ship",
          "name": "_ship",
          "type": "tuple"
        }
      ],
      "name": "customizeShip",
      "outputs": [],
      "stateMutability": "nonpayable",
      "type": "function"
    },
    {
      "inputs": [
        {
          "internalType": "uint256",
          "name": "tokenId",
          "type": "uint256"
        }
      ],
      "name": "getApproved",
      "outputs": [
        {
          "internalType": "address",
          "name": "",
          "type": "address"
        }
      ],
      "stateMutability": "view",
      "type": "function"
    },
    {
      "inputs": [],
      "name": "getPurchaseInfo",
      "outputs": [
        {
          "internalType": "uint8[]",
          "name": "_purchaseTiers",
          "type": "uint8[]"
        },
        {
          "internalType": "uint8[]",
          "name": "_tierShips",
          "type": "uint8[]"
        },
        {
          "internalType": "uint256[]",
          "name": "_tierPrices",
          "type": "uint256[]"
        }
      ],
      "stateMutability": "view",
      "type": "function"
    },
    {
      "inputs": [
        {
          "internalType": "uint256",
          "name": "_id",
          "type": "uint256"
        }
      ],
      "name": "getShip",
      "outputs": [
        {
          "components": [
            {
              "internalType": "string",
              "name": "name",
              "type": "string"
            },
            {
              "internalType": "uint256",
              "name": "id",
              "type": "uint256"
            },
            {
              "components": [
                {
                  "internalType": "enum MainWeapon",
                  "name": "mainWeapon",
                  "type": "uint8"
                },
                {
                  "internalType": "enum Armor",
                  "name": "armor",
                  "type": "uint8"
                },
                {
                  "internalType": "enum Shields",
                  "name": "shields",
                  "type": "uint8"
                },
                {
                  "internalType": "enum Special",
                  "name": "special",
                  "type": "uint8"
                }
              ],
              "internalType": "struct Equipment",
              "name": "equipment",
              "type": "tuple"
            },
            {
              "components": [
                {
                  "internalType": "uint256",
                  "name": "serialNumber",
                  "type": "uint256"
                },
                {
                  "components": [
                    {
                      "internalType": "uint16",
                      "name": "h1",
                      "type": "uint16"
                    },
                    {
                      "internalType": "uint8",
                      "name": "s1",
                      "type": "uint8"
                    },
                    {
                      "internalType": "uint8",
                      "name": "l1",
                      "type": "uint8"
                    },
                    {
                      "internalType": "uint16",
                      "name": "h2",
                      "type": "uint16"
                    },
                    {
                      "internalType": "uint8",
                      "name": "s2",
                      "type": "uint8"
                    },
                    {
                      "internalType": "uint8",
                      "name": "l2",
                      "type": "uint8"
                    },
                    {
                      "internalType": "uint16",
                      "name": "h3",
                      "type": "uint16"
                    },
                    {
                      "internalType": "uint8",
                      "name": "s3",
                      "type": "uint8"
                    },
                    {
                      "internalType": "uint8",
                      "name": "l3",
                      "type": "uint8"
                    }
                  ],
                  "internalType": "struct Colors",
                  "name": "colors",
                  "type": "tuple"
                },
                {
                  "internalType": "uint16",
                  "name": "variant",
                  "type": "uint16"
                },
                {
                  "internalType": "uint8",
                  "name": "accuracy",
                  "type": "uint8"
                },
                {
                  "internalType": "uint8",
                  "name": "hull",
                  "type": "uint8"
                },
                {
                  "internalType": "uint8",
                  "name": "speed",
                  "type": "uint8"
                }
              ],
              "internalType": "struct Traits",
              "name": "traits",
              "type": "tuple"
            },
            {
              "components": [
                {
                  "internalType": "uint32",
                  "name": "shipsDestroyed",
                  "type": "uint32"
                },
                {
                  "internalType": "uint16",
                  "name": "costsVersion",
                  "type": "uint16"
                },
                {
                  "internalType": "uint16",
                  "name": "cost",
                  "type": "uint16"
                },
                {
                  "internalType": "uint16",
                  "name": "modified",
                  "type": "uint16"
                },
                {
                  "internalType": "bool",
                  "name": "shiny",
                  "type": "bool"
                },
                {
                  "internalType": "bool",
                  "name": "constructed",
                  "type": "bool"
                },
                {
                  "internalType": "bool",
                  "name": "inFleet",
                  "type": "bool"
                },
                {
                  "internalType": "bool",
                  "name": "isFreeShip",
                  "type": "bool"
                },
                {
                  "internalType": "uint256",
                  "name": "timestampDestroyed",
                  "type": "uint256"
                }
              ],
              "internalType": "struct ShipData",
              "name": "shipData",
              "type": "tuple"
            },
            {
              "internalType": "address",
              "name": "owner",
              "type": "address"
            }
          ],
          "internalType": "struct Ship",
          "name": "",
          "type": "tuple"
        }
      ],
      "stateMutability": "view",
      "type": "function"
    },
    {
      "inputs": [
        {
          "internalType": "address",
          "name": "_owner",
          "type": "address"
        }
      ],
      "name": "getShipIdsOwned",
      "outputs": [
        {
          "internalType": "uint256[]",
          "name": "",
          "type": "uint256[]"
        }
      ],
      "stateMutability": "view",
      "type": "function"
    },
    {
      "inputs": [
        {
          "internalType": "uint256[]",
          "name": "_ids",
          "type": "uint256[]"
        }
      ],
      "name": "getShipsByIds",
      "outputs": [
        {
          "components": [
            {
              "internalType": "string",
              "name": "name",
              "type": "string"
            },
            {
              "internalType": "uint256",
              "name": "id",
              "type": "uint256"
            },
            {
              "components": [
                {
                  "internalType": "enum MainWeapon",
                  "name": "mainWeapon",
                  "type": "uint8"
                },
                {
                  "internalType": "enum Armor",
                  "name": "armor",
                  "type": "uint8"
                },
                {
                  "internalType": "enum Shields",
                  "name": "shields",
                  "type": "uint8"
                },
                {
                  "internalType": "enum Special",
                  "name": "special",
                  "type": "uint8"
                }
              ],
              "internalType": "struct Equipment",
              "name": "equipment",
              "type": "tuple"
            },
            {
              "components": [
                {
                  "internalType": "uint256",
                  "name": "serialNumber",
                  "type": "uint256"
                },
                {
                  "components": [
                    {
                      "internalType": "uint16",
                      "name": "h1",
                      "type": "uint16"
                    },
                    {
                      "internalType": "uint8",
                      "name": "s1",
                      "type": "uint8"
                    },
                    {
                      "internalType": "uint8",
                      "name": "l1",
                      "type": "uint8"
                    },
                    {
                      "internalType": "uint16",
                      "name": "h2",
                      "type": "uint16"
                    },
                    {
                      "internalType": "uint8",
                      "name": "s2",
                      "type": "uint8"
                    },
                    {
                      "internalType": "uint8",
                      "name": "l2",
                      "type": "uint8"
                    },
                    {
                      "internalType": "uint16",
                      "name": "h3",
                      "type": "uint16"
                    },
                    {
                      "internalType": "uint8",
                      "name": "s3",
                      "type": "uint8"
                    },
                    {
                      "internalType": "uint8",
                      "name": "l3",
                      "type": "uint8"
                    }
                  ],
                  "internalType": "struct Colors",
                  "name": "colors",
                  "type": "tuple"
                },
                {
                  "internalType": "uint16",
                  "name": "variant",
                  "type": "uint16"
                },
                {
                  "internalType": "uint8",
                  "name": "accuracy",
                  "type": "uint8"
                },
                {
                  "internalType": "uint8",
                  "name": "hull",
                  "type": "uint8"
                },
                {
                  "internalType": "uint8",
                  "name": "speed",
                  "type": "uint8"
                }
              ],
              "internalType": "struct Traits",
              "name": "traits",
              "type": "tuple"
            },
            {
              "components": [
                {
                  "internalType": "uint32",
                  "name": "shipsDestroyed",
                  "type": "uint32"
                },
                {
                  "internalType": "uint16",
                  "name": "costsVersion",
                  "type": "uint16"
                },
                {
                  "internalType": "uint16",
                  "name": "cost",
                  "type": "uint16"
                },
                {
                  "internalType": "uint16",
                  "name": "modified",
                  "type": "uint16"
                },
                {
                  "internalType": "bool",
                  "name": "shiny",
                  "type": "bool"
                },
                {
                  "internalType": "bool",
                  "name": "constructed",
                  "type": "bool"
                },
                {
                  "internalType": "bool",
                  "name": "inFleet",
                  "type": "bool"
                },
                {
                  "internalType": "bool",
                  "name": "isFreeShip",
                  "type": "bool"
                },
                {
                  "internalType": "uint256",
                  "name": "timestampDestroyed",
                  "type": "uint256"
                }
              ],
              "internalType": "struct ShipData",
              "name": "shipData",
              "type": "tuple"
            },
            {
              "internalType": "address",
              "name": "owner",
              "type": "address"
            }
          ],
          "internalType": "struct Ship[]",
          "name": "",
          "type": "tuple[]"
        }
      ],
      "stateMutability": "view",
      "type": "function"
    },
    {
      "inputs": [
        {
          "internalType": "uint256",
          "name": "_trait",
          "type": "uint256"
        }
      ],
      "name": "getTierOfTrait",
      "outputs": [
        {
          "internalType": "uint8",
          "name": "",
          "type": "uint8"
        }
      ],
      "stateMutability": "pure",
      "type": "function"
    },
    {
      "inputs": [
        {
          "internalType": "address",
          "name": "",
          "type": "address"
        }
      ],
      "name": "isAllowedToCreateShips",
      "outputs": [
        {
          "internalType": "bool",
          "name": "",
          "type": "bool"
        }
      ],
      "stateMutability": "view",
      "type": "function"
    },
    {
      "inputs": [
        {
          "internalType": "address",
          "name": "owner",
          "type": "address"
        },
        {
          "internalType": "address",
          "name": "operator",
          "type": "address"
        }
      ],
      "name": "isApprovedForAll",
      "outputs": [
        {
          "internalType": "bool",
          "name": "",
          "type": "bool"
        }
      ],
      "stateMutability": "view",
      "type": "function"
    },
    {
      "inputs": [
        {
          "internalType": "uint256",
          "name": "_id",
          "type": "uint256"
        }
      ],
      "name": "isShipDestroyed",
      "outputs": [
        {
          "internalType": "bool",
          "name": "",
          "type": "bool"
        }
      ],
      "stateMutability": "view",
      "type": "function"
    },
    {
      "inputs": [
        {
          "internalType": "address",
          "name": "",
          "type": "address"
        }
      ],
      "name": "lastClaimTimestamp",
      "outputs": [
        {
          "internalType": "uint256",
          "name": "",
          "type": "uint256"
        }
      ],
      "stateMutability": "view",
      "type": "function"
    },
    {
      "inputs": [],
      "name": "maxVariant",
      "outputs": [
        {
          "internalType": "uint16",
          "name": "",
          "type": "uint16"
        }
      ],
      "stateMutability": "view",
      "type": "function"
    },
    {
      "inputs": [],
      "name": "name",
      "outputs": [
        {
          "internalType": "string",
          "name": "",
          "type": "string"
        }
      ],
      "stateMutability": "view",
      "type": "function"
    },
    {
      "inputs": [],
      "name": "owner",
      "outputs": [
        {
          "internalType": "address",
          "name": "",
          "type": "address"
        }
      ],
      "stateMutability": "view",
      "type": "function"
    },
    {
      "inputs": [
        {
          "internalType": "uint256",
          "name": "tokenId",
          "type": "uint256"
        }
      ],
      "name": "ownerOf",
      "outputs": [
        {
          "internalType": "address",
          "name": "",
          "type": "address"
        }
      ],
      "stateMutability": "view",
      "type": "function"
    },
    {
      "inputs": [],
      "name": "paused",
      "outputs": [
        {
          "internalType": "bool",
          "name": "",
          "type": "bool"
        }
      ],
      "stateMutability": "view",
      "type": "function"
    },
    {
      "inputs": [
        {
          "internalType": "uint256",
          "name": "",
          "type": "uint256"
        }
      ],
      "name": "purchaseTiers",
      "outputs": [
        {
          "internalType": "uint8",
          "name": "",
          "type": "uint8"
        }
      ],
      "stateMutability": "view",
      "type": "function"
    },
    {
      "inputs": [
        {
          "internalType": "address",
          "name": "_to",
          "type": "address"
        },
        {
          "internalType": "uint8",
          "name": "_tier",
          "type": "uint8"
        },
        {
          "internalType": "address",
          "name": "_referral",
          "type": "address"
        },
        {
          "internalType": "uint16",
          "name": "_variant",
          "type": "uint16"
        }
      ],
      "name": "purchaseWithFlow",
      "outputs": [],
      "stateMutability": "payable",
      "type": "function"
    },
    {
      "inputs": [],
      "name": "recycleReward",
      "outputs": [
        {
          "internalType": "uint256",
          "name": "",
          "type": "uint256"
        }
      ],
      "stateMutability": "view",
      "type": "function"
    },
    {
      "inputs": [
        {
          "internalType": "address",
          "name": "",
          "type": "address"
        }
      ],
      "name": "referralCount",
      "outputs": [
        {
          "internalType": "uint256",
          "name": "",
          "type": "uint256"
        }
      ],
      "stateMutability": "view",
      "type": "function"
    },
    {
      "inputs": [],
      "name": "renounceOwnership",
      "outputs": [],
      "stateMutability": "nonpayable",
      "type": "function"
    },
    {
      "inputs": [
        {
          "internalType": "address",
          "name": "from",
          "type": "address"
        },
        {
          "internalType": "address",
          "name": "to",
          "type": "address"
        },
        {
          "internalType": "uint256",
          "name": "tokenId",
          "type": "uint256"
        }
      ],
      "name": "safeTransferFrom",
      "outputs": [],
      "stateMutability": "nonpayable",
      "type": "function"
    },
    {
      "inputs": [
        {
          "internalType": "address",
          "name": "from",
          "type": "address"
        },
        {
          "internalType": "address",
          "name": "to",
          "type": "address"
        },
        {
          "internalType": "uint256",
          "name": "tokenId",
          "type": "uint256"
        },
        {
          "internalType": "bytes",
          "name": "data",
          "type": "bytes"
        }
      ],
      "name": "safeTransferFrom",
      "outputs": [],
      "stateMutability": "nonpayable",
      "type": "function"
    },
    {
      "inputs": [
        {
          "internalType": "address",
          "name": "operator",
          "type": "address"
        },
        {
          "internalType": "bool",
          "name": "approved",
          "type": "bool"
        }
      ],
      "name": "setApprovalForAll",
      "outputs": [],
      "stateMutability": "nonpayable",
      "type": "function"
    },
    {
      "inputs": [
        {
          "internalType": "uint256",
          "name": "_newCooldownPeriod",
          "type": "uint256"
        }
      ],
      "name": "setClaimCooldownPeriod",
      "outputs": [],
      "stateMutability": "nonpayable",
      "type": "function"
    },
    {
      "inputs": [
        {
          "internalType": "address",
          "name": "_gameAddress",
          "type": "address"
        },
        {
          "internalType": "address",
          "name": "_lobbyAddress",
          "type": "address"
        },
        {
          "internalType": "address",
          "name": "_fleetsAddress",
          "type": "address"
        },
        {
          "internalType": "address",
          "name": "_shipGenerator",
          "type": "address"
        },
        {
          "internalType": "address",
          "name": "_randomManager",
          "type": "address"
        },
        {
          "internalType": "address",
          "name": "_metadataRenderer",
          "type": "address"
        },
        {
          "internalType": "address",
          "name": "_shipAttributes",
          "type": "address"
        },
        {
          "internalType": "address",
          "name": "_universalCredits",
          "type": "address"
        }
      ],
      "name": "setConfig",
      "outputs": [],
      "stateMutability": "nonpayable",
      "type": "function"
    },
    {
      "inputs": [
        {
          "internalType": "uint256",
          "name": "_id",
          "type": "uint256"
        }
      ],
      "name": "setCostOfShip",
      "outputs": [],
      "stateMutability": "nonpayable",
      "type": "function"
    },
    {
      "inputs": [
        {
          "internalType": "uint256",
          "name": "_id",
          "type": "uint256"
        },
        {
          "internalType": "bool",
          "name": "_inFleet",
          "type": "bool"
        }
      ],
      "name": "setInFleet",
      "outputs": [],
      "stateMutability": "nonpayable",
      "type": "function"
    },
    {
      "inputs": [
        {
          "internalType": "address",
          "name": "_address",
          "type": "address"
        },
        {
          "internalType": "bool",
          "name": "_isAllowed",
          "type": "bool"
        }
      ],
      "name": "setIsAllowedToCreateShips",
      "outputs": [],
      "stateMutability": "nonpayable",
      "type": "function"
    },
    {
      "inputs": [
        {
          "internalType": "uint16",
          "name": "_maxVariant",
          "type": "uint16"
        }
      ],
      "name": "setMaxVariant",
      "outputs": [],
      "stateMutability": "nonpayable",
      "type": "function"
    },
    {
      "inputs": [
        {
          "internalType": "bool",
          "name": "_paused",
          "type": "bool"
        }
      ],
      "name": "setPaused",
      "outputs": [],
      "stateMutability": "nonpayable",
      "type": "function"
    },
    {
      "inputs": [
        {
          "internalType": "uint8[]",
          "name": "_purchaseTiers",
          "type": "uint8[]"
        },
        {
          "internalType": "uint8[]",
          "name": "_tierShips",
          "type": "uint8[]"
        },
        {
          "internalType": "uint256[]",
          "name": "_tierPrices",
          "type": "uint256[]"
        }
      ],
      "name": "setPurchaseInfo",
      "outputs": [],
      "stateMutability": "nonpayable",
      "type": "function"
    },
    {
      "inputs": [
        {
          "internalType": "uint256",
          "name": "_newReward",
          "type": "uint256"
        }
      ],
      "name": "setRecycleReward",
      "outputs": [],
      "stateMutability": "nonpayable",
      "type": "function"
    },
    {
      "inputs": [
        {
          "internalType": "uint256",
          "name": "_id",
          "type": "uint256"
        },
        {
          "internalType": "uint256",
          "name": "_destroyerId",
          "type": "uint256"
        }
      ],
      "name": "setTimestampDestroyed",
      "outputs": [],
      "stateMutability": "nonpayable",
      "type": "function"
    },
    {
      "inputs": [
        {
          "internalType": "uint256[]",
          "name": "_shipIds",
          "type": "uint256[]"
        }
      ],
      "name": "shipBreaker",
      "outputs": [],
      "stateMutability": "nonpayable",
      "type": "function"
    },
    {
      "inputs": [],
      "name": "shipCount",
      "outputs": [
        {
          "internalType": "uint256",
          "name": "",
          "type": "uint256"
        }
      ],
      "stateMutability": "view",
      "type": "function"
    },
    {
      "inputs": [
        {
          "internalType": "uint256",
          "name": "",
          "type": "uint256"
        }
      ],
      "name": "ships",
      "outputs": [
        {
          "internalType": "string",
          "name": "name",
          "type": "string"
        },
        {
          "internalType": "uint256",
          "name": "id",
          "type": "uint256"
        },
        {
          "components": [
            {
              "internalType": "enum MainWeapon",
              "name": "mainWeapon",
              "type": "uint8"
            },
            {
              "internalType": "enum Armor",
              "name": "armor",
              "type": "uint8"
            },
            {
              "internalType": "enum Shields",
              "name": "shields",
              "type": "uint8"
            },
            {
              "internalType": "enum Special",
              "name": "special",
              "type": "uint8"
            }
          ],
          "internalType": "struct Equipment",
          "name": "equipment",
          "type": "tuple"
        },
        {
          "components": [
            {
              "internalType": "uint256",
              "name": "serialNumber",
              "type": "uint256"
            },
            {
              "components": [
                {
                  "internalType": "uint16",
                  "name": "h1",
                  "type": "uint16"
                },
                {
                  "internalType": "uint8",
                  "name": "s1",
                  "type": "uint8"
                },
                {
                  "internalType": "uint8",
                  "name": "l1",
                  "type": "uint8"
                },
                {
                  "internalType": "uint16",
                  "name": "h2",
                  "type": "uint16"
                },
                {
                  "internalType": "uint8",
                  "name": "s2",
                  "type": "uint8"
                },
                {
                  "internalType": "uint8",
                  "name": "l2",
                  "type": "uint8"
                },
                {
                  "internalType": "uint16",
                  "name": "h3",
                  "type": "uint16"
                },
                {
                  "internalType": "uint8",
                  "name": "s3",
                  "type": "uint8"
                },
                {
                  "internalType": "uint8",
                  "name": "l3",
                  "type": "uint8"
                }
              ],
              "internalType": "struct Colors",
              "name": "colors",
              "type": "tuple"
            },
            {
              "internalType": "uint16",
              "name": "variant",
              "type": "uint16"
            },
            {
              "internalType": "uint8",
              "name": "accuracy",
              "type": "uint8"
            },
            {
              "internalType": "uint8",
              "name": "hull",
              "type": "uint8"
            },
            {
              "internalType": "uint8",
              "name": "speed",
              "type": "uint8"
            }
          ],
          "internalType": "struct Traits",
          "name": "traits",
          "type": "tuple"
        },
        {
          "components": [
            {
              "internalType": "uint32",
              "name": "shipsDestroyed",
              "type": "uint32"
            },
            {
              "internalType": "uint16",
              "name": "costsVersion",
              "type": "uint16"
            },
            {
              "internalType": "uint16",
              "name": "cost",
              "type": "uint16"
            },
            {
              "internalType": "uint16",
              "name": "modified",
              "type": "uint16"
            },
            {
              "internalType": "bool",
              "name": "shiny",
              "type": "bool"
            },
            {
              "internalType": "bool",
              "name": "constructed",
              "type": "bool"
            },
            {
              "internalType": "bool",
              "name": "inFleet",
              "type": "bool"
            },
            {
              "internalType": "bool",
              "name": "isFreeShip",
              "type": "bool"
            },
            {
              "internalType": "uint256",
              "name": "timestampDestroyed",
              "type": "uint256"
            }
          ],
          "internalType": "struct ShipData",
          "name": "shipData",
          "type": "tuple"
        },
        {
          "internalType": "address",
          "name": "owner",
          "type": "address"
        }
      ],
      "stateMutability": "view",
      "type": "function"
    },
    {
      "inputs": [
        {
          "internalType": "bytes4",
          "name": "interfaceId",
          "type": "bytes4"
        }
      ],
      "name": "supportsInterface",
      "outputs": [
        {
          "internalType": "bool",
          "name": "",
          "type": "bool"
        }
      ],
      "stateMutability": "view",
      "type": "function"
    },
    {
      "inputs": [],
      "name": "symbol",
      "outputs": [
        {
          "internalType": "string",
          "name": "",
          "type": "string"
        }
      ],
      "stateMutability": "view",
      "type": "function"
    },
    {
      "inputs": [
        {
          "internalType": "uint256",
          "name": "",
          "type": "uint256"
        }
      ],
      "name": "tierPrices",
      "outputs": [
        {
          "internalType": "uint256",
          "name": "",
          "type": "uint256"
        }
      ],
      "stateMutability": "view",
      "type": "function"
    },
    {
      "inputs": [
        {
          "internalType": "uint256",
          "name": "",
          "type": "uint256"
        }
      ],
      "name": "tierShips",
      "outputs": [
        {
          "internalType": "uint8",
          "name": "",
          "type": "uint8"
        }
      ],
      "stateMutability": "view",
      "type": "function"
    },
    {
      "inputs": [
        {
          "internalType": "uint256",
          "name": "_id",
          "type": "uint256"
        }
      ],
      "name": "tokenURI",
      "outputs": [
        {
          "internalType": "string",
          "name": "",
          "type": "string"
        }
      ],
      "stateMutability": "view",
      "type": "function"
    },
    {
      "inputs": [
        {
          "internalType": "address",
          "name": "from",
          "type": "address"
        },
        {
          "internalType": "address",
          "name": "to",
          "type": "address"
        },
        {
          "internalType": "uint256",
          "name": "tokenId",
          "type": "uint256"
        }
      ],
      "name": "transferFrom",
      "outputs": [],
      "stateMutability": "nonpayable",
      "type": "function"
    },
    {
      "inputs": [
        {
          "internalType": "address",
          "name": "newOwner",
          "type": "address"
        }
      ],
      "name": "transferOwnership",
      "outputs": [],
      "stateMutability": "nonpayable",
      "type": "function"
    },
    {
      "inputs": [],
      "name": "universalCredits",
      "outputs": [
        {
          "internalType": "contract IUniversalCredits",
          "name": "",
          "type": "address"
        }
      ],
      "stateMutability": "view",
      "type": "function"
    },
    {
      "inputs": [],
      "name": "withdraw",
      "outputs": [],
      "stateMutability": "nonpayable",
      "type": "function"
    }
  ],
  "bytecode": "0x60806040526224ea00600d556019805462ffff00191661010017905567016345785d8a0000601c5534801561003357600080fd5b506040516164d73803806164d78339810160408190526100529161033c565b336040518060400160405280600e81526020016d57617270666c6f7720536869707360901b815250604051806040016040528060048152602001630534849560e41b81525081600090816100a6919061040b565b5060016100b3828261040b565b5050506001600160a01b0381166100e457604051631e4fbdf760e01b81526000600482015260240160405180910390fd5b6100ed816101e9565b5060016007819055601280546001600160a01b0319166001600160a01b0384161790556040805160a08101825291825260026020830152600390820152600460608201526005608082018190526101469160169161023b565b506040805160a0810182526005808252600b6020830152601c92820192909252603c6060820152607d6080820152610181916017919061023b565b506040805160a0810182526745400a8fd53300008152678aa39c121a270000602082015268015ace5098e9030000918101919091526802b5c0282441c70000606082015268056ba3d73af34f000060808201526101e29060189060056102e1565b50506104c9565b600680546001600160a01b038381166001600160a01b0319831681179093556040519116919082907f8be0079c531659141344cd1fd0a4f28419497f9722a3daafe3b4186f6b6457e090600090a35050565b82805482825590600052602060002090601f016020900481019282156102d15791602002820160005b838211156102a257835183826101000a81548160ff021916908360ff1602179055509260200192600101602081600001049283019260010302610264565b80156102cf5782816101000a81549060ff02191690556001016020816000010492830192600103026102a2565b505b506102dd929150610327565b5090565b8280548282559060005260206000209081019282156102d1579160200282015b828111156102d157825182906001600160481b0316905591602001919060010190610301565b5b808211156102dd5760008155600101610328565b60006020828403121561034e57600080fd5b81516001600160a01b038116811461036557600080fd5b9392505050565b634e487b7160e01b600052604160045260246000fd5b600181811c9082168061039657607f821691505b6020821081036103b657634e487b7160e01b600052602260045260246000fd5b50919050565b601f82111561040657806000526020600020601f840160051c810160208510156103e35750805b601f840160051c820191505b8181101561040357600081556001016103ef565b50505b505050565b81516001600160401b038111156104245761042461036c565b610438816104328454610382565b846103bc565b6020601f82116001811461046c57600083156104545750848201515b600019600385901b1c1916600184901b178455610403565b600084815260208120601f198516915b8281101561049c578785015182556020948501946001909201910161047c565b50848210156104ba5786840151600019600387901b60f8161c191681555b50505050600190811b01905550565b615fff806104d86000396000f3fe60806040526004361061036a5760003560e01c80636e0f7a48116101c6578063977216c2116100f7578063db74559b11610095578063e6b5c3351161006f578063e6b5c33514610adb578063e985e9c514610afb578063f25a034214610b1b578063f2fde38b14610b4857600080fd5b8063db74559b14610a6e578063dd77071214610a9b578063dd81d5bf14610abb57600080fd5b8063b88d4fde116100d1578063b88d4fde146109eb578063bd9d518b14610a0b578063c87b56dd14610a38578063d08acd9314610a5857600080fd5b8063977216c214610995578063a22cb465146109b5578063b4e847a0146109d557600080fd5b80637d9e9d30116101645780638c79d7e31161013e5780638c79d7e3146109105780638da5cb5b14610930578063959601011461094e57806395d89b411461098057600080fd5b80637d9e9d30146108bb5780637eebe99d146108db5780638163997c146108fb57600080fd5b8063715018a6116101a0578063715018a6146107c857806375bfe420146107dd57806378fa901c1461080d57806379502c551461082d57600080fd5b80636e0f7a481461077257806370a0823114610792578063710cbc44146107b257600080fd5b80634025b22d116102a057806359e651e01161023e578063600917ff11610218578063600917ff146106ec57806361212431146106ff5780636352211e1461071f57806368382aad1461073f57600080fd5b806359e651e0146106855780635b91bbca146106b25780635c975abb146106d257600080fd5b8063446c00f71161027a578063446c00f7146105ef57806348cfc19e1461060f5780634d4e8dfa14610633578063514c2ece1461066557600080fd5b80634025b22d1461058257806342842e0e146105af5780634346b150146105cf57600080fd5b806311a960cd1161030d57806323b872dd116102e757806323b872dd146104fb578063300eccab1461051b5780633ccfd60b1461053b5780633f0bc9a51461055057600080fd5b806311a960cd1461049b57806316c38b3c146104bb57806317225941146104db57600080fd5b806306fdde031161034957806306fdde03146103e6578063074ba79d14610408578063081812fc14610443578063095ea7b31461047b57600080fd5b8062dbc7381461036f57806301ffc9a714610391578063053f5bbf146103c6575b600080fd5b34801561037b57600080fd5b5061038f61038a3660046144fb565b610b68565b005b34801561039d57600080fd5b506103b16103ac3660046145ba565b610bfe565b60405190151581526020015b60405180910390f35b3480156103d257600080fd5b5061038f6103e1366004614622565b610c50565b3480156103f257600080fd5b506103fb610cb4565b6040516103bd9190614715565b34801561041457600080fd5b50610435610423366004614728565b600c6020526000908152604090205481565b6040519081526020016103bd565b34801561044f57600080fd5b5061046361045e366004614745565b610d46565b6040516001600160a01b0390911681526020016103bd565b34801561048757600080fd5b5061038f61049636600461475e565b610d6f565b3480156104a757600080fd5b5061038f6104b636600461478a565b610d7e565b3480156104c757600080fd5b5061038f6104d63660046147c5565b610f43565b3480156104e757600080fd5b50601b54610463906001600160a01b031681565b34801561050757600080fd5b5061038f6105163660046147e2565b610f5e565b34801561052757600080fd5b50610435610536366004614745565b610fe9565b34801561054757600080fd5b5061038f61100a565b34801561055c57600080fd5b5061057061056b366004614745565b61109a565b60405160ff90911681526020016103bd565b34801561058e57600080fd5b506105a261059d366004614745565b6110ce565b6040516103bd9190614a96565b3480156105bb57600080fd5b5061038f6105ca3660046147e2565b61156d565b3480156105db57600080fd5b5061038f6105ea366004614aa9565b61158d565b3480156105fb57600080fd5b5061038f61060a366004614745565b611714565b34801561061b57600080fd5b50610624611763565b6040516103bd93929190614b5b565b34801561063f57600080fd5b5061065361064e366004614745565b6118ab565b6040516103bd96959493929190614b9e565b34801561067157600080fd5b5061038f610680366004614745565b611d11565b34801561069157600080fd5b506106a56106a0366004614728565b611d1e565b6040516103bd9190614c00565b3480156106be57600080fd5b5061038f6106cd366004614c2e565b611d42565b3480156106de57600080fd5b506019546103b19060ff1681565b61038f6106fa366004614c65565b611ddb565b34801561070b57600080fd5b5061057061071a366004614745565b611f52565b34801561072b57600080fd5b5061046361073a366004614745565b611f62565b34801561074b57600080fd5b5060195461075f90610100900461ffff1681565b60405161ffff90911681526020016103bd565b34801561077e57600080fd5b5061057061078d366004614745565b611f6d565b34801561079e57600080fd5b506104356107ad366004614728565b611f95565b3480156107be57600080fd5b50610435600d5481565b3480156107d457600080fd5b5061038f611fdd565b3480156107e957600080fd5b506103b16107f8366004614728565b601a6020526000908152604090205460ff1681565b34801561081957600080fd5b5061038f610828366004614cc1565b611ff1565b34801561083957600080fd5b50600f54601054601154601254601354601454601554610872966001600160a01b03908116968116958116948116938116928116911687565b604080516001600160a01b039889168152968816602088015294871694860194909452918516606085015284166080840152831660a083015290911660c082015260e0016103bd565b3480156108c757600080fd5b5061038f6108d6366004614aa9565b6120b1565b3480156108e757600080fd5b5061038f6108f6366004614d09565b6120e5565b34801561090757600080fd5b5061038f6121c9565b34801561091c57600080fd5b5061038f61092b366004614d39565b61225d565b34801561093c57600080fd5b506006546001600160a01b0316610463565b34801561095a57600080fd5b506103b1610969366004614745565b600090815260086020526040902060070154151590565b34801561098c57600080fd5b506103fb612290565b3480156109a157600080fd5b5061038f6109b0366004614745565b61229f565b3480156109c157600080fd5b5061038f6109d0366004614d39565b6122ac565b3480156109e157600080fd5b5061043560095481565b3480156109f757600080fd5b5061038f610a06366004614e7f565b6122b7565b348015610a1757600080fd5b50610435610a26366004614728565b600b6020526000908152604090205481565b348015610a4457600080fd5b506103fb610a53366004614745565b6122cf565b348015610a6457600080fd5b50610435601c5481565b348015610a7a57600080fd5b50610435610a89366004614728565b600e6020526000908152604090205481565b348015610aa757600080fd5b5061038f610ab6366004614efe565b612353565b348015610ac757600080fd5b5061038f610ad6366004614745565b6126b3565b348015610ae757600080fd5b5061038f610af6366004614c2e565b612c17565b348015610b0757600080fd5b506103b1610b16366004614f41565b612c3d565b348015610b2757600080fd5b50610b3b610b36366004614aa9565b612c6b565b6040516103bd9190614f6f565b348015610b5457600080fd5b5061038f610b63366004614728565b6131a9565b610b706131e4565b600f80546001600160a01b03199081166001600160a01b039a8b1617909155601080548216988a1698909817909755601180548816968916969096179095556014805487169488169490941790935560138054861692871692909217909155601280548516918616919091179055601580548416918516919091179055601b80549092169216919091179055565b60006001600160e01b031982166380ac58cd60e01b1480610c2f57506001600160e01b03198216635b5e139f60e01b145b80610c4a57506301ffc9a760e01b6001600160e01b03198316145b92915050565b610c586131e4565b8483141580610c675750828114155b15610c855760405163512509d360e11b815260040160405180910390fd5b610c91601687876142bf565b50610c9e601785856142bf565b50610cab60188383614368565b50505050505050565b606060008054610cc390614fd4565b80601f0160208091040260200160405190810160405280929190818152602001828054610cef90614fd4565b8015610d3c5780601f10610d1157610100808354040283529160200191610d3c565b820191906000526020600020905b815481529060010190602001808311610d1f57829003601f168201915b5050505050905090565b6000610d5182613211565b506000828152600460205260409020546001600160a01b0316610c4a565b610d7a82823361324a565b5050565b6006546001600160a01b03163314801590610da45750600f546001600160a01b03163314155b15610dc957604051634a0bfec160e01b81523360048201526024015b60405180910390fd5b60008281526008602052604090206007015415610dfc5760405163163fe02b60e11b815260048101839052602401610dc0565b600082815260086020526040908190204260079091015551600080516020615faa83398151915290610e319084815260200190565b60405180910390a16000818152600860205260408120600601805463ffffffff1691610e5c83615024565b825463ffffffff9182166101009390930a928302919092021990911617905550600081815260086020819052604090912001546001600160a01b03168015610f0b57601b54601c546040516340c10f1960e01b81526001600160a01b03848116600483015260029290921c60248201529116906340c10f1990604401600060405180830381600087803b158015610ef257600080fd5b505af1158015610f06573d6000803e3d6000fd5b505050505b6040518381527ff8e1a15aba9398e019f0b49df1a4fde98ee17ae345cb5f6b5e2c27f5033e8ce79060200160405180910390a1505050565b610f4b6131e4565b6019805460ff1916911515919091179055565b6001600160a01b038216610f8857604051633250574960e11b815260006004820152602401610dc0565b6000610f95838333613257565b9050836001600160a01b0316816001600160a01b031614610fe3576040516364283d7b60e01b81526001600160a01b0380861660048301526024820184905282166044820152606401610dc0565b50505050565b60188181548110610ff957600080fd5b600091825260209091200154905081565b6110126131e4565b60006110266006546001600160a01b031690565b6001600160a01b03164760405160006040518083038185875af1925050503d8060008114611070576040519150601f19603f3d011682016040523d82523d6000602084013e611075565b606091505b5050905080611097576040516327fcd9d160e01b815260040160405180910390fd5b50565b601681815481106110aa57600080fd5b9060005260206000209060209182820401919006915054906101000a900460ff1681565b6110d66143a3565b60008281526008602052604090819020815160c081019092528054829082906110fe90614fd4565b80601f016020809104026020016040519081016040528092919081815260200182805461112a90614fd4565b80156111775780601f1061114c57610100808354040283529160200191611177565b820191906000526020600020905b81548152906001019060200180831161115a57829003601f168201915b5050509183525050600182015460208201526040805160808101825260028401805492909301929091829060ff1660078111156111b6576111b6614823565b60078111156111c7576111c7614823565b81528154602090910190610100900460ff1660078111156111ea576111ea614823565b60078111156111fb576111fb614823565b8152815460209091019062010000900460ff16600781111561121f5761121f614823565b600781111561123057611230614823565b815281546020909101906301000000900460ff16600781111561125557611255614823565b600781111561126657611266614823565b815250508152602001600382016040518060c00160405290816000820154815260200160018201604051806101200160405290816000820160009054906101000a900461ffff1661ffff1661ffff1681526020016000820160029054906101000a900460ff1660ff1660ff1681526020016000820160039054906101000a900460ff1660ff1660ff1681526020016000820160049054906101000a900461ffff1661ffff1661ffff1681526020016000820160069054906101000a900460ff1660ff1660ff1681526020016000820160079054906101000a900460ff1660ff1660ff1681526020016000820160089054906101000a900461ffff1661ffff1661ffff16815260200160008201600a9054906101000a900460ff1660ff1660ff16815260200160008201600b9054906101000a900460ff1660ff1660ff168152505081526020016002820160009054906101000a900461ffff1661ffff1661ffff1681526020016002820160029054906101000a900460ff1660ff1660ff1681526020016002820160039054906101000a900460ff1660ff1660ff1681526020016002820160049054906101000a900460ff1660ff1660ff1681525050815260200160068201604051806101200160405290816000820160009054906101000a900463ffffffff1663ffffffff1663ffffffff1681526020016000820160049054906101000a900461ffff1661ffff1661ffff1681526020016000820160069054906101000a900461ffff1661ffff1661ffff1681526020016000820160089054906101000a900461ffff1661ffff1661ffff16815260200160008201600a9054906101000a900460ff1615151515815260200160008201600b9054906101000a900460ff1615151515815260200160008201600c9054906101000a900460ff1615151515815260200160008201600d9054906101000a900460ff1615151515815260200160018201548152505081526020016008820160009054906101000a90046001600160a01b03166001600160a01b03166001600160a01b0316815250509050919050565b611588838383604051806020016040528060008152506122b7565b505050565b61159561345b565b6000805b8281101561169d5760008484838181106115b5576115b5615049565b60209081029290920135600081815260089384905260409020928301549093506001600160a01b0316331490506116015760405162dd34af60e41b815260048101839052602401610dc0565b6006810154600160681b900460ff16156116315760405163c4d9079d60e01b815260048101839052602401610dc0565b6007810154151560008161164757601c5461164e565b601c5460011c5b426007850155604051858152909150600080516020615faa8339815191529060200160405180910390a161168184613485565b61168b818761505f565b95505060019093019250611599915050565b50801561170957601b546040516340c10f1960e01b8152336004820152602481018390526001600160a01b03909116906340c10f1990604401600060405180830381600087803b1580156116f057600080fd5b505af1158015611704573d6000803e3d6000fd5b505050505b50610d7a6001600755565b6006546001600160a01b0316331480159061173a5750600f546001600160a01b03163314155b1561175a57604051634a0bfec160e01b8152336004820152602401610dc0565b611097816134c0565b6060806060601660176018828054806020026020016040519081016040528092919081815260200182805480156117d757602002820191906000526020600020906000905b825461010083900a900460ff168152602060019283018181049485019490930390920291018084116117a85790505b505050505092508180548060200260200160405190810160405280929190818152602001828054801561184757602002820191906000526020600020906000905b825461010083900a900460ff168152602060019283018181049485019490930390920291018084116118185790505b505050505091508080548060200260200160405190810160405280929190818152602001828054801561189957602002820191906000526020600020905b815481526020019060010190808311611885575b50505050509050925092509250909192565b6008602052600090815260409020805481906118c690614fd4565b80601f01602080910402602001604051908101604052809291908181526020018280546118f290614fd4565b801561193f5780601f106119145761010080835404028352916020019161193f565b820191906000526020600020905b81548152906001019060200180831161192257829003601f168201915b505050505090806001015490806002016040518060800160405290816000820160009054906101000a900460ff16600781111561197e5761197e614823565b600781111561198f5761198f614823565b81528154602090910190610100900460ff1660078111156119b2576119b2614823565b60078111156119c3576119c3614823565b8152815460209091019062010000900460ff1660078111156119e7576119e7614823565b60078111156119f8576119f8614823565b815281546020909101906301000000900460ff166007811115611a1d57611a1d614823565b6007811115611a2e57611a2e614823565b8152505090806003016040518060c00160405290816000820154815260200160018201604051806101200160405290816000820160009054906101000a900461ffff1661ffff1661ffff1681526020016000820160029054906101000a900460ff1660ff1660ff1681526020016000820160039054906101000a900460ff1660ff1660ff1681526020016000820160049054906101000a900461ffff1661ffff1661ffff1681526020016000820160069054906101000a900460ff1660ff1660ff1681526020016000820160079054906101000a900460ff1660ff1660ff1681526020016000820160089054906101000a900461ffff1661ffff1661ffff16815260200160008201600a9054906101000a900460ff1660ff1660ff16815260200160008201600b9054906101000a900460ff1660ff1660ff168152505081526020016002820160009054906101000a900461ffff1661ffff1661ffff1681526020016002820160029054906101000a900460ff1660ff1660ff1681526020016002820160039054906101000a900460ff1660ff1660ff1681526020016002820160049054906101000a900460ff1660ff1660ff16815250509080600601604051806101200160405290816000820160009054906101000a900463ffffffff1663ffffffff1663ffffffff1681526020016000820160049054906101000a900461ffff1661ffff1661ffff1681526020016000820160069054906101000a900461ffff1661ffff1661ffff1681526020016000820160089054906101000a900461ffff1661ffff1661ffff16815260200160008201600a9054906101000a900460ff1615151515815260200160008201600b9054906101000a900460ff1615151515815260200160008201600c9054906101000a900460ff1615151515815260200160008201600d9054906101000a900460ff16151515158152602001600182015481525050908060080160009054906101000a90046001600160a01b0316905086565b611d196131e4565b600d55565b6001600160a01b0381166000908152600a60205260409020606090610c4a9061356d565b336000908152600b6020526040902054600d544290611d61908361505f565b811015611d81576040516337a193d360e21b815260040160405180910390fd5b60005b600a811015611dc657611d9933856000613581565b6009546000908152600860205260409020600601805460ff60681b1916600160681b179055600101611d84565b50336000908152600b60205260409020555050565b611de361345b565b60188360ff1681548110611df957611df9615049565b90600052602060002001543414611e2e576040516312a1605d60e31b815260ff84166004820152346024820152604401610dc0565b6001600160a01b038216611e555760405163119833d760e11b815260040160405180910390fd5b600060178460ff1681548110611e6d57611e6d615049565b60009182526020808320908204015460ff601f9092166101000a900416915084905b82811015611eec578160ff16811015611ed857600081611eb0886001615072565b60ff16611ebd919061508b565b9050611ed28886611ecd84613724565b613581565b50611ee4565b611ee487856000613581565b600101611e8f565b50611f18848360188860ff1681548110611f0857611f08615049565b906000526020600020015461378f565b6001600160a01b0386166000908152600c602052604081208054849290611f4090849061505f565b9091555050600160075550610fe39050565b601781815481106110aa57600080fd5b6000610c4a82613211565b600060328210611f8d5760508210611f86576002610c4a565b6001610c4a565b600092915050565b60006001600160a01b038216611fc1576040516322718ad960e21b815260006004820152602401610dc0565b506001600160a01b031660009081526003602052604090205490565b611fe56131e4565b611fef60006138b1565b565b336000908152601a602052604090205460ff1661202357604051634a0bfec160e01b8152336004820152602401610dc0565b8060005b8481101561207c578160ff1681101561206857600081612048856001615072565b612052919061509e565b90506120628786611ecd84613724565b50612074565b61207486856000613581565b600101612027565b506001600160a01b0385166000908152600c6020526040812080548692906120a590849061505f565b90915550505050505050565b60005b81811015611588576120dd8383838181106120d1576120d1615049565b905060200201356126b3565b6001016120b4565b6010546001600160a01b0316331480159061210b5750600f546001600160a01b03163314155b801561212257506011546001600160a01b03163314155b1561214257604051634a0bfec160e01b8152336004820152602401610dc0565b6000828152600860205260409020600601805482158015600160601b0260ff60601b199092169190911790915561219957604051828152600080516020615faa833981519152906020015b60405180910390a15050565b6040518281527ff27b6ce5b2f5e68ddb2fd95a8a909d4ecf1daaac270935fff052feacb24f18429060200161218d565b336000908152600a602052604081206121e19061356d565b905060005b8151811015610d7a576008600083838151811061220557612205615049565b60200260200101518152602001908152602001600020600601600001600b9054906101000a900460ff166122555761225582828151811061224857612248615049565b60200260200101516126b3565b6001016121e6565b6122656131e4565b6001600160a01b03919091166000908152601a60205260409020805460ff1916911515919091179055565b606060018054610cc390614fd4565b6122a76131e4565b601c55565b610d7a338383613903565b6122c2848484610f5e565b610fe333858585856139a2565b601254600082815260086020526040908190209051637c1d0bcb60e01b81526060926001600160a01b031691637c1d0bcb9161230e9190600401615319565b600060405180830381865afa15801561232b573d6000803e3d6000fd5b505050506040513d6000823e601f3d908101601f19168201604052610c4a9190810190615371565b6040518281527ff8e1a15aba9398e019f0b49df1a4fde98ee17ae345cb5f6b5e2c27f5033e8ce79060200160405180910390a16000828152600860209081526040808320338452601a9092529091205460ff166123c557604051634a0bfec160e01b8152336004820152602401610dc0565b6007810154156123e8576040516398586ca160e01b815260040160405180910390fd5b6006810154600160601b900460ff16156124185760405163128379f760e11b815260048101849052602401610dc0565b600061242c8261242785615613565b613acd565b905061243883806156b5565b8391612445919083615742565b5061245861024084016102208501615801565b60058301805460ff92909216620100000262ff00001990921691909117905561248961026084016102408501615801565b60058301805460ff9290921663010000000263ff000000199092169190911790556124bc61028084016102608501615801565b60058301805460ff929092166401000000000264ff00000000199092169190911790556124f161022084016102008501614c2e565b60058301805461ffff191661ffff9290921691909117905560e083016004830161251b8282615838565b5050604083016002830161252f82826159c5565b506125449050610320840161030085016147c5565b600683015460ff600160501b9091041615159015151461258f57612570610320840161030085016147c5565b600683018054911515600160501b0260ff60501b199092169190911790555b6006820154600160581b900460ff16156125e4576006820180548291906008906125c5908490600160401b900461ffff16615a7b565b92506101000a81548161ffff021916908361ffff1602179055506126aa565b60068201805460ff60581b1961ffff8416600160401b02166bff00ffff00000000000000001990911617600160581b179055601554604080516318987be760e11b815290516001600160a01b0390921691633130f7ce916004808201926020929091908290030181865afa158015612660573d6000803e3d6000fd5b505050506040513d601f19601f820116820180604052508101906126849190615aa0565b60068301805461ffff929092166401000000000265ffff00000000199092169190911790555b610fe3846134c0565b6040518181527ff8e1a15aba9398e019f0b49df1a4fde98ee17ae345cb5f6b5e2c27f5033e8ce79060200160405180910390a16000818152600860208190526040909120908101546001600160a01b031633146127255760405162dd34af60e41b815260048101839052602401610dc0565b6006810154600160581b900460ff161561275557604051635331ce1f60e11b815260048101839052602401610dc0565b6013546003820154604051632f09b60960e21b815260048101919091526000916001600160a01b03169063bc26d824906024016020604051808303816000875af11580156127a7573d6000803e3d6000fd5b505050506040513d601f19601f820116820180604052508101906127cb9190615abd565b60145460038401546005850154604051637017ac9560e11b81526004810188905260248101929092526001600160401b038416604483015261ffff1660648201529192506000916001600160a01b039091169063e02f592a90608401600060405180830381865afa158015612844573d6000803e3d6000fd5b505050506040513d6000823e601f3d908101601f1916820160405261286c9190810190615ce3565b8051909150839061287d9082615e02565b508060600151836003016000820151816000015560208201518160010160008201518160000160006101000a81548161ffff021916908361ffff16021790555060208201518160000160026101000a81548160ff021916908360ff16021790555060408201518160000160036101000a81548160ff021916908360ff16021790555060608201518160000160046101000a81548161ffff021916908361ffff16021790555060808201518160000160066101000a81548160ff021916908360ff16021790555060a08201518160000160076101000a81548160ff021916908360ff16021790555060c08201518160000160086101000a81548161ffff021916908361ffff16021790555060e082015181600001600a6101000a81548160ff021916908360ff16021790555061010082015181600001600b6101000a81548160ff021916908360ff160217905550505060408201518160020160006101000a81548161ffff021916908361ffff16021790555060608201518160020160026101000a81548160ff021916908360ff16021790555060808201518160020160036101000a81548160ff021916908360ff16021790555060a08201518160020160046101000a81548160ff021916908360ff16021790555090505080604001518360020160008201518160000160006101000a81548160ff02191690836007811115612a8857612a88614823565b021790555060208201518154829061ff001916610100836007811115612ab057612ab0614823565b021790555060408201518154829062ff0000191662010000836007811115612ada57612ada614823565b021790555060608201518154829063ff00000019166301000000836007811115612b0657612b06614823565b021790555050506080808201510151600684018054911515600160501b0260ff60501b198316811790915563ffffffff908116911617600003612b655760808101515160068401805463ffffffff191663ffffffff9092169190911790555b601554604080516318987be760e11b815290516001600160a01b0390921691633130f7ce916004808201926020929091908290030181865afa158015612baf573d6000803e3d6000fd5b505050506040513d601f19601f82011682018060405250810190612bd39190615aa0565b60068401805460ff60581b1961ffff9390931664010000000002929092166bff0000000000ffff000000001990921691909117600160581b179055610fe3846134c0565b612c1f6131e4565b6019805461ffff9092166101000262ffff0019909216919091179055565b6001600160a01b03918216600090815260056020908152604080832093909416825291909152205460ff1690565b60606000826001600160401b03811115612c8757612c87614d67565b604051908082528060200260200182016040528015612cc057816020015b612cad6143a3565b815260200190600190039081612ca55790505b50905060005b838110156131a15760086000868684818110612ce457612ce4615049565b9050602002013581526020019081526020016000206040518060c0016040529081600082018054612d1490614fd4565b80601f0160208091040260200160405190810160405280929190818152602001828054612d4090614fd4565b8015612d8d5780601f10612d6257610100808354040283529160200191612d8d565b820191906000526020600020905b815481529060010190602001808311612d7057829003601f168201915b5050509183525050600182015460208201526040805160808101825260028401805492909301929091829060ff166007811115612dcc57612dcc614823565b6007811115612ddd57612ddd614823565b81528154602090910190610100900460ff166007811115612e0057612e00614823565b6007811115612e1157612e11614823565b8152815460209091019062010000900460ff166007811115612e3557612e35614823565b6007811115612e4657612e46614823565b815281546020909101906301000000900460ff166007811115612e6b57612e6b614823565b6007811115612e7c57612e7c614823565b815250508152602001600382016040518060c00160405290816000820154815260200160018201604051806101200160405290816000820160009054906101000a900461ffff1661ffff1661ffff1681526020016000820160029054906101000a900460ff1660ff1660ff1681526020016000820160039054906101000a900460ff1660ff1660ff1681526020016000820160049054906101000a900461ffff1661ffff1661ffff1681526020016000820160069054906101000a900460ff1660ff1660ff1681526020016000820160079054906101000a900460ff1660ff1660ff1681526020016000820160089054906101000a900461ffff1661ffff1661ffff16815260200160008201600a9054906101000a900460ff1660ff1660ff16815260200160008201600b9054906101000a900460ff1660ff1660ff168152505081526020016002820160009054906101000a900461ffff1661ffff1661ffff1681526020016002820160029054906101000a900460ff1660ff1660ff1681526020016002820160039054906101000a900460ff1660ff1660ff1681526020016002820160049054906101000a900460ff1660ff1660ff1681525050815260200160068201604051806101200160405290816000820160009054906101000a900463ffffffff1663ffffffff1663ffffffff1681526020016000820160049054906101000a900461ffff1661ffff1661ffff1681526020016000820160069054906101000a900461ffff1661ffff1661ffff1681526020016000820160089054906101000a900461ffff1661ffff1661ffff16815260200160008201600a9054906101000a900460ff1615151515815260200160008201600b9054906101000a900460ff1615151515815260200160008201600c9054906101000a900460ff1615151515815260200160008201600d9054906101000a900460ff1615151515815260200160018201548152505081526020016008820160009054906101000a90046001600160a01b03166001600160a01b03166001600160a01b03168152505082828151811061318e5761318e615049565b6020908102919091010152600101612cc6565b509392505050565b6131b16131e4565b6001600160a01b0381166131db57604051631e4fbdf760e01b815260006004820152602401610dc0565b611097816138b1565b6006546001600160a01b03163314611fef5760405163118cdaa760e01b8152336004820152602401610dc0565b6000818152600260205260408120546001600160a01b031680610c4a57604051637e27328960e01b815260048101849052602401610dc0565b6115888383836001613da9565b60006001600160a01b038416156132985760008381526008602052604090206007015415613298576040516398586ca160e01b815260040160405180910390fd5b600083815260086020526040902060060154600160601b900460ff16156132d55760405163128379f760e11b815260048101849052602401610dc0565b600083815260086020819052604090912001546001600160a01b031680156133b9576001600160a01b0381166000908152600c6020526040902054600a111561333c57604051637c0df70b60e11b81526001600160a01b0382166004820152602401610dc0565b6001600160a01b0385161580159061336c57506001600160a01b0385166000908152600c6020526040902054600a115b1561339557604051637c0df70b60e11b81526001600160a01b0386166004820152602401610dc0565b6001600160a01b0381166000908152600a602052604090206133b79085613eaf565b505b6001600160a01b03851615613417576001600160a01b0385166000908152600a602052604090206133ea9085613ebb565b5060008481526008602081905260409091200180546001600160a01b0319166001600160a01b0387161790555b6001600160a01b03851661344757604051848152600080516020615faa8339815191529060200160405180910390a15b613452858585613ec7565b95945050505050565b60026007540361347e57604051633ee5aeb560e01b815260040160405180910390fd5b6002600755565b60006134946000836000613257565b90506001600160a01b038116610d7a57604051637e27328960e01b815260048101839052602401610dc0565b60008181526008602052604090819020601554915163863bea7f60e01b815290916001600160a01b03169063863bea7f906134ff908490600401615319565b602060405180830381865afa15801561351c573d6000803e3d6000fd5b505050506040513d601f19601f820116820180604052508101906135409190615aa0565b6006909101805461ffff9290921666010000000000000267ffff0000000000001990921691909117905550565b6060600061357a83613fc0565b9392505050565b60195460ff16156135a557604051636be9245d60e11b815260040160405180910390fd5b60195461ffff610100909104811690831611806135c4575061ffff8216155b156135e857604051633a6d207560e11b815261ffff83166004820152602401610dc0565b600980549060006135f883615ec0565b909155505060095460008181526008602090815260408083206001810194909455601354815163f8413b0760e01b815291516001600160a01b039091169363f8413b07936004848101949193929183900301908290875af1158015613661573d6000803e3d6000fd5b505050506040513d601f19601f820116820180604052508101906136859190615ed9565b600382015560058101805461ffff191661ffff858116919091179091558216156136bf5760068101805463ffffffff191661ffff84161790555b6136cb8460095461401c565b6008810180546001600160a01b0319166001600160a01b0386161790556009546040519081527ff27b6ce5b2f5e68ddb2fd95a8a909d4ecf1daaac270935fff052feacb24f18429060200160405180910390a150505050565b600060068260ff161061373a57506103e8919050565b8160ff1660050361374e575061012c919050565b8160ff1660040361376157506064919050565b8160ff166003036137745750601e919050565b8160ff166002036137875750600a919050565b506001919050565b6001600160a01b0383166000908152600e6020526040812080548492906137b790849061505f565b90915550506001600160a01b0383166000908152600e6020526040812054620186a081106137e85760329150613823565b61c35081106137fa5760239150613823565b612710811061380c5760149150613823565b6103e8811061381e57600a9150613823565b600091505b600060646138318486615ef2565b61383b9190615f09565b90506000866001600160a01b03168260405160006040518083038185875af1925050503d806000811461388a576040519150601f19603f3d011682016040523d82523d6000602084013e61388f565b606091505b5050905080610cab576040516387df070960e01b815260040160405180910390fd5b600680546001600160a01b038381166001600160a01b0319831681179093556040519116919082907f8be0079c531659141344cd1fd0a4f28419497f9722a3daafe3b4186f6b6457e090600090a35050565b6001600160a01b03821661393557604051630b61174360e31b81526001600160a01b0383166004820152602401610dc0565b6001600160a01b03838116600081815260056020908152604080832094871680845294825291829020805460ff191686151590811790915591519182527f17307eab39ab6107e8899845ad3d59bd9653f200f220920489ca2b5937696c31910160405180910390a3505050565b6001600160a01b0383163b15613ac657604051630a85bd0160e11b81526001600160a01b0384169063150b7a02906139e4908890889087908790600401615f2b565b6020604051808303816000875af1925050508015613a1f575060408051601f3d908101601f19168201909252613a1c91810190615f5e565b60015b613a88573d808015613a4d576040519150601f19603f3d011682016040523d82523d6000602084013e613a52565b606091505b508051600003613a8057604051633250574960e11b81526001600160a01b0385166004820152602401610dc0565b805181602001fd5b6001600160e01b03198116630a85bd0160e11b14613ac457604051633250574960e11b81526001600160a01b0385166004820152602401610dc0565b505b5050505050565b60408101515160009081906007811115613ae957613ae9614823565b600285015460ff166007811115613b0257613b02614823565b14613b155780613b1181615f7b565b9150505b8260400151602001516007811115613b2f57613b2f614823565b6002850154610100900460ff166007811115613b4d57613b4d614823565b14613b605780613b5c81615f7b565b9150505b8260400151604001516007811115613b7a57613b7a614823565b600285015462010000900460ff166007811115613b9957613b99614823565b14613bac5780613ba881615f7b565b9150505b8260400151606001516007811115613bc657613bc6614823565b60028501546301000000900460ff166007811115613be657613be6614823565b14613bf95780613bf581615f7b565b9150505b6005840154606080850151015160009160ff620100009091048116911611613c405760608481015101516005860154613c3b919062010000900460ff1661509e565b613c60565b60058501546060858101510151613c609162010000900460ff169061509e565b600586015460608601516080015191925060009160ff63010000009092048216911611613cae576060850151608001516005870154613ca991906301000000900460ff1661509e565b613cd0565b6005860154606086015160800151613cd0916301000000900460ff169061509e565b6005870154606087015160a0015191925060009160ff6401000000009092048216911611613d2057606086015160a001516005880154613d1b9190640100000000900460ff1661509e565b613d43565b6005870154606087015160a00151613d4391640100000000900460ff169061509e565b905080613d508385615072565b613d5a9190615072565b613d679060ff1685615a7b565b9350856080015160800151151587600601600001600a9054906101000a900460ff16151514613d9e57613d9b600385615a7b565b93505b509195945050505050565b8080613dbd57506001600160a01b03821615155b15613e7f576000613dcd84613211565b90506001600160a01b03831615801590613df95750826001600160a01b0316816001600160a01b031614155b8015613e0c5750613e0a8184612c3d565b155b15613e355760405163a9fbf51f60e01b81526001600160a01b0384166004820152602401610dc0565b8115613e7d5783856001600160a01b0316826001600160a01b03167f8c5be1e5ebec7d5bd14f71427d1e84f3dd0314c0f7b2291e5b200ac8c7c3b92560405160405180910390a45b505b5050600090815260046020526040902080546001600160a01b0319166001600160a01b0392909216919091179055565b600061357a8383614036565b600061357a8383614129565b6000828152600260205260408120546001600160a01b0390811690831615613ef457613ef4818486614178565b6001600160a01b03811615613f3257613f11600085600080613da9565b6001600160a01b038116600090815260036020526040902080546000190190555b6001600160a01b03851615613f61576001600160a01b0385166000908152600360205260409020805460010190555b60008481526002602052604080822080546001600160a01b0319166001600160a01b0389811691821790925591518793918516917fddf252ad1be2c89b69c2b068fc378daa952ba7f163c4a11628f55a4df523b3ef91a4949350505050565b60608160000180548060200260200160405190810160405280929190818152602001828054801561401057602002820191906000526020600020905b815481526020019060010190808311613ffc575b50505050509050919050565b610d7a8282604051806020016040528060008152506141dc565b6000818152600183016020526040812054801561411f57600061405a60018361508b565b855490915060009061406e9060019061508b565b90508082146140d357600086600001828154811061408e5761408e615049565b90600052602060002001549050808760000184815481106140b1576140b1615049565b6000918252602080832090910192909255918252600188019052604090208390555b85548690806140e4576140e4615f93565b600190038181906000526020600020016000905590558560010160008681526020019081526020016000206000905560019350505050610c4a565b6000915050610c4a565b600081815260018301602052604081205461417057508154600181810184556000848152602080822090930184905584548482528286019093526040902091909155610c4a565b506000610c4a565b6141838383836141f4565b611588576001600160a01b0383166141b157604051637e27328960e01b815260048101829052602401610dc0565b60405163177e802f60e01b81526001600160a01b038316600482015260248101829052604401610dc0565b6141e6838361425a565b6115883360008585856139a2565b60006001600160a01b038316158015906142525750826001600160a01b0316846001600160a01b0316148061422e575061422e8484612c3d565b8061425257506000828152600460205260409020546001600160a01b038481169116145b949350505050565b6001600160a01b03821661428457604051633250574960e11b815260006004820152602401610dc0565b600061429283836000613257565b90506001600160a01b03811615611588576040516339e3563760e11b815260006004820152602401610dc0565b82805482825590600052602060002090601f016020900481019282156143585791602002820160005b8382111561432957833560ff1683826101000a81548160ff021916908360ff16021790555092602001926001016020816000010492830192600103026142e8565b80156143565782816101000a81549060ff0219169055600101602081600001049283019260010302614329565b505b506143649291506144c1565b5090565b828054828255906000526020600020908101928215614358579160200282015b82811115614358578235825591602001919060010190614388565b6040518060c0016040528060608152602001600081526020016143e76040805160808101909152806000815260200160008152602001600081526020016000905290565b81526020016144686040805160c0808201835260008083528351610120810185528181526020818101839052948101829052606081018290526080810182905260a0810182905291820181905260e0820181905261010082015290918201908152600060208201819052604082018190526060820181905260809091015290565b8152604080516101208101825260008082526020828101829052928201819052606082018190526080820181905260a0820181905260c0820181905260e082018190526101008201529101908152600060209091015290565b5b8082111561436457600081556001016144c2565b6001600160a01b038116811461109757600080fd5b80356144f6816144d6565b919050565b600080600080600080600080610100898b03121561451857600080fd5b8835614523816144d6565b97506020890135614533816144d6565b96506040890135614543816144d6565b95506060890135614553816144d6565b94506080890135614563816144d6565b935060a0890135614573816144d6565b925060c0890135614583816144d6565b915060e0890135614593816144d6565b809150509295985092959890939650565b6001600160e01b03198116811461109757600080fd5b6000602082840312156145cc57600080fd5b813561357a816145a4565b60008083601f8401126145e957600080fd5b5081356001600160401b0381111561460057600080fd5b6020830191508360208260051b850101111561461b57600080fd5b9250929050565b6000806000806000806060878903121561463b57600080fd5b86356001600160401b0381111561465157600080fd5b61465d89828a016145d7565b90975095505060208701356001600160401b0381111561467c57600080fd5b61468889828a016145d7565b90955093505060408701356001600160401b038111156146a757600080fd5b6146b389828a016145d7565b979a9699509497509295939492505050565b60005b838110156146e05781810151838201526020016146c8565b50506000910152565b600081518084526147018160208601602086016146c5565b601f01601f19169290920160200192915050565b60208152600061357a60208301846146e9565b60006020828403121561473a57600080fd5b813561357a816144d6565b60006020828403121561475757600080fd5b5035919050565b6000806040838503121561477157600080fd5b823561477c816144d6565b946020939093013593505050565b6000806040838503121561479d57600080fd5b50508035926020909101359150565b801515811461109757600080fd5b80356144f6816147ac565b6000602082840312156147d757600080fd5b813561357a816147ac565b6000806000606084860312156147f757600080fd5b8335614802816144d6565b92506020840135614812816144d6565b929592945050506040919091013590565b634e487b7160e01b600052602160045260246000fd5b6008811061109757634e487b7160e01b600052602160045260246000fd5b805161486281614839565b8252602081015161487281614839565b6020830152604081015161488581614839565b6040830152606081015161489881614839565b806060840152505050565b80518252602081015161ffff815116602084015260ff602082015116604084015260408101516148d8606085018260ff169052565b50606081015161ffff8116608085015250608081015160ff811660a08501525060a081015160ff811660c08501525060c081015161ffff811660e08501525060e081015160ff811661010085015250610100015160ff811661012084015250604081015161ffff811661014084015250606081015160ff811661016084015250608081015160ff81166101808401525060a0015160ff166101a09190910152565b63ffffffff815116825261ffff602082015116602083015260408101516149a6604084018261ffff169052565b5060608101516149bc606084018261ffff169052565b5060808101516149d0608084018215159052565b5060a08101516149e460a084018215159052565b5060c08101516149f860c084018215159052565b5060e0810151614a0c60e084018215159052565b5061010090810151910152565b600081516103c08452614a306103c08501826146e9565b9050602083015160208501526040830151614a4e6040860182614857565b506060830151614a6160c08601826148a3565b506080830151614a75610280860182614979565b5060a092909201516001600160a01b03166103a09390930192909252919050565b60208152600061357a6020830184614a19565b60008060208385031215614abc57600080fd5b82356001600160401b03811115614ad257600080fd5b614ade858286016145d7565b90969095509350505050565b600081518084526020840193506020830160005b82811015614b1f57815160ff16865260209586019590910190600101614afe565b5093949350505050565b600081518084526020840193506020830160005b82811015614b1f578151865260209586019590910190600101614b3d565b606081526000614b6e6060830186614aea565b8281036020840152614b808186614aea565b90508281036040840152614b948185614b29565b9695505050505050565b6103c081526000614bb36103c08301896146e9565b9050866020830152614bc86040830187614857565b614bd560c08301866148a3565b614be3610280830185614979565b6001600160a01b03929092166103a0919091015295945050505050565b60208152600061357a6020830184614b29565b61ffff8116811461109757600080fd5b80356144f681614c13565b600060208284031215614c4057600080fd5b813561357a81614c13565b60ff8116811461109757600080fd5b80356144f681614c4b565b60008060008060808587031215614c7b57600080fd5b8435614c86816144d6565b93506020850135614c9681614c4b565b92506040850135614ca6816144d6565b91506060850135614cb681614c13565b939692955090935050565b60008060008060808587031215614cd757600080fd5b8435614ce2816144d6565b9350602085013592506040850135614cf981614c13565b91506060850135614cb681614c4b565b60008060408385031215614d1c57600080fd5b823591506020830135614d2e816147ac565b809150509250929050565b60008060408385031215614d4c57600080fd5b8235614d57816144d6565b91506020830135614d2e816147ac565b634e487b7160e01b600052604160045260246000fd5b604051608081016001600160401b0381118282101715614d9f57614d9f614d67565b60405290565b60405160c081016001600160401b0381118282101715614d9f57614d9f614d67565b60405161012081016001600160401b0381118282101715614d9f57614d9f614d67565b604051601f8201601f191681016001600160401b0381118282101715614e1257614e12614d67565b604052919050565b60006001600160401b03821115614e3357614e33614d67565b50601f01601f191660200190565b6000614e54614e4f84614e1a565b614dea565b9050828152838383011115614e6857600080fd5b828260208301376000602084830101529392505050565b60008060008060808587031215614e9557600080fd5b8435614ea0816144d6565b93506020850135614eb0816144d6565b92506040850135915060608501356001600160401b03811115614ed257600080fd5b8501601f81018713614ee357600080fd5b614ef287823560208401614e41565b91505092959194509250565b60008060408385031215614f1157600080fd5b8235915060208301356001600160401b03811115614f2e57600080fd5b83016103c08186031215614d2e57600080fd5b60008060408385031215614f5457600080fd5b8235614f5f816144d6565b91506020830135614d2e816144d6565b6000602082016020835280845180835260408501915060408160051b86010192506020860160005b82811015614fc857603f19878603018452614fb3858351614a19565b94506020938401939190910190600101614f97565b50929695505050505050565b600181811c90821680614fe857607f821691505b60208210810361500857634e487b7160e01b600052602260045260246000fd5b50919050565b634e487b7160e01b600052601160045260246000fd5b600063ffffffff821663ffffffff81036150405761504061500e565b60010192915050565b634e487b7160e01b600052603260045260246000fd5b80820180821115610c4a57610c4a61500e565b60ff8181168382160190811115610c4a57610c4a61500e565b81810381811115610c4a57610c4a61500e565b60ff8281168282160390811115610c4a57610c4a61500e565b805460ff81166150c681614839565b8352600881901c60ff166150d981614839565b6020840152601081901c60ff166150ef81614839565b604084015260181c60ff1661489881614839565b805463ffffffff81168352602081811c61ffff1690840152603081901c61ffff166040840152604081901c61ffff16606084015261514b6080840160ff8360501c1615159052565b61515f60a0840160ff8360581c1615159052565b61517360c0840160ff8360601c1615159052565b61518760e0840160ff8360681c1615159052565b50600101546101009190910152565b6103c0825260008082546151a981614fd4565b806103c087015260018216600081146151c957600181146151e75761521d565b60ff1983166103e08801526103e082151560051b880101935061521d565b85600052602060002060005b838110156152135781548982016103e001526001909101906020016151f3565b88016103e0019450505b5050506001830154602085015261523a60408501600285016150b7565b600383015460c0850152600483015461ffff80821660e087015260ff601083811c8216610100890152601884811c83166101208a0152602085811c85166101408b0152603086901c84166101608b0152603886901c84166101808b0152604086901c85166101a08b0152605086901c84166101c08b015260589590951c83166101e08a015260058801549384166102008a01529083901c821661022089015282901c8116610240880152911c166102608501526152fe610280850160068501615103565b60088301546001600160a01b03166103a085018190526131a1565b60208152600061357a6020830184615196565b600082601f83011261533d57600080fd5b815161534b614e4f82614e1a565b81815284602083860101111561536057600080fd5b6142528260208301602087016146c5565b60006020828403121561538357600080fd5b81516001600160401b0381111561539957600080fd5b6142528482850161532c565b6008811061109757600080fd5b6000608082840312156153c457600080fd5b6153cc614d7d565b905081356153d9816153a5565b815260208201356153e9816153a5565b602082015260408201356153fc816153a5565b6040820152606082013561540f816153a5565b606082015292915050565b60008183036101c081121561542e57600080fd5b615436614da5565b833581529150610120601f198201121561544f57600080fd5b50615458614dc7565b61546460208401614c23565b815261547260408401614c5a565b602082015261548360608401614c5a565b604082015261549460808401614c23565b60608201526154a560a08401614c5a565b60808201526154b660c08401614c5a565b60a08201526154c760e08401614c23565b60c08201526154d96101008401614c5a565b60e08201526154eb6101208401614c5a565b61010082015260208201526155036101408301614c23565b60408201526155156101608301614c5a565b60608201526155276101808301614c5a565b60808201526155396101a08301614c5a565b60a082015292915050565b63ffffffff8116811461109757600080fd5b80356144f681615544565b6000610120828403121561557457600080fd5b61557c614dc7565b905061558782615556565b815261559560208301614c23565b60208201526155a660408301614c23565b60408201526155b760608301614c23565b60608201526155c8608083016147ba565b60808201526155d960a083016147ba565b60a08201526155ea60c083016147ba565b60c08201526155fb60e083016147ba565b60e08201526101009182013591810191909152919050565b60006103c0823603121561562657600080fd5b61562e614da5565b82356001600160401b0381111561564457600080fd5b830136601f82011261565557600080fd5b61566436823560208401614e41565b8252506020838101359082015261567e36604085016153b2565b60408201526156903660c0850161541a565b60608201526156a3366102808501615561565b60808201526155396103a084016144eb565b6000808335601e198436030181126156cc57600080fd5b8301803591506001600160401b038211156156e657600080fd5b60200191503681900382131561461b57600080fd5b601f82111561158857806000526020600020601f840160051c810160208510156157225750805b601f840160051c820191505b81811015613ac6576000815560010161572e565b6001600160401b0383111561575957615759614d67565b61576d836157678354614fd4565b836156fb565b6000601f8411600181146157a157600085156157895750838201355b600019600387901b1c1916600186901b178355613ac6565b600083815260209020601f19861690835b828110156157d257868501358255602094850194600190920191016157b2565b50868210156157ef5760001960f88860031b161c19848701351681555b505060018560011b0183555050505050565b60006020828403121561581357600080fd5b813561357a81614c4b565b60008135610c4a81614c13565b60008135610c4a81614c4b565b813561584381614c13565b61ffff811661ffff19835416178255506000602083013561586381614c4b565b8254909150819062ff00001916601082901b62ff00001617835550506158a861588e6040840161582b565b825463ff000000191660189190911b63ff00000016178255565b6158d56158b76060840161581e565b825465ffff00000000191660209190911b65ffff0000000016178255565b6159046158e46080840161582b565b825466ff000000000000191660309190911b66ff00000000000016178255565b61593561591360a0840161582b565b825467ff00000000000000191660389190911b67ff0000000000000016178255565b61596a61594460c0840161581e565b825469ffff0000000000000000191660409190911b69ffff000000000000000016178255565b61599761597960e0840161582b565b82805460ff60501b191660509290921b60ff60501b16919091179055565b610d7a6159a7610100840161582b565b82805460ff60581b191660589290921b60ff60581b16919091179055565b81356159d0816153a5565b6159d981614839565b815460ff821691508160ff19821617835560208401356159f8816153a5565b615a0181614839565b61ff008160081b168361ffff1984161717925050508082556040830135615a27816153a5565b615a3081614839565b62ff0000601082901b1662ff0000198316179150508082556060830135615a56816153a5565b615a5f81614839565b63ff000000601882901b1663ff00000019831617835550505050565b61ffff8181168382160190811115610c4a57610c4a61500e565b80516144f681614c13565b600060208284031215615ab257600080fd5b815161357a81614c13565b600060208284031215615acf57600080fd5b81516001600160401b038116811461357a57600080fd5b80516144f681614c4b565b60008183036101c0811215615b0557600080fd5b615b0d614da5565b835181529150610120601f1982011215615b2657600080fd5b50615b2f614dc7565b615b3b60208401615a95565b8152615b4960408401615ae6565b6020820152615b5a60608401615ae6565b6040820152615b6b60808401615a95565b6060820152615b7c60a08401615ae6565b6080820152615b8d60c08401615ae6565b60a0820152615b9e60e08401615a95565b60c0820152615bb06101008401615ae6565b60e0820152615bc26101208401615ae6565b6101008201526020820152615bda6101408301615a95565b6040820152615bec6101608301615ae6565b6060820152615bfe6101808301615ae6565b60808201526155396101a08301615ae6565b80516144f681615544565b80516144f6816147ac565b60006101208284031215615c3957600080fd5b615c41614dc7565b9050615c4c82615c10565b8152615c5a60208301615a95565b6020820152615c6b60408301615a95565b6040820152615c7c60608301615a95565b6060820152615c8d60808301615c1b565b6080820152615c9e60a08301615c1b565b60a0820152615caf60c08301615c1b565b60c0820152615cc060e08301615c1b565b60e08201526101009182015191810191909152919050565b80516144f6816144d6565b600060208284031215615cf557600080fd5b81516001600160401b03811115615d0b57600080fd5b82018084036103c0811215615d1f57600080fd5b615d27614da5565b82516001600160401b03811115615d3d57600080fd5b615d498782860161532c565b825250602083810151908201526080603f1983011215615d6857600080fd5b615d70614d7d565b91506040830151615d80816153a5565b82526060830151615d90816153a5565b60208301526080830151615da3816153a5565b604083015260a0830151615db6816153a5565b606083015260408101829052615dcf8660c08501615af1565b6060820152615de2866102808501615c26565b6080820152615df46103a08401615cd8565b60a082015295945050505050565b81516001600160401b03811115615e1b57615e1b614d67565b615e2f81615e298454614fd4565b846156fb565b6020601f821160018114615e635760008315615e4b5750848201515b600019600385901b1c1916600184901b178455613ac6565b600084815260208120601f198516915b82811015615e935787850151825560209485019460019092019101615e73565b5084821015615eb15786840151600019600387901b60f8161c191681555b50505050600190811b01905550565b600060018201615ed257615ed261500e565b5060010190565b600060208284031215615eeb57600080fd5b5051919050565b8082028115828204841417610c4a57610c4a61500e565b600082615f2657634e487b7160e01b600052601260045260246000fd5b500490565b6001600160a01b0385811682528416602082015260408101839052608060608201819052600090614b94908301846146e9565b600060208284031215615f7057600080fd5b815161357a816145a4565b600061ffff821661ffff81036150405761504061500e565b634e487b7160e01b600052603160045260246000fdfe032bc66be43dbccb7487781d168eb7bda224628a3b2c3388bdf69b532a3a1611a2646970667358221220d761ad40c58daa253d6cd848c74577a800b71ba25207e0a875ddeefdc4b00ef264736f6c634300081c0033",
  "linkReferences": {},
  "deployedLinkReferences": {}
}