{
  "_format": "hh-sol-artifact-1",
  "contractName": "Game",
  "sourceName": "contracts/Game.sol",
  "abi": [
    {
      "inputs": [
        {
          "internalType": "address",
          "name": "_ships",
          "type": "address"
        },
        {
          "internalType": "address",
          "name": "_shipAttributes",
          "type": "address"
        }
      ],
      "stateMutability": "nonpayable",
      "type": "constructor"
    },
    {
      "inputs": [],
      "name": "ActionRequired",
      "type": "error"
    },
    {
      "inputs": [],
      "name": "GameNotFound",
      "type": "error"
    },
    {
      "inputs": [],
      "name": "InvalidMove",
      "type": "error"
    },
    {
      "inputs": [],
      "name": "InvalidPosition",
      "type": "error"
    },
    {
      "inputs": [],
      "name": "NotInGame",
      "type": "error"
    },
    {
      "inputs": [],
      "name": "NotLobbiesContract",
      "type": "error"
    },
    {
      "inputs": [],
      "name": "NotYourTurn",
      "type": "error"
    },
    {
      "inputs": [
        {
          "internalType": "address",
          "name": "owner",
          "type": "address"
        }
      ],
      "name": "OwnableInvalidOwner",
      "type": "error"
    },
    {
      "inputs": [
        {
          "internalType": "address",
          "name": "account",
          "type": "address"
        }
      ],
      "name": "OwnableUnauthorizedAccount",
      "type": "error"
    },
    {
      "inputs": [],
      "name": "PositionOccupied",
      "type": "error"
    },
    {
      "inputs": [],
      "name": "ShipAlreadyMoved",
      "type": "error"
    },
    {
      "inputs": [],
      "name": "ShipDestroyed",
      "type": "error"
    },
    {
      "inputs": [],
      "name": "ShipNotFound",
      "type": "error"
    },
    {
      "inputs": [],
      "name": "ShipNotOwned",
      "type": "error"
    },
    {
      "inputs": [],
      "name": "TurnTimeoutExceeded",
      "type": "error"
    },
    {
      "inputs": [],
      "name": "TurnTimeoutNotReached",
      "type": "error"
    },
    {
      "anonymous": false,
      "inputs": [
        {
          "indexed": true,
          "internalType": "uint256",
          "name": "gameId",
          "type": "uint256"
        },
        {
          "indexed": true,
          "internalType": "uint256",
          "name": "lobbyId",
          "type": "uint256"
        },
        {
          "indexed": false,
          "internalType": "address",
          "name": "creator",
          "type": "address"
        },
        {
          "indexed": false,
          "internalType": "address",
          "name": "joiner",
          "type": "address"
        }
      ],
      "name": "GameStarted",
      "type": "event"
    },
    {
      "anonymous": false,
      "inputs": [
        {
          "indexed": true,
          "internalType": "address",
          "name": "previousOwner",
          "type": "address"
        },
        {
          "indexed": true,
          "internalType": "address",
          "name": "newOwner",
          "type": "address"
        }
      ],
      "name": "OwnershipTransferred",
      "type": "event"
    },
    {
      "inputs": [],
      "name": "GRID_HEIGHT",
      "outputs": [
        {
          "internalType": "int16",
          "name": "",
          "type": "int16"
        }
      ],
      "stateMutability": "view",
      "type": "function"
    },
    {
      "inputs": [],
      "name": "GRID_WIDTH",
      "outputs": [
        {
          "internalType": "int16",
          "name": "",
          "type": "int16"
        }
      ],
      "stateMutability": "view",
      "type": "function"
    },
    {
      "inputs": [
        {
          "internalType": "uint256",
          "name": "_gameId",
          "type": "uint256"
        },
        {
          "internalType": "uint256[]",
          "name": "_shipIds",
          "type": "uint256[]"
        }
      ],
      "name": "calculateFleetAttributes",
      "outputs": [],
      "stateMutability": "nonpayable",
      "type": "function"
    },
    {
      "inputs": [
        {
          "internalType": "uint256",
          "name": "_gameId",
          "type": "uint256"
        },
        {
          "internalType": "uint256",
          "name": "_shipId",
          "type": "uint256"
        }
      ],
      "name": "calculateShipAttributes",
      "outputs": [],
      "stateMutability": "nonpayable",
      "type": "function"
    },
    {
      "inputs": [
        {
          "internalType": "uint256",
          "name": "_gameId",
          "type": "uint256"
        },
        {
          "internalType": "uint256",
          "name": "_shipId",
          "type": "uint256"
        }
      ],
      "name": "debugDestroyShip",
      "outputs": [],
      "stateMutability": "nonpayable",
      "type": "function"
    },
    {
      "inputs": [
        {
          "internalType": "uint256",
          "name": "_gameId",
          "type": "uint256"
        },
        {
          "internalType": "uint256",
          "name": "_shipId",
          "type": "uint256"
        }
      ],
      "name": "debugMarkShipAsMoved",
      "outputs": [],
      "stateMutability": "nonpayable",
      "type": "function"
    },
    {
      "inputs": [
        {
          "internalType": "uint256",
          "name": "_gameId",
          "type": "uint256"
        },
        {
          "internalType": "uint256",
          "name": "_shipId",
          "type": "uint256"
        }
      ],
      "name": "debugSetHullPointsToZero",
      "outputs": [],
      "stateMutability": "nonpayable",
      "type": "function"
    },
    {
      "inputs": [
        {
          "internalType": "uint256",
          "name": "_gameId",
          "type": "uint256"
        },
        {
          "internalType": "uint256",
          "name": "_shipId",
          "type": "uint256"
        },
        {
          "internalType": "uint8",
          "name": "_timer",
          "type": "uint8"
        }
      ],
      "name": "debugSetReactorCriticalTimer",
      "outputs": [],
      "stateMutability": "nonpayable",
      "type": "function"
    },
    {
      "inputs": [
        {
          "internalType": "uint256",
          "name": "_gameId",
          "type": "uint256"
        },
        {
          "internalType": "uint256",
          "name": "_shipId",
          "type": "uint256"
        },
        {
          "internalType": "int16",
          "name": "_row",
          "type": "int16"
        },
        {
          "internalType": "int16",
          "name": "_col",
          "type": "int16"
        }
      ],
      "name": "debugSetShipPosition",
      "outputs": [],
      "stateMutability": "nonpayable",
      "type": "function"
    },
    {
      "inputs": [
        {
          "internalType": "uint256",
          "name": "_gameId",
          "type": "uint256"
        }
      ],
      "name": "flee",
      "outputs": [],
      "stateMutability": "nonpayable",
      "type": "function"
    },
    {
      "inputs": [],
      "name": "fleets",
      "outputs": [
        {
          "internalType": "contract IFleets",
          "name": "",
          "type": "address"
        }
      ],
      "stateMutability": "view",
      "type": "function"
    },
    {
      "inputs": [
        {
          "internalType": "uint256",
          "name": "_gameId",
          "type": "uint256"
        }
      ],
      "name": "forceMoveOnTimeout",
      "outputs": [],
      "stateMutability": "nonpayable",
      "type": "function"
    },
    {
      "inputs": [],
      "name": "gameCount",
      "outputs": [
        {
          "internalType": "uint256",
          "name": "",
          "type": "uint256"
        }
      ],
      "stateMutability": "view",
      "type": "function"
    },
    {
      "inputs": [],
      "name": "gameResults",
      "outputs": [
        {
          "internalType": "contract IGameResults",
          "name": "",
          "type": "address"
        }
      ],
      "stateMutability": "view",
      "type": "function"
    },
    {
      "inputs": [
        {
          "internalType": "uint256",
          "name": "",
          "type": "uint256"
        }
      ],
      "name": "games",
      "outputs": [
        {
          "components": [
            {
              "internalType": "uint256",
              "name": "gameId",
              "type": "uint256"
            },
            {
              "internalType": "uint256",
              "name": "lobbyId",
              "type": "uint256"
            },
            {
              "internalType": "address",
              "name": "creator",
              "type": "address"
            },
            {
              "internalType": "address",
              "name": "joiner",
              "type": "address"
            },
            {
              "internalType": "uint256",
              "name": "creatorFleetId",
              "type": "uint256"
            },
            {
              "internalType": "uint256",
              "name": "joinerFleetId",
              "type": "uint256"
            },
            {
              "internalType": "bool",
              "name": "creatorGoesFirst",
              "type": "bool"
            },
            {
              "internalType": "uint256",
              "name": "startedAt",
              "type": "uint256"
            },
            {
              "internalType": "address",
              "name": "winner",
              "type": "address"
            }
          ],
          "internalType": "struct GameMetadata",
          "name": "metadata",
          "type": "tuple"
        },
        {
          "components": [
            {
              "internalType": "address",
              "name": "currentTurn",
              "type": "address"
            },
            {
              "internalType": "uint256",
              "name": "turnTime",
              "type": "uint256"
            },
            {
              "internalType": "uint256",
              "name": "turnStartTime",
              "type": "uint256"
            },
            {
              "internalType": "uint256",
              "name": "currentRound",
              "type": "uint256"
            }
          ],
          "internalType": "struct GameTurnState",
          "name": "turnState",
          "type": "tuple"
        },
        {
          "components": [
            {
              "internalType": "int16",
              "name": "gridWidth",
              "type": "int16"
            },
            {
              "internalType": "int16",
              "name": "gridHeight",
              "type": "int16"
            }
          ],
          "internalType": "struct GameGridDimensions",
          "name": "gridDimensions",
          "type": "tuple"
        },
        {
          "internalType": "uint256",
          "name": "maxScore",
          "type": "uint256"
        },
        {
          "internalType": "uint256",
          "name": "creatorScore",
          "type": "uint256"
        },
        {
          "internalType": "uint256",
          "name": "joinerScore",
          "type": "uint256"
        }
      ],
      "stateMutability": "view",
      "type": "function"
    },
    {
      "inputs": [
        {
          "internalType": "uint256",
          "name": "_gameId",
          "type": "uint256"
        }
      ],
      "name": "getAllShipPositions",
      "outputs": [
        {
          "components": [
            {
              "internalType": "uint256",
              "name": "shipId",
              "type": "uint256"
            },
            {
              "components": [
                {
                  "internalType": "int16",
                  "name": "row",
                  "type": "int16"
                },
                {
                  "internalType": "int16",
                  "name": "col",
                  "type": "int16"
                }
              ],
              "internalType": "struct Position",
              "name": "position",
              "type": "tuple"
            },
            {
              "internalType": "bool",
              "name": "isCreator",
              "type": "bool"
            }
          ],
          "internalType": "struct ShipPosition[]",
          "name": "",
          "type": "tuple[]"
        }
      ],
      "stateMutability": "view",
      "type": "function"
    },
    {
      "inputs": [
        {
          "internalType": "uint256",
          "name": "_gameId",
          "type": "uint256"
        }
      ],
      "name": "getGame",
      "outputs": [
        {
          "components": [
            {
              "components": [
                {
                  "internalType": "uint256",
                  "name": "gameId",
                  "type": "uint256"
                },
                {
                  "internalType": "uint256",
                  "name": "lobbyId",
                  "type": "uint256"
                },
                {
                  "internalType": "address",
                  "name": "creator",
                  "type": "address"
                },
                {
                  "internalType": "address",
                  "name": "joiner",
                  "type": "address"
                },
                {
                  "internalType": "uint256",
                  "name": "creatorFleetId",
                  "type": "uint256"
                },
                {
                  "internalType": "uint256",
                  "name": "joinerFleetId",
                  "type": "uint256"
                },
                {
                  "internalType": "bool",
                  "name": "creatorGoesFirst",
                  "type": "bool"
                },
                {
                  "internalType": "uint256",
                  "name": "startedAt",
                  "type": "uint256"
                },
                {
                  "internalType": "address",
                  "name": "winner",
                  "type": "address"
                }
              ],
              "internalType": "struct GameMetadata",
              "name": "metadata",
              "type": "tuple"
            },
            {
              "components": [
                {
                  "internalType": "address",
                  "name": "currentTurn",
                  "type": "address"
                },
                {
                  "internalType": "uint256",
                  "name": "turnTime",
                  "type": "uint256"
                },
                {
                  "internalType": "uint256",
                  "name": "turnStartTime",
                  "type": "uint256"
                },
                {
                  "internalType": "uint256",
                  "name": "currentRound",
                  "type": "uint256"
                }
              ],
              "internalType": "struct GameTurnState",
              "name": "turnState",
              "type": "tuple"
            },
            {
              "components": [
                {
                  "internalType": "int16",
                  "name": "gridWidth",
                  "type": "int16"
                },
                {
                  "internalType": "int16",
                  "name": "gridHeight",
                  "type": "int16"
                }
              ],
              "internalType": "struct GameGridDimensions",
              "name": "gridDimensions",
              "type": "tuple"
            },
            {
              "internalType": "uint256",
              "name": "maxScore",
              "type": "uint256"
            },
            {
              "internalType": "uint256",
              "name": "creatorScore",
              "type": "uint256"
            },
            {
              "internalType": "uint256",
              "name": "joinerScore",
              "type": "uint256"
            },
            {
              "internalType": "uint256[]",
              "name": "shipIds",
              "type": "uint256[]"
            },
            {
              "components": [
                {
                  "internalType": "uint16",
                  "name": "version",
                  "type": "uint16"
                },
                {
                  "internalType": "uint8",
                  "name": "range",
                  "type": "uint8"
                },
                {
                  "internalType": "uint8",
                  "name": "gunDamage",
                  "type": "uint8"
                },
                {
                  "internalType": "uint8",
                  "name": "hullPoints",
                  "type": "uint8"
                },
                {
                  "internalType": "uint8",
                  "name": "maxHullPoints",
                  "type": "uint8"
                },
                {
                  "internalType": "uint8",
                  "name": "movement",
                  "type": "uint8"
                },
                {
                  "internalType": "uint8",
                  "name": "damageReduction",
                  "type": "uint8"
                },
                {
                  "internalType": "uint8",
                  "name": "reactorCriticalTimer",
                  "type": "uint8"
                },
                {
                  "internalType": "uint8[]",
                  "name": "statusEffects",
                  "type": "uint8[]"
                }
              ],
              "internalType": "struct Attributes[]",
              "name": "shipAttributes",
              "type": "tuple[]"
            },
            {
              "components": [
                {
                  "internalType": "uint256",
                  "name": "shipId",
                  "type": "uint256"
                },
                {
                  "components": [
                    {
                      "internalType": "int16",
                      "name": "row",
                      "type": "int16"
                    },
                    {
                      "internalType": "int16",
                      "name": "col",
                      "type": "int16"
                    }
                  ],
                  "internalType": "struct Position",
                  "name": "position",
                  "type": "tuple"
                },
                {
                  "internalType": "bool",
                  "name": "isCreator",
                  "type": "bool"
                }
              ],
              "internalType": "struct ShipPosition[]",
              "name": "shipPositions",
              "type": "tuple[]"
            },
            {
              "internalType": "uint256[]",
              "name": "creatorActiveShipIds",
              "type": "uint256[]"
            },
            {
              "internalType": "uint256[]",
              "name": "joinerActiveShipIds",
              "type": "uint256[]"
            }
          ],
          "internalType": "struct GameDataView",
          "name": "",
          "type": "tuple"
        }
      ],
      "stateMutability": "view",
      "type": "function"
    },
    {
      "inputs": [
        {
          "internalType": "address",
          "name": "_player",
          "type": "address"
        }
      ],
      "name": "getGamesForPlayer",
      "outputs": [
        {
          "components": [
            {
              "components": [
                {
                  "internalType": "uint256",
                  "name": "gameId",
                  "type": "uint256"
                },
                {
                  "internalType": "uint256",
                  "name": "lobbyId",
                  "type": "uint256"
                },
                {
                  "internalType": "address",
                  "name": "creator",
                  "type": "address"
                },
                {
                  "internalType": "address",
                  "name": "joiner",
                  "type": "address"
                },
                {
                  "internalType": "uint256",
                  "name": "creatorFleetId",
                  "type": "uint256"
                },
                {
                  "internalType": "uint256",
                  "name": "joinerFleetId",
                  "type": "uint256"
                },
                {
                  "internalType": "bool",
                  "name": "creatorGoesFirst",
                  "type": "bool"
                },
                {
                  "internalType": "uint256",
                  "name": "startedAt",
                  "type": "uint256"
                },
                {
                  "internalType": "address",
                  "name": "winner",
                  "type": "address"
                }
              ],
              "internalType": "struct GameMetadata",
              "name": "metadata",
              "type": "tuple"
            },
            {
              "components": [
                {
                  "internalType": "address",
                  "name": "currentTurn",
                  "type": "address"
                },
                {
                  "internalType": "uint256",
                  "name": "turnTime",
                  "type": "uint256"
                },
                {
                  "internalType": "uint256",
                  "name": "turnStartTime",
                  "type": "uint256"
                },
                {
                  "internalType": "uint256",
                  "name": "currentRound",
                  "type": "uint256"
                }
              ],
              "internalType": "struct GameTurnState",
              "name": "turnState",
              "type": "tuple"
            },
            {
              "components": [
                {
                  "internalType": "int16",
                  "name": "gridWidth",
                  "type": "int16"
                },
                {
                  "internalType": "int16",
                  "name": "gridHeight",
                  "type": "int16"
                }
              ],
              "internalType": "struct GameGridDimensions",
              "name": "gridDimensions",
              "type": "tuple"
            },
            {
              "internalType": "uint256",
              "name": "maxScore",
              "type": "uint256"
            },
            {
              "internalType": "uint256",
              "name": "creatorScore",
              "type": "uint256"
            },
            {
              "internalType": "uint256",
              "name": "joinerScore",
              "type": "uint256"
            },
            {
              "internalType": "uint256[]",
              "name": "shipIds",
              "type": "uint256[]"
            },
            {
              "components": [
                {
                  "internalType": "uint16",
                  "name": "version",
                  "type": "uint16"
                },
                {
                  "internalType": "uint8",
                  "name": "range",
                  "type": "uint8"
                },
                {
                  "internalType": "uint8",
                  "name": "gunDamage",
                  "type": "uint8"
                },
                {
                  "internalType": "uint8",
                  "name": "hullPoints",
                  "type": "uint8"
                },
                {
                  "internalType": "uint8",
                  "name": "maxHullPoints",
                  "type": "uint8"
                },
                {
                  "internalType": "uint8",
                  "name": "movement",
                  "type": "uint8"
                },
                {
                  "internalType": "uint8",
                  "name": "damageReduction",
                  "type": "uint8"
                },
                {
                  "internalType": "uint8",
                  "name": "reactorCriticalTimer",
                  "type": "uint8"
                },
                {
                  "internalType": "uint8[]",
                  "name": "statusEffects",
                  "type": "uint8[]"
                }
              ],
              "internalType": "struct Attributes[]",
              "name": "shipAttributes",
              "type": "tuple[]"
            },
            {
              "components": [
                {
                  "internalType": "uint256",
                  "name": "shipId",
                  "type": "uint256"
                },
                {
                  "components": [
                    {
                      "internalType": "int16",
                      "name": "row",
                      "type": "int16"
                    },
                    {
                      "internalType": "int16",
                      "name": "col",
                      "type": "int16"
                    }
                  ],
                  "internalType": "struct Position",
                  "name": "position",
                  "type": "tuple"
                },
                {
                  "internalType": "bool",
                  "name": "isCreator",
                  "type": "bool"
                }
              ],
              "internalType": "struct ShipPosition[]",
              "name": "shipPositions",
              "type": "tuple[]"
            },
            {
              "internalType": "uint256[]",
              "name": "creatorActiveShipIds",
              "type": "uint256[]"
            },
            {
              "internalType": "uint256[]",
              "name": "joinerActiveShipIds",
              "type": "uint256[]"
            }
          ],
          "internalType": "struct GameDataView[]",
          "name": "",
          "type": "tuple[]"
        }
      ],
      "stateMutability": "view",
      "type": "function"
    },
    {
      "inputs": [
        {
          "internalType": "uint256[]",
          "name": "_gameIds",
          "type": "uint256[]"
        }
      ],
      "name": "getGamesFromIds",
      "outputs": [
        {
          "components": [
            {
              "components": [
                {
                  "internalType": "uint256",
                  "name": "gameId",
                  "type": "uint256"
                },
                {
                  "internalType": "uint256",
                  "name": "lobbyId",
                  "type": "uint256"
                },
                {
                  "internalType": "address",
                  "name": "creator",
                  "type": "address"
                },
                {
                  "internalType": "address",
                  "name": "joiner",
                  "type": "address"
                },
                {
                  "internalType": "uint256",
                  "name": "creatorFleetId",
                  "type": "uint256"
                },
                {
                  "internalType": "uint256",
                  "name": "joinerFleetId",
                  "type": "uint256"
                },
                {
                  "internalType": "bool",
                  "name": "creatorGoesFirst",
                  "type": "bool"
                },
                {
                  "internalType": "uint256",
                  "name": "startedAt",
                  "type": "uint256"
                },
                {
                  "internalType": "address",
                  "name": "winner",
                  "type": "address"
                }
              ],
              "internalType": "struct GameMetadata",
              "name": "metadata",
              "type": "tuple"
            },
            {
              "components": [
                {
                  "internalType": "address",
                  "name": "currentTurn",
                  "type": "address"
                },
                {
                  "internalType": "uint256",
                  "name": "turnTime",
                  "type": "uint256"
                },
                {
                  "internalType": "uint256",
                  "name": "turnStartTime",
                  "type": "uint256"
                },
                {
                  "internalType": "uint256",
                  "name": "currentRound",
                  "type": "uint256"
                }
              ],
              "internalType": "struct GameTurnState",
              "name": "turnState",
              "type": "tuple"
            },
            {
              "components": [
                {
                  "internalType": "int16",
                  "name": "gridWidth",
                  "type": "int16"
                },
                {
                  "internalType": "int16",
                  "name": "gridHeight",
                  "type": "int16"
                }
              ],
              "internalType": "struct GameGridDimensions",
              "name": "gridDimensions",
              "type": "tuple"
            },
            {
              "internalType": "uint256",
              "name": "maxScore",
              "type": "uint256"
            },
            {
              "internalType": "uint256",
              "name": "creatorScore",
              "type": "uint256"
            },
            {
              "internalType": "uint256",
              "name": "joinerScore",
              "type": "uint256"
            },
            {
              "internalType": "uint256[]",
              "name": "shipIds",
              "type": "uint256[]"
            },
            {
              "components": [
                {
                  "internalType": "uint16",
                  "name": "version",
                  "type": "uint16"
                },
                {
                  "internalType": "uint8",
                  "name": "range",
                  "type": "uint8"
                },
                {
                  "internalType": "uint8",
                  "name": "gunDamage",
                  "type": "uint8"
                },
                {
                  "internalType": "uint8",
                  "name": "hullPoints",
                  "type": "uint8"
                },
                {
                  "internalType": "uint8",
                  "name": "maxHullPoints",
                  "type": "uint8"
                },
                {
                  "internalType": "uint8",
                  "name": "movement",
                  "type": "uint8"
                },
                {
                  "internalType": "uint8",
                  "name": "damageReduction",
                  "type": "uint8"
                },
                {
                  "internalType": "uint8",
                  "name": "reactorCriticalTimer",
                  "type": "uint8"
                },
                {
                  "internalType": "uint8[]",
                  "name": "statusEffects",
                  "type": "uint8[]"
                }
              ],
              "internalType": "struct Attributes[]",
              "name": "shipAttributes",
              "type": "tuple[]"
            },
            {
              "components": [
                {
                  "internalType": "uint256",
                  "name": "shipId",
                  "type": "uint256"
                },
                {
                  "components": [
                    {
                      "internalType": "int16",
                      "name": "row",
                      "type": "int16"
                    },
                    {
                      "internalType": "int16",
                      "name": "col",
                      "type": "int16"
                    }
                  ],
                  "internalType": "struct Position",
                  "name": "position",
                  "type": "tuple"
                },
                {
                  "internalType": "bool",
                  "name": "isCreator",
                  "type": "bool"
                }
              ],
              "internalType": "struct ShipPosition[]",
              "name": "shipPositions",
              "type": "tuple[]"
            },
            {
              "internalType": "uint256[]",
              "name": "creatorActiveShipIds",
              "type": "uint256[]"
            },
            {
              "internalType": "uint256[]",
              "name": "joinerActiveShipIds",
              "type": "uint256[]"
            }
          ],
          "internalType": "struct GameDataView[]",
          "name": "",
          "type": "tuple[]"
        }
      ],
      "stateMutability": "view",
      "type": "function"
    },
    {
      "inputs": [
        {
          "internalType": "address",
          "name": "_player",
          "type": "address"
        }
      ],
      "name": "getPlayerGameIds",
      "outputs": [
        {
          "internalType": "uint256[]",
          "name": "",
          "type": "uint256[]"
        }
      ],
      "stateMutability": "view",
      "type": "function"
    },
    {
      "inputs": [
        {
          "internalType": "uint256",
          "name": "_gameId",
          "type": "uint256"
        },
        {
          "internalType": "uint256",
          "name": "_shipId",
          "type": "uint256"
        }
      ],
      "name": "getShipAttributes",
      "outputs": [
        {
          "components": [
            {
              "internalType": "uint16",
              "name": "version",
              "type": "uint16"
            },
            {
              "internalType": "uint8",
              "name": "range",
              "type": "uint8"
            },
            {
              "internalType": "uint8",
              "name": "gunDamage",
              "type": "uint8"
            },
            {
              "internalType": "uint8",
              "name": "hullPoints",
              "type": "uint8"
            },
            {
              "internalType": "uint8",
              "name": "maxHullPoints",
              "type": "uint8"
            },
            {
              "internalType": "uint8",
              "name": "movement",
              "type": "uint8"
            },
            {
              "internalType": "uint8",
              "name": "damageReduction",
              "type": "uint8"
            },
            {
              "internalType": "uint8",
              "name": "reactorCriticalTimer",
              "type": "uint8"
            },
            {
              "internalType": "uint8[]",
              "name": "statusEffects",
              "type": "uint8[]"
            }
          ],
          "internalType": "struct Attributes",
          "name": "",
          "type": "tuple"
        }
      ],
      "stateMutability": "view",
      "type": "function"
    },
    {
      "inputs": [
        {
          "internalType": "uint256",
          "name": "target",
          "type": "uint256"
        }
      ],
      "name": "lastDamage",
      "outputs": [
        {
          "internalType": "uint256",
          "name": "lastDamager",
          "type": "uint256"
        }
      ],
      "stateMutability": "view",
      "type": "function"
    },
    {
      "inputs": [],
      "name": "lobbiesAddress",
      "outputs": [
        {
          "internalType": "address",
          "name": "",
          "type": "address"
        }
      ],
      "stateMutability": "view",
      "type": "function"
    },
    {
      "inputs": [],
      "name": "maps",
      "outputs": [
        {
          "internalType": "contract IMaps",
          "name": "",
          "type": "address"
        }
      ],
      "stateMutability": "view",
      "type": "function"
    },
    {
      "inputs": [
        {
          "internalType": "uint256",
          "name": "_gameId",
          "type": "uint256"
        },
        {
          "internalType": "uint256",
          "name": "_shipId",
          "type": "uint256"
        },
        {
          "internalType": "int16",
          "name": "_newRow",
          "type": "int16"
        },
        {
          "internalType": "int16",
          "name": "_newCol",
          "type": "int16"
        },
        {
          "internalType": "enum ActionType",
          "name": "actionType",
          "type": "uint8"
        },
        {
          "internalType": "uint256",
          "name": "targetShipId",
          "type": "uint256"
        }
      ],
      "name": "moveShip",
      "outputs": [],
      "stateMutability": "nonpayable",
      "type": "function"
    },
    {
      "inputs": [],
      "name": "owner",
      "outputs": [
        {
          "internalType": "address",
          "name": "",
          "type": "address"
        }
      ],
      "stateMutability": "view",
      "type": "function"
    },
    {
      "inputs": [
        {
          "internalType": "address",
          "name": "",
          "type": "address"
        },
        {
          "internalType": "uint256",
          "name": "",
          "type": "uint256"
        }
      ],
      "name": "playerGames",
      "outputs": [
        {
          "internalType": "uint256",
          "name": "",
          "type": "uint256"
        }
      ],
      "stateMutability": "view",
      "type": "function"
    },
    {
      "inputs": [],
      "name": "renounceOwnership",
      "outputs": [],
      "stateMutability": "nonpayable",
      "type": "function"
    },
    {
      "inputs": [
        {
          "internalType": "address",
          "name": "_mapsAddress",
          "type": "address"
        },
        {
          "internalType": "address",
          "name": "_lobbiesAddress",
          "type": "address"
        },
        {
          "internalType": "address",
          "name": "_fleetsAddress",
          "type": "address"
        },
        {
          "internalType": "address",
          "name": "_gameResultsAddress",
          "type": "address"
        },
        {
          "internalType": "address",
          "name": "_shipAttributesAddress",
          "type": "address"
        }
      ],
      "name": "setAddresses",
      "outputs": [],
      "stateMutability": "nonpayable",
      "type": "function"
    },
    {
      "inputs": [],
      "name": "shipAttributes",
      "outputs": [
        {
          "internalType": "contract IShipAttributes",
          "name": "",
          "type": "address"
        }
      ],
      "stateMutability": "view",
      "type": "function"
    },
    {
      "inputs": [],
      "name": "ships",
      "outputs": [
        {
          "internalType": "contract IShips",
          "name": "",
          "type": "address"
        }
      ],
      "stateMutability": "view",
      "type": "function"
    },
    {
      "inputs": [
        {
          "internalType": "uint256",
          "name": "_lobbyId",
          "type": "uint256"
        },
        {
          "internalType": "address",
          "name": "_creator",
          "type": "address"
        },
        {
          "internalType": "address",
          "name": "_joiner",
          "type": "address"
        },
        {
          "internalType": "uint256",
          "name": "_creatorFleetId",
          "type": "uint256"
        },
        {
          "internalType": "uint256",
          "name": "_joinerFleetId",
          "type": "uint256"
        },
        {
          "internalType": "bool",
          "name": "_creatorGoesFirst",
          "type": "bool"
        },
        {
          "internalType": "uint256",
          "name": "_turnTime",
          "type": "uint256"
        },
        {
          "internalType": "uint256",
          "name": "_selectedMapId",
          "type": "uint256"
        },
        {
          "internalType": "uint256",
          "name": "_maxScore",
          "type": "uint256"
        }
      ],
      "name": "startGame",
      "outputs": [],
      "stateMutability": "nonpayable",
      "type": "function"
    },
    {
      "inputs": [
        {
          "internalType": "address",
          "name": "newOwner",
          "type": "address"
        }
      ],
      "name": "transferOwnership",
      "outputs": [],
      "stateMutability": "nonpayable",
      "type": "function"
    }
  ],
  "bytecode": "0x608060405234801561001057600080fd5b50604051615de2380380615de283398101604081905261002f916100fc565b338061005557604051631e4fbdf760e01b81526000600482015260240160405180910390fd5b61005e81610090565b50600180546001600160a01b039384166001600160a01b0319918216179091556003805492909316911617905561012f565b600080546001600160a01b038381166001600160a01b0319831681178455604051919092169283917f8be0079c531659141344cd1fd0a4f28419497f9722a3daafe3b4186f6b6457e09190a35050565b80516001600160a01b03811681146100f757600080fd5b919050565b6000806040838503121561010f57600080fd5b610118836100e0565b9150610126602084016100e0565b90509250929050565b615ca48061013e6000396000f3fe608060405234801561001057600080fd5b50600436106101fb5760003560e01c80636eb0f9d21161011a578063a2f77bcc116100ad578063d78ffe581161007c578063d78ffe5814610572578063e8d64aee14610585578063ecd1406d14610598578063edf59b3c146105ab578063f2fde38b146105be57600080fd5b8063a2f77bcc14610519578063bbf8218a14610539578063beaa8fa41461054c578063ce720bca1461055f57600080fd5b806384cb37ea116100e957806384cb37ea146104c25780638da5cb5b146104d557806390de1d9b146104e65780639c91fe671461050657600080fd5b80636eb0f9d214610474578063715018a6146104875780637b2fe23b1461048f5780637c767cb9146104af57600080fd5b806341f5f5e9116101925780634d1975b4116101615780634d1975b41461042557806355cebda81461042e578063566adcd0146104415780635dd68acd1461046157600080fd5b806341f5f5e9146103d7578063423bb46f146103ea57806348915d911461040a5780634bf11ad21461041d57600080fd5b806318d7261d116101ce57806318d7261d1461036b578063235e78eb1461037e578063336d7d7b146103995780633deaec2b146103c457600080fd5b80630a5694c2146102005780630aa1b26614610226578063100017cb14610246578063117a5b901461025b575b600080fd5b61021361020e366004614bd9565b6105d1565b6040519081526020015b60405180910390f35b610239610234366004614c05565b610602565b60405161021d9190614fa5565b61025961025436600461500a565b610621565b005b61035961026936600461502c565b600760208181526000928352604092839020835161012081018552815481526001808301548285015260028301546001600160a01b0390811683880152600384015481166060808501919091526004850154608080860191909152600586015460a0860152600686015460ff16151560c08601529685015460e0850152600885015482166101008501528751968701885260098501549091168652600a84015486860152600b84015486880152600c840154908601528551808701909652600d83015480820b8752620100009004900b92850192909252600e810154600f82015460109092015492949290919086565b60405161021d96959493929190615045565b61025961037936600461500a565b610637565b610386602881565b60405160019190910b815260200161021d565b6005546103ac906001600160a01b031681565b6040516001600160a01b03909116815260200161021d565b6004546103ac906001600160a01b031681565b6003546103ac906001600160a01b031681565b6103fd6103f836600461500a565b61068c565b60405161021d91906150be565b6002546103ac906001600160a01b031681565b610386601481565b61021360085481565b61025961043c36600461500a565b610803565b61045461044f36600461502c565b610977565b60405161021d91906150d1565b61025961046f3660046150e4565b610b72565b610239610482366004615298565b610bd9565b610259610c8c565b6104a261049d366004614c05565b610ca0565b60405161021d91906152cc565b6102596104bd36600461531b565b610d0c565b6102596104d036600461502c565b610dae565b6000546001600160a01b03166103ac565b6102136104f436600461502c565b600a6020526000908152604090205481565b610259610514366004615361565b610e7b565b61052c61052736600461502c565b610eb2565b60405161021d91906153a7565b6001546103ac906001600160a01b031681565b61025961055a3660046153ba565b611515565b6006546103ac906001600160a01b031681565b61025961058036600461502c565b6119fb565b61025961059336600461542f565b611adb565b6102596105a63660046154c4565b611d0f565b6102596105b936600461500a565b611d57565b6102596105cc366004614c05565b611d94565b600960205281600052604060002081815481106105ed57600080fd5b90600052602060002001600091509150505481565b6060600061060f83610ca0565b905061061a81610bd9565b9392505050565b610629611dd7565b6106338282611e04565b5050565b61063f611dd7565b6000918252600760209081526040808420838552601181018352818520805464ff0000000019169055600c810154855260140182528084209284529190529020805460ff19166001179055565b61069461488f565b60008381526007602052604081205490036106c2576040516309b3c62760e21b815260040160405180910390fd5b600083815260076020908152604080832085845260110190915281208054909161ffff9091169003610707576040516303c113ad60e61b815260040160405180910390fd5b6040805161012081018252825461ffff8116825260ff620100008204811660208085019190915263010000008304821684860152600160201b830482166060850152600160281b830482166080850152600160301b8304821660a0850152600160381b8304821660c0850152600160401b9092041660e0830152600184018054845181840281018401909552808552929385936101008601939192918301828280156107f057602002820191906000526020600020906000905b825461010083900a900460ff168152602060019283018181049485019490930390920291018084116107c15790505b5050505050815250509150505b92915050565b600082815260076020908152604080832084845260118101909252808320600354915163e197c62760e01b8152600481018690529293909290916001600160a01b03169063e197c62790602401600060405180830381865afa15801561086d573d6000803e3d6000fd5b505050506040513d6000823e601f3d908101601f191682016040526108959190810190615581565b8051835460208084015160408501516060860151608087015160a088015160c089015160ff908116600160381b0267ff0000000000000019928216600160301b0266ff00000000000019948316600160281b029490941666ffff000000000019958316600160201b0264ff00000000199784166301000000029790971664ffff0000001993909816620100000262ffffff19909a1661ffff909b169a909a179890981716949094179290921716949094179390931792909216178455610100820151805192935061096f92600186019291909101906148dd565b505050505050565b600081815260076020526040812054606091036109a7576040516309b3c62760e21b815260040160405180910390fd5b600082815260076020526040812090805b6014600182900b1215610a305760005b6028600182900b1215610a2757600182810b600090815260128601602090815260408083209385900b835292905220548015801590610a0b5750610a0b81612081565b15610a1e5783610a1a81615691565b9450505b506001016109c8565b506001016109b8565b506000816001600160401b03811115610a4b57610a4b615155565b604051908082528060200260200182016040528015610a8457816020015b610a71614983565b815260200190600190039081610a695790505b5090506000805b6014600182900b1215610b675760005b6028600182900b1215610b5e57600182810b600090815260128801602090815260408083209385900b835292905220548015801590610ade5750610ade81612081565b15610b55576000610aef8a836120f6565b9050604051806060016040528083815260200160405180604001604052808760010b81526020018660010b8152508152602001821515815250868681518110610b3a57610b3a6156aa565b60200260200101819052508480610b5090615691565b955050505b50600101610a9b565b50600101610a8b565b509095945050505050565b610b7a611dd7565b600480546001600160a01b03199081166001600160a01b03978816179091556005805482169587169590951790945560028054851693861693909317909255600680548416918516919091179055600380549092169216919091179055565b6060600082516001600160401b03811115610bf657610bf6615155565b604051908082528060200260200182016040528015610c2f57816020015b610c1c6149c5565b815260200190600190039081610c145790505b50905060005b8351811015610c8557610c60848281518110610c5357610c536156aa565b6020026020010151610eb2565b828281518110610c7257610c726156aa565b6020908102919091010152600101610c35565b5092915050565b610c94611dd7565b610c9e6000612132565b565b6001600160a01b038116600090815260096020908152604091829020805483518184028101840190945280845260609392830182828015610d0057602002820191906000526020600020905b815481526020019060010190808311610cec575b50505050509050919050565b610d14611dd7565b6000938452600760209081526040808620858752601381018084528288208054600181810b8b526012909401808752858b206201000092839004860b8c528752858b208b90558551808701875298850b808a529790940b8887018181528a8c5293875297518254935161ffff90811690920263ffffffff199094169116179190911790559286529181528185209285529190915290912055565b600081815260076020526040902060088101546001600160a01b031615610de8576040516321e08b4d60e21b815260040160405180910390fd5b60028101546001600160a01b03163314801590610e12575060038101546001600160a01b03163314155b15610e305760405163218286cb60e11b815260040160405180910390fd5b60028101546000906001600160a01b03163314610e5a5760028201546001600160a01b0316610e69565b60038201546001600160a01b03165b9050610e76838233612182565b505050565b60005b8151811015610e7657610eaa83838381518110610e9d57610e9d6156aa565b6020026020010151610803565b600101610e7e565b610eba6149c5565b6000828152600760205260408120549003610ee8576040516309b3c62760e21b815260040160405180910390fd5b600082815260076020908152604080832060028101546001600160a01b03908116855260158201909352818420600382015490931684529083209092610f2d83612272565b90506000610f3a83612272565b9050600081518351610f4c91906156c0565b90506000816001600160401b03811115610f6857610f68615155565b604051908082528060200260200182016040528015610fa157816020015b610f8e61488f565b815260200190600190039081610f865790505b5090506000826001600160401b03811115610fbe57610fbe615155565b604051908082528060200260200182016040528015610fe7578160200160208202803683370190505b50905060005b85518110156111725788601101600087838151811061100e5761100e6156aa565b6020908102919091018101518252818101929092526040908101600020815161012081018352815461ffff8116825260ff62010000820481168387015263010000008204811683860152600160201b820481166060840152600160281b820481166080840152600160301b8204811660a0840152600160381b8204811660c0840152600160401b9091041660e08201526001820180548451818702810187019095528085529194929361010086019390929083018282801561110d57602002820191906000526020600020906000905b825461010083900a900460ff168152602060019283018181049485019490930390920291018084116110de5790505b505050505081525050838281518110611128576111286156aa565b6020026020010181905250858181518110611145576111456156aa565b602002602001015182828151811061115f5761115f6156aa565b6020908102919091010152600101610fed565b5060005b845181101561131357886011016000868381518110611197576111976156aa565b6020908102919091018101518252818101929092526040908101600020815161012081018352815461ffff8116825260ff62010000820481168387015263010000008204811683860152600160201b820481166060840152600160281b820481166080840152600160301b8204811660a0840152600160381b8204811660c0840152600160401b9091041660e08201526001820180548451818702810187019095528085529194929361010086019390929083018282801561129657602002820191906000526020600020906000905b825461010083900a900460ff168152602060019283018181049485019490930390920291018084116112675790505b505050505081525050838288516112ad91906156c0565b815181106112bd576112bd6156aa565b60200260200101819052508481815181106112da576112da6156aa565b6020026020010151828288516112f091906156c0565b81518110611300576113006156aa565b6020908102919091010152600101611176565b50600061131f8b610977565b90506040518061016001604052808a6000016040518061012001604052908160008201548152602001600182015481526020016002820160009054906101000a90046001600160a01b03166001600160a01b03166001600160a01b031681526020016003820160009054906101000a90046001600160a01b03166001600160a01b03166001600160a01b0316815260200160048201548152602001600582015481526020016006820160009054906101000a900460ff16151515158152602001600782015481526020016008820160009054906101000a90046001600160a01b03166001600160a01b03166001600160a01b03168152505081526020018a6009016040518060800160405290816000820160009054906101000a90046001600160a01b03166001600160a01b03166001600160a01b03168152602001600182015481526020016002820154815260200160038201548152505081526020018a600d016040518060400160405290816000820160009054906101000a900460010b60010b60010b81526020016000820160029054906101000a900460010b60010b60010b8152505081526020018a600e015481526020018a600f015481526020018a601001548152602001838152602001848152602001828152602001878152602001868152509950505050505050505050919050565b6000868152600760205260408120549003611543576040516309b3c62760e21b815260040160405180910390fd5b600086815260076020526040902060088101546001600160a01b03161561157d576040516321e08b4d60e21b815260040160405180910390fd5b60098101546001600160a01b031633146115aa57604051631cc191eb60e31b815260040160405180910390fd5b60006115b587612309565b60a08101519091506001600160a01b031633146115e557604051630b18e5d760e21b815260040160405180910390fd5b6000878152601183016020526040812080549091600160201b90910460ff169003611623576040516398586ca160e01b815260040160405180910390fd5b60025460048481015460405162b5e41160e51b815291820152602481018a90526001600160a01b03909116906316bc822090604401602060405180830381865afa158015611675573d6000803e3d6000fd5b505050506040513d601f19601f8201168201806040525081019061169991906156de565b1580156117215750600254600584015460405162b5e41160e51b81526001600160a01b03909216916316bc8220916116de918c90600401918252602082015260400190565b602060405180830381865afa1580156116fb573d6000803e3d6000fd5b505050506040513d601f19601f8201168201806040525081019061171f91906156de565b155b1561173f576040516303c113ad60e61b815260040160405180910390fd5b600c830154600090815260148401602090815260408083208b845290915290205460ff161561178157604051637d64fb5d60e01b815260040160405180910390fd5b60008881526013840160205260408120805490919060018a810b91900b1480156117b857508154600189810b62010000909204900b145b9050806118c4576040805180820182528354600181810b835262010000909104810b60208084019190915283518085019094528c820b8452908b900b9083015260009161180591906123d1565b60008c8152601188016020526040902080549192509060ff600160301b90910481169083161115611849576040516321e08b4d60e21b815260040160405180910390fd5b601460018c900b1215806118625750602860018b900b12155b156118805760405163673f032f60e11b815260040160405180910390fd5b60018b810b60009081526012890160209081526040808320938e900b83529290522054156118c157604051638243205760e01b815260040160405180910390fd5b50505b8061198657604080518082019091528254600181810b835262010000909104900b6020820152611986908c908c908c8c60009485526007602090815260408087208551600190810b895260128201808552838a2097850151820b8a5296845282892089905594850b8089529583528188209390940b8088529282528087208690558051808201825294855284820192835294865260139092019091529190922091518254915161ffff908116620100000263ffffffff19909316911617179055565b600c850154600090815260148601602090815260408083208d84529091529020805460ff191660011790556119c0858c8c8c8c8c8c612465565b6119c98b6125da565b156119dc576119d78b6125f1565b6119e5565b6119e58b61267c565b505042600b909301929092555050505050505050565b6000818152600760205260408120549003611a29576040516309b3c62760e21b815260040160405180910390fd5b611a3281612744565b611a4f5760405163023e733b60e61b815260040160405180910390fd5b600081815260076020526040902060098101546001600160a01b03163303611a8a57604051631cc191eb60e31b815260040160405180910390fd5b60028101546001600160a01b03163314801590611ab4575060038101546001600160a01b03163314155b15611ad25760405163218286cb60e11b815260040160405180910390fd5b6106338261276f565b6005546001600160a01b03163314611b0657604051638671306560e01b815260040160405180910390fd5b60088054906000611b1683615691565b90915550506008546000818152600760208190526040909120918255600182018b90556002820180546001600160a01b03808d166001600160a01b031992831617909255600384018054928c1692909116919091179055600482018890556005820187905560068201805487151560ff19909116179055429082015584611b9d5787611b9f565b885b6009820180546001600160a01b0319166001600160a01b0392909216919091179055600a810184905542600b8201556001600c820155600d8101805463ffffffff191662140028179055600e81018290558215611c5b5760048054600854604051636a5257fd60e11b815292830152602482018590526001600160a01b03169063d4a4affa90604401600060405180830381600087803b158015611c4257600080fd5b505af1158015611c56573d6000803e3d6000fd5b505050505b611c6860085488886127ff565b611c7560085488886129c7565b6001600160a01b038981166000818152600960209081526040808320600880548254600180820185559387528587200155958e16808552828520875481549384018255908652948490209091019390935593548451938452908301919091528c9290917f9f0b80476ce7b05cfe8b0800d21f0b0f2704c8eb948fa5d5e87997ec901f96d1910160405180910390a350505050505050505050565b611d17611dd7565b6000928352600760209081526040808520938552601190930190529120805460ff909216600160401b0268ff000000000000000019909216919091179055565b611d5f611dd7565b6000918252600760209081526040808420600c810154855260140182528084209284529190529020805460ff19166001179055565b611d9c611dd7565b6001600160a01b038116611dcb57604051631e4fbdf760e01b8152600060048201526024015b60405180910390fd5b611dd481612132565b50565b6000546001600160a01b03163314610c9e5760405163118cdaa760e01b8152336004820152602401611dc2565b6000828152600760205260408120549003611e32576040516309b3c62760e21b815260040160405180910390fd5b600082815260076020526040812090611e4a83612309565b60025460048481015460405162b5e41160e51b815291820152602481018690529192506000916001600160a01b03909116906316bc822090604401602060405180830381865afa158015611ea2573d6000803e3d6000fd5b505050506040513d601f19601f82011682018060405250810190611ec691906156de565b600254600585015460405162b5e41160e51b81529293506000926001600160a01b03909216916316bc822091611f09918990600401918252602082015260400190565b602060405180830381865afa158015611f26573d6000803e3d6000fd5b505050506040513d601f19601f82011682018060405250810190611f4a91906156de565b905081158015611f58575080155b15611f76576040516303c113ad60e61b815260040160405180910390fd5b608083015160c0015115611f9d576040516398586ca160e01b815260040160405180910390fd5b600085815260138501602090815260408083208054600181810b865260128a01855283862062010000909204810b8652908452828520859055600c89015485526014890184528285208a86528452828520805460ff19168217905554600a909352928190205490516311a960cd60e01b81526004810189905260248101919091526001600160a01b03909116906311a960cd90604401600060405180830381600087803b15801561204d57600080fd5b505af1158015612061573d6000803e3d6000fd5b5050505061206f8787612ad2565b61207887612b30565b50505050505050565b600154604051639596010160e01b8152600481018390526000916001600160a01b031690639596010190602401602060405180830381865afa1580156120cb573d6000803e3d6000fd5b505050506040513d601f19601f820116820180604052508101906120ef91906156de565b1592915050565b600082815260076020908152604080832060028101546001600160a01b0316845260158101909252822061212a9084612bbc565b949350505050565b600080546001600160a01b038381166001600160a01b0319831681178455604051919092169283917f8be0079c531659141344cd1fd0a4f28419497f9722a3daafe3b4186f6b6457e09190a35050565b60008381526007602052604090206008810180546001600160a01b0319166001600160a01b0385811691909117909155600654161561222a5760065460405163d6c6eb9f60e01b8152600481018690526001600160a01b03858116602483015284811660448301529091169063d6c6eb9f90606401600060405180830381600087803b15801561221157600080fd5b505af1158015612225573d6000803e3d6000fd5b505050505b6002810154600482015461224b9186916001600160a01b0390911690612bd4565b6003810154600582015461226c9186916001600160a01b0390911690612bd4565b50505050565b6060600061227f83612c91565b90506000816001600160401b0381111561229b5761229b615155565b6040519080825280602002602001820160405280156122c4578160200160208202803683370190505b50905060005b82811015612301576122dc8582612c9b565b8282815181106122ee576122ee6156aa565b60209081029190910101526001016122ca565b509392505050565b612311614a97565b600154604051634025b22d60e01b8152600481018490526000916001600160a01b031690634025b22d90602401600060405180830381865afa15801561235b573d6000803e3d6000fd5b505050506040513d6000823e601f3d908101601f191682016040526123839190810190615930565b905080602001516000036123aa576040516303c113ad60e61b815260040160405180910390fd5b608081015160c00151156107fd576040516398586ca160e01b815260040160405180910390fd5b600080826000015160010b846000015160010b136123fc57835183516123f79190615a61565b61240a565b8251845161240a9190615a61565b90506000836020015160010b856020015160010b1361243c57846020015184602001516124379190615a61565b612450565b836020015185602001516124509190615a61565b905061245c8183615a84565b95945050505050565b600154604051634025b22d60e01b8152600481018790526000916001600160a01b031690634025b22d90602401600060405180830381865afa1580156124af573d6000803e3d6000fd5b505050506040513d6000823e601f3d908101601f191682016040526124d79190810190615930565b905060008360058111156124ed576124ed615a9d565b146125d057600183600581111561250657612506615a9d565b0361251f5761251a88888888888787612ca7565b6125d0565b600283600581111561253357612533615a9d565b036125425761251a8787612f71565b600383600581111561255657612556615a9d565b036125685761251a878787878661329f565b600483600581111561257c5761257c615a9d565b0361258e5761251a8787878786613463565b60058360058111156125a2576125a2615a9d565b036125b75761251a878260a001518787613545565b6040516321e08b4d60e21b815260040160405180910390fd5b5050505050505050565b6000806125e9836136f3613747565b159392505050565b600081815260076020526040902061260882613836565b600c8101805490600061261a83615691565b9190505550612628826139fe565b600681015460ff166126475760038101546001600160a01b0316612656565b60028101546001600160a01b03165b60099190910180546001600160a01b0319166001600160a01b0390921691909117905550565b6000818152600760205260409020600281015460098201546001600160a01b039182169116036126f55760038101546000906126c29084906001600160a01b0316613b8c565b90508015610e765760038201546009830180546001600160a01b0319166001600160a01b03909216919091179055505050565b60028101546000906127119084906001600160a01b0316613b8c565b90508015610e765760028201546009830180546001600160a01b0319166001600160a01b03909216919091179055505050565b6000818152600760205260408120600a810154600b82015461276691906156c0565b42119392505050565b6000818152600760205260409020600281015460098201546001600160a01b039182169116036127b75760028101546127b29083906001600160a01b0316613c37565b6127d0565b60038101546127d09083906001600160a01b0316613c37565b6127d9826125da565b156127ec576127e7826125f1565b6127f5565b6127f58261267c565b42600b9091015550565b6000838152600760205260408082206002549151634ce29c2760e11b8152600481018690529092916001600160a01b0316906399c5384e90602401600060405180830381865afa158015612857573d6000803e3d6000fd5b505050506040513d6000823e601f3d908101601f1916820160405261287f9190810190615ab3565b905060005b81518110156128f05760028301546001600160a01b03166000908152601584016020526040902082516128d191908490849081106128c4576128c46156aa565b6020026020010151613cf4565b506128e886838381518110610e9d57610e9d6156aa565b600101612884565b50600254604051634ce29c2760e11b8152600481018590526000916001600160a01b0316906399c5384e90602401600060405180830381865afa15801561293b573d6000803e3d6000fd5b505050506040513d6000823e601f3d908101601f191682016040526129639190810190615ab3565b905060005b81518110156120785760038401546001600160a01b03166000908152601585016020526040902082516129a891908490849081106128c4576128c46156aa565b506129bf87838381518110610e9d57610e9d6156aa565b600101612968565b600083815260076020908152604080832060028101546001600160a01b0316845260158101909252822090916129fc82612c91565b905060005b81811015612a3d576000612a158483612c9b565b90506000612a24836002615b48565b9050612a338983836000613d00565b5050600101612a01565b5060038301546001600160a01b03166000908152601584016020526040812090612a6682612c91565b905060005b81811015612ac7576000612a7f8483612c9b565b90506000612a8e836002615b48565b612a9a60016014615a61565b612aa49190615a61565b9050612abd8b8383612ab860016028615a61565b613d00565b5050600101612a6b565b505050505050505050565b600082815260076020908152604080832060028101546001600160a01b0316845260158101909252909120612b079083613df0565b5060038101546001600160a01b03166000908152601582016020526040902061226c9083613df0565b60008181526007602052604090206002810154612b579083906001600160a01b0316613dfc565b612b7d57600381015460028201546106339184916001600160a01b039182169116612182565b6003810154612b969083906001600160a01b0316613dfc565b61063357600281015460038201546106339184916001600160a01b039182169116612182565b6000818152600183016020526040812054151561061a565b60008381526007602090815260408083206001600160a01b03861684526015810190925282209091612c0582612c91565b905060005b81811015612078576000612c1e8483612c9b565b6002546040516327ffe52160e01b815260048101899052602481018390529192506001600160a01b0316906327ffe52190604401600060405180830381600087803b158015612c6c57600080fd5b505af1158015612c80573d6000803e3d6000fd5b505060019093019250612c0a915050565b60006107fd825490565b600061061a8383613e6d565b6000612cb283612309565b90508160a001516001600160a01b03168160a001516001600160a01b031603612cee576040516321e08b4d60e21b815260040160405180910390fd5b604080518082018252600187810b825286810b602080840191909152600087815260138d0182528481208551808701909652805480850b875262010000900490930b918501919091529192909190612d479084906123d1565b60008a815260118d016020526040902080549192509060ff6201000090910481169083161115612d8a576040516321e08b4d60e21b815260040160405180910390fd5b60018260ff16118015612e2f5750600480548454604051638383c99560e01b81529283018e905260018c810b60248501528b810b604485015281810b606485015262010000909104900b60848301526001600160a01b031690638383c9959060a401602060405180830381865afa158015612e09573d6000803e3d6000fd5b505050506040513d601f19601f82011682018060405250810190612e2d91906156de565b155b15612e4d576040516321e08b4d60e21b815260040160405180910390fd5b600087815260118d016020526040812080549091600160201b90910460ff169003612eae578054600160401b900460ff16816008612e8a83615b5f565b91906101000a81548160ff021916908360ff16021790555050505050505050612078565b8154815460ff6301000000909204821691600160381b9091041660006064612ed68385615b7e565b612ee09190615b9b565b612eed9060ff8516615bcd565b8454909150600160201b900460ff1661ffff821610612f2857835464ff000000001916845560008b8152600a602052604090208e9055612f5f565b835481908590600490612f46908490600160201b900460ff16615be7565b92506101000a81548160ff021916908360ff1602179055505b50505050505050505050505050505050565b6000828152600760205260408120549003612f9f576040516309b3c62760e21b815260040160405180910390fd5b600082815260076020526040812090612fb783612309565b60025460048481015460405162b5e41160e51b815291820152602481018690529192506000916001600160a01b03909116906316bc822090604401602060405180830381865afa15801561300f573d6000803e3d6000fd5b505050506040513d601f19601f8201168201806040525081019061303391906156de565b600254600585015460405162b5e41160e51b81529293506000926001600160a01b03909216916316bc822091613076918990600401918252602082015260400190565b602060405180830381865afa158015613093573d6000803e3d6000fd5b505050506040513d601f19601f820116820180604052508101906130b791906156de565b9050811580156130c5575080155b156130e3576040516303c113ad60e61b815260040160405180910390fd5b608083015160c001511561310a576040516398586ca160e01b815260040160405180910390fd5b600085815260138501602090815260408083208054600181810b865260128a01855283862062010000909204810b8652908452828520859055600c89015485526014890184528285208a86529093529220805460ff1916909117905582156131d9576002546004868101546040516327ffe52160e01b815291820152602481018890526001600160a01b03909116906327ffe52190604401600060405180830381600087803b1580156131bc57600080fd5b505af11580156131d0573d6000803e3d6000fd5b5050505061324a565b60025460058601546040516327ffe52160e01b81526001600160a01b03909216916327ffe52191613217918a90600401918252602082015260400190565b600060405180830381600087803b15801561323157600080fd5b505af1158015613245573d6000803e3d6000fd5b505050505b60008681526011860160205260408120805468ffffffffffffffffff19168155906132786001830182614b8e565b505060008681526013860160205260409020805463ffffffff1916905561206f8787612ad2565b60008581526007602052604081205490036132cd576040516309b3c62760e21b815260040160405180910390fd5b6000858152600760205260408120906132e583612309565b600154604051634025b22d60e01b8152600481018990529192506000916001600160a01b0390911690634025b22d90602401600060405180830381865afa158015613334573d6000803e3d6000fd5b505050506040513d6000823e601f3d908101601f1916820160405261335c9190810190615930565b90508060a001516001600160a01b03168260a001516001600160a01b031614613398576040516321e08b4d60e21b815260040160405180910390fd5b600084815260118401602052604090208054600160201b900460ff16156133d2576040516321e08b4d60e21b815260040160405180910390fd5b600085815260138501602090815260408083208151808301835260018c810b82528b810b828601528351808501909452825480820b8552620100009004900b9383019390935292906134259083906123d1565b90508060ff1660011461344b576040516321e08b4d60e21b815260040160405180910390fd5b6134558c89612f71565b505050505050505050505050565b600061346e82612309565b600154604051634025b22d60e01b8152600481018890529192506000916001600160a01b0390911690634025b22d90602401600060405180830381865afa1580156134bd573d6000803e3d6000fd5b505050506040513d6000823e601f3d908101601f191682016040526134e59190810190615930565b90506000816040015160600151600381111561350357613503615a9d565b03613521576040516321e08b4d60e21b815260040160405180910390fd5b61352f878686868587613e97565b6120788787878787866040015160600151613f90565b600084815260076020526040808220600480549251630349370d60e41b8152908101889052600186810b602483015285900b60448201529092916001600160a01b03169063349370d0906064016020604051808303816000875af11580156135b1573d6000803e3d6000fd5b505050506040513d601f19601f820116820180604052508101906135d59190615c00565b905060ff81161561096f5760028201546001600160a01b039081169086160361361a578060ff1682600f01600082825461360f91906156c0565b9091555061364f9050565b60038201546001600160a01b039081169086160361364f578060ff1682601001600082825461364991906156c0565b90915550505b81600e015482600f015410158061366e575081600e0154826010015410155b1561096f576000826010015483600f015410156136985760038301546001600160a01b03166136a7565b60028301546001600160a01b03165b60028401549091506000906001600160a01b038084169116146136d75760028401546001600160a01b03166136e6565b60038401546001600160a01b03165b90506125d0888383612182565b600082815260076020526040812061370b8484614000565b6137195760009150506107fd565b600c810154600090815260149091016020908152604080832085845290915290205460ff1615905092915050565b600082815260076020908152604080832060028101546001600160a01b03908116855260158201909352818420600382015490931684529083209091908361378e83612c91565b905060005b818110156137d45760006137a78583612c9b565b90506137b789828a63ffffffff16565b156137cb57600196505050505050506107fd565b50600101613793565b5060006137e083612c91565b905060005b818110156138275760006137f98583612c9b565b90506138098a828b63ffffffff16565b1561381e5760019750505050505050506107fd565b506001016137e5565b50600098975050505050505050565b60008181526007602052604080822081516064808252610ca0820190935290929181602001602082028036833750505060028301546001600160a01b031660009081526015840160205260408120919250908161389282612c91565b905060005b818110156139185760006138ab8483612c9b565b90506138b681612081565b80156138de575060008181526011880160205260409020546003600160401b90910460ff1610155b1561390f57808686815181106138f6576138f66156aa565b60209081029190910101528461390b81615691565b9550505b50600101613897565b5060038501546001600160a01b0316600090815260158601602052604081209061394182612c91565b905060005b818110156139c757600061395a8483612c9b565b905061396581612081565b801561398d5750600081815260118a0160205260409020546003600160401b90910460ff1610155b156139be57808888815181106139a5576139a56156aa565b6020908102919091010152866139ba81615691565b9750505b50600101613946565b5060005b85811015612ac7576139f6898883815181106139e9576139e96156aa565b6020026020010151611e04565b6001016139cb565b600081815260076020908152604080832060028101546001600160a01b031684526015810190925282209091613a3382612c91565b905060005b81811015613acb576000613a4c8483612c9b565b9050613a5781612081565b8015613a7b57506000818152601186016020526040902054600160201b900460ff16155b15613ac257600081815260118601602052604090208054600160401b900460ff16906008613aa883615b5f565b91906101000a81548160ff021916908360ff160217905550505b50600101613a38565b5060038301546001600160a01b03166000908152601584016020526040812090613af482612c91565b905060005b81811015612078576000613b0d8483612c9b565b9050613b1881612081565b8015613b3c57506000818152601188016020526040902054600160201b900460ff16155b15613b8357600081815260118801602052604090208054600160401b900460ff16906008613b6983615b5f565b91906101000a81548160ff021916908360ff160217905550505b50600101613af9565b60008281526007602090815260408083206001600160a01b038516845260158101909252822082613bbc82612c91565b905060005b81811015613c2a576000613bd58483612c9b565b9050613be18882614000565b8015613c0e5750600c8501546000908152601486016020908152604080832084845290915290205460ff16155b15613c21576001955050505050506107fd565b50600101613bc1565b5060009695505050505050565b60008281526007602090815260408083206001600160a01b03851684526015810190925282209091613c6882612c91565b905060005b8181101561096f576000613c818483612c9b565b9050613c8d8782614000565b8015613cba5750600c8501546000908152601486016020908152604080832084845290915290205460ff16155b15613ceb57600c850154600090815260148601602090815260408083208484529091529020805460ff191660011790555b50600101613c6d565b600061061a83836140d7565b60008481526007602052604090206014600184900b121580613d2757506028600183900b12155b15613d455760405163673f032f60e11b815260040160405180910390fd5b600183810b600090815260128301602090815260408083209386900b8352929052205415613d8657604051638243205760e01b815260040160405180910390fd5b600192830b600081815260128301602090815260408083209590960b8083529481528582208790558551808701875292835282810194855295815260139092019094529190912091518254915161ffff908116620100000263ffffffff1990931691161717905550565b600061061a8383614126565b60008281526007602090815260408083206001600160a01b038516845260158101909252822082613e2c82612c91565b905060005b81811015613c2a576000613e458483612c9b565b9050613e518882614000565b15613e64576001955050505050506107fd565b50600101613e31565b6000826000018281548110613e8457613e846156aa565b9060005260206000200154905092915050565b6040820151606001516002816003811115613eb457613eb4615a9d565b03613ef8578260a001516001600160a01b03168260a001516001600160a01b031614613ef3576040516321e08b4d60e21b815260040160405180910390fd5b613f6a565b6001816003811115613f0c57613f0c615a9d565b03613f4b578260a001516001600160a01b03168260a001516001600160a01b031603613ef3576040516321e08b4d60e21b815260040160405180910390fd5b6003816003811115613f5f57613f5f615a9d565b036125b7575061096f565b6003816003811115613f7e57613f7e615a9d565b14612078576120788787878785614219565b6002816003811115613fa457613fa4615a9d565b03613fb857613fb3868361432c565b61096f565b6001816003811115613fcc57613fcc615a9d565b03613fdb57613fb3868361443b565b6003816003811115613fef57613fef615a9d565b036125b757613fb38686868661451f565b6000828152600760205260408082206001549151634025b22d60e01b815260048101859052909183916001600160a01b0390911690634025b22d90602401600060405180830381865afa15801561405b573d6000803e3d6000fd5b505050506040513d6000823e601f3d908101601f191682016040526140839190810190615930565b9050806080015160c001516000146140a0576000925050506107fd565b6000848152601183016020526040812054600160201b900460ff1690036140cc576000925050506107fd565b506001949350505050565b600081815260018301602052604081205461411e575081546001818101845560008481526020808220909301849055845484825282860190935260409020919091556107fd565b5060006107fd565b6000818152600183016020526040812054801561420f57600061414a600183615c1d565b855490915060009061415e90600190615c1d565b90508082146141c357600086600001828154811061417e5761417e6156aa565b90600052602060002001549050808760000184815481106141a1576141a16156aa565b6000918252602080832090910192909255918252600188019052604090208390555b85548690806141d4576141d4615c30565b6001900381819060005260206000200160009055905585600101600086815260200190815260200160002060009055600193505050506107fd565b60009150506107fd565b60008581526007602090815260408083208584526013810183528184208251808401845260018a810b825289900b948101949094526003549251636759d30960e11b8152919490939290916001600160a01b039091169063ceb3a61290614284908890600401615c46565b602060405180830381865afa1580156142a1573d6000803e3d6000fd5b505050506040513d601f19601f820116820180604052508101906142c59190615c00565b604080518082019091528454600181810b835262010000909104900b60208201529091506000906142f79084906123d1565b90508160ff168160ff161115614320576040516321e08b4d60e21b815260040160405180910390fd5b50505050505050505050565b6000828152600760209081526040808320848452601181019092528083206003549151633387d11760e11b81529293909290916001600160a01b03169063670fa22e9061437e90600290600401615c46565b602060405180830381865afa15801561439b573d6000803e3d6000fd5b505050506040513d601f19601f820116820180604052508101906143bf9190615c00565b82549091506000906143dc908390600160201b900460ff16615a84565b835490915060ff600160281b9091048116908216111561441a578254600160201b60ff600160281b8304160264ff000000001990911617835561096f565b825460ff8216600160201b0264ff0000000019909116178355505050505050565b6000828152600760209081526040808320848452601181019092528083206003549151633387d11760e11b81529293909290916001600160a01b03169063670fa22e9061448d90600190600401615c46565b602060405180830381865afa1580156144aa573d6000803e3d6000fd5b505050506040513d601f19601f820116820180604052508101906144ce9190615c00565b6000858152600a60205260409020859055825490915081908390600890614500908490600160401b900460ff16615a84565b92506101000a81548160ff021916908360ff1602179055505050505050565b600084815260076020526040808220600380549251636759d30960e11b81529193926001600160a01b03169163ceb3a6129161455d91600401615c46565b602060405180830381865afa15801561457a573d6000803e3d6000fd5b505050506040513d601f19601f8201168201806040525081019061459e9190615c00565b60038054604051633387d11760e11b81529293506000926001600160a01b039091169163670fa22e916145d49190600401615c46565b602060405180830381865afa1580156145f1573d6000803e3d6000fd5b505050506040513d601f19601f820116820180604052508101906146159190615c00565b60028401546001600160a01b03166000908152601585016020526040902090915061464b9088908890889088908790879061467a565b60038301546001600160a01b031660009081526015840160205260409020612078908890889088908890879087905b60008781526007602052604081209061469283612c91565b60408051808201909152600189810b825288900b602082015290915060005b828110156148825760006146c58683612c9b565b600154604051634025b22d60e01b8152600481018390529192506000916001600160a01b0390911690634025b22d90602401600060405180830381865afa158015614714573d6000803e3d6000fd5b505050506040513d6000823e601f3d908101601f1916820160405261473c9190810190615930565b9050806080015160c0015160001461475557505061487a565b6000828152601187016020526040812054600160201b900460ff16900361477d57505061487a565b6000828152601387016020908152604080832081518083019092528054600181810b845262010000909104900b928201929092529091906147bf9087906123d1565b90508a60ff168160ff16111580156147d757508d8414155b15614875578d600a600086815260200190815260200160002081905550600088601101600086815260200190815260200160002090508060000160049054906101000a900460ff1660ff168b60ff161061483c57805464ff0000000019168155614873565b80548b90829060049061485a908490600160201b900460ff16615be7565b92506101000a81548160ff021916908360ff1602179055505b505b505050505b6001016146b1565b5050505050505050505050565b604080516101208101825260008082526020820181905291810182905260608082018390526080820183905260a0820183905260c0820183905260e082019290925261010081019190915290565b82805482825590600052602060002090601f016020900481019282156149735791602002820160005b8382111561494457835183826101000a81548160ff021916908360ff1602179055509260200192600101602081600001049283019260010302614906565b80156149715782816101000a81549060ff0219169055600101602081600001049283019260010302614944565b505b5061497f929150614baf565b5090565b6040518060600160405280600081526020016149b86040518060400160405280600060010b8152602001600060010b81525090565b8152600060209091015290565b60408051610280810182526000610160820181815261018083018290526101a083018290526101c083018290526101e083018290526102008301829052610220830182905261024083018290526102608301829052825282516080810184528181526020808201839052818501839052606082018390528084019190915283518085018552828152908101919091529091820190815260200160008152602001600081526020016000815260200160608152602001606081526020016060815260200160608152602001606081525090565b6040518060c001604052806060815260200160008152602001614adb6040805160808101909152806000815260200160008152602001600081526020016000905290565b8152602001614b456040805160c080820183526000808352835191820184528082526020828101829052938201819052606082018190526080820181905260a082015290918201908152600060208201819052604082018190526060820181905260809091015290565b81526040805160e08101825260008082526020828101829052928201819052606082018190526080820181905260a0820181905260c08201529101908152600060209091015290565b50805460008255601f016020900490600052602060002090810190611dd491905b5b8082111561497f5760008155600101614bb0565b6001600160a01b0381168114611dd457600080fd5b60008060408385031215614bec57600080fd5b8235614bf781614bc4565b946020939093013593505050565b600060208284031215614c1757600080fd5b813561061a81614bc4565b805182526020810151602083015260018060a01b03604082015116604083015260018060a01b0360608201511660608301526080810151608083015260a081015160a083015260c0810151614c7b60c084018215159052565b5060e081015160e0830152610100810151610e766101008401826001600160a01b03169052565b600081518084526020840193506020830160005b82811015614cd4578151865260209586019590910190600101614cb6565b5093949350505050565b600081518084526020840193506020830160005b82811015614cd457815160ff16865260209586019590910190600101614cf2565b805161ffff16825260006020820151614d31602085018260ff169052565b506040820151614d46604085018260ff169052565b506060820151614d5b606085018260ff169052565b506080820151614d70608085018260ff169052565b5060a0820151614d8560a085018260ff169052565b5060c0820151614d9a60c085018260ff169052565b5060e0820151614daf60e085018260ff169052565b5061010082015161012061010085015261212a610120850182614cde565b600082825180855260208501945060208160051b8301016020850160005b83811015614e1d57601f19858403018852614e07838351614d13565b6020988901989093509190910190600101614deb565b50909695505050505050565b600081518084526020840193506020830160005b82811015614cd45781516000815188526020820151614e7260208a0182805160010b8252602081015160010b60208301525050565b5050604001511515606087015260809095019460209190910190600101614e3d565b614e9f828251614c22565b60208181015180516001600160a01b031661012085015290810151610140840152604081015161016084015260608101516101808401526000905060408201518051600190810b6101a08601526020820151900b6101c08501525060608201516101e0840152608082015161020084015260a082015161022084015260c08201516102e0610240850152614f376102e0850182614ca2565b905060e0830151848203610260860152614f518282614dcd565b915050610100830151848203610280860152614f6d8282614e29565b9150506101208301518482036102a0860152614f898282614ca2565b9150506101408301518482036102c086015261245c8282614ca2565b6000602082016020835280845180835260408501915060408160051b86010192506020860160005b82811015614ffe57603f19878603018452614fe9858351614e94565b94506020938401939190910190600101614fcd565b50929695505050505050565b6000806040838503121561501d57600080fd5b50508035926020909101359150565b60006020828403121561503e57600080fd5b5035919050565b61024081016150548289614c22565b86516001600160a01b031661012083015260208088015161014084015260408801516101608401526060909701516101808301528551600190810b6101a0840152959096015190940b6101c08501526101e084019290925261020083015261022090910152919050565b60208152600061061a6020830184614d13565b60208152600061061a6020830184614e29565b600080600080600060a086880312156150fc57600080fd5b853561510781614bc4565b9450602086013561511781614bc4565b9350604086013561512781614bc4565b9250606086013561513781614bc4565b9150608086013561514781614bc4565b809150509295509295909350565b634e487b7160e01b600052604160045260246000fd5b60405161012081016001600160401b038111828210171561518e5761518e615155565b60405290565b60405160c081016001600160401b038111828210171561518e5761518e615155565b60405160e081016001600160401b038111828210171561518e5761518e615155565b604051601f8201601f191681016001600160401b038111828210171561520057615200615155565b604052919050565b60006001600160401b0382111561522157615221615155565b5060051b60200190565b600082601f83011261523c57600080fd5b813561524f61524a82615208565b6151d8565b8082825260208201915060208360051b86010192508583111561527157600080fd5b602085015b8381101561528e578035835260209283019201615276565b5095945050505050565b6000602082840312156152aa57600080fd5b81356001600160401b038111156152c057600080fd5b61212a8482850161522b565b602080825282518282018190526000918401906040840190835b81811015610b675783518352602093840193909201916001016152e6565b8035600181900b811461531657600080fd5b919050565b6000806000806080858703121561533157600080fd5b843593506020850135925061534860408601615304565b915061535660608601615304565b905092959194509250565b6000806040838503121561537457600080fd5b8235915060208301356001600160401b0381111561539157600080fd5b61539d8582860161522b565b9150509250929050565b60208152600061061a6020830184614e94565b60008060008060008060c087890312156153d357600080fd5b86359550602087013594506153ea60408801615304565b93506153f860608801615304565b925060808701356006811061540c57600080fd5b9598949750929591949360a090920135925050565b8015158114611dd457600080fd5b60008060008060008060008060006101208a8c03121561544e57600080fd5b8935985060208a013561546081614bc4565b975060408a013561547081614bc4565b965060608a0135955060808a0135945060a08a013561548e81615421565b989b979a5095989497939693955050505060c08201359160e0810135916101009091013590565b60ff81168114611dd457600080fd5b6000806000606084860312156154d957600080fd5b833592506020840135915060408401356154f2816154b5565b809150509250925092565b805161ffff8116811461531657600080fd5b8051615316816154b5565b600082601f83011261552b57600080fd5b815161553961524a82615208565b8082825260208201915060208360051b86010192508583111561555b57600080fd5b602085015b8381101561528e578051615573816154b5565b835260209283019201615560565b60006020828403121561559357600080fd5b81516001600160401b038111156155a957600080fd5b820161012081850312156155bc57600080fd5b6155c461516b565b6155cd826154fd565b81526155db6020830161550f565b60208201526155ec6040830161550f565b60408201526155fd6060830161550f565b606082015261560e6080830161550f565b608082015261561f60a0830161550f565b60a082015261563060c0830161550f565b60c082015261564160e0830161550f565b60e08201526101008201516001600160401b0381111561566057600080fd5b61566c8682850161551a565b61010083015250949350505050565b634e487b7160e01b600052601160045260246000fd5b6000600182016156a3576156a361567b565b5060010190565b634e487b7160e01b600052603260045260246000fd5b808201808211156107fd576107fd61567b565b805161531681615421565b6000602082840312156156f057600080fd5b815161061a81615421565b60048110611dd457600080fd5b60006080828403121561571a57600080fd5b604051608081016001600160401b038111828210171561573c5761573c615155565b8060405250809150825161574f816156fb565b8152602083015161575f816156fb565b60208201526040830151615772816156fb565b60408201526060830151615785816156fb565b6060919091015292915050565b60008183036101608112156157a657600080fd5b6157ae615194565b83518152915060c0601f19820112156157c657600080fd5b506157cf615194565b6157db602084016154fd565b815260408301516157eb816154b5565b602082015260608301516157fe816154b5565b604082015261580f608084016154fd565b606082015260a0830151615822816154b5565b608082015260c0830151615835816154b5565b60a0820152602082015261584b60e0830161550f565b604082015261585d610100830161550f565b606082015261586f610120830161550f565b6080820152615881610140830161550f565b60a082015292915050565b600060e0828403121561589e57600080fd5b6158a66151b6565b9050815163ffffffff811681146158bc57600080fd5b81526158ca602083016154fd565b60208201526158db604083016154fd565b60408201526158ec606083016156d3565b60608201526158fd608083016156d3565b608082015261590e60a083016156d3565b60a082015260c09182015191810191909152919050565b805161531681614bc4565b60006020828403121561594257600080fd5b81516001600160401b0381111561595857600080fd5b8201610320818503121561596b57600080fd5b615973615194565b81516001600160401b0381111561598957600080fd5b8201601f8101861361599a57600080fd5b80516001600160401b038111156159b3576159b3615155565b6159c6601f8201601f19166020016151d8565b8181528760208385010111156159db57600080fd5b60005b828110156159fa576020818501810151838301820152016159de565b50600060209282018301528352838101519083015250615a1d8560408401615708565b6040820152615a2f8560c08401615792565b6060820152615a4285610220840161588c565b6080820152615a546103008301615925565b60a0820152949350505050565b600182810b9082900b03617fff198112617fff821317156107fd576107fd61567b565b60ff81811683821601908111156107fd576107fd61567b565b634e487b7160e01b600052602160045260246000fd5b600060208284031215615ac557600080fd5b81516001600160401b03811115615adb57600080fd5b8201601f81018413615aec57600080fd5b8051615afa61524a82615208565b8082825260208201915060208360051b850101925086831115615b1c57600080fd5b6020840193505b82841015615b3e578351825260209384019390910190615b23565b9695505050505050565b80820281158282048414176107fd576107fd61567b565b600060ff821660ff8103615b7557615b7561567b565b60010192915050565b61ffff8181168382160290811690818114610c8557610c8561567b565b600061ffff831680615bbd57634e487b7160e01b600052601260045260246000fd5b8061ffff84160491505092915050565b61ffff82811682821603908111156107fd576107fd61567b565b60ff82811682821603908111156107fd576107fd61567b565b600060208284031215615c1257600080fd5b815161061a816154b5565b818103818111156107fd576107fd61567b565b634e487b7160e01b600052603160045260246000fd5b6020810160048310615c6857634e487b7160e01b600052602160045260246000fd5b9190529056fea2646970667358221220ee07cda190c8555e20cb67c42c69446ad6160bfa0671d865b4f0a7bf4f0263be64736f6c634300081c0033",
  "linkReferences": {},
  "deployedLinkReferences": {}
}