{
  "_format": "hh-sol-artifact-1",
  "contractName": "RenderBody",
  "sourceName": "contracts/Renderers/RenderBody.sol",
  "abi": [
    {
      "inputs": [
        {
          "internalType": "address[]",
          "name": "renderers",
          "type": "address[]"
        }
      ],
      "stateMutability": "nonpayable",
      "type": "constructor"
    },
    {
      "inputs": [
        {
          "components": [
            {
              "internalType": "string",
              "name": "name",
              "type": "string"
            },
            {
              "internalType": "uint256",
              "name": "id",
              "type": "uint256"
            },
            {
              "components": [
                {
                  "internalType": "enum MainWeapon",
                  "name": "mainWeapon",
                  "type": "uint8"
                },
                {
                  "internalType": "enum Armor",
                  "name": "armor",
                  "type": "uint8"
                },
                {
                  "internalType": "enum Shields",
                  "name": "shields",
                  "type": "uint8"
                },
                {
                  "internalType": "enum Special",
                  "name": "special",
                  "type": "uint8"
                }
              ],
              "internalType": "struct Equipment",
              "name": "equipment",
              "type": "tuple"
            },
            {
              "components": [
                {
                  "internalType": "uint256",
                  "name": "serialNumber",
                  "type": "uint256"
                },
                {
                  "internalType": "uint8",
                  "name": "r1",
                  "type": "uint8"
                },
                {
                  "internalType": "uint8",
                  "name": "g1",
                  "type": "uint8"
                },
                {
                  "internalType": "uint8",
                  "name": "b1",
                  "type": "uint8"
                },
                {
                  "internalType": "uint8",
                  "name": "r2",
                  "type": "uint8"
                },
                {
                  "internalType": "uint8",
                  "name": "g2",
                  "type": "uint8"
                },
                {
                  "internalType": "uint8",
                  "name": "b2",
                  "type": "uint8"
                },
                {
                  "internalType": "uint8",
                  "name": "variant",
                  "type": "uint8"
                },
                {
                  "internalType": "uint8",
                  "name": "accuracy",
                  "type": "uint8"
                },
                {
                  "internalType": "uint8",
                  "name": "hull",
                  "type": "uint8"
                },
                {
                  "internalType": "uint8",
                  "name": "speed",
                  "type": "uint8"
                }
              ],
              "internalType": "struct Traits",
              "name": "traits",
              "type": "tuple"
            },
            {
              "components": [
                {
                  "internalType": "uint256",
                  "name": "gameId",
                  "type": "uint256"
                },
                {
                  "components": [
                    {
                      "internalType": "uint8",
                      "name": "version",
                      "type": "uint8"
                    },
                    {
                      "internalType": "uint8",
                      "name": "range",
                      "type": "uint8"
                    },
                    {
                      "internalType": "uint8",
                      "name": "gunDamage",
                      "type": "uint8"
                    },
                    {
                      "internalType": "uint8",
                      "name": "hullPoints",
                      "type": "uint8"
                    },
                    {
                      "internalType": "uint8",
                      "name": "movement",
                      "type": "uint8"
                    },
                    {
                      "internalType": "uint8[]",
                      "name": "statusEffects",
                      "type": "uint8[]"
                    }
                  ],
                  "internalType": "struct Attributes",
                  "name": "attributes",
                  "type": "tuple"
                },
                {
                  "internalType": "uint8",
                  "name": "damageTaken",
                  "type": "uint8"
                },
                {
                  "internalType": "bool",
                  "name": "inLobby",
                  "type": "bool"
                },
                {
                  "internalType": "bool",
                  "name": "movedThisTurn",
                  "type": "bool"
                },
                {
                  "internalType": "bool",
                  "name": "firedThisTurn",
                  "type": "bool"
                }
              ],
              "internalType": "struct GameData",
              "name": "gameData",
              "type": "tuple"
            },
            {
              "components": [
                {
                  "internalType": "uint32",
                  "name": "shipsDestroyed",
                  "type": "uint32"
                },
                {
                  "internalType": "uint16",
                  "name": "costsVersion",
                  "type": "uint16"
                },
                {
                  "internalType": "uint16",
                  "name": "cost",
                  "type": "uint16"
                },
                {
                  "internalType": "bool",
                  "name": "shiny",
                  "type": "bool"
                },
                {
                  "internalType": "bool",
                  "name": "constructed",
                  "type": "bool"
                },
                {
                  "internalType": "bool",
                  "name": "inFleet",
                  "type": "bool"
                },
                {
                  "internalType": "uint256",
                  "name": "timestampDestroyed",
                  "type": "uint256"
                }
              ],
              "internalType": "struct ShipData",
              "name": "shipData",
              "type": "tuple"
            },
            {
              "internalType": "address",
              "name": "owner",
              "type": "address"
            }
          ],
          "internalType": "struct Ship",
          "name": "ship",
          "type": "tuple"
        }
      ],
      "name": "render",
      "outputs": [
        {
          "internalType": "string",
          "name": "",
          "type": "string"
        }
      ],
      "stateMutability": "view",
      "type": "function"
    },
    {
      "inputs": [],
      "name": "renderArmor1",
      "outputs": [
        {
          "internalType": "contract IReturnSVG",
          "name": "",
          "type": "address"
        }
      ],
      "stateMutability": "view",
      "type": "function"
    },
    {
      "inputs": [],
      "name": "renderArmor2",
      "outputs": [
        {
          "internalType": "contract IReturnSVG",
          "name": "",
          "type": "address"
        }
      ],
      "stateMutability": "view",
      "type": "function"
    },
    {
      "inputs": [],
      "name": "renderArmor3",
      "outputs": [
        {
          "internalType": "contract IReturnSVG",
          "name": "",
          "type": "address"
        }
      ],
      "stateMutability": "view",
      "type": "function"
    },
    {
      "inputs": [],
      "name": "renderBaseBody",
      "outputs": [
        {
          "internalType": "contract IReturnSVG",
          "name": "",
          "type": "address"
        }
      ],
      "stateMutability": "view",
      "type": "function"
    },
    {
      "inputs": [],
      "name": "renderShield1",
      "outputs": [
        {
          "internalType": "contract IReturnSVG",
          "name": "",
          "type": "address"
        }
      ],
      "stateMutability": "view",
      "type": "function"
    },
    {
      "inputs": [],
      "name": "renderShield2",
      "outputs": [
        {
          "internalType": "contract IReturnSVG",
          "name": "",
          "type": "address"
        }
      ],
      "stateMutability": "view",
      "type": "function"
    },
    {
      "inputs": [],
      "name": "renderShield3",
      "outputs": [
        {
          "internalType": "contract IReturnSVG",
          "name": "",
          "type": "address"
        }
      ],
      "stateMutability": "view",
      "type": "function"
    }
  ],
  "bytecode": "0x61016060405234801561001157600080fd5b5060405161111838038061111883398101604081905261003091610230565b80516007146100935760405162461bcd60e51b815260206004820152602560248201527f496e76616c69642072656e64657265727320617272617920696e2052656e646560448201526472426f647960d81b606482015260840160405180910390fd5b806000815181106100a6576100a66102ff565b60200260200101516001600160a01b03166080816001600160a01b031681525050806001815181106100da576100da6102ff565b60200260200101516001600160a01b031660a0816001600160a01b0316815250508060028151811061010e5761010e6102ff565b60200260200101516001600160a01b031660c0816001600160a01b03168152505080600381518110610142576101426102ff565b60200260200101516001600160a01b031660e0816001600160a01b03168152505080600481518110610176576101766102ff565b60200260200101516001600160a01b0316610100816001600160a01b031681525050806005815181106101ab576101ab6102ff565b60200260200101516001600160a01b0316610120816001600160a01b031681525050806005815181106101e0576101e06102ff565b60209081029190910101516001600160a01b03166101405250610315565b634e487b7160e01b600052604160045260246000fd5b80516001600160a01b038116811461022b57600080fd5b919050565b60006020828403121561024257600080fd5b81516001600160401b0381111561025857600080fd5b8201601f8101841361026957600080fd5b80516001600160401b03811115610282576102826101fe565b604051600582901b90603f8201601f191681016001600160401b03811182821017156102b0576102b06101fe565b6040529182526020818401810192908101878411156102ce57600080fd5b6020850194505b838510156102f4576102e685610214565b8152602094850194016102d5565b509695505050505050565b634e487b7160e01b600052603260045260246000fd5b60805160a05160c05160e051610100516101205161014051610d736103a560003960008181610196015261059401526000818160fa015261051501526000818160bb015261049601526000818161014801526103f60152600081816101bd015261037701526000818161016f01526102f80152600081816101210152818161022a01526105f20152610d736000f3fe608060405234801561001057600080fd5b50600436106100885760003560e01c806358fa534e1161005b57806358fa534e146101435780636a415c651461016a578063bf68c71114610191578063f7245db4146101b857600080fd5b806311ffaed01461008d578063151760c7146100b65780634c9d978d146100f55780634f7de19b1461011c575b600080fd5b6100a061009b366004610b6b565b6101df565b6040516100ad9190610c7e565b60405180910390f35b6100dd7f000000000000000000000000000000000000000000000000000000000000000081565b6040516001600160a01b0390911681526020016100ad565b6100dd7f000000000000000000000000000000000000000000000000000000000000000081565b6100dd7f000000000000000000000000000000000000000000000000000000000000000081565b6100dd7f000000000000000000000000000000000000000000000000000000000000000081565b6100dd7f000000000000000000000000000000000000000000000000000000000000000081565b6100dd7f000000000000000000000000000000000000000000000000000000000000000081565b6100dd7f000000000000000000000000000000000000000000000000000000000000000081565b6060600082604001516040015160038111156101fd576101fd610cb1565b14801561022357506000826040015160200151600381111561022157610221610cb1565b145b156102b4577f00000000000000000000000000000000000000000000000000000000000000006001600160a01b031663d607497a6040518163ffffffff1660e01b8152600401600060405180830381865afa158015610286573d6000803e3d6000fd5b505050506040513d6000823e601f3d908101601f191682016040526102ae9190810190610cc7565b92915050565b600082604001516040015160038111156102d0576102d0610cb1565b1461045257600182604001516040015160038111156102f1576102f1610cb1565b03610354577f00000000000000000000000000000000000000000000000000000000000000006001600160a01b031663d607497a6040518163ffffffff1660e01b8152600401600060405180830381865afa158015610286573d6000803e3d6000fd5b6002826040015160400151600381111561037057610370610cb1565b036103d3577f00000000000000000000000000000000000000000000000000000000000000006001600160a01b031663d607497a6040518163ffffffff1660e01b8152600401600060405180830381865afa158015610286573d6000803e3d6000fd5b600382604001516040015160038111156103ef576103ef610cb1565b03610452577f00000000000000000000000000000000000000000000000000000000000000006001600160a01b031663d607497a6040518163ffffffff1660e01b8152600401600060405180830381865afa158015610286573d6000803e3d6000fd5b6000826040015160200151600381111561046e5761046e610cb1565b146105f0576001826040015160200151600381111561048f5761048f610cb1565b036104f2577f00000000000000000000000000000000000000000000000000000000000000006001600160a01b031663d607497a6040518163ffffffff1660e01b8152600401600060405180830381865afa158015610286573d6000803e3d6000fd5b6002826040015160200151600381111561050e5761050e610cb1565b03610571577f00000000000000000000000000000000000000000000000000000000000000006001600160a01b031663d607497a6040518163ffffffff1660e01b8152600401600060405180830381865afa158015610286573d6000803e3d6000fd5b6003826040015160200151600381111561058d5761058d610cb1565b036105f0577f00000000000000000000000000000000000000000000000000000000000000006001600160a01b031663d607497a6040518163ffffffff1660e01b8152600401600060405180830381865afa158015610286573d6000803e3d6000fd5b7f00000000000000000000000000000000000000000000000000000000000000006001600160a01b031663d607497a6040518163ffffffff1660e01b8152600401600060405180830381865afa158015610286573d6000803e3d6000fd5b634e487b7160e01b600052604160045260246000fd5b60405161016081016001600160401b03811182821017156106875761068761064e565b60405290565b60405160c081016001600160401b03811182821017156106875761068761064e565b60405160e081016001600160401b03811182821017156106875761068761064e565b604051601f8201601f191681016001600160401b03811182821017156106f9576106f961064e565b604052919050565b60006001600160401b0382111561071a5761071a61064e565b50601f01601f191660200190565b600082601f83011261073957600080fd5b813561074c61074782610701565b6106d1565b81815284602083860101111561076157600080fd5b816020850160208301376000918101602001919091529392505050565b6004811061078b57600080fd5b50565b6000608082840312156107a057600080fd5b604051608081016001600160401b03811182821017156107c2576107c261064e565b60405290508082356107d38161077e565b815260208301356107e38161077e565b602082015260408301356107f68161077e565b604082015260608301356108098161077e565b6060919091015292915050565b803560ff8116811461082757600080fd5b919050565b6000610160828403121561083f57600080fd5b610847610664565b82358152905061085960208301610816565b602082015261086a60408301610816565b604082015261087b60608301610816565b606082015261088c60808301610816565b608082015261089d60a08301610816565b60a08201526108ae60c08301610816565b60c08201526108bf60e08301610816565b60e08201526108d16101008301610816565b6101008201526108e46101208301610816565b6101208201526108f76101408301610816565b61014082015292915050565b8035801515811461082757600080fd5b600060c0828403121561092557600080fd5b61092d61068d565b82358152905060208201356001600160401b0381111561094c57600080fd5b820160c0818503121561095e57600080fd5b61096661068d565b61096f82610816565b815261097d60208301610816565b602082015261098e60408301610816565b604082015261099f60608301610816565b60608201526109b060808301610816565b608082015260a08201356001600160401b038111156109ce57600080fd5b80830192505084601f8301126109e357600080fd5b81356001600160401b038111156109fc576109fc61064e565b8060051b610a0c602082016106d1565b91825260208185018101929081019088841115610a2857600080fd5b6020860195505b83861015610a5157610a4086610816565b825260209586019590910190610a2f565b60a0850152505050602083015250610a6b60408301610816565b6040820152610a7c60608301610903565b6060820152610a8d60808301610903565b6080820152610a9e60a08301610903565b60a082015292915050565b803561ffff8116811461082757600080fd5b600060e08284031215610acd57600080fd5b610ad56106af565b9050813563ffffffff81168114610aeb57600080fd5b8152610af960208301610aa9565b6020820152610b0a60408301610aa9565b6040820152610b1b60608301610903565b6060820152610b2c60808301610903565b6080820152610b3d60a08301610903565b60a082015260c09182013591810191909152919050565b80356001600160a01b038116811461082757600080fd5b600060208284031215610b7d57600080fd5b81356001600160401b03811115610b9357600080fd5b82016103408185031215610ba657600080fd5b610bae6106af565b81356001600160401b03811115610bc457600080fd5b610bd086828501610728565b82525060208281013590820152610bea856040840161078e565b6040820152610bfc8560c0840161082c565b60608201526102208201356001600160401b03811115610c1b57600080fd5b610c2786828501610913565b608083015250610c3b856102408401610abb565b60a0820152610c4d6103208301610b54565b60c0820152949350505050565b60005b83811015610c75578181015183820152602001610c5d565b50506000910152565b6020815260008251806020840152610c9d816040850160208701610c5a565b601f01601f19169190910160400192915050565b634e487b7160e01b600052602160045260246000fd5b600060208284031215610cd957600080fd5b81516001600160401b03811115610cef57600080fd5b8201601f81018413610d0057600080fd5b8051610d0e61074782610701565b818152856020838501011115610d2357600080fd5b610d34826020830160208601610c5a565b9594505050505056fea2646970667358221220e07def9d9b4fac232d05200719ee9509f1b5f28a9c86ce2b0df71fe9a9fa28cf64736f6c634300081c0033",
  "linkReferences": {},
  "deployedLinkReferences": {}
}