{
  "_format": "hh-sol-artifact-1",
  "contractName": "RenderAft",
  "sourceName": "contracts/Renderers/RenderAft.sol",
  "abi": [
    {
      "inputs": [
        {
          "internalType": "address[]",
          "name": "renderers",
          "type": "address[]"
        }
      ],
      "stateMutability": "nonpayable",
      "type": "constructor"
    },
    {
      "inputs": [
        {
          "components": [
            {
              "internalType": "string",
              "name": "name",
              "type": "string"
            },
            {
              "internalType": "uint256",
              "name": "id",
              "type": "uint256"
            },
            {
              "components": [
                {
                  "internalType": "enum MainWeapon",
                  "name": "mainWeapon",
                  "type": "uint8"
                },
                {
                  "internalType": "enum Armor",
                  "name": "armor",
                  "type": "uint8"
                },
                {
                  "internalType": "enum Shields",
                  "name": "shields",
                  "type": "uint8"
                },
                {
                  "internalType": "enum Special",
                  "name": "special",
                  "type": "uint8"
                }
              ],
              "internalType": "struct Equipment",
              "name": "equipment",
              "type": "tuple"
            },
            {
              "components": [
                {
                  "internalType": "uint256",
                  "name": "serialNumber",
                  "type": "uint256"
                },
                {
                  "internalType": "uint8",
                  "name": "r1",
                  "type": "uint8"
                },
                {
                  "internalType": "uint8",
                  "name": "g1",
                  "type": "uint8"
                },
                {
                  "internalType": "uint8",
                  "name": "b1",
                  "type": "uint8"
                },
                {
                  "internalType": "uint8",
                  "name": "r2",
                  "type": "uint8"
                },
                {
                  "internalType": "uint8",
                  "name": "g2",
                  "type": "uint8"
                },
                {
                  "internalType": "uint8",
                  "name": "b2",
                  "type": "uint8"
                },
                {
                  "internalType": "uint8",
                  "name": "variant",
                  "type": "uint8"
                },
                {
                  "internalType": "uint8",
                  "name": "accuracy",
                  "type": "uint8"
                },
                {
                  "internalType": "uint8",
                  "name": "hull",
                  "type": "uint8"
                },
                {
                  "internalType": "uint8",
                  "name": "speed",
                  "type": "uint8"
                }
              ],
              "internalType": "struct Traits",
              "name": "traits",
              "type": "tuple"
            },
            {
              "components": [
                {
                  "internalType": "uint256",
                  "name": "gameId",
                  "type": "uint256"
                },
                {
                  "components": [
                    {
                      "internalType": "uint8",
                      "name": "version",
                      "type": "uint8"
                    },
                    {
                      "internalType": "uint8",
                      "name": "range",
                      "type": "uint8"
                    },
                    {
                      "internalType": "uint8",
                      "name": "gunDamage",
                      "type": "uint8"
                    },
                    {
                      "internalType": "uint8",
                      "name": "hullPoints",
                      "type": "uint8"
                    },
                    {
                      "internalType": "uint8",
                      "name": "movement",
                      "type": "uint8"
                    },
                    {
                      "internalType": "uint8[]",
                      "name": "statusEffects",
                      "type": "uint8[]"
                    }
                  ],
                  "internalType": "struct Attributes",
                  "name": "attributes",
                  "type": "tuple"
                },
                {
                  "internalType": "uint8",
                  "name": "damageTaken",
                  "type": "uint8"
                },
                {
                  "internalType": "bool",
                  "name": "inLobby",
                  "type": "bool"
                },
                {
                  "internalType": "bool",
                  "name": "movedThisTurn",
                  "type": "bool"
                },
                {
                  "internalType": "bool",
                  "name": "firedThisTurn",
                  "type": "bool"
                }
              ],
              "internalType": "struct GameData",
              "name": "gameData",
              "type": "tuple"
            },
            {
              "components": [
                {
                  "internalType": "uint32",
                  "name": "shipsDestroyed",
                  "type": "uint32"
                },
                {
                  "internalType": "uint16",
                  "name": "costsVersion",
                  "type": "uint16"
                },
                {
                  "internalType": "uint16",
                  "name": "cost",
                  "type": "uint16"
                },
                {
                  "internalType": "bool",
                  "name": "shiny",
                  "type": "bool"
                },
                {
                  "internalType": "bool",
                  "name": "constructed",
                  "type": "bool"
                },
                {
                  "internalType": "bool",
                  "name": "inFleet",
                  "type": "bool"
                },
                {
                  "internalType": "uint256",
                  "name": "timestampDestroyed",
                  "type": "uint256"
                }
              ],
              "internalType": "struct ShipData",
              "name": "shipData",
              "type": "tuple"
            },
            {
              "internalType": "address",
              "name": "owner",
              "type": "address"
            }
          ],
          "internalType": "struct Ship",
          "name": "ship",
          "type": "tuple"
        }
      ],
      "name": "render",
      "outputs": [
        {
          "internalType": "string",
          "name": "",
          "type": "string"
        }
      ],
      "stateMutability": "view",
      "type": "function"
    },
    {
      "inputs": [],
      "name": "renderAft0",
      "outputs": [
        {
          "internalType": "contract IReturnSVG",
          "name": "",
          "type": "address"
        }
      ],
      "stateMutability": "view",
      "type": "function"
    },
    {
      "inputs": [],
      "name": "renderAft1",
      "outputs": [
        {
          "internalType": "contract IReturnSVG",
          "name": "",
          "type": "address"
        }
      ],
      "stateMutability": "view",
      "type": "function"
    },
    {
      "inputs": [],
      "name": "renderAft2",
      "outputs": [
        {
          "internalType": "contract IReturnSVG",
          "name": "",
          "type": "address"
        }
      ],
      "stateMutability": "view",
      "type": "function"
    }
  ],
  "bytecode": "0x60e060405234801561001057600080fd5b50604051610c08380380610c0883398101604081905261002f9161015a565b80516003146100905760405162461bcd60e51b8152602060048201526024808201527f496e76616c69642072656e64657265727320617272617920696e2052656e64656044820152631c90599d60e21b606482015260840160405180910390fd5b806000815181106100a3576100a3610229565b60200260200101516001600160a01b03166080816001600160a01b031681525050806001815181106100d7576100d7610229565b60200260200101516001600160a01b031660a0816001600160a01b0316815250508060028151811061010b5761010b610229565b60209081029190910101516001600160a01b031660c0525061023f565b634e487b7160e01b600052604160045260246000fd5b80516001600160a01b038116811461015557600080fd5b919050565b60006020828403121561016c57600080fd5b81516001600160401b0381111561018257600080fd5b8201601f8101841361019357600080fd5b80516001600160401b038111156101ac576101ac610128565b604051600582901b90603f8201601f191681016001600160401b03811182821017156101da576101da610128565b6040529182526020818401810192908101878411156101f857600080fd5b6020850194505b8385101561021e576102108561013e565b8152602094850194016101ff565b509695505050505050565b634e487b7160e01b600052603260045260246000fd5b60805160a05160c05161098861028060003960008181607f015261021d01526000818160e501526101bf01526000818160be015261011f01526109886000f3fe608060405234801561001057600080fd5b506004361061004c5760003560e01c806311ffaed01461005157806325aa49961461007a578063504d7432146100b957806357283e27146100e0575b600080fd5b61006461005f366004610796565b610107565b60405161007191906108a9565b60405180910390f35b6100a17f000000000000000000000000000000000000000000000000000000000000000081565b6040516001600160a01b039091168152602001610071565b6100a17f000000000000000000000000000000000000000000000000000000000000000081565b6100a17f000000000000000000000000000000000000000000000000000000000000000081565b60608160600151610140015160ff166000036101a9577f00000000000000000000000000000000000000000000000000000000000000006001600160a01b031663d607497a6040518163ffffffff1660e01b8152600401600060405180830381865afa15801561017b573d6000803e3d6000fd5b505050506040513d6000823e601f3d908101601f191682016040526101a391908101906108dc565b92915050565b8160600151610140015160ff1660010361021b577f00000000000000000000000000000000000000000000000000000000000000006001600160a01b031663d607497a6040518163ffffffff1660e01b8152600401600060405180830381865afa15801561017b573d6000803e3d6000fd5b7f00000000000000000000000000000000000000000000000000000000000000006001600160a01b031663d607497a6040518163ffffffff1660e01b8152600401600060405180830381865afa15801561017b573d6000803e3d6000fd5b919050565b634e487b7160e01b600052604160045260246000fd5b60405161016081016001600160401b03811182821017156102b7576102b761027e565b60405290565b60405160c081016001600160401b03811182821017156102b7576102b761027e565b60405160e081016001600160401b03811182821017156102b7576102b761027e565b604051601f8201601f191681016001600160401b03811182821017156103295761032961027e565b604052919050565b60006001600160401b0382111561034a5761034a61027e565b50601f01601f191660200190565b600082601f83011261036957600080fd5b813561037c61037782610331565b610301565b81815284602083860101111561039157600080fd5b816020850160208301376000918101602001919091529392505050565b600481106103bb57600080fd5b50565b6000608082840312156103d057600080fd5b604051608081016001600160401b03811182821017156103f2576103f261027e565b6040529050808235610403816103ae565b81526020830135610413816103ae565b60208201526040830135610426816103ae565b60408201526060830135610439816103ae565b6060919091015292915050565b803560ff8116811461027957600080fd5b6000610160828403121561046a57600080fd5b610472610294565b82358152905061048460208301610446565b602082015261049560408301610446565b60408201526104a660608301610446565b60608201526104b760808301610446565b60808201526104c860a08301610446565b60a08201526104d960c08301610446565b60c08201526104ea60e08301610446565b60e08201526104fc6101008301610446565b61010082015261050f6101208301610446565b6101208201526105226101408301610446565b61014082015292915050565b8035801515811461027957600080fd5b600060c0828403121561055057600080fd5b6105586102bd565b82358152905060208201356001600160401b0381111561057757600080fd5b820160c0818503121561058957600080fd5b6105916102bd565b61059a82610446565b81526105a860208301610446565b60208201526105b960408301610446565b60408201526105ca60608301610446565b60608201526105db60808301610446565b608082015260a08201356001600160401b038111156105f957600080fd5b80830192505084601f83011261060e57600080fd5b81356001600160401b038111156106275761062761027e565b8060051b61063760208201610301565b9182526020818501810192908101908884111561065357600080fd5b6020860195505b8386101561067c5761066b86610446565b82526020958601959091019061065a565b60a085015250505060208301525061069660408301610446565b60408201526106a76060830161052e565b60608201526106b86080830161052e565b60808201526106c960a0830161052e565b60a082015292915050565b803561ffff8116811461027957600080fd5b600060e082840312156106f857600080fd5b6107006102df565b9050813563ffffffff8116811461071657600080fd5b8152610724602083016106d4565b6020820152610735604083016106d4565b60408201526107466060830161052e565b60608201526107576080830161052e565b608082015261076860a0830161052e565b60a082015260c09182013591810191909152919050565b80356001600160a01b038116811461027957600080fd5b6000602082840312156107a857600080fd5b81356001600160401b038111156107be57600080fd5b820161034081850312156107d157600080fd5b6107d96102df565b81356001600160401b038111156107ef57600080fd5b6107fb86828501610358565b8252506020828101359082015261081585604084016103be565b60408201526108278560c08401610457565b60608201526102208201356001600160401b0381111561084657600080fd5b6108528682850161053e565b6080830152506108668561024084016106e6565b60a0820152610878610320830161077f565b60c0820152949350505050565b60005b838110156108a0578181015183820152602001610888565b50506000910152565b60208152600082518060208401526108c8816040850160208701610885565b601f01601f19169190910160400192915050565b6000602082840312156108ee57600080fd5b81516001600160401b0381111561090457600080fd5b8201601f8101841361091557600080fd5b805161092361037782610331565b81815285602083850101111561093857600080fd5b610949826020830160208601610885565b9594505050505056fea264697066735822122082df645b6305f391ffb87271a5cbe1b894a682c0dce6fa6d99638981877788be64736f6c634300081c0033",
  "linkReferences": {},
  "deployedLinkReferences": {}
}