{
  "_format": "hh-sol-artifact-1",
  "contractName": "Ships",
  "sourceName": "contracts/Ships.sol",
  "abi": [
    {
      "inputs": [
        {
          "internalType": "address",
          "name": "_shipNames",
          "type": "address"
        },
        {
          "internalType": "address",
          "name": "_renderer",
          "type": "address"
        }
      ],
      "stateMutability": "nonpayable",
      "type": "constructor"
    },
    {
      "inputs": [],
      "name": "BadTeamCost",
      "type": "error"
    },
    {
      "inputs": [
        {
          "internalType": "address",
          "name": "sender",
          "type": "address"
        },
        {
          "internalType": "uint256",
          "name": "tokenId",
          "type": "uint256"
        },
        {
          "internalType": "address",
          "name": "owner",
          "type": "address"
        }
      ],
      "name": "ERC721IncorrectOwner",
      "type": "error"
    },
    {
      "inputs": [
        {
          "internalType": "address",
          "name": "operator",
          "type": "address"
        },
        {
          "internalType": "uint256",
          "name": "tokenId",
          "type": "uint256"
        }
      ],
      "name": "ERC721InsufficientApproval",
      "type": "error"
    },
    {
      "inputs": [
        {
          "internalType": "address",
          "name": "approver",
          "type": "address"
        }
      ],
      "name": "ERC721InvalidApprover",
      "type": "error"
    },
    {
      "inputs": [
        {
          "internalType": "address",
          "name": "operator",
          "type": "address"
        }
      ],
      "name": "ERC721InvalidOperator",
      "type": "error"
    },
    {
      "inputs": [
        {
          "internalType": "address",
          "name": "owner",
          "type": "address"
        }
      ],
      "name": "ERC721InvalidOwner",
      "type": "error"
    },
    {
      "inputs": [
        {
          "internalType": "address",
          "name": "receiver",
          "type": "address"
        }
      ],
      "name": "ERC721InvalidReceiver",
      "type": "error"
    },
    {
      "inputs": [
        {
          "internalType": "address",
          "name": "sender",
          "type": "address"
        }
      ],
      "name": "ERC721InvalidSender",
      "type": "error"
    },
    {
      "inputs": [
        {
          "internalType": "uint256",
          "name": "tokenId",
          "type": "uint256"
        }
      ],
      "name": "ERC721NonexistentToken",
      "type": "error"
    },
    {
      "inputs": [],
      "name": "InvalidId",
      "type": "error"
    },
    {
      "inputs": [],
      "name": "InvalidPayment",
      "type": "error"
    },
    {
      "inputs": [],
      "name": "InvalidReferral",
      "type": "error"
    },
    {
      "inputs": [],
      "name": "InvalidRenderer",
      "type": "error"
    },
    {
      "inputs": [],
      "name": "MintPaused",
      "type": "error"
    },
    {
      "inputs": [
        {
          "internalType": "address",
          "name": "",
          "type": "address"
        }
      ],
      "name": "NotAuthorized",
      "type": "error"
    },
    {
      "inputs": [
        {
          "internalType": "uint256",
          "name": "",
          "type": "uint256"
        }
      ],
      "name": "NotYourShip",
      "type": "error"
    },
    {
      "inputs": [],
      "name": "OldShipCost",
      "type": "error"
    },
    {
      "inputs": [
        {
          "internalType": "address",
          "name": "owner",
          "type": "address"
        }
      ],
      "name": "OwnableInvalidOwner",
      "type": "error"
    },
    {
      "inputs": [
        {
          "internalType": "address",
          "name": "account",
          "type": "address"
        }
      ],
      "name": "OwnableUnauthorizedAccount",
      "type": "error"
    },
    {
      "inputs": [],
      "name": "ReentrancyGuardReentrantCall",
      "type": "error"
    },
    {
      "inputs": [
        {
          "internalType": "uint256",
          "name": "",
          "type": "uint256"
        }
      ],
      "name": "ShipConstructed",
      "type": "error"
    },
    {
      "inputs": [],
      "name": "ShipDestroyed",
      "type": "error"
    },
    {
      "inputs": [],
      "name": "ShipInGame",
      "type": "error"
    },
    {
      "inputs": [],
      "name": "ShipInLobby",
      "type": "error"
    },
    {
      "anonymous": false,
      "inputs": [
        {
          "indexed": true,
          "internalType": "address",
          "name": "owner",
          "type": "address"
        },
        {
          "indexed": true,
          "internalType": "address",
          "name": "approved",
          "type": "address"
        },
        {
          "indexed": true,
          "internalType": "uint256",
          "name": "tokenId",
          "type": "uint256"
        }
      ],
      "name": "Approval",
      "type": "event"
    },
    {
      "anonymous": false,
      "inputs": [
        {
          "indexed": true,
          "internalType": "address",
          "name": "owner",
          "type": "address"
        },
        {
          "indexed": true,
          "internalType": "address",
          "name": "operator",
          "type": "address"
        },
        {
          "indexed": false,
          "internalType": "bool",
          "name": "approved",
          "type": "bool"
        }
      ],
      "name": "ApprovalForAll",
      "type": "event"
    },
    {
      "anonymous": false,
      "inputs": [
        {
          "indexed": true,
          "internalType": "address",
          "name": "previousOwner",
          "type": "address"
        },
        {
          "indexed": true,
          "internalType": "address",
          "name": "newOwner",
          "type": "address"
        }
      ],
      "name": "OwnershipTransferred",
      "type": "event"
    },
    {
      "anonymous": false,
      "inputs": [
        {
          "indexed": true,
          "internalType": "address",
          "name": "from",
          "type": "address"
        },
        {
          "indexed": true,
          "internalType": "address",
          "name": "to",
          "type": "address"
        },
        {
          "indexed": true,
          "internalType": "uint256",
          "name": "tokenId",
          "type": "uint256"
        }
      ],
      "name": "Transfer",
      "type": "event"
    },
    {
      "inputs": [
        {
          "internalType": "address",
          "name": "to",
          "type": "address"
        },
        {
          "internalType": "uint256",
          "name": "tokenId",
          "type": "uint256"
        }
      ],
      "name": "approve",
      "outputs": [],
      "stateMutability": "nonpayable",
      "type": "function"
    },
    {
      "inputs": [
        {
          "internalType": "address",
          "name": "owner",
          "type": "address"
        }
      ],
      "name": "balanceOf",
      "outputs": [
        {
          "internalType": "uint256",
          "name": "",
          "type": "uint256"
        }
      ],
      "stateMutability": "view",
      "type": "function"
    },
    {
      "inputs": [
        {
          "internalType": "uint256",
          "name": "_id",
          "type": "uint256"
        }
      ],
      "name": "constructShip",
      "outputs": [],
      "stateMutability": "nonpayable",
      "type": "function"
    },
    {
      "inputs": [
        {
          "internalType": "uint256[]",
          "name": "_ids",
          "type": "uint256[]"
        }
      ],
      "name": "constructShips",
      "outputs": [],
      "stateMutability": "nonpayable",
      "type": "function"
    },
    {
      "inputs": [],
      "name": "costs",
      "outputs": [
        {
          "internalType": "uint16",
          "name": "version",
          "type": "uint16"
        },
        {
          "internalType": "uint8",
          "name": "baseCost",
          "type": "uint8"
        }
      ],
      "stateMutability": "view",
      "type": "function"
    },
    {
      "inputs": [],
      "name": "costsVersion",
      "outputs": [
        {
          "internalType": "uint256",
          "name": "",
          "type": "uint256"
        }
      ],
      "stateMutability": "view",
      "type": "function"
    },
    {
      "inputs": [
        {
          "internalType": "uint256",
          "name": "num",
          "type": "uint256"
        }
      ],
      "name": "countDigits",
      "outputs": [
        {
          "internalType": "uint256",
          "name": "",
          "type": "uint256"
        }
      ],
      "stateMutability": "pure",
      "type": "function"
    },
    {
      "inputs": [],
      "name": "gameAddress",
      "outputs": [
        {
          "internalType": "address",
          "name": "",
          "type": "address"
        }
      ],
      "stateMutability": "view",
      "type": "function"
    },
    {
      "inputs": [
        {
          "internalType": "uint256",
          "name": "tokenId",
          "type": "uint256"
        }
      ],
      "name": "getApproved",
      "outputs": [
        {
          "internalType": "address",
          "name": "",
          "type": "address"
        }
      ],
      "stateMutability": "view",
      "type": "function"
    },
    {
      "inputs": [],
      "name": "getCosts",
      "outputs": [
        {
          "components": [
            {
              "internalType": "uint16",
              "name": "version",
              "type": "uint16"
            },
            {
              "internalType": "uint8",
              "name": "baseCost",
              "type": "uint8"
            },
            {
              "internalType": "uint8[]",
              "name": "accuracy",
              "type": "uint8[]"
            },
            {
              "internalType": "uint8[]",
              "name": "hull",
              "type": "uint8[]"
            },
            {
              "internalType": "uint8[]",
              "name": "speed",
              "type": "uint8[]"
            },
            {
              "internalType": "uint8[]",
              "name": "mainWeapon",
              "type": "uint8[]"
            },
            {
              "internalType": "uint8[]",
              "name": "armor",
              "type": "uint8[]"
            },
            {
              "internalType": "uint8[]",
              "name": "shields",
              "type": "uint8[]"
            },
            {
              "internalType": "uint8[]",
              "name": "special",
              "type": "uint8[]"
            }
          ],
          "internalType": "struct Costs",
          "name": "",
          "type": "tuple"
        }
      ],
      "stateMutability": "view",
      "type": "function"
    },
    {
      "inputs": [],
      "name": "getCostsVersion",
      "outputs": [
        {
          "internalType": "uint256",
          "name": "",
          "type": "uint256"
        }
      ],
      "stateMutability": "view",
      "type": "function"
    },
    {
      "inputs": [
        {
          "internalType": "uint256",
          "name": "_shipsDestroyed",
          "type": "uint256"
        }
      ],
      "name": "getRank",
      "outputs": [
        {
          "internalType": "uint8",
          "name": "",
          "type": "uint8"
        }
      ],
      "stateMutability": "pure",
      "type": "function"
    },
    {
      "inputs": [
        {
          "internalType": "uint256",
          "name": "_id",
          "type": "uint256"
        }
      ],
      "name": "getShip",
      "outputs": [
        {
          "components": [
            {
              "internalType": "string",
              "name": "name",
              "type": "string"
            },
            {
              "internalType": "uint256",
              "name": "id",
              "type": "uint256"
            },
            {
              "components": [
                {
                  "internalType": "enum MainWeapon",
                  "name": "mainWeapon",
                  "type": "uint8"
                },
                {
                  "internalType": "enum Armor",
                  "name": "armor",
                  "type": "uint8"
                },
                {
                  "internalType": "enum Shields",
                  "name": "shields",
                  "type": "uint8"
                },
                {
                  "internalType": "enum Special",
                  "name": "special",
                  "type": "uint8"
                }
              ],
              "internalType": "struct Equipment",
              "name": "equipment",
              "type": "tuple"
            },
            {
              "components": [
                {
                  "internalType": "uint256",
                  "name": "serialNumber",
                  "type": "uint256"
                },
                {
                  "internalType": "uint8",
                  "name": "r1",
                  "type": "uint8"
                },
                {
                  "internalType": "uint8",
                  "name": "g1",
                  "type": "uint8"
                },
                {
                  "internalType": "uint8",
                  "name": "b1",
                  "type": "uint8"
                },
                {
                  "internalType": "uint8",
                  "name": "r2",
                  "type": "uint8"
                },
                {
                  "internalType": "uint8",
                  "name": "g2",
                  "type": "uint8"
                },
                {
                  "internalType": "uint8",
                  "name": "b2",
                  "type": "uint8"
                },
                {
                  "internalType": "uint8",
                  "name": "variant",
                  "type": "uint8"
                },
                {
                  "internalType": "uint8",
                  "name": "accuracy",
                  "type": "uint8"
                },
                {
                  "internalType": "uint8",
                  "name": "hull",
                  "type": "uint8"
                },
                {
                  "internalType": "uint8",
                  "name": "speed",
                  "type": "uint8"
                }
              ],
              "internalType": "struct Traits",
              "name": "traits",
              "type": "tuple"
            },
            {
              "components": [
                {
                  "internalType": "uint256",
                  "name": "gameId",
                  "type": "uint256"
                },
                {
                  "components": [
                    {
                      "internalType": "uint8",
                      "name": "version",
                      "type": "uint8"
                    },
                    {
                      "internalType": "uint8",
                      "name": "range",
                      "type": "uint8"
                    },
                    {
                      "internalType": "uint8",
                      "name": "gunDamage",
                      "type": "uint8"
                    },
                    {
                      "internalType": "uint8",
                      "name": "hullPoints",
                      "type": "uint8"
                    },
                    {
                      "internalType": "uint8",
                      "name": "movement",
                      "type": "uint8"
                    },
                    {
                      "internalType": "uint8[]",
                      "name": "statusEffects",
                      "type": "uint8[]"
                    }
                  ],
                  "internalType": "struct Attributes",
                  "name": "attributes",
                  "type": "tuple"
                },
                {
                  "internalType": "uint8",
                  "name": "damageTaken",
                  "type": "uint8"
                },
                {
                  "internalType": "bool",
                  "name": "inLobby",
                  "type": "bool"
                },
                {
                  "internalType": "bool",
                  "name": "movedThisTurn",
                  "type": "bool"
                },
                {
                  "internalType": "bool",
                  "name": "firedThisTurn",
                  "type": "bool"
                }
              ],
              "internalType": "struct GameData",
              "name": "gameData",
              "type": "tuple"
            },
            {
              "internalType": "uint32",
              "name": "shipsDestroyed",
              "type": "uint32"
            },
            {
              "internalType": "uint16",
              "name": "costsVersion",
              "type": "uint16"
            },
            {
              "internalType": "uint16",
              "name": "cost",
              "type": "uint16"
            },
            {
              "internalType": "bool",
              "name": "shiny",
              "type": "bool"
            },
            {
              "internalType": "bool",
              "name": "constructed",
              "type": "bool"
            },
            {
              "internalType": "uint256",
              "name": "timestampDestroyed",
              "type": "uint256"
            },
            {
              "internalType": "address",
              "name": "owner",
              "type": "address"
            }
          ],
          "internalType": "struct Ship",
          "name": "",
          "type": "tuple"
        }
      ],
      "stateMutability": "view",
      "type": "function"
    },
    {
      "inputs": [],
      "name": "getShipCount",
      "outputs": [
        {
          "internalType": "uint256",
          "name": "",
          "type": "uint256"
        }
      ],
      "stateMutability": "view",
      "type": "function"
    },
    {
      "inputs": [],
      "name": "getShipPrice",
      "outputs": [
        {
          "internalType": "uint256",
          "name": "",
          "type": "uint256"
        }
      ],
      "stateMutability": "view",
      "type": "function"
    },
    {
      "inputs": [],
      "name": "getTenPackPrice",
      "outputs": [
        {
          "internalType": "uint256",
          "name": "",
          "type": "uint256"
        }
      ],
      "stateMutability": "view",
      "type": "function"
    },
    {
      "inputs": [
        {
          "internalType": "uint256",
          "name": "_trait",
          "type": "uint256"
        }
      ],
      "name": "getTierOfTrait",
      "outputs": [
        {
          "internalType": "uint8",
          "name": "",
          "type": "uint8"
        }
      ],
      "stateMutability": "pure",
      "type": "function"
    },
    {
      "inputs": [
        {
          "internalType": "address",
          "name": "owner",
          "type": "address"
        },
        {
          "internalType": "address",
          "name": "operator",
          "type": "address"
        }
      ],
      "name": "isApprovedForAll",
      "outputs": [
        {
          "internalType": "bool",
          "name": "",
          "type": "bool"
        }
      ],
      "stateMutability": "view",
      "type": "function"
    },
    {
      "inputs": [],
      "name": "lobbyAddress",
      "outputs": [
        {
          "internalType": "address",
          "name": "",
          "type": "address"
        }
      ],
      "stateMutability": "view",
      "type": "function"
    },
    {
      "inputs": [],
      "name": "metadataRenderer",
      "outputs": [
        {
          "internalType": "contract IRenderMetadata",
          "name": "",
          "type": "address"
        }
      ],
      "stateMutability": "view",
      "type": "function"
    },
    {
      "inputs": [
        {
          "internalType": "address",
          "name": "_to",
          "type": "address"
        },
        {
          "internalType": "address",
          "name": "_referral",
          "type": "address"
        }
      ],
      "name": "mintShip",
      "outputs": [],
      "stateMutability": "payable",
      "type": "function"
    },
    {
      "inputs": [
        {
          "internalType": "address",
          "name": "_to",
          "type": "address"
        },
        {
          "internalType": "address",
          "name": "_referral",
          "type": "address"
        }
      ],
      "name": "mintTenPack",
      "outputs": [],
      "stateMutability": "payable",
      "type": "function"
    },
    {
      "inputs": [],
      "name": "name",
      "outputs": [
        {
          "internalType": "string",
          "name": "",
          "type": "string"
        }
      ],
      "stateMutability": "view",
      "type": "function"
    },
    {
      "inputs": [
        {
          "internalType": "address",
          "name": "",
          "type": "address"
        }
      ],
      "name": "onboardingStep",
      "outputs": [
        {
          "internalType": "uint256",
          "name": "",
          "type": "uint256"
        }
      ],
      "stateMutability": "view",
      "type": "function"
    },
    {
      "inputs": [],
      "name": "owner",
      "outputs": [
        {
          "internalType": "address",
          "name": "",
          "type": "address"
        }
      ],
      "stateMutability": "view",
      "type": "function"
    },
    {
      "inputs": [
        {
          "internalType": "uint256",
          "name": "tokenId",
          "type": "uint256"
        }
      ],
      "name": "ownerOf",
      "outputs": [
        {
          "internalType": "address",
          "name": "",
          "type": "address"
        }
      ],
      "stateMutability": "view",
      "type": "function"
    },
    {
      "inputs": [],
      "name": "paused",
      "outputs": [
        {
          "internalType": "bool",
          "name": "",
          "type": "bool"
        }
      ],
      "stateMutability": "view",
      "type": "function"
    },
    {
      "inputs": [],
      "name": "randomManager",
      "outputs": [
        {
          "internalType": "contract IRandomManager",
          "name": "",
          "type": "address"
        }
      ],
      "stateMutability": "view",
      "type": "function"
    },
    {
      "inputs": [
        {
          "internalType": "address",
          "name": "",
          "type": "address"
        }
      ],
      "name": "referralCount",
      "outputs": [
        {
          "internalType": "uint256",
          "name": "",
          "type": "uint256"
        }
      ],
      "stateMutability": "view",
      "type": "function"
    },
    {
      "inputs": [
        {
          "internalType": "uint256",
          "name": "",
          "type": "uint256"
        }
      ],
      "name": "referralPercentages",
      "outputs": [
        {
          "internalType": "uint256",
          "name": "",
          "type": "uint256"
        }
      ],
      "stateMutability": "view",
      "type": "function"
    },
    {
      "inputs": [
        {
          "internalType": "uint256",
          "name": "",
          "type": "uint256"
        }
      ],
      "name": "referralStages",
      "outputs": [
        {
          "internalType": "uint256",
          "name": "",
          "type": "uint256"
        }
      ],
      "stateMutability": "view",
      "type": "function"
    },
    {
      "inputs": [],
      "name": "renounceOwnership",
      "outputs": [],
      "stateMutability": "nonpayable",
      "type": "function"
    },
    {
      "inputs": [
        {
          "internalType": "address",
          "name": "from",
          "type": "address"
        },
        {
          "internalType": "address",
          "name": "to",
          "type": "address"
        },
        {
          "internalType": "uint256",
          "name": "tokenId",
          "type": "uint256"
        }
      ],
      "name": "safeTransferFrom",
      "outputs": [],
      "stateMutability": "nonpayable",
      "type": "function"
    },
    {
      "inputs": [
        {
          "internalType": "address",
          "name": "from",
          "type": "address"
        },
        {
          "internalType": "address",
          "name": "to",
          "type": "address"
        },
        {
          "internalType": "uint256",
          "name": "tokenId",
          "type": "uint256"
        },
        {
          "internalType": "bytes",
          "name": "data",
          "type": "bytes"
        }
      ],
      "name": "safeTransferFrom",
      "outputs": [],
      "stateMutability": "nonpayable",
      "type": "function"
    },
    {
      "inputs": [
        {
          "internalType": "address",
          "name": "operator",
          "type": "address"
        },
        {
          "internalType": "bool",
          "name": "approved",
          "type": "bool"
        }
      ],
      "name": "setApprovalForAll",
      "outputs": [],
      "stateMutability": "nonpayable",
      "type": "function"
    },
    {
      "inputs": [
        {
          "internalType": "uint256",
          "name": "_id",
          "type": "uint256"
        }
      ],
      "name": "setCostOfShip",
      "outputs": [
        {
          "internalType": "uint16",
          "name": "",
          "type": "uint16"
        }
      ],
      "stateMutability": "view",
      "type": "function"
    },
    {
      "inputs": [
        {
          "components": [
            {
              "internalType": "uint16",
              "name": "version",
              "type": "uint16"
            },
            {
              "internalType": "uint8",
              "name": "baseCost",
              "type": "uint8"
            },
            {
              "internalType": "uint8[]",
              "name": "accuracy",
              "type": "uint8[]"
            },
            {
              "internalType": "uint8[]",
              "name": "hull",
              "type": "uint8[]"
            },
            {
              "internalType": "uint8[]",
              "name": "speed",
              "type": "uint8[]"
            },
            {
              "internalType": "uint8[]",
              "name": "mainWeapon",
              "type": "uint8[]"
            },
            {
              "internalType": "uint8[]",
              "name": "armor",
              "type": "uint8[]"
            },
            {
              "internalType": "uint8[]",
              "name": "shields",
              "type": "uint8[]"
            },
            {
              "internalType": "uint8[]",
              "name": "special",
              "type": "uint8[]"
            }
          ],
          "internalType": "struct Costs",
          "name": "_costs",
          "type": "tuple"
        }
      ],
      "name": "setCosts",
      "outputs": [],
      "stateMutability": "nonpayable",
      "type": "function"
    },
    {
      "inputs": [
        {
          "internalType": "address",
          "name": "_gameAddress",
          "type": "address"
        }
      ],
      "name": "setGameAddress",
      "outputs": [],
      "stateMutability": "nonpayable",
      "type": "function"
    },
    {
      "inputs": [
        {
          "internalType": "address",
          "name": "_lobbyAddress",
          "type": "address"
        }
      ],
      "name": "setLobbyAddress",
      "outputs": [],
      "stateMutability": "nonpayable",
      "type": "function"
    },
    {
      "inputs": [
        {
          "internalType": "uint8",
          "name": "_numberOfVariants",
          "type": "uint8"
        }
      ],
      "name": "setNumberOfVariants",
      "outputs": [],
      "stateMutability": "nonpayable",
      "type": "function"
    },
    {
      "inputs": [
        {
          "internalType": "bool",
          "name": "_paused",
          "type": "bool"
        }
      ],
      "name": "setPaused",
      "outputs": [],
      "stateMutability": "nonpayable",
      "type": "function"
    },
    {
      "inputs": [
        {
          "internalType": "address",
          "name": "_randomManager",
          "type": "address"
        }
      ],
      "name": "setRandomManager",
      "outputs": [],
      "stateMutability": "nonpayable",
      "type": "function"
    },
    {
      "inputs": [
        {
          "internalType": "uint256[]",
          "name": "_referralPercentages",
          "type": "uint256[]"
        }
      ],
      "name": "setReferralPercentages",
      "outputs": [],
      "stateMutability": "nonpayable",
      "type": "function"
    },
    {
      "inputs": [
        {
          "internalType": "uint256[]",
          "name": "_referralStages",
          "type": "uint256[]"
        }
      ],
      "name": "setReferralStages",
      "outputs": [],
      "stateMutability": "nonpayable",
      "type": "function"
    },
    {
      "inputs": [
        {
          "internalType": "address",
          "name": "_shipNames",
          "type": "address"
        }
      ],
      "name": "setShipNames",
      "outputs": [],
      "stateMutability": "nonpayable",
      "type": "function"
    },
    {
      "inputs": [
        {
          "internalType": "uint256",
          "name": "_price",
          "type": "uint256"
        }
      ],
      "name": "setShipPrice",
      "outputs": [],
      "stateMutability": "nonpayable",
      "type": "function"
    },
    {
      "inputs": [
        {
          "internalType": "uint256",
          "name": "_price",
          "type": "uint256"
        }
      ],
      "name": "setTenPackPrice",
      "outputs": [],
      "stateMutability": "nonpayable",
      "type": "function"
    },
    {
      "inputs": [],
      "name": "shipCount",
      "outputs": [
        {
          "internalType": "uint256",
          "name": "",
          "type": "uint256"
        }
      ],
      "stateMutability": "view",
      "type": "function"
    },
    {
      "inputs": [],
      "name": "shipNames",
      "outputs": [
        {
          "internalType": "contract IOnchainRandomShipNames",
          "name": "",
          "type": "address"
        }
      ],
      "stateMutability": "view",
      "type": "function"
    },
    {
      "inputs": [],
      "name": "shipPrice",
      "outputs": [
        {
          "internalType": "uint256",
          "name": "",
          "type": "uint256"
        }
      ],
      "stateMutability": "view",
      "type": "function"
    },
    {
      "inputs": [
        {
          "internalType": "uint256",
          "name": "",
          "type": "uint256"
        }
      ],
      "name": "ships",
      "outputs": [
        {
          "internalType": "string",
          "name": "name",
          "type": "string"
        },
        {
          "internalType": "uint256",
          "name": "id",
          "type": "uint256"
        },
        {
          "components": [
            {
              "internalType": "enum MainWeapon",
              "name": "mainWeapon",
              "type": "uint8"
            },
            {
              "internalType": "enum Armor",
              "name": "armor",
              "type": "uint8"
            },
            {
              "internalType": "enum Shields",
              "name": "shields",
              "type": "uint8"
            },
            {
              "internalType": "enum Special",
              "name": "special",
              "type": "uint8"
            }
          ],
          "internalType": "struct Equipment",
          "name": "equipment",
          "type": "tuple"
        },
        {
          "components": [
            {
              "internalType": "uint256",
              "name": "serialNumber",
              "type": "uint256"
            },
            {
              "internalType": "uint8",
              "name": "r1",
              "type": "uint8"
            },
            {
              "internalType": "uint8",
              "name": "g1",
              "type": "uint8"
            },
            {
              "internalType": "uint8",
              "name": "b1",
              "type": "uint8"
            },
            {
              "internalType": "uint8",
              "name": "r2",
              "type": "uint8"
            },
            {
              "internalType": "uint8",
              "name": "g2",
              "type": "uint8"
            },
            {
              "internalType": "uint8",
              "name": "b2",
              "type": "uint8"
            },
            {
              "internalType": "uint8",
              "name": "variant",
              "type": "uint8"
            },
            {
              "internalType": "uint8",
              "name": "accuracy",
              "type": "uint8"
            },
            {
              "internalType": "uint8",
              "name": "hull",
              "type": "uint8"
            },
            {
              "internalType": "uint8",
              "name": "speed",
              "type": "uint8"
            }
          ],
          "internalType": "struct Traits",
          "name": "traits",
          "type": "tuple"
        },
        {
          "components": [
            {
              "internalType": "uint256",
              "name": "gameId",
              "type": "uint256"
            },
            {
              "components": [
                {
                  "internalType": "uint8",
                  "name": "version",
                  "type": "uint8"
                },
                {
                  "internalType": "uint8",
                  "name": "range",
                  "type": "uint8"
                },
                {
                  "internalType": "uint8",
                  "name": "gunDamage",
                  "type": "uint8"
                },
                {
                  "internalType": "uint8",
                  "name": "hullPoints",
                  "type": "uint8"
                },
                {
                  "internalType": "uint8",
                  "name": "movement",
                  "type": "uint8"
                },
                {
                  "internalType": "uint8[]",
                  "name": "statusEffects",
                  "type": "uint8[]"
                }
              ],
              "internalType": "struct Attributes",
              "name": "attributes",
              "type": "tuple"
            },
            {
              "internalType": "uint8",
              "name": "damageTaken",
              "type": "uint8"
            },
            {
              "internalType": "bool",
              "name": "inLobby",
              "type": "bool"
            },
            {
              "internalType": "bool",
              "name": "movedThisTurn",
              "type": "bool"
            },
            {
              "internalType": "bool",
              "name": "firedThisTurn",
              "type": "bool"
            }
          ],
          "internalType": "struct GameData",
          "name": "gameData",
          "type": "tuple"
        },
        {
          "internalType": "uint32",
          "name": "shipsDestroyed",
          "type": "uint32"
        },
        {
          "internalType": "uint16",
          "name": "costsVersion",
          "type": "uint16"
        },
        {
          "internalType": "uint16",
          "name": "cost",
          "type": "uint16"
        },
        {
          "internalType": "bool",
          "name": "shiny",
          "type": "bool"
        },
        {
          "internalType": "bool",
          "name": "constructed",
          "type": "bool"
        },
        {
          "internalType": "uint256",
          "name": "timestampDestroyed",
          "type": "uint256"
        },
        {
          "internalType": "address",
          "name": "owner",
          "type": "address"
        }
      ],
      "stateMutability": "view",
      "type": "function"
    },
    {
      "inputs": [
        {
          "internalType": "bytes4",
          "name": "interfaceId",
          "type": "bytes4"
        }
      ],
      "name": "supportsInterface",
      "outputs": [
        {
          "internalType": "bool",
          "name": "",
          "type": "bool"
        }
      ],
      "stateMutability": "view",
      "type": "function"
    },
    {
      "inputs": [],
      "name": "symbol",
      "outputs": [
        {
          "internalType": "string",
          "name": "",
          "type": "string"
        }
      ],
      "stateMutability": "view",
      "type": "function"
    },
    {
      "inputs": [],
      "name": "tenPackPrice",
      "outputs": [
        {
          "internalType": "uint256",
          "name": "",
          "type": "uint256"
        }
      ],
      "stateMutability": "view",
      "type": "function"
    },
    {
      "inputs": [
        {
          "internalType": "uint256",
          "name": "_id",
          "type": "uint256"
        }
      ],
      "name": "tokenURI",
      "outputs": [
        {
          "internalType": "string",
          "name": "",
          "type": "string"
        }
      ],
      "stateMutability": "view",
      "type": "function"
    },
    {
      "inputs": [
        {
          "internalType": "address",
          "name": "from",
          "type": "address"
        },
        {
          "internalType": "address",
          "name": "to",
          "type": "address"
        },
        {
          "internalType": "uint256",
          "name": "tokenId",
          "type": "uint256"
        }
      ],
      "name": "transferFrom",
      "outputs": [],
      "stateMutability": "nonpayable",
      "type": "function"
    },
    {
      "inputs": [
        {
          "internalType": "address",
          "name": "newOwner",
          "type": "address"
        }
      ],
      "name": "transferOwnership",
      "outputs": [],
      "stateMutability": "nonpayable",
      "type": "function"
    },
    {
      "inputs": [
        {
          "internalType": "uint16",
          "name": "",
          "type": "uint16"
        }
      ],
      "name": "variantCostModifiers",
      "outputs": [
        {
          "internalType": "uint16",
          "name": "version",
          "type": "uint16"
        },
        {
          "internalType": "uint8",
          "name": "baseCost",
          "type": "uint8"
        }
      ],
      "stateMutability": "view",
      "type": "function"
    },
    {
      "inputs": [],
      "name": "withdraw",
      "outputs": [],
      "stateMutability": "nonpayable",
      "type": "function"
    }
  ],
  "bytecode": "0x61012060405260006080908152600a60a052601460c052602360e05260326101005261002f90600d90600561038e565b506040805160a08101825268056bc75e2d631000008152683635c9adc5dea00000602082015269021e19e0c9bab240000091810191909152690a968163f0a57b400000606082015269152d02c7e14af6800000608082015261009590600e9060056103de565b50670de0b6b3a7640000601155676f05b59d3b200000601255601e805461ffff60a01b1916600160a01b1790553480156100ce57600080fd5b506040516155033803806155038339810160408190526100ed916104f2565b336040518060400160405280600e81526020016d57617270666c6f7720536869707360901b815250604051806040016040528060048152602001630534849560e41b815250816000908161014191906105c4565b50600161014e82826105c4565b5050506001600160a01b03811661017f57604051631e4fbdf760e01b81526000600482015260240160405180910390fd5b6101888161033c565b506001600755601c8054610100600160a81b0319166101006001600160a01b038581169190910291909117909155601d80546001600160a01b0319169183169190911790556013805462ffffff1916623200011790556040805160608101825260008152600a602082015260199181019190915261020a906014906003610424565b506040805160608101825260008152600a6020820152601991810191909152610237906015906003610424565b506040805160608101825260008152600a6020820152601991810191909152610264906016906003610424565b506040805160808101825260198152601e602082015260289181018290526060810191909152610298906017906004610424565b50604080516080810182526000815260056020820152600a91810191909152600f60608201526102cc906018906004610424565b506040805160808101825260008152600a6020820152601491810191909152601e6060820152610300906019906004610424565b506040805160808101825260008152600a6020820152601491810191909152600f606082015261033490601a906004610424565b505050610682565b600680546001600160a01b038381166001600160a01b0319831681179093556040519116919082907f8be0079c531659141344cd1fd0a4f28419497f9722a3daafe3b4186f6b6457e090600090a35050565b8280548282559060005260206000209081019282156103ce579160200282015b828111156103ce578251829060ff169055916020019190600101906103ae565b506103da9291506104c1565b5090565b8280548282559060005260206000209081019282156103ce579160200282015b828111156103ce57825182906001600160501b03169055916020019190600101906103fe565b82805482825590600052602060002090601f016020900481019282156103ce5791602002820160005b8382111561048b57835183826101000a81548160ff021916908360ff160217905550926020019260010160208160000104928301926001030261044d565b80156104b85782816101000a81549060ff021916905560010160208160000104928301926001030261048b565b50506103da9291505b5b808211156103da57600081556001016104c2565b80516001600160a01b03811681146104ed57600080fd5b919050565b6000806040838503121561050557600080fd5b61050e836104d6565b915061051c602084016104d6565b90509250929050565b634e487b7160e01b600052604160045260246000fd5b600181811c9082168061054f57607f821691505b60208210810361056f57634e487b7160e01b600052602260045260246000fd5b50919050565b601f8211156105bf57806000526020600020601f840160051c8101602085101561059c5750805b601f840160051c820191505b818110156105bc57600081556001016105a8565b50505b505050565b81516001600160401b038111156105dd576105dd610525565b6105f1816105eb845461053b565b84610575565b6020601f821160018114610625576000831561060d5750848201515b600019600385901b1c1916600184901b1784556105bc565b600084815260208120601f198516915b828110156106555787850151825560209485019460019092019101610635565b50848210156106735786840151600019600387901b60f8161c191681555b50505050600190811b01905550565b614e72806106916000396000f3fe60806040526004361061038c5760003560e01c8063711953ef116101dc578063b4e847a011610102578063cfca9a7f116100a0578063ebc9b48b1161006f578063ebc9b48b14610ac8578063ef04398f14610ae8578063f2fde38b14610b08578063fddcfb5114610b2857600080fd5b8063cfca9a7f14610a3b578063db74559b14610a5b578063dd81d5bf14610a88578063e985e9c514610aa857600080fd5b8063c3c5dd37116100dc578063c3c5dd37146109b4578063c4ff8edb146109f0578063c7c031ee14610a06578063c87b56dd14610a1b57600080fd5b8063b4e847a01461095e578063b662abf514610974578063b88d4fde1461099457600080fd5b806395d89b411161017a578063a355a6da11610149578063a355a6da146108d9578063a4fa88f8146108fe578063a5099bae1461091e578063a7a070ce1461093e57600080fd5b806395d89b41146108645780639636c76214610879578063a168d87314610899578063a22cb465146108b957600080fd5b8063776d62f6116101b6578063776d62f6146107cf5780637d9e9d30146108115780638b6e061f146108315780638da5cb5b1461084657600080fd5b8063711953ef1461077a578063715018a61461079a5780637506fd3c146107af57600080fd5b80633a16881a116102c15780635c975abb1161025f5780636e0f7a481161022e5780636e0f7a48146106f55780636f5dd87114610727578063703199701461073a57806370a082311461075a57600080fd5b80635c975abb146106855780636352211e1461069f578063643e7afd146106bf5780636dd67b65146106d557600080fd5b806342842e0e1161029b57806342842e0e146105cd578063446c00f7146105ed5780634d4e8dfa1461062057806356a3ee771461065857600080fd5b80633a16881a146105785780633ccfd60b1461058b5780634025b22d146105a057600080fd5b806311bf541f1161032e5780631acaf625116103085780631acaf625146104f85780631d727ba5146105185780631f18fd151461053857806323b872dd1461055857600080fd5b806311bf541f146104a357806316c38b3c146104c35780631704c271146104e357600080fd5b806306fdde031161036a57806306fdde0314610407578063081812fc14610429578063095ea7b31461046157806311705fc31461048357600080fd5b806301ffc9a71461039157806303075018146103c6578063049f85b8146103e8575b600080fd5b34801561039d57600080fd5b506103b16103ac3660046136f6565b610b3e565b60405190151581526020015b60405180910390f35b3480156103d257600080fd5b506103db610b90565b6040516103bd9190613759565b3480156103f457600080fd5b506011545b6040519081526020016103bd565b34801561041357600080fd5b5061041c610f48565b6040516103bd91906138af565b34801561043557600080fd5b506104496104443660046138c2565b610fda565b6040516001600160a01b0390911681526020016103bd565b34801561046d57600080fd5b5061048161047c3660046138f2565b611003565b005b34801561048f57600080fd5b5061048161049e3660046139ae565b611012565b3480156104af57600080fd5b506104816104be366004613a59565b61102d565b3480156104cf57600080fd5b506104816104de366004613a84565b611055565b3480156104ef57600080fd5b506009546103f9565b34801561050457600080fd5b50610481610513366004613a9f565b611070565b34801561052457600080fd5b50610481610533366004613b3b565b61109a565b34801561054457600080fd5b50601e54610449906001600160a01b031681565b34801561056457600080fd5b50610481610573366004613cd1565b6111a7565b610481610586366004613d0e565b611231565b34801561059757600080fd5b506104816112b6565b3480156105ac57600080fd5b506105c06105bb3660046138c2565b611369565b6040516103bd9190613f66565b3480156105d957600080fd5b506104816105e8366004613cd1565b611762565b3480156105f957600080fd5b5061060d6106083660046138c2565b611782565b60405161ffff90911681526020016103bd565b34801561062c57600080fd5b5061064061063b3660046138c2565b611a98565b6040516103bd9c9b9a9998979695949392919061404e565b34801561066457600080fd5b506103f9610673366004613a9f565b600b6020526000908152604090205481565b34801561069157600080fd5b50601c546103b19060ff1681565b3480156106ab57600080fd5b506104496106ba3660046138c2565b611f28565b3480156106cb57600080fd5b506103f9601b5481565b3480156106e157600080fd5b506104816106f03660046138c2565b611f33565b34801561070157600080fd5b506107156107103660046138c2565b611f40565b60405160ff90911681526020016103bd565b610481610735366004613d0e565b611f71565b34801561074657600080fd5b50601d54610449906001600160a01b031681565b34801561076657600080fd5b506103f9610775366004613a9f565b611fd7565b34801561078657600080fd5b50610481610795366004613a9f565b61201f565b3480156107a657600080fd5b50610481612049565b3480156107bb57600080fd5b506104816107ca366004613a9f565b61205d565b3480156107db57600080fd5b506013546107f59061ffff81169062010000900460ff1682565b6040805161ffff909316835260ff9091166020830152016103bd565b34801561081d57600080fd5b5061048161082c3660046139ae565b612087565b34801561083d57600080fd5b506012546103f9565b34801561085257600080fd5b506006546001600160a01b0316610449565b34801561087057600080fd5b5061041c6120bd565b34801561088557600080fd5b506103f96108943660046138c2565b6120cc565b3480156108a557600080fd5b50600f54610449906001600160a01b031681565b3480156108c557600080fd5b506104816108d4366004614102565b612107565b3480156108e557600080fd5b50601c546104499061010090046001600160a01b031681565b34801561090a57600080fd5b506104816109193660046138c2565b612112565b34801561092a57600080fd5b506107156109393660046138c2565b61211f565b34801561094a57600080fd5b50610481610959366004613a9f565b61212a565b34801561096a57600080fd5b506103f960095481565b34801561098057600080fd5b506103f961098f3660046138c2565b61215a565b3480156109a057600080fd5b506104816109af366004614153565b61217b565b3480156109c057600080fd5b506107f56109cf3660046141f8565b601f6020526000908152604090205461ffff81169062010000900460ff1682565b3480156109fc57600080fd5b506103f960115481565b348015610a1257600080fd5b50601b546103f9565b348015610a2757600080fd5b5061041c610a363660046138c2565b612193565b348015610a4757600080fd5b506103f9610a563660046138c2565b612217565b348015610a6757600080fd5b506103f9610a76366004613a9f565b600c6020526000908152604090205481565b348015610a9457600080fd5b50610481610aa33660046138c2565b612227565b348015610ab457600080fd5b506103b1610ac3366004613d0e565b612b8b565b348015610ad457600080fd5b50601054610449906001600160a01b031681565b348015610af457600080fd5b50610481610b033660046139ae565b612bb9565b348015610b1457600080fd5b50610481610b23366004613a9f565b612bd4565b348015610b3457600080fd5b506103f960125481565b60006001600160e01b031982166380ac58cd60e01b1480610b6f57506001600160e01b03198216635b5e139f60e01b145b80610b8a57506301ffc9a760e01b6001600160e01b03198316145b92915050565b610be6604051806101200160405280600061ffff168152602001600060ff168152602001606081526020016060815260200160608152602001606081526020016060815260200160608152602001606081525090565b60408051610120810182526013805461ffff8116835262010000900460ff16602080840191909152601480548551818402810184018752818152949593949386019392830182828015610c7657602002820191906000526020600020906000905b825461010083900a900460ff16815260206001928301818104948501949093039092029101808411610c475790505b5050505050815260200160028201805480602002602001604051908101604052809291908181526020018280548015610cec57602002820191906000526020600020906000905b825461010083900a900460ff16815260206001928301818104948501949093039092029101808411610cbd5790505b5050505050815260200160038201805480602002602001604051908101604052809291908181526020018280548015610d6257602002820191906000526020600020906000905b825461010083900a900460ff16815260206001928301818104948501949093039092029101808411610d335790505b5050505050815260200160048201805480602002602001604051908101604052809291908181526020018280548015610dd857602002820191906000526020600020906000905b825461010083900a900460ff16815260206001928301818104948501949093039092029101808411610da95790505b5050505050815260200160058201805480602002602001604051908101604052809291908181526020018280548015610e4e57602002820191906000526020600020906000905b825461010083900a900460ff16815260206001928301818104948501949093039092029101808411610e1f5790505b5050505050815260200160068201805480602002602001604051908101604052809291908181526020018280548015610ec457602002820191906000526020600020906000905b825461010083900a900460ff16815260206001928301818104948501949093039092029101808411610e955790505b5050505050815260200160078201805480602002602001604051908101604052809291908181526020018280548015610f3a57602002820191906000526020600020906000905b825461010083900a900460ff16815260206001928301818104948501949093039092029101808411610f0b5790505b505050505081525050905090565b606060008054610f5790614213565b80601f0160208091040260200160405190810160405280929190818152602001828054610f8390614213565b8015610fd05780601f10610fa557610100808354040283529160200191610fd0565b820191906000526020600020905b815481529060010190602001808311610fb357829003601f168201915b5050505050905090565b6000610fe582612c0f565b506000828152600460205260409020546001600160a01b0316610b8a565b61100e828233612c48565b5050565b61101a612c55565b805161100e90600d90602084019061349b565b611035612c55565b601e805461ffff60a01b191660ff92909216600160a01b02919091179055565b61105d612c55565b601c805460ff1916911515919091179055565b611078612c55565b601080546001600160a01b0319166001600160a01b0392909216919091179055565b6110a2612c55565b601b80549060006110b283614263565b909155505080516013805460208085015160ff16620100000262ffffff1990921661ffff909416939093171781556040830151805184936110f8926014929101906134e6565b50606082015180516111149160028401916020909101906134e6565b50608082015180516111309160038401916020909101906134e6565b5060a0820151805161114c9160048401916020909101906134e6565b5060c082015180516111689160058401916020909101906134e6565b5060e082015180516111849160068401916020909101906134e6565b5061010082015180516111a19160078401916020909101906134e6565b50505050565b6001600160a01b0382166111d657604051633250574960e11b8152600060048201526024015b60405180910390fd5b60006111e3838333612c82565b9050836001600160a01b0316816001600160a01b0316146111a1576040516364283d7b60e01b81526001600160a01b03808616600483015260248201849052821660448201526064016111cd565b611239612d7b565b601254341461125b5760405163078d696560e31b815260040160405180910390fd5b6001600160a01b0381166112825760405163119833d760e11b815260040160405180910390fd5b60005b600a81101561129f5761129783612da5565b600101611285565b506112ac81601254612e92565b61100e6001600755565b6112be612c55565b60006112d26006546001600160a01b031690565b6001600160a01b03164760405160006040518083038185875af1925050503d806000811461131c576040519150601f19603f3d011682016040523d82523d6000602084013e611321565b606091505b50509050806113665760405162461bcd60e51b815260206004820152601160248201527015da5d1a191c985dd85b0819985a5b1959607a1b60448201526064016111cd565b50565b611371613587565b600082815260086020526040908190208151610180810190925280548290829061139a90614213565b80601f01602080910402602001604051908101604052809291908181526020018280546113c690614213565b80156114135780601f106113e857610100808354040283529160200191611413565b820191906000526020600020905b8154815290600101906020018083116113f657829003601f168201915b5050509183525050600182015460208201526040805160808101825260028401805492909301929091829060ff16600381111561145257611452613d41565b600381111561146357611463613d41565b81528154602090910190610100900460ff16600381111561148657611486613d41565b600381111561149757611497613d41565b8152815460209091019062010000900460ff1660038111156114bb576114bb613d41565b60038111156114cc576114cc613d41565b815281546020909101906301000000900460ff1660038111156114f1576114f1613d41565b600381111561150257611502613d41565b9052508152604080516101608101825260038401548152600484015460ff808216602084810191909152610100808404831685870152620100008085048416606080880191909152630100000080870486166080808a0191909152640100000000808904881660a0808c0191909152650100000000008a04891660c0808d0191909152600160301b8b048a1660e08d0152600160381b8b048a16888d0152600160401b8b048a166101208d0152600160481b909a0489166101408c0152878d019a909a528a51808a018c5260058e01805482528c519a8b018d5260068f018054808c168d529889048b168c8b01529688048a168b8e01529387048916948a0194909452909404909516928601929092526007890180548851818602810186018a5281815298909901989297949688850196959294908601939083018282801561168857602002820191906000526020600020906000905b825461010083900a900460ff168152602060019283018181049485019490930390920291018084116116595790505b5050509190925250505081526003919091015460ff80821660208085019190915261010083048216151560408086019190915262010000840483161515606080870191909152630100000090940483161515608095860152948652600987015463ffffffff81169187019190915261ffff6401000000008204811695870195909552600160301b810490941691850191909152600160401b83048116151591840191909152600160481b90910416151560a0820152600a82015460c0820152600b909101546001600160a01b031660e09091015292915050565b61177d8383836040518060200160405280600081525061217b565b505050565b600081815260086020526040812060028101548290601a906301000000900460ff1660038111156117b5576117b5613d41565b60ff16815481106117c8576117c861427c565b600091825260209182902091810490910154600284015460ff601f9093166101000a90910482169160199162010000900416600381111561180b5761180b613d41565b60ff168154811061181e5761181e61427c565b600091825260209182902091810490910154600285015460ff601f90931661010090810a90920483169260189290910416600381111561186057611860613d41565b60ff16815481106118735761187361427c565b600091825260209182902091810490910154600286015460ff601f9093166101000a9091048216916017911660038111156118b0576118b0613d41565b60ff16815481106118c3576118c361427c565b600091825260209182902091810490910154600487015460168054601f9094166101000a90920460ff90811693600160481b909204169081106119085761190861427c565b600091825260209182902091810490910154600488015460158054601f9094166101000a90920460ff90811693600160401b9092041690811061194d5761194d61427c565b600091825260209182902091810490910154600489015460148054601f9094166101000a90920460ff90811693600160381b909204169081106119925761199261427c565b6000918252602091829020918104909101546013546119c792601f166101000a90910460ff9081169162010000900416614292565b6119d19190614292565b6119db9190614292565b6119e59190614292565b6119ef9190614292565b6119f99190614292565b611a039190614292565b600983015460ff919091169150600090611a229063ffffffff1661211f565b60ff16905060006064611a3583856142ab565b611a3f91906142e5565b90506064611a4e84601e6142ab565b611a5891906142e5565b61ffff168161ffff161115611a81576064611a7484601e6142ab565b611a7e91906142e5565b90505b6000611a8d8285614309565b979650505050505050565b600860205260009081526040902080548190611ab390614213565b80601f0160208091040260200160405190810160405280929190818152602001828054611adf90614213565b8015611b2c5780601f10611b0157610100808354040283529160200191611b2c565b820191906000526020600020905b815481529060010190602001808311611b0f57829003601f168201915b505050505090806001015490806002016040518060800160405290816000820160009054906101000a900460ff166003811115611b6b57611b6b613d41565b6003811115611b7c57611b7c613d41565b81528154602090910190610100900460ff166003811115611b9f57611b9f613d41565b6003811115611bb057611bb0613d41565b8152815460209091019062010000900460ff166003811115611bd457611bd4613d41565b6003811115611be557611be5613d41565b815281546020909101906301000000900460ff166003811115611c0a57611c0a613d41565b6003811115611c1b57611c1b613d41565b81525050908060030160405180610160016040529081600082015481526020016001820160009054906101000a900460ff1660ff1660ff1681526020016001820160019054906101000a900460ff1660ff1660ff1681526020016001820160029054906101000a900460ff1660ff1660ff1681526020016001820160039054906101000a900460ff1660ff1660ff1681526020016001820160049054906101000a900460ff1660ff1660ff1681526020016001820160059054906101000a900460ff1660ff1660ff1681526020016001820160069054906101000a900460ff1660ff1660ff1681526020016001820160079054906101000a900460ff1660ff1660ff1681526020016001820160089054906101000a900460ff1660ff1660ff1681526020016001820160099054906101000a900460ff1660ff1660ff168152505090806005016040518060c001604052908160008201548152602001600182016040518060c00160405290816000820160009054906101000a900460ff1660ff1660ff1681526020016000820160019054906101000a900460ff1660ff1660ff1681526020016000820160029054906101000a900460ff1660ff1660ff1681526020016000820160039054906101000a900460ff1660ff1660ff1681526020016000820160049054906101000a900460ff1660ff1660ff16815260200160018201805480602002602001604051908101604052809291908181526020018280548015611e8457602002820191906000526020600020906000905b825461010083900a900460ff16815260206001928301818104948501949093039092029101808411611e555790505b5050509190925250505081526003919091015460ff808216602084015261010082048116151560408401526201000082048116151560608401526301000000909104811615156080909201919091526009830154600a840154600b90940154929363ffffffff82169361ffff6401000000008404811694600160301b850490911693600160401b8104821693600160481b909104909116916001600160a01b03168c565b6000610b8a82612c0f565b611f3b612c55565b601155565b60006032821015611f5357506000919050565b6050821015611f6457506001919050565b506002919050565b919050565b611f79612d7b565b6011543414611f9b5760405163078d696560e31b815260040160405180910390fd5b6001600160a01b038116611fc25760405163119833d760e11b815260040160405180910390fd5b611fcb82612da5565b6112ac81601154612e92565b60006001600160a01b038216612003576040516322718ad960e21b8152600060048201526024016111cd565b506001600160a01b031660009081526003602052604090205490565b612027612c55565b600f80546001600160a01b0319166001600160a01b0392909216919091179055565b612051612c55565b61205b6000613019565b565b612065612c55565b601e80546001600160a01b0319166001600160a01b0392909216919091179055565b60005b815181101561100e576120b58282815181106120a8576120a861427c565b6020026020010151612227565b60010161208a565b606060018054610f5790614213565b6000816000036120de57506001919050565b60005b8215610b8a57806120f181614263565b91506121009050600a84614323565b92506120e1565b61100e33838361306b565b61211a612c55565b601255565b6000610b8a826120cc565b612132612c55565b601c80546001600160a01b0390921661010002610100600160a81b0319909216919091179055565b600d818154811061216a57600080fd5b600091825260209091200154905081565b6121868484846111a7565b6111a1338585858561310a565b601d546000828152600860205260409081902090516364f9e85f60e11b81526060926001600160a01b03169163c9f3d0be916121d29190600401614a2a565b600060405180830381865afa1580156121ef573d6000803e3d6000fd5b505050506040513d6000823e601f3d908101601f19168201604052610b8a9190810190614b8d565b600e818154811061216a57600080fd5b6000818152600860205260409020600b8101546001600160a01b031633146122645760405162dd34af60e41b8152600481018390526024016111cd565b6009810154600160481b900460ff161561229457604051635331ce1f60e11b8152600481018390526024016111cd565b60098101805460ff60481b1916600160481b179055601e546003820154604051632f09b60960e21b81526000926001600160a01b03169163bc26d824916122e2919060040190815260200190565b6020604051808303816000875af1158015612301573d6000803e3d6000fd5b505050506040513d601f19601f820116820180604052508101906123259190614bfa565b90508061233181614c23565b601c5460405191935061010090046001600160a01b0316915063549188c69061235e908490602001614c4e565b60408051808303601f1901815290829052805160209091012060e083901b6001600160e01b03191682526004820152602401600060405180830381865afa1580156123ad573d6000803e3d6000fd5b505050506040513d6000823e601f3d908101601f191682016040526123d59190810190614b8d565b82906123e19082614cad565b50806123ec81614c23565b915050610100816040516020016124039190614c4e565b6040516020818303038152906040528051906020012060001c6124269190614d6b565b60048301805460ff191660ff929092169190911790558061244681614c23565b9150506101008160405160200161245d9190614c4e565b6040516020818303038152906040528051906020012060001c6124809190614d6b565b60048301805460ff929092166101000261ff0019909216919091179055806124a781614c23565b915050610100816040516020016124be9190614c4e565b6040516020818303038152906040528051906020012060001c6124e19190614d6b565b60048301805460ff92909216620100000262ff0000199092169190911790558061250a81614c23565b915050610100816040516020016125219190614c4e565b6040516020818303038152906040528051906020012060001c6125449190614d6b565b60048301805460ff9290921663010000000263ff000000199092169190911790558061256f81614c23565b915050610100816040516020016125869190614c4e565b6040516020818303038152906040528051906020012060001c6125a99190614d6b565b60048301805460ff929092166401000000000264ff0000000019909216919091179055806125d681614c23565b915050610100816040516020016125ed9190614c4e565b6040516020818303038152906040528051906020012060001c6126109190614d6b565b60048301805460ff92909216650100000000000265ff0000000000199092169190911790558061263f81614c23565b91505061267b6064826040516020016126589190614c4e565b6040516020818303038152906040528051906020012060001c6107109190614d6b565b60048301805460ff92909216600160381b0267ff0000000000000019909216919091179055806126aa81614c23565b9150506126c36064826040516020016126589190614c4e565b60048301805460ff92909216600160401b0260ff60401b19909216919091179055806126ee81614c23565b9150506127076064826040516020016126589190614c4e565b60048301805460ff92909216600160481b0260ff60481b199092169190911790558061273281614c23565b601e54604051919350600160a01b900461ffff169150612756908390602001614c4e565b6040516020818303038152906040528051906020012060001c6127799190614d6b565b60048301805460ff92909216600160301b0266ff00000000000019909216919091179055806127a781614c23565b9150506004816040516020016127bd9190614c4e565b6040516020818303038152906040528051906020012060001c6127e09190614d6b565b60038111156127f1576127f1613d41565b60028301805460ff1916600183600381111561280f5761280f613d41565b02179055508061281e81614c23565b91505060006002826040516020016128369190614c4e565b6040516020818303038152906040528051906020012060001c6128599190614d6b565b1590508161286681614c23565b92505080156128e0576004826040516020016128829190614c4e565b6040516020818303038152906040528051906020012060001c6128a59190614d6b565b60038111156128b6576128b6613d41565b60028401805461ff0019166101008360038111156128d6576128d6613d41565b021790555061294f565b6004826040516020016128f39190614c4e565b6040516020818303038152906040528051906020012060001c6129169190614d6b565b600381111561292757612927613d41565b60028401805462ff000019166201000083600381111561294957612949613d41565b02179055505b8161295981614c23565b92505060048260405160200161296f9190614c4e565b6040516020818303038152906040528051906020012060001c6129929190614d6b565b60038111156129a3576129a3613d41565b60028401805463ff000000191663010000008360038111156129c7576129c7613d41565b021790555060006064836040516020016129e19190614c4e565b6040516020818303038152906040528051906020012060001c612a049190614d6b565b905080600003612a245760098401805460ff60401b1916600160401b1790555b82612a2e81614c23565b9350506000606484604051602001612a469190614c4e565b6040516020818303038152906040528051906020012060001c612a699190614d6b565b9050604b811015612aa957612a7f600582614d6b565b612a8a906001614d7f565b60098601805463ffffffff191661ffff92909216919091179055612b37565b605a811015612ac857612abd600582614d6b565b612a8a906006614d7f565b605f811015612ae757612adc602882614d6b565b612a8a90600b614d7f565b6063811015612b0657612afb603282614d6b565b612a8a906033614d7f565b612b11603282614d6b565b612b1c906065614d7f565b60098601805463ffffffff191661ffff929092169190911790555b60135460098601805465ffff00000000191661ffff90921664010000000002919091179055612b6586611782565b8560090160066101000a81548161ffff021916908361ffff160217905550505050505050565b6001600160a01b03918216600090815260056020908152604080832093909416825291909152205460ff1690565b612bc1612c55565b805161100e90600e90602084019061349b565b612bdc612c55565b6001600160a01b038116612c0657604051631e4fbdf760e01b8152600060048201526024016111cd565b61136681613019565b6000818152600260205260408120546001600160a01b031680610b8a57604051637e27328960e01b8152600481018490526024016111cd565b61177d8383836001613234565b6006546001600160a01b0316331461205b5760405163118cdaa760e01b81523360048201526024016111cd565b6000828152600260205260408120546001600160a01b0390811690831615612caf57612caf81848661333a565b6001600160a01b03811615612ced57612ccc600085600080613234565b6001600160a01b038116600090815260036020526040902080546000190190555b6001600160a01b03851615612d1c576001600160a01b0385166000908152600360205260409020805460010190555b60008481526002602052604080822080546001600160a01b0319166001600160a01b0389811691821790925591518793918516917fddf252ad1be2c89b69c2b068fc378daa952ba7f163c4a11628f55a4df523b3ef91a4949350505050565b600260075403612d9e57604051633ee5aeb560e01b815260040160405180910390fd5b6002600755565b601c5460ff1615612dc957604051636be9245d60e11b815260040160405180910390fd5b60098054906000612dd983614263565b909155505060095460008181526008602090815260408083206001810194909455600b840180546001600160a01b0319166001600160a01b0387811691909117909155601e54825163f8413b0760e01b8152925191169363f8413b07936004808501949193929183900301908290875af1158015612e5b573d6000803e3d6000fd5b505050506040513d601f19601f82011682018060405250810190612e7f9190614d92565b600382015560095461100e90839061339e565b6001600160a01b0382166000908152600c602052604081208054839290612eba908490614d7f565b9091555050600e546001905b8015612f5457600e612ed9600183614dab565b81548110612ee957612ee961427c565b60009182526020808320909101546001600160a01b0387168352600c90915260409091205410612f4257600d612f20600183614dab565b81548110612f3057612f3061427c565b90600052602060002001549150612f54565b80612f4c81614dbe565b915050612ec6565b5060006064612f638385614dd5565b612f6d9190614323565b90506000846001600160a01b03168260405160006040518083038185875af1925050503d8060008114612fbc576040519150601f19603f3d011682016040523d82523d6000602084013e612fc1565b606091505b50509050806130125760405162461bcd60e51b815260206004820152601860248201527f526566657272616c207472616e73666572206661696c6564000000000000000060448201526064016111cd565b5050505050565b600680546001600160a01b038381166001600160a01b0319831681179093556040519116919082907f8be0079c531659141344cd1fd0a4f28419497f9722a3daafe3b4186f6b6457e090600090a35050565b6001600160a01b03821661309d57604051630b61174360e31b81526001600160a01b03831660048201526024016111cd565b6001600160a01b03838116600081815260056020908152604080832094871680845294825291829020805460ff191686151590811790915591519182527f17307eab39ab6107e8899845ad3d59bd9653f200f220920489ca2b5937696c31910160405180910390a3505050565b6001600160a01b0383163b1561301257604051630a85bd0160e11b81526001600160a01b0384169063150b7a029061314c908890889087908790600401614dec565b6020604051808303816000875af1925050508015613187575060408051601f3d908101601f1916820190925261318491810190614e1f565b60015b6131f0573d8080156131b5576040519150601f19603f3d011682016040523d82523d6000602084013e6131ba565b606091505b5080516000036131e857604051633250574960e11b81526001600160a01b03851660048201526024016111cd565b805181602001fd5b6001600160e01b03198116630a85bd0160e11b1461322c57604051633250574960e11b81526001600160a01b03851660048201526024016111cd565b505050505050565b808061324857506001600160a01b03821615155b1561330a57600061325884612c0f565b90506001600160a01b038316158015906132845750826001600160a01b0316816001600160a01b031614155b801561329757506132958184612b8b565b155b156132c05760405163a9fbf51f60e01b81526001600160a01b03841660048201526024016111cd565b81156133085783856001600160a01b0316826001600160a01b03167f8c5be1e5ebec7d5bd14f71427d1e84f3dd0314c0f7b2291e5b200ac8c7c3b92560405160405180910390a45b505b5050600090815260046020526040902080546001600160a01b0319166001600160a01b0392909216919091179055565b6133458383836133b8565b61177d576001600160a01b03831661337357604051637e27328960e01b8152600481018290526024016111cd565b60405163177e802f60e01b81526001600160a01b0383166004820152602481018290526044016111cd565b61100e82826040518060200160405280600081525061341e565b60006001600160a01b038316158015906134165750826001600160a01b0316846001600160a01b031614806133f257506133f28484612b8b565b8061341657506000828152600460205260409020546001600160a01b038481169116145b949350505050565b6134288383613436565b61177d33600085858561310a565b6001600160a01b03821661346057604051633250574960e11b8152600060048201526024016111cd565b600061346e83836000612c82565b90506001600160a01b0381161561177d576040516339e3563760e11b8152600060048201526024016111cd565b8280548282559060005260206000209081019282156134d6579160200282015b828111156134d65782518255916020019190600101906134bb565b506134e29291506136cb565b5090565b82805482825590600052602060002090601f016020900481019282156134d65791602002820160005b8382111561354d57835183826101000a81548160ff021916908360ff160217905550926020019260010160208160000104928301926001030261350f565b801561357a5782816101000a81549060ff021916905560010160208160000104928301926001030261354d565b50506134e29291506136cb565b60405180610180016040528060608152602001600081526020016135cc6040805160808101909152806000815260200160008152602001600081526020016000905290565b8152604080516101608101825260008082526020828101829052928201819052606082018190526080820181905260a0820181905260c0820181905260e082018190526101008201819052610120820181905261014082015291019081526020016136946040805160c0808201835260008083528351918201845280825260208281018290529382018190526060808301829052608083019190915260a082015290918201908152600060208201819052604082018190526060820181905260809091015290565b815260006020820181905260408201819052606082018190526080820181905260a0820181905260c0820181905260e09091015290565b5b808211156134e257600081556001016136cc565b6001600160e01b03198116811461136657600080fd5b60006020828403121561370857600080fd5b8135613713816136e0565b9392505050565b600081518084526020840193506020830160005b8281101561374f57815160ff1686526020958601959091019060010161372e565b5093949350505050565b6020815261376e60208201835161ffff169052565b60006020830151613784604084018260ff169052565b50604083015161012060608401526137a061014084018261371a565b90506060840151601f198483030160808501526137bd828261371a565b9150506080840151601f198483030160a08501526137db828261371a565b91505060a0840151601f198483030160c08501526137f9828261371a565b91505060c0840151601f198483030160e0850152613817828261371a565b91505060e0840151601f1984830301610100850152613836828261371a565b915050610100840151601f1984830301610120850152613856828261371a565b95945050505050565b60005b8381101561387a578181015183820152602001613862565b50506000910152565b6000815180845261389b81602086016020860161385f565b601f01601f19169290920160200192915050565b6020815260006137136020830184613883565b6000602082840312156138d457600080fd5b5035919050565b80356001600160a01b0381168114611f6c57600080fd5b6000806040838503121561390557600080fd5b61390e836138db565b946020939093013593505050565b634e487b7160e01b600052604160045260246000fd5b60405161012081016001600160401b03811182821017156139555761395561391c565b60405290565b604051601f8201601f191681016001600160401b03811182821017156139835761398361391c565b604052919050565b60006001600160401b038211156139a4576139a461391c565b5060051b60200190565b6000602082840312156139c057600080fd5b81356001600160401b038111156139d657600080fd5b8201601f810184136139e757600080fd5b80356139fa6139f58261398b565b61395b565b8082825260208201915060208360051b850101925086831115613a1c57600080fd5b6020840193505b82841015613a3e578335825260209384019390910190613a23565b9695505050505050565b803560ff81168114611f6c57600080fd5b600060208284031215613a6b57600080fd5b61371382613a48565b80358015158114611f6c57600080fd5b600060208284031215613a9657600080fd5b61371382613a74565b600060208284031215613ab157600080fd5b613713826138db565b803561ffff81168114611f6c57600080fd5b600082601f830112613add57600080fd5b8135613aeb6139f58261398b565b8082825260208201915060208360051b860101925085831115613b0d57600080fd5b602085015b83811015613b3157613b2381613a48565b835260209283019201613b12565b5095945050505050565b600060208284031215613b4d57600080fd5b81356001600160401b03811115613b6357600080fd5b82016101208185031215613b7657600080fd5b613b7e613932565b613b8782613aba565b8152613b9560208301613a48565b602082015260408201356001600160401b03811115613bb357600080fd5b613bbf86828501613acc565b60408301525060608201356001600160401b03811115613bde57600080fd5b613bea86828501613acc565b60608301525060808201356001600160401b03811115613c0957600080fd5b613c1586828501613acc565b60808301525060a08201356001600160401b03811115613c3457600080fd5b613c4086828501613acc565b60a08301525060c08201356001600160401b03811115613c5f57600080fd5b613c6b86828501613acc565b60c08301525060e08201356001600160401b03811115613c8a57600080fd5b613c9686828501613acc565b60e0830152506101008201356001600160401b03811115613cb657600080fd5b613cc286828501613acc565b61010083015250949350505050565b600080600060608486031215613ce657600080fd5b613cef846138db565b9250613cfd602085016138db565b929592945050506040919091013590565b60008060408385031215613d2157600080fd5b613d2a836138db565b9150613d38602084016138db565b90509250929050565b634e487b7160e01b600052602160045260246000fd5b6004811061136657634e487b7160e01b600052602160045260246000fd5b8051613d8081613d57565b82526020810151613d9081613d57565b60208301526040810151613da381613d57565b60408301526060810151613db681613d57565b806060840152505050565b805182526020810151613dd9602084018260ff169052565b506040810151613dee604084018260ff169052565b506060810151613e03606084018260ff169052565b506080810151613e18608084018260ff169052565b5060a0810151613e2d60a084018260ff169052565b5060c0810151613e4260c084018260ff169052565b5060e0810151613e5760e084018260ff169052565b50610100810151613e6e61010084018260ff169052565b50610120810151613e8561012084018260ff169052565b5061014081015161177d61014084018260ff169052565b805182526000602082015160c0602085015260ff81511660c085015260ff60208201511660e085015260ff60408201511661010085015260ff60608201511661012085015260ff60808201511661014085015260a0810151905060c0610160850152613f0c61018085018261371a565b90506040830151613f22604086018260ff169052565b506060830151613f36606086018215159052565b506080830151613f4a608086018215159052565b5060a0830151613f5e60a086018215159052565b509392505050565b60208152600082516103206020840152613f84610340840182613883565b9050602084015160408401526040840151613fa26060850182613d75565b506060840151613fb560e0850182613dc1565b506080840151838203601f1901610240850152613fd28282613e9c565b91505060a0840151613fed61026085018263ffffffff169052565b5060c084015161ffff90811661028085015260e0850151166102a084015261010084015115156102c084015261012084015115156102e08401526101408401516103008401526101608401516001600160a01b038116610320850152613f5e565b6103208152600061406361032083018f613883565b8d6020840152614076604084018e613d75565b61408360c084018d613dc1565b828103610220840152614096818c613e9c565b91505063ffffffff891661024083015261ffff881661026083015261ffff87166102808301526140cb6102a083018715159052565b8415156102c0830152836102e08301526140f16103008301846001600160a01b03169052565b9d9c50505050505050505050505050565b6000806040838503121561411557600080fd5b61411e836138db565b9150613d3860208401613a74565b60006001600160401b038211156141455761414561391c565b50601f01601f191660200190565b6000806000806080858703121561416957600080fd5b614172856138db565b9350614180602086016138db565b92506040850135915060608501356001600160401b038111156141a257600080fd5b8501601f810187136141b357600080fd5b80356141c16139f58261412c565b8181528860208385010111156141d657600080fd5b8160208401602083013760006020838301015280935050505092959194509250565b60006020828403121561420a57600080fd5b61371382613aba565b600181811c9082168061422757607f821691505b60208210810361424757634e487b7160e01b600052602260045260246000fd5b50919050565b634e487b7160e01b600052601160045260246000fd5b6000600182016142755761427561424d565b5060010190565b634e487b7160e01b600052603260045260246000fd5b60ff8181168382160190811115610b8a57610b8a61424d565b61ffff81811683821602908116908181146142c8576142c861424d565b5092915050565b634e487b7160e01b600052601260045260246000fd5b600061ffff8316806142f9576142f96142cf565b8061ffff84160491505092915050565b61ffff8281168282160390811115610b8a57610b8a61424d565b600082614332576143326142cf565b500490565b6000815461434481614213565b80855260018216801561435e576001811461437a576143b1565b60ff1983166020870152602082151560051b87010193506143b1565b84600052602060002060005b838110156143a85781546020828a010152600182019150602081019050614386565b87016020019450505b50505092915050565b805460ff81166143c981613d57565b8352600881901c60ff166143dc81613d57565b6020840152601081901c60ff166143f281613d57565b604084015260181c60ff16613db681613d57565b805480835260008281526020808220940193909190825b82601f820110156145f057815460ff81168752600881901c60ff166020880152601081901c60ff166040880152601881901c60ff166060880152602081901c60ff166080880152602881901c60ff1660a0880152603081901c60ff1660c0880152603881901c60ff1660e0880152604081901c60ff16610100880152604881901c60ff16610120880152605081901c60ff16610140880152605881901c60ff16610160880152606081901c60ff16610180880152606881901c60ff166101a0880152607081901c60ff166101c0880152607881901c60ff166101e0880152608081901c60ff16610200880152608881901c60ff16610220880152609081901c60ff16610240880152609881901c60ff1661026088015260a081901c60ff1661028088015260a881901c60ff166102a088015260b081901c60ff166102c088015260b881901c60ff166102e088015260c081901c60ff1661030088015260c881901c60ff1661032088015260d081901c60ff1661034088015260d881901c60ff1661036088015260e081901c60ff1661038088015260e881901c60ff166103a088015260f081901c60ff166103c088015260f881901c6103e08801525061040095909501946001919091019060200161441d565b9054908281101561460b5760ff821686526020909501946001015b828110156146275760ff600883901c1686526020909501946001015b828110156146435760ff601083901c1686526020909501946001015b8281101561465f5760ff601883901c1686526020909501946001015b8281101561467c57602082901c60ff168652602095909501946001015b828110156146985760ff602883901c1686526020909501946001015b828110156146b45760ff603083901c1686526020909501946001015b828110156146d05760ff603883901c1686526020909501946001015b828110156146ec5760ff604083901c1686526020909501946001015b828110156147085760ff604883901c1686526020909501946001015b828110156147245760ff605083901c1686526020909501946001015b828110156147405760ff605883901c1686526020909501946001015b8281101561475c5760ff606083901c1686526020909501946001015b828110156147785760ff606883901c1686526020909501946001015b828110156147945760ff607083901c1686526020909501946001015b828110156147b05760ff607883901c1686526020909501946001015b828110156147cc5760ff608083901c1686526020909501946001015b828110156147e85760ff608883901c1686526020909501946001015b828110156148045760ff609083901c1686526020909501946001015b828110156148205760ff609883901c1686526020909501946001015b8281101561483c5760ff60a083901c1686526020909501946001015b828110156148585760ff60a883901c1686526020909501946001015b828110156148745760ff60b083901c1686526020909501946001015b828110156148905760ff60b883901c1686526020909501946001015b828110156148ac5760ff60c083901c1686526020909501946001015b828110156148c85760ff60c883901c1686526020909501946001015b828110156148e45760ff60d083901c1686526020909501946001015b828110156149005760ff60d883901c1686526020909501946001015b8281101561491c5760ff60e083901c1686526020909501946001015b828110156149385760ff60e883901c1686526020909501946001015b828110156149545760ff60f083901c1686526020909501946001015b8281101561374f575060f81c845250506020909101919050565b8054825260c060208301526000600182015460ff811660c085015260ff8160081c1660e085015260ff8160101c166101008501526149b8610120850160ff8360181c1660ff169052565b602081901c60ff166101408501525060c06101608401526149e0610180840160028401614406565b600383015460ff81166040860152614a026060860160ff8360081c1615159052565b614a166080860160ff8360101c1615159052565b613f5e60a0860160ff8360181c1615159052565b6020815261032060208201526000614a46610340830184614337565b60018401546040840152614a6060608401600286016143ba565b600384015460e0840152600484015460ff808216610100860152600882901c8116610120860152601082901c8116610140860152601882901c8116610160860152602082901c8116610180860152602882901c81166101a0860152603082901c81166101c0860152603882901c81166101e0860152604082901c811661020086015260489190911c16610220840152828103601f1901610240840152614b09816005860161496e565b600985015463ffffffff8116610260860152909150602081901c61ffff16610280850152603081901c61ffff166102a0850152614b516102c0850160ff8360401c1615159052565b614b666102e0850160ff8360481c1615159052565b50600a840154610300840152600b8401546001600160a01b03166103208401819052613f5e565b600060208284031215614b9f57600080fd5b81516001600160401b03811115614bb557600080fd5b8201601f81018413614bc657600080fd5b8051614bd46139f58261412c565b818152856020838501011115614be957600080fd5b61385682602083016020860161385f565b600060208284031215614c0c57600080fd5b81516001600160401b038116811461371357600080fd5b60006001600160401b0382166001600160401b038103614c4557614c4561424d565b60010192915050565b60c09190911b6001600160c01b031916815260080190565b601f82111561177d57806000526020600020601f840160051c81016020851015614c8d5750805b601f840160051c820191505b818110156130125760008155600101614c99565b81516001600160401b03811115614cc657614cc661391c565b614cda81614cd48454614213565b84614c66565b6020601f821160018114614d0e5760008315614cf65750848201515b600019600385901b1c1916600184901b178455613012565b600084815260208120601f198516915b82811015614d3e5787850151825560209485019460019092019101614d1e565b5084821015614d5c5786840151600019600387901b60f8161c191681555b50505050600190811b01905550565b600082614d7a57614d7a6142cf565b500690565b80820180821115610b8a57610b8a61424d565b600060208284031215614da457600080fd5b5051919050565b81810381811115610b8a57610b8a61424d565b600081614dcd57614dcd61424d565b506000190190565b8082028115828204841417610b8a57610b8a61424d565b6001600160a01b0385811682528416602082015260408101839052608060608201819052600090613a3e90830184613883565b600060208284031215614e3157600080fd5b8151613713816136e056fea26469706673582212202dba0ae167b97cbe963a03373b9d27177950f523f055185f0f7ee6b7f4ae0a1064736f6c634300081c0033",
  "linkReferences": {},
  "deployedLinkReferences": {}
}