{
  "_format": "hh-sol-artifact-1",
  "contractName": "Game",
  "sourceName": "contracts/Game.sol",
  "abi": [
    {
      "inputs": [
        {
          "internalType": "address",
          "name": "_ships",
          "type": "address"
        },
        {
          "internalType": "address",
          "name": "_shipAttributes",
          "type": "address"
        }
      ],
      "stateMutability": "nonpayable",
      "type": "constructor"
    },
    {
      "inputs": [],
      "name": "ActionRequired",
      "type": "error"
    },
    {
      "inputs": [],
      "name": "GameNotFound",
      "type": "error"
    },
    {
      "inputs": [],
      "name": "InvalidMove",
      "type": "error"
    },
    {
      "inputs": [],
      "name": "InvalidPosition",
      "type": "error"
    },
    {
      "inputs": [],
      "name": "NotInGame",
      "type": "error"
    },
    {
      "inputs": [],
      "name": "NotLobbiesContract",
      "type": "error"
    },
    {
      "inputs": [],
      "name": "NotYourTurn",
      "type": "error"
    },
    {
      "inputs": [
        {
          "internalType": "address",
          "name": "owner",
          "type": "address"
        }
      ],
      "name": "OwnableInvalidOwner",
      "type": "error"
    },
    {
      "inputs": [
        {
          "internalType": "address",
          "name": "account",
          "type": "address"
        }
      ],
      "name": "OwnableUnauthorizedAccount",
      "type": "error"
    },
    {
      "inputs": [],
      "name": "PositionOccupied",
      "type": "error"
    },
    {
      "inputs": [],
      "name": "ShipAlreadyMoved",
      "type": "error"
    },
    {
      "inputs": [],
      "name": "ShipDestroyed",
      "type": "error"
    },
    {
      "inputs": [],
      "name": "ShipNotFound",
      "type": "error"
    },
    {
      "inputs": [],
      "name": "ShipNotOwned",
      "type": "error"
    },
    {
      "inputs": [],
      "name": "TurnTimeoutExceeded",
      "type": "error"
    },
    {
      "inputs": [],
      "name": "TurnTimeoutNotReached",
      "type": "error"
    },
    {
      "anonymous": false,
      "inputs": [
        {
          "indexed": true,
          "internalType": "uint256",
          "name": "gameId",
          "type": "uint256"
        },
        {
          "indexed": true,
          "internalType": "uint256",
          "name": "lobbyId",
          "type": "uint256"
        },
        {
          "indexed": false,
          "internalType": "address",
          "name": "creator",
          "type": "address"
        },
        {
          "indexed": false,
          "internalType": "address",
          "name": "joiner",
          "type": "address"
        }
      ],
      "name": "GameStarted",
      "type": "event"
    },
    {
      "anonymous": false,
      "inputs": [
        {
          "indexed": true,
          "internalType": "address",
          "name": "previousOwner",
          "type": "address"
        },
        {
          "indexed": true,
          "internalType": "address",
          "name": "newOwner",
          "type": "address"
        }
      ],
      "name": "OwnershipTransferred",
      "type": "event"
    },
    {
      "inputs": [],
      "name": "GRID_HEIGHT",
      "outputs": [
        {
          "internalType": "int16",
          "name": "",
          "type": "int16"
        }
      ],
      "stateMutability": "view",
      "type": "function"
    },
    {
      "inputs": [],
      "name": "GRID_WIDTH",
      "outputs": [
        {
          "internalType": "int16",
          "name": "",
          "type": "int16"
        }
      ],
      "stateMutability": "view",
      "type": "function"
    },
    {
      "inputs": [
        {
          "internalType": "uint256",
          "name": "_gameId",
          "type": "uint256"
        },
        {
          "internalType": "uint256[]",
          "name": "_shipIds",
          "type": "uint256[]"
        }
      ],
      "name": "calculateFleetAttributes",
      "outputs": [],
      "stateMutability": "nonpayable",
      "type": "function"
    },
    {
      "inputs": [
        {
          "internalType": "uint256",
          "name": "_gameId",
          "type": "uint256"
        },
        {
          "internalType": "uint256",
          "name": "_shipId",
          "type": "uint256"
        }
      ],
      "name": "calculateShipAttributes",
      "outputs": [],
      "stateMutability": "nonpayable",
      "type": "function"
    },
    {
      "inputs": [
        {
          "internalType": "uint256",
          "name": "_gameId",
          "type": "uint256"
        },
        {
          "internalType": "uint256",
          "name": "_shipId",
          "type": "uint256"
        }
      ],
      "name": "debugDestroyShip",
      "outputs": [],
      "stateMutability": "nonpayable",
      "type": "function"
    },
    {
      "inputs": [
        {
          "internalType": "uint256",
          "name": "_gameId",
          "type": "uint256"
        },
        {
          "internalType": "uint256",
          "name": "_shipId",
          "type": "uint256"
        }
      ],
      "name": "debugMarkShipAsMoved",
      "outputs": [],
      "stateMutability": "nonpayable",
      "type": "function"
    },
    {
      "inputs": [
        {
          "internalType": "uint256",
          "name": "_gameId",
          "type": "uint256"
        },
        {
          "internalType": "uint256",
          "name": "_shipId",
          "type": "uint256"
        }
      ],
      "name": "debugSetHullPointsToZero",
      "outputs": [],
      "stateMutability": "nonpayable",
      "type": "function"
    },
    {
      "inputs": [
        {
          "internalType": "uint256",
          "name": "_gameId",
          "type": "uint256"
        },
        {
          "internalType": "uint256",
          "name": "_shipId",
          "type": "uint256"
        },
        {
          "internalType": "uint8",
          "name": "_timer",
          "type": "uint8"
        }
      ],
      "name": "debugSetReactorCriticalTimer",
      "outputs": [],
      "stateMutability": "nonpayable",
      "type": "function"
    },
    {
      "inputs": [
        {
          "internalType": "uint256",
          "name": "_gameId",
          "type": "uint256"
        },
        {
          "internalType": "uint256",
          "name": "_shipId",
          "type": "uint256"
        },
        {
          "internalType": "int16",
          "name": "_row",
          "type": "int16"
        },
        {
          "internalType": "int16",
          "name": "_col",
          "type": "int16"
        }
      ],
      "name": "debugSetShipPosition",
      "outputs": [],
      "stateMutability": "nonpayable",
      "type": "function"
    },
    {
      "inputs": [
        {
          "internalType": "uint256",
          "name": "_gameId",
          "type": "uint256"
        }
      ],
      "name": "flee",
      "outputs": [],
      "stateMutability": "nonpayable",
      "type": "function"
    },
    {
      "inputs": [],
      "name": "fleets",
      "outputs": [
        {
          "internalType": "contract IFleets",
          "name": "",
          "type": "address"
        }
      ],
      "stateMutability": "view",
      "type": "function"
    },
    {
      "inputs": [
        {
          "internalType": "uint256",
          "name": "_gameId",
          "type": "uint256"
        }
      ],
      "name": "forceMoveOnTimeout",
      "outputs": [],
      "stateMutability": "nonpayable",
      "type": "function"
    },
    {
      "inputs": [],
      "name": "gameCount",
      "outputs": [
        {
          "internalType": "uint256",
          "name": "",
          "type": "uint256"
        }
      ],
      "stateMutability": "view",
      "type": "function"
    },
    {
      "inputs": [],
      "name": "gameResults",
      "outputs": [
        {
          "internalType": "contract IGameResults",
          "name": "",
          "type": "address"
        }
      ],
      "stateMutability": "view",
      "type": "function"
    },
    {
      "inputs": [
        {
          "internalType": "uint256",
          "name": "",
          "type": "uint256"
        }
      ],
      "name": "games",
      "outputs": [
        {
          "components": [
            {
              "internalType": "uint256",
              "name": "gameId",
              "type": "uint256"
            },
            {
              "internalType": "uint256",
              "name": "lobbyId",
              "type": "uint256"
            },
            {
              "internalType": "address",
              "name": "creator",
              "type": "address"
            },
            {
              "internalType": "address",
              "name": "joiner",
              "type": "address"
            },
            {
              "internalType": "uint256",
              "name": "creatorFleetId",
              "type": "uint256"
            },
            {
              "internalType": "uint256",
              "name": "joinerFleetId",
              "type": "uint256"
            },
            {
              "internalType": "bool",
              "name": "creatorGoesFirst",
              "type": "bool"
            },
            {
              "internalType": "uint256",
              "name": "startedAt",
              "type": "uint256"
            },
            {
              "internalType": "address",
              "name": "winner",
              "type": "address"
            }
          ],
          "internalType": "struct GameMetadata",
          "name": "metadata",
          "type": "tuple"
        },
        {
          "components": [
            {
              "internalType": "address",
              "name": "currentTurn",
              "type": "address"
            },
            {
              "internalType": "uint256",
              "name": "turnTime",
              "type": "uint256"
            },
            {
              "internalType": "uint256",
              "name": "turnStartTime",
              "type": "uint256"
            },
            {
              "internalType": "uint256",
              "name": "currentRound",
              "type": "uint256"
            }
          ],
          "internalType": "struct GameTurnState",
          "name": "turnState",
          "type": "tuple"
        },
        {
          "components": [
            {
              "internalType": "int16",
              "name": "gridWidth",
              "type": "int16"
            },
            {
              "internalType": "int16",
              "name": "gridHeight",
              "type": "int16"
            }
          ],
          "internalType": "struct GameGridDimensions",
          "name": "gridDimensions",
          "type": "tuple"
        },
        {
          "internalType": "uint256",
          "name": "maxScore",
          "type": "uint256"
        },
        {
          "internalType": "uint256",
          "name": "creatorScore",
          "type": "uint256"
        },
        {
          "internalType": "uint256",
          "name": "joinerScore",
          "type": "uint256"
        }
      ],
      "stateMutability": "view",
      "type": "function"
    },
    {
      "inputs": [
        {
          "internalType": "uint256",
          "name": "_gameId",
          "type": "uint256"
        }
      ],
      "name": "getAllShipPositions",
      "outputs": [
        {
          "components": [
            {
              "internalType": "uint256",
              "name": "shipId",
              "type": "uint256"
            },
            {
              "components": [
                {
                  "internalType": "int16",
                  "name": "row",
                  "type": "int16"
                },
                {
                  "internalType": "int16",
                  "name": "col",
                  "type": "int16"
                }
              ],
              "internalType": "struct Position",
              "name": "position",
              "type": "tuple"
            },
            {
              "internalType": "bool",
              "name": "isCreator",
              "type": "bool"
            }
          ],
          "internalType": "struct ShipPosition[]",
          "name": "",
          "type": "tuple[]"
        }
      ],
      "stateMutability": "view",
      "type": "function"
    },
    {
      "inputs": [
        {
          "internalType": "uint256",
          "name": "_gameId",
          "type": "uint256"
        }
      ],
      "name": "getGame",
      "outputs": [
        {
          "components": [
            {
              "components": [
                {
                  "internalType": "uint256",
                  "name": "gameId",
                  "type": "uint256"
                },
                {
                  "internalType": "uint256",
                  "name": "lobbyId",
                  "type": "uint256"
                },
                {
                  "internalType": "address",
                  "name": "creator",
                  "type": "address"
                },
                {
                  "internalType": "address",
                  "name": "joiner",
                  "type": "address"
                },
                {
                  "internalType": "uint256",
                  "name": "creatorFleetId",
                  "type": "uint256"
                },
                {
                  "internalType": "uint256",
                  "name": "joinerFleetId",
                  "type": "uint256"
                },
                {
                  "internalType": "bool",
                  "name": "creatorGoesFirst",
                  "type": "bool"
                },
                {
                  "internalType": "uint256",
                  "name": "startedAt",
                  "type": "uint256"
                },
                {
                  "internalType": "address",
                  "name": "winner",
                  "type": "address"
                }
              ],
              "internalType": "struct GameMetadata",
              "name": "metadata",
              "type": "tuple"
            },
            {
              "components": [
                {
                  "internalType": "address",
                  "name": "currentTurn",
                  "type": "address"
                },
                {
                  "internalType": "uint256",
                  "name": "turnTime",
                  "type": "uint256"
                },
                {
                  "internalType": "uint256",
                  "name": "turnStartTime",
                  "type": "uint256"
                },
                {
                  "internalType": "uint256",
                  "name": "currentRound",
                  "type": "uint256"
                }
              ],
              "internalType": "struct GameTurnState",
              "name": "turnState",
              "type": "tuple"
            },
            {
              "components": [
                {
                  "internalType": "int16",
                  "name": "gridWidth",
                  "type": "int16"
                },
                {
                  "internalType": "int16",
                  "name": "gridHeight",
                  "type": "int16"
                }
              ],
              "internalType": "struct GameGridDimensions",
              "name": "gridDimensions",
              "type": "tuple"
            },
            {
              "internalType": "uint256",
              "name": "maxScore",
              "type": "uint256"
            },
            {
              "internalType": "uint256",
              "name": "creatorScore",
              "type": "uint256"
            },
            {
              "internalType": "uint256",
              "name": "joinerScore",
              "type": "uint256"
            },
            {
              "internalType": "uint256[]",
              "name": "shipIds",
              "type": "uint256[]"
            },
            {
              "components": [
                {
                  "internalType": "uint16",
                  "name": "version",
                  "type": "uint16"
                },
                {
                  "internalType": "uint8",
                  "name": "range",
                  "type": "uint8"
                },
                {
                  "internalType": "uint8",
                  "name": "gunDamage",
                  "type": "uint8"
                },
                {
                  "internalType": "uint8",
                  "name": "hullPoints",
                  "type": "uint8"
                },
                {
                  "internalType": "uint8",
                  "name": "maxHullPoints",
                  "type": "uint8"
                },
                {
                  "internalType": "uint8",
                  "name": "movement",
                  "type": "uint8"
                },
                {
                  "internalType": "uint8",
                  "name": "damageReduction",
                  "type": "uint8"
                },
                {
                  "internalType": "uint8",
                  "name": "reactorCriticalTimer",
                  "type": "uint8"
                },
                {
                  "internalType": "uint8[]",
                  "name": "statusEffects",
                  "type": "uint8[]"
                }
              ],
              "internalType": "struct Attributes[]",
              "name": "shipAttributes",
              "type": "tuple[]"
            },
            {
              "components": [
                {
                  "internalType": "uint256",
                  "name": "shipId",
                  "type": "uint256"
                },
                {
                  "components": [
                    {
                      "internalType": "int16",
                      "name": "row",
                      "type": "int16"
                    },
                    {
                      "internalType": "int16",
                      "name": "col",
                      "type": "int16"
                    }
                  ],
                  "internalType": "struct Position",
                  "name": "position",
                  "type": "tuple"
                },
                {
                  "internalType": "bool",
                  "name": "isCreator",
                  "type": "bool"
                }
              ],
              "internalType": "struct ShipPosition[]",
              "name": "shipPositions",
              "type": "tuple[]"
            },
            {
              "internalType": "uint256[]",
              "name": "creatorActiveShipIds",
              "type": "uint256[]"
            },
            {
              "internalType": "uint256[]",
              "name": "joinerActiveShipIds",
              "type": "uint256[]"
            },
            {
              "internalType": "uint256[]",
              "name": "creatorMovedShipIds",
              "type": "uint256[]"
            },
            {
              "internalType": "uint256[]",
              "name": "joinerMovedShipIds",
              "type": "uint256[]"
            }
          ],
          "internalType": "struct GameDataView",
          "name": "",
          "type": "tuple"
        }
      ],
      "stateMutability": "view",
      "type": "function"
    },
    {
      "inputs": [
        {
          "internalType": "address",
          "name": "_player",
          "type": "address"
        }
      ],
      "name": "getGamesForPlayer",
      "outputs": [
        {
          "components": [
            {
              "components": [
                {
                  "internalType": "uint256",
                  "name": "gameId",
                  "type": "uint256"
                },
                {
                  "internalType": "uint256",
                  "name": "lobbyId",
                  "type": "uint256"
                },
                {
                  "internalType": "address",
                  "name": "creator",
                  "type": "address"
                },
                {
                  "internalType": "address",
                  "name": "joiner",
                  "type": "address"
                },
                {
                  "internalType": "uint256",
                  "name": "creatorFleetId",
                  "type": "uint256"
                },
                {
                  "internalType": "uint256",
                  "name": "joinerFleetId",
                  "type": "uint256"
                },
                {
                  "internalType": "bool",
                  "name": "creatorGoesFirst",
                  "type": "bool"
                },
                {
                  "internalType": "uint256",
                  "name": "startedAt",
                  "type": "uint256"
                },
                {
                  "internalType": "address",
                  "name": "winner",
                  "type": "address"
                }
              ],
              "internalType": "struct GameMetadata",
              "name": "metadata",
              "type": "tuple"
            },
            {
              "components": [
                {
                  "internalType": "address",
                  "name": "currentTurn",
                  "type": "address"
                },
                {
                  "internalType": "uint256",
                  "name": "turnTime",
                  "type": "uint256"
                },
                {
                  "internalType": "uint256",
                  "name": "turnStartTime",
                  "type": "uint256"
                },
                {
                  "internalType": "uint256",
                  "name": "currentRound",
                  "type": "uint256"
                }
              ],
              "internalType": "struct GameTurnState",
              "name": "turnState",
              "type": "tuple"
            },
            {
              "components": [
                {
                  "internalType": "int16",
                  "name": "gridWidth",
                  "type": "int16"
                },
                {
                  "internalType": "int16",
                  "name": "gridHeight",
                  "type": "int16"
                }
              ],
              "internalType": "struct GameGridDimensions",
              "name": "gridDimensions",
              "type": "tuple"
            },
            {
              "internalType": "uint256",
              "name": "maxScore",
              "type": "uint256"
            },
            {
              "internalType": "uint256",
              "name": "creatorScore",
              "type": "uint256"
            },
            {
              "internalType": "uint256",
              "name": "joinerScore",
              "type": "uint256"
            },
            {
              "internalType": "uint256[]",
              "name": "shipIds",
              "type": "uint256[]"
            },
            {
              "components": [
                {
                  "internalType": "uint16",
                  "name": "version",
                  "type": "uint16"
                },
                {
                  "internalType": "uint8",
                  "name": "range",
                  "type": "uint8"
                },
                {
                  "internalType": "uint8",
                  "name": "gunDamage",
                  "type": "uint8"
                },
                {
                  "internalType": "uint8",
                  "name": "hullPoints",
                  "type": "uint8"
                },
                {
                  "internalType": "uint8",
                  "name": "maxHullPoints",
                  "type": "uint8"
                },
                {
                  "internalType": "uint8",
                  "name": "movement",
                  "type": "uint8"
                },
                {
                  "internalType": "uint8",
                  "name": "damageReduction",
                  "type": "uint8"
                },
                {
                  "internalType": "uint8",
                  "name": "reactorCriticalTimer",
                  "type": "uint8"
                },
                {
                  "internalType": "uint8[]",
                  "name": "statusEffects",
                  "type": "uint8[]"
                }
              ],
              "internalType": "struct Attributes[]",
              "name": "shipAttributes",
              "type": "tuple[]"
            },
            {
              "components": [
                {
                  "internalType": "uint256",
                  "name": "shipId",
                  "type": "uint256"
                },
                {
                  "components": [
                    {
                      "internalType": "int16",
                      "name": "row",
                      "type": "int16"
                    },
                    {
                      "internalType": "int16",
                      "name": "col",
                      "type": "int16"
                    }
                  ],
                  "internalType": "struct Position",
                  "name": "position",
                  "type": "tuple"
                },
                {
                  "internalType": "bool",
                  "name": "isCreator",
                  "type": "bool"
                }
              ],
              "internalType": "struct ShipPosition[]",
              "name": "shipPositions",
              "type": "tuple[]"
            },
            {
              "internalType": "uint256[]",
              "name": "creatorActiveShipIds",
              "type": "uint256[]"
            },
            {
              "internalType": "uint256[]",
              "name": "joinerActiveShipIds",
              "type": "uint256[]"
            },
            {
              "internalType": "uint256[]",
              "name": "creatorMovedShipIds",
              "type": "uint256[]"
            },
            {
              "internalType": "uint256[]",
              "name": "joinerMovedShipIds",
              "type": "uint256[]"
            }
          ],
          "internalType": "struct GameDataView[]",
          "name": "",
          "type": "tuple[]"
        }
      ],
      "stateMutability": "view",
      "type": "function"
    },
    {
      "inputs": [
        {
          "internalType": "uint256[]",
          "name": "_gameIds",
          "type": "uint256[]"
        }
      ],
      "name": "getGamesFromIds",
      "outputs": [
        {
          "components": [
            {
              "components": [
                {
                  "internalType": "uint256",
                  "name": "gameId",
                  "type": "uint256"
                },
                {
                  "internalType": "uint256",
                  "name": "lobbyId",
                  "type": "uint256"
                },
                {
                  "internalType": "address",
                  "name": "creator",
                  "type": "address"
                },
                {
                  "internalType": "address",
                  "name": "joiner",
                  "type": "address"
                },
                {
                  "internalType": "uint256",
                  "name": "creatorFleetId",
                  "type": "uint256"
                },
                {
                  "internalType": "uint256",
                  "name": "joinerFleetId",
                  "type": "uint256"
                },
                {
                  "internalType": "bool",
                  "name": "creatorGoesFirst",
                  "type": "bool"
                },
                {
                  "internalType": "uint256",
                  "name": "startedAt",
                  "type": "uint256"
                },
                {
                  "internalType": "address",
                  "name": "winner",
                  "type": "address"
                }
              ],
              "internalType": "struct GameMetadata",
              "name": "metadata",
              "type": "tuple"
            },
            {
              "components": [
                {
                  "internalType": "address",
                  "name": "currentTurn",
                  "type": "address"
                },
                {
                  "internalType": "uint256",
                  "name": "turnTime",
                  "type": "uint256"
                },
                {
                  "internalType": "uint256",
                  "name": "turnStartTime",
                  "type": "uint256"
                },
                {
                  "internalType": "uint256",
                  "name": "currentRound",
                  "type": "uint256"
                }
              ],
              "internalType": "struct GameTurnState",
              "name": "turnState",
              "type": "tuple"
            },
            {
              "components": [
                {
                  "internalType": "int16",
                  "name": "gridWidth",
                  "type": "int16"
                },
                {
                  "internalType": "int16",
                  "name": "gridHeight",
                  "type": "int16"
                }
              ],
              "internalType": "struct GameGridDimensions",
              "name": "gridDimensions",
              "type": "tuple"
            },
            {
              "internalType": "uint256",
              "name": "maxScore",
              "type": "uint256"
            },
            {
              "internalType": "uint256",
              "name": "creatorScore",
              "type": "uint256"
            },
            {
              "internalType": "uint256",
              "name": "joinerScore",
              "type": "uint256"
            },
            {
              "internalType": "uint256[]",
              "name": "shipIds",
              "type": "uint256[]"
            },
            {
              "components": [
                {
                  "internalType": "uint16",
                  "name": "version",
                  "type": "uint16"
                },
                {
                  "internalType": "uint8",
                  "name": "range",
                  "type": "uint8"
                },
                {
                  "internalType": "uint8",
                  "name": "gunDamage",
                  "type": "uint8"
                },
                {
                  "internalType": "uint8",
                  "name": "hullPoints",
                  "type": "uint8"
                },
                {
                  "internalType": "uint8",
                  "name": "maxHullPoints",
                  "type": "uint8"
                },
                {
                  "internalType": "uint8",
                  "name": "movement",
                  "type": "uint8"
                },
                {
                  "internalType": "uint8",
                  "name": "damageReduction",
                  "type": "uint8"
                },
                {
                  "internalType": "uint8",
                  "name": "reactorCriticalTimer",
                  "type": "uint8"
                },
                {
                  "internalType": "uint8[]",
                  "name": "statusEffects",
                  "type": "uint8[]"
                }
              ],
              "internalType": "struct Attributes[]",
              "name": "shipAttributes",
              "type": "tuple[]"
            },
            {
              "components": [
                {
                  "internalType": "uint256",
                  "name": "shipId",
                  "type": "uint256"
                },
                {
                  "components": [
                    {
                      "internalType": "int16",
                      "name": "row",
                      "type": "int16"
                    },
                    {
                      "internalType": "int16",
                      "name": "col",
                      "type": "int16"
                    }
                  ],
                  "internalType": "struct Position",
                  "name": "position",
                  "type": "tuple"
                },
                {
                  "internalType": "bool",
                  "name": "isCreator",
                  "type": "bool"
                }
              ],
              "internalType": "struct ShipPosition[]",
              "name": "shipPositions",
              "type": "tuple[]"
            },
            {
              "internalType": "uint256[]",
              "name": "creatorActiveShipIds",
              "type": "uint256[]"
            },
            {
              "internalType": "uint256[]",
              "name": "joinerActiveShipIds",
              "type": "uint256[]"
            },
            {
              "internalType": "uint256[]",
              "name": "creatorMovedShipIds",
              "type": "uint256[]"
            },
            {
              "internalType": "uint256[]",
              "name": "joinerMovedShipIds",
              "type": "uint256[]"
            }
          ],
          "internalType": "struct GameDataView[]",
          "name": "",
          "type": "tuple[]"
        }
      ],
      "stateMutability": "view",
      "type": "function"
    },
    {
      "inputs": [
        {
          "internalType": "address",
          "name": "_player",
          "type": "address"
        }
      ],
      "name": "getPlayerGameIds",
      "outputs": [
        {
          "internalType": "uint256[]",
          "name": "",
          "type": "uint256[]"
        }
      ],
      "stateMutability": "view",
      "type": "function"
    },
    {
      "inputs": [
        {
          "internalType": "uint256",
          "name": "_gameId",
          "type": "uint256"
        },
        {
          "internalType": "uint256",
          "name": "_shipId",
          "type": "uint256"
        }
      ],
      "name": "getShipAttributes",
      "outputs": [
        {
          "components": [
            {
              "internalType": "uint16",
              "name": "version",
              "type": "uint16"
            },
            {
              "internalType": "uint8",
              "name": "range",
              "type": "uint8"
            },
            {
              "internalType": "uint8",
              "name": "gunDamage",
              "type": "uint8"
            },
            {
              "internalType": "uint8",
              "name": "hullPoints",
              "type": "uint8"
            },
            {
              "internalType": "uint8",
              "name": "maxHullPoints",
              "type": "uint8"
            },
            {
              "internalType": "uint8",
              "name": "movement",
              "type": "uint8"
            },
            {
              "internalType": "uint8",
              "name": "damageReduction",
              "type": "uint8"
            },
            {
              "internalType": "uint8",
              "name": "reactorCriticalTimer",
              "type": "uint8"
            },
            {
              "internalType": "uint8[]",
              "name": "statusEffects",
              "type": "uint8[]"
            }
          ],
          "internalType": "struct Attributes",
          "name": "",
          "type": "tuple"
        }
      ],
      "stateMutability": "view",
      "type": "function"
    },
    {
      "inputs": [
        {
          "internalType": "uint256",
          "name": "target",
          "type": "uint256"
        }
      ],
      "name": "lastDamage",
      "outputs": [
        {
          "internalType": "uint256",
          "name": "lastDamager",
          "type": "uint256"
        }
      ],
      "stateMutability": "view",
      "type": "function"
    },
    {
      "inputs": [],
      "name": "lobbiesAddress",
      "outputs": [
        {
          "internalType": "address",
          "name": "",
          "type": "address"
        }
      ],
      "stateMutability": "view",
      "type": "function"
    },
    {
      "inputs": [],
      "name": "maps",
      "outputs": [
        {
          "internalType": "contract IMaps",
          "name": "",
          "type": "address"
        }
      ],
      "stateMutability": "view",
      "type": "function"
    },
    {
      "inputs": [
        {
          "internalType": "uint256",
          "name": "_gameId",
          "type": "uint256"
        },
        {
          "internalType": "uint256",
          "name": "_shipId",
          "type": "uint256"
        },
        {
          "internalType": "int16",
          "name": "_newRow",
          "type": "int16"
        },
        {
          "internalType": "int16",
          "name": "_newCol",
          "type": "int16"
        },
        {
          "internalType": "enum ActionType",
          "name": "actionType",
          "type": "uint8"
        },
        {
          "internalType": "uint256",
          "name": "targetShipId",
          "type": "uint256"
        }
      ],
      "name": "moveShip",
      "outputs": [],
      "stateMutability": "nonpayable",
      "type": "function"
    },
    {
      "inputs": [],
      "name": "owner",
      "outputs": [
        {
          "internalType": "address",
          "name": "",
          "type": "address"
        }
      ],
      "stateMutability": "view",
      "type": "function"
    },
    {
      "inputs": [
        {
          "internalType": "address",
          "name": "",
          "type": "address"
        },
        {
          "internalType": "uint256",
          "name": "",
          "type": "uint256"
        }
      ],
      "name": "playerGames",
      "outputs": [
        {
          "internalType": "uint256",
          "name": "",
          "type": "uint256"
        }
      ],
      "stateMutability": "view",
      "type": "function"
    },
    {
      "inputs": [],
      "name": "renounceOwnership",
      "outputs": [],
      "stateMutability": "nonpayable",
      "type": "function"
    },
    {
      "inputs": [
        {
          "internalType": "address",
          "name": "_mapsAddress",
          "type": "address"
        },
        {
          "internalType": "address",
          "name": "_lobbiesAddress",
          "type": "address"
        },
        {
          "internalType": "address",
          "name": "_fleetsAddress",
          "type": "address"
        },
        {
          "internalType": "address",
          "name": "_gameResultsAddress",
          "type": "address"
        },
        {
          "internalType": "address",
          "name": "_shipAttributesAddress",
          "type": "address"
        }
      ],
      "name": "setAddresses",
      "outputs": [],
      "stateMutability": "nonpayable",
      "type": "function"
    },
    {
      "inputs": [],
      "name": "shipAttributes",
      "outputs": [
        {
          "internalType": "contract IShipAttributes",
          "name": "",
          "type": "address"
        }
      ],
      "stateMutability": "view",
      "type": "function"
    },
    {
      "inputs": [],
      "name": "ships",
      "outputs": [
        {
          "internalType": "contract IShips",
          "name": "",
          "type": "address"
        }
      ],
      "stateMutability": "view",
      "type": "function"
    },
    {
      "inputs": [
        {
          "internalType": "uint256",
          "name": "_lobbyId",
          "type": "uint256"
        },
        {
          "internalType": "address",
          "name": "_creator",
          "type": "address"
        },
        {
          "internalType": "address",
          "name": "_joiner",
          "type": "address"
        },
        {
          "internalType": "uint256",
          "name": "_creatorFleetId",
          "type": "uint256"
        },
        {
          "internalType": "uint256",
          "name": "_joinerFleetId",
          "type": "uint256"
        },
        {
          "internalType": "bool",
          "name": "_creatorGoesFirst",
          "type": "bool"
        },
        {
          "internalType": "uint256",
          "name": "_turnTime",
          "type": "uint256"
        },
        {
          "internalType": "uint256",
          "name": "_selectedMapId",
          "type": "uint256"
        },
        {
          "internalType": "uint256",
          "name": "_maxScore",
          "type": "uint256"
        }
      ],
      "name": "startGame",
      "outputs": [],
      "stateMutability": "nonpayable",
      "type": "function"
    },
    {
      "inputs": [
        {
          "internalType": "address",
          "name": "newOwner",
          "type": "address"
        }
      ],
      "name": "transferOwnership",
      "outputs": [],
      "stateMutability": "nonpayable",
      "type": "function"
    }
  ],
  "bytecode": "0x608060405234801561001057600080fd5b50604051615fd1380380615fd183398101604081905261002f916100fc565b338061005557604051631e4fbdf760e01b81526000600482015260240160405180910390fd5b61005e81610090565b50600180546001600160a01b039384166001600160a01b0319918216179091556003805492909316911617905561012f565b600080546001600160a01b038381166001600160a01b0319831681178455604051919092169283917f8be0079c531659141344cd1fd0a4f28419497f9722a3daafe3b4186f6b6457e09190a35050565b80516001600160a01b03811681146100f757600080fd5b919050565b6000806040838503121561010f57600080fd5b610118836100e0565b9150610126602084016100e0565b90509250929050565b615e938061013e6000396000f3fe608060405234801561001057600080fd5b50600436106101fb5760003560e01c80636eb0f9d21161011a578063a2f77bcc116100ad578063d78ffe581161007c578063d78ffe5814610572578063e8d64aee14610585578063ecd1406d14610598578063edf59b3c146105ab578063f2fde38b146105be57600080fd5b8063a2f77bcc14610519578063bbf8218a14610539578063beaa8fa41461054c578063ce720bca1461055f57600080fd5b806384cb37ea116100e957806384cb37ea146104c25780638da5cb5b146104d557806390de1d9b146104e65780639c91fe671461050657600080fd5b80636eb0f9d214610474578063715018a6146104875780637b2fe23b1461048f5780637c767cb9146104af57600080fd5b806341f5f5e9116101925780634d1975b4116101615780634d1975b41461042557806355cebda81461042e578063566adcd0146104415780635dd68acd1461046157600080fd5b806341f5f5e9146103d7578063423bb46f146103ea57806348915d911461040a5780634bf11ad21461041d57600080fd5b806318d7261d116101ce57806318d7261d1461036b578063235e78eb1461037e578063336d7d7b146103995780633deaec2b146103c457600080fd5b80630a5694c2146102005780630aa1b26614610226578063100017cb14610246578063117a5b901461025b575b600080fd5b61021361020e366004614d90565b6105d1565b6040519081526020015b60405180910390f35b610239610234366004614dbc565b610602565b60405161021d9190615194565b6102596102543660046151f9565b610621565b005b61035961026936600461521b565b600760208181526000928352604092839020835161012081018552815481526001808301548285015260028301546001600160a01b0390811683880152600384015481166060808501919091526004850154608080860191909152600586015460a0860152600686015460ff16151560c08601529685015460e0850152600885015482166101008501528751968701885260098501549091168652600a84015486860152600b84015486880152600c840154908601528551808701909652600d83015480820b8752620100009004900b92850192909252600e810154600f82015460109092015492949290919086565b60405161021d96959493929190615234565b6102596103793660046151f9565b610637565b610386602881565b60405160019190910b815260200161021d565b6005546103ac906001600160a01b031681565b6040516001600160a01b03909116815260200161021d565b6004546103ac906001600160a01b031681565b6003546103ac906001600160a01b031681565b6103fd6103f83660046151f9565b61068c565b60405161021d91906152ad565b6002546103ac906001600160a01b031681565b610386601481565b61021360085481565b61025961043c3660046151f9565b610803565b61045461044f36600461521b565b610977565b60405161021d91906152c0565b61025961046f3660046152d3565b610b72565b610239610482366004615487565b610bd9565b610259610c8c565b6104a261049d366004614dbc565b610ca0565b60405161021d91906154bb565b6102596104bd36600461550a565b610d0c565b6102596104d036600461521b565b610dae565b6000546001600160a01b03166103ac565b6102136104f436600461521b565b600a6020526000908152604090205481565b610259610514366004615550565b610e7b565b61052c61052736600461521b565b610eb2565b60405161021d9190615596565b6001546103ac906001600160a01b031681565b61025961055a3660046155a9565b611561565b6006546103ac906001600160a01b031681565b61025961058036600461521b565b611a47565b61025961059336600461561e565b611b27565b6102596105a63660046156b3565b611d5b565b6102596105b93660046151f9565b611da3565b6102596105cc366004614dbc565b611de0565b600960205281600052604060002081815481106105ed57600080fd5b90600052602060002001600091509150505481565b6060600061060f83610ca0565b905061061a81610bd9565b9392505050565b610629611e23565b6106338282611e50565b5050565b61063f611e23565b6000918252600760209081526040808420838552601181018352818520805464ff0000000019169055600c810154855260140182528084209284529190529020805460ff19166001179055565b610694614a38565b60008381526007602052604081205490036106c2576040516309b3c62760e21b815260040160405180910390fd5b600083815260076020908152604080832085845260110190915281208054909161ffff9091169003610707576040516303c113ad60e61b815260040160405180910390fd5b6040805161012081018252825461ffff8116825260ff620100008204811660208085019190915263010000008304821684860152600160201b830482166060850152600160281b830482166080850152600160301b8304821660a0850152600160381b8304821660c0850152600160401b9092041660e0830152600184018054845181840281018401909552808552929385936101008601939192918301828280156107f057602002820191906000526020600020906000905b825461010083900a900460ff168152602060019283018181049485019490930390920291018084116107c15790505b5050505050815250509150505b92915050565b600082815260076020908152604080832084845260118101909252808320600354915163e197c62760e01b8152600481018690529293909290916001600160a01b03169063e197c62790602401600060405180830381865afa15801561086d573d6000803e3d6000fd5b505050506040513d6000823e601f3d908101601f191682016040526108959190810190615770565b8051835460208084015160408501516060860151608087015160a088015160c089015160ff908116600160381b0267ff0000000000000019928216600160301b0266ff00000000000019948316600160281b029490941666ffff000000000019958316600160201b0264ff00000000199784166301000000029790971664ffff0000001993909816620100000262ffffff19909a1661ffff909b169a909a179890981716949094179290921716949094179390931792909216178455610100820151805192935061096f9260018601929190910190614a86565b505050505050565b600081815260076020526040812054606091036109a7576040516309b3c62760e21b815260040160405180910390fd5b600082815260076020526040812090805b6014600182900b1215610a305760005b6028600182900b1215610a2757600182810b600090815260128601602090815260408083209385900b835292905220548015801590610a0b5750610a0b816120cd565b15610a1e5783610a1a81615880565b9450505b506001016109c8565b506001016109b8565b506000816001600160401b03811115610a4b57610a4b615344565b604051908082528060200260200182016040528015610a8457816020015b610a71614b2c565b815260200190600190039081610a695790505b5090506000805b6014600182900b1215610b675760005b6028600182900b1215610b5e57600182810b600090815260128801602090815260408083209385900b835292905220548015801590610ade5750610ade816120cd565b15610b55576000610aef8a83612142565b9050604051806060016040528083815260200160405180604001604052808760010b81526020018660010b8152508152602001821515815250868681518110610b3a57610b3a615899565b60200260200101819052508480610b5090615880565b955050505b50600101610a9b565b50600101610a8b565b509095945050505050565b610b7a611e23565b600480546001600160a01b03199081166001600160a01b03978816179091556005805482169587169590951790945560028054851693861693909317909255600680548416918516919091179055600380549092169216919091179055565b6060600082516001600160401b03811115610bf657610bf6615344565b604051908082528060200260200182016040528015610c2f57816020015b610c1c614b6e565b815260200190600190039081610c145790505b50905060005b8351811015610c8557610c60848281518110610c5357610c53615899565b6020026020010151610eb2565b828281518110610c7257610c72615899565b6020908102919091010152600101610c35565b5092915050565b610c94611e23565b610c9e600061217e565b565b6001600160a01b038116600090815260096020908152604091829020805483518184028101840190945280845260609392830182828015610d0057602002820191906000526020600020905b815481526020019060010190808311610cec575b50505050509050919050565b610d14611e23565b6000938452600760209081526040808620858752601381018084528288208054600181810b8b526012909401808752858b206201000092839004860b8c528752858b208b90558551808701875298850b808a529790940b8887018181528a8c5293875297518254935161ffff90811690920263ffffffff199094169116179190911790559286529181528185209285529190915290912055565b600081815260076020526040902060088101546001600160a01b031615610de8576040516321e08b4d60e21b815260040160405180910390fd5b60028101546001600160a01b03163314801590610e12575060038101546001600160a01b03163314155b15610e305760405163218286cb60e11b815260040160405180910390fd5b60028101546000906001600160a01b03163314610e5a5760028201546001600160a01b0316610e69565b60038201546001600160a01b03165b9050610e768382336121ce565b505050565b60005b8151811015610e7657610eaa83838381518110610e9d57610e9d615899565b6020026020010151610803565b600101610e7e565b610eba614b6e565b6000828152600760205260408120549003610ee8576040516309b3c62760e21b815260040160405180910390fd5b600082815260076020908152604080832060028101546001600160a01b03908116855260158201909352818420600382015490931684529083209092610f2d836122be565b90506000610f3a836122be565b9050600081518351610f4c91906158af565b90506000816001600160401b03811115610f6857610f68615344565b604051908082528060200260200182016040528015610fa157816020015b610f8e614a38565b815260200190600190039081610f865790505b5090506000826001600160401b03811115610fbe57610fbe615344565b604051908082528060200260200182016040528015610fe7578160200160208202803683370190505b50905060005b85518110156111725788601101600087838151811061100e5761100e615899565b6020908102919091018101518252818101929092526040908101600020815161012081018352815461ffff8116825260ff62010000820481168387015263010000008204811683860152600160201b820481166060840152600160281b820481166080840152600160301b8204811660a0840152600160381b8204811660c0840152600160401b9091041660e08201526001820180548451818702810187019095528085529194929361010086019390929083018282801561110d57602002820191906000526020600020906000905b825461010083900a900460ff168152602060019283018181049485019490930390920291018084116110de5790505b50505050508152505083828151811061112857611128615899565b602002602001018190525085818151811061114557611145615899565b602002602001015182828151811061115f5761115f615899565b6020908102919091010152600101610fed565b5060005b84518110156113135788601101600086838151811061119757611197615899565b6020908102919091018101518252818101929092526040908101600020815161012081018352815461ffff8116825260ff62010000820481168387015263010000008204811683860152600160201b820481166060840152600160281b820481166080840152600160301b8204811660a0840152600160381b8204811660c0840152600160401b9091041660e08201526001820180548451818702810187019095528085529194929361010086019390929083018282801561129657602002820191906000526020600020906000905b825461010083900a900460ff168152602060019283018181049485019490930390920291018084116112675790505b505050505081525050838288516112ad91906158af565b815181106112bd576112bd615899565b60200260200101819052508481815181106112da576112da615899565b6020026020010151828288516112f091906158af565b8151811061130057611300615899565b6020908102919091010152600101611176565b50600061131f8b610977565b60028a015490915060009061133e908d906001600160a01b0316612355565b60038b015490915060009061135d908e906001600160a01b0316612355565b9050604051806101a001604052808c6000016040518061012001604052908160008201548152602001600182015481526020016002820160009054906101000a90046001600160a01b03166001600160a01b03166001600160a01b031681526020016003820160009054906101000a90046001600160a01b03166001600160a01b03166001600160a01b0316815260200160048201548152602001600582015481526020016006820160009054906101000a900460ff16151515158152602001600782015481526020016008820160009054906101000a90046001600160a01b03166001600160a01b03166001600160a01b03168152505081526020018c6009016040518060800160405290816000820160009054906101000a90046001600160a01b03166001600160a01b03166001600160a01b03168152602001600182015481526020016002820154815260200160038201548152505081526020018c600d016040518060400160405290816000820160009054906101000a900460010b60010b60010b81526020016000820160029054906101000a900460010b60010b60010b8152505081526020018c600e015481526020018c600f015481526020018c601001548152602001858152602001868152602001848152602001898152602001888152602001838152602001828152509b505050505050505050505050919050565b600086815260076020526040812054900361158f576040516309b3c62760e21b815260040160405180910390fd5b600086815260076020526040902060088101546001600160a01b0316156115c9576040516321e08b4d60e21b815260040160405180910390fd5b60098101546001600160a01b031633146115f657604051631cc191eb60e31b815260040160405180910390fd5b6000611601876124b2565b60a08101519091506001600160a01b0316331461163157604051630b18e5d760e21b815260040160405180910390fd5b6000878152601183016020526040812080549091600160201b90910460ff16900361166f576040516398586ca160e01b815260040160405180910390fd5b60025460048481015460405162b5e41160e51b815291820152602481018a90526001600160a01b03909116906316bc822090604401602060405180830381865afa1580156116c1573d6000803e3d6000fd5b505050506040513d601f19601f820116820180604052508101906116e591906158cd565b15801561176d5750600254600584015460405162b5e41160e51b81526001600160a01b03909216916316bc82209161172a918c90600401918252602082015260400190565b602060405180830381865afa158015611747573d6000803e3d6000fd5b505050506040513d601f19601f8201168201806040525081019061176b91906158cd565b155b1561178b576040516303c113ad60e61b815260040160405180910390fd5b600c830154600090815260148401602090815260408083208b845290915290205460ff16156117cd57604051637d64fb5d60e01b815260040160405180910390fd5b60008881526013840160205260408120805490919060018a810b91900b14801561180457508154600189810b62010000909204900b145b905080611910576040805180820182528354600181810b835262010000909104810b60208084019190915283518085019094528c820b8452908b900b90830152600091611851919061257a565b60008c8152601188016020526040902080549192509060ff600160301b90910481169083161115611895576040516321e08b4d60e21b815260040160405180910390fd5b601460018c900b1215806118ae5750602860018b900b12155b156118cc5760405163673f032f60e11b815260040160405180910390fd5b60018b810b60009081526012890160209081526040808320938e900b835292905220541561190d57604051638243205760e01b815260040160405180910390fd5b50505b806119d257604080518082019091528254600181810b835262010000909104900b60208201526119d2908c908c908c8c60009485526007602090815260408087208551600190810b895260128201808552838a2097850151820b8a5296845282892089905594850b8089529583528188209390940b8088529282528087208690558051808201825294855284820192835294865260139092019091529190922091518254915161ffff908116620100000263ffffffff19909316911617179055565b600c850154600090815260148601602090815260408083208d84529091529020805460ff19166001179055611a0c858c8c8c8c8c8c61260e565b611a158b612783565b15611a2857611a238b61279a565b611a31565b611a318b612825565b505042600b909301929092555050505050505050565b6000818152600760205260408120549003611a75576040516309b3c62760e21b815260040160405180910390fd5b611a7e816128ed565b611a9b5760405163023e733b60e61b815260040160405180910390fd5b600081815260076020526040902060098101546001600160a01b03163303611ad657604051631cc191eb60e31b815260040160405180910390fd5b60028101546001600160a01b03163314801590611b00575060038101546001600160a01b03163314155b15611b1e5760405163218286cb60e11b815260040160405180910390fd5b61063382612918565b6005546001600160a01b03163314611b5257604051638671306560e01b815260040160405180910390fd5b60088054906000611b6283615880565b90915550506008546000818152600760208190526040909120918255600182018b90556002820180546001600160a01b03808d166001600160a01b031992831617909255600384018054928c1692909116919091179055600482018890556005820187905560068201805487151560ff19909116179055429082015584611be95787611beb565b885b6009820180546001600160a01b0319166001600160a01b0392909216919091179055600a810184905542600b8201556001600c820155600d8101805463ffffffff191662140028179055600e81018290558215611ca75760048054600854604051636a5257fd60e11b815292830152602482018590526001600160a01b03169063d4a4affa90604401600060405180830381600087803b158015611c8e57600080fd5b505af1158015611ca2573d6000803e3d6000fd5b505050505b611cb460085488886129a8565b611cc16008548888612b70565b6001600160a01b038981166000818152600960209081526040808320600880548254600180820185559387528587200155958e16808552828520875481549384018255908652948490209091019390935593548451938452908301919091528c9290917f9f0b80476ce7b05cfe8b0800d21f0b0f2704c8eb948fa5d5e87997ec901f96d1910160405180910390a350505050505050505050565b611d63611e23565b6000928352600760209081526040808520938552601190930190529120805460ff909216600160401b0268ff000000000000000019909216919091179055565b611dab611e23565b6000918252600760209081526040808420600c810154855260140182528084209284529190529020805460ff19166001179055565b611de8611e23565b6001600160a01b038116611e1757604051631e4fbdf760e01b8152600060048201526024015b60405180910390fd5b611e208161217e565b50565b6000546001600160a01b03163314610c9e5760405163118cdaa760e01b8152336004820152602401611e0e565b6000828152600760205260408120549003611e7e576040516309b3c62760e21b815260040160405180910390fd5b600082815260076020526040812090611e96836124b2565b60025460048481015460405162b5e41160e51b815291820152602481018690529192506000916001600160a01b03909116906316bc822090604401602060405180830381865afa158015611eee573d6000803e3d6000fd5b505050506040513d601f19601f82011682018060405250810190611f1291906158cd565b600254600585015460405162b5e41160e51b81529293506000926001600160a01b03909216916316bc822091611f55918990600401918252602082015260400190565b602060405180830381865afa158015611f72573d6000803e3d6000fd5b505050506040513d601f19601f82011682018060405250810190611f9691906158cd565b905081158015611fa4575080155b15611fc2576040516303c113ad60e61b815260040160405180910390fd5b608083015160c0015115611fe9576040516398586ca160e01b815260040160405180910390fd5b600085815260138501602090815260408083208054600181810b865260128a01855283862062010000909204810b8652908452828520859055600c89015485526014890184528285208a86528452828520805460ff19168217905554600a909352928190205490516311a960cd60e01b81526004810189905260248101919091526001600160a01b03909116906311a960cd90604401600060405180830381600087803b15801561209957600080fd5b505af11580156120ad573d6000803e3d6000fd5b505050506120bb8787612c7b565b6120c487612cd9565b50505050505050565b600154604051639596010160e01b8152600481018390526000916001600160a01b031690639596010190602401602060405180830381865afa158015612117573d6000803e3d6000fd5b505050506040513d601f19601f8201168201806040525081019061213b91906158cd565b1592915050565b600082815260076020908152604080832060028101546001600160a01b031684526015810190925282206121769084612d65565b949350505050565b600080546001600160a01b038381166001600160a01b0319831681178455604051919092169283917f8be0079c531659141344cd1fd0a4f28419497f9722a3daafe3b4186f6b6457e09190a35050565b60008381526007602052604090206008810180546001600160a01b0319166001600160a01b038581169190911790915560065416156122765760065460405163d6c6eb9f60e01b8152600481018690526001600160a01b03858116602483015284811660448301529091169063d6c6eb9f90606401600060405180830381600087803b15801561225d57600080fd5b505af1158015612271573d6000803e3d6000fd5b505050505b600281015460048201546122979186916001600160a01b0390911690612d7d565b600381015460058201546122b89186916001600160a01b0390911690612d7d565b50505050565b606060006122cb83612e3a565b90506000816001600160401b038111156122e7576122e7615344565b604051908082528060200260200182016040528015612310578160200160208202803683370190505b50905060005b8281101561234d576123288582612e44565b82828151811061233a5761233a615899565b6020908102919091010152600101612316565b509392505050565b60008281526007602090815260408083206001600160a01b03851684526015810190925282206060928061238883612e3a565b905060005b818110156123e45760006123a18583612e44565b600c8701546000908152601488016020908152604080832084845290915290205490915060ff16156123db57836123d781615880565b9450505b5060010161238d565b506000826001600160401b038111156123ff576123ff615344565b604051908082528060200260200182016040528015612428578160200160208202803683370190505b5090506000805b838110156124a45760006124438783612e44565b600c890154600090815260148a016020908152604080832084845290915290205490915060ff161561249b578084848151811061248257612482615899565b60209081029190910101528261249781615880565b9350505b5060010161242f565b509098975050505050505050565b6124ba614c4e565b600154604051634025b22d60e01b8152600481018490526000916001600160a01b031690634025b22d90602401600060405180830381865afa158015612504573d6000803e3d6000fd5b505050506040513d6000823e601f3d908101601f1916820160405261252c9190810190615b1f565b90508060200151600003612553576040516303c113ad60e61b815260040160405180910390fd5b608081015160c00151156107fd576040516398586ca160e01b815260040160405180910390fd5b600080826000015160010b846000015160010b136125a557835183516125a09190615c50565b6125b3565b825184516125b39190615c50565b90506000836020015160010b856020015160010b136125e557846020015184602001516125e09190615c50565b6125f9565b836020015185602001516125f99190615c50565b90506126058183615c73565b95945050505050565b600154604051634025b22d60e01b8152600481018790526000916001600160a01b031690634025b22d90602401600060405180830381865afa158015612658573d6000803e3d6000fd5b505050506040513d6000823e601f3d908101601f191682016040526126809190810190615b1f565b9050600083600581111561269657612696615c8c565b146127795760018360058111156126af576126af615c8c565b036126c8576126c388888888888787612e50565b612779565b60028360058111156126dc576126dc615c8c565b036126eb576126c3878761311a565b60038360058111156126ff576126ff615c8c565b03612711576126c38787878786613448565b600483600581111561272557612725615c8c565b03612737576126c3878787878661360c565b600583600581111561274b5761274b615c8c565b03612760576126c3878260a0015187876136ee565b6040516321e08b4d60e21b815260040160405180910390fd5b5050505050505050565b6000806127928361389c6138f0565b159392505050565b60008181526007602052604090206127b1826139df565b600c810180549060006127c383615880565b91905055506127d182613ba7565b600681015460ff166127f05760038101546001600160a01b03166127ff565b60028101546001600160a01b03165b60099190910180546001600160a01b0319166001600160a01b0390921691909117905550565b6000818152600760205260409020600281015460098201546001600160a01b0391821691160361289e57600381015460009061286b9084906001600160a01b0316613d35565b90508015610e765760038201546009830180546001600160a01b0319166001600160a01b03909216919091179055505050565b60028101546000906128ba9084906001600160a01b0316613d35565b90508015610e765760028201546009830180546001600160a01b0319166001600160a01b03909216919091179055505050565b6000818152600760205260408120600a810154600b82015461290f91906158af565b42119392505050565b6000818152600760205260409020600281015460098201546001600160a01b0391821691160361296057600281015461295b9083906001600160a01b0316613de0565b612979565b60038101546129799083906001600160a01b0316613de0565b61298282612783565b15612995576129908261279a565b61299e565b61299e82612825565b42600b9091015550565b6000838152600760205260408082206002549151634ce29c2760e11b8152600481018690529092916001600160a01b0316906399c5384e90602401600060405180830381865afa158015612a00573d6000803e3d6000fd5b505050506040513d6000823e601f3d908101601f19168201604052612a289190810190615ca2565b905060005b8151811015612a995760028301546001600160a01b0316600090815260158401602052604090208251612a7a9190849084908110612a6d57612a6d615899565b6020026020010151613e9d565b50612a9186838381518110610e9d57610e9d615899565b600101612a2d565b50600254604051634ce29c2760e11b8152600481018590526000916001600160a01b0316906399c5384e90602401600060405180830381865afa158015612ae4573d6000803e3d6000fd5b505050506040513d6000823e601f3d908101601f19168201604052612b0c9190810190615ca2565b905060005b81518110156120c45760038401546001600160a01b0316600090815260158501602052604090208251612b519190849084908110612a6d57612a6d615899565b50612b6887838381518110610e9d57610e9d615899565b600101612b11565b600083815260076020908152604080832060028101546001600160a01b031684526015810190925282209091612ba582612e3a565b905060005b81811015612be6576000612bbe8483612e44565b90506000612bcd836002615d37565b9050612bdc8983836000613ea9565b5050600101612baa565b5060038301546001600160a01b03166000908152601584016020526040812090612c0f82612e3a565b905060005b81811015612c70576000612c288483612e44565b90506000612c37836002615d37565b612c4360016014615c50565b612c4d9190615c50565b9050612c668b8383612c6160016028615c50565b613ea9565b5050600101612c14565b505050505050505050565b600082815260076020908152604080832060028101546001600160a01b0316845260158101909252909120612cb09083613f99565b5060038101546001600160a01b0316600090815260158201602052604090206122b89083613f99565b60008181526007602052604090206002810154612d009083906001600160a01b0316613fa5565b612d2657600381015460028201546106339184916001600160a01b0391821691166121ce565b6003810154612d3f9083906001600160a01b0316613fa5565b61063357600281015460038201546106339184916001600160a01b0391821691166121ce565b6000818152600183016020526040812054151561061a565b60008381526007602090815260408083206001600160a01b03861684526015810190925282209091612dae82612e3a565b905060005b818110156120c4576000612dc78483612e44565b6002546040516327ffe52160e01b815260048101899052602481018390529192506001600160a01b0316906327ffe52190604401600060405180830381600087803b158015612e1557600080fd5b505af1158015612e29573d6000803e3d6000fd5b505060019093019250612db3915050565b60006107fd825490565b600061061a8383614016565b6000612e5b836124b2565b90508160a001516001600160a01b03168160a001516001600160a01b031603612e97576040516321e08b4d60e21b815260040160405180910390fd5b604080518082018252600187810b825286810b602080840191909152600087815260138d0182528481208551808701909652805480850b875262010000900490930b918501919091529192909190612ef090849061257a565b60008a815260118d016020526040902080549192509060ff6201000090910481169083161115612f33576040516321e08b4d60e21b815260040160405180910390fd5b60018260ff16118015612fd85750600480548454604051638383c99560e01b81529283018e905260018c810b60248501528b810b604485015281810b606485015262010000909104900b60848301526001600160a01b031690638383c9959060a401602060405180830381865afa158015612fb2573d6000803e3d6000fd5b505050506040513d601f19601f82011682018060405250810190612fd691906158cd565b155b15612ff6576040516321e08b4d60e21b815260040160405180910390fd5b600087815260118d016020526040812080549091600160201b90910460ff169003613057578054600160401b900460ff1681600861303383615d4e565b91906101000a81548160ff021916908360ff160217905550505050505050506120c4565b8154815460ff6301000000909204821691600160381b909104166000606461307f8385615d6d565b6130899190615d8a565b6130969060ff8516615dbc565b8454909150600160201b900460ff1661ffff8216106130d157835464ff000000001916845560008b8152600a602052604090208e9055613108565b8354819085906004906130ef908490600160201b900460ff16615dd6565b92506101000a81548160ff021916908360ff1602179055505b50505050505050505050505050505050565b6000828152600760205260408120549003613148576040516309b3c62760e21b815260040160405180910390fd5b600082815260076020526040812090613160836124b2565b60025460048481015460405162b5e41160e51b815291820152602481018690529192506000916001600160a01b03909116906316bc822090604401602060405180830381865afa1580156131b8573d6000803e3d6000fd5b505050506040513d601f19601f820116820180604052508101906131dc91906158cd565b600254600585015460405162b5e41160e51b81529293506000926001600160a01b03909216916316bc82209161321f918990600401918252602082015260400190565b602060405180830381865afa15801561323c573d6000803e3d6000fd5b505050506040513d601f19601f8201168201806040525081019061326091906158cd565b90508115801561326e575080155b1561328c576040516303c113ad60e61b815260040160405180910390fd5b608083015160c00151156132b3576040516398586ca160e01b815260040160405180910390fd5b600085815260138501602090815260408083208054600181810b865260128a01855283862062010000909204810b8652908452828520859055600c89015485526014890184528285208a86529093529220805460ff191690911790558215613382576002546004868101546040516327ffe52160e01b815291820152602481018890526001600160a01b03909116906327ffe52190604401600060405180830381600087803b15801561336557600080fd5b505af1158015613379573d6000803e3d6000fd5b505050506133f3565b60025460058601546040516327ffe52160e01b81526001600160a01b03909216916327ffe521916133c0918a90600401918252602082015260400190565b600060405180830381600087803b1580156133da57600080fd5b505af11580156133ee573d6000803e3d6000fd5b505050505b60008681526011860160205260408120805468ffffffffffffffffff19168155906134216001830182614d45565b505060008681526013860160205260409020805463ffffffff191690556120bb8787612c7b565b6000858152600760205260408120549003613476576040516309b3c62760e21b815260040160405180910390fd5b60008581526007602052604081209061348e836124b2565b600154604051634025b22d60e01b8152600481018990529192506000916001600160a01b0390911690634025b22d90602401600060405180830381865afa1580156134dd573d6000803e3d6000fd5b505050506040513d6000823e601f3d908101601f191682016040526135059190810190615b1f565b90508060a001516001600160a01b03168260a001516001600160a01b031614613541576040516321e08b4d60e21b815260040160405180910390fd5b600084815260118401602052604090208054600160201b900460ff161561357b576040516321e08b4d60e21b815260040160405180910390fd5b600085815260138501602090815260408083208151808301835260018c810b82528b810b828601528351808501909452825480820b8552620100009004900b9383019390935292906135ce90839061257a565b90508060ff166001146135f4576040516321e08b4d60e21b815260040160405180910390fd5b6135fe8c8961311a565b505050505050505050505050565b6000613617826124b2565b600154604051634025b22d60e01b8152600481018890529192506000916001600160a01b0390911690634025b22d90602401600060405180830381865afa158015613666573d6000803e3d6000fd5b505050506040513d6000823e601f3d908101601f1916820160405261368e9190810190615b1f565b9050600081604001516060015160038111156136ac576136ac615c8c565b036136ca576040516321e08b4d60e21b815260040160405180910390fd5b6136d8878686868587614040565b6120c48787878787866040015160600151614139565b600084815260076020526040808220600480549251630349370d60e41b8152908101889052600186810b602483015285900b60448201529092916001600160a01b03169063349370d0906064016020604051808303816000875af115801561375a573d6000803e3d6000fd5b505050506040513d601f19601f8201168201806040525081019061377e9190615def565b905060ff81161561096f5760028201546001600160a01b03908116908616036137c3578060ff1682600f0160008282546137b891906158af565b909155506137f89050565b60038201546001600160a01b03908116908616036137f8578060ff168260100160008282546137f291906158af565b90915550505b81600e015482600f0154101580613817575081600e0154826010015410155b1561096f576000826010015483600f015410156138415760038301546001600160a01b0316613850565b60028301546001600160a01b03165b60028401549091506000906001600160a01b038084169116146138805760028401546001600160a01b031661388f565b60038401546001600160a01b03165b90506127798883836121ce565b60008281526007602052604081206138b484846141a9565b6138c25760009150506107fd565b600c810154600090815260149091016020908152604080832085845290915290205460ff1615905092915050565b600082815260076020908152604080832060028101546001600160a01b03908116855260158201909352818420600382015490931684529083209091908361393783612e3a565b905060005b8181101561397d5760006139508583612e44565b905061396089828a63ffffffff16565b1561397457600196505050505050506107fd565b5060010161393c565b50600061398983612e3a565b905060005b818110156139d05760006139a28583612e44565b90506139b28a828b63ffffffff16565b156139c75760019750505050505050506107fd565b5060010161398e565b50600098975050505050505050565b60008181526007602052604080822081516064808252610ca0820190935290929181602001602082028036833750505060028301546001600160a01b0316600090815260158401602052604081209192509081613a3b82612e3a565b905060005b81811015613ac1576000613a548483612e44565b9050613a5f816120cd565b8015613a87575060008181526011880160205260409020546003600160401b90910460ff1610155b15613ab85780868681518110613a9f57613a9f615899565b602090810291909101015284613ab481615880565b9550505b50600101613a40565b5060038501546001600160a01b03166000908152601586016020526040812090613aea82612e3a565b905060005b81811015613b70576000613b038483612e44565b9050613b0e816120cd565b8015613b365750600081815260118a0160205260409020546003600160401b90910460ff1610155b15613b675780888881518110613b4e57613b4e615899565b602090810291909101015286613b6381615880565b9750505b50600101613aef565b5060005b85811015612c7057613b9f89888381518110613b9257613b92615899565b6020026020010151611e50565b600101613b74565b600081815260076020908152604080832060028101546001600160a01b031684526015810190925282209091613bdc82612e3a565b905060005b81811015613c74576000613bf58483612e44565b9050613c00816120cd565b8015613c2457506000818152601186016020526040902054600160201b900460ff16155b15613c6b57600081815260118601602052604090208054600160401b900460ff16906008613c5183615d4e565b91906101000a81548160ff021916908360ff160217905550505b50600101613be1565b5060038301546001600160a01b03166000908152601584016020526040812090613c9d82612e3a565b905060005b818110156120c4576000613cb68483612e44565b9050613cc1816120cd565b8015613ce557506000818152601188016020526040902054600160201b900460ff16155b15613d2c57600081815260118801602052604090208054600160401b900460ff16906008613d1283615d4e565b91906101000a81548160ff021916908360ff160217905550505b50600101613ca2565b60008281526007602090815260408083206001600160a01b038516845260158101909252822082613d6582612e3a565b905060005b81811015613dd3576000613d7e8483612e44565b9050613d8a88826141a9565b8015613db75750600c8501546000908152601486016020908152604080832084845290915290205460ff16155b15613dca576001955050505050506107fd565b50600101613d6a565b5060009695505050505050565b60008281526007602090815260408083206001600160a01b03851684526015810190925282209091613e1182612e3a565b905060005b8181101561096f576000613e2a8483612e44565b9050613e3687826141a9565b8015613e635750600c8501546000908152601486016020908152604080832084845290915290205460ff16155b15613e9457600c850154600090815260148601602090815260408083208484529091529020805460ff191660011790555b50600101613e16565b600061061a8383614280565b60008481526007602052604090206014600184900b121580613ed057506028600183900b12155b15613eee5760405163673f032f60e11b815260040160405180910390fd5b600183810b600090815260128301602090815260408083209386900b8352929052205415613f2f57604051638243205760e01b815260040160405180910390fd5b600192830b600081815260128301602090815260408083209590960b8083529481528582208790558551808701875292835282810194855295815260139092019094529190912091518254915161ffff908116620100000263ffffffff1990931691161717905550565b600061061a83836142cf565b60008281526007602090815260408083206001600160a01b038516845260158101909252822082613fd582612e3a565b905060005b81811015613dd3576000613fee8483612e44565b9050613ffa88826141a9565b1561400d576001955050505050506107fd565b50600101613fda565b600082600001828154811061402d5761402d615899565b9060005260206000200154905092915050565b604082015160600151600281600381111561405d5761405d615c8c565b036140a1578260a001516001600160a01b03168260a001516001600160a01b03161461409c576040516321e08b4d60e21b815260040160405180910390fd5b614113565b60018160038111156140b5576140b5615c8c565b036140f4578260a001516001600160a01b03168260a001516001600160a01b03160361409c576040516321e08b4d60e21b815260040160405180910390fd5b600381600381111561410857614108615c8c565b03612760575061096f565b600381600381111561412757614127615c8c565b146120c4576120c487878787856143c2565b600281600381111561414d5761414d615c8c565b036141615761415c86836144d5565b61096f565b600181600381111561417557614175615c8c565b036141845761415c86836145e4565b600381600381111561419857614198615c8c565b036127605761415c868686866146c8565b6000828152600760205260408082206001549151634025b22d60e01b815260048101859052909183916001600160a01b0390911690634025b22d90602401600060405180830381865afa158015614204573d6000803e3d6000fd5b505050506040513d6000823e601f3d908101601f1916820160405261422c9190810190615b1f565b9050806080015160c00151600014614249576000925050506107fd565b6000848152601183016020526040812054600160201b900460ff169003614275576000925050506107fd565b506001949350505050565b60008181526001830160205260408120546142c7575081546001818101845560008481526020808220909301849055845484825282860190935260409020919091556107fd565b5060006107fd565b600081815260018301602052604081205480156143b85760006142f3600183615e0c565b855490915060009061430790600190615e0c565b905080821461436c57600086600001828154811061432757614327615899565b906000526020600020015490508087600001848154811061434a5761434a615899565b6000918252602080832090910192909255918252600188019052604090208390555b855486908061437d5761437d615e1f565b6001900381819060005260206000200160009055905585600101600086815260200190815260200160002060009055600193505050506107fd565b60009150506107fd565b60008581526007602090815260408083208584526013810183528184208251808401845260018a810b825289900b948101949094526003549251636759d30960e11b8152919490939290916001600160a01b039091169063ceb3a6129061442d908890600401615e35565b602060405180830381865afa15801561444a573d6000803e3d6000fd5b505050506040513d601f19601f8201168201806040525081019061446e9190615def565b604080518082019091528454600181810b835262010000909104900b60208201529091506000906144a090849061257a565b90508160ff168160ff1611156144c9576040516321e08b4d60e21b815260040160405180910390fd5b50505050505050505050565b6000828152600760209081526040808320848452601181019092528083206003549151633387d11760e11b81529293909290916001600160a01b03169063670fa22e9061452790600290600401615e35565b602060405180830381865afa158015614544573d6000803e3d6000fd5b505050506040513d601f19601f820116820180604052508101906145689190615def565b8254909150600090614585908390600160201b900460ff16615c73565b835490915060ff600160281b909104811690821611156145c3578254600160201b60ff600160281b8304160264ff000000001990911617835561096f565b825460ff8216600160201b0264ff0000000019909116178355505050505050565b6000828152600760209081526040808320848452601181019092528083206003549151633387d11760e11b81529293909290916001600160a01b03169063670fa22e9061463690600190600401615e35565b602060405180830381865afa158015614653573d6000803e3d6000fd5b505050506040513d601f19601f820116820180604052508101906146779190615def565b6000858152600a602052604090208590558254909150819083906008906146a9908490600160401b900460ff16615c73565b92506101000a81548160ff021916908360ff1602179055505050505050565b600084815260076020526040808220600380549251636759d30960e11b81529193926001600160a01b03169163ceb3a6129161470691600401615e35565b602060405180830381865afa158015614723573d6000803e3d6000fd5b505050506040513d601f19601f820116820180604052508101906147479190615def565b60038054604051633387d11760e11b81529293506000926001600160a01b039091169163670fa22e9161477d9190600401615e35565b602060405180830381865afa15801561479a573d6000803e3d6000fd5b505050506040513d601f19601f820116820180604052508101906147be9190615def565b60028401546001600160a01b0316600090815260158501602052604090209091506147f490889088908890889087908790614823565b60038301546001600160a01b0316600090815260158401602052604090206120c4908890889088908890879087905b60008781526007602052604081209061483b83612e3a565b60408051808201909152600189810b825288900b602082015290915060005b82811015614a2b57600061486e8683612e44565b600154604051634025b22d60e01b8152600481018390529192506000916001600160a01b0390911690634025b22d90602401600060405180830381865afa1580156148bd573d6000803e3d6000fd5b505050506040513d6000823e601f3d908101601f191682016040526148e59190810190615b1f565b9050806080015160c001516000146148fe575050614a23565b6000828152601187016020526040812054600160201b900460ff169003614926575050614a23565b6000828152601387016020908152604080832081518083019092528054600181810b845262010000909104900b9282019290925290919061496890879061257a565b90508a60ff168160ff161115801561498057508d8414155b15614a1e578d600a600086815260200190815260200160002081905550600088601101600086815260200190815260200160002090508060000160049054906101000a900460ff1660ff168b60ff16106149e557805464ff0000000019168155614a1c565b80548b908290600490614a03908490600160201b900460ff16615dd6565b92506101000a81548160ff021916908360ff1602179055505b505b505050505b60010161485a565b5050505050505050505050565b604080516101208101825260008082526020820181905291810182905260608082018390526080820183905260a0820183905260c0820183905260e082019290925261010081019190915290565b82805482825590600052602060002090601f01602090048101928215614b1c5791602002820160005b83821115614aed57835183826101000a81548160ff021916908360ff1602179055509260200192600101602081600001049283019260010302614aaf565b8015614b1a5782816101000a81549060ff0219169055600101602081600001049283019260010302614aed565b505b50614b28929150614d66565b5090565b604051806060016040528060008152602001614b616040518060400160405280600060010b8152602001600060010b81525090565b8152600060209091015290565b604080516102c08101825260006101a082018181526101c083018290526101e08301829052610200830182905261022083018290526102408301829052610260830182905261028083018290526102a083018290528252825160808101845281815260208082018390528185018390526060820183905280840191909152835180850185528281529081019190915290918201908152602001600081526020016000815260200160008152602001606081526020016060815260200160608152602001606081526020016060815260200160608152602001606081525090565b6040518060c001604052806060815260200160008152602001614c926040805160808101909152806000815260200160008152602001600081526020016000905290565b8152602001614cfc6040805160c080820183526000808352835191820184528082526020828101829052938201819052606082018190526080820181905260a082015290918201908152600060208201819052604082018190526060820181905260809091015290565b81526040805160e08101825260008082526020828101829052928201819052606082018190526080820181905260a0820181905260c08201529101908152600060209091015290565b50805460008255601f016020900490600052602060002090810190611e2091905b5b80821115614b285760008155600101614d67565b6001600160a01b0381168114611e2057600080fd5b60008060408385031215614da357600080fd5b8235614dae81614d7b565b946020939093013593505050565b600060208284031215614dce57600080fd5b813561061a81614d7b565b805182526020810151602083015260018060a01b03604082015116604083015260018060a01b0360608201511660608301526080810151608083015260a081015160a083015260c0810151614e3260c084018215159052565b5060e081015160e0830152610100810151610e766101008401826001600160a01b03169052565b600081518084526020840193506020830160005b82811015614e8b578151865260209586019590910190600101614e6d565b5093949350505050565b600081518084526020840193506020830160005b82811015614e8b57815160ff16865260209586019590910190600101614ea9565b805161ffff16825260006020820151614ee8602085018260ff169052565b506040820151614efd604085018260ff169052565b506060820151614f12606085018260ff169052565b506080820151614f27608085018260ff169052565b5060a0820151614f3c60a085018260ff169052565b5060c0820151614f5160c085018260ff169052565b5060e0820151614f6660e085018260ff169052565b50610100820151610120610100850152612176610120850182614e95565b600082825180855260208501945060208160051b8301016020850160005b83811015614fd457601f19858403018852614fbe838351614eca565b6020988901989093509190910190600101614fa2565b50909695505050505050565b600081518084526020840193506020830160005b82811015614e8b578151600081518852602082015161502960208a0182805160010b8252602081015160010b60208301525050565b5050604001511515606087015260809095019460209190910190600101614ff4565b615056828251614dd9565b60208181015180516001600160a01b031661012085015290810151610140840152604081015161016084015260608101516101808401526000905060408201518051600190810b6101a08601526020820151900b6101c08501525060608201516101e0840152608082015161020084015260a082015161022084015260c08201516103206102408501526150ee610320850182614e59565b905060e08301518482036102608601526151088282614f84565b9150506101008301518482036102808601526151248282614fe0565b9150506101208301518482036102a08601526151408282614e59565b9150506101408301518482036102c086015261515c8282614e59565b9150506101608301518482036102e08601526151788282614e59565b9150506101808301518482036103008601526126058282614e59565b6000602082016020835280845180835260408501915060408160051b86010192506020860160005b828110156151ed57603f198786030184526151d885835161504b565b945060209384019391909101906001016151bc565b50929695505050505050565b6000806040838503121561520c57600080fd5b50508035926020909101359150565b60006020828403121561522d57600080fd5b5035919050565b61024081016152438289614dd9565b86516001600160a01b031661012083015260208088015161014084015260408801516101608401526060909701516101808301528551600190810b6101a0840152959096015190940b6101c08501526101e084019290925261020083015261022090910152919050565b60208152600061061a6020830184614eca565b60208152600061061a6020830184614fe0565b600080600080600060a086880312156152eb57600080fd5b85356152f681614d7b565b9450602086013561530681614d7b565b9350604086013561531681614d7b565b9250606086013561532681614d7b565b9150608086013561533681614d7b565b809150509295509295909350565b634e487b7160e01b600052604160045260246000fd5b60405161012081016001600160401b038111828210171561537d5761537d615344565b60405290565b60405160c081016001600160401b038111828210171561537d5761537d615344565b60405160e081016001600160401b038111828210171561537d5761537d615344565b604051601f8201601f191681016001600160401b03811182821017156153ef576153ef615344565b604052919050565b60006001600160401b0382111561541057615410615344565b5060051b60200190565b600082601f83011261542b57600080fd5b813561543e615439826153f7565b6153c7565b8082825260208201915060208360051b86010192508583111561546057600080fd5b602085015b8381101561547d578035835260209283019201615465565b5095945050505050565b60006020828403121561549957600080fd5b81356001600160401b038111156154af57600080fd5b6121768482850161541a565b602080825282518282018190526000918401906040840190835b81811015610b675783518352602093840193909201916001016154d5565b8035600181900b811461550557600080fd5b919050565b6000806000806080858703121561552057600080fd5b8435935060208501359250615537604086016154f3565b9150615545606086016154f3565b905092959194509250565b6000806040838503121561556357600080fd5b8235915060208301356001600160401b0381111561558057600080fd5b61558c8582860161541a565b9150509250929050565b60208152600061061a602083018461504b565b60008060008060008060c087890312156155c257600080fd5b86359550602087013594506155d9604088016154f3565b93506155e7606088016154f3565b92506080870135600681106155fb57600080fd5b9598949750929591949360a090920135925050565b8015158114611e2057600080fd5b60008060008060008060008060006101208a8c03121561563d57600080fd5b8935985060208a013561564f81614d7b565b975060408a013561565f81614d7b565b965060608a0135955060808a0135945060a08a013561567d81615610565b989b979a5095989497939693955050505060c08201359160e0810135916101009091013590565b60ff81168114611e2057600080fd5b6000806000606084860312156156c857600080fd5b833592506020840135915060408401356156e1816156a4565b809150509250925092565b805161ffff8116811461550557600080fd5b8051615505816156a4565b600082601f83011261571a57600080fd5b8151615728615439826153f7565b8082825260208201915060208360051b86010192508583111561574a57600080fd5b602085015b8381101561547d578051615762816156a4565b83526020928301920161574f565b60006020828403121561578257600080fd5b81516001600160401b0381111561579857600080fd5b820161012081850312156157ab57600080fd5b6157b361535a565b6157bc826156ec565b81526157ca602083016156fe565b60208201526157db604083016156fe565b60408201526157ec606083016156fe565b60608201526157fd608083016156fe565b608082015261580e60a083016156fe565b60a082015261581f60c083016156fe565b60c082015261583060e083016156fe565b60e08201526101008201516001600160401b0381111561584f57600080fd5b61585b86828501615709565b61010083015250949350505050565b634e487b7160e01b600052601160045260246000fd5b6000600182016158925761589261586a565b5060010190565b634e487b7160e01b600052603260045260246000fd5b808201808211156107fd576107fd61586a565b805161550581615610565b6000602082840312156158df57600080fd5b815161061a81615610565b60048110611e2057600080fd5b60006080828403121561590957600080fd5b604051608081016001600160401b038111828210171561592b5761592b615344565b8060405250809150825161593e816158ea565b8152602083015161594e816158ea565b60208201526040830151615961816158ea565b60408201526060830151615974816158ea565b6060919091015292915050565b600081830361016081121561599557600080fd5b61599d615383565b83518152915060c0601f19820112156159b557600080fd5b506159be615383565b6159ca602084016156ec565b815260408301516159da816156a4565b602082015260608301516159ed816156a4565b60408201526159fe608084016156ec565b606082015260a0830151615a11816156a4565b608082015260c0830151615a24816156a4565b60a08201526020820152615a3a60e083016156fe565b6040820152615a4c61010083016156fe565b6060820152615a5e61012083016156fe565b6080820152615a7061014083016156fe565b60a082015292915050565b600060e08284031215615a8d57600080fd5b615a956153a5565b9050815163ffffffff81168114615aab57600080fd5b8152615ab9602083016156ec565b6020820152615aca604083016156ec565b6040820152615adb606083016158c2565b6060820152615aec608083016158c2565b6080820152615afd60a083016158c2565b60a082015260c09182015191810191909152919050565b805161550581614d7b565b600060208284031215615b3157600080fd5b81516001600160401b03811115615b4757600080fd5b82016103208185031215615b5a57600080fd5b615b62615383565b81516001600160401b03811115615b7857600080fd5b8201601f81018613615b8957600080fd5b80516001600160401b03811115615ba257615ba2615344565b615bb5601f8201601f19166020016153c7565b818152876020838501011115615bca57600080fd5b60005b82811015615be957602081850181015183830182015201615bcd565b50600060209282018301528352838101519083015250615c0c85604084016158f7565b6040820152615c1e8560c08401615981565b6060820152615c31856102208401615a7b565b6080820152615c436103008301615b14565b60a0820152949350505050565b600182810b9082900b03617fff198112617fff821317156107fd576107fd61586a565b60ff81811683821601908111156107fd576107fd61586a565b634e487b7160e01b600052602160045260246000fd5b600060208284031215615cb457600080fd5b81516001600160401b03811115615cca57600080fd5b8201601f81018413615cdb57600080fd5b8051615ce9615439826153f7565b8082825260208201915060208360051b850101925086831115615d0b57600080fd5b6020840193505b82841015615d2d578351825260209384019390910190615d12565b9695505050505050565b80820281158282048414176107fd576107fd61586a565b600060ff821660ff8103615d6457615d6461586a565b60010192915050565b61ffff8181168382160290811690818114610c8557610c8561586a565b600061ffff831680615dac57634e487b7160e01b600052601260045260246000fd5b8061ffff84160491505092915050565b61ffff82811682821603908111156107fd576107fd61586a565b60ff82811682821603908111156107fd576107fd61586a565b600060208284031215615e0157600080fd5b815161061a816156a4565b818103818111156107fd576107fd61586a565b634e487b7160e01b600052603160045260246000fd5b6020810160048310615e5757634e487b7160e01b600052602160045260246000fd5b9190529056fea2646970667358221220788034af96f5a565fe0cadfb8eb4432d13f5d85ea67fb4d6bda8023727fb5c8b64736f6c634300081c0033",
  "linkReferences": {},
  "deployedLinkReferences": {}
}