{
  "_format": "hh-sol-artifact-1",
  "contractName": "RenderWeapon",
  "sourceName": "contracts/Renderers/RenderWeapon.sol",
  "abi": [
    {
      "inputs": [
        {
          "internalType": "address[]",
          "name": "renderers",
          "type": "address[]"
        }
      ],
      "stateMutability": "nonpayable",
      "type": "constructor"
    },
    {
      "inputs": [
        {
          "components": [
            {
              "internalType": "string",
              "name": "name",
              "type": "string"
            },
            {
              "internalType": "uint256",
              "name": "id",
              "type": "uint256"
            },
            {
              "components": [
                {
                  "internalType": "enum MainWeapon",
                  "name": "mainWeapon",
                  "type": "uint8"
                },
                {
                  "internalType": "enum Armor",
                  "name": "armor",
                  "type": "uint8"
                },
                {
                  "internalType": "enum Shields",
                  "name": "shields",
                  "type": "uint8"
                },
                {
                  "internalType": "enum Special",
                  "name": "special",
                  "type": "uint8"
                }
              ],
              "internalType": "struct Equipment",
              "name": "equipment",
              "type": "tuple"
            },
            {
              "components": [
                {
                  "internalType": "uint256",
                  "name": "serialNumber",
                  "type": "uint256"
                },
                {
                  "internalType": "uint8",
                  "name": "r1",
                  "type": "uint8"
                },
                {
                  "internalType": "uint8",
                  "name": "g1",
                  "type": "uint8"
                },
                {
                  "internalType": "uint8",
                  "name": "b1",
                  "type": "uint8"
                },
                {
                  "internalType": "uint8",
                  "name": "r2",
                  "type": "uint8"
                },
                {
                  "internalType": "uint8",
                  "name": "g2",
                  "type": "uint8"
                },
                {
                  "internalType": "uint8",
                  "name": "b2",
                  "type": "uint8"
                },
                {
                  "internalType": "uint8",
                  "name": "variant",
                  "type": "uint8"
                },
                {
                  "internalType": "uint8",
                  "name": "accuracy",
                  "type": "uint8"
                },
                {
                  "internalType": "uint8",
                  "name": "hull",
                  "type": "uint8"
                },
                {
                  "internalType": "uint8",
                  "name": "speed",
                  "type": "uint8"
                }
              ],
              "internalType": "struct Traits",
              "name": "traits",
              "type": "tuple"
            },
            {
              "components": [
                {
                  "internalType": "uint256",
                  "name": "gameId",
                  "type": "uint256"
                },
                {
                  "components": [
                    {
                      "internalType": "uint8",
                      "name": "version",
                      "type": "uint8"
                    },
                    {
                      "internalType": "uint8",
                      "name": "range",
                      "type": "uint8"
                    },
                    {
                      "internalType": "uint8",
                      "name": "gunDamage",
                      "type": "uint8"
                    },
                    {
                      "internalType": "uint8",
                      "name": "hullPoints",
                      "type": "uint8"
                    },
                    {
                      "internalType": "uint8",
                      "name": "movement",
                      "type": "uint8"
                    },
                    {
                      "internalType": "uint8[]",
                      "name": "statusEffects",
                      "type": "uint8[]"
                    }
                  ],
                  "internalType": "struct Attributes",
                  "name": "attributes",
                  "type": "tuple"
                },
                {
                  "internalType": "uint8",
                  "name": "damageTaken",
                  "type": "uint8"
                },
                {
                  "internalType": "bool",
                  "name": "inLobby",
                  "type": "bool"
                },
                {
                  "internalType": "bool",
                  "name": "movedThisTurn",
                  "type": "bool"
                },
                {
                  "internalType": "bool",
                  "name": "firedThisTurn",
                  "type": "bool"
                }
              ],
              "internalType": "struct GameData",
              "name": "gameData",
              "type": "tuple"
            },
            {
              "internalType": "uint32",
              "name": "shipsDestroyed",
              "type": "uint32"
            },
            {
              "internalType": "uint16",
              "name": "costsVersion",
              "type": "uint16"
            },
            {
              "internalType": "uint16",
              "name": "cost",
              "type": "uint16"
            },
            {
              "internalType": "bool",
              "name": "shiny",
              "type": "bool"
            },
            {
              "internalType": "bool",
              "name": "constructed",
              "type": "bool"
            },
            {
              "internalType": "uint256",
              "name": "timestampDestroyed",
              "type": "uint256"
            },
            {
              "internalType": "address",
              "name": "owner",
              "type": "address"
            }
          ],
          "internalType": "struct Ship",
          "name": "ship",
          "type": "tuple"
        }
      ],
      "name": "render",
      "outputs": [
        {
          "internalType": "string",
          "name": "",
          "type": "string"
        }
      ],
      "stateMutability": "view",
      "type": "function"
    },
    {
      "inputs": [],
      "name": "renderWeapon1",
      "outputs": [
        {
          "internalType": "contract IReturnSVG",
          "name": "",
          "type": "address"
        }
      ],
      "stateMutability": "view",
      "type": "function"
    },
    {
      "inputs": [],
      "name": "renderWeapon2",
      "outputs": [
        {
          "internalType": "contract IReturnSVG",
          "name": "",
          "type": "address"
        }
      ],
      "stateMutability": "view",
      "type": "function"
    },
    {
      "inputs": [],
      "name": "renderWeapon3",
      "outputs": [
        {
          "internalType": "contract IReturnSVG",
          "name": "",
          "type": "address"
        }
      ],
      "stateMutability": "view",
      "type": "function"
    },
    {
      "inputs": [],
      "name": "renderWeapon4",
      "outputs": [
        {
          "internalType": "contract IReturnSVG",
          "name": "",
          "type": "address"
        }
      ],
      "stateMutability": "view",
      "type": "function"
    }
  ],
  "bytecode": "0x61010060405234801561001157600080fd5b50604051610d2a380380610d2a83398101604081905261003091610193565b80516004146100955760405162461bcd60e51b815260206004820152602760248201527f496e76616c69642072656e64657265727320617272617920696e2052656e6465604482015266392bb2b0b837b760c91b606482015260840160405180910390fd5b806000815181106100a8576100a8610262565b60200260200101516001600160a01b03166080816001600160a01b031681525050806001815181106100dc576100dc610262565b60200260200101516001600160a01b031660a0816001600160a01b0316815250508060028151811061011057610110610262565b60200260200101516001600160a01b031660c0816001600160a01b0316815250508060038151811061014457610144610262565b60209081029190910101516001600160a01b031660e05250610278565b634e487b7160e01b600052604160045260246000fd5b80516001600160a01b038116811461018e57600080fd5b919050565b6000602082840312156101a557600080fd5b81516001600160401b038111156101bb57600080fd5b8201601f810184136101cc57600080fd5b80516001600160401b038111156101e5576101e5610161565b604051600582901b90603f8201601f191681016001600160401b038111828210171561021357610213610161565b60405291825260208184018101929081018784111561023157600080fd5b6020850194505b838510156102575761024985610177565b815260209485019401610238565b509695505050505050565b634e487b7160e01b600052603260045260246000fd5b60805160a05160c05160e051610a606102ca60003960008181606101526102f901526000818160a5015261027d01526000818160ec015261020101526000818161011301526101570152610a606000f3fe608060405234801561001057600080fd5b50600436106100575760003560e01c8063319471a11461005c5780633da61edc146100a05780636610b059146100c757806372ba5179146100e7578063e06fc48d1461010e575b600080fd5b6100837f000000000000000000000000000000000000000000000000000000000000000081565b6040516001600160a01b0390911681526020015b60405180910390f35b6100837f000000000000000000000000000000000000000000000000000000000000000081565b6100da6100d5366004610802565b610135565b604051610097919061096b565b6100837f000000000000000000000000000000000000000000000000000000000000000081565b6100837f000000000000000000000000000000000000000000000000000000000000000081565b6060600060408301515160038111156101505761015061099e565b036101e1577f00000000000000000000000000000000000000000000000000000000000000006001600160a01b031663d607497a6040518163ffffffff1660e01b8152600401600060405180830381865afa1580156101b3573d6000803e3d6000fd5b505050506040513d6000823e601f3d908101601f191682016040526101db91908101906109b4565b92915050565b600160408301515160038111156101fa576101fa61099e565b0361025d577f00000000000000000000000000000000000000000000000000000000000000006001600160a01b031663d607497a6040518163ffffffff1660e01b8152600401600060405180830381865afa1580156101b3573d6000803e3d6000fd5b600260408301515160038111156102765761027661099e565b036102d9577f00000000000000000000000000000000000000000000000000000000000000006001600160a01b031663d607497a6040518163ffffffff1660e01b8152600401600060405180830381865afa1580156101b3573d6000803e3d6000fd5b600360408301515160038111156102f2576102f261099e565b03610355577f00000000000000000000000000000000000000000000000000000000000000006001600160a01b031663d607497a6040518163ffffffff1660e01b8152600401600060405180830381865afa1580156101b3573d6000803e3d6000fd5b505060408051602081019091526000815290565b634e487b7160e01b600052604160045260246000fd5b60405161016081016001600160401b03811182821017156103a2576103a2610369565b60405290565b60405160c081016001600160401b03811182821017156103a2576103a2610369565b60405161018081016001600160401b03811182821017156103a2576103a2610369565b604051601f8201601f191681016001600160401b038111828210171561041557610415610369565b604052919050565b60006001600160401b0382111561043657610436610369565b50601f01601f191660200190565b600082601f83011261045557600080fd5b81356104686104638261041d565b6103ed565b81815284602083860101111561047d57600080fd5b816020850160208301376000918101602001919091529392505050565b600481106104a757600080fd5b50565b6000608082840312156104bc57600080fd5b604051608081016001600160401b03811182821017156104de576104de610369565b60405290508082356104ef8161049a565b815260208301356104ff8161049a565b602082015260408301356105128161049a565b604082015260608301356105258161049a565b6060919091015292915050565b803560ff8116811461054357600080fd5b919050565b6000610160828403121561055b57600080fd5b61056361037f565b82358152905061057560208301610532565b602082015261058660408301610532565b604082015261059760608301610532565b60608201526105a860808301610532565b60808201526105b960a08301610532565b60a08201526105ca60c08301610532565b60c08201526105db60e08301610532565b60e08201526105ed6101008301610532565b6101008201526106006101208301610532565b6101208201526106136101408301610532565b61014082015292915050565b8035801515811461054357600080fd5b600060c0828403121561064157600080fd5b6106496103a8565b82358152905060208201356001600160401b0381111561066857600080fd5b820160c0818503121561067a57600080fd5b6106826103a8565b61068b82610532565b815261069960208301610532565b60208201526106aa60408301610532565b60408201526106bb60608301610532565b60608201526106cc60808301610532565b608082015260a08201356001600160401b038111156106ea57600080fd5b80830192505084601f8301126106ff57600080fd5b81356001600160401b0381111561071857610718610369565b8060051b610728602082016103ed565b9182526020818501810192908101908884111561074457600080fd5b6020860195505b8386101561076d5761075c86610532565b82526020958601959091019061074b565b60a085015250505060208301525061078760408301610532565b60408201526107986060830161061f565b60608201526107a96080830161061f565b60808201526107ba60a0830161061f565b60a082015292915050565b803563ffffffff8116811461054357600080fd5b803561ffff8116811461054357600080fd5b80356001600160a01b038116811461054357600080fd5b60006020828403121561081457600080fd5b81356001600160401b0381111561082a57600080fd5b8201610320818503121561083d57600080fd5b6108456103ca565b81356001600160401b0381111561085b57600080fd5b61086786828501610444565b8252506020828101359082015261088185604084016104aa565b60408201526108938560c08401610548565b60608201526102208201356001600160401b038111156108b257600080fd5b6108be8682850161062f565b6080830152506108d161024083016107c5565b60a08201526108e361026083016107d9565b60c08201526108f561028083016107d9565b60e08201526109076102a0830161061f565b61010082015261091a6102c0830161061f565b6101208201526102e082013561014082015261093961030083016107eb565b610160820152949350505050565b60005b8381101561096257818101518382015260200161094a565b50506000910152565b602081526000825180602084015261098a816040850160208701610947565b601f01601f19169190910160400192915050565b634e487b7160e01b600052602160045260246000fd5b6000602082840312156109c657600080fd5b81516001600160401b038111156109dc57600080fd5b8201601f810184136109ed57600080fd5b80516109fb6104638261041d565b818152856020838501011115610a1057600080fd5b610a21826020830160208601610947565b9594505050505056fea264697066735822122010b5994c0a828b01ddfc4079a35e066c113acae48b9209f6cda85bdf3bdb070e64736f6c634300081c0033",
  "linkReferences": {},
  "deployedLinkReferences": {}
}