{
  "_format": "hh-sol-artifact-1",
  "contractName": "Ships",
  "sourceName": "contracts/Ships.sol",
  "abi": [
    {
      "inputs": [
        {
          "internalType": "address",
          "name": "_renderer",
          "type": "address"
        }
      ],
      "stateMutability": "nonpayable",
      "type": "constructor"
    },
    {
      "inputs": [],
      "name": "ArrayLengthMismatch",
      "type": "error"
    },
    {
      "inputs": [
        {
          "internalType": "address",
          "name": "sender",
          "type": "address"
        },
        {
          "internalType": "uint256",
          "name": "tokenId",
          "type": "uint256"
        },
        {
          "internalType": "address",
          "name": "owner",
          "type": "address"
        }
      ],
      "name": "ERC721IncorrectOwner",
      "type": "error"
    },
    {
      "inputs": [
        {
          "internalType": "address",
          "name": "operator",
          "type": "address"
        },
        {
          "internalType": "uint256",
          "name": "tokenId",
          "type": "uint256"
        }
      ],
      "name": "ERC721InsufficientApproval",
      "type": "error"
    },
    {
      "inputs": [
        {
          "internalType": "address",
          "name": "approver",
          "type": "address"
        }
      ],
      "name": "ERC721InvalidApprover",
      "type": "error"
    },
    {
      "inputs": [
        {
          "internalType": "address",
          "name": "operator",
          "type": "address"
        }
      ],
      "name": "ERC721InvalidOperator",
      "type": "error"
    },
    {
      "inputs": [
        {
          "internalType": "address",
          "name": "owner",
          "type": "address"
        }
      ],
      "name": "ERC721InvalidOwner",
      "type": "error"
    },
    {
      "inputs": [
        {
          "internalType": "address",
          "name": "receiver",
          "type": "address"
        }
      ],
      "name": "ERC721InvalidReceiver",
      "type": "error"
    },
    {
      "inputs": [
        {
          "internalType": "address",
          "name": "sender",
          "type": "address"
        }
      ],
      "name": "ERC721InvalidSender",
      "type": "error"
    },
    {
      "inputs": [
        {
          "internalType": "uint256",
          "name": "tokenId",
          "type": "uint256"
        }
      ],
      "name": "ERC721NonexistentToken",
      "type": "error"
    },
    {
      "inputs": [],
      "name": "InvalidId",
      "type": "error"
    },
    {
      "inputs": [
        {
          "internalType": "uint256",
          "name": "_tier",
          "type": "uint256"
        },
        {
          "internalType": "uint256",
          "name": "_amount",
          "type": "uint256"
        }
      ],
      "name": "InvalidPurchase",
      "type": "error"
    },
    {
      "inputs": [],
      "name": "InvalidReferral",
      "type": "error"
    },
    {
      "inputs": [],
      "name": "InvalidRenderer",
      "type": "error"
    },
    {
      "inputs": [],
      "name": "MintPaused",
      "type": "error"
    },
    {
      "inputs": [
        {
          "internalType": "address",
          "name": "",
          "type": "address"
        }
      ],
      "name": "NotAllowedToTransfer",
      "type": "error"
    },
    {
      "inputs": [
        {
          "internalType": "address",
          "name": "",
          "type": "address"
        }
      ],
      "name": "NotAuthorized",
      "type": "error"
    },
    {
      "inputs": [
        {
          "internalType": "uint256",
          "name": "",
          "type": "uint256"
        }
      ],
      "name": "NotYourShip",
      "type": "error"
    },
    {
      "inputs": [],
      "name": "OldShipCost",
      "type": "error"
    },
    {
      "inputs": [
        {
          "internalType": "address",
          "name": "owner",
          "type": "address"
        }
      ],
      "name": "OwnableInvalidOwner",
      "type": "error"
    },
    {
      "inputs": [
        {
          "internalType": "address",
          "name": "account",
          "type": "address"
        }
      ],
      "name": "OwnableUnauthorizedAccount",
      "type": "error"
    },
    {
      "inputs": [],
      "name": "ReentrancyGuardReentrantCall",
      "type": "error"
    },
    {
      "inputs": [
        {
          "internalType": "uint256",
          "name": "",
          "type": "uint256"
        }
      ],
      "name": "ShipConstructed",
      "type": "error"
    },
    {
      "inputs": [],
      "name": "ShipDestroyed",
      "type": "error"
    },
    {
      "inputs": [
        {
          "internalType": "uint256",
          "name": "",
          "type": "uint256"
        }
      ],
      "name": "ShipInFleet",
      "type": "error"
    },
    {
      "inputs": [],
      "name": "ShipInGame",
      "type": "error"
    },
    {
      "inputs": [],
      "name": "ShipInLobby",
      "type": "error"
    },
    {
      "anonymous": false,
      "inputs": [
        {
          "indexed": true,
          "internalType": "address",
          "name": "owner",
          "type": "address"
        },
        {
          "indexed": true,
          "internalType": "address",
          "name": "approved",
          "type": "address"
        },
        {
          "indexed": true,
          "internalType": "uint256",
          "name": "tokenId",
          "type": "uint256"
        }
      ],
      "name": "Approval",
      "type": "event"
    },
    {
      "anonymous": false,
      "inputs": [
        {
          "indexed": true,
          "internalType": "address",
          "name": "owner",
          "type": "address"
        },
        {
          "indexed": true,
          "internalType": "address",
          "name": "operator",
          "type": "address"
        },
        {
          "indexed": false,
          "internalType": "bool",
          "name": "approved",
          "type": "bool"
        }
      ],
      "name": "ApprovalForAll",
      "type": "event"
    },
    {
      "anonymous": false,
      "inputs": [
        {
          "indexed": false,
          "internalType": "uint256",
          "name": "_tokenId",
          "type": "uint256"
        }
      ],
      "name": "MetadataUpdate",
      "type": "event"
    },
    {
      "anonymous": false,
      "inputs": [
        {
          "indexed": true,
          "internalType": "address",
          "name": "previousOwner",
          "type": "address"
        },
        {
          "indexed": true,
          "internalType": "address",
          "name": "newOwner",
          "type": "address"
        }
      ],
      "name": "OwnershipTransferred",
      "type": "event"
    },
    {
      "anonymous": false,
      "inputs": [
        {
          "indexed": true,
          "internalType": "address",
          "name": "from",
          "type": "address"
        },
        {
          "indexed": true,
          "internalType": "address",
          "name": "to",
          "type": "address"
        },
        {
          "indexed": true,
          "internalType": "uint256",
          "name": "tokenId",
          "type": "uint256"
        }
      ],
      "name": "Transfer",
      "type": "event"
    },
    {
      "inputs": [
        {
          "internalType": "address",
          "name": "",
          "type": "address"
        }
      ],
      "name": "allowedToTransfer",
      "outputs": [
        {
          "internalType": "bool",
          "name": "",
          "type": "bool"
        }
      ],
      "stateMutability": "view",
      "type": "function"
    },
    {
      "inputs": [
        {
          "internalType": "address",
          "name": "to",
          "type": "address"
        },
        {
          "internalType": "uint256",
          "name": "tokenId",
          "type": "uint256"
        }
      ],
      "name": "approve",
      "outputs": [],
      "stateMutability": "nonpayable",
      "type": "function"
    },
    {
      "inputs": [
        {
          "internalType": "address",
          "name": "owner",
          "type": "address"
        }
      ],
      "name": "balanceOf",
      "outputs": [
        {
          "internalType": "uint256",
          "name": "",
          "type": "uint256"
        }
      ],
      "stateMutability": "view",
      "type": "function"
    },
    {
      "inputs": [],
      "name": "config",
      "outputs": [
        {
          "internalType": "address",
          "name": "gameAddress",
          "type": "address"
        },
        {
          "internalType": "address",
          "name": "lobbyAddress",
          "type": "address"
        },
        {
          "internalType": "contract IRenderMetadata",
          "name": "metadataRenderer",
          "type": "address"
        },
        {
          "internalType": "contract IRandomManager",
          "name": "randomManager",
          "type": "address"
        },
        {
          "internalType": "contract IGenerateNewShip",
          "name": "shipGenerator",
          "type": "address"
        }
      ],
      "stateMutability": "view",
      "type": "function"
    },
    {
      "inputs": [],
      "name": "constructAllMyShips",
      "outputs": [],
      "stateMutability": "nonpayable",
      "type": "function"
    },
    {
      "inputs": [
        {
          "internalType": "uint256",
          "name": "_id",
          "type": "uint256"
        }
      ],
      "name": "constructShip",
      "outputs": [],
      "stateMutability": "nonpayable",
      "type": "function"
    },
    {
      "inputs": [
        {
          "internalType": "uint256[]",
          "name": "_ids",
          "type": "uint256[]"
        }
      ],
      "name": "constructShips",
      "outputs": [],
      "stateMutability": "nonpayable",
      "type": "function"
    },
    {
      "inputs": [
        {
          "internalType": "uint256",
          "name": "_id",
          "type": "uint256"
        },
        {
          "components": [
            {
              "internalType": "string",
              "name": "name",
              "type": "string"
            },
            {
              "internalType": "uint256",
              "name": "id",
              "type": "uint256"
            },
            {
              "components": [
                {
                  "internalType": "enum MainWeapon",
                  "name": "mainWeapon",
                  "type": "uint8"
                },
                {
                  "internalType": "enum Armor",
                  "name": "armor",
                  "type": "uint8"
                },
                {
                  "internalType": "enum Shields",
                  "name": "shields",
                  "type": "uint8"
                },
                {
                  "internalType": "enum Special",
                  "name": "special",
                  "type": "uint8"
                }
              ],
              "internalType": "struct Equipment",
              "name": "equipment",
              "type": "tuple"
            },
            {
              "components": [
                {
                  "internalType": "uint256",
                  "name": "serialNumber",
                  "type": "uint256"
                },
                {
                  "components": [
                    {
                      "internalType": "uint8",
                      "name": "h1",
                      "type": "uint8"
                    },
                    {
                      "internalType": "uint8",
                      "name": "s1",
                      "type": "uint8"
                    },
                    {
                      "internalType": "uint8",
                      "name": "l1",
                      "type": "uint8"
                    },
                    {
                      "internalType": "uint8",
                      "name": "h2",
                      "type": "uint8"
                    },
                    {
                      "internalType": "uint8",
                      "name": "s2",
                      "type": "uint8"
                    },
                    {
                      "internalType": "uint8",
                      "name": "l2",
                      "type": "uint8"
                    }
                  ],
                  "internalType": "struct Colors",
                  "name": "colors",
                  "type": "tuple"
                },
                {
                  "internalType": "uint8",
                  "name": "variant",
                  "type": "uint8"
                },
                {
                  "internalType": "uint8",
                  "name": "accuracy",
                  "type": "uint8"
                },
                {
                  "internalType": "uint8",
                  "name": "hull",
                  "type": "uint8"
                },
                {
                  "internalType": "uint8",
                  "name": "speed",
                  "type": "uint8"
                }
              ],
              "internalType": "struct Traits",
              "name": "traits",
              "type": "tuple"
            },
            {
              "components": [
                {
                  "internalType": "uint32",
                  "name": "shipsDestroyed",
                  "type": "uint32"
                },
                {
                  "internalType": "uint16",
                  "name": "costsVersion",
                  "type": "uint16"
                },
                {
                  "internalType": "uint16",
                  "name": "cost",
                  "type": "uint16"
                },
                {
                  "internalType": "bool",
                  "name": "shiny",
                  "type": "bool"
                },
                {
                  "internalType": "bool",
                  "name": "constructed",
                  "type": "bool"
                },
                {
                  "internalType": "bool",
                  "name": "inFleet",
                  "type": "bool"
                },
                {
                  "internalType": "uint256",
                  "name": "timestampDestroyed",
                  "type": "uint256"
                }
              ],
              "internalType": "struct ShipData",
              "name": "shipData",
              "type": "tuple"
            },
            {
              "internalType": "address",
              "name": "owner",
              "type": "address"
            }
          ],
          "internalType": "struct Ship",
          "name": "_ship",
          "type": "tuple"
        }
      ],
      "name": "constructSpecificShip",
      "outputs": [],
      "stateMutability": "nonpayable",
      "type": "function"
    },
    {
      "inputs": [],
      "name": "costs",
      "outputs": [
        {
          "internalType": "uint16",
          "name": "version",
          "type": "uint16"
        },
        {
          "internalType": "uint8",
          "name": "baseCost",
          "type": "uint8"
        }
      ],
      "stateMutability": "view",
      "type": "function"
    },
    {
      "inputs": [],
      "name": "costsVersion",
      "outputs": [
        {
          "internalType": "uint256",
          "name": "",
          "type": "uint256"
        }
      ],
      "stateMutability": "view",
      "type": "function"
    },
    {
      "inputs": [
        {
          "internalType": "uint256",
          "name": "num",
          "type": "uint256"
        }
      ],
      "name": "countDigits",
      "outputs": [
        {
          "internalType": "uint256",
          "name": "",
          "type": "uint256"
        }
      ],
      "stateMutability": "pure",
      "type": "function"
    },
    {
      "inputs": [
        {
          "internalType": "address",
          "name": "_to",
          "type": "address"
        },
        {
          "internalType": "uint256",
          "name": "_amount",
          "type": "uint256"
        }
      ],
      "name": "createShips",
      "outputs": [],
      "stateMutability": "nonpayable",
      "type": "function"
    },
    {
      "inputs": [
        {
          "internalType": "uint256",
          "name": "tokenId",
          "type": "uint256"
        }
      ],
      "name": "getApproved",
      "outputs": [
        {
          "internalType": "address",
          "name": "",
          "type": "address"
        }
      ],
      "stateMutability": "view",
      "type": "function"
    },
    {
      "inputs": [],
      "name": "getCosts",
      "outputs": [
        {
          "internalType": "uint256",
          "name": "",
          "type": "uint256"
        },
        {
          "components": [
            {
              "internalType": "uint16",
              "name": "version",
              "type": "uint16"
            },
            {
              "internalType": "uint8",
              "name": "baseCost",
              "type": "uint8"
            },
            {
              "internalType": "uint8[]",
              "name": "accuracy",
              "type": "uint8[]"
            },
            {
              "internalType": "uint8[]",
              "name": "hull",
              "type": "uint8[]"
            },
            {
              "internalType": "uint8[]",
              "name": "speed",
              "type": "uint8[]"
            },
            {
              "internalType": "uint8[]",
              "name": "mainWeapon",
              "type": "uint8[]"
            },
            {
              "internalType": "uint8[]",
              "name": "armor",
              "type": "uint8[]"
            },
            {
              "internalType": "uint8[]",
              "name": "shields",
              "type": "uint8[]"
            },
            {
              "internalType": "uint8[]",
              "name": "special",
              "type": "uint8[]"
            }
          ],
          "internalType": "struct Costs",
          "name": "",
          "type": "tuple"
        }
      ],
      "stateMutability": "view",
      "type": "function"
    },
    {
      "inputs": [],
      "name": "getPurchaseInfo",
      "outputs": [
        {
          "internalType": "uint8[]",
          "name": "_purchaseTiers",
          "type": "uint8[]"
        },
        {
          "internalType": "uint8[]",
          "name": "_tierShips",
          "type": "uint8[]"
        },
        {
          "internalType": "uint256[]",
          "name": "_tierPrices",
          "type": "uint256[]"
        }
      ],
      "stateMutability": "view",
      "type": "function"
    },
    {
      "inputs": [
        {
          "internalType": "uint256",
          "name": "_shipsDestroyed",
          "type": "uint256"
        }
      ],
      "name": "getRank",
      "outputs": [
        {
          "internalType": "uint8",
          "name": "",
          "type": "uint8"
        }
      ],
      "stateMutability": "pure",
      "type": "function"
    },
    {
      "inputs": [
        {
          "internalType": "uint256",
          "name": "_id",
          "type": "uint256"
        }
      ],
      "name": "getShip",
      "outputs": [
        {
          "components": [
            {
              "internalType": "string",
              "name": "name",
              "type": "string"
            },
            {
              "internalType": "uint256",
              "name": "id",
              "type": "uint256"
            },
            {
              "components": [
                {
                  "internalType": "enum MainWeapon",
                  "name": "mainWeapon",
                  "type": "uint8"
                },
                {
                  "internalType": "enum Armor",
                  "name": "armor",
                  "type": "uint8"
                },
                {
                  "internalType": "enum Shields",
                  "name": "shields",
                  "type": "uint8"
                },
                {
                  "internalType": "enum Special",
                  "name": "special",
                  "type": "uint8"
                }
              ],
              "internalType": "struct Equipment",
              "name": "equipment",
              "type": "tuple"
            },
            {
              "components": [
                {
                  "internalType": "uint256",
                  "name": "serialNumber",
                  "type": "uint256"
                },
                {
                  "components": [
                    {
                      "internalType": "uint8",
                      "name": "h1",
                      "type": "uint8"
                    },
                    {
                      "internalType": "uint8",
                      "name": "s1",
                      "type": "uint8"
                    },
                    {
                      "internalType": "uint8",
                      "name": "l1",
                      "type": "uint8"
                    },
                    {
                      "internalType": "uint8",
                      "name": "h2",
                      "type": "uint8"
                    },
                    {
                      "internalType": "uint8",
                      "name": "s2",
                      "type": "uint8"
                    },
                    {
                      "internalType": "uint8",
                      "name": "l2",
                      "type": "uint8"
                    }
                  ],
                  "internalType": "struct Colors",
                  "name": "colors",
                  "type": "tuple"
                },
                {
                  "internalType": "uint8",
                  "name": "variant",
                  "type": "uint8"
                },
                {
                  "internalType": "uint8",
                  "name": "accuracy",
                  "type": "uint8"
                },
                {
                  "internalType": "uint8",
                  "name": "hull",
                  "type": "uint8"
                },
                {
                  "internalType": "uint8",
                  "name": "speed",
                  "type": "uint8"
                }
              ],
              "internalType": "struct Traits",
              "name": "traits",
              "type": "tuple"
            },
            {
              "components": [
                {
                  "internalType": "uint32",
                  "name": "shipsDestroyed",
                  "type": "uint32"
                },
                {
                  "internalType": "uint16",
                  "name": "costsVersion",
                  "type": "uint16"
                },
                {
                  "internalType": "uint16",
                  "name": "cost",
                  "type": "uint16"
                },
                {
                  "internalType": "bool",
                  "name": "shiny",
                  "type": "bool"
                },
                {
                  "internalType": "bool",
                  "name": "constructed",
                  "type": "bool"
                },
                {
                  "internalType": "bool",
                  "name": "inFleet",
                  "type": "bool"
                },
                {
                  "internalType": "uint256",
                  "name": "timestampDestroyed",
                  "type": "uint256"
                }
              ],
              "internalType": "struct ShipData",
              "name": "shipData",
              "type": "tuple"
            },
            {
              "internalType": "address",
              "name": "owner",
              "type": "address"
            }
          ],
          "internalType": "struct Ship",
          "name": "",
          "type": "tuple"
        }
      ],
      "stateMutability": "view",
      "type": "function"
    },
    {
      "inputs": [
        {
          "internalType": "address",
          "name": "_owner",
          "type": "address"
        }
      ],
      "name": "getShipIdsOwned",
      "outputs": [
        {
          "internalType": "uint256[]",
          "name": "",
          "type": "uint256[]"
        }
      ],
      "stateMutability": "view",
      "type": "function"
    },
    {
      "inputs": [
        {
          "internalType": "uint256[]",
          "name": "_ids",
          "type": "uint256[]"
        }
      ],
      "name": "getShipsByIds",
      "outputs": [
        {
          "components": [
            {
              "internalType": "string",
              "name": "name",
              "type": "string"
            },
            {
              "internalType": "uint256",
              "name": "id",
              "type": "uint256"
            },
            {
              "components": [
                {
                  "internalType": "enum MainWeapon",
                  "name": "mainWeapon",
                  "type": "uint8"
                },
                {
                  "internalType": "enum Armor",
                  "name": "armor",
                  "type": "uint8"
                },
                {
                  "internalType": "enum Shields",
                  "name": "shields",
                  "type": "uint8"
                },
                {
                  "internalType": "enum Special",
                  "name": "special",
                  "type": "uint8"
                }
              ],
              "internalType": "struct Equipment",
              "name": "equipment",
              "type": "tuple"
            },
            {
              "components": [
                {
                  "internalType": "uint256",
                  "name": "serialNumber",
                  "type": "uint256"
                },
                {
                  "components": [
                    {
                      "internalType": "uint8",
                      "name": "h1",
                      "type": "uint8"
                    },
                    {
                      "internalType": "uint8",
                      "name": "s1",
                      "type": "uint8"
                    },
                    {
                      "internalType": "uint8",
                      "name": "l1",
                      "type": "uint8"
                    },
                    {
                      "internalType": "uint8",
                      "name": "h2",
                      "type": "uint8"
                    },
                    {
                      "internalType": "uint8",
                      "name": "s2",
                      "type": "uint8"
                    },
                    {
                      "internalType": "uint8",
                      "name": "l2",
                      "type": "uint8"
                    }
                  ],
                  "internalType": "struct Colors",
                  "name": "colors",
                  "type": "tuple"
                },
                {
                  "internalType": "uint8",
                  "name": "variant",
                  "type": "uint8"
                },
                {
                  "internalType": "uint8",
                  "name": "accuracy",
                  "type": "uint8"
                },
                {
                  "internalType": "uint8",
                  "name": "hull",
                  "type": "uint8"
                },
                {
                  "internalType": "uint8",
                  "name": "speed",
                  "type": "uint8"
                }
              ],
              "internalType": "struct Traits",
              "name": "traits",
              "type": "tuple"
            },
            {
              "components": [
                {
                  "internalType": "uint32",
                  "name": "shipsDestroyed",
                  "type": "uint32"
                },
                {
                  "internalType": "uint16",
                  "name": "costsVersion",
                  "type": "uint16"
                },
                {
                  "internalType": "uint16",
                  "name": "cost",
                  "type": "uint16"
                },
                {
                  "internalType": "bool",
                  "name": "shiny",
                  "type": "bool"
                },
                {
                  "internalType": "bool",
                  "name": "constructed",
                  "type": "bool"
                },
                {
                  "internalType": "bool",
                  "name": "inFleet",
                  "type": "bool"
                },
                {
                  "internalType": "uint256",
                  "name": "timestampDestroyed",
                  "type": "uint256"
                }
              ],
              "internalType": "struct ShipData",
              "name": "shipData",
              "type": "tuple"
            },
            {
              "internalType": "address",
              "name": "owner",
              "type": "address"
            }
          ],
          "internalType": "struct Ship[]",
          "name": "",
          "type": "tuple[]"
        }
      ],
      "stateMutability": "view",
      "type": "function"
    },
    {
      "inputs": [
        {
          "internalType": "uint256",
          "name": "_trait",
          "type": "uint256"
        }
      ],
      "name": "getTierOfTrait",
      "outputs": [
        {
          "internalType": "uint8",
          "name": "",
          "type": "uint8"
        }
      ],
      "stateMutability": "pure",
      "type": "function"
    },
    {
      "inputs": [
        {
          "internalType": "address",
          "name": "",
          "type": "address"
        }
      ],
      "name": "isAllowedToCreateShips",
      "outputs": [
        {
          "internalType": "bool",
          "name": "",
          "type": "bool"
        }
      ],
      "stateMutability": "view",
      "type": "function"
    },
    {
      "inputs": [
        {
          "internalType": "address",
          "name": "owner",
          "type": "address"
        },
        {
          "internalType": "address",
          "name": "operator",
          "type": "address"
        }
      ],
      "name": "isApprovedForAll",
      "outputs": [
        {
          "internalType": "bool",
          "name": "",
          "type": "bool"
        }
      ],
      "stateMutability": "view",
      "type": "function"
    },
    {
      "inputs": [],
      "name": "name",
      "outputs": [
        {
          "internalType": "string",
          "name": "",
          "type": "string"
        }
      ],
      "stateMutability": "view",
      "type": "function"
    },
    {
      "inputs": [
        {
          "internalType": "address",
          "name": "",
          "type": "address"
        }
      ],
      "name": "onboardingStep",
      "outputs": [
        {
          "internalType": "uint256",
          "name": "",
          "type": "uint256"
        }
      ],
      "stateMutability": "view",
      "type": "function"
    },
    {
      "inputs": [],
      "name": "owner",
      "outputs": [
        {
          "internalType": "address",
          "name": "",
          "type": "address"
        }
      ],
      "stateMutability": "view",
      "type": "function"
    },
    {
      "inputs": [
        {
          "internalType": "uint256",
          "name": "tokenId",
          "type": "uint256"
        }
      ],
      "name": "ownerOf",
      "outputs": [
        {
          "internalType": "address",
          "name": "",
          "type": "address"
        }
      ],
      "stateMutability": "view",
      "type": "function"
    },
    {
      "inputs": [],
      "name": "paused",
      "outputs": [
        {
          "internalType": "bool",
          "name": "",
          "type": "bool"
        }
      ],
      "stateMutability": "view",
      "type": "function"
    },
    {
      "inputs": [
        {
          "internalType": "uint256",
          "name": "",
          "type": "uint256"
        }
      ],
      "name": "purchaseTiers",
      "outputs": [
        {
          "internalType": "uint8",
          "name": "",
          "type": "uint8"
        }
      ],
      "stateMutability": "view",
      "type": "function"
    },
    {
      "inputs": [
        {
          "internalType": "address",
          "name": "_to",
          "type": "address"
        },
        {
          "internalType": "uint256",
          "name": "_tier",
          "type": "uint256"
        },
        {
          "internalType": "address",
          "name": "_referral",
          "type": "address"
        }
      ],
      "name": "purchaseWithFlow",
      "outputs": [],
      "stateMutability": "payable",
      "type": "function"
    },
    {
      "inputs": [
        {
          "internalType": "address",
          "name": "",
          "type": "address"
        }
      ],
      "name": "referralCount",
      "outputs": [
        {
          "internalType": "uint256",
          "name": "",
          "type": "uint256"
        }
      ],
      "stateMutability": "view",
      "type": "function"
    },
    {
      "inputs": [
        {
          "internalType": "uint256",
          "name": "",
          "type": "uint256"
        }
      ],
      "name": "referralPercentages",
      "outputs": [
        {
          "internalType": "uint8",
          "name": "",
          "type": "uint8"
        }
      ],
      "stateMutability": "view",
      "type": "function"
    },
    {
      "inputs": [
        {
          "internalType": "uint256",
          "name": "",
          "type": "uint256"
        }
      ],
      "name": "referralStages",
      "outputs": [
        {
          "internalType": "uint32",
          "name": "",
          "type": "uint32"
        }
      ],
      "stateMutability": "view",
      "type": "function"
    },
    {
      "inputs": [],
      "name": "renounceOwnership",
      "outputs": [],
      "stateMutability": "nonpayable",
      "type": "function"
    },
    {
      "inputs": [
        {
          "internalType": "address",
          "name": "from",
          "type": "address"
        },
        {
          "internalType": "address",
          "name": "to",
          "type": "address"
        },
        {
          "internalType": "uint256",
          "name": "tokenId",
          "type": "uint256"
        }
      ],
      "name": "safeTransferFrom",
      "outputs": [],
      "stateMutability": "nonpayable",
      "type": "function"
    },
    {
      "inputs": [
        {
          "internalType": "address",
          "name": "from",
          "type": "address"
        },
        {
          "internalType": "address",
          "name": "to",
          "type": "address"
        },
        {
          "internalType": "uint256",
          "name": "tokenId",
          "type": "uint256"
        },
        {
          "internalType": "bytes",
          "name": "data",
          "type": "bytes"
        }
      ],
      "name": "safeTransferFrom",
      "outputs": [],
      "stateMutability": "nonpayable",
      "type": "function"
    },
    {
      "inputs": [
        {
          "internalType": "address",
          "name": "operator",
          "type": "address"
        },
        {
          "internalType": "bool",
          "name": "approved",
          "type": "bool"
        }
      ],
      "name": "setApprovalForAll",
      "outputs": [],
      "stateMutability": "nonpayable",
      "type": "function"
    },
    {
      "inputs": [
        {
          "internalType": "address",
          "name": "_gameAddress",
          "type": "address"
        },
        {
          "internalType": "address",
          "name": "_lobbyAddress",
          "type": "address"
        },
        {
          "internalType": "address",
          "name": "_shipGenerator",
          "type": "address"
        },
        {
          "internalType": "address",
          "name": "_randomManager",
          "type": "address"
        },
        {
          "internalType": "address",
          "name": "_metadataRenderer",
          "type": "address"
        }
      ],
      "name": "setConfig",
      "outputs": [],
      "stateMutability": "nonpayable",
      "type": "function"
    },
    {
      "inputs": [
        {
          "internalType": "uint256",
          "name": "_id",
          "type": "uint256"
        }
      ],
      "name": "setCostOfShip",
      "outputs": [],
      "stateMutability": "nonpayable",
      "type": "function"
    },
    {
      "inputs": [
        {
          "components": [
            {
              "internalType": "uint16",
              "name": "version",
              "type": "uint16"
            },
            {
              "internalType": "uint8",
              "name": "baseCost",
              "type": "uint8"
            },
            {
              "internalType": "uint8[]",
              "name": "accuracy",
              "type": "uint8[]"
            },
            {
              "internalType": "uint8[]",
              "name": "hull",
              "type": "uint8[]"
            },
            {
              "internalType": "uint8[]",
              "name": "speed",
              "type": "uint8[]"
            },
            {
              "internalType": "uint8[]",
              "name": "mainWeapon",
              "type": "uint8[]"
            },
            {
              "internalType": "uint8[]",
              "name": "armor",
              "type": "uint8[]"
            },
            {
              "internalType": "uint8[]",
              "name": "shields",
              "type": "uint8[]"
            },
            {
              "internalType": "uint8[]",
              "name": "special",
              "type": "uint8[]"
            }
          ],
          "internalType": "struct Costs",
          "name": "_costs",
          "type": "tuple"
        }
      ],
      "name": "setCosts",
      "outputs": [],
      "stateMutability": "nonpayable",
      "type": "function"
    },
    {
      "inputs": [
        {
          "internalType": "uint256",
          "name": "_id",
          "type": "uint256"
        },
        {
          "internalType": "bool",
          "name": "_inFleet",
          "type": "bool"
        }
      ],
      "name": "setInFleet",
      "outputs": [],
      "stateMutability": "nonpayable",
      "type": "function"
    },
    {
      "inputs": [
        {
          "internalType": "address",
          "name": "_address",
          "type": "address"
        },
        {
          "internalType": "bool",
          "name": "_isAllowed",
          "type": "bool"
        }
      ],
      "name": "setIsAllowedToCreateShips",
      "outputs": [],
      "stateMutability": "nonpayable",
      "type": "function"
    },
    {
      "inputs": [
        {
          "internalType": "uint8",
          "name": "_numberOfVariants",
          "type": "uint8"
        }
      ],
      "name": "setNumberOfVariants",
      "outputs": [],
      "stateMutability": "nonpayable",
      "type": "function"
    },
    {
      "inputs": [
        {
          "internalType": "bool",
          "name": "_paused",
          "type": "bool"
        }
      ],
      "name": "setPaused",
      "outputs": [],
      "stateMutability": "nonpayable",
      "type": "function"
    },
    {
      "inputs": [
        {
          "internalType": "uint8[]",
          "name": "_purchaseTiers",
          "type": "uint8[]"
        },
        {
          "internalType": "uint8[]",
          "name": "_tierShips",
          "type": "uint8[]"
        },
        {
          "internalType": "uint256[]",
          "name": "_tierPrices",
          "type": "uint256[]"
        }
      ],
      "name": "setPurchaseInfo",
      "outputs": [],
      "stateMutability": "nonpayable",
      "type": "function"
    },
    {
      "inputs": [
        {
          "internalType": "uint256",
          "name": "_id",
          "type": "uint256"
        }
      ],
      "name": "setTimestampDestroyed",
      "outputs": [],
      "stateMutability": "nonpayable",
      "type": "function"
    },
    {
      "inputs": [],
      "name": "shipCount",
      "outputs": [
        {
          "internalType": "uint256",
          "name": "",
          "type": "uint256"
        }
      ],
      "stateMutability": "view",
      "type": "function"
    },
    {
      "inputs": [
        {
          "internalType": "uint256",
          "name": "",
          "type": "uint256"
        }
      ],
      "name": "ships",
      "outputs": [
        {
          "internalType": "string",
          "name": "name",
          "type": "string"
        },
        {
          "internalType": "uint256",
          "name": "id",
          "type": "uint256"
        },
        {
          "components": [
            {
              "internalType": "enum MainWeapon",
              "name": "mainWeapon",
              "type": "uint8"
            },
            {
              "internalType": "enum Armor",
              "name": "armor",
              "type": "uint8"
            },
            {
              "internalType": "enum Shields",
              "name": "shields",
              "type": "uint8"
            },
            {
              "internalType": "enum Special",
              "name": "special",
              "type": "uint8"
            }
          ],
          "internalType": "struct Equipment",
          "name": "equipment",
          "type": "tuple"
        },
        {
          "components": [
            {
              "internalType": "uint256",
              "name": "serialNumber",
              "type": "uint256"
            },
            {
              "components": [
                {
                  "internalType": "uint8",
                  "name": "h1",
                  "type": "uint8"
                },
                {
                  "internalType": "uint8",
                  "name": "s1",
                  "type": "uint8"
                },
                {
                  "internalType": "uint8",
                  "name": "l1",
                  "type": "uint8"
                },
                {
                  "internalType": "uint8",
                  "name": "h2",
                  "type": "uint8"
                },
                {
                  "internalType": "uint8",
                  "name": "s2",
                  "type": "uint8"
                },
                {
                  "internalType": "uint8",
                  "name": "l2",
                  "type": "uint8"
                }
              ],
              "internalType": "struct Colors",
              "name": "colors",
              "type": "tuple"
            },
            {
              "internalType": "uint8",
              "name": "variant",
              "type": "uint8"
            },
            {
              "internalType": "uint8",
              "name": "accuracy",
              "type": "uint8"
            },
            {
              "internalType": "uint8",
              "name": "hull",
              "type": "uint8"
            },
            {
              "internalType": "uint8",
              "name": "speed",
              "type": "uint8"
            }
          ],
          "internalType": "struct Traits",
          "name": "traits",
          "type": "tuple"
        },
        {
          "components": [
            {
              "internalType": "uint32",
              "name": "shipsDestroyed",
              "type": "uint32"
            },
            {
              "internalType": "uint16",
              "name": "costsVersion",
              "type": "uint16"
            },
            {
              "internalType": "uint16",
              "name": "cost",
              "type": "uint16"
            },
            {
              "internalType": "bool",
              "name": "shiny",
              "type": "bool"
            },
            {
              "internalType": "bool",
              "name": "constructed",
              "type": "bool"
            },
            {
              "internalType": "bool",
              "name": "inFleet",
              "type": "bool"
            },
            {
              "internalType": "uint256",
              "name": "timestampDestroyed",
              "type": "uint256"
            }
          ],
          "internalType": "struct ShipData",
          "name": "shipData",
          "type": "tuple"
        },
        {
          "internalType": "address",
          "name": "owner",
          "type": "address"
        }
      ],
      "stateMutability": "view",
      "type": "function"
    },
    {
      "inputs": [
        {
          "internalType": "bytes4",
          "name": "interfaceId",
          "type": "bytes4"
        }
      ],
      "name": "supportsInterface",
      "outputs": [
        {
          "internalType": "bool",
          "name": "",
          "type": "bool"
        }
      ],
      "stateMutability": "view",
      "type": "function"
    },
    {
      "inputs": [],
      "name": "symbol",
      "outputs": [
        {
          "internalType": "string",
          "name": "",
          "type": "string"
        }
      ],
      "stateMutability": "view",
      "type": "function"
    },
    {
      "inputs": [
        {
          "internalType": "uint256",
          "name": "",
          "type": "uint256"
        }
      ],
      "name": "tierPrices",
      "outputs": [
        {
          "internalType": "uint256",
          "name": "",
          "type": "uint256"
        }
      ],
      "stateMutability": "view",
      "type": "function"
    },
    {
      "inputs": [
        {
          "internalType": "uint256",
          "name": "",
          "type": "uint256"
        }
      ],
      "name": "tierShips",
      "outputs": [
        {
          "internalType": "uint8",
          "name": "",
          "type": "uint8"
        }
      ],
      "stateMutability": "view",
      "type": "function"
    },
    {
      "inputs": [
        {
          "internalType": "uint256",
          "name": "_id",
          "type": "uint256"
        }
      ],
      "name": "tokenURI",
      "outputs": [
        {
          "internalType": "string",
          "name": "",
          "type": "string"
        }
      ],
      "stateMutability": "view",
      "type": "function"
    },
    {
      "inputs": [
        {
          "internalType": "address",
          "name": "from",
          "type": "address"
        },
        {
          "internalType": "address",
          "name": "to",
          "type": "address"
        },
        {
          "internalType": "uint256",
          "name": "tokenId",
          "type": "uint256"
        }
      ],
      "name": "transferFrom",
      "outputs": [],
      "stateMutability": "nonpayable",
      "type": "function"
    },
    {
      "inputs": [
        {
          "internalType": "address",
          "name": "newOwner",
          "type": "address"
        }
      ],
      "name": "transferOwnership",
      "outputs": [],
      "stateMutability": "nonpayable",
      "type": "function"
    },
    {
      "inputs": [],
      "name": "withdraw",
      "outputs": [],
      "stateMutability": "nonpayable",
      "type": "function"
    }
  ],
  "bytecode": "0x61012060405260006080908152600a60a052601460c052602360e05260326101005261002f90600e9060056103fa565b506040805160a081018252606481526103e860208201526127109181019190915261c3506060820152620186a0608082015261006f90600f9060056104a0565b506021805462ffff00191661010017905534801561008c57600080fd5b50604051615eda380380615eda8339810160408190526100ab91610597565b336040518060400160405280600e81526020016d57617270666c6f7720536869707360901b815250604051806040016040528060048152602001630534849560e41b81525081600090816100ff9190610666565b50600161010c8282610666565b5050506001600160a01b03811661013d57604051631e4fbdf760e01b81526000600482015260240160405180910390fd5b610146816103a8565b506001600755601280546001600160a01b0319166001600160a01b0383161790556018805462ffffff1916623200011790556040805160608101825260008152600a602082015260199181018290526101a1919060036103fa565b506040805160608101825260008152600a60208201526019918101919091526101ce90601a9060036103fa565b506040805160608101825260008152600a60208201526019918101919091526101fb90601b9060036103fa565b506040805160808101825260198152601e60208201526028918101829052606081019190915261022f90601c9060046103fa565b50604080516080810182526000815260056020820152600a91810191909152600f606082015261026390601d9060046103fa565b506040805160808101825260008152600a6020820152601491810191909152601e606082018190526102969160046103fa565b506040805160808101825260008152600a6020820152601491810191909152600f60608201526102ca90601f9060046103fa565b506040805160a081018252600181526002602082015260039181019190915260046060820152600560808201819052610305916015916103fa565b506040805160a0810182526005808252600b6020830152601c92820192909252603c6060820152607d608082015261034091601691906103fa565b506040805160a0810182526745400a8fd53300008152678aa39c121a270000602082015268015ace5098e9030000918101919091526802b5c0282441c70000606082015268056ba3d73af34f000060808201526103a190601790600561053c565b5050610724565b600680546001600160a01b038381166001600160a01b0319831681179093556040519116919082907f8be0079c531659141344cd1fd0a4f28419497f9722a3daafe3b4186f6b6457e090600090a35050565b82805482825590600052602060002090601f016020900481019282156104905791602002820160005b8382111561046157835183826101000a81548160ff021916908360ff1602179055509260200192600101602081600001049283019260010302610423565b801561048e5782816101000a81549060ff0219169055600101602081600001049283019260010302610461565b505b5061049c929150610582565b5090565b828054828255906000526020600020906007016008900481019282156104905791602002820160005b8382111561050c57835183826101000a81548163ffffffff021916908362ffffff16021790555092602001926004016020816003010492830192600103026104c9565b801561048e5782816101000a81549063ffffffff021916905560040160208160030104928301926001030261050c565b828054828255906000526020600020908101928215610490579160200282015b8281111561049057825182906001600160481b031690559160200191906001019061055c565b5b8082111561049c5760008155600101610583565b6000602082840312156105a957600080fd5b81516001600160a01b03811681146105c057600080fd5b9392505050565b634e487b7160e01b600052604160045260246000fd5b600181811c908216806105f157607f821691505b60208210810361061157634e487b7160e01b600052602260045260246000fd5b50919050565b601f82111561066157806000526020600020601f840160051c8101602085101561063e5750805b601f840160051c820191505b8181101561065e576000815560010161064a565b50505b505050565b81516001600160401b0381111561067f5761067f6105c7565b6106938161068d84546105dd565b84610617565b6020601f8211600181146106c757600083156106af5750848201515b600019600385901b1c1916600184901b17845561065e565b600084815260208120601f198516915b828110156106f757878501518255602094850194600190920191016106d7565b50848210156107155786840151600019600387901b60f8161c191681555b50505050600190811b01905550565b6157a7806107336000396000f3fe6080604052600436106103505760003560e01c80636e0f7a48116101c6578063a22cb465116100f7578063cfca9a7f11610095578063e653ca7f1161006f578063e653ca7f14610aa8578063e985e9c514610ac8578063f25a034214610ae8578063f2fde38b14610b1557600080fd5b8063cfca9a7f14610a26578063db74559b14610a5b578063dd81d5bf14610a8857600080fd5b8063b662abf5116100d1578063b662abf514610996578063b88d4fde146109b6578063c51544c5146109d6578063c87b56dd14610a0657600080fd5b8063a22cb46514610940578063a5099bae14610960578063b4e847a01461098057600080fd5b80637d9e9d30116101645780638c79d7e31161013e5780638c79d7e3146108cd5780638da5cb5b146108ed57806395d89b411461090b5780639636c7621461092057600080fd5b80637d9e9d30146108785780637eebe99d146108985780638163997c146108b857600080fd5b806375bfe420116101a057806375bfe42014610773578063776d62f6146107a357806379502c55146107e55780637ac2bc031461085857600080fd5b80636e0f7a481461071e57806370a082311461073e578063715018a61461075e57600080fd5b80633ccfd60b116102a05780634d4e8dfa1161023e5780635c975abb116102185780635c975abb146106ae57806361212431146106c85780636352211e146106e8578063643e7afd1461070857600080fd5b80634d4e8dfa1461062257806356a3ee771461065457806359e651e01461068157600080fd5b80634025b22d1161027a5780634025b22d1461059157806342842e0e146105be578063446c00f7146105de57806348cfc19e146105fe57600080fd5b80633ccfd60b1461052a5780633d2047461461053f5780633f0bc9a51461055f57600080fd5b806311aaa5c91161030d5780631ad7317c116102e75780631ad7317c1461049c5780631d727ba5146104bc57806323b872dd146104dc578063300eccab146104fc57600080fd5b806311aaa5c91461044957806311bf541f1461045c57806316c38b3c1461047c57600080fd5b806301ffc9a714610355578063030750181461038a578063053f5bbf146103ad57806306fdde03146103cf578063081812fc146103f1578063095ea7b314610429575b600080fd5b34801561036157600080fd5b50610375610370366004613f0f565b610b35565b60405190151581526020015b60405180910390f35b34801561039657600080fd5b5061039f610b87565b604051610381929190613f6b565b3480156103b957600080fd5b506103cd6103c836600461425f565b610f4c565b005b3480156103db57600080fd5b506103e4610fc6565b6040516103819190614340565b3480156103fd57600080fd5b5061041161040c366004614353565b611058565b6040516001600160a01b039091168152602001610381565b34801561043557600080fd5b506103cd61044436600461438c565b611081565b6103cd6104573660046143b8565b611090565b34801561046857600080fd5b506103cd6104773660046143fa565b6111b4565b34801561048857600080fd5b506103cd610497366004614430565b6111d8565b3480156104a857600080fd5b506103cd6104b736600461444d565b6111f3565b3480156104c857600080fd5b506103cd6104d73660046144d9565b6112d9565b3480156104e857600080fd5b506103cd6104f736600461466f565b6113e0565b34801561050857600080fd5b5061051c610517366004614353565b611465565b604051908152602001610381565b34801561053657600080fd5b506103cd611486565b34801561054b57600080fd5b506103cd61055a36600461492b565b611539565b34801561056b57600080fd5b5061057f61057a366004614353565b611919565b60405160ff9091168152602001610381565b34801561059d57600080fd5b506105b16105ac366004614353565b61194d565b6040516103819190614bff565b3480156105ca57600080fd5b506103cd6105d936600461466f565b611c2b565b3480156105ea57600080fd5b506103cd6105f9366004614353565b611c46565b34801561060a57600080fd5b50610613611c95565b60405161038193929190614c44565b34801561062e57600080fd5b5061064261063d366004614353565b611ddd565b60405161038196959493929190614c7d565b34801561066057600080fd5b5061051c61066f366004614cdf565b600c6020526000908152604090205481565b34801561068d57600080fd5b506106a161069c366004614cdf565b612096565b6040516103819190614cfc565b3480156106ba57600080fd5b506021546103759060ff1681565b3480156106d457600080fd5b5061057f6106e3366004614353565b6120ba565b3480156106f457600080fd5b50610411610703366004614353565b6120ca565b34801561071457600080fd5b5061051c60205481565b34801561072a57600080fd5b5061057f610739366004614353565b6120d5565b34801561074a57600080fd5b5061051c610759366004614cdf565b612106565b34801561076a57600080fd5b506103cd61214e565b34801561077f57600080fd5b5061037561078e366004614cdf565b60226020526000908152604090205460ff1681565b3480156107af57600080fd5b506018546107c99061ffff81169062010000900460ff1682565b6040805161ffff909316835260ff909116602083015201610381565b3480156107f157600080fd5b5060105460115460125460135460145461081e946001600160a01b03908116948116938116928116911685565b604080516001600160a01b03968716815294861660208601529285169284019290925283166060830152909116608082015260a001610381565b34801561086457600080fd5b506103cd610873366004614353565b612162565b34801561088457600080fd5b506103cd610893366004614d0f565b6121fa565b3480156108a457600080fd5b506103cd6108b3366004614d43565b612230565b3480156108c457600080fd5b506103cd6122a4565b3480156108d957600080fd5b506103cd6108e8366004614d73565b61232b565b3480156108f957600080fd5b506006546001600160a01b0316610411565b34801561091757600080fd5b506103e461235e565b34801561092c57600080fd5b5061051c61093b366004614353565b61236d565b34801561094c57600080fd5b506103cd61095b366004614d73565b6123a8565b34801561096c57600080fd5b5061057f61097b366004614353565b6123b3565b34801561098c57600080fd5b5061051c60095481565b3480156109a257600080fd5b5061057f6109b1366004614353565b6123be565b3480156109c257600080fd5b506103cd6109d1366004614da1565b6123ce565b3480156109e257600080fd5b506103756109f1366004614cdf565b600b6020526000908152604090205460ff1681565b348015610a1257600080fd5b506103e4610a21366004614353565b6123e6565b348015610a3257600080fd5b50610a46610a41366004614353565b61246a565b60405163ffffffff9091168152602001610381565b348015610a6757600080fd5b5061051c610a76366004614cdf565b600d6020526000908152604090205481565b348015610a9457600080fd5b506103cd610aa3366004614353565b6124a4565b348015610ab457600080fd5b506103cd610ac336600461438c565b612921565b348015610ad457600080fd5b50610375610ae3366004614e20565b612981565b348015610af457600080fd5b50610b08610b03366004614d0f565b6129af565b6040516103819190614e4e565b348015610b2157600080fd5b506103cd610b30366004614cdf565b612d31565b60006001600160e01b031982166380ac58cd60e01b1480610b6657506001600160e01b03198216635b5e139f60e01b145b80610b8157506301ffc9a760e01b6001600160e01b03198316145b92915050565b6000610bdf604051806101200160405280600061ffff168152602001600060ff168152602001606081526020016060815260200160608152602001606081526020016060815260200160608152602001606081525090565b6020805460408051610120810182526018805461ffff8116835262010000900460ff168286015260198054845181880281018801865281815295969295939486949086019390929190830182828015610c7557602002820191906000526020600020906000905b825461010083900a900460ff16815260206001928301818104948501949093039092029101808411610c465790505b5050505050815260200160028201805480602002602001604051908101604052809291908181526020018280548015610ceb57602002820191906000526020600020906000905b825461010083900a900460ff16815260206001928301818104948501949093039092029101808411610cbc5790505b5050505050815260200160038201805480602002602001604051908101604052809291908181526020018280548015610d6157602002820191906000526020600020906000905b825461010083900a900460ff16815260206001928301818104948501949093039092029101808411610d325790505b5050505050815260200160048201805480602002602001604051908101604052809291908181526020018280548015610dd757602002820191906000526020600020906000905b825461010083900a900460ff16815260206001928301818104948501949093039092029101808411610da85790505b5050505050815260200160058201805480602002602001604051908101604052809291908181526020018280548015610e4d57602002820191906000526020600020906000905b825461010083900a900460ff16815260206001928301818104948501949093039092029101808411610e1e5790505b5050505050815260200160068201805480602002602001604051908101604052809291908181526020018280548015610ec357602002820191906000526020600020906000905b825461010083900a900460ff16815260206001928301818104948501949093039092029101808411610e945790505b5050505050815260200160078201805480602002602001604051908101604052809291908181526020018280548015610f3957602002820191906000526020600020906000905b825461010083900a900460ff16815260206001928301818104948501949093039092029101808411610f0a5790505b5050505050815250509050915091509091565b610f54612d6c565b81518351141580610f6757508051825114155b15610f855760405163512509d360e11b815260040160405180910390fd5b8251610f98906015906020860190613d0c565b508151610fac906016906020850190613d0c565b508051610fc0906017906020840190613db2565b50505050565b606060008054610fd590614eb3565b80601f016020809104026020016040519081016040528092919081815260200182805461100190614eb3565b801561104e5780601f106110235761010080835404028352916020019161104e565b820191906000526020600020905b81548152906001019060200180831161103157829003601f168201915b5050505050905090565b600061106382612d99565b506000828152600460205260409020546001600160a01b0316610b81565b61108c828233612dd2565b5050565b611098612ddf565b601782815481106110ab576110ab614eed565b906000526020600020015434146110e3576040516312a1605d60e31b8152600481018390523460248201526044015b60405180910390fd5b6001600160a01b03811661110a5760405163119833d760e11b815260040160405180910390fd5b60006016838154811061111f5761111f614eed565b60009182526020808320908204015460ff601f9092166101000a90041691505b818110156111585761115085612e09565b60010161113f565b5061118182826017868154811061117157611171614eed565b9060005260206000200154612f00565b506001600160a01b0383166000908152600b60205260409020805460ff191660011790556111af6001600755565b505050565b6111bc612d6c565b6021805462ffff00191660ff9290921661010002919091179055565b6111e0612d6c565b6021805460ff1916911515919091179055565b6111fb612d6c565b6001600160a01b0385161561122657601080546001600160a01b0319166001600160a01b0387161790555b6001600160a01b0384161561125157601180546001600160a01b0319166001600160a01b0386161790555b6001600160a01b0383161561127c57601480546001600160a01b0319166001600160a01b0385161790555b6001600160a01b038216156112a757601380546001600160a01b0319166001600160a01b0384161790555b6001600160a01b038116156112d257601280546001600160a01b0319166001600160a01b0383161790555b5050505050565b6112e1612d6c565b602080549060006112f183614f19565b909155505080516018805460208085015160ff16620100000262ffffff1990921661ffff9094169390931717815560408301518051849361133792601992910190613d0c565b5060608201518051611353916002840191602090910190613d0c565b506080820151805161136f916003840191602090910190613d0c565b5060a0820151805161138b916004840191602090910190613d0c565b5060c082015180516113a7916005840191602090910190613d0c565b5060e082015180516113c3916006840191602090910190613d0c565b506101008201518051610fc0916007840191602090910190613d0c565b6001600160a01b03821661140a57604051633250574960e11b8152600060048201526024016110da565b60006114178383336130b4565b9050836001600160a01b0316816001600160a01b031614610fc0576040516364283d7b60e01b81526001600160a01b03808616600483015260248201849052821660448201526064016110da565b6017818154811061147557600080fd5b600091825260209091200154905081565b61148e612d6c565b60006114a26006546001600160a01b031690565b6001600160a01b03164760405160006040518083038185875af1925050503d80600081146114ec576040519150601f19603f3d011682016040523d82523d6000602084013e6114f1565b606091505b50509050806115365760405162461bcd60e51b815260206004820152601160248201527015da5d1a191c985dd85b0819985a5b1959607a1b60448201526064016110da565b50565b6040518281527ff8e1a15aba9398e019f0b49df1a4fde98ee17ae345cb5f6b5e2c27f5033e8ce79060200160405180910390a1600082815260086020908152604080832033845260229092529091205460ff166115ab57604051634a0bfec160e01b81523360048201526024016110da565b6006810154600160481b900460ff16156115db57604051635331ce1f60e11b8152600481018490526024016110da565b6014546003820154604051636e8d2bd160e11b81526000926001600160a01b03169163dd1a57a2916116139188918890600401614f32565b600060405180830381865afa158015611630573d6000803e3d6000fd5b505050506040513d6000823e601f3d908101601f191682016040526116589190810190615140565b8051909150829061166990826152a6565b508060600151826003016000820151816000015560208201518160010160008201518160000160006101000a81548160ff021916908360ff16021790555060208201518160000160016101000a81548160ff021916908360ff16021790555060408201518160000160026101000a81548160ff021916908360ff16021790555060608201518160000160036101000a81548160ff021916908360ff16021790555060808201518160000160046101000a81548160ff021916908360ff16021790555060a08201518160000160056101000a81548160ff021916908360ff160217905550505060408201518160020160006101000a81548160ff021916908360ff16021790555060608201518160020160016101000a81548160ff021916908360ff16021790555060808201518160020160026101000a81548160ff021916908360ff16021790555060a08201518160020160036101000a81548160ff021916908360ff16021790555090505080604001518260020160008201518160000160006101000a81548160ff0219169083600381111561180857611808614a0e565b021790555060208201518154829061ff00191661010083600381111561183057611830614a0e565b021790555060408201518154829062ff000019166201000083600381111561185a5761185a614a0e565b021790555060608201518154829063ff0000001916630100000083600381111561188657611886614a0e565b0217905550505060808101516060810151600684018054925163ffffffff1663ffffffff19921515600160401b0292831668ff00000000ffffffff198516178117825560185460ff60481b1964010000000061ffff9092169190910265ffffffffffff1990941668ff0000ffffffffffff1990951694909417179190911791909116600160481b179055610fc084613271565b6015818154811061192957600080fd5b9060005260206000209060209182820401919006915054906101000a900460ff1681565b611955613ded565b60008281526008602052604090819020815160c0810190925280548290829061197d90614eb3565b80601f01602080910402602001604051908101604052809291908181526020018280546119a990614eb3565b80156119f65780601f106119cb576101008083540402835291602001916119f6565b820191906000526020600020905b8154815290600101906020018083116119d957829003601f168201915b5050509183525050600182015460208201526040805160808101825260028401805492909301929091829060ff166003811115611a3557611a35614a0e565b6003811115611a4657611a46614a0e565b81528154602090910190610100900460ff166003811115611a6957611a69614a0e565b6003811115611a7a57611a7a614a0e565b8152815460209091019062010000900460ff166003811115611a9e57611a9e614a0e565b6003811115611aaf57611aaf614a0e565b815281546020909101906301000000900460ff166003811115611ad457611ad4614a0e565b6003811115611ae557611ae5614a0e565b90525081526040805160c080820183526003850154825282518082018452600486015460ff80821683526101008083048216602085810191909152620100008085048416868a01526301000000808604851660608089019190915264010000000080880487166080808b019190915265010000000000909804871660a0808b01919091528b86019990995260058e01548088168c8e01529586048716828c01529285048616878b01529304841686890152818a0197909752875160e08101895260068b015463ffffffff8116825261ffff988104891692820192909252600160301b820490971687890152600160401b81048316151587830152600160481b81048316151593870193909352600160501b90920416151591840191909152600786015491830191909152918301526008909201546001600160a01b031691015292915050565b6111af838383604051806020016040528060008152506123ce565b6006546001600160a01b03163314801590611c6c57506010546001600160a01b03163314155b15611c8c57604051634a0bfec160e01b81523360048201526024016110da565b61153681613271565b606080606060156016601782805480602002602001604051908101604052809291908181526020018280548015611d0957602002820191906000526020600020906000905b825461010083900a900460ff16815260206001928301818104948501949093039092029101808411611cda5790505b5050505050925081805480602002602001604051908101604052809291908181526020018280548015611d7957602002820191906000526020600020906000905b825461010083900a900460ff16815260206001928301818104948501949093039092029101808411611d4a5790505b5050505050915080805480602002602001604051908101604052809291908181526020018280548015611dcb57602002820191906000526020600020905b815481526020019060010190808311611db7575b50505050509050925092509250909192565b600860205260009081526040902080548190611df890614eb3565b80601f0160208091040260200160405190810160405280929190818152602001828054611e2490614eb3565b8015611e715780601f10611e4657610100808354040283529160200191611e71565b820191906000526020600020905b815481529060010190602001808311611e5457829003601f168201915b505050505090806001015490806002016040518060800160405290816000820160009054906101000a900460ff166003811115611eb057611eb0614a0e565b6003811115611ec157611ec1614a0e565b81528154602090910190610100900460ff166003811115611ee457611ee4614a0e565b6003811115611ef557611ef5614a0e565b8152815460209091019062010000900460ff166003811115611f1957611f19614a0e565b6003811115611f2a57611f2a614a0e565b815281546020909101906301000000900460ff166003811115611f4f57611f4f614a0e565b6003811115611f6057611f60614a0e565b9052506040805160c080820183526003850154825282518082018452600486015460ff80821683526101008083048216602085810191909152620100008085048416868a01526301000000808604851660608089019190915264010000000080880487166080808b019190915265010000000000909804871660a0808b0191909152858c019990995260058e01548088168c8e01529586048716828c01529285048616878b01529304841686890152885160e081018a5260068c015463ffffffff8116825261ffff928104831693820193909352600160301b830490911698810198909852600160401b81048316151591880191909152600160481b81048216151592870192909252600160501b909104161515908401526007850154908301526008909301549192916001600160a01b031686565b6001600160a01b0381166000908152600a60205260409020606090610b81906135cf565b6016818154811061192957600080fd5b6000610b8182612d99565b600060328210156120e857506000919050565b60508210156120f957506001919050565b506002919050565b919050565b60006001600160a01b038216612132576040516322718ad960e21b8152600060048201526024016110da565b506001600160a01b031660009081526003602052604090205490565b612156612d6c565b61216060006135e3565b565b6006546001600160a01b0316331480159061218857506010546001600160a01b03163314155b156121a857604051634a0bfec160e01b81523360048201526024016110da565b6000818152600860205260409081902042600790910155517ff8e1a15aba9398e019f0b49df1a4fde98ee17ae345cb5f6b5e2c27f5033e8ce7906121ef9083815260200190565b60405180910390a150565b60005b815181101561108c5761222882828151811061221b5761221b614eed565b60200260200101516124a4565b6001016121fd565b6011546001600160a01b0316331480159061225657506010546001600160a01b03163314155b1561227657604051634a0bfec160e01b81523360048201526024016110da565b6000918252600860205260409091206006018054911515600160501b0260ff60501b19909216919091179055565b336000908152600a602052604081206122bc906135cf565b905060005b815181101561108c57600860008383815181106122e0576122e0614eed565b6020026020010151815260200190815260200160002060060160000160099054906101000a900460ff166123235761232382828151811061221b5761221b614eed565b6001016122c1565b612333612d6c565b6001600160a01b03919091166000908152602260205260409020805460ff1916911515919091179055565b606060018054610fd590614eb3565b60008160000361237f57506001919050565b60005b8215610b81578061239281614f19565b91506123a19050600a8461537a565b9250612382565b61108c338383613635565b6000610b818261236d565b600e818154811061192957600080fd5b6123d98484846113e0565b610fc033858585856136d4565b60125460008281526008602052604090819020905163489b775760e11b81526060926001600160a01b031691639136eeae9161242591906004016154db565b600060405180830381865afa158015612442573d6000803e3d6000fd5b505050506040513d6000823e601f3d908101601f19168201604052610b8191908101906155cd565b600f818154811061247a57600080fd5b9060005260206000209060089182820401919006600402915054906101000a900463ffffffff1681565b6040518181527ff8e1a15aba9398e019f0b49df1a4fde98ee17ae345cb5f6b5e2c27f5033e8ce79060200160405180910390a16000818152600860208190526040909120908101546001600160a01b031633146125165760405162dd34af60e41b8152600481018390526024016110da565b6006810154600160481b900460ff161561254657604051635331ce1f60e11b8152600481018390526024016110da565b6013546003820154604051632f09b60960e21b815260048101919091526000916001600160a01b03169063bc26d824906024016020604051808303816000875af1158015612598573d6000803e3d6000fd5b505050506040513d601f19601f820116820180604052508101906125bc9190615601565b6014546003840154602154604051637017ac9560e11b81526004810188905260248101929092526001600160401b0384166044830152610100900461ffff1660648201529192506000916001600160a01b039091169063e02f592a90608401600060405180830381865afa158015612638573d6000803e3d6000fd5b505050506040513d6000823e601f3d908101601f191682016040526126609190810190615140565b8051909150839061267190826152a6565b508060600151836003016000820151816000015560208201518160010160008201518160000160006101000a81548160ff021916908360ff16021790555060208201518160000160016101000a81548160ff021916908360ff16021790555060408201518160000160026101000a81548160ff021916908360ff16021790555060608201518160000160036101000a81548160ff021916908360ff16021790555060808201518160000160046101000a81548160ff021916908360ff16021790555060a08201518160000160056101000a81548160ff021916908360ff160217905550505060408201518160020160006101000a81548160ff021916908360ff16021790555060608201518160020160016101000a81548160ff021916908360ff16021790555060808201518160020160026101000a81548160ff021916908360ff16021790555060a08201518160020160036101000a81548160ff021916908360ff16021790555090505080604001518360020160008201518160000160006101000a81548160ff0219169083600381111561281057612810614a0e565b021790555060208201518154829061ff00191661010083600381111561283857612838614a0e565b021790555060408201518154829062ff000019166201000083600381111561286257612862614a0e565b021790555060608201518154829063ff0000001916630100000083600381111561288e5761288e614a0e565b0217905550505060808101516060810151600685018054925163ffffffff1663ffffffff19921515600160401b0292831668ff00000000ffffffff198516178117825560185460ff60481b1964010000000061ffff9092169190910265ffffffffffff1990941668ff0000ffffffffffff1990951694909417179190911791909116600160481b179055610fc084613271565b6001600160a01b03821660009081526022602052604090205460ff1661296557604051634a0bfec160e01b81526001600160a01b03831660048201526024016110da565b60005b818110156111af5761297983612e09565b600101612968565b6001600160a01b03918216600090815260056020908152604080832093909416825291909152205460ff1690565b6060600082516001600160401b038111156129cc576129cc614079565b604051908082528060200260200182016040528015612a0557816020015b6129f2613ded565b8152602001906001900390816129ea5790505b50905060005b8351811015612d2a5760086000858381518110612a2a57612a2a614eed565b602002602001015181526020019081526020016000206040518060c0016040529081600082018054612a5b90614eb3565b80601f0160208091040260200160405190810160405280929190818152602001828054612a8790614eb3565b8015612ad45780601f10612aa957610100808354040283529160200191612ad4565b820191906000526020600020905b815481529060010190602001808311612ab757829003601f168201915b5050509183525050600182015460208201526040805160808101825260028401805492909301929091829060ff166003811115612b1357612b13614a0e565b6003811115612b2457612b24614a0e565b81528154602090910190610100900460ff166003811115612b4757612b47614a0e565b6003811115612b5857612b58614a0e565b8152815460209091019062010000900460ff166003811115612b7c57612b7c614a0e565b6003811115612b8d57612b8d614a0e565b815281546020909101906301000000900460ff166003811115612bb257612bb2614a0e565b6003811115612bc357612bc3614a0e565b90525081526040805160c080820183526003850154825282518082018452600486015460ff80821683526101008083048216602085810191909152620100008085048416868a01526301000000808604851660608089019190915264010000000080880487166080808b019190915265010000000000909804871660a0808b01919091528b86019990995260058e01548088168c8e01529586048716828c01529285048616878b01529304841686890152818a0197909752875160e08101895260068b015463ffffffff8116825261ffff988104891692820192909252600160301b820490971687890152600160401b81048316151587830152600160481b81048316151593870193909352600160501b90920416151591840191909152600786015491830191909152918301526008909201546001600160a01b03169101528251839083908110612d1757612d17614eed565b6020908102919091010152600101612a0b565b5092915050565b612d39612d6c565b6001600160a01b038116612d6357604051631e4fbdf760e01b8152600060048201526024016110da565b611536816135e3565b6006546001600160a01b031633146121605760405163118cdaa760e01b81523360048201526024016110da565b6000818152600260205260408120546001600160a01b031680610b8157604051637e27328960e01b8152600481018490526024016110da565b6111af83838360016137f6565b600260075403612e0257604051633ee5aeb560e01b815260040160405180910390fd5b6002600755565b60215460ff1615612e2d57604051636be9245d60e11b815260040160405180910390fd5b60098054906000612e3d83614f19565b909155505060095460008181526008602090815260408083206001810194909455601354815163f8413b0760e01b815291516001600160a01b039091169363f8413b07936004808501949193929183900301908290875af1158015612ea6573d6000803e3d6000fd5b505050506040513d601f19601f82011682018060405250810190612eca919061562a565b6003820155600954612edd9083906138fc565b60080180546001600160a01b0319166001600160a01b0392909216919091179055565b6001600160a01b0383166000908152600d602052604081208054849290612f28908490615643565b9091555050600f546001905b8015612fee57600f612f47600183615656565b81548110612f5757612f57614eed565b600091825260208083206008830401546001600160a01b0389168452600d90915260409092205460079091166004026101000a90910463ffffffff1611612fdc57600e612fa5600183615656565b81548110612fb557612fb5614eed565b60009182526020918290209181049091015460ff601f9092166101000a9004169150612fee565b80612fe681615669565b915050612f34565b5060006064612ffd8385615680565b613007919061537a565b90506000856001600160a01b03168260405160006040518083038185875af1925050503d8060008114613056576040519150601f19603f3d011682016040523d82523d6000602084013e61305b565b606091505b50509050806130ac5760405162461bcd60e51b815260206004820152601860248201527f526566657272616c207472616e73666572206661696c6564000000000000000060448201526064016110da565b505050505050565b600082815260086020526040812060070154156131045760405162461bcd60e51b815260206004820152600e60248201526d14da1a5c0819195cdd1c9bde595960921b60448201526064016110da565b600083815260086020526040902060060154600160501b900460ff16156131415760405163128379f760e11b8152600481018490526024016110da565b600083815260086020819052604090912001546001600160a01b0316801561320f576001600160a01b0381166000908152600b602052604090205460ff166131a757604051637aff97f360e11b81526001600160a01b03821660048201526024016110da565b6001600160a01b0385166000908152600b602052604090205460ff166131eb57604051637aff97f360e11b81526001600160a01b03861660048201526024016110da565b6001600160a01b0381166000908152600a6020526040902061320d9085613916565b505b6001600160a01b0385166000908152600a602052604090206132319085613922565b5060008481526008602081905260409091200180546001600160a01b0319166001600160a01b03871617905561326885858561392e565b95945050505050565b60008181526008602052604081206002810154909190601f906301000000900460ff1660038111156132a5576132a5614a0e565b60ff16815481106132b8576132b8614eed565b600091825260209182902091810490910154600284015460ff601f9093166101000a909104821691601e916201000090041660038111156132fb576132fb614a0e565b60ff168154811061330e5761330e614eed565b600091825260209182902091810490910154600285015460ff601f90931661010090810a909204831692601d9290910416600381111561335057613350614a0e565b60ff168154811061336357613363614eed565b600091825260209182902091810490910154600286015460ff601f9093166101000a909104821691601c911660038111156133a0576133a0614a0e565b60ff16815481106133b3576133b3614eed565b6000918252602091829020918104909101546005870154601b8054601f9094166101000a90920460ff908116936301000000909204169081106133f8576133f8614eed565b6000918252602091829020918104909101546005880154601a8054601f9094166101000a90920460ff90811693620100009092041690811061343c5761343c614eed565b60009182526020918290209181049091015460058901546019805460ff601f90951661010090810a90940485169491939092041690811061347f5761347f614eed565b6000918252602091829020918104909101546018546134b492601f166101000a90910460ff9081169162010000900416615697565b6134be9190615697565b6134c89190615697565b6134d29190615697565b6134dc9190615697565b6134e69190615697565b6134f09190615697565b600683015460ff91909116915060009061350f9063ffffffff166123b3565b60ff1690506000600182900361353d57606461352c8460006156b0565b61353691906156cd565b9050613595565b8161ffff1660020361355657606461352c84600a6156b0565b8161ffff1660030361356f57606461352c8460146156b0565b60048261ffff161061359557606461358884601e6156b0565b61359291906156cd565b90505b60006135a182856156f1565b6006909501805461ffff909616600160301b0267ffff00000000000019909616959095179094555050505050565b606060006135dc83613a27565b9392505050565b600680546001600160a01b038381166001600160a01b0319831681179093556040519116919082907f8be0079c531659141344cd1fd0a4f28419497f9722a3daafe3b4186f6b6457e090600090a35050565b6001600160a01b03821661366757604051630b61174360e31b81526001600160a01b03831660048201526024016110da565b6001600160a01b03838116600081815260056020908152604080832094871680845294825291829020805460ff191686151590811790915591519182527f17307eab39ab6107e8899845ad3d59bd9653f200f220920489ca2b5937696c31910160405180910390a3505050565b6001600160a01b0383163b156112d257604051630a85bd0160e11b81526001600160a01b0384169063150b7a029061371690889088908790879060040161570b565b6020604051808303816000875af1925050508015613751575060408051601f3d908101601f1916820190925261374e9181019061573e565b60015b6137ba573d80801561377f576040519150601f19603f3d011682016040523d82523d6000602084013e613784565b606091505b5080516000036137b257604051633250574960e11b81526001600160a01b03851660048201526024016110da565b805181602001fd5b6001600160e01b03198116630a85bd0160e11b146130ac57604051633250574960e11b81526001600160a01b03851660048201526024016110da565b808061380a57506001600160a01b03821615155b156138cc57600061381a84612d99565b90506001600160a01b038316158015906138465750826001600160a01b0316816001600160a01b031614155b801561385957506138578184612981565b155b156138825760405163a9fbf51f60e01b81526001600160a01b03841660048201526024016110da565b81156138ca5783856001600160a01b0316826001600160a01b03167f8c5be1e5ebec7d5bd14f71427d1e84f3dd0314c0f7b2291e5b200ac8c7c3b92560405160405180910390a45b505b5050600090815260046020526040902080546001600160a01b0319166001600160a01b0392909216919091179055565b61108c828260405180602001604052806000815250613a83565b60006135dc8383613a9b565b60006135dc8383613b8e565b6000828152600260205260408120546001600160a01b039081169083161561395b5761395b818486613bdd565b6001600160a01b03811615613999576139786000856000806137f6565b6001600160a01b038116600090815260036020526040902080546000190190555b6001600160a01b038516156139c8576001600160a01b0385166000908152600360205260409020805460010190555b60008481526002602052604080822080546001600160a01b0319166001600160a01b0389811691821790925591518793918516917fddf252ad1be2c89b69c2b068fc378daa952ba7f163c4a11628f55a4df523b3ef91a4949350505050565b606081600001805480602002602001604051908101604052809291908181526020018280548015613a7757602002820191906000526020600020905b815481526020019060010190808311613a63575b50505050509050919050565b613a8d8383613c41565b6111af3360008585856136d4565b60008181526001830160205260408120548015613b84576000613abf600183615656565b8554909150600090613ad390600190615656565b9050808214613b38576000866000018281548110613af357613af3614eed565b9060005260206000200154905080876000018481548110613b1657613b16614eed565b6000918252602080832090910192909255918252600188019052604090208390555b8554869080613b4957613b4961575b565b600190038181906000526020600020016000905590558560010160008681526020019081526020016000206000905560019350505050610b81565b6000915050610b81565b6000818152600183016020526040812054613bd557508154600181810184556000848152602080822090930184905584548482528286019093526040902091909155610b81565b506000610b81565b613be8838383613ca6565b6111af576001600160a01b038316613c1657604051637e27328960e01b8152600481018290526024016110da565b60405163177e802f60e01b81526001600160a01b0383166004820152602481018290526044016110da565b6001600160a01b038216613c6b57604051633250574960e11b8152600060048201526024016110da565b6000613c79838360006130b4565b90506001600160a01b038116156111af576040516339e3563760e11b8152600060048201526024016110da565b60006001600160a01b03831615801590613d045750826001600160a01b0316846001600160a01b03161480613ce05750613ce08484612981565b80613d0457506000828152600460205260409020546001600160a01b038481169116145b949350505050565b82805482825590600052602060002090601f01602090048101928215613da25791602002820160005b83821115613d7357835183826101000a81548160ff021916908360ff1602179055509260200192600101602081600001049283019260010302613d35565b8015613da05782816101000a81549060ff0219169055600101602081600001049283019260010302613d73565b505b50613dae929150613ee4565b5090565b828054828255906000526020600020908101928215613da2579160200282015b82811115613da2578251825591602001919060010190613dd2565b6040518060c001604052806060815260200160008152602001613e316040805160808101909152806000815260200160008152602001600081526020016000905290565b8152602001613e9b6040805160c080820183526000808352835191820184528082526020828101829052938201819052606082018190526080820181905260a082015290918201908152600060208201819052604082018190526060820181905260809091015290565b81526040805160e08101825260008082526020828101829052928201819052606082018190526080820181905260a0820181905260c08201529101908152600060209091015290565b5b80821115613dae5760008155600101613ee5565b6001600160e01b03198116811461153657600080fd5b600060208284031215613f2157600080fd5b81356135dc81613ef9565b600081518084526020840193506020830160005b82811015613f6157815160ff16865260209586019590910190600101613f40565b5093949350505050565b82815260406020820152613f8660408201835161ffff169052565b60006020830151613f9c606084018260ff169052565b5060408301516101206080840152613fb8610160840182613f2c565b90506060840151603f198483030160a0850152613fd58282613f2c565b9150506080840151603f198483030160c0850152613ff38282613f2c565b91505060a0840151603f198483030160e08501526140118282613f2c565b91505060c0840151603f19848303016101008501526140308282613f2c565b91505060e0840151603f198483030161012085015261404f8282613f2c565b915050610100840151603f198483030161014085015261406f8282613f2c565b9695505050505050565b634e487b7160e01b600052604160045260246000fd5b60405161012081016001600160401b03811182821017156140b2576140b2614079565b60405290565b604051608081016001600160401b03811182821017156140b2576140b2614079565b60405160c081016001600160401b03811182821017156140b2576140b2614079565b60405160e081016001600160401b03811182821017156140b2576140b2614079565b604051601f8201601f191681016001600160401b038111828210171561414657614146614079565b604052919050565b60006001600160401b0382111561416757614167614079565b5060051b60200190565b60ff8116811461153657600080fd5b803561210181614171565b600082601f83011261419c57600080fd5b81356141af6141aa8261414e565b61411e565b8082825260208201915060208360051b8601019250858311156141d157600080fd5b602085015b838110156141f75780356141e981614171565b8352602092830192016141d6565b5095945050505050565b600082601f83011261421257600080fd5b81356142206141aa8261414e565b8082825260208201915060208360051b86010192508583111561424257600080fd5b602085015b838110156141f7578035835260209283019201614247565b60008060006060848603121561427457600080fd5b83356001600160401b0381111561428a57600080fd5b6142968682870161418b565b93505060208401356001600160401b038111156142b257600080fd5b6142be8682870161418b565b92505060408401356001600160401b038111156142da57600080fd5b6142e686828701614201565b9150509250925092565b60005b8381101561430b5781810151838201526020016142f3565b50506000910152565b6000815180845261432c8160208601602086016142f0565b601f01601f19169290920160200192915050565b6020815260006135dc6020830184614314565b60006020828403121561436557600080fd5b5035919050565b6001600160a01b038116811461153657600080fd5b80356121018161436c565b6000806040838503121561439f57600080fd5b82356143aa8161436c565b946020939093013593505050565b6000806000606084860312156143cd57600080fd5b83356143d88161436c565b92506020840135915060408401356143ef8161436c565b809150509250925092565b60006020828403121561440c57600080fd5b81356135dc81614171565b801515811461153657600080fd5b803561210181614417565b60006020828403121561444257600080fd5b81356135dc81614417565b600080600080600060a0868803121561446557600080fd5b85356144708161436c565b945060208601356144808161436c565b935060408601356144908161436c565b925060608601356144a08161436c565b915060808601356144b08161436c565b809150509295509295909350565b61ffff8116811461153657600080fd5b8035612101816144be565b6000602082840312156144eb57600080fd5b81356001600160401b0381111561450157600080fd5b8201610120818503121561451457600080fd5b61451c61408f565b614525826144ce565b815261453360208301614180565b602082015260408201356001600160401b0381111561455157600080fd5b61455d8682850161418b565b60408301525060608201356001600160401b0381111561457c57600080fd5b6145888682850161418b565b60608301525060808201356001600160401b038111156145a757600080fd5b6145b38682850161418b565b60808301525060a08201356001600160401b038111156145d257600080fd5b6145de8682850161418b565b60a08301525060c08201356001600160401b038111156145fd57600080fd5b6146098682850161418b565b60c08301525060e08201356001600160401b0381111561462857600080fd5b6146348682850161418b565b60e0830152506101008201356001600160401b0381111561465457600080fd5b6146608682850161418b565b61010083015250949350505050565b60008060006060848603121561468457600080fd5b833561468f8161436c565b9250602084013561469f8161436c565b929592945050506040919091013590565b60006001600160401b038211156146c9576146c9614079565b50601f01601f191660200190565b60006146e56141aa846146b0565b90508281528383830111156146f957600080fd5b828260208301376000602084830101529392505050565b6004811061153657600080fd5b60006080828403121561472f57600080fd5b6147376140b8565b9050813561474481614710565b8152602082013561475481614710565b6020820152604082013561476781614710565b6040820152606082013561477a81614710565b606082015292915050565b600081830361016081121561479957600080fd5b6147a16140da565b83358152915060c0601f19820112156147b957600080fd5b506147c26140da565b60208301356147d081614171565b815260408301356147e081614171565b602082015260608301356147f381614171565b6040820152608083013561480681614171565b606082015260a083013561481981614171565b608082015260c083013561482c81614171565b60a0820152602082015261484260e08301614180565b60408201526148546101008301614180565b60608201526148666101208301614180565b60808201526148786101408301614180565b60a082015292915050565b63ffffffff8116811461153657600080fd5b600060e082840312156148a757600080fd5b6148af6140fc565b905081356148bc81614883565b815260208201356148cc816144be565b602082015260408201356148df816144be565b604082015260608201356148f281614417565b606082015261490360808301614425565b608082015261491460a08301614425565b60a082015260c09182013591810191909152919050565b6000806040838503121561493e57600080fd5b8235915060208301356001600160401b0381111561495b57600080fd5b8301610320818603121561496e57600080fd5b6149766140da565b81356001600160401b0381111561498c57600080fd5b8201601f8101871361499d57600080fd5b6149ac878235602084016146d7565b825250602082810135908201526149c6866040840161471d565b60408201526149d88660c08401614785565b60608201526149eb866102208401614895565b60808201526149fd6103008301614381565b60a082015280925050509250929050565b634e487b7160e01b600052602160045260246000fd5b6004811061153657634e487b7160e01b600052602160045260246000fd5b8051614a4d81614a24565b82526020810151614a5d81614a24565b60208301526040810151614a7081614a24565b60408301526060810151614a8381614a24565b806060840152505050565b80518252602081015160ff815116602084015260ff602082015116604084015260ff604082015116606084015260ff606082015116608084015260ff60808201511660a084015260ff60a08201511660c0840152506040810151614af760e084018260ff169052565b50606081015160ff9081166101008401526080820151811661012084015260a0909101511661014090910152565b63ffffffff815116825261ffff602082015116602083015261ffff604082015116604083015260608101511515606083015260808101511515608083015260a0810151614b7660a084018215159052565b5060c090810151910152565b600081516103208452614b99610320850182614314565b9050602083015160208501526040830151614bb76040860182614a42565b506060830151614bca60c0860182614a8e565b506080830151614bde610220860182614b25565b5060a092909201516001600160a01b03166103009390930192909252919050565b6020815260006135dc6020830184614b82565b600081518084526020840193506020830160005b82811015613f61578151865260209586019590910190600101614c26565b606081526000614c576060830186613f2c565b8281036020840152614c698186613f2c565b9050828103604084015261406f8185614c12565b61032081526000614c92610320830189614314565b9050866020830152614ca76040830187614a42565b614cb460c0830186614a8e565b614cc2610220830185614b25565b6001600160a01b0392909216610300919091015295945050505050565b600060208284031215614cf157600080fd5b81356135dc8161436c565b6020815260006135dc6020830184614c12565b600060208284031215614d2157600080fd5b81356001600160401b03811115614d3757600080fd5b613d0484828501614201565b60008060408385031215614d5657600080fd5b823591506020830135614d6881614417565b809150509250929050565b60008060408385031215614d8657600080fd5b8235614d918161436c565b91506020830135614d6881614417565b60008060008060808587031215614db757600080fd5b8435614dc28161436c565b93506020850135614dd28161436c565b92506040850135915060608501356001600160401b03811115614df457600080fd5b8501601f81018713614e0557600080fd5b614e14878235602084016146d7565b91505092959194509250565b60008060408385031215614e3357600080fd5b8235614e3e8161436c565b91506020830135614d688161436c565b6000602082016020835280845180835260408501915060408160051b86010192506020860160005b82811015614ea757603f19878603018452614e92858351614b82565b94506020938401939190910190600101614e76565b50929695505050505050565b600181811c90821680614ec757607f821691505b602082108103614ee757634e487b7160e01b600052602260045260246000fd5b50919050565b634e487b7160e01b600052603260045260246000fd5b634e487b7160e01b600052601160045260246000fd5b600060018201614f2b57614f2b614f03565b5060010190565b8381528260208201526060604082015260006132686060830184614b82565b600082601f830112614f6257600080fd5b8151614f706141aa826146b0565b818152846020838601011115614f8557600080fd5b613d048260208301602087016142f0565b805161210181614171565b6000818303610160811215614fb557600080fd5b614fbd6140da565b83518152915060c0601f1982011215614fd557600080fd5b50614fde6140da565b6020830151614fec81614171565b81526040830151614ffc81614171565b6020820152606083015161500f81614171565b6040820152608083015161502281614171565b606082015260a083015161503581614171565b608082015260c083015161504881614171565b60a0820152602082015261505e60e08301614f96565b60408201526150706101008301614f96565b60608201526150826101208301614f96565b60808201526148786101408301614f96565b805161210181614417565b600060e082840312156150b157600080fd5b6150b96140fc565b905081516150c681614883565b815260208201516150d6816144be565b602082015260408201516150e9816144be565b604082015260608201516150fc81614417565b606082015261510d60808301615094565b608082015261511e60a08301615094565b60a082015260c09182015191810191909152919050565b80516121018161436c565b60006020828403121561515257600080fd5b81516001600160401b0381111561516857600080fd5b820180840361032081121561517c57600080fd5b6151846140da565b82516001600160401b0381111561519a57600080fd5b6151a687828601614f51565b825250602083810151908201526080603f19830112156151c557600080fd5b6151cd6140b8565b915060408301516151dd81614710565b825260608301516151ed81614710565b6020830152608083015161520081614710565b604083015260a083015161521381614710565b60608301526040810182905261522c8660c08501614fa1565b606082015261523f86610220850161509f565b60808201526152516103008401615135565b60a082015295945050505050565b601f8211156111af57806000526020600020601f840160051c810160208510156152865750805b601f840160051c820191505b818110156112d25760008155600101615292565b81516001600160401b038111156152bf576152bf614079565b6152d3816152cd8454614eb3565b8461525f565b6020601f82116001811461530757600083156152ef5750848201515b600019600385901b1c1916600184901b1784556112d2565b600084815260208120601f198516915b828110156153375787850151825560209485019460019092019101615317565b50848210156153555786840151600019600387901b60f8161c191681555b50505050600190811b01905550565b634e487b7160e01b600052601260045260246000fd5b60008261538957615389615364565b500490565b805460ff811661539d81614a24565b8352600881901c60ff166153b081614a24565b6020840152601081901c60ff166153c681614a24565b604084015260181c60ff16614a8381614a24565b80548252600181015460ff8116602084015260ff8160081c16604084015260ff8160101c16606084015260ff8160181c16608084015260ff8160201c1660a084015261543160c0840160ff8360281c1660ff169052565b506002015460ff80821660e0840152600882901c8116610100840152601082901c811661012084015260189190911c1661014090910152565b805463ffffffff8116835261ffff8160201c16602084015261ffff808260301c161660408401526154a56060840160ff8360401c1615159052565b6154b96080840160ff8360481c1615159052565b6154cd60a0840160ff8360501c1615159052565b506001015460c09190910152565b60208152610320602082015260008083546154f581614eb3565b806103408601526001821660008114615515576001811461553357615569565b60ff19831661036087015261036082151560051b8701019350615569565b86600052602060002060005b8381101561555f578154888201610360015260019091019060200161553f565b8701610360019450505b50505060018401546040840152615586606084016002860161538e565b61559660e08401600386016153da565b6155a761024084016006860161546a565b60088401546001600160a01b03166001600160a01b038116610320850152509392505050565b6000602082840312156155df57600080fd5b81516001600160401b038111156155f557600080fd5b613d0484828501614f51565b60006020828403121561561357600080fd5b81516001600160401b03811681146135dc57600080fd5b60006020828403121561563c57600080fd5b5051919050565b80820180821115610b8157610b81614f03565b81810381811115610b8157610b81614f03565b60008161567857615678614f03565b506000190190565b8082028115828204841417610b8157610b81614f03565b60ff8181168382160190811115610b8157610b81614f03565b61ffff8181168382160290811690818114612d2a57612d2a614f03565b600061ffff8316806156e1576156e1615364565b8061ffff84160491505092915050565b61ffff8281168282160390811115610b8157610b81614f03565b6001600160a01b038581168252841660208201526040810183905260806060820181905260009061406f90830184614314565b60006020828403121561575057600080fd5b81516135dc81613ef9565b634e487b7160e01b600052603160045260246000fdfea2646970667358221220143e0eccb5d5ca32500f0ebcf96cb7cc0521b553db988e5508740b9e47a5ed0564736f6c634300081c0033",
  "linkReferences": {},
  "deployedLinkReferences": {}
}