{
  "_format": "hh-sol-artifact-1",
  "contractName": "RenderBody",
  "sourceName": "contracts/Renderers/RenderBody.sol",
  "abi": [
    {
      "inputs": [
        {
          "internalType": "address[]",
          "name": "renderers",
          "type": "address[]"
        }
      ],
      "stateMutability": "nonpayable",
      "type": "constructor"
    },
    {
      "inputs": [
        {
          "components": [
            {
              "internalType": "string",
              "name": "name",
              "type": "string"
            },
            {
              "internalType": "uint256",
              "name": "id",
              "type": "uint256"
            },
            {
              "components": [
                {
                  "internalType": "enum MainWeapon",
                  "name": "mainWeapon",
                  "type": "uint8"
                },
                {
                  "internalType": "enum Armor",
                  "name": "armor",
                  "type": "uint8"
                },
                {
                  "internalType": "enum Shields",
                  "name": "shields",
                  "type": "uint8"
                },
                {
                  "internalType": "enum Special",
                  "name": "special",
                  "type": "uint8"
                }
              ],
              "internalType": "struct Equipment",
              "name": "equipment",
              "type": "tuple"
            },
            {
              "components": [
                {
                  "internalType": "uint256",
                  "name": "serialNumber",
                  "type": "uint256"
                },
                {
                  "internalType": "uint8",
                  "name": "r1",
                  "type": "uint8"
                },
                {
                  "internalType": "uint8",
                  "name": "g1",
                  "type": "uint8"
                },
                {
                  "internalType": "uint8",
                  "name": "b1",
                  "type": "uint8"
                },
                {
                  "internalType": "uint8",
                  "name": "r2",
                  "type": "uint8"
                },
                {
                  "internalType": "uint8",
                  "name": "g2",
                  "type": "uint8"
                },
                {
                  "internalType": "uint8",
                  "name": "b2",
                  "type": "uint8"
                },
                {
                  "internalType": "uint8",
                  "name": "variant",
                  "type": "uint8"
                },
                {
                  "internalType": "uint8",
                  "name": "accuracy",
                  "type": "uint8"
                },
                {
                  "internalType": "uint8",
                  "name": "hull",
                  "type": "uint8"
                },
                {
                  "internalType": "uint8",
                  "name": "speed",
                  "type": "uint8"
                }
              ],
              "internalType": "struct Traits",
              "name": "traits",
              "type": "tuple"
            },
            {
              "components": [
                {
                  "internalType": "uint256",
                  "name": "gameId",
                  "type": "uint256"
                },
                {
                  "components": [
                    {
                      "internalType": "uint8",
                      "name": "version",
                      "type": "uint8"
                    },
                    {
                      "internalType": "uint8",
                      "name": "range",
                      "type": "uint8"
                    },
                    {
                      "internalType": "uint8",
                      "name": "gunDamage",
                      "type": "uint8"
                    },
                    {
                      "internalType": "uint8",
                      "name": "hullPoints",
                      "type": "uint8"
                    },
                    {
                      "internalType": "uint8",
                      "name": "movement",
                      "type": "uint8"
                    },
                    {
                      "internalType": "uint8[]",
                      "name": "statusEffects",
                      "type": "uint8[]"
                    }
                  ],
                  "internalType": "struct Attributes",
                  "name": "attributes",
                  "type": "tuple"
                },
                {
                  "internalType": "uint8",
                  "name": "damageTaken",
                  "type": "uint8"
                },
                {
                  "internalType": "bool",
                  "name": "inLobby",
                  "type": "bool"
                },
                {
                  "internalType": "bool",
                  "name": "movedThisTurn",
                  "type": "bool"
                },
                {
                  "internalType": "bool",
                  "name": "firedThisTurn",
                  "type": "bool"
                }
              ],
              "internalType": "struct GameData",
              "name": "gameData",
              "type": "tuple"
            },
            {
              "internalType": "uint32",
              "name": "shipsDestroyed",
              "type": "uint32"
            },
            {
              "internalType": "uint16",
              "name": "costsVersion",
              "type": "uint16"
            },
            {
              "internalType": "uint16",
              "name": "cost",
              "type": "uint16"
            },
            {
              "internalType": "bool",
              "name": "shiny",
              "type": "bool"
            },
            {
              "internalType": "bool",
              "name": "constructed",
              "type": "bool"
            },
            {
              "internalType": "uint256",
              "name": "timestampDestroyed",
              "type": "uint256"
            },
            {
              "internalType": "address",
              "name": "owner",
              "type": "address"
            }
          ],
          "internalType": "struct Ship",
          "name": "ship",
          "type": "tuple"
        }
      ],
      "name": "render",
      "outputs": [
        {
          "internalType": "string",
          "name": "",
          "type": "string"
        }
      ],
      "stateMutability": "view",
      "type": "function"
    },
    {
      "inputs": [],
      "name": "renderArmor1",
      "outputs": [
        {
          "internalType": "contract IReturnSVG",
          "name": "",
          "type": "address"
        }
      ],
      "stateMutability": "view",
      "type": "function"
    },
    {
      "inputs": [],
      "name": "renderArmor2",
      "outputs": [
        {
          "internalType": "contract IReturnSVG",
          "name": "",
          "type": "address"
        }
      ],
      "stateMutability": "view",
      "type": "function"
    },
    {
      "inputs": [],
      "name": "renderArmor3",
      "outputs": [
        {
          "internalType": "contract IReturnSVG",
          "name": "",
          "type": "address"
        }
      ],
      "stateMutability": "view",
      "type": "function"
    },
    {
      "inputs": [],
      "name": "renderBaseBody",
      "outputs": [
        {
          "internalType": "contract IReturnSVG",
          "name": "",
          "type": "address"
        }
      ],
      "stateMutability": "view",
      "type": "function"
    },
    {
      "inputs": [],
      "name": "renderShield1",
      "outputs": [
        {
          "internalType": "contract IReturnSVG",
          "name": "",
          "type": "address"
        }
      ],
      "stateMutability": "view",
      "type": "function"
    },
    {
      "inputs": [],
      "name": "renderShield2",
      "outputs": [
        {
          "internalType": "contract IReturnSVG",
          "name": "",
          "type": "address"
        }
      ],
      "stateMutability": "view",
      "type": "function"
    },
    {
      "inputs": [],
      "name": "renderShield3",
      "outputs": [
        {
          "internalType": "contract IReturnSVG",
          "name": "",
          "type": "address"
        }
      ],
      "stateMutability": "view",
      "type": "function"
    }
  ],
  "bytecode": "0x61016060405234801561001157600080fd5b506040516110e53803806110e583398101604081905261003091610230565b80516007146100935760405162461bcd60e51b815260206004820152602560248201527f496e76616c69642072656e64657265727320617272617920696e2052656e646560448201526472426f647960d81b606482015260840160405180910390fd5b806000815181106100a6576100a66102ff565b60200260200101516001600160a01b03166080816001600160a01b031681525050806001815181106100da576100da6102ff565b60200260200101516001600160a01b031660a0816001600160a01b0316815250508060028151811061010e5761010e6102ff565b60200260200101516001600160a01b031660c0816001600160a01b03168152505080600381518110610142576101426102ff565b60200260200101516001600160a01b031660e0816001600160a01b03168152505080600481518110610176576101766102ff565b60200260200101516001600160a01b0316610100816001600160a01b031681525050806005815181106101ab576101ab6102ff565b60200260200101516001600160a01b0316610120816001600160a01b031681525050806005815181106101e0576101e06102ff565b60209081029190910101516001600160a01b03166101405250610315565b634e487b7160e01b600052604160045260246000fd5b80516001600160a01b038116811461022b57600080fd5b919050565b60006020828403121561024257600080fd5b81516001600160401b0381111561025857600080fd5b8201601f8101841361026957600080fd5b80516001600160401b03811115610282576102826101fe565b604051600582901b90603f8201601f191681016001600160401b03811182821017156102b0576102b06101fe565b6040529182526020818401810192908101878411156102ce57600080fd5b6020850194505b838510156102f4576102e685610214565b8152602094850194016102d5565b509695505050505050565b634e487b7160e01b600052603260045260246000fd5b60805160a05160c05160e051610100516101205161014051610d416103a460003960008181610192015261059001526000818160d601526105110152600081816092015261049201526000818161012401526103f20152600081816101b9015261037301526000818161016b01526102f401526000818160fd0152818161022601526105ee0152610d416000f3fe608060405234801561001057600080fd5b50600436106100885760003560e01c80636610b0591161005b5780636610b059146101465780636a415c6514610166578063bf68c7111461018d578063f7245db4146101b457600080fd5b8063151760c71461008d5780634c9d978d146100d15780634f7de19b146100f857806358fa534e1461011f575b600080fd5b6100b47f000000000000000000000000000000000000000000000000000000000000000081565b6040516001600160a01b0390911681526020015b60405180910390f35b6100b47f000000000000000000000000000000000000000000000000000000000000000081565b6100b47f000000000000000000000000000000000000000000000000000000000000000081565b6100b47f000000000000000000000000000000000000000000000000000000000000000081565b610159610154366004610ae3565b6101db565b6040516100c89190610c4c565b6100b47f000000000000000000000000000000000000000000000000000000000000000081565b6100b47f000000000000000000000000000000000000000000000000000000000000000081565b6100b47f000000000000000000000000000000000000000000000000000000000000000081565b6060600082604001516040015160038111156101f9576101f9610c7f565b14801561021f57506000826040015160200151600381111561021d5761021d610c7f565b145b156102b0577f00000000000000000000000000000000000000000000000000000000000000006001600160a01b031663d607497a6040518163ffffffff1660e01b8152600401600060405180830381865afa158015610282573d6000803e3d6000fd5b505050506040513d6000823e601f3d908101601f191682016040526102aa9190810190610c95565b92915050565b600082604001516040015160038111156102cc576102cc610c7f565b1461044e57600182604001516040015160038111156102ed576102ed610c7f565b03610350577f00000000000000000000000000000000000000000000000000000000000000006001600160a01b031663d607497a6040518163ffffffff1660e01b8152600401600060405180830381865afa158015610282573d6000803e3d6000fd5b6002826040015160400151600381111561036c5761036c610c7f565b036103cf577f00000000000000000000000000000000000000000000000000000000000000006001600160a01b031663d607497a6040518163ffffffff1660e01b8152600401600060405180830381865afa158015610282573d6000803e3d6000fd5b600382604001516040015160038111156103eb576103eb610c7f565b0361044e577f00000000000000000000000000000000000000000000000000000000000000006001600160a01b031663d607497a6040518163ffffffff1660e01b8152600401600060405180830381865afa158015610282573d6000803e3d6000fd5b6000826040015160200151600381111561046a5761046a610c7f565b146105ec576001826040015160200151600381111561048b5761048b610c7f565b036104ee577f00000000000000000000000000000000000000000000000000000000000000006001600160a01b031663d607497a6040518163ffffffff1660e01b8152600401600060405180830381865afa158015610282573d6000803e3d6000fd5b6002826040015160200151600381111561050a5761050a610c7f565b0361056d577f00000000000000000000000000000000000000000000000000000000000000006001600160a01b031663d607497a6040518163ffffffff1660e01b8152600401600060405180830381865afa158015610282573d6000803e3d6000fd5b6003826040015160200151600381111561058957610589610c7f565b036105ec577f00000000000000000000000000000000000000000000000000000000000000006001600160a01b031663d607497a6040518163ffffffff1660e01b8152600401600060405180830381865afa158015610282573d6000803e3d6000fd5b7f00000000000000000000000000000000000000000000000000000000000000006001600160a01b031663d607497a6040518163ffffffff1660e01b8152600401600060405180830381865afa158015610282573d6000803e3d6000fd5b634e487b7160e01b600052604160045260246000fd5b60405161016081016001600160401b03811182821017156106835761068361064a565b60405290565b60405160c081016001600160401b03811182821017156106835761068361064a565b60405161018081016001600160401b03811182821017156106835761068361064a565b604051601f8201601f191681016001600160401b03811182821017156106f6576106f661064a565b604052919050565b60006001600160401b038211156107175761071761064a565b50601f01601f191660200190565b600082601f83011261073657600080fd5b8135610749610744826106fe565b6106ce565b81815284602083860101111561075e57600080fd5b816020850160208301376000918101602001919091529392505050565b6004811061078857600080fd5b50565b60006080828403121561079d57600080fd5b604051608081016001600160401b03811182821017156107bf576107bf61064a565b60405290508082356107d08161077b565b815260208301356107e08161077b565b602082015260408301356107f38161077b565b604082015260608301356108068161077b565b6060919091015292915050565b803560ff8116811461082457600080fd5b919050565b6000610160828403121561083c57600080fd5b610844610660565b82358152905061085660208301610813565b602082015261086760408301610813565b604082015261087860608301610813565b606082015261088960808301610813565b608082015261089a60a08301610813565b60a08201526108ab60c08301610813565b60c08201526108bc60e08301610813565b60e08201526108ce6101008301610813565b6101008201526108e16101208301610813565b6101208201526108f46101408301610813565b61014082015292915050565b8035801515811461082457600080fd5b600060c0828403121561092257600080fd5b61092a610689565b82358152905060208201356001600160401b0381111561094957600080fd5b820160c0818503121561095b57600080fd5b610963610689565b61096c82610813565b815261097a60208301610813565b602082015261098b60408301610813565b604082015261099c60608301610813565b60608201526109ad60808301610813565b608082015260a08201356001600160401b038111156109cb57600080fd5b80830192505084601f8301126109e057600080fd5b81356001600160401b038111156109f9576109f961064a565b8060051b610a09602082016106ce565b91825260208185018101929081019088841115610a2557600080fd5b6020860195505b83861015610a4e57610a3d86610813565b825260209586019590910190610a2c565b60a0850152505050602083015250610a6860408301610813565b6040820152610a7960608301610900565b6060820152610a8a60808301610900565b6080820152610a9b60a08301610900565b60a082015292915050565b803563ffffffff8116811461082457600080fd5b803561ffff8116811461082457600080fd5b80356001600160a01b038116811461082457600080fd5b600060208284031215610af557600080fd5b81356001600160401b03811115610b0b57600080fd5b82016103208185031215610b1e57600080fd5b610b266106ab565b81356001600160401b03811115610b3c57600080fd5b610b4886828501610725565b82525060208281013590820152610b62856040840161078b565b6040820152610b748560c08401610829565b60608201526102208201356001600160401b03811115610b9357600080fd5b610b9f86828501610910565b608083015250610bb26102408301610aa6565b60a0820152610bc46102608301610aba565b60c0820152610bd66102808301610aba565b60e0820152610be86102a08301610900565b610100820152610bfb6102c08301610900565b6101208201526102e0820135610140820152610c1a6103008301610acc565b610160820152949350505050565b60005b83811015610c43578181015183820152602001610c2b565b50506000910152565b6020815260008251806020840152610c6b816040850160208701610c28565b601f01601f19169190910160400192915050565b634e487b7160e01b600052602160045260246000fd5b600060208284031215610ca757600080fd5b81516001600160401b03811115610cbd57600080fd5b8201601f81018413610cce57600080fd5b8051610cdc610744826106fe565b818152856020838501011115610cf157600080fd5b610d02826020830160208601610c28565b9594505050505056fea264697066735822122037337cff09b1d3b7ecc49abdb28899318826885a9e48cf6bd8d4a7d9ac82634464736f6c634300081c0033",
  "linkReferences": {},
  "deployedLinkReferences": {}
}