{
  "_format": "hh-sol-artifact-1",
  "contractName": "RenderShield1",
  "sourceName": "contracts/Renderers/RenderShield1.sol",
  "abi": [
    {
      "inputs": [
        {
          "components": [
            {
              "internalType": "string",
              "name": "name",
              "type": "string"
            },
            {
              "internalType": "uint256",
              "name": "id",
              "type": "uint256"
            },
            {
              "components": [
                {
                  "internalType": "enum MainWeapon",
                  "name": "mainWeapon",
                  "type": "uint8"
                },
                {
                  "internalType": "enum Armor",
                  "name": "armor",
                  "type": "uint8"
                },
                {
                  "internalType": "enum Shields",
                  "name": "shields",
                  "type": "uint8"
                },
                {
                  "internalType": "enum Special",
                  "name": "special",
                  "type": "uint8"
                }
              ],
              "internalType": "struct Equipment",
              "name": "equipment",
              "type": "tuple"
            },
            {
              "components": [
                {
                  "internalType": "uint256",
                  "name": "serialNumber",
                  "type": "uint256"
                },
                {
                  "components": [
                    {
                      "internalType": "uint8",
                      "name": "h1",
                      "type": "uint8"
                    },
                    {
                      "internalType": "uint8",
                      "name": "s1",
                      "type": "uint8"
                    },
                    {
                      "internalType": "uint8",
                      "name": "l1",
                      "type": "uint8"
                    },
                    {
                      "internalType": "uint8",
                      "name": "h2",
                      "type": "uint8"
                    },
                    {
                      "internalType": "uint8",
                      "name": "s2",
                      "type": "uint8"
                    },
                    {
                      "internalType": "uint8",
                      "name": "l2",
                      "type": "uint8"
                    }
                  ],
                  "internalType": "struct Colors",
                  "name": "colors",
                  "type": "tuple"
                },
                {
                  "internalType": "uint8",
                  "name": "variant",
                  "type": "uint8"
                },
                {
                  "internalType": "uint8",
                  "name": "accuracy",
                  "type": "uint8"
                },
                {
                  "internalType": "uint8",
                  "name": "hull",
                  "type": "uint8"
                },
                {
                  "internalType": "uint8",
                  "name": "speed",
                  "type": "uint8"
                }
              ],
              "internalType": "struct Traits",
              "name": "traits",
              "type": "tuple"
            },
            {
              "components": [
                {
                  "internalType": "uint32",
                  "name": "shipsDestroyed",
                  "type": "uint32"
                },
                {
                  "internalType": "uint16",
                  "name": "costsVersion",
                  "type": "uint16"
                },
                {
                  "internalType": "uint16",
                  "name": "cost",
                  "type": "uint16"
                },
                {
                  "internalType": "bool",
                  "name": "shiny",
                  "type": "bool"
                },
                {
                  "internalType": "bool",
                  "name": "constructed",
                  "type": "bool"
                },
                {
                  "internalType": "bool",
                  "name": "inFleet",
                  "type": "bool"
                },
                {
                  "internalType": "uint256",
                  "name": "timestampDestroyed",
                  "type": "uint256"
                }
              ],
              "internalType": "struct ShipData",
              "name": "shipData",
              "type": "tuple"
            },
            {
              "internalType": "address",
              "name": "owner",
              "type": "address"
            }
          ],
          "internalType": "struct Ship",
          "name": "ship",
          "type": "tuple"
        }
      ],
      "name": "render",
      "outputs": [
        {
          "internalType": "string",
          "name": "",
          "type": "string"
        }
      ],
      "stateMutability": "pure",
      "type": "function"
    }
  ],
  "bytecode": "0x6080604052348015600f57600080fd5b506158ad8061001f6000396000f3fe608060405234801561001057600080fd5b506004361061002b5760003560e01c8063ac7ae36b14610030575b600080fd5b61004361003e3660046111c4565b610059565b6040516100509190611306565b60405180910390f35b60606000604051806060016040528060288152602001611b2c602891398360800151606001516100b3576040518060400160405280601281526020017168736c283138332c203839252c203634252960701b815250610108565b60608401516020908101518051818301516040928301518351808501909452601284527168736c283138332c203839252c203634252960701b948401949094526101089360ff92831693918316921690610952565b60405180610160016040528061014081526020016119ec6101409139856080015160600151610161576040518060400160405280601281526020017168736c283139312c203833252c203533252960701b8152506101b6565b60608601516020908101518051818301516040928301518351808501909452601284527168736c283139312c203833252c203533252960701b948401949094526101b69360ff92831693918316921690610952565b604051806101c0016040528061018b815260200161442961018b913987608001516060015161020d576040518060400160405280601081526020016f68736c2835352c2034252c203530252960801b815250610260565b60608801516020908101518051818301516040928301518351808501909452601084526f68736c2835352c2034252c203530252960801b948401949094526102609360ff92831693918316921690610952565b60405180610460016040528061043481526020016115b861043491398960800151606001516102b9576040518060400160405280601281526020017168736c283230322c203739252c203436252960701b81525061030e565b60608a01516020908101518051818301516040928301518351808501909452601284527168736c283230322c203739252c203436252960701b9484019490945261030e9360ff92831693918316921690610952565b604051602001610325989796959493929190611339565b60408051601f19818403018152610460830190915261042880835290925060009190615450602083013984608001516060015161038a576040518060400160405280601081526020016f68736c2834392c2038252c203433252960801b8152506103dd565b60608501516020908101518051818301516040928301518351808501909452601084526f68736c2834392c2038252c203433252960801b948401949094526103dd9360ff92831693918316921690610952565b60405180610660016040528061062b8152602001614e2561062b9139866080015160600151610434576040518060400160405280601081526020016f68736c2837352c2032252c203334252960801b815250610487565b60608701516020908101518051818301516040928301518351808501909452601084526f68736c2837352c2032252c203334252960801b948401949094526104879360ff92831693918316921690610952565b60405180610980016040528061094d8152602001611b5461094d91398860800151606001516104e0576040518060400160405280601281526020017168736c283230382c203831252c203330252960701b815250610535565b60608901516020908101518051818301516040928301518351808501909452601284527168736c283230382c203831252c203330252960701b948401949094526105359360ff92831693918316921690610952565b6040518061090001604052806108cf81526020016133556108cf91398a608001516060015161058d576040518060400160405280601181526020017068736c283138302c2032252c203235252960781b8152506105e1565b60608b01516020908101518051818301516040928301518351808501909452601184527068736c283138302c2032252c203235252960781b948401949094526105e19360ff92831693918316921690610952565b6040516020016105f8989796959493929190611339565b60408051601f19818403018152610840830190915261080580835290925060009190613c24602083013985608001516060015161065f576040518060400160405280601281526020017168736c283230332c203338252c203230252960701b8152506106b4565b60608601516020908101518051818301516040928301518351808501909452601284527168736c283230332c203338252c203230252960701b948401949094526106b49360ff92831693918316921690610952565b604051806107c0016040528061078e81526020016124a161078e913987608001516060015161070d576040518060400160405280601281526020017168736c283230342c203137252c203137252960701b815250610762565b60608801516020908101518051818301516040928301518351808501909452601284527168736c283230342c203137252c203137252960701b948401949094526107629360ff92831693918316921690610952565b604051806108a0016040528061087181526020016145b461087191398960800151606001516107ba576040518060400160405280601181526020017068736c283231362c2037252c203134252960781b81525061080e565b60608a01516020908101518051818301516040928301518351808501909452601184527068736c283231362c2037252c203134252960781b9484019490945261080e9360ff92831693918316921690610952565b6040518061076001604052806107268152602001612c2f61072691398b6080015160600151610866576040518060400160405280601181526020017068736c283231302c203134252c2035252960781b8152506108ba565b60608c01516020908101518051818301516040928301518351808501909452601184527068736c283231302c203134252c2035252960781b948401949094526108ba9360ff92831693918316921690610952565b6040516020016108d1989796959493929190611339565b604051602081830303815290604052905060006040518060400160405280600381526020016211179f60e91b81525060405160200161091091906113e0565b60405160208183030381529060405290508383838360405160200161093894939291906113fc565b604051602081830303815290604052945050505050919050565b60606000829050600a815110156109af5760405162461bcd60e51b815260206004820152601960248201527f496e76616c69642048534c20737472696e6720666f726d617400000000000000604482015260640160405180910390fd5b6004805b8251811080156109e857508281815181106109d0576109d0611453565b6020910101516001600160f81b031916600b60fa1b14155b156109ff57806109f78161147f565b9150506109b3565b6000610a0c848484610d0d565b9050610a19826001611498565b92505b835183108015610a7e5750838381518110610a3957610a39611453565b6020910101516001600160f81b031916600160fd1b1480610a7e5750838381518110610a6757610a67611453565b6020910101516001600160f81b031916600b60fa1b145b15610a955782610a8d8161147f565b935050610a1c565b8291505b835182108015610ace5750838281518110610ab657610ab6611453565b6020910101516001600160f81b031916602560f81b14155b15610ae55781610add8161147f565b925050610a99565b6000610af2858585610d0d565b9050610aff836001611498565b93505b845184108015610b645750848481518110610b1f57610b1f611453565b6020910101516001600160f81b031916600160fd1b1480610b645750848481518110610b4d57610b4d611453565b6020910101516001600160f81b031916600b60fa1b145b15610b7b5783610b738161147f565b945050610b02565b8392505b845183108015610bb45750848381518110610b9c57610b9c611453565b6020910101516001600160f81b031916602560f81b14155b15610bcb5782610bc38161147f565b935050610b7f565b6000610bd8868686610d0d565b905060006028841115610c18576064610bf28d60056114b1565b610bfd86605f6114b1565b610c079190611498565b610c1191906114de565b9050610c47565b6064610c258d604b6114b1565b610c308660196114b1565b610c3a9190611498565b610c4491906114de565b90505b600060646002610c588e605a6114b1565b610c6387600a6114b1565b610c6d9190611498565b610c7791906114de565b610c8191906114de565b610c8c906032611498565b905060006064610c9d8d60056114b1565b610ca886605f6114b1565b610cb29190611498565b610cbc91906114de565b9050610cc783610db5565b610cd083610db5565b610cd983610db5565b604051602001610ceb939291906114f2565b6040516020818303038152906040529950505050505050505050949350505050565b600080835b83811015610dac576030868281518110610d2e57610d2e611453565b016020015160f81c10801590610d5e57506039868281518110610d5357610d53611453565b016020015160f81c11155b15610da4576030868281518110610d7757610d77611453565b0160200151610d89919060f81c611577565b60ff16610d9783600a6114b1565b610da19190611498565b91505b600101610d12565b50949350505050565b606081600003610ddc5750506040805180820190915260018152600360fc1b602082015290565b8160005b8115610e065780610df08161147f565b9150610dff9050600a836114de565b9150610de0565b60008167ffffffffffffffff811115610e2157610e21610ebe565b6040519080825280601f01601f191660200182016040528015610e4b576020820181803683370190505b5090505b8415610eb657610e60600183611590565b9150610e6d600a866115a3565b610e78906030611498565b60f81b818381518110610e8d57610e8d611453565b60200101906001600160f81b031916908160001a905350610eaf600a866114de565b9450610e4f565b949350505050565b634e487b7160e01b600052604160045260246000fd5b60405160c0810167ffffffffffffffff81118282101715610ef757610ef7610ebe565b60405290565b60405160e0810167ffffffffffffffff81118282101715610ef757610ef7610ebe565b604051601f8201601f1916810167ffffffffffffffff81118282101715610f4957610f49610ebe565b604052919050565b60048110610f5e57600080fd5b50565b600060808284031215610f7357600080fd5b6040516080810167ffffffffffffffff81118282101715610f9657610f96610ebe565b6040529050808235610fa781610f51565b81526020830135610fb781610f51565b60208201526040830135610fca81610f51565b60408201526060830135610fdd81610f51565b6060919091015292915050565b803560ff81168114610ffb57600080fd5b919050565b600081830361016081121561101457600080fd5b61101c610ed4565b83358152915060c0601f198201121561103457600080fd5b5061103d610ed4565b61104960208401610fea565b815261105760408401610fea565b602082015261106860608401610fea565b604082015261107960808401610fea565b606082015261108a60a08401610fea565b608082015261109b60c08401610fea565b60a082015260208201526110b160e08301610fea565b60408201526110c36101008301610fea565b60608201526110d56101208301610fea565b60808201526110e76101408301610fea565b60a082015292915050565b803561ffff81168114610ffb57600080fd5b80358015158114610ffb57600080fd5b600060e0828403121561112657600080fd5b61112e610efd565b9050813563ffffffff8116811461114457600080fd5b8152611152602083016110f2565b6020820152611163604083016110f2565b604082015261117460608301611104565b606082015261118560808301611104565b608082015261119660a08301611104565b60a082015260c09182013591810191909152919050565b80356001600160a01b0381168114610ffb57600080fd5b6000602082840312156111d657600080fd5b813567ffffffffffffffff8111156111ed57600080fd5b8201610320818503121561120057600080fd5b611208610ed4565b813567ffffffffffffffff81111561121f57600080fd5b8201601f8101861361123057600080fd5b803567ffffffffffffffff81111561124a5761124a610ebe565b61125d601f8201601f1916602001610f20565b81815287602083850101111561127257600080fd5b8160208401602083013760006020928201830152835283810135908301525061129e8560408401610f61565b60408201526112b08560c08401611000565b60608201526112c3856102208401611114565b60808201526112d561030083016111ad565b60a0820152949350505050565b60005b838110156112fd5781810151838201526020016112e5565b50506000910152565b60208152600082518060208401526113258160408501602087016112e2565b601f01601f19169190910160400192915050565b6000895161134b818460208e016112e2565b89519083019061135f818360208e016112e2565b8951910190611372818360208d016112e2565b8851910190611385818360208c016112e2565b8751910190611398818360208b016112e2565b86519101906113ab818360208a016112e2565b85519101906113be8183602089016112e2565b84519101906113d18183602088016112e2565b019a9950505050505050505050565b600082516113f28184602087016112e2565b9190910192915050565b6000855161140e818460208a016112e2565b855190830190611422818360208a016112e2565b85519101906114358183602089016112e2565b84519101906114488183602088016112e2565b019695505050505050565b634e487b7160e01b600052603260045260246000fd5b634e487b7160e01b600052601160045260246000fd5b60006001820161149157611491611469565b5060010190565b808201808211156114ab576114ab611469565b92915050565b80820281158282048414176114ab576114ab611469565b634e487b7160e01b600052601260045260246000fd5b6000826114ed576114ed6114c8565b500490565b630d0e6d8560e31b8152600084516115118160048501602089016112e2565b61016160f51b60049184019182015284516115338160068401602089016112e2565b6004818301019150506201296160ed1b6002820152835161155b8160058401602088016112e2565b61252960f01b6005929091019182015260070195945050505050565b60ff82811682821603908111156114ab576114ab611469565b818103818111156114ab576114ab611469565b6000826115b2576115b26114c8565b50069056fe222f3e3c7061746820643d226d313634203130372d372d31763168375a6d2d382d31762d316c2d35203120312d322d3720322d31362d3120332032683233762d315a6d2d323720332d322d322031203268315a6d2d323820302d312d312d33203168352d315a6d32362031762d31682d31763168315a6d35332033762d31682d3876326c382d315a6d2d36352032762d31682d31763168315a6d323620312d312d312d31203168322d3120315a6d2d33322d312d322d31682d31763268346c2d312d315a6d2d372030762d316c2d3420312031203120332d315a6d2d37203020312d31682d316c2d3120326831762d315a6d313020312d312d3176336c312d32682d315a6d3238203120312d32682d316c2d332032763168316c312d315a6d3235203020322d32682d316c2d33203468316c312d325a6d2d3330203120312d31682d316c2d3120326831762d315a6d353120322d322d312d3620316831302d325a6d2d34322030762d31682d31763168315a6d2d35302d3468336c2d312d322d3420312d31203276346c312d3568325a6d34312035762d31682d31763168315a6d33362031762d31682d31763168315a6d2d31302030762d31682d31763168315a6d2d33362030762d31682d31763168315a6d2d3220302d342d31763168345a6d35372031762d31682d31763168315a6d2d35322032762d31682d31763168315a6d2d33362d312d312d3176336c312d32682d315a6d3933203168326c2d352d312d31203420322d3220322d315a6d2d3520312d312d3176336c312d32682d315a6d2d36302031762d31682d31763168315a6d2d313620312d312d312d32203168335a6d37362031762d31682d31763168315a6d2d3620342d312d312d33203120342031762d315a6d2d34362d332d312d3176356c312d33762d315a6d2d32332032762d31682d3476326834762d315a6d34332033762d3168317631682d315a6d2d332d3120312d312d33203120322d3568316c2d31203268327634682d32762d315a6d31312034762d3168326c312032682d33762d315a6d2d352038762d31682d326c312d3220332031203320332d312d3568326c3620312d322d332d322d313020322d322d312d312d352031203120322d322031762d326c2d322031762d316c332d332d342d342d3420362d332d312d3220372d322d3476336c33203376326c2d342d312031203220362d312d332032203320332d3120332d342d3176316c34203220362d31762d315a6d342035762d31682d31763168315a6d2d392035762d31682d31763168315a6d2d313320372d322d32682d31326c2d382d38682d346c2d3220334838346c2d312d34682d34762d333868346c312d3268356c352d366831336c34203568396c372d386833386c3220332d32203220332d3276346c342d3468356c3720387632376c2d38203876376c2d3820372d3620322d333520312d312d325a22207374796c653d2266696c6c3a222f3e3c7061746820643d226d313339203132392d322d32763268325a6d2d322032762d31682d31763168315a6d2d33392031762d31682d3476326834762d315a6d3535203130762d31682d31763168315a6d2d31312032762d316c342d3320332d3620342032762d316c2d322d3220322d35682d326c2d3120342d3420312d322d3120312d31302d3220312d312038203320362d3120322d352d322d342d3476326c3620352d31203620322d31762d315a6d362037762d31682d31763168315a6d2d32322031322d322d32682d31326c2d382d38682d336c2d332033483834762d33682d35762d33396c31302d3220352d356831326c35203568386c382d386833376c342032763368326c312d3268366c3720377632386c2d38203776376c2d3820372d3620322d333520312d312d325a22207374796c653d2266696c6c3a3c7061746820643d224d3835203131366838317633354838357a22207374796c653d2266696c6c3a222f3e3c7061746820643d224d31363720313037762d31682d326c3120326831762d315a6d39203320312d312d342d31763268335a6d2d38322030762d31682d31763168315a6d373820302d312d3176336c312d32682d315a6d2d382031762d31682d31763168315a6d2d322d35762d3168317631682d315a6d2d33332030762d3168317631682d315a6d32342034762d3168317631682d315a6d2d3420302d332d3368336c32203468356c2d312d35683276366c312d3520362032762d35682d33366c2d35203520362d322d31203220322032762d3468346c332d322d3120322032203120372d312d312033682d356c312d322d3220317632683131762d315a6d313120302d312d3176346c312d31762d325a6d2d333320302d312d3176326c31203120312d312d312d315a6d2d3235203020312d3176346c322d32762d33682d3976316c32203368336c312d325a6d32332035762d316c2d36203120362031762d315a6d35302d3176316c332d3268326c2d3120336832762d34682d3976366c322d3576315a6d2d34372033762d31682d31763168315a6d2d31312d3268316c2d322d3120322d322d34203176356c312d3368325a6d2d3420302d312d3176346c312d31762d325a6d392033762d31682d31763168315a6d2d343020302d312d312d32203168335a6d3237203020322d32762d32682d35763668316c322d325a6d3732203220312d31682d313076326839762d315a6d2d38342d33762d3168317631682d315a6d332031762d316c3120312d312032762d325a6d2d313220312d312d312d322d326834763468346c2d312d3120322d3376356c322d3376326836762d326c31203220322d31762d354838356c2d31203276356c342d312d312d315a6d33302032762d31682d3676326836762d315a6d2d3720302d312d3176336c312d32682d315a6d36203320312d31682d316c2d3120326831762d315a6d34312032762d31682d31763168315a6d2d37302030762d31682d31763168315a6d37322032762d31682d31763168315a6d2d33312d31762d31682d316c2d3120326832762d315a6d2d333320312d312d312d32203220342d31682d315a6d3832203220312032762d35682d3376356c312d34203120325a6d2d31302d31762d32682d376c372d32762d37682d346c332d32682d336c332d32682d3376386c322d32203120332d342d322d32203376346c3320312d322031203220316834762d325a6d2d343120312d312d3176336c312d32682d315a6d33312d3130762d3168317631682d315a6d2d33332036762d316c3220312d312d3568316c3320332d322d3468346c2d312d3120342d33203320322d322032682d336c2d33203620372d3720372d312d31203220342d322038203620312d312d392d362037203176326c332033203420332d312d3220312d3620322032762d346c2d33332d312d362036682d3476336c332d3320312032682d326c312032682d346c3520332d3120322031203220312d34762d315a6d35362036762d31682d31763168315a6d2d393120302d312d312d32203168335a6d333420312d312d3176336c312d32682d315a6d2d322031762d326c312d34682d326c312d32682d3276386832762d315a6d2d33322030762d31682d31763168315a6d38352d322d312d3276366c312d332d312d325a6d2d373720302d322d322d3320332031203120332d3176336c322d332d312d315a6d383220342d312d312d31203168322d3120315a6d2d35342d312d312d3176346c312d32762d315a6d34322032762d31682d34762d326c332d32682d326c2d332d312031203768346c312d315a6d2d36312031762d31682d31763168315a6d36392030762d31682d3276326832762d315a6d2d35332d31762d316c2d3120312031203320312d33682d315a6d35312d3876316c322d3568346c312033762d346c2d3320312d332d332d32203268336c2d3320342d312d367632306c312d3134203120315a6d2d36312031762d336c3120332d312033762d335a6d30203420332d32203120327631682d34762d315a6d302036762d316c3220317631682d32762d315a6d332031762d316c322033762d336c2d352d31762d3368346c312033762d3133682d367631356c3120316833762d315a6d2d3131203120312d314839366c2d342031683133762d315a6d2d313420302d312d312d33203120342031762d315a6d342d31386831307631316c312031762d31336c2d32322d317632326c312d32306831305a6d39203230762d31682d31763168315a6d2d3420302d322d312d3620316831302d325a6d2d313020302d312d312d33203168352d315a6d3636203120312d31682d316c2d3120326831762d315a6d2d323620312d322d322031203268315a6d2d342d332d362d37763868326c2d312d3368316c3320322d33203420342d335a6d2d352033762d31682d31763168315a6d2d362d3268316c2d31203320322d3120312d33682d3676346c312d3368325a6d33392034762d31682d31763168315a6d302d313620312d3120312031682d3320315a6d2d3520313620322d3120352d3420322d382d312d35682d346c332d312d352d3676326c2d332d3120312d312d382d3120312031682d326c2d362036762d326c2d3320337632682d3276346c3220382037203568396c322d315a6d2d313520302d322d312031203268326c2d312d315a6d2d3620312d332d322032203268315a6d33312032762d31682d31763168315a6d2d313820302d312d312d33203120342031762d315a6d2d313120302d312d312d31203168325a6d31382030762d31682d326c3120326831762d315a6d31302032762d31682d31763168315a6d2d3220302d312d312d33203120342031762d315a6d2d323420302d312d312d31203168322d3120315a6d372033762d31682d31763168315a6d32312033762d31682d31763168315a6d2d32372d31762d32682d3476326c332d3176326831762d315a6d323420312d312d3176336c312d32682d315a6d2d3320312d312d3120312d332d3320322d37203120312d31682d3876326831386c2d312d315a6d2d31392d3120312d32682d3276336831762d315a6d2d3920342d312d32682d31336c2d372d38682d356c2d3220334838346c2d312d34682d34762d333868346c312d3268356c352d366831336c34203568396c372d386833386c33203476336c342d3368356c3320322033203420312032382d38203876376c2d3820372d3620322d333520312d312d325a22207374796c653d2266696c6c3a222f3e3c7061746820643d226d313037203130392d312d3176336c312d32682d315a6d363520302d312d3176346c312d31762d325a6d2d382d33762d3168317631682d315a6d2d33322034762d3168317631682d315a6d32342030762d336c322036762d356c31203520342d3476326c342031762d356c2d332d33682d33366c2d3320332d34203520352d3220312032683239762d335a6d2d35312030762d32682d3976346839762d325a6d37312030762d3168317631682d315a6d312037762d3168316c332033762d37682d356c332d312d312d33682d3576336c322d3120312032682d34763668366c2d312d315a6d2d3533203020312d31762d326c2d36203120352031682d33763268316c322d315a6d2d382d33762d3168317631682d315a6d32203220312d322d322d322d33203176356c342d31762d315a6d2d33362032762d31682d3276326832762d315a6d32362031762d316c32203120312d3320322033762d35682d3776366832762d315a6d2d3231203120322d327633683136762d374838356c2d3220332031203468326c312d315a6d33322031762d31682d3976326839762d315a6d2d312034762d31682d36763168365a6d353220342d312d3176336c312d32682d315a6d313120302d312d3176356c312d33762d315a6d2d342030762d3168317631682d315a6d322031762d33682d3376356c322d3276326831762d325a6d2d39203130762d31682d31763168315a6d2d322030762d31682d31763168315a6d352d38762d326c3120332d312031762d325a6d302036762d3368336c2d32203376326c332d322d312032682d33762d325a6d302035762d316c33203220352d34762d346c2d322d332d342031762d386c2d322031762d33683276336c352d32763268326c2d312d34682d38762d326839762d32682d313076323568326c2d312d315a6d2d36302d39762d3168317631682d315a6d2d312032763668366c312d34762d31316c2d362d312d3320337631366c322d313676375a6d2d32342d31302d312d3176336c312d32682d315a6d3820322d312d312d32203220342d31682d315a6d2d3620342d312d312d32203168335a6d38203268316c2d312d34682d3476326c2d3120336835762d315a6d2d3820302d312d3176356c312d33762d315a6d39203320322d32762d336c2d3320342d3320322d332d322032203268336c322d315a6d2d313120312d312d3176336c312d32682d315a6d2d332032762d31356832306c2d312031362d313820312d312d325a6d3232203320312d31682d32762d326c322d33682d326c312d31354838347632326832336c312d315a6d3131203220312d32682d3776336836762d315a6d2d372031762d31682d31763168315a6d31352035762d31682d31763168315a6d2d333720302d332d312d322d33763468382d335a6d3731203120312d32682d34763368326c312d315a6d2d3520312d312d312d33203168352d315a6d2d352d3334762d3168317631682d315a6d31352032762d3168317631682d315a6d2d32392d3120312d312d34203120312d33203420322031302d31203120332d392d312d34203120312d315a6d2d322032762d3168317631682d315a6d32302032762d3168317631682d315a6d3131203320312d3120312031682d3420325a6d2d362d312d312d322d33203220322d322d332d34682d326c3120332d322d3220322d322036203620342d35762d346c3120342d34203520312033682d316c2d312d325a6d2d3332203135762d3168317631682d315a6d33372033762d316c3120312d312032762d325a6d2d39203420342d35762d356c322034762d376c2d332d372032203220322d31203120382d33203968366c312d332d322d3620332031762d32682d356c352d32762d32682d356c352d31762d3133682d336c332d31762d33682d33386c2d362036682d3476346c322032682d3276396834762d346c332d372d312d31762d32683276336c332d33203220332d342d31203120342d322d312d31203320322d312d3220332d312d33203120392d322d352031203920342037683376326c3620326831316c352d355a6d2d33312d32762d3168317631682d315a6d2d332d31762d316c3220317631682d32762d315a6d3920352d342d33762d316c2d322d3130682d347631316c3520312035203568336c2d332d335a6d2d33362034762d31682d31763168315a6d343620322d312d312d31203168322d3120315a6d2d313720312d312d312d33203120342031762d315a6d2d352030762d31682d31763168315a6d353020302d312d3176356c312d33762d315a6d2d352031762d33682d3276336c2d322d3276346834762d325a6d2d352031762d32682d3276336832762d315a6d2d3320302d312d32682d31377633683138762d315a6d2d31392030762d316c2d322d3276346832762d315a6d2d332d312d312d322d332d3176356834762d325a6d2d3720352d312d32682d31336c2d372d38682d356c2d3220334838346c2d312d34682d34762d333868346c322d3268396c312d33682d326c2d322033762d326c342d346831326c34203568396c382d386833376c33203476336c342d3368356c3620367632396c2d37203776376c2d3820372d3620322d333520312d312d325a22207374796c653d2266696c6c3a222f3e3c7061746820643d226d3135372031303420332d3120352031682d313120335a6d2d35203020312d3120312031682d3320315a6d313420322d312d31203320317631682d316c2d312d315a6d2d34342033762d3168317631682d315a6d33362031762d316c3120312d312032762d325a6d2d313120353520312d3120312031682d3320315a6d2d392030762d3168317631682d315a6d2d34322d3537762d31682d31763168315a6d38362038762d326c2d362d372d332031682d3276346c322d322d312034682d32762d32682d326c32203520322d327633683130762d325a6d2d35382032762d326833762d33682d3776356c3120316833762d315a6d3439203420312d3120312031682d3320315a6d342035762d3168317631682d315a6d302032762d3168317631682d315a6d302032762d3168317631682d315a6d322031762d316c3120312d312032762d325a6d2d332031762d3168317631682d315a6d32203920312d3168316c2d312032682d31762d315a6d30203220342d33762d3139682d346c342d31762d32682d31307632346c2d3420342032203168346c342d345a6d2d36322d323120312d3120312031682d325a6d2d34203320312d31203220312d34203120312d315a6d372032352d312d312d342d312d332033762d356838762d34682d386c382d312d312d3232682d387633316c31203168386c2d312d315a6d2d362d3336762d3168317631682d315a6d2d3134203131762d3168317631682d315a6d2d31312030762d3168317631682d315a6d372034762d3168317631682d315a6d332031762d3168317631682d315a6d2d362031762d3168317631682d315a6d31342035762d3168317631682d315a6d2d38203120312d31682d366c3120316834762d315a6d2d31322d342d312d3720322d33763468326c332032762d346c3120332d3320322d332d3276326c332037762d346c31203268326c2d312d322034203320342d352d31203520322d332d312d342d362d3420312d3168336c2d3120312035203476366c2d3520332d362d31682d33762d336c2d322036762d375a6d31382d31762d386c312d317631366c2d32203120312d385a6d35203137762d326c2d322d3148383776326c2d342d3420312d316832346c312d32324838346c32352d31762d326834762d336c33203420322d3120312d372d3720322d32362d312d3320337633356c3120316832346c312d325a6d36342033762d31682d31763168315a6d2d342030762d31682d31763168315a6d2d3520302d312d312d31203168322d3120315a6d2d33382d3331762d3168317631682d315a6d33352031762d3168317631682d315a6d2d3337203130762d316c3120312d312032762d325a6d34312033762d3168317631682d315a6d2d34312031762d316c3120312d312032762d325a6d33372030762d326c322d332d312037682d31762d325a6d2d33332039762d3168317631682d315a6d33312032762d3168317631682d315a6d2d332030762d3168317631682d315a6d2d32372030762d3168317631682d315a6d332033762d3168317631682d315a6d32342031762d3168317631682d315a6d352030762d316c392d39762d32346c2d332d34682d33376c2d362036682d3476323768366c2d3420342d322d3276336834762d326c332033683334762d315a6d2d373420322d312d312d32203168335a6d31302030762d31682d3476326c342d315a6d2d352030762d31682d3476326834762d315a6d38312032762d31682d31763168315a6d2d34362031762d31682d31763168315a6d2d322d312d312d312d342d32763468356c2d312d3168315a6d2d362d31762d32682d3276346832762d325a6d2d352030762d32682d356c2d312032203220326834762d325a6d31332034762d31682d31763168315a6d2d322030762d31682d31763168315a6d2d313120302d312d312d33203120342031762d315a6d392030762d31682d356c3320326832762d315a6d2d352030762d31682d326c2d3120326833762d315a6d35302031762d316833762d326c2d332d32682d3276366832762d315a6d2d36203220322d31762d36682d35763868326c312d315a6d2d32372031762d31682d31763168315a6d2d342d31762d3168317631682d315a6d322d32762d35682d3576396835762d345a6d2d3720332d312d32682d31336c2d372d38682d356c2d3220334838346c2d312d34682d356c342d31762d33682d346c342d31682d33762d336832762d346c2d332d3120342d332d312d382d332d3120332d36682d336c342d32762d33682d33762d3268346c312d3268356c352d366831336c3120322d313320312d312d312d3420346831396c2d312d33203220332031322d317631683436762d326c352d3468336c3720387632386c2d3820387638682d3376326c2d3520332d372032682d35762d356c31203420322d31762d38682d323076336c2d332d33682d3176376c332d327635682d31306c2d312d325a22207374796c653d2266696c6c3a222f3e3c7061746820643d224d31363720313037762d31682d326c3120326831762d315a6d39203320312d312d342d31763268335a6d2d38322030762d31682d31763168315a6d373820302d312d3176336c312d32682d315a6d2d382031762d31682d31763168315a6d2d322d35762d3168317631682d315a6d2d33332030762d3168317631682d315a6d32342034762d3168317631682d315a6d2d3420302d332d3368336c32203468356c2d312d35683276366c312d3520362032762d35682d33366c2d35203520362d322d31203220322032762d3468346c332d322d3120322032203120372d312d312033682d356c312d322d3220317632683131762d315a6d313120302d312d3176346c312d31762d325a6d2d333320302d312d3176326c31203120312d312d312d315a6d2d3235203020312d3176346c322d32762d33682d3976316c32203368336c312d325a6d32332035762d316c2d36203120362031762d315a6d35302d3176316c332d3268326c2d3120336832762d34682d3976366c322d3576315a6d2d34372033762d31682d31763168315a6d2d31312d3268316c2d322d3120322d322d34203176356c312d3368325a6d2d3420302d312d3176346c312d31762d325a6d392033762d31682d31763168315a6d2d343020302d312d312d32203168335a6d3237203020322d32762d32682d35763668316c322d325a6d3732203220312d31682d313076326839762d315a6d2d38342d33762d3168317631682d315a6d332031762d316c3120312d312032762d325a6d2d313220312d312d312d322d326834763468346c2d312d3120322d3376356c322d3376326836762d326c31203220322d31762d354838356c2d31203276356c342d312d312d315a6d33302032762d31682d3676326836762d315a6d2d3720302d312d3176336c312d32682d315a6d36203320312d31682d316c2d3120326831762d315a6d34312032762d31682d31763168315a6d2d37302030762d31682d31763168315a6d37322032762d31682d31763168315a6d2d33312d31762d31682d316c2d3120326832762d315a6d2d333320312d312d312d32203220342d31682d315a6d3832203220312032762d35682d3376356c312d34203120325a6d2d31302d31762d32682d376c372d32762d37682d346c332d32682d336c332d32682d3376386c322d32203120332d342d322d32203376346c3320312d322031203220316834762d325a6d2d343120312d312d3176336c312d32682d315a6d33312d3130762d3168317631682d315a6d2d33332036762d316c3220312d312d3568316c3320332d322d3468346c2d312d3120342d33203320322d322032682d336c2d33203620372d3720372d312d31203220342d322038203620312d312d392d362037203176326c332033203420332d312d3220312d3620322032762d346c2d33332d312d362036682d3476336c332d3320312032682d326c312032682d346c3520332d3120322031203220312d34762d315a6d35362036762d31682d31763168315a6d2d393120302d312d312d32203168335a6d333420312d312d3176336c312d32682d315a6d2d322031762d326c312d34682d326c312d32682d3276386832762d315a6d2d33322030762d31682d31763168315a6d38352d322d312d3276366c312d332d312d325a6d2d3737203220312d312d332d332d3320332032203268336c312d315a6d383220322d312d312d31203168322d3120315a6d2d35342d312d312d3176346c312d32762d315a6d34322032762d31682d34762d326c332d32682d326c2d332d312031203768346c312d315a6d2d36312031762d31682d31763168315a6d36392030762d31682d3276326832762d315a6d2d35332d31762d316c2d3120312031203320312d33682d315a6d35312d3876316c322d3568346c312033762d346c2d3320312d332d332d32203268336c2d3320342d312d367632306c312d3134203120315a6d2d36312031762d336c3120332d312033762d335a6d30203420332d32203120327631682d34762d315a6d302036762d316c3220317631682d32762d315a6d332031762d316c322033762d336c2d352d31762d3368346c312033762d3133682d367631356c3120316833762d315a6d2d3131203120312d314839366c2d342031683133762d315a6d2d313420302d312d312d33203120342031762d315a6d342d31386831307631316c312031762d31336c2d32322d317632326c312d32306831305a6d39203230762d31682d31763168315a6d2d3420302d322d312d3620316831302d325a6d2d313020302d312d312d33203168352d315a6d33362d312d362d37763868326c2d312d3368316c3320322d33203420342d335a6d2d352033762d31682d31763168315a6d2d362d3268316c2d31203320322d3120312d33682d3676346c312d3368325a6d313320352d332d322032203268315a6d33312032762d31682d31763168315a6d2d323920302d312d312d31203168325a6d342d33762d3168317631682d315a6d3138203120342d322d312d332032203120322d352d312d382d312d352d32203220312d322d352d342d372d332d3820322d3420332d34203820312039203120342d322d322031203220322d3176326c3520342036203168376c332d335a6d362034762d31682d31763168315a6d2d3220302d312d312d33203120342031762d315a6d2d323420302d312d312d31203168322d3120315a6d372033762d31682d31763168315a6d32312033762d31682d31763168315a6d2d32372d31762d32682d3476326c332d3176326831762d315a6d323420312d312d3176336c312d32682d315a6d2d3320312d312d3120312d332d3320322d37203120312d31682d3876326831386c2d312d315a6d2d31392d3120312d32682d3276336831762d315a6d2d3920342d312d32682d31336c2d372d38682d356c2d3220334838346c2d312d34682d34762d333868346c312d3268356c352d366831336c34203568396c372d386833386c33203476336c342d3368356c3320322033203420312032382d38203876376c2d3820372d3620322d333520312d312d325a22207374796c653d2266696c6c3a222f3e3c7061746820643d226d313037203130392d312d3176336c312d32682d315a6d363520302d312d3176346c312d31762d325a6d2d382d33762d3168317631682d315a6d2d33322034762d3168317631682d315a6d32342030762d336c322036762d356c31203520342d3476326c342031762d356c2d332d33682d33366c2d342033203320312d31203220312032683239762d335a6d2d35312030762d32682d3976346839762d325a6d37312030762d3168317631682d315a6d312037762d3168316c332033762d37682d356c332d312d312d33682d3576336c322d3120312032682d34763668366c2d312d315a6d2d3533203020312d31762d326c2d36203120352031682d33763268316c322d315a6d2d382d33762d3168317631682d315a6d32203220312d322d322d322d33203176356c342d31762d315a6d2d33362032762d31682d3276326832762d315a6d32362031762d316c32203120312d3320322033762d35682d3776366832762d315a6d2d3231203120322d327633683136762d374838356c2d3220332031203468326c312d315a6d33322031762d31682d3976326839762d315a6d333620312d312d32682d326c33203468326c2d322d325a6d2d33372033762d31682d36763168365a6d353220342d312d3176336c312d32682d315a6d313120302d312d3176356c312d33762d315a6d2d342030762d3168317631682d315a6d322031762d33682d3376356c322d3276326831762d325a6d2d31392032762d31682d31763168315a6d31302038762d31682d31763168315a6d2d322030762d31682d31763168315a6d2d372d32762d346c2d322033203120346831762d345a6d2d312035762d31682d31763168315a6d31332d3131762d326c3120332d312031762d325a6d302036762d3368336c2d32203376326c332d322d312032682d33762d325a6d302035762d316c33203220352d34762d346c2d322d332d342031762d386c2d322031762d33683276336c352d32763268326c2d312d34682d38762d326839762d32682d313076323568326c2d312d315a6d2d36302d39762d3168317631682d315a6d2d312032763668366c312d34762d31316c2d362d312d3320337631366c322d313676375a6d2d32342d31302d312d3176336c312d32682d315a6d3820322d312d312d32203220342d31682d315a6d2d3620342d312d312d32203168335a6d38203220312d312d332d332d3320332032203268336c312d315a6d2d3820302d312d3176356c312d33762d315a6d39203320322d32762d336c2d3320342d3320322d332d322032203268336c322d315a6d2d313120312d312d3176336c312d32682d315a6d2d332032762d31356832306c2d312031362d313820312d312d325a6d3232203320312d31682d32762d326c322d33682d326c312d31354838347632326832336c312d315a6d34332d3234762d3168317631682d315a6d2d31302030762d3168317631682d315a6d32352032762d3168317631682d315a6d2d3336203320332d3376326c2d3320315a6d3336203320312d3120312031682d3420325a6d2d31203137762d316c3120312d312032762d325a6d32203120312d322d322d3620332031762d32682d356c352d32762d32682d356c352d31762d3133682d336c332d31762d33682d33386c2d362036682d3476356c322031682d3276396834762d346c342d372d322d31762d3268326c3120342d33203476326c362d3820352d342d34203120312d332036203320322d3120352d312033203220332d312036203620342d35762d346c3120342d342034203120342d342d3576336c33203420322d31203120372d332031306836762d325a6d2d3438203020312d32682d3776336836762d315a6d2d372031762d31682d31763168315a6d31352035762d31682d31763168315a6d2d333720302d332d312d322d33763468382d335a6d3731203120312d32682d34763368326c312d315a6d2d3520312d312d312d33203168352d315a6d2d32362d38762d316c312d3120312033682d316c2d312d315a6d352033762d3168317631682d315a6d31342035762d316c382d352d312d332032203120322d352d312d382d312d352d32203220312d322d352d342d372d332d3820322d3420332d34203820312031302d322d322d322d39203120392035203820312d312036203320382031763168325a6d2d3720302d312d312d31203168322d3120315a6d2d31372d37762d3168317631682d315a6d2d332d31762d316c3220317631682d32762d315a6d3920352d342d33762d316c2d322d3130682d347631316c3520312035203568336c2d332d335a6d2d33362034762d31682d31763168315a6d343620322d312d312d31203168322d3120315a6d2d313720312d312d312d33203120342031762d315a6d2d352030762d31682d31763168315a6d353020302d312d3176356c312d33762d315a6d2d352031762d33682d3276336c2d322d3276346834762d325a6d2d352031762d32682d3276336832762d315a6d2d3320302d312d32682d31377633683138762d315a6d2d31392030762d316c2d322d3276346832762d315a6d2d332d312d312d322d332d3176356834762d325a6d2d3720352d312d32682d31336c2d372d38682d356c2d3220334838346c2d312d34682d34762d333868346c322d3268396c312d33682d326c2d322033762d326c342d346831326c3420356831306c312d33203320312d312d3220342d346833376c33203476336c342d3368356c3620367632396c2d37203776376c2d3820372d3620322d333520312d312d325a22207374796c653d2266696c6c3a222f3e3c7061746820643d224d393820313332762d31682d3476326834762d315a6d34332033762d3168317631682d315a6d2d332d3120312d312d33203120322d3568316c2d31203268327634682d32762d315a6d31312034762d3168326c312032682d33762d315a6d2d352038762d31682d326c312d3220332031203320332d312d3568326c3620312d322d332d322d313020322d322d312d312d352031203120322d322031762d326c2d322031762d316c332d332d342d342d3420362d332d312d3220372d322d3476336c33203376326c2d342d312031203220362d312d332032203320332d3120332d342d3176316c34203220362d31762d315a6d342035762d31682d31763168315a6d2d32322031322d322d32682d31326c2d382d38682d336c2d332033483834762d33682d35762d33396c31302d3220352d356831326c35203568386c382d386833376c342032763368326c312d3268366c3720377632386c2d38203776376c2d3820372d3620322d333520312d312d325a22207374796c653d2266696c6c3a222f3e3c7061746820643d226d3132382031303420312d3120312031682d3320315a6d2d34203320312d3268316c2d322034682d326c322d325a6d33382033762d3168317631682d315a6d31302d312d312d3176346c312d31762d325a6d2d36332032762d316c2d332d3276356c322d3120312d315a6d2d342d31762d32682d3976346839762d325a6d36352035762d31682d31763168315a6d362d35762d3168317631682d315a6d35203620312d322d312d32682d356c332d322d312d32682d356c2d31203676346839762d325a6d2d3539203020312d3120312031682d325a6d32203120312d31762d316c2d352d3176336c31203168316c322d315a6d2d36203068316c2d312d34682d3476366c332d3268315a6d2d333620312d322d3276336832762d315a6d32332d32762d3168317631682d315a6d302033762d3168317631682d315a6d332031762d326c332032762d346c322034762d366c2d32382d312d32203420312034683234762d315a6d38203320312d3120312031682d3420325a6d332030762d33682d3976346c322d3276336837762d325a6d2d382032762d31682d31763168315a6d2d33302037762d31682d31763168315a6d302039762d31682d31763168315a6d32352d31762d3168317631682d315a6d2d31382d31342d312d3176336c312d32682d315a6d3920322d322d312d32203268366c2d322d315a6d2d392032762d31682d31763168315a6d3130203468316c2d312d34682d346c2d312033203220326833762d315a6d2d382030762d33682d326c3120366831762d335a6d332032762d3168317631682d315a6d36203120322d32762d346c2d322d31203120342d332033682d33762d32682d326c2d312d3576356c33203368336c322d315a6d2d342033762d31682d31763168315a6d2d372d322d312d3176346c312d32762d315a6d2d3220322d312d31762d31346832307631356c2d32203120312d382d322d317639682d346c332d31762d316c2d3720322d312d322d342032682d33762d315a6d32302032762d3168317631682d315a6d322d31762d34682d326c312d32762d31324838336c31203231683234762d335a6d31312034762d32682d3776346c362d31762d3168315a6d2d372d3976366836762d31356c2d362d3176336c2d322d327632306c312d3138203120375a6d36322d31302d322d322033203220342031682d346c2d312d325a6d332033762d3168317631682d315a6d2d322030762d316c3120312d312032762d325a6d2d312037762d3168317631682d315a6d2d3120332d312d31203320317631682d316c2d312d315a6d312035762d316c3120312d312032762d325a6d342d3120342d34762d34682d326c322d332d322d347635682d35762d316c332d3220312033762d356c332d31762d35682d396c392d31762d32682d3130763236682d326c31203268336c342d345a6d2d31362036762d31682d31763168315a6d2d3320302d312d312d31203168322d3120315a6d2d33342030762d31682d31763168315a6d2d313720312d322d3276336c2d322d32763268345a6d2d352030762d32682d356c2d352d3120332032682d35762d326c2d352033762d32682d327634683139762d325a6d35382032762d32682d3476346c332d3120312d315a6d362d333420312d3120312031682d3320315a6d2d3232203120312d3120312031682d3320315a6d31382031762d316c3120312d312032762d325a6d2d382032762d3168317631682d315a6d2d32392030762d3168326c2d312032682d31762d315a6d34322030762d326c3120322d312033762d335a6d2d38203120312d3168316c2d312032682d31762d315a6d35203420312d3120312031682d3420325a6d2d362030762d3168317631682d315a6d2d33332030762d3168317631682d315a6d2d312032762d316c3120312d312032762d325a6d34312033762d3168317631682d315a6d2d322030762d3168317631682d315a6d32203420322d31762d356c312036682d3620335a6d302036762d3168317631682d315a6d2d322032762d3168317631682d315a6d2d382038762d316c2d35203220362d3768326c322d37762d386c32203176366c2d332037763268346c332d3220332d34762d32336c2d332d34682d33376c2d362036682d347631356834762d33683176396c3420362033203320362033683138762d315a6d2d33342d36762d3168317631682d315a6d352035762d3268316c312033682d32762d315a6d332d312d342d342d322d3130682d3476313168366c2d3120342032203268366c2d342d345a6d2d313120342d312d312d32203168335a6d2d32352030762d31682d31763168315a6d2d322030762d31682d31763168315a6d2d3220302d312d312d32203168335a6d2d332030762d31682d31763168315a6d353320322d312d312d31203168322d3120315a6d2d313520302d312d3176336c312d32682d315a6d2d322030762d31682d3376326833762d315a6d2d3420312d322d32763268325a6d2d372d31762d3168317631682d315a6d31203068316c2d322d322d32203368335a6d35352032762d336c2d32203476316832762d335a6d2d352030762d33682d3476356c3320316831762d335a6d2d352031762d336c2d3231203176316c2d332d3376366832336c312d325a6d2d32352d31762d33682d3476366834762d335a6d323020352d312d312d31203168322d3120315a6d2d323720302d312d32682d31336c2d372d38682d356c2d3220334838346c2d312d34682d34762d32326c322d312d322d31762d313468346c322d32683130762d33682d326c2d322033762d326c342d346831326c342036203434203120322d3376336c322d3576346838762d356c2d332d33682d32326c32322d312034203476336c342d3368356c3620367632396c2d37203776376c2d3820372d3620322d333520312d312d325a22207374796c653d2266696c6c3a222f3e3c7061746820643d224d31363220313035762d31682d31763168315a6d2d33342033762d3168317631682d315a6d342d3168326c332d322d3120332032312d3176316c372d312d352d312d312d312d32392d31203120342d332d332031203520322d3368325a6d2d323820322d322d312d35203168382d315a6d2d372030762d31682d31763168315a6d37392031762d31682d31763168315a6d2d333420302d312d312d31203168322d3120315a6d2d31352030762d31682d31763168315a6d333320302d312d3176336c312d32682d315a6d2d35362031762d31682d31763168315a6d31342032762d31682d31763168315a6d353920316834762d32682d3976346c322d33203320315a6d2d323520322d322d312d35203168392d325a6d2d3720302d312d312d33203168345a6d2d33302d312d312d3176336c312d32682d315a6d2d322031762d31682d31763168315a6d2d332d31762d31682d3476326834762d315a6d33322033762d31682d31763168315a6d2d322030762d31682d31763168315a6d323820312d312d312d31203168322d3120315a6d2d31312d322d312d312033203120332d32682d376c3220332d32203220332d322d312d315a6d2d313220322d312d312d31203168322d3120315a6d32302d322d312d3276366c312d332d312d325a6d2d31342033762d31682d31763168315a6d2d31342030762d31682d31763168315a6d2d34342030762d31682d31763168315a6d2d322d3468376c372031762d3248383476366c312d3420362d315a6d3930203468316c2d31302d3176326c372d3168325a6d2d35312d3120332d3220382d312d31302d312d3620352031203168326c322d325a6d2d3720322d312d312d32203168335a6d33312031762d31682d31763168315a6d2d32302d3120312d31682d316c2d3120326831762d315a6d2d31362030762d31682d3676326836762d315a6d33382032762d31682d31763168315a6d2d34392031762d31682d31763168315a6d2d332030762d31682d31763168315a6d2d3520302d322d312d3620316831302d325a6d2d3920302d312d312d33203168352d315a6d37322d3120322d32682d316c2d33203468316c312d325a6d2d34312032762d31682d31763168315a6d34342033762d31682d31763168315a6d31332d3368326c2d352d312d31203376336c322d3420322d315a6d2d383220332d312d312d32203220342d31682d315a6d2d31312d332d312d3276376c312d342d312d315a6d3933203520312031762d34682d3376346c312d33203120325a6d2d352d362d312d3276396c312d35762d325a6d2d3537203368326c2d362d3176356c312d3468335a6d2d332035762d31682d31763168315a6d353420312d312d312d33203120342031762d315a6d2d38322030762d31682d31763168315a6d33362d33762d34682d3176386831762d345a6d2d32332032762d31682d3476346c332d3276336c322d332d312d315a6d36392036762d31682d31763168315a6d2d38322d312d312d3276366c312d332d312d325a6d32312034762d31682d31763168315a6d31352d332d312d3276376c312d342d312d325a6d2d33362035762d31682d31763168315a6d333020312d312d312d32203168335a6d34312032762d31682d31763168315a6d2d322032762d31682d31763168315a6d2d32312d312d312d3176336c312d32682d315a6d32312d313520312d3120312031682d3320315a6d2d3520313620322d3120352d3420322d382d312d35682d346c332d312d352d3676326c2d332d3120312d312d382d3120312031682d326c2d362036762d326c2d3320337632682d3276346c3220382037203568396c322d315a6d2d31342031762d31682d31763168315a6d313320322d312d312d31203168322d3120315a6d2d3720302d312d312d33203120342031762d315a6d2d322035762d31682d31763168315a6d31352031762d31682d31763168315a6d2d323820362d312d32682d31336c2d372d38682d356c2d3220334838346c2d312d34682d34762d333868346c312d3268356c352d366831336c34203568396c372d386833386c3220332d32203220332d3276346c342d3468356c3720387632376c2d38203876376c2d3820372d3620322d333520312d312d325a22207374796c653d2266696c6c3a222f3e3c7061746820643d226d313634203130372d372d31763168375a6d2d382d31762d316c2d35203120312d322d3720322d31362d3120332032683233762d315a6d2d323720332d322d322031203268315a6d2d323820302d312d312d33203168352d315a6d32362031762d31682d31763168315a6d35332033762d31682d3876326c382d315a6d2d36352032762d31682d31763168315a6d323620312d312d312d31203168322d3120315a6d2d33322d312d322d31682d31763268346c2d312d315a6d2d372030762d316c2d3420312031203120332d315a6d2d37203020312d31682d316c2d3120326831762d315a6d313020312d312d3176336c312d32682d315a6d3238203120312d32682d316c2d332032763168316c312d315a6d3235203020322d32682d316c2d33203468316c312d325a6d2d3330203120312d31682d316c2d3120326831762d315a6d353120322d322d312d3620316831302d325a6d2d34322030762d31682d31763168315a6d2d35302d3468336c2d312d322d3420312d31203276346c312d3568325a6d34312035762d31682d31763168315a6d33362031762d31682d31763168315a6d2d31302030762d31682d31763168315a6d2d33362030762d31682d31763168315a6d2d3220302d342d31763168345a6d35372031762d31682d31763168315a6d2d35322032762d31682d31763168315a6d2d33362d312d312d3176336c312d32682d315a6d3933203168326c2d352d312d31203420322d3220322d315a6d2d3520312d312d3176336c312d32682d315a6d2d36302031762d31682d31763168315a6d2d313620312d312d312d32203168335a6d37362031762d31682d31763168315a6d2d3620342d312d312d33203120342031762d315a6d2d34362d332d312d3176356c312d33762d315a6d2d32332033762d32682d3476346c332d3276326831762d325a6d3538203133762d31682d31763168315a6d2d32332031762d31682d31763168315a6d32312031762d31682d31763168315a6d302d313620312d3120312031682d3320315a6d2d3520313620322d3120352d3420322d382d312d35682d346c332d312d352d3676326c2d332d3120312d312d382d3120312031682d326c2d362036762d326c2d3320337632682d3276346c3220382037203568396c322d315a6d2d31342031762d31682d31763168315a6d313320322d312d312d31203168322d3120315a6d2d3720302d312d312d33203120342031762d315a6d2d322035762d31682d31763168315a6d2d313320372d322d32682d31326c2d382d38682d346c2d3220334838346c2d312d34682d34762d333868346c312d3268356c352d366831336c34203568396c372d386833386c3220332d32203220332d3276346c342d3468356c3720387632376c2d38203876376c2d3820372d3620322d333520312d312d325a22207374796c653d2266696c6c3aa2646970667358221220af7e57662c33060e593cd8142c8ed74a58d3701a3906e7095fc89e156f6f7ce264736f6c634300081c0033",
  "linkReferences": {},
  "deployedLinkReferences": {}
}