{
  "_format": "hh-sol-artifact-1",
  "contractName": "RenderMetadata",
  "sourceName": "contracts/RenderMetadata.sol",
  "abi": [
    {
      "inputs": [
        {
          "internalType": "address",
          "name": "_imageRenderer",
          "type": "address"
        }
      ],
      "stateMutability": "nonpayable",
      "type": "constructor"
    },
    {
      "inputs": [],
      "name": "imageRenderer",
      "outputs": [
        {
          "internalType": "contract ImageRenderer",
          "name": "",
          "type": "address"
        }
      ],
      "stateMutability": "view",
      "type": "function"
    },
    {
      "inputs": [
        {
          "components": [
            {
              "internalType": "string",
              "name": "name",
              "type": "string"
            },
            {
              "internalType": "uint256",
              "name": "id",
              "type": "uint256"
            },
            {
              "components": [
                {
                  "internalType": "enum MainWeapon",
                  "name": "mainWeapon",
                  "type": "uint8"
                },
                {
                  "internalType": "enum Armor",
                  "name": "armor",
                  "type": "uint8"
                },
                {
                  "internalType": "enum Shields",
                  "name": "shields",
                  "type": "uint8"
                },
                {
                  "internalType": "enum Special",
                  "name": "special",
                  "type": "uint8"
                }
              ],
              "internalType": "struct Equipment",
              "name": "equipment",
              "type": "tuple"
            },
            {
              "components": [
                {
                  "internalType": "uint256",
                  "name": "serialNumber",
                  "type": "uint256"
                },
                {
                  "components": [
                    {
                      "internalType": "uint8",
                      "name": "h1",
                      "type": "uint8"
                    },
                    {
                      "internalType": "uint8",
                      "name": "s1",
                      "type": "uint8"
                    },
                    {
                      "internalType": "uint8",
                      "name": "l1",
                      "type": "uint8"
                    },
                    {
                      "internalType": "uint8",
                      "name": "h2",
                      "type": "uint8"
                    },
                    {
                      "internalType": "uint8",
                      "name": "s2",
                      "type": "uint8"
                    },
                    {
                      "internalType": "uint8",
                      "name": "l2",
                      "type": "uint8"
                    }
                  ],
                  "internalType": "struct Colors",
                  "name": "colors",
                  "type": "tuple"
                },
                {
                  "internalType": "uint8",
                  "name": "variant",
                  "type": "uint8"
                },
                {
                  "internalType": "uint8",
                  "name": "accuracy",
                  "type": "uint8"
                },
                {
                  "internalType": "uint8",
                  "name": "hull",
                  "type": "uint8"
                },
                {
                  "internalType": "uint8",
                  "name": "speed",
                  "type": "uint8"
                }
              ],
              "internalType": "struct Traits",
              "name": "traits",
              "type": "tuple"
            },
            {
              "components": [
                {
                  "internalType": "uint32",
                  "name": "shipsDestroyed",
                  "type": "uint32"
                },
                {
                  "internalType": "uint16",
                  "name": "costsVersion",
                  "type": "uint16"
                },
                {
                  "internalType": "uint16",
                  "name": "cost",
                  "type": "uint16"
                },
                {
                  "internalType": "bool",
                  "name": "shiny",
                  "type": "bool"
                },
                {
                  "internalType": "bool",
                  "name": "constructed",
                  "type": "bool"
                },
                {
                  "internalType": "bool",
                  "name": "inFleet",
                  "type": "bool"
                },
                {
                  "internalType": "uint256",
                  "name": "timestampDestroyed",
                  "type": "uint256"
                }
              ],
              "internalType": "struct ShipData",
              "name": "shipData",
              "type": "tuple"
            },
            {
              "internalType": "address",
              "name": "owner",
              "type": "address"
            }
          ],
          "internalType": "struct Ship",
          "name": "ship",
          "type": "tuple"
        }
      ],
      "name": "tokenURI",
      "outputs": [
        {
          "internalType": "string",
          "name": "",
          "type": "string"
        }
      ],
      "stateMutability": "view",
      "type": "function"
    }
  ],
  "bytecode": "0x60a0604052348015600f57600080fd5b50604051611924380380611924833981016040819052602c91603c565b6001600160a01b0316608052606a565b600060208284031215604d57600080fd5b81516001600160a01b0381168114606357600080fd5b9392505050565b60805161189961008b600039600081816069015261010301526118996000f3fe608060405234801561001057600080fd5b50600436106100365760003560e01c80639136eeae1461003b578063c550ca5d14610064575b600080fd5b61004e610049366004610e02565b6100a3565b60405161005b9190610f56565b60405180910390f35b61008b7f000000000000000000000000000000000000000000000000000000000000000081565b6040516001600160a01b03909116815260200161005b565b606081602001516000036100e95760405162461bcd60e51b8152602060048201526009602482015268125b9d985b1a59125960ba1b604482015260640160405180910390fd5b6040516342d94c1b60e01b81526000906001600160a01b037f000000000000000000000000000000000000000000000000000000000000000016906342d94c1b90610138908690600401611091565b600060405180830381865afa158015610155573d6000803e3d6000fd5b505050506040513d6000823e601f3d908101601f1916820160405261017d9190810190611149565b90506000836000015161019385602001516101f8565b61019c8661028c565b846040516020016101b094939291906111dc565b604051602081830303815290604052905060006101cc826102d1565b9050806040516020016101df919061134e565b6040516020818303038152906040529350505050919050565b60606000610205836102fd565b600101905060008167ffffffffffffffff81111561022557610225610ad4565b6040519080825280601f01601f19166020018201604052801561024f576020820181803683370190505b5090508181016020015b600019016f181899199a1a9b1b9c1cb0b131b232b360811b600a86061a8153600a8504945084610259575b509392505050565b6060610297826103d5565b6102a083610449565b6102a9846104d5565b6040516020016102bb93929190611393565b6040516020818303038152906040529050919050565b60606102f78260405180606001604052806040815260200161182460409139600161052e565b92915050565b60008072184f03e93ff9f4daa797ed6e38ed64bf6a1f0160401b831061033c5772184f03e93ff9f4daa797ed6e38ed64bf6a1f0160401b830492506040015b6d04ee2d6d415b85acef81000000008310610368576d04ee2d6d415b85acef8100000000830492506020015b662386f26fc10000831061038657662386f26fc10000830492506010015b6305f5e100831061039e576305f5e100830492506008015b61271083106103b257612710830492506004015b606483106103c4576064830492506002015b600a83106102f75760010192915050565b606081810151516103e5906101f8565b6103f983606001516040015160ff166101f8565b61040d84606001516060015160ff166101f8565b61042185606001516080015160ff166101f8565b610435866060015160a0015160ff166101f8565b6040516020016102bb9594939291906113f2565b606081608001516060015161047b576040518060400160405280600581526020016466616c736560d81b815250610499565b604051806040016040528060048152602001637472756560e01b8152505b6080830151516104ae9063ffffffff166101f8565b6104c384608001516040015161ffff166101f8565b6040516020016102bb9392919061158c565b60606104e88260400151600001516106b0565b6104f98360400151602001516107d2565b61050a8460400151604001516108d2565b61051b8560400151606001516109da565b6040516020016102bb949392919061167e565b6060835160000361054e57506040805160208101909152600081526106a9565b60008261057f5760038551600461056591906117d7565b6105709060026117ee565b61057a9190611801565b6105a4565b60038551600261058f91906117ee565b6105999190611801565b6105a49060046117d7565b905060008167ffffffffffffffff8111156105c1576105c1610ad4565b6040519080825280601f01601f1916602001820160405280156105eb576020820181803683370190505b50905060018501602082018788518901602081018051600082525b82841015610661576003840193508351603f8160121c168701518653600186019550603f81600c1c168701518653600186019550603f8160061c168701518653600186019550603f8116870151865350600185019450610606565b9052505085156106a2576003885106600181146106855760028114610698576106a0565b603d6001830353603d60028303536106a0565b603d60018303535b505b5090925050505b9392505050565b606060008260038111156106c6576106c6610f69565b036106ec5750506040805180820190915260058152642630b9b2b960d91b602082015290565b600182600381111561070057610700610f69565b036107285750506040805180820190915260078152662930b4b633bab760c91b602082015290565b600282600381111561073c5761073c610f69565b0361076d57505060408051808201909152601081526f26b4b9b9b4b632902630bab731b432b960811b602082015290565b600382600381111561078157610781610f69565b036107af57505060408051808201909152600d81526c283630b9b6b09021b0b73737b760991b602082015290565b50506040805180820190915260078152662ab735b737bbb760c91b602082015290565b606060008260038111156107e8576107e8610f69565b0361081157505060408051808201909152600881526727379020b936b7b960c11b602082015290565b600182600381111561082557610825610f69565b0361085157505060408051808201909152600b81526a2634b3b43a1020b936b7b960a91b602082015290565b600282600381111561086557610865610f69565b0361089257505060408051808201909152600c81526b26b2b234bab69020b936b7b960a11b602082015290565b60038260038111156108a6576108a6610f69565b036107af57505060408051808201909152600b81526a2432b0bb3c9020b936b7b960a91b602082015290565b606060008260038111156108e8576108e8610f69565b0361091357505060408051808201909152600a8152694e6f20536869656c647360b01b602082015290565b600182600381111561092757610927610f69565b0361095557505060408051808201909152600d81526c4c6967687420536869656c647360981b602082015290565b600282600381111561096957610969610f69565b0361099857505060408051808201909152600e81526d4d656469756d20536869656c647360901b602082015290565b60038260038111156109ac576109ac610f69565b036107af57505060408051808201909152600d81526c486561767920536869656c647360981b602082015290565b606060008260038111156109f0576109f0610f69565b03610a1b57505060408051808201909152600a815269139bc814dc1958da585b60b21b602082015290565b6001826003811115610a2f57610a2f610f69565b03610a535750506040805180820190915260038152620454d560ec1b602082015290565b6002826003811115610a6757610a67610f69565b03610a9557505060408051808201909152600d81526c5265706169722044726f6e657360981b602082015290565b6003826003811115610aa957610aa9610f69565b036107af57505060408051808201909152600a815269466c616b20417272617960b01b602082015290565b634e487b7160e01b600052604160045260246000fd5b60405160c0810167ffffffffffffffff81118282101715610b0d57610b0d610ad4565b60405290565b60405160e0810167ffffffffffffffff81118282101715610b0d57610b0d610ad4565b604051601f8201601f1916810167ffffffffffffffff81118282101715610b5f57610b5f610ad4565b604052919050565b600067ffffffffffffffff821115610b8157610b81610ad4565b50601f01601f191660200190565b60048110610b9c57600080fd5b50565b600060808284031215610bb157600080fd5b6040516080810167ffffffffffffffff81118282101715610bd457610bd4610ad4565b6040529050808235610be581610b8f565b81526020830135610bf581610b8f565b60208201526040830135610c0881610b8f565b60408201526060830135610c1b81610b8f565b6060919091015292915050565b803560ff81168114610c3957600080fd5b919050565b6000818303610160811215610c5257600080fd5b610c5a610aea565b83358152915060c0601f1982011215610c7257600080fd5b50610c7b610aea565b610c8760208401610c28565b8152610c9560408401610c28565b6020820152610ca660608401610c28565b6040820152610cb760808401610c28565b6060820152610cc860a08401610c28565b6080820152610cd960c08401610c28565b60a08201526020820152610cef60e08301610c28565b6040820152610d016101008301610c28565b6060820152610d136101208301610c28565b6080820152610d256101408301610c28565b60a082015292915050565b803561ffff81168114610c3957600080fd5b80358015158114610c3957600080fd5b600060e08284031215610d6457600080fd5b610d6c610b13565b9050813563ffffffff81168114610d8257600080fd5b8152610d9060208301610d30565b6020820152610da160408301610d30565b6040820152610db260608301610d42565b6060820152610dc360808301610d42565b6080820152610dd460a08301610d42565b60a082015260c09182013591810191909152919050565b80356001600160a01b0381168114610c3957600080fd5b600060208284031215610e1457600080fd5b813567ffffffffffffffff811115610e2b57600080fd5b82016103208185031215610e3e57600080fd5b610e46610aea565b813567ffffffffffffffff811115610e5d57600080fd5b8201601f81018613610e6e57600080fd5b8035610e81610e7c82610b67565b610b36565b818152876020838501011115610e9657600080fd5b81602084016020830137600060209282018301528352838101359083015250610ec28560408401610b9f565b6040820152610ed48560c08401610c3e565b6060820152610ee7856102208401610d52565b6080820152610ef96103008301610deb565b60a0820152949350505050565b60005b83811015610f21578181015183820152602001610f09565b50506000910152565b60008151808452610f42816020860160208601610f06565b601f01601f19169290920160200192915050565b6020815260006106a96020830184610f2a565b634e487b7160e01b600052602160045260246000fd5b60048110610b9c57634e487b7160e01b600052602160045260246000fd5b80518252602081015160ff815116602084015260ff602082015116604084015260ff604082015116606084015260ff606082015116608084015260ff60808201511660a084015260ff60a08201511660c084015250604081015161100660e084018260ff169052565b50606081015160ff9081166101008401526080820151811661012084015260a0909101511661014090910152565b63ffffffff815116825261ffff602082015116602083015261ffff604082015116604083015260608101511515606083015260808101511515608083015260a081015161108560a084018215159052565b5060c090810151910152565b602081526000825161032060208401526110af610340840182610f2a565b905060208401516040840152604084015180516110cb81610f7f565b606085015260208101516110de81610f7f565b608085015260408101516110f181610f7f565b60a08501526060015161110381610f7f565b60c0840152606084015161111a60e0850182610f9d565b50608084015161112e610240850182611034565b5060a08401516001600160a01b038116610320850152610284565b60006020828403121561115b57600080fd5b815167ffffffffffffffff81111561117257600080fd5b8201601f8101841361118357600080fd5b8051611191610e7c82610b67565b8181528560208385010111156111a657600080fd5b6111b7826020830160208601610f06565b95945050505050565b600081516111d2818560208601610f06565b9290920192915050565b693d913730b6b2911d101160b11b8152845160009061120281600a850160208a01610f06565b61202360f01b600a91840191820152855161122481600c840160208a01610f06565b600a818301019150507f222c226465736372697074696f6e223a20224120756e6971756520737061636560028201527f7368697020696e207468652057617270666c6f7720756e6976657273652e204560228201527f61636820736869702068617320756e69717565207472616974732c206571756960428201527f706d656e742c20616e6420737461747320746861742064657465726d696e652060628201527f697473206361706162696c697469657320696e20626174746c652e222c20226160828201526c747472696275746573223a205b60981b60a282015261134361133561132f61131760af8501896111c0565b6b2e961134b6b0b3b2911d101160a11b8152600c0190565b866111c0565b61227d60f01b815260020190565b979650505050505050565b7f646174613a6170706c69636174696f6e2f6a736f6e3b6261736536342c00000081526000825161138681601d850160208701610f06565b91909101601d0192915050565b600084516113a5818460208901610f06565b600b60fa1b90830190815284516113c3816001840160208901610f06565b600b60fa1b6001929091019182015283516113e5816002840160208801610f06565b0160020195945050505050565b7f7b2274726169745f74797065223a202253657269616c204e756d626572222c20815269113b30b63ab2911d101160b11b60208201526000865161143d81602a850160208b01610f06565b62089f4b60ea1b602a918401918201527f7b2274726169745f74797065223a202256617269616e74222c202276616c7565602d82015263111d101160e11b604d8201528651611493816051840160208b01610f06565b602a8183010191505062089f4b60ea1b602782015261158061157361132f61154061150361153a6115116115036114fd602a8a017f7b2274726169745f74797065223a20224163637572616379222c202276616c75815263032911d160e51b602082015260240190565b8e6111c0565b611f4b60f21b815260020190565b7f7b2274726169745f74797065223a202248756c6c222c202276616c7565223a20815260200190565b8a6111c0565b7f7b2274726169745f74797065223a20225370656564222c202276616c7565223a8152600160fd1b602082015260210190565b607d60f81b815260010190565b98975050505050505050565b7f7b2274726169745f74797065223a20225368696e79222c202276616c7565223a8152600160fd1b6020820152600084516115ce816021850160208901610f06565b611f4b60f21b6021918401918201527f7b2274726169745f74797065223a202253686970732044657374726f7965642260238201526a01610113b30b63ab2911d160ad1b6043820152845161162a81604e840160208901610f06565b602181830101915050611f4b60f21b602d8201527f7b2274726169745f74797065223a2022436f7374222c202276616c7565223a20602f820152611674611573604f8301866111c0565b9695505050505050565b7f7b2274726169745f74797065223a20224d61696e20576561706f6e222c20227681526730b63ab2911d101160c11b6020820152600085516116c7816028850160208a01610f06565b62089f4b60ea1b6028918401918201527f7b2274726169745f74797065223a202241726d6f72222c202276616c7565223a602b82015261101160f11b604b820152855161171b81604d840160208a01610f06565b60288183010191505062089f4b60ea1b602582015261134361133561132f61178b61177c61153a602887017f7b2274726169745f74797065223a2022536869656c6473222c202276616c7565815263111d101160e11b602082015260240190565b62089f4b60ea1b815260030190565b7f7b2274726169745f74797065223a20225370656369616c222c202276616c7565815263111d101160e11b602082015260240190565b634e487b7160e01b600052601160045260246000fd5b80820281158282048414176102f7576102f76117c1565b808201808211156102f7576102f76117c1565b60008261181e57634e487b7160e01b600052601260045260246000fd5b50049056fe4142434445464748494a4b4c4d4e4f505152535455565758595a6162636465666768696a6b6c6d6e6f707172737475767778797a303132333435363738392b2fa2646970667358221220440e3f924a8c3f013f4873d06e87e347861b6b6562e41e327f977c76d5ac663e64736f6c634300081c0033",
  "linkReferences": {},
  "deployedLinkReferences": {}
}