{
  "_format": "hh-sol-artifact-1",
  "contractName": "ImageRenderer",
  "sourceName": "contracts/ImageRenderer.sol",
  "abi": [
    {
      "inputs": [
        {
          "internalType": "address",
          "name": "_renderSpecial",
          "type": "address"
        },
        {
          "internalType": "address",
          "name": "_renderAft",
          "type": "address"
        },
        {
          "internalType": "address",
          "name": "_renderWeapon",
          "type": "address"
        },
        {
          "internalType": "address",
          "name": "_renderBody",
          "type": "address"
        },
        {
          "internalType": "address",
          "name": "_renderFore",
          "type": "address"
        }
      ],
      "stateMutability": "nonpayable",
      "type": "constructor"
    },
    {
      "inputs": [],
      "name": "renderAft",
      "outputs": [
        {
          "internalType": "contract IRenderComponent",
          "name": "",
          "type": "address"
        }
      ],
      "stateMutability": "view",
      "type": "function"
    },
    {
      "inputs": [],
      "name": "renderBody",
      "outputs": [
        {
          "internalType": "contract IRenderComponent",
          "name": "",
          "type": "address"
        }
      ],
      "stateMutability": "view",
      "type": "function"
    },
    {
      "inputs": [],
      "name": "renderFore",
      "outputs": [
        {
          "internalType": "contract IRenderComponent",
          "name": "",
          "type": "address"
        }
      ],
      "stateMutability": "view",
      "type": "function"
    },
    {
      "inputs": [
        {
          "components": [
            {
              "internalType": "string",
              "name": "name",
              "type": "string"
            },
            {
              "internalType": "uint256",
              "name": "id",
              "type": "uint256"
            },
            {
              "components": [
                {
                  "internalType": "enum MainWeapon",
                  "name": "mainWeapon",
                  "type": "uint8"
                },
                {
                  "internalType": "enum Armor",
                  "name": "armor",
                  "type": "uint8"
                },
                {
                  "internalType": "enum Shields",
                  "name": "shields",
                  "type": "uint8"
                },
                {
                  "internalType": "enum Special",
                  "name": "special",
                  "type": "uint8"
                }
              ],
              "internalType": "struct Equipment",
              "name": "equipment",
              "type": "tuple"
            },
            {
              "components": [
                {
                  "internalType": "uint256",
                  "name": "serialNumber",
                  "type": "uint256"
                },
                {
                  "internalType": "uint8",
                  "name": "r1",
                  "type": "uint8"
                },
                {
                  "internalType": "uint8",
                  "name": "g1",
                  "type": "uint8"
                },
                {
                  "internalType": "uint8",
                  "name": "b1",
                  "type": "uint8"
                },
                {
                  "internalType": "uint8",
                  "name": "r2",
                  "type": "uint8"
                },
                {
                  "internalType": "uint8",
                  "name": "g2",
                  "type": "uint8"
                },
                {
                  "internalType": "uint8",
                  "name": "b2",
                  "type": "uint8"
                },
                {
                  "internalType": "uint8",
                  "name": "variant",
                  "type": "uint8"
                },
                {
                  "internalType": "uint8",
                  "name": "accuracy",
                  "type": "uint8"
                },
                {
                  "internalType": "uint8",
                  "name": "hull",
                  "type": "uint8"
                },
                {
                  "internalType": "uint8",
                  "name": "speed",
                  "type": "uint8"
                }
              ],
              "internalType": "struct Traits",
              "name": "traits",
              "type": "tuple"
            },
            {
              "components": [
                {
                  "internalType": "uint256",
                  "name": "gameId",
                  "type": "uint256"
                },
                {
                  "components": [
                    {
                      "internalType": "uint8",
                      "name": "version",
                      "type": "uint8"
                    },
                    {
                      "internalType": "uint8",
                      "name": "range",
                      "type": "uint8"
                    },
                    {
                      "internalType": "uint8",
                      "name": "gunDamage",
                      "type": "uint8"
                    },
                    {
                      "internalType": "uint8",
                      "name": "hullPoints",
                      "type": "uint8"
                    },
                    {
                      "internalType": "uint8",
                      "name": "movement",
                      "type": "uint8"
                    },
                    {
                      "internalType": "uint8[]",
                      "name": "statusEffects",
                      "type": "uint8[]"
                    }
                  ],
                  "internalType": "struct Attributes",
                  "name": "attributes",
                  "type": "tuple"
                },
                {
                  "internalType": "uint8",
                  "name": "damageTaken",
                  "type": "uint8"
                },
                {
                  "internalType": "bool",
                  "name": "inLobby",
                  "type": "bool"
                },
                {
                  "internalType": "bool",
                  "name": "movedThisTurn",
                  "type": "bool"
                },
                {
                  "internalType": "bool",
                  "name": "firedThisTurn",
                  "type": "bool"
                }
              ],
              "internalType": "struct GameData",
              "name": "gameData",
              "type": "tuple"
            },
            {
              "internalType": "uint32",
              "name": "shipsDestroyed",
              "type": "uint32"
            },
            {
              "internalType": "uint16",
              "name": "costsVersion",
              "type": "uint16"
            },
            {
              "internalType": "uint16",
              "name": "cost",
              "type": "uint16"
            },
            {
              "internalType": "bool",
              "name": "shiny",
              "type": "bool"
            },
            {
              "internalType": "bool",
              "name": "constructed",
              "type": "bool"
            },
            {
              "internalType": "uint256",
              "name": "timestampDestroyed",
              "type": "uint256"
            },
            {
              "internalType": "address",
              "name": "owner",
              "type": "address"
            }
          ],
          "internalType": "struct Ship",
          "name": "ship",
          "type": "tuple"
        }
      ],
      "name": "renderShip",
      "outputs": [
        {
          "internalType": "string",
          "name": "",
          "type": "string"
        }
      ],
      "stateMutability": "view",
      "type": "function"
    },
    {
      "inputs": [],
      "name": "renderSpecial",
      "outputs": [
        {
          "internalType": "contract IRenderComponent",
          "name": "",
          "type": "address"
        }
      ],
      "stateMutability": "view",
      "type": "function"
    },
    {
      "inputs": [],
      "name": "renderWeapon",
      "outputs": [
        {
          "internalType": "contract IRenderComponent",
          "name": "",
          "type": "address"
        }
      ],
      "stateMutability": "view",
      "type": "function"
    }
  ],
  "bytecode": "0x61012060405234801561001157600080fd5b5060405161113e38038061113e83398101604081905261003091610075565b6001600160a01b0394851660805292841660a05290831660c052821660e05216610100526100da565b80516001600160a01b038116811461007057600080fd5b919050565b600080600080600060a0868803121561008d57600080fd5b61009686610059565b94506100a460208701610059565b93506100b260408701610059565b92506100c060608701610059565b91506100ce60808701610059565b90509295509295909350565b60805160a05160c05160e0516101005161100161013d6000396000818160b0015261046e01526000818161014501526103ba015260008181606c015261030601526000818160d7015261025201526000818160fe015261018901526110016000f3fe608060405234801561001057600080fd5b50600436106100625760003560e01c806322b17617146100675780634144d231146100ab5780635b8fc4f3146100d2578063c9ff31d1146100f9578063e6da960a14610120578063f8bc249f14610140575b600080fd5b61008e7f000000000000000000000000000000000000000000000000000000000000000081565b6040516001600160a01b0390911681526020015b60405180910390f35b61008e7f000000000000000000000000000000000000000000000000000000000000000081565b61008e7f000000000000000000000000000000000000000000000000000000000000000081565b61008e7f000000000000000000000000000000000000000000000000000000000000000081565b61013361012e3660046109e5565b610167565b6040516100a29190610b7a565b61008e7f000000000000000000000000000000000000000000000000000000000000000081565b60606000604051806080016040528060578152602001610f75605791399050807f00000000000000000000000000000000000000000000000000000000000000006001600160a01b0316636610b059856040518263ffffffff1660e01b81526004016101d39190610de7565b600060405180830381865afa1580156101f0573d6000803e3d6000fd5b505050506040513d6000823e601f3d908101601f191682016040526102189190810190610ecf565b604051602001610229929190610f45565b60408051601f1981840301815290829052636610b05960e01b8252915081906001600160a01b037f00000000000000000000000000000000000000000000000000000000000000001690636610b05990610287908790600401610de7565b600060405180830381865afa1580156102a4573d6000803e3d6000fd5b505050506040513d6000823e601f3d908101601f191682016040526102cc9190810190610ecf565b6040516020016102dd929190610f45565b60408051601f1981840301815290829052636610b05960e01b8252915081906001600160a01b037f00000000000000000000000000000000000000000000000000000000000000001690636610b0599061033b908790600401610de7565b600060405180830381865afa158015610358573d6000803e3d6000fd5b505050506040513d6000823e601f3d908101601f191682016040526103809190810190610ecf565b604051602001610391929190610f45565b60408051601f1981840301815290829052636610b05960e01b8252915081906001600160a01b037f00000000000000000000000000000000000000000000000000000000000000001690636610b059906103ef908790600401610de7565b600060405180830381865afa15801561040c573d6000803e3d6000fd5b505050506040513d6000823e601f3d908101601f191682016040526104349190810190610ecf565b604051602001610445929190610f45565b60408051601f1981840301815290829052636610b05960e01b8252915081906001600160a01b037f00000000000000000000000000000000000000000000000000000000000000001690636610b059906104a3908790600401610de7565b600060405180830381865afa1580156104c0573d6000803e3d6000fd5b505050506040513d6000823e601f3d908101601f191682016040526104e89190810190610ecf565b6040516020016104f9929190610f45565b60408051601f19818403018152828201825260068352651e17b9bb339f60d11b6020848101919091529151909350610535928492909101610f45565b60408051601f198184030181529190529392505050565b634e487b7160e01b600052604160045260246000fd5b60405161016081016001600160401b03811182821017156105855761058561054c565b60405290565b60405160c081016001600160401b03811182821017156105855761058561054c565b60405161018081016001600160401b03811182821017156105855761058561054c565b604051601f8201601f191681016001600160401b03811182821017156105f8576105f861054c565b604052919050565b60006001600160401b038211156106195761061961054c565b50601f01601f191660200190565b600082601f83011261063857600080fd5b813561064b61064682610600565b6105d0565b81815284602083860101111561066057600080fd5b816020850160208301376000918101602001919091529392505050565b6004811061068a57600080fd5b50565b60006080828403121561069f57600080fd5b604051608081016001600160401b03811182821017156106c1576106c161054c565b60405290508082356106d28161067d565b815260208301356106e28161067d565b602082015260408301356106f58161067d565b604082015260608301356107088161067d565b6060919091015292915050565b803560ff8116811461072657600080fd5b919050565b6000610160828403121561073e57600080fd5b610746610562565b82358152905061075860208301610715565b602082015261076960408301610715565b604082015261077a60608301610715565b606082015261078b60808301610715565b608082015261079c60a08301610715565b60a08201526107ad60c08301610715565b60c08201526107be60e08301610715565b60e08201526107d06101008301610715565b6101008201526107e36101208301610715565b6101208201526107f66101408301610715565b61014082015292915050565b8035801515811461072657600080fd5b600060c0828403121561082457600080fd5b61082c61058b565b82358152905060208201356001600160401b0381111561084b57600080fd5b820160c0818503121561085d57600080fd5b61086561058b565b61086e82610715565b815261087c60208301610715565b602082015261088d60408301610715565b604082015261089e60608301610715565b60608201526108af60808301610715565b608082015260a08201356001600160401b038111156108cd57600080fd5b80830192505084601f8301126108e257600080fd5b81356001600160401b038111156108fb576108fb61054c565b8060051b61090b602082016105d0565b9182526020818501810192908101908884111561092757600080fd5b6020860195505b838610156109505761093f86610715565b82526020958601959091019061092e565b60a085015250505060208301525061096a60408301610715565b604082015261097b60608301610802565b606082015261098c60808301610802565b608082015261099d60a08301610802565b60a082015292915050565b803563ffffffff8116811461072657600080fd5b803561ffff8116811461072657600080fd5b80356001600160a01b038116811461072657600080fd5b6000602082840312156109f757600080fd5b81356001600160401b03811115610a0d57600080fd5b82016103208185031215610a2057600080fd5b610a286105ad565b81356001600160401b03811115610a3e57600080fd5b610a4a86828501610627565b82525060208281013590820152610a64856040840161068d565b6040820152610a768560c0840161072b565b60608201526102208201356001600160401b03811115610a9557600080fd5b610aa186828501610812565b608083015250610ab461024083016109a8565b60a0820152610ac661026083016109bc565b60c0820152610ad861028083016109bc565b60e0820152610aea6102a08301610802565b610100820152610afd6102c08301610802565b6101208201526102e0820135610140820152610b1c61030083016109ce565b610160820152949350505050565b60005b83811015610b45578181015183820152602001610b2d565b50506000910152565b60008151808452610b66816020860160208601610b2a565b601f01601f19169290920160200192915050565b602081526000610b8d6020830184610b4e565b9392505050565b6004811061068a57634e487b7160e01b600052602160045260246000fd5b8051610bbd81610b94565b82526020810151610bcd81610b94565b60208301526040810151610be081610b94565b60408301526060810151610bf381610b94565b806060840152505050565b805182526020810151610c16602084018260ff169052565b506040810151610c2b604084018260ff169052565b506060810151610c40606084018260ff169052565b506080810151610c55608084018260ff169052565b5060a0810151610c6a60a084018260ff169052565b5060c0810151610c7f60c084018260ff169052565b5060e0810151610c9460e084018260ff169052565b50610100810151610cab61010084018260ff169052565b50610120810151610cc261012084018260ff169052565b50610140810151610cd961014084018260ff169052565b505050565b600081518084526020840193506020830160005b82811015610d1357815160ff16865260209586019590910190600101610cf2565b5093949350505050565b805182526000602082015160c0602085015260ff81511660c085015260ff60208201511660e085015260ff60408201511661010085015260ff60608201511661012085015260ff60808201511661014085015260a0810151905060c0610160850152610d8d610180850182610cde565b90506040830151610da3604086018260ff169052565b506060830151610db7606086018215159052565b506080830151610dcb608086018215159052565b5060a0830151610ddf60a086018215159052565b509392505050565b60208152600082516103206020840152610e05610340840182610b4e565b9050602084015160408401526040840151610e236060850182610bb2565b506060840151610e3660e0850182610bfe565b506080840151838203601f1901610240850152610e538282610d1d565b91505060a0840151610e6e61026085018263ffffffff169052565b5060c084015161ffff90811661028085015260e0850151166102a084015261010084015115156102c084015261012084015115156102e08401526101408401516103008401526101608401516001600160a01b038116610320850152610ddf565b600060208284031215610ee157600080fd5b81516001600160401b03811115610ef757600080fd5b8201601f81018413610f0857600080fd5b8051610f1661064682610600565b818152856020838501011115610f2b57600080fd5b610f3c826020830160208601610b2a565b95945050505050565b60008351610f57818460208801610b2a565b835190830190610f6b818360208801610b2a565b0194935050505056fe3c73766720786d6c6e733d22687474703a2f2f7777772e77332e6f72672f323030302f737667222076696577426f783d223020302032353620323536222077696474683d2232353622206865696768743d22323536223ea264697066735822122078c96afd4b631e823745960b5b0e1fd19d4697006a32eefebf4e084aea873b8364736f6c634300081c0033",
  "linkReferences": {},
  "deployedLinkReferences": {}
}