{
  "_format": "hh-sol-artifact-1",
  "contractName": "Ships",
  "sourceName": "contracts/Ships.sol",
  "abi": [
    {
      "inputs": [
        {
          "internalType": "address",
          "name": "_renderer",
          "type": "address"
        }
      ],
      "stateMutability": "nonpayable",
      "type": "constructor"
    },
    {
      "inputs": [],
      "name": "ArrayLengthMismatch",
      "type": "error"
    },
    {
      "inputs": [
        {
          "internalType": "address",
          "name": "sender",
          "type": "address"
        },
        {
          "internalType": "uint256",
          "name": "tokenId",
          "type": "uint256"
        },
        {
          "internalType": "address",
          "name": "owner",
          "type": "address"
        }
      ],
      "name": "ERC721IncorrectOwner",
      "type": "error"
    },
    {
      "inputs": [
        {
          "internalType": "address",
          "name": "operator",
          "type": "address"
        },
        {
          "internalType": "uint256",
          "name": "tokenId",
          "type": "uint256"
        }
      ],
      "name": "ERC721InsufficientApproval",
      "type": "error"
    },
    {
      "inputs": [
        {
          "internalType": "address",
          "name": "approver",
          "type": "address"
        }
      ],
      "name": "ERC721InvalidApprover",
      "type": "error"
    },
    {
      "inputs": [
        {
          "internalType": "address",
          "name": "operator",
          "type": "address"
        }
      ],
      "name": "ERC721InvalidOperator",
      "type": "error"
    },
    {
      "inputs": [
        {
          "internalType": "address",
          "name": "owner",
          "type": "address"
        }
      ],
      "name": "ERC721InvalidOwner",
      "type": "error"
    },
    {
      "inputs": [
        {
          "internalType": "address",
          "name": "receiver",
          "type": "address"
        }
      ],
      "name": "ERC721InvalidReceiver",
      "type": "error"
    },
    {
      "inputs": [
        {
          "internalType": "address",
          "name": "sender",
          "type": "address"
        }
      ],
      "name": "ERC721InvalidSender",
      "type": "error"
    },
    {
      "inputs": [
        {
          "internalType": "uint256",
          "name": "tokenId",
          "type": "uint256"
        }
      ],
      "name": "ERC721NonexistentToken",
      "type": "error"
    },
    {
      "inputs": [],
      "name": "InvalidId",
      "type": "error"
    },
    {
      "inputs": [
        {
          "internalType": "uint256",
          "name": "_tier",
          "type": "uint256"
        },
        {
          "internalType": "uint256",
          "name": "_amount",
          "type": "uint256"
        }
      ],
      "name": "InvalidPurchase",
      "type": "error"
    },
    {
      "inputs": [],
      "name": "InvalidReferral",
      "type": "error"
    },
    {
      "inputs": [],
      "name": "InvalidRenderer",
      "type": "error"
    },
    {
      "inputs": [],
      "name": "MintPaused",
      "type": "error"
    },
    {
      "inputs": [
        {
          "internalType": "address",
          "name": "",
          "type": "address"
        }
      ],
      "name": "NotAllowedToTransfer",
      "type": "error"
    },
    {
      "inputs": [
        {
          "internalType": "address",
          "name": "",
          "type": "address"
        }
      ],
      "name": "NotAuthorized",
      "type": "error"
    },
    {
      "inputs": [
        {
          "internalType": "uint256",
          "name": "",
          "type": "uint256"
        }
      ],
      "name": "NotYourShip",
      "type": "error"
    },
    {
      "inputs": [],
      "name": "OldShipCost",
      "type": "error"
    },
    {
      "inputs": [
        {
          "internalType": "address",
          "name": "owner",
          "type": "address"
        }
      ],
      "name": "OwnableInvalidOwner",
      "type": "error"
    },
    {
      "inputs": [
        {
          "internalType": "address",
          "name": "account",
          "type": "address"
        }
      ],
      "name": "OwnableUnauthorizedAccount",
      "type": "error"
    },
    {
      "inputs": [],
      "name": "ReentrancyGuardReentrantCall",
      "type": "error"
    },
    {
      "inputs": [
        {
          "internalType": "uint256",
          "name": "",
          "type": "uint256"
        }
      ],
      "name": "ShipConstructed",
      "type": "error"
    },
    {
      "inputs": [],
      "name": "ShipDestroyed",
      "type": "error"
    },
    {
      "inputs": [
        {
          "internalType": "uint256",
          "name": "",
          "type": "uint256"
        }
      ],
      "name": "ShipInFleet",
      "type": "error"
    },
    {
      "inputs": [],
      "name": "ShipInGame",
      "type": "error"
    },
    {
      "inputs": [],
      "name": "ShipInLobby",
      "type": "error"
    },
    {
      "anonymous": false,
      "inputs": [
        {
          "indexed": true,
          "internalType": "address",
          "name": "owner",
          "type": "address"
        },
        {
          "indexed": true,
          "internalType": "address",
          "name": "approved",
          "type": "address"
        },
        {
          "indexed": true,
          "internalType": "uint256",
          "name": "tokenId",
          "type": "uint256"
        }
      ],
      "name": "Approval",
      "type": "event"
    },
    {
      "anonymous": false,
      "inputs": [
        {
          "indexed": true,
          "internalType": "address",
          "name": "owner",
          "type": "address"
        },
        {
          "indexed": true,
          "internalType": "address",
          "name": "operator",
          "type": "address"
        },
        {
          "indexed": false,
          "internalType": "bool",
          "name": "approved",
          "type": "bool"
        }
      ],
      "name": "ApprovalForAll",
      "type": "event"
    },
    {
      "anonymous": false,
      "inputs": [
        {
          "indexed": false,
          "internalType": "uint256",
          "name": "_tokenId",
          "type": "uint256"
        }
      ],
      "name": "MetadataUpdate",
      "type": "event"
    },
    {
      "anonymous": false,
      "inputs": [
        {
          "indexed": true,
          "internalType": "address",
          "name": "previousOwner",
          "type": "address"
        },
        {
          "indexed": true,
          "internalType": "address",
          "name": "newOwner",
          "type": "address"
        }
      ],
      "name": "OwnershipTransferred",
      "type": "event"
    },
    {
      "anonymous": false,
      "inputs": [
        {
          "indexed": true,
          "internalType": "address",
          "name": "from",
          "type": "address"
        },
        {
          "indexed": true,
          "internalType": "address",
          "name": "to",
          "type": "address"
        },
        {
          "indexed": true,
          "internalType": "uint256",
          "name": "tokenId",
          "type": "uint256"
        }
      ],
      "name": "Transfer",
      "type": "event"
    },
    {
      "inputs": [
        {
          "internalType": "address",
          "name": "",
          "type": "address"
        }
      ],
      "name": "allowedToTransfer",
      "outputs": [
        {
          "internalType": "bool",
          "name": "",
          "type": "bool"
        }
      ],
      "stateMutability": "view",
      "type": "function"
    },
    {
      "inputs": [
        {
          "internalType": "address",
          "name": "to",
          "type": "address"
        },
        {
          "internalType": "uint256",
          "name": "tokenId",
          "type": "uint256"
        }
      ],
      "name": "approve",
      "outputs": [],
      "stateMutability": "nonpayable",
      "type": "function"
    },
    {
      "inputs": [
        {
          "internalType": "address",
          "name": "owner",
          "type": "address"
        }
      ],
      "name": "balanceOf",
      "outputs": [
        {
          "internalType": "uint256",
          "name": "",
          "type": "uint256"
        }
      ],
      "stateMutability": "view",
      "type": "function"
    },
    {
      "inputs": [],
      "name": "config",
      "outputs": [
        {
          "internalType": "address",
          "name": "gameAddress",
          "type": "address"
        },
        {
          "internalType": "address",
          "name": "lobbyAddress",
          "type": "address"
        },
        {
          "internalType": "contract IRenderMetadata",
          "name": "metadataRenderer",
          "type": "address"
        },
        {
          "internalType": "contract IRandomManager",
          "name": "randomManager",
          "type": "address"
        },
        {
          "internalType": "contract IGenerateNewShip",
          "name": "shipGenerator",
          "type": "address"
        }
      ],
      "stateMutability": "view",
      "type": "function"
    },
    {
      "inputs": [],
      "name": "constructAllMyShips",
      "outputs": [],
      "stateMutability": "nonpayable",
      "type": "function"
    },
    {
      "inputs": [
        {
          "internalType": "uint256",
          "name": "_id",
          "type": "uint256"
        }
      ],
      "name": "constructShip",
      "outputs": [],
      "stateMutability": "nonpayable",
      "type": "function"
    },
    {
      "inputs": [
        {
          "internalType": "uint256[]",
          "name": "_ids",
          "type": "uint256[]"
        }
      ],
      "name": "constructShips",
      "outputs": [],
      "stateMutability": "nonpayable",
      "type": "function"
    },
    {
      "inputs": [],
      "name": "costs",
      "outputs": [
        {
          "internalType": "uint16",
          "name": "version",
          "type": "uint16"
        },
        {
          "internalType": "uint8",
          "name": "baseCost",
          "type": "uint8"
        }
      ],
      "stateMutability": "view",
      "type": "function"
    },
    {
      "inputs": [],
      "name": "costsVersion",
      "outputs": [
        {
          "internalType": "uint256",
          "name": "",
          "type": "uint256"
        }
      ],
      "stateMutability": "view",
      "type": "function"
    },
    {
      "inputs": [
        {
          "internalType": "uint256",
          "name": "num",
          "type": "uint256"
        }
      ],
      "name": "countDigits",
      "outputs": [
        {
          "internalType": "uint256",
          "name": "",
          "type": "uint256"
        }
      ],
      "stateMutability": "pure",
      "type": "function"
    },
    {
      "inputs": [
        {
          "internalType": "uint256",
          "name": "tokenId",
          "type": "uint256"
        }
      ],
      "name": "getApproved",
      "outputs": [
        {
          "internalType": "address",
          "name": "",
          "type": "address"
        }
      ],
      "stateMutability": "view",
      "type": "function"
    },
    {
      "inputs": [],
      "name": "getCosts",
      "outputs": [
        {
          "internalType": "uint256",
          "name": "",
          "type": "uint256"
        },
        {
          "components": [
            {
              "internalType": "uint16",
              "name": "version",
              "type": "uint16"
            },
            {
              "internalType": "uint8",
              "name": "baseCost",
              "type": "uint8"
            },
            {
              "internalType": "uint8[]",
              "name": "accuracy",
              "type": "uint8[]"
            },
            {
              "internalType": "uint8[]",
              "name": "hull",
              "type": "uint8[]"
            },
            {
              "internalType": "uint8[]",
              "name": "speed",
              "type": "uint8[]"
            },
            {
              "internalType": "uint8[]",
              "name": "mainWeapon",
              "type": "uint8[]"
            },
            {
              "internalType": "uint8[]",
              "name": "armor",
              "type": "uint8[]"
            },
            {
              "internalType": "uint8[]",
              "name": "shields",
              "type": "uint8[]"
            },
            {
              "internalType": "uint8[]",
              "name": "special",
              "type": "uint8[]"
            }
          ],
          "internalType": "struct Costs",
          "name": "",
          "type": "tuple"
        }
      ],
      "stateMutability": "view",
      "type": "function"
    },
    {
      "inputs": [],
      "name": "getPurchaseInfo",
      "outputs": [
        {
          "internalType": "uint8[]",
          "name": "_purchaseTiers",
          "type": "uint8[]"
        },
        {
          "internalType": "uint8[]",
          "name": "_tierShips",
          "type": "uint8[]"
        },
        {
          "internalType": "uint256[]",
          "name": "_tierPrices",
          "type": "uint256[]"
        }
      ],
      "stateMutability": "view",
      "type": "function"
    },
    {
      "inputs": [
        {
          "internalType": "uint256",
          "name": "_shipsDestroyed",
          "type": "uint256"
        }
      ],
      "name": "getRank",
      "outputs": [
        {
          "internalType": "uint8",
          "name": "",
          "type": "uint8"
        }
      ],
      "stateMutability": "pure",
      "type": "function"
    },
    {
      "inputs": [
        {
          "internalType": "uint256",
          "name": "_id",
          "type": "uint256"
        }
      ],
      "name": "getShip",
      "outputs": [
        {
          "components": [
            {
              "internalType": "string",
              "name": "name",
              "type": "string"
            },
            {
              "internalType": "uint256",
              "name": "id",
              "type": "uint256"
            },
            {
              "components": [
                {
                  "internalType": "enum MainWeapon",
                  "name": "mainWeapon",
                  "type": "uint8"
                },
                {
                  "internalType": "enum Armor",
                  "name": "armor",
                  "type": "uint8"
                },
                {
                  "internalType": "enum Shields",
                  "name": "shields",
                  "type": "uint8"
                },
                {
                  "internalType": "enum Special",
                  "name": "special",
                  "type": "uint8"
                }
              ],
              "internalType": "struct Equipment",
              "name": "equipment",
              "type": "tuple"
            },
            {
              "components": [
                {
                  "internalType": "uint256",
                  "name": "serialNumber",
                  "type": "uint256"
                },
                {
                  "internalType": "uint8",
                  "name": "r1",
                  "type": "uint8"
                },
                {
                  "internalType": "uint8",
                  "name": "g1",
                  "type": "uint8"
                },
                {
                  "internalType": "uint8",
                  "name": "b1",
                  "type": "uint8"
                },
                {
                  "internalType": "uint8",
                  "name": "r2",
                  "type": "uint8"
                },
                {
                  "internalType": "uint8",
                  "name": "g2",
                  "type": "uint8"
                },
                {
                  "internalType": "uint8",
                  "name": "b2",
                  "type": "uint8"
                },
                {
                  "internalType": "uint8",
                  "name": "variant",
                  "type": "uint8"
                },
                {
                  "internalType": "uint8",
                  "name": "accuracy",
                  "type": "uint8"
                },
                {
                  "internalType": "uint8",
                  "name": "hull",
                  "type": "uint8"
                },
                {
                  "internalType": "uint8",
                  "name": "speed",
                  "type": "uint8"
                }
              ],
              "internalType": "struct Traits",
              "name": "traits",
              "type": "tuple"
            },
            {
              "components": [
                {
                  "internalType": "uint256",
                  "name": "gameId",
                  "type": "uint256"
                },
                {
                  "components": [
                    {
                      "internalType": "uint8",
                      "name": "version",
                      "type": "uint8"
                    },
                    {
                      "internalType": "uint8",
                      "name": "range",
                      "type": "uint8"
                    },
                    {
                      "internalType": "uint8",
                      "name": "gunDamage",
                      "type": "uint8"
                    },
                    {
                      "internalType": "uint8",
                      "name": "hullPoints",
                      "type": "uint8"
                    },
                    {
                      "internalType": "uint8",
                      "name": "movement",
                      "type": "uint8"
                    },
                    {
                      "internalType": "uint8[]",
                      "name": "statusEffects",
                      "type": "uint8[]"
                    }
                  ],
                  "internalType": "struct Attributes",
                  "name": "attributes",
                  "type": "tuple"
                },
                {
                  "internalType": "uint8",
                  "name": "damageTaken",
                  "type": "uint8"
                },
                {
                  "internalType": "bool",
                  "name": "inLobby",
                  "type": "bool"
                },
                {
                  "internalType": "bool",
                  "name": "movedThisTurn",
                  "type": "bool"
                },
                {
                  "internalType": "bool",
                  "name": "firedThisTurn",
                  "type": "bool"
                }
              ],
              "internalType": "struct GameData",
              "name": "gameData",
              "type": "tuple"
            },
            {
              "components": [
                {
                  "internalType": "uint32",
                  "name": "shipsDestroyed",
                  "type": "uint32"
                },
                {
                  "internalType": "uint16",
                  "name": "costsVersion",
                  "type": "uint16"
                },
                {
                  "internalType": "uint16",
                  "name": "cost",
                  "type": "uint16"
                },
                {
                  "internalType": "bool",
                  "name": "shiny",
                  "type": "bool"
                },
                {
                  "internalType": "bool",
                  "name": "constructed",
                  "type": "bool"
                },
                {
                  "internalType": "bool",
                  "name": "inFleet",
                  "type": "bool"
                },
                {
                  "internalType": "uint256",
                  "name": "timestampDestroyed",
                  "type": "uint256"
                }
              ],
              "internalType": "struct ShipData",
              "name": "shipData",
              "type": "tuple"
            },
            {
              "internalType": "address",
              "name": "owner",
              "type": "address"
            }
          ],
          "internalType": "struct Ship",
          "name": "",
          "type": "tuple"
        }
      ],
      "stateMutability": "view",
      "type": "function"
    },
    {
      "inputs": [
        {
          "internalType": "address",
          "name": "_owner",
          "type": "address"
        }
      ],
      "name": "getShipIdsOwned",
      "outputs": [
        {
          "internalType": "uint256[]",
          "name": "",
          "type": "uint256[]"
        }
      ],
      "stateMutability": "view",
      "type": "function"
    },
    {
      "inputs": [
        {
          "internalType": "uint256[]",
          "name": "_ids",
          "type": "uint256[]"
        }
      ],
      "name": "getShipsByIds",
      "outputs": [
        {
          "components": [
            {
              "internalType": "string",
              "name": "name",
              "type": "string"
            },
            {
              "internalType": "uint256",
              "name": "id",
              "type": "uint256"
            },
            {
              "components": [
                {
                  "internalType": "enum MainWeapon",
                  "name": "mainWeapon",
                  "type": "uint8"
                },
                {
                  "internalType": "enum Armor",
                  "name": "armor",
                  "type": "uint8"
                },
                {
                  "internalType": "enum Shields",
                  "name": "shields",
                  "type": "uint8"
                },
                {
                  "internalType": "enum Special",
                  "name": "special",
                  "type": "uint8"
                }
              ],
              "internalType": "struct Equipment",
              "name": "equipment",
              "type": "tuple"
            },
            {
              "components": [
                {
                  "internalType": "uint256",
                  "name": "serialNumber",
                  "type": "uint256"
                },
                {
                  "internalType": "uint8",
                  "name": "r1",
                  "type": "uint8"
                },
                {
                  "internalType": "uint8",
                  "name": "g1",
                  "type": "uint8"
                },
                {
                  "internalType": "uint8",
                  "name": "b1",
                  "type": "uint8"
                },
                {
                  "internalType": "uint8",
                  "name": "r2",
                  "type": "uint8"
                },
                {
                  "internalType": "uint8",
                  "name": "g2",
                  "type": "uint8"
                },
                {
                  "internalType": "uint8",
                  "name": "b2",
                  "type": "uint8"
                },
                {
                  "internalType": "uint8",
                  "name": "variant",
                  "type": "uint8"
                },
                {
                  "internalType": "uint8",
                  "name": "accuracy",
                  "type": "uint8"
                },
                {
                  "internalType": "uint8",
                  "name": "hull",
                  "type": "uint8"
                },
                {
                  "internalType": "uint8",
                  "name": "speed",
                  "type": "uint8"
                }
              ],
              "internalType": "struct Traits",
              "name": "traits",
              "type": "tuple"
            },
            {
              "components": [
                {
                  "internalType": "uint256",
                  "name": "gameId",
                  "type": "uint256"
                },
                {
                  "components": [
                    {
                      "internalType": "uint8",
                      "name": "version",
                      "type": "uint8"
                    },
                    {
                      "internalType": "uint8",
                      "name": "range",
                      "type": "uint8"
                    },
                    {
                      "internalType": "uint8",
                      "name": "gunDamage",
                      "type": "uint8"
                    },
                    {
                      "internalType": "uint8",
                      "name": "hullPoints",
                      "type": "uint8"
                    },
                    {
                      "internalType": "uint8",
                      "name": "movement",
                      "type": "uint8"
                    },
                    {
                      "internalType": "uint8[]",
                      "name": "statusEffects",
                      "type": "uint8[]"
                    }
                  ],
                  "internalType": "struct Attributes",
                  "name": "attributes",
                  "type": "tuple"
                },
                {
                  "internalType": "uint8",
                  "name": "damageTaken",
                  "type": "uint8"
                },
                {
                  "internalType": "bool",
                  "name": "inLobby",
                  "type": "bool"
                },
                {
                  "internalType": "bool",
                  "name": "movedThisTurn",
                  "type": "bool"
                },
                {
                  "internalType": "bool",
                  "name": "firedThisTurn",
                  "type": "bool"
                }
              ],
              "internalType": "struct GameData",
              "name": "gameData",
              "type": "tuple"
            },
            {
              "components": [
                {
                  "internalType": "uint32",
                  "name": "shipsDestroyed",
                  "type": "uint32"
                },
                {
                  "internalType": "uint16",
                  "name": "costsVersion",
                  "type": "uint16"
                },
                {
                  "internalType": "uint16",
                  "name": "cost",
                  "type": "uint16"
                },
                {
                  "internalType": "bool",
                  "name": "shiny",
                  "type": "bool"
                },
                {
                  "internalType": "bool",
                  "name": "constructed",
                  "type": "bool"
                },
                {
                  "internalType": "bool",
                  "name": "inFleet",
                  "type": "bool"
                },
                {
                  "internalType": "uint256",
                  "name": "timestampDestroyed",
                  "type": "uint256"
                }
              ],
              "internalType": "struct ShipData",
              "name": "shipData",
              "type": "tuple"
            },
            {
              "internalType": "address",
              "name": "owner",
              "type": "address"
            }
          ],
          "internalType": "struct Ship[]",
          "name": "",
          "type": "tuple[]"
        }
      ],
      "stateMutability": "view",
      "type": "function"
    },
    {
      "inputs": [
        {
          "internalType": "uint256",
          "name": "_trait",
          "type": "uint256"
        }
      ],
      "name": "getTierOfTrait",
      "outputs": [
        {
          "internalType": "uint8",
          "name": "",
          "type": "uint8"
        }
      ],
      "stateMutability": "pure",
      "type": "function"
    },
    {
      "inputs": [
        {
          "internalType": "address",
          "name": "owner",
          "type": "address"
        },
        {
          "internalType": "address",
          "name": "operator",
          "type": "address"
        }
      ],
      "name": "isApprovedForAll",
      "outputs": [
        {
          "internalType": "bool",
          "name": "",
          "type": "bool"
        }
      ],
      "stateMutability": "view",
      "type": "function"
    },
    {
      "inputs": [],
      "name": "name",
      "outputs": [
        {
          "internalType": "string",
          "name": "",
          "type": "string"
        }
      ],
      "stateMutability": "view",
      "type": "function"
    },
    {
      "inputs": [
        {
          "internalType": "address",
          "name": "",
          "type": "address"
        }
      ],
      "name": "onboardingStep",
      "outputs": [
        {
          "internalType": "uint256",
          "name": "",
          "type": "uint256"
        }
      ],
      "stateMutability": "view",
      "type": "function"
    },
    {
      "inputs": [],
      "name": "owner",
      "outputs": [
        {
          "internalType": "address",
          "name": "",
          "type": "address"
        }
      ],
      "stateMutability": "view",
      "type": "function"
    },
    {
      "inputs": [
        {
          "internalType": "uint256",
          "name": "tokenId",
          "type": "uint256"
        }
      ],
      "name": "ownerOf",
      "outputs": [
        {
          "internalType": "address",
          "name": "",
          "type": "address"
        }
      ],
      "stateMutability": "view",
      "type": "function"
    },
    {
      "inputs": [],
      "name": "paused",
      "outputs": [
        {
          "internalType": "bool",
          "name": "",
          "type": "bool"
        }
      ],
      "stateMutability": "view",
      "type": "function"
    },
    {
      "inputs": [
        {
          "internalType": "uint256",
          "name": "",
          "type": "uint256"
        }
      ],
      "name": "purchaseTiers",
      "outputs": [
        {
          "internalType": "uint8",
          "name": "",
          "type": "uint8"
        }
      ],
      "stateMutability": "view",
      "type": "function"
    },
    {
      "inputs": [
        {
          "internalType": "address",
          "name": "_to",
          "type": "address"
        },
        {
          "internalType": "uint256",
          "name": "_tier",
          "type": "uint256"
        },
        {
          "internalType": "address",
          "name": "_referral",
          "type": "address"
        }
      ],
      "name": "purchaseWithFlow",
      "outputs": [],
      "stateMutability": "payable",
      "type": "function"
    },
    {
      "inputs": [
        {
          "internalType": "address",
          "name": "",
          "type": "address"
        }
      ],
      "name": "referralCount",
      "outputs": [
        {
          "internalType": "uint256",
          "name": "",
          "type": "uint256"
        }
      ],
      "stateMutability": "view",
      "type": "function"
    },
    {
      "inputs": [
        {
          "internalType": "uint256",
          "name": "",
          "type": "uint256"
        }
      ],
      "name": "referralPercentages",
      "outputs": [
        {
          "internalType": "uint8",
          "name": "",
          "type": "uint8"
        }
      ],
      "stateMutability": "view",
      "type": "function"
    },
    {
      "inputs": [
        {
          "internalType": "uint256",
          "name": "",
          "type": "uint256"
        }
      ],
      "name": "referralStages",
      "outputs": [
        {
          "internalType": "uint32",
          "name": "",
          "type": "uint32"
        }
      ],
      "stateMutability": "view",
      "type": "function"
    },
    {
      "inputs": [],
      "name": "renounceOwnership",
      "outputs": [],
      "stateMutability": "nonpayable",
      "type": "function"
    },
    {
      "inputs": [
        {
          "internalType": "address",
          "name": "from",
          "type": "address"
        },
        {
          "internalType": "address",
          "name": "to",
          "type": "address"
        },
        {
          "internalType": "uint256",
          "name": "tokenId",
          "type": "uint256"
        }
      ],
      "name": "safeTransferFrom",
      "outputs": [],
      "stateMutability": "nonpayable",
      "type": "function"
    },
    {
      "inputs": [
        {
          "internalType": "address",
          "name": "from",
          "type": "address"
        },
        {
          "internalType": "address",
          "name": "to",
          "type": "address"
        },
        {
          "internalType": "uint256",
          "name": "tokenId",
          "type": "uint256"
        },
        {
          "internalType": "bytes",
          "name": "data",
          "type": "bytes"
        }
      ],
      "name": "safeTransferFrom",
      "outputs": [],
      "stateMutability": "nonpayable",
      "type": "function"
    },
    {
      "inputs": [
        {
          "internalType": "address",
          "name": "operator",
          "type": "address"
        },
        {
          "internalType": "bool",
          "name": "approved",
          "type": "bool"
        }
      ],
      "name": "setApprovalForAll",
      "outputs": [],
      "stateMutability": "nonpayable",
      "type": "function"
    },
    {
      "inputs": [
        {
          "internalType": "address",
          "name": "_gameAddress",
          "type": "address"
        },
        {
          "internalType": "address",
          "name": "_lobbyAddress",
          "type": "address"
        },
        {
          "internalType": "address",
          "name": "_shipGenerator",
          "type": "address"
        },
        {
          "internalType": "address",
          "name": "_randomManager",
          "type": "address"
        },
        {
          "internalType": "address",
          "name": "_metadataRenderer",
          "type": "address"
        }
      ],
      "name": "setConfig",
      "outputs": [],
      "stateMutability": "nonpayable",
      "type": "function"
    },
    {
      "inputs": [
        {
          "internalType": "uint256",
          "name": "_id",
          "type": "uint256"
        }
      ],
      "name": "setCostOfShip",
      "outputs": [],
      "stateMutability": "nonpayable",
      "type": "function"
    },
    {
      "inputs": [
        {
          "components": [
            {
              "internalType": "uint16",
              "name": "version",
              "type": "uint16"
            },
            {
              "internalType": "uint8",
              "name": "baseCost",
              "type": "uint8"
            },
            {
              "internalType": "uint8[]",
              "name": "accuracy",
              "type": "uint8[]"
            },
            {
              "internalType": "uint8[]",
              "name": "hull",
              "type": "uint8[]"
            },
            {
              "internalType": "uint8[]",
              "name": "speed",
              "type": "uint8[]"
            },
            {
              "internalType": "uint8[]",
              "name": "mainWeapon",
              "type": "uint8[]"
            },
            {
              "internalType": "uint8[]",
              "name": "armor",
              "type": "uint8[]"
            },
            {
              "internalType": "uint8[]",
              "name": "shields",
              "type": "uint8[]"
            },
            {
              "internalType": "uint8[]",
              "name": "special",
              "type": "uint8[]"
            }
          ],
          "internalType": "struct Costs",
          "name": "_costs",
          "type": "tuple"
        }
      ],
      "name": "setCosts",
      "outputs": [],
      "stateMutability": "nonpayable",
      "type": "function"
    },
    {
      "inputs": [
        {
          "internalType": "uint256",
          "name": "_id",
          "type": "uint256"
        },
        {
          "internalType": "bool",
          "name": "_inFleet",
          "type": "bool"
        }
      ],
      "name": "setInFleet",
      "outputs": [],
      "stateMutability": "nonpayable",
      "type": "function"
    },
    {
      "inputs": [
        {
          "internalType": "uint8",
          "name": "_numberOfVariants",
          "type": "uint8"
        }
      ],
      "name": "setNumberOfVariants",
      "outputs": [],
      "stateMutability": "nonpayable",
      "type": "function"
    },
    {
      "inputs": [
        {
          "internalType": "bool",
          "name": "_paused",
          "type": "bool"
        }
      ],
      "name": "setPaused",
      "outputs": [],
      "stateMutability": "nonpayable",
      "type": "function"
    },
    {
      "inputs": [
        {
          "internalType": "uint8[]",
          "name": "_purchaseTiers",
          "type": "uint8[]"
        },
        {
          "internalType": "uint8[]",
          "name": "_tierShips",
          "type": "uint8[]"
        },
        {
          "internalType": "uint256[]",
          "name": "_tierPrices",
          "type": "uint256[]"
        }
      ],
      "name": "setPurchaseInfo",
      "outputs": [],
      "stateMutability": "nonpayable",
      "type": "function"
    },
    {
      "inputs": [
        {
          "internalType": "uint256",
          "name": "_id",
          "type": "uint256"
        }
      ],
      "name": "setTimestampDestroyed",
      "outputs": [],
      "stateMutability": "nonpayable",
      "type": "function"
    },
    {
      "inputs": [],
      "name": "shipCount",
      "outputs": [
        {
          "internalType": "uint256",
          "name": "",
          "type": "uint256"
        }
      ],
      "stateMutability": "view",
      "type": "function"
    },
    {
      "inputs": [
        {
          "internalType": "uint256",
          "name": "",
          "type": "uint256"
        }
      ],
      "name": "ships",
      "outputs": [
        {
          "internalType": "string",
          "name": "name",
          "type": "string"
        },
        {
          "internalType": "uint256",
          "name": "id",
          "type": "uint256"
        },
        {
          "components": [
            {
              "internalType": "enum MainWeapon",
              "name": "mainWeapon",
              "type": "uint8"
            },
            {
              "internalType": "enum Armor",
              "name": "armor",
              "type": "uint8"
            },
            {
              "internalType": "enum Shields",
              "name": "shields",
              "type": "uint8"
            },
            {
              "internalType": "enum Special",
              "name": "special",
              "type": "uint8"
            }
          ],
          "internalType": "struct Equipment",
          "name": "equipment",
          "type": "tuple"
        },
        {
          "components": [
            {
              "internalType": "uint256",
              "name": "serialNumber",
              "type": "uint256"
            },
            {
              "internalType": "uint8",
              "name": "r1",
              "type": "uint8"
            },
            {
              "internalType": "uint8",
              "name": "g1",
              "type": "uint8"
            },
            {
              "internalType": "uint8",
              "name": "b1",
              "type": "uint8"
            },
            {
              "internalType": "uint8",
              "name": "r2",
              "type": "uint8"
            },
            {
              "internalType": "uint8",
              "name": "g2",
              "type": "uint8"
            },
            {
              "internalType": "uint8",
              "name": "b2",
              "type": "uint8"
            },
            {
              "internalType": "uint8",
              "name": "variant",
              "type": "uint8"
            },
            {
              "internalType": "uint8",
              "name": "accuracy",
              "type": "uint8"
            },
            {
              "internalType": "uint8",
              "name": "hull",
              "type": "uint8"
            },
            {
              "internalType": "uint8",
              "name": "speed",
              "type": "uint8"
            }
          ],
          "internalType": "struct Traits",
          "name": "traits",
          "type": "tuple"
        },
        {
          "components": [
            {
              "internalType": "uint256",
              "name": "gameId",
              "type": "uint256"
            },
            {
              "components": [
                {
                  "internalType": "uint8",
                  "name": "version",
                  "type": "uint8"
                },
                {
                  "internalType": "uint8",
                  "name": "range",
                  "type": "uint8"
                },
                {
                  "internalType": "uint8",
                  "name": "gunDamage",
                  "type": "uint8"
                },
                {
                  "internalType": "uint8",
                  "name": "hullPoints",
                  "type": "uint8"
                },
                {
                  "internalType": "uint8",
                  "name": "movement",
                  "type": "uint8"
                },
                {
                  "internalType": "uint8[]",
                  "name": "statusEffects",
                  "type": "uint8[]"
                }
              ],
              "internalType": "struct Attributes",
              "name": "attributes",
              "type": "tuple"
            },
            {
              "internalType": "uint8",
              "name": "damageTaken",
              "type": "uint8"
            },
            {
              "internalType": "bool",
              "name": "inLobby",
              "type": "bool"
            },
            {
              "internalType": "bool",
              "name": "movedThisTurn",
              "type": "bool"
            },
            {
              "internalType": "bool",
              "name": "firedThisTurn",
              "type": "bool"
            }
          ],
          "internalType": "struct GameData",
          "name": "gameData",
          "type": "tuple"
        },
        {
          "components": [
            {
              "internalType": "uint32",
              "name": "shipsDestroyed",
              "type": "uint32"
            },
            {
              "internalType": "uint16",
              "name": "costsVersion",
              "type": "uint16"
            },
            {
              "internalType": "uint16",
              "name": "cost",
              "type": "uint16"
            },
            {
              "internalType": "bool",
              "name": "shiny",
              "type": "bool"
            },
            {
              "internalType": "bool",
              "name": "constructed",
              "type": "bool"
            },
            {
              "internalType": "bool",
              "name": "inFleet",
              "type": "bool"
            },
            {
              "internalType": "uint256",
              "name": "timestampDestroyed",
              "type": "uint256"
            }
          ],
          "internalType": "struct ShipData",
          "name": "shipData",
          "type": "tuple"
        },
        {
          "internalType": "address",
          "name": "owner",
          "type": "address"
        }
      ],
      "stateMutability": "view",
      "type": "function"
    },
    {
      "inputs": [
        {
          "internalType": "bytes4",
          "name": "interfaceId",
          "type": "bytes4"
        }
      ],
      "name": "supportsInterface",
      "outputs": [
        {
          "internalType": "bool",
          "name": "",
          "type": "bool"
        }
      ],
      "stateMutability": "view",
      "type": "function"
    },
    {
      "inputs": [],
      "name": "symbol",
      "outputs": [
        {
          "internalType": "string",
          "name": "",
          "type": "string"
        }
      ],
      "stateMutability": "view",
      "type": "function"
    },
    {
      "inputs": [
        {
          "internalType": "uint256",
          "name": "",
          "type": "uint256"
        }
      ],
      "name": "tierPrices",
      "outputs": [
        {
          "internalType": "uint256",
          "name": "",
          "type": "uint256"
        }
      ],
      "stateMutability": "view",
      "type": "function"
    },
    {
      "inputs": [
        {
          "internalType": "uint256",
          "name": "",
          "type": "uint256"
        }
      ],
      "name": "tierShips",
      "outputs": [
        {
          "internalType": "uint8",
          "name": "",
          "type": "uint8"
        }
      ],
      "stateMutability": "view",
      "type": "function"
    },
    {
      "inputs": [
        {
          "internalType": "uint256",
          "name": "_id",
          "type": "uint256"
        }
      ],
      "name": "tokenURI",
      "outputs": [
        {
          "internalType": "string",
          "name": "",
          "type": "string"
        }
      ],
      "stateMutability": "view",
      "type": "function"
    },
    {
      "inputs": [
        {
          "internalType": "address",
          "name": "from",
          "type": "address"
        },
        {
          "internalType": "address",
          "name": "to",
          "type": "address"
        },
        {
          "internalType": "uint256",
          "name": "tokenId",
          "type": "uint256"
        }
      ],
      "name": "transferFrom",
      "outputs": [],
      "stateMutability": "nonpayable",
      "type": "function"
    },
    {
      "inputs": [
        {
          "internalType": "address",
          "name": "newOwner",
          "type": "address"
        }
      ],
      "name": "transferOwnership",
      "outputs": [],
      "stateMutability": "nonpayable",
      "type": "function"
    },
    {
      "inputs": [],
      "name": "withdraw",
      "outputs": [],
      "stateMutability": "nonpayable",
      "type": "function"
    }
  ],
  "bytecode": "0x61012060405260006080908152600a60a052601460c052602360e05260326101005261002f90600e9060056103fa565b506040805160a081018252606481526103e860208201526127109181019190915261c3506060820152620186a0608082015261006f90600f9060056104a0565b506021805462ffff00191661010017905534801561008c57600080fd5b506040516164303803806164308339810160408190526100ab91610597565b336040518060400160405280600e81526020016d57617270666c6f7720536869707360901b815250604051806040016040528060048152602001630534849560e41b81525081600090816100ff9190610666565b50600161010c8282610666565b5050506001600160a01b03811661013d57604051631e4fbdf760e01b81526000600482015260240160405180910390fd5b610146816103a8565b506001600755601280546001600160a01b0319166001600160a01b0383161790556018805462ffffff1916623200011790556040805160608101825260008152600a602082015260199181018290526101a1919060036103fa565b506040805160608101825260008152600a60208201526019918101919091526101ce90601a9060036103fa565b506040805160608101825260008152600a60208201526019918101919091526101fb90601b9060036103fa565b506040805160808101825260198152601e60208201526028918101829052606081019190915261022f90601c9060046103fa565b50604080516080810182526000815260056020820152600a91810191909152600f606082015261026390601d9060046103fa565b506040805160808101825260008152600a6020820152601491810191909152601e606082018190526102969160046103fa565b506040805160808101825260008152600a6020820152601491810191909152600f60608201526102ca90601f9060046103fa565b506040805160a081018252600181526002602082015260039181019190915260046060820152600560808201819052610305916015916103fa565b506040805160a0810182526005808252600b6020830152601c92820192909252603c6060820152607d608082015261034091601691906103fa565b506040805160a0810182526745400a8fd53300008152678aa39c121a270000602082015268015ace5098e9030000918101919091526802b5c0282441c70000606082015268056ba3d73af34f000060808201526103a190601790600561053c565b5050610724565b600680546001600160a01b038381166001600160a01b0319831681179093556040519116919082907f8be0079c531659141344cd1fd0a4f28419497f9722a3daafe3b4186f6b6457e090600090a35050565b82805482825590600052602060002090601f016020900481019282156104905791602002820160005b8382111561046157835183826101000a81548160ff021916908360ff1602179055509260200192600101602081600001049283019260010302610423565b801561048e5782816101000a81549060ff0219169055600101602081600001049283019260010302610461565b505b5061049c929150610582565b5090565b828054828255906000526020600020906007016008900481019282156104905791602002820160005b8382111561050c57835183826101000a81548163ffffffff021916908362ffffff16021790555092602001926004016020816003010492830192600103026104c9565b801561048e5782816101000a81549063ffffffff021916905560040160208160030104928301926001030261050c565b828054828255906000526020600020908101928215610490579160200282015b8281111561049057825182906001600160481b031690559160200191906001019061055c565b5b8082111561049c5760008155600101610583565b6000602082840312156105a957600080fd5b81516001600160a01b03811681146105c057600080fd5b9392505050565b634e487b7160e01b600052604160045260246000fd5b600181811c908216806105f157607f821691505b60208210810361061157634e487b7160e01b600052602260045260246000fd5b50919050565b601f82111561066157806000526020600020601f840160051c8101602085101561063e5750805b601f840160051c820191505b8181101561065e576000815560010161064a565b50505b505050565b81516001600160401b0381111561067f5761067f6105c7565b6106938161068d84546105dd565b84610617565b6020601f8211600181146106c757600083156106af5750848201515b600019600385901b1c1916600184901b17845561065e565b600084815260208120601f198516915b828110156106f757878501518255602094850194600190920191016106d7565b50848210156107155786840151600019600387901b60f8161c191681555b50505050600190811b01905550565b615cfd806107336000396000f3fe6080604052600436106102e45760003560e01c8063643e7afd11610190578063a22cb465116100dc578063c87b56dd11610095578063dd81d5bf1161006f578063dd81d5bf146109ad578063e985e9c5146109cd578063f25a0342146109ed578063f2fde38b14610a1a57600080fd5b8063c87b56dd1461092b578063cfca9a7f1461094b578063db74559b1461098057600080fd5b8063a22cb46514610865578063a5099bae14610885578063b4e847a0146108a5578063b662abf5146108bb578063b88d4fde146108db578063c51544c5146108fb57600080fd5b80637ac2bc03116101495780638163997c116101235780638163997c146107fd5780638da5cb5b1461081257806395d89b41146108305780639636c7621461084557600080fd5b80637ac2bc031461079d5780637d9e9d30146107bd5780637eebe99d146107dd57600080fd5b8063643e7afd1461067d5780636e0f7a481461069357806370a08231146106b3578063715018a6146106d3578063776d62f6146106e857806379502c551461072a57600080fd5b8063300eccab1161024f57806348cfc19e1161020857806359e651e0116101e257806359e651e0146105f65780635c975abb14610623578063612124311461063d5780636352211e1461065d57600080fd5b806348cfc19e146105725780634d4e8dfa1461059657806356a3ee77146105c957600080fd5b8063300eccab146104905780633ccfd60b146104be5780633f0bc9a5146104d35780634025b22d1461050557806342842e0e14610532578063446c00f71461055257600080fd5b806311aaa5c9116102a157806311aaa5c9146103dd57806311bf541f146103f057806316c38b3c146104105780631ad7317c146104305780631d727ba51461045057806323b872dd1461047057600080fd5b806301ffc9a7146102e9578063030750181461031e578063053f5bbf1461034157806306fdde0314610363578063081812fc14610385578063095ea7b3146103bd575b600080fd5b3480156102f557600080fd5b50610309610304366004613e60565b610a3a565b60405190151581526020015b60405180910390f35b34801561032a57600080fd5b50610333610a8c565b604051610315929190613ebc565b34801561034d57600080fd5b5061036161035c3660046141b1565b610e51565b005b34801561036f57600080fd5b50610378610ecb565b6040516103159190614292565b34801561039157600080fd5b506103a56103a03660046142a5565b610f5d565b6040516001600160a01b039091168152602001610315565b3480156103c957600080fd5b506103616103d83660046142d3565b610f86565b6103616103eb3660046142ff565b610f95565b3480156103fc57600080fd5b5061036161040b366004614341565b6110b9565b34801561041c57600080fd5b5061036161042b36600461436c565b6110dd565b34801561043c57600080fd5b5061036161044b366004614389565b6110f8565b34801561045c57600080fd5b5061036161046b366004614415565b6111de565b34801561047c57600080fd5b5061036161048b3660046145ab565b6112e5565b34801561049c57600080fd5b506104b06104ab3660046142a5565b61136a565b604051908152602001610315565b3480156104ca57600080fd5b5061036161138b565b3480156104df57600080fd5b506104f36104ee3660046142a5565b61143e565b60405160ff9091168152602001610315565b34801561051157600080fd5b506105256105203660046142a5565b611472565b6040516103159190614906565b34801561053e57600080fd5b5061036161054d3660046145ab565b611877565b34801561055e57600080fd5b5061036161056d3660046142a5565b611892565b34801561057e57600080fd5b506105876118e1565b6040516103159392919061494b565b3480156105a257600080fd5b506105b66105b13660046142a5565b611a29565b6040516103159796959493929190614984565b3480156105d557600080fd5b506104b06105e43660046149fb565b600c6020526000908152604090205481565b34801561060257600080fd5b506106166106113660046149fb565b611efd565b6040516103159190614a18565b34801561062f57600080fd5b506021546103099060ff1681565b34801561064957600080fd5b506104f36106583660046142a5565b611f21565b34801561066957600080fd5b506103a56106783660046142a5565b611f31565b34801561068957600080fd5b506104b060205481565b34801561069f57600080fd5b506104f36106ae3660046142a5565b611f3c565b3480156106bf57600080fd5b506104b06106ce3660046149fb565b611f6d565b3480156106df57600080fd5b50610361611fb5565b3480156106f457600080fd5b5060185461070e9061ffff81169062010000900460ff1682565b6040805161ffff909316835260ff909116602083015201610315565b34801561073657600080fd5b50601054601154601254601354601454610763946001600160a01b03908116948116938116928116911685565b604080516001600160a01b03968716815294861660208601529285169284019290925283166060830152909116608082015260a001610315565b3480156107a957600080fd5b506103616107b83660046142a5565b611fc9565b3480156107c957600080fd5b506103616107d8366004614a2b565b612061565b3480156107e957600080fd5b506103616107f8366004614a5f565b612097565b34801561080957600080fd5b5061036161210b565b34801561081e57600080fd5b506006546001600160a01b03166103a5565b34801561083c57600080fd5b50610378612192565b34801561085157600080fd5b506104b06108603660046142a5565b6121a1565b34801561087157600080fd5b50610361610880366004614a8f565b6121dc565b34801561089157600080fd5b506104f36108a03660046142a5565b6121e7565b3480156108b157600080fd5b506104b060095481565b3480156108c757600080fd5b506104f36108d63660046142a5565b6121f2565b3480156108e757600080fd5b506103616108f6366004614ae4565b612202565b34801561090757600080fd5b506103096109163660046149fb565b600b6020526000908152604090205460ff1681565b34801561093757600080fd5b506103786109463660046142a5565b61221a565b34801561095757600080fd5b5061096b6109663660046142a5565b61229e565b60405163ffffffff9091168152602001610315565b34801561098c57600080fd5b506104b061099b3660046149fb565b600d6020526000908152604090205481565b3480156109b957600080fd5b506103616109c83660046142a5565b6122d8565b3480156109d957600080fd5b506103096109e8366004614b8d565b61274c565b3480156109f957600080fd5b50610a0d610a08366004614a2b565b61277a565b6040516103159190614bbb565b348015610a2657600080fd5b50610361610a353660046149fb565b612c23565b60006001600160e01b031982166380ac58cd60e01b1480610a6b57506001600160e01b03198216635b5e139f60e01b145b80610a8657506301ffc9a760e01b6001600160e01b03198316145b92915050565b6000610ae4604051806101200160405280600061ffff168152602001600060ff168152602001606081526020016060815260200160608152602001606081526020016060815260200160608152602001606081525090565b6020805460408051610120810182526018805461ffff8116835262010000900460ff168286015260198054845181880281018801865281815295969295939486949086019390929190830182828015610b7a57602002820191906000526020600020906000905b825461010083900a900460ff16815260206001928301818104948501949093039092029101808411610b4b5790505b5050505050815260200160028201805480602002602001604051908101604052809291908181526020018280548015610bf057602002820191906000526020600020906000905b825461010083900a900460ff16815260206001928301818104948501949093039092029101808411610bc15790505b5050505050815260200160038201805480602002602001604051908101604052809291908181526020018280548015610c6657602002820191906000526020600020906000905b825461010083900a900460ff16815260206001928301818104948501949093039092029101808411610c375790505b5050505050815260200160048201805480602002602001604051908101604052809291908181526020018280548015610cdc57602002820191906000526020600020906000905b825461010083900a900460ff16815260206001928301818104948501949093039092029101808411610cad5790505b5050505050815260200160058201805480602002602001604051908101604052809291908181526020018280548015610d5257602002820191906000526020600020906000905b825461010083900a900460ff16815260206001928301818104948501949093039092029101808411610d235790505b5050505050815260200160068201805480602002602001604051908101604052809291908181526020018280548015610dc857602002820191906000526020600020906000905b825461010083900a900460ff16815260206001928301818104948501949093039092029101808411610d995790505b5050505050815260200160078201805480602002602001604051908101604052809291908181526020018280548015610e3e57602002820191906000526020600020906000905b825461010083900a900460ff16815260206001928301818104948501949093039092029101808411610e0f5790505b5050505050815250509050915091509091565b610e59612c5e565b81518351141580610e6c57508051825114155b15610e8a5760405163512509d360e11b815260040160405180910390fd5b8251610e9d906015906020860190613bff565b508151610eb1906016906020850190613bff565b508051610ec5906017906020840190613ca5565b50505050565b606060008054610eda90614c20565b80601f0160208091040260200160405190810160405280929190818152602001828054610f0690614c20565b8015610f535780601f10610f2857610100808354040283529160200191610f53565b820191906000526020600020905b815481529060010190602001808311610f3657829003601f168201915b5050505050905090565b6000610f6882612c8b565b506000828152600460205260409020546001600160a01b0316610a86565b610f91828233612cc4565b5050565b610f9d612cd1565b60178281548110610fb057610fb0614c5a565b90600052602060002001543414610fe8576040516312a1605d60e31b8152600481018390523460248201526044015b60405180910390fd5b6001600160a01b03811661100f5760405163119833d760e11b815260040160405180910390fd5b60006016838154811061102457611024614c5a565b60009182526020808320908204015460ff601f9092166101000a90041691505b8181101561105d5761105585612cfb565b600101611044565b5061108682826017868154811061107657611076614c5a565b9060005260206000200154612df2565b506001600160a01b0383166000908152600b60205260409020805460ff191660011790556110b46001600755565b505050565b6110c1612c5e565b6021805462ffff00191660ff9290921661010002919091179055565b6110e5612c5e565b6021805460ff1916911515919091179055565b611100612c5e565b6001600160a01b0385161561112b57601080546001600160a01b0319166001600160a01b0387161790555b6001600160a01b0384161561115657601180546001600160a01b0319166001600160a01b0386161790555b6001600160a01b0383161561118157601480546001600160a01b0319166001600160a01b0385161790555b6001600160a01b038216156111ac57601380546001600160a01b0319166001600160a01b0384161790555b6001600160a01b038116156111d757601280546001600160a01b0319166001600160a01b0383161790555b5050505050565b6111e6612c5e565b602080549060006111f683614c86565b909155505080516018805460208085015160ff16620100000262ffffff1990921661ffff9094169390931717815560408301518051849361123c92601992910190613bff565b5060608201518051611258916002840191602090910190613bff565b5060808201518051611274916003840191602090910190613bff565b5060a08201518051611290916004840191602090910190613bff565b5060c082015180516112ac916005840191602090910190613bff565b5060e082015180516112c8916006840191602090910190613bff565b506101008201518051610ec5916007840191602090910190613bff565b6001600160a01b03821661130f57604051633250574960e11b815260006004820152602401610fdf565b600061131c838333612fa6565b9050836001600160a01b0316816001600160a01b031614610ec5576040516364283d7b60e01b81526001600160a01b0380861660048301526024820184905282166044820152606401610fdf565b6017818154811061137a57600080fd5b600091825260209091200154905081565b611393612c5e565b60006113a76006546001600160a01b031690565b6001600160a01b03164760405160006040518083038185875af1925050503d80600081146113f1576040519150601f19603f3d011682016040523d82523d6000602084013e6113f6565b606091505b505090508061143b5760405162461bcd60e51b815260206004820152601160248201527015da5d1a191c985dd85b0819985a5b1959607a1b6044820152606401610fdf565b50565b6015818154811061144e57600080fd5b9060005260206000209060209182820401919006915054906101000a900460ff1681565b61147a613ce0565b60008281526008602052604090819020815160e081019092528054829082906114a290614c20565b80601f01602080910402602001604051908101604052809291908181526020018280546114ce90614c20565b801561151b5780601f106114f05761010080835404028352916020019161151b565b820191906000526020600020905b8154815290600101906020018083116114fe57829003601f168201915b5050509183525050600182015460208201526040805160808101825260028401805492909301929091829060ff16600381111561155a5761155a6145ec565b600381111561156b5761156b6145ec565b81528154602090910190610100900460ff16600381111561158e5761158e6145ec565b600381111561159f5761159f6145ec565b8152815460209091019062010000900460ff1660038111156115c3576115c36145ec565b60038111156115d4576115d46145ec565b815281546020909101906301000000900460ff1660038111156115f9576115f96145ec565b600381111561160a5761160a6145ec565b9052508152604080516101608101825260038401548152600484015460ff808216602084810191909152610100808404831685870152620100008085048416606080880191909152630100000080870486166080808a0191909152640100000000808904881660a0808c0191909152650100000000008a04891660c0808d0191909152600160301b8b048a1660e08d0152600160381b8b048a16888d0152600160401b8b048a166101208d0152600160481b909a0489166101408c0152878d019a909a528a51808a018c5260058e01805482528c519a8b018d5260068f018054808c168d529889048b168c8b01529688048a168b8e01529387048916948a0194909452909404909516928601929092526007890180548851818602810186018a5281815298909901989297949688850196959294908601939083018282801561179057602002820191906000526020600020906000905b825461010083900a900460ff168152602060019283018181049485019490930390920291018084116117615790505b5050509190925250505081526003919091015460ff80821660208085019190915261010083048216151560408086019190915262010000840483161515606080870191909152630100000090940483161515608095860152948652845160e081018652600988015463ffffffff8116825261ffff6401000000008204811683850152600160301b82041682880152600160401b81048416151594820194909452600160481b84048316151594810194909452600160501b90920416151560a0830152600a85015460c0830152830152600b909201546001600160a01b031691015292915050565b6110b483838360405180602001604052806000815250612202565b6006546001600160a01b031633148015906118b857506010546001600160a01b03163314155b156118d857604051634a0bfec160e01b8152336004820152602401610fdf565b61143b81613161565b60608060606015601660178280548060200260200160405190810160405280929190818152602001828054801561195557602002820191906000526020600020906000905b825461010083900a900460ff168152602060019283018181049485019490930390920291018084116119265790505b50505050509250818054806020026020016040519081016040528092919081815260200182805480156119c557602002820191906000526020600020906000905b825461010083900a900460ff168152602060019283018181049485019490930390920291018084116119965790505b5050505050915080805480602002602001604051908101604052809291908181526020018280548015611a1757602002820191906000526020600020905b815481526020019060010190808311611a03575b50505050509050925092509250909192565b600860205260009081526040902080548190611a4490614c20565b80601f0160208091040260200160405190810160405280929190818152602001828054611a7090614c20565b8015611abd5780601f10611a9257610100808354040283529160200191611abd565b820191906000526020600020905b815481529060010190602001808311611aa057829003601f168201915b505050505090806001015490806002016040518060800160405290816000820160009054906101000a900460ff166003811115611afc57611afc6145ec565b6003811115611b0d57611b0d6145ec565b81528154602090910190610100900460ff166003811115611b3057611b306145ec565b6003811115611b4157611b416145ec565b8152815460209091019062010000900460ff166003811115611b6557611b656145ec565b6003811115611b7657611b766145ec565b815281546020909101906301000000900460ff166003811115611b9b57611b9b6145ec565b6003811115611bac57611bac6145ec565b81525050908060030160405180610160016040529081600082015481526020016001820160009054906101000a900460ff1660ff1660ff1681526020016001820160019054906101000a900460ff1660ff1660ff1681526020016001820160029054906101000a900460ff1660ff1660ff1681526020016001820160039054906101000a900460ff1660ff1660ff1681526020016001820160049054906101000a900460ff1660ff1660ff1681526020016001820160059054906101000a900460ff1660ff1660ff1681526020016001820160069054906101000a900460ff1660ff1660ff1681526020016001820160079054906101000a900460ff1660ff1660ff1681526020016001820160089054906101000a900460ff1660ff1660ff1681526020016001820160099054906101000a900460ff1660ff1660ff168152505090806005016040518060c001604052908160008201548152602001600182016040518060c00160405290816000820160009054906101000a900460ff1660ff1660ff1681526020016000820160019054906101000a900460ff1660ff1660ff1681526020016000820160029054906101000a900460ff1660ff1660ff1681526020016000820160039054906101000a900460ff1660ff1660ff1681526020016000820160049054906101000a900460ff1660ff1660ff16815260200160018201805480602002602001604051908101604052809291908181526020018280548015611e1557602002820191906000526020600020906000905b825461010083900a900460ff16815260206001928301818104948501949093039092029101808411611de65790505b5050509190925250505081526003919091015460ff80821660208085019190915261010083048216151560408086019190915262010000840483161515606080870191909152630100000090940483161515608095860152805160e081018252600988015463ffffffff8116825261ffff6401000000008204811694830194909452600160301b810490931691810191909152600160401b82048316151593810193909352600160481b81048216151593830193909352600160501b909204909116151560a0820152600a83015460c0820152600b909201549091906001600160a01b031687565b6001600160a01b0381166000908152600a60205260409020606090610a86906134c2565b6016818154811061144e57600080fd5b6000610a8682612c8b565b60006032821015611f4f57506000919050565b6050821015611f6057506001919050565b506002919050565b919050565b60006001600160a01b038216611f99576040516322718ad960e21b815260006004820152602401610fdf565b506001600160a01b031660009081526003602052604090205490565b611fbd612c5e565b611fc760006134d6565b565b6006546001600160a01b03163314801590611fef57506010546001600160a01b03163314155b1561200f57604051634a0bfec160e01b8152336004820152602401610fdf565b6000818152600860205260409081902042600a90910155517ff8e1a15aba9398e019f0b49df1a4fde98ee17ae345cb5f6b5e2c27f5033e8ce7906120569083815260200190565b60405180910390a150565b60005b8151811015610f915761208f82828151811061208257612082614c5a565b60200260200101516122d8565b600101612064565b6011546001600160a01b031633148015906120bd57506010546001600160a01b03163314155b156120dd57604051634a0bfec160e01b8152336004820152602401610fdf565b6000918252600860205260409091206009018054911515600160501b0260ff60501b19909216919091179055565b336000908152600a60205260408120612123906134c2565b905060005b8151811015610f91576008600083838151811061214757612147614c5a565b6020026020010151815260200190815260200160002060090160000160099054906101000a900460ff1661218a5761218a82828151811061208257612082614c5a565b600101612128565b606060018054610eda90614c20565b6000816000036121b357506001919050565b60005b8215610a8657806121c681614c86565b91506121d59050600a84614cb5565b92506121b6565b610f91338383613528565b6000610a86826121a1565b600e818154811061144e57600080fd5b61220d8484846112e5565b610ec533858585856135c7565b601254600082815260086020526040908190209051633bc2173960e11b81526060926001600160a01b0316916377842e729161225991906004016153aa565b600060405180830381865afa158015612276573d6000803e3d6000fd5b505050506040513d6000823e601f3d908101601f19168201604052610a869190810190615571565b600f81815481106122ae57600080fd5b9060005260206000209060089182820401919006600402915054906101000a900463ffffffff1681565b6040518181527ff8e1a15aba9398e019f0b49df1a4fde98ee17ae345cb5f6b5e2c27f5033e8ce79060200160405180910390a16000818152600860205260409020600b8101546001600160a01b031633146123485760405162dd34af60e41b815260048101839052602401610fdf565b6009810154600160481b900460ff161561237857604051635331ce1f60e11b815260048101839052602401610fdf565b60098101805469ff0000000000000000001916600160481b1790556013546003820154604051632f09b60960e21b81526000926001600160a01b03169163bc26d824916123cc919060040190815260200190565b6020604051808303816000875af11580156123eb573d6000803e3d6000fd5b505050506040513d601f19601f8201168201806040525081019061240f91906155a5565b601454602154604051638bf0bf0f60e01b81526001600160401b03841660048201526024810187905261010090910461ffff1660448201529192506000916001600160a01b0390911690638bf0bf0f90606401600060405180830381865afa15801561247f573d6000803e3d6000fd5b505050506040513d6000823e601f3d908101601f191682016040526124a7919081019061598c565b805190915083906124b89082615ac2565b508060600151836003016000820151816000015560208201518160010160006101000a81548160ff021916908360ff16021790555060408201518160010160016101000a81548160ff021916908360ff16021790555060608201518160010160026101000a81548160ff021916908360ff16021790555060808201518160010160036101000a81548160ff021916908360ff16021790555060a08201518160010160046101000a81548160ff021916908360ff16021790555060c08201518160010160056101000a81548160ff021916908360ff16021790555060e08201518160010160066101000a81548160ff021916908360ff1602179055506101008201518160010160076101000a81548160ff021916908360ff1602179055506101208201518160010160086101000a81548160ff021916908360ff1602179055506101408201518160010160096101000a81548160ff021916908360ff16021790555090505080604001518360020160008201518160000160006101000a81548160ff0219169083600381111561264f5761264f6145ec565b021790555060208201518154829061ff001916610100836003811115612677576126776145ec565b021790555060408201518154829062ff00001916620100008360038111156126a1576126a16145ec565b021790555060608201518154829063ff000000191663010000008360038111156126cd576126cd6145ec565b0217905550505060a08101516060810151600985018054925163ffffffff1663ffffffff19921515600160401b0292831668ff00000000ffffffff198516178117825560185464010000000061ffff9091160265ffffffffffff1990931668ff0000ffffffffffff1990941693909317909217179055610ec584613161565b6001600160a01b03918216600090815260056020908152604080832093909416825291909152205460ff1690565b6060600082516001600160401b0381111561279757612797613fca565b6040519080825280602002602001820160405280156127d057816020015b6127bd613ce0565b8152602001906001900390816127b55790505b50905060005b8351811015612c1c57600860008583815181106127f5576127f5614c5a565b602002602001015181526020019081526020016000206040518060e001604052908160008201805461282690614c20565b80601f016020809104026020016040519081016040528092919081815260200182805461285290614c20565b801561289f5780601f106128745761010080835404028352916020019161289f565b820191906000526020600020905b81548152906001019060200180831161288257829003601f168201915b5050509183525050600182015460208201526040805160808101825260028401805492909301929091829060ff1660038111156128de576128de6145ec565b60038111156128ef576128ef6145ec565b81528154602090910190610100900460ff166003811115612912576129126145ec565b6003811115612923576129236145ec565b8152815460209091019062010000900460ff166003811115612947576129476145ec565b6003811115612958576129586145ec565b815281546020909101906301000000900460ff16600381111561297d5761297d6145ec565b600381111561298e5761298e6145ec565b9052508152604080516101608101825260038401548152600484015460ff808216602084810191909152610100808404831685870152620100008085048416606080880191909152630100000080870486166080808a0191909152640100000000808904881660a0808c0191909152650100000000008a04891660c0808d0191909152600160301b8b048a1660e08d0152600160381b8b048a16888d0152600160401b8b048a166101208d0152600160481b909a0489166101408c0152878d019a909a528a51808a018c5260058e01805482528c519a8b018d5260068f018054808c168d529889048b168c8b01529688048a168b8e01529387048916948a0194909452909404909516928601929092526007890180548851818602810186018a52818152989099019892979496888501969592949086019390830182828015612b1457602002820191906000526020600020906000905b825461010083900a900460ff16815260206001928301818104948501949093039092029101808411612ae55790505b5050509190925250505081526003919091015460ff80821660208085019190915261010083048216151560408086019190915262010000840483161515606080870191909152630100000090940483161515608095860152948652845160e081018652600988015463ffffffff8116825261ffff6401000000008204811683850152600160301b82041682880152600160401b81048416151594820194909452600160481b84048316151594810194909452600160501b90920416151560a0830152600a85015460c0830152830152600b909201546001600160a01b03169101528251839083908110612c0957612c09614c5a565b60209081029190910101526001016127d6565b5092915050565b612c2b612c5e565b6001600160a01b038116612c5557604051631e4fbdf760e01b815260006004820152602401610fdf565b61143b816134d6565b6006546001600160a01b03163314611fc75760405163118cdaa760e01b8152336004820152602401610fdf565b6000818152600260205260408120546001600160a01b031680610a8657604051637e27328960e01b815260048101849052602401610fdf565b6110b483838360016136e9565b600260075403612cf457604051633ee5aeb560e01b815260040160405180910390fd5b6002600755565b60215460ff1615612d1f57604051636be9245d60e11b815260040160405180910390fd5b60098054906000612d2f83614c86565b909155505060095460008181526008602090815260408083206001810194909455601354815163f8413b0760e01b815291516001600160a01b039091169363f8413b07936004808501949193929183900301908290875af1158015612d98573d6000803e3d6000fd5b505050506040513d601f19601f82011682018060405250810190612dbc9190615b80565b6003820155600954612dcf9083906137ef565b600b0180546001600160a01b0319166001600160a01b0392909216919091179055565b6001600160a01b0383166000908152600d602052604081208054849290612e1a908490615b99565b9091555050600f546001905b8015612ee057600f612e39600183615bac565b81548110612e4957612e49614c5a565b600091825260208083206008830401546001600160a01b0389168452600d90915260409092205460079091166004026101000a90910463ffffffff1611612ece57600e612e97600183615bac565b81548110612ea757612ea7614c5a565b60009182526020918290209181049091015460ff601f9092166101000a9004169150612ee0565b80612ed881615bbf565b915050612e26565b5060006064612eef8385615bd6565b612ef99190614cb5565b90506000856001600160a01b03168260405160006040518083038185875af1925050503d8060008114612f48576040519150601f19603f3d011682016040523d82523d6000602084013e612f4d565b606091505b5050905080612f9e5760405162461bcd60e51b815260206004820152601860248201527f526566657272616c207472616e73666572206661696c656400000000000000006044820152606401610fdf565b505050505050565b6000828152600860205260408120600a015415612ff65760405162461bcd60e51b815260206004820152600e60248201526d14da1a5c0819195cdd1c9bde595960921b6044820152606401610fdf565b600083815260086020526040902060090154600160501b900460ff16156130335760405163128379f760e11b815260048101849052602401610fdf565b6000838152600860205260409020600b01546001600160a01b03168015613100576001600160a01b0381166000908152600b602052604090205460ff1661309857604051637aff97f360e11b81526001600160a01b0382166004820152602401610fdf565b6001600160a01b0385166000908152600b602052604090205460ff166130dc57604051637aff97f360e11b81526001600160a01b0386166004820152602401610fdf565b6001600160a01b0381166000908152600a602052604090206130fe9085613809565b505b6001600160a01b0385166000908152600a602052604090206131229085613815565b506000848152600860205260409020600b0180546001600160a01b0319166001600160a01b038716179055613158858585613821565b95945050505050565b60008181526008602052604081206002810154909190601f906301000000900460ff166003811115613195576131956145ec565b60ff16815481106131a8576131a8614c5a565b600091825260209182902091810490910154600284015460ff601f9093166101000a909104821691601e916201000090041660038111156131eb576131eb6145ec565b60ff16815481106131fe576131fe614c5a565b600091825260209182902091810490910154600285015460ff601f90931661010090810a909204831692601d92909104166003811115613240576132406145ec565b60ff168154811061325357613253614c5a565b600091825260209182902091810490910154600286015460ff601f9093166101000a909104821691601c91166003811115613290576132906145ec565b60ff16815481106132a3576132a3614c5a565b6000918252602091829020918104909101546004870154601b8054601f9094166101000a90920460ff90811693600160481b909204169081106132e8576132e8614c5a565b6000918252602091829020918104909101546004880154601a8054601f9094166101000a90920460ff90811693600160401b9092041690811061332d5761332d614c5a565b600091825260209182902091810490910154600489015460198054601f9094166101000a90920460ff90811693600160381b9092041690811061337257613372614c5a565b6000918252602091829020918104909101546018546133a792601f166101000a90910460ff9081169162010000900416615bed565b6133b19190615bed565b6133bb9190615bed565b6133c59190615bed565b6133cf9190615bed565b6133d99190615bed565b6133e39190615bed565b600983015460ff9190911691506000906134029063ffffffff166121e7565b60ff1690506000600182900361343057606461341f846000615c06565b6134299190615c23565b9050613488565b8161ffff1660020361344957606461341f84600a615c06565b8161ffff1660030361346257606461341f846014615c06565b60048261ffff161061348857606461347b84601e615c06565b6134859190615c23565b90505b60006134948285615c47565b6009909501805461ffff909616600160301b0267ffff00000000000019909616959095179094555050505050565b606060006134cf8361391a565b9392505050565b600680546001600160a01b038381166001600160a01b0319831681179093556040519116919082907f8be0079c531659141344cd1fd0a4f28419497f9722a3daafe3b4186f6b6457e090600090a35050565b6001600160a01b03821661355a57604051630b61174360e31b81526001600160a01b0383166004820152602401610fdf565b6001600160a01b03838116600081815260056020908152604080832094871680845294825291829020805460ff191686151590811790915591519182527f17307eab39ab6107e8899845ad3d59bd9653f200f220920489ca2b5937696c31910160405180910390a3505050565b6001600160a01b0383163b156111d757604051630a85bd0160e11b81526001600160a01b0384169063150b7a0290613609908890889087908790600401615c61565b6020604051808303816000875af1925050508015613644575060408051601f3d908101601f1916820190925261364191810190615c94565b60015b6136ad573d808015613672576040519150601f19603f3d011682016040523d82523d6000602084013e613677565b606091505b5080516000036136a557604051633250574960e11b81526001600160a01b0385166004820152602401610fdf565b805181602001fd5b6001600160e01b03198116630a85bd0160e11b14612f9e57604051633250574960e11b81526001600160a01b0385166004820152602401610fdf565b80806136fd57506001600160a01b03821615155b156137bf57600061370d84612c8b565b90506001600160a01b038316158015906137395750826001600160a01b0316816001600160a01b031614155b801561374c575061374a818461274c565b155b156137755760405163a9fbf51f60e01b81526001600160a01b0384166004820152602401610fdf565b81156137bd5783856001600160a01b0316826001600160a01b03167f8c5be1e5ebec7d5bd14f71427d1e84f3dd0314c0f7b2291e5b200ac8c7c3b92560405160405180910390a45b505b5050600090815260046020526040902080546001600160a01b0319166001600160a01b0392909216919091179055565b610f91828260405180602001604052806000815250613976565b60006134cf838361398e565b60006134cf8383613a81565b6000828152600260205260408120546001600160a01b039081169083161561384e5761384e818486613ad0565b6001600160a01b0381161561388c5761386b6000856000806136e9565b6001600160a01b038116600090815260036020526040902080546000190190555b6001600160a01b038516156138bb576001600160a01b0385166000908152600360205260409020805460010190555b60008481526002602052604080822080546001600160a01b0319166001600160a01b0389811691821790925591518793918516917fddf252ad1be2c89b69c2b068fc378daa952ba7f163c4a11628f55a4df523b3ef91a4949350505050565b60608160000180548060200260200160405190810160405280929190818152602001828054801561396a57602002820191906000526020600020905b815481526020019060010190808311613956575b50505050509050919050565b6139808383613b34565b6110b43360008585856135c7565b60008181526001830160205260408120548015613a775760006139b2600183615bac565b85549091506000906139c690600190615bac565b9050808214613a2b5760008660000182815481106139e6576139e6614c5a565b9060005260206000200154905080876000018481548110613a0957613a09614c5a565b6000918252602080832090910192909255918252600188019052604090208390555b8554869080613a3c57613a3c615cb1565b600190038181906000526020600020016000905590558560010160008681526020019081526020016000206000905560019350505050610a86565b6000915050610a86565b6000818152600183016020526040812054613ac857508154600181810184556000848152602080822090930184905584548482528286019093526040902091909155610a86565b506000610a86565b613adb838383613b99565b6110b4576001600160a01b038316613b0957604051637e27328960e01b815260048101829052602401610fdf565b60405163177e802f60e01b81526001600160a01b038316600482015260248101829052604401610fdf565b6001600160a01b038216613b5e57604051633250574960e11b815260006004820152602401610fdf565b6000613b6c83836000612fa6565b90506001600160a01b038116156110b4576040516339e3563760e11b815260006004820152602401610fdf565b60006001600160a01b03831615801590613bf75750826001600160a01b0316846001600160a01b03161480613bd35750613bd3848461274c565b80613bf757506000828152600460205260409020546001600160a01b038481169116145b949350505050565b82805482825590600052602060002090601f01602090048101928215613c955791602002820160005b83821115613c6657835183826101000a81548160ff021916908360ff1602179055509260200192600101602081600001049283019260010302613c28565b8015613c935782816101000a81549060ff0219169055600101602081600001049283019260010302613c66565b505b50613ca1929150613e35565b5090565b828054828255906000526020600020908101928215613c95579160200282015b82811115613c95578251825591602001919060010190613cc5565b6040518060e001604052806060815260200160008152602001613d246040805160808101909152806000815260200160008152602001600081526020016000905290565b8152604080516101608101825260008082526020828101829052928201819052606082018190526080820181905260a0820181905260c0820181905260e08201819052610100820181905261012082018190526101408201529101908152602001613dec6040805160c0808201835260008083528351918201845280825260208281018290529382018190526060808301829052608083019190915260a082015290918201908152600060208201819052604082018190526060820181905260809091015290565b81526040805160e08101825260008082526020828101829052928201819052606082018190526080820181905260a0820181905260c08201529101908152600060209091015290565b5b80821115613ca15760008155600101613e36565b6001600160e01b03198116811461143b57600080fd5b600060208284031215613e7257600080fd5b81356134cf81613e4a565b600081518084526020840193506020830160005b82811015613eb257815160ff16865260209586019590910190600101613e91565b5093949350505050565b82815260406020820152613ed760408201835161ffff169052565b60006020830151613eed606084018260ff169052565b5060408301516101206080840152613f09610160840182613e7d565b90506060840151603f198483030160a0850152613f268282613e7d565b9150506080840151603f198483030160c0850152613f448282613e7d565b91505060a0840151603f198483030160e0850152613f628282613e7d565b91505060c0840151603f1984830301610100850152613f818282613e7d565b91505060e0840151603f1984830301610120850152613fa08282613e7d565b915050610100840151603f1984830301610140850152613fc08282613e7d565b9695505050505050565b634e487b7160e01b600052604160045260246000fd5b60405161012081016001600160401b038111828210171561400357614003613fca565b60405290565b60405161016081016001600160401b038111828210171561400357614003613fca565b60405160c081016001600160401b038111828210171561400357614003613fca565b60405160e081016001600160401b038111828210171561400357614003613fca565b604051601f8201601f191681016001600160401b038111828210171561409857614098613fca565b604052919050565b60006001600160401b038211156140b9576140b9613fca565b5060051b60200190565b60ff8116811461143b57600080fd5b8035611f68816140c3565b600082601f8301126140ee57600080fd5b81356141016140fc826140a0565b614070565b8082825260208201915060208360051b86010192508583111561412357600080fd5b602085015b8381101561414957803561413b816140c3565b835260209283019201614128565b5095945050505050565b600082601f83011261416457600080fd5b81356141726140fc826140a0565b8082825260208201915060208360051b86010192508583111561419457600080fd5b602085015b83811015614149578035835260209283019201614199565b6000806000606084860312156141c657600080fd5b83356001600160401b038111156141dc57600080fd5b6141e8868287016140dd565b93505060208401356001600160401b0381111561420457600080fd5b614210868287016140dd565b92505060408401356001600160401b0381111561422c57600080fd5b61423886828701614153565b9150509250925092565b60005b8381101561425d578181015183820152602001614245565b50506000910152565b6000815180845261427e816020860160208601614242565b601f01601f19169290920160200192915050565b6020815260006134cf6020830184614266565b6000602082840312156142b757600080fd5b5035919050565b6001600160a01b038116811461143b57600080fd5b600080604083850312156142e657600080fd5b82356142f1816142be565b946020939093013593505050565b60008060006060848603121561431457600080fd5b833561431f816142be565b9250602084013591506040840135614336816142be565b809150509250925092565b60006020828403121561435357600080fd5b81356134cf816140c3565b801515811461143b57600080fd5b60006020828403121561437e57600080fd5b81356134cf8161435e565b600080600080600060a086880312156143a157600080fd5b85356143ac816142be565b945060208601356143bc816142be565b935060408601356143cc816142be565b925060608601356143dc816142be565b915060808601356143ec816142be565b809150509295509295909350565b61ffff8116811461143b57600080fd5b8035611f68816143fa565b60006020828403121561442757600080fd5b81356001600160401b0381111561443d57600080fd5b8201610120818503121561445057600080fd5b614458613fe0565b6144618261440a565b815261446f602083016140d2565b602082015260408201356001600160401b0381111561448d57600080fd5b614499868285016140dd565b60408301525060608201356001600160401b038111156144b857600080fd5b6144c4868285016140dd565b60608301525060808201356001600160401b038111156144e357600080fd5b6144ef868285016140dd565b60808301525060a08201356001600160401b0381111561450e57600080fd5b61451a868285016140dd565b60a08301525060c08201356001600160401b0381111561453957600080fd5b614545868285016140dd565b60c08301525060e08201356001600160401b0381111561456457600080fd5b614570868285016140dd565b60e0830152506101008201356001600160401b0381111561459057600080fd5b61459c868285016140dd565b61010083015250949350505050565b6000806000606084860312156145c057600080fd5b83356145cb816142be565b925060208401356145db816142be565b929592945050506040919091013590565b634e487b7160e01b600052602160045260246000fd5b6004811061143b57634e487b7160e01b600052602160045260246000fd5b805161462b81614602565b8252602081015161463b81614602565b6020830152604081015161464e81614602565b6040830152606081015161466181614602565b806060840152505050565b805182526020810151614684602084018260ff169052565b506040810151614699604084018260ff169052565b5060608101516146ae606084018260ff169052565b5060808101516146c3608084018260ff169052565b5060a08101516146d860a084018260ff169052565b5060c08101516146ed60c084018260ff169052565b5060e081015161470260e084018260ff169052565b5061010081015161471961010084018260ff169052565b5061012081015161473061012084018260ff169052565b506101408101516110b461014084018260ff169052565b805182526000602082015160c0602085015260ff81511660c085015260ff60208201511660e085015260ff60408201511661010085015260ff60608201511661012085015260ff60808201511661014085015260a0810151905060c06101608501526147b7610180850182613e7d565b905060408301516147cd604086018260ff169052565b5060608301516147e1606086018215159052565b5060808301516147f5608086018215159052565b5060a083015161480960a086018215159052565b509392505050565b63ffffffff815116825261ffff602082015116602083015261ffff604082015116604083015260608101511515606083015260808101511515608083015260a081015161486260a084018215159052565b5060c090810151910152565b600081516103408452614885610340850182614266565b90506020830151602085015260408301516148a36040860182614620565b5060608301516148b660c086018261466c565b5060808301518482036102208601526148cf8282614747565b91505060a08301516148e5610240860182614811565b5060c092909201516001600160a01b03166103209390930192909252919050565b6020815260006134cf602083018461486e565b600081518084526020840193506020830160005b82811015613eb257815186526020958601959091019060010161492d565b60608152600061495e6060830186613e7d565b82810360208401526149708186613e7d565b90508281036040840152613fc08185614919565b6103408152600061499961034083018a614266565b8860208401526149ac6040840189614620565b6149b960c084018861466c565b8281036102208401526149cc8187614747565b9150506149dd610240830185614811565b6001600160a01b039290921661032091909101529695505050505050565b600060208284031215614a0d57600080fd5b81356134cf816142be565b6020815260006134cf6020830184614919565b600060208284031215614a3d57600080fd5b81356001600160401b03811115614a5357600080fd5b613bf784828501614153565b60008060408385031215614a7257600080fd5b823591506020830135614a848161435e565b809150509250929050565b60008060408385031215614aa257600080fd5b8235614aad816142be565b91506020830135614a848161435e565b60006001600160401b03821115614ad657614ad6613fca565b50601f01601f191660200190565b60008060008060808587031215614afa57600080fd5b8435614b05816142be565b93506020850135614b15816142be565b92506040850135915060608501356001600160401b03811115614b3757600080fd5b8501601f81018713614b4857600080fd5b8035614b566140fc82614abd565b818152886020838501011115614b6b57600080fd5b8160208401602083013760006020838301015280935050505092959194509250565b60008060408385031215614ba057600080fd5b8235614bab816142be565b91506020830135614a84816142be565b6000602082016020835280845180835260408501915060408160051b86010192506020860160005b82811015614c1457603f19878603018452614bff85835161486e565b94506020938401939190910190600101614be3565b50929695505050505050565b600181811c90821680614c3457607f821691505b602082108103614c5457634e487b7160e01b600052602260045260246000fd5b50919050565b634e487b7160e01b600052603260045260246000fd5b634e487b7160e01b600052601160045260246000fd5b600060018201614c9857614c98614c70565b5060010190565b634e487b7160e01b600052601260045260246000fd5b600082614cc457614cc4614c9f565b500490565b805460ff8116614cd881614602565b8352600881901c60ff16614ceb81614602565b6020840152601081901c60ff16614d0181614602565b604084015260181c60ff1661466181614602565b805480835260008281526020808220940193909190825b82601f82011015614eff57815460ff81168752600881901c60ff166020880152601081901c60ff166040880152601881901c60ff166060880152602081901c60ff166080880152602881901c60ff1660a0880152603081901c60ff1660c0880152603881901c60ff1660e0880152604081901c60ff16610100880152604881901c60ff16610120880152605081901c60ff16610140880152605881901c60ff16610160880152606081901c60ff16610180880152606881901c60ff166101a0880152607081901c60ff166101c0880152607881901c60ff166101e0880152608081901c60ff16610200880152608881901c60ff16610220880152609081901c60ff16610240880152609881901c60ff1661026088015260a081901c60ff1661028088015260a881901c60ff166102a088015260b081901c60ff166102c088015260b881901c60ff166102e088015260c081901c60ff1661030088015260c881901c60ff1661032088015260d081901c60ff1661034088015260d881901c60ff1661036088015260e081901c60ff1661038088015260e881901c60ff166103a088015260f081901c60ff166103c088015260f881901c6103e088015250610400959095019460019190910190602001614d2c565b90549082811015614f1a5760ff821686526020909501946001015b82811015614f365760ff600883901c1686526020909501946001015b82811015614f525760ff601083901c1686526020909501946001015b82811015614f6e5760ff601883901c1686526020909501946001015b82811015614f8b57602082901c60ff168652602095909501946001015b82811015614fa75760ff602883901c1686526020909501946001015b82811015614fc35760ff603083901c1686526020909501946001015b82811015614fdf5760ff603883901c1686526020909501946001015b82811015614ffb5760ff604083901c1686526020909501946001015b828110156150175760ff604883901c1686526020909501946001015b828110156150335760ff605083901c1686526020909501946001015b8281101561504f5760ff605883901c1686526020909501946001015b8281101561506b5760ff606083901c1686526020909501946001015b828110156150875760ff606883901c1686526020909501946001015b828110156150a35760ff607083901c1686526020909501946001015b828110156150bf5760ff607883901c1686526020909501946001015b828110156150db5760ff608083901c1686526020909501946001015b828110156150f75760ff608883901c1686526020909501946001015b828110156151135760ff609083901c1686526020909501946001015b8281101561512f5760ff609883901c1686526020909501946001015b8281101561514b5760ff60a083901c1686526020909501946001015b828110156151675760ff60a883901c1686526020909501946001015b828110156151835760ff60b083901c1686526020909501946001015b8281101561519f5760ff60b883901c1686526020909501946001015b828110156151bb5760ff60c083901c1686526020909501946001015b828110156151d75760ff60c883901c1686526020909501946001015b828110156151f35760ff60d083901c1686526020909501946001015b8281101561520f5760ff60d883901c1686526020909501946001015b8281101561522b5760ff60e083901c1686526020909501946001015b828110156152475760ff60e883901c1686526020909501946001015b828110156152635760ff60f083901c1686526020909501946001015b82811015613eb2575060f81c845250506020909101919050565b8054825260c060208301526000600182015460ff811660c085015260ff8160081c1660e085015260ff8160101c166101008501526152c7610120850160ff8360181c1660ff169052565b602081901c60ff166101408501525060c06101608401526152ef610180840160028401614d15565b600383015460ff811660408601526153116060860160ff8360081c1615159052565b6153256080860160ff8360101c1615159052565b61480960a0860160ff8360181c1615159052565b805463ffffffff8116835261ffff8160201c16602084015261ffff808260301c161660408401526153746060840160ff8360401c1615159052565b6153886080840160ff8360481c1615159052565b61539c60a0840160ff8360501c1615159052565b506001015460c09190910152565b60208152610340602082015260008083546153c481614c20565b8061036086015260018216600081146153e4576001811461540257615438565b60ff19831661038087015261038082151560051b8701019350615438565b86600052602060002060005b8381101561542e578154888201610380015260019091019060200161540e565b8701610380019450505b505050600184015460408401526154556060840160028601614cc9565b600384015460e0840152600484015460ff808216610100860152600882901c8116610120860152601082901c8116610140860152601882901c8116610160860152602082901c8116610180860152602882901c81166101a0860152603082901c81166101c0860152603882901c81166101e0860152604082901c811661020086015260489190911c16610220840152828103601f19016102408401526154fe816005860161527d565b9050615511610260840160098601615339565b600b8401546001600160a01b03166103408401819052614809565b600082601f83011261553d57600080fd5b815161554b6140fc82614abd565b81815284602083860101111561556057600080fd5b613bf7826020830160208701614242565b60006020828403121561558357600080fd5b81516001600160401b0381111561559957600080fd5b613bf78482850161552c565b6000602082840312156155b757600080fd5b81516001600160401b03811681146134cf57600080fd5b6004811061143b57600080fd5b6000608082840312156155ed57600080fd5b604051608081016001600160401b038111828210171561560f5761560f613fca565b80604052508091508251615622816155ce565b81526020830151615632816155ce565b60208201526040830151615645816155ce565b60408201526060830151615658816155ce565b6060919091015292915050565b8051611f68816140c3565b6000610160828403121561568357600080fd5b61568b614009565b82518152905061569d60208301615665565b60208201526156ae60408301615665565b60408201526156bf60608301615665565b60608201526156d060808301615665565b60808201526156e160a08301615665565b60a08201526156f260c08301615665565b60c082015261570360e08301615665565b60e08201526157156101008301615665565b6101008201526157286101208301615665565b61012082015261573b6101408301615665565b61014082015292915050565b600082601f83011261575857600080fd5b81516157666140fc826140a0565b8082825260208201915060208360051b86010192508583111561578857600080fd5b602085015b838110156141495780516157a0816140c3565b83526020928301920161578d565b8051611f688161435e565b600060c082840312156157cb57600080fd5b6157d361402c565b8251815260208301519091506001600160401b038111156157f357600080fd5b820160c0818503121561580557600080fd5b61580d61402c565b8151615818816140c3565b81526020820151615828816140c3565b6020820152604082015161583b816140c3565b604082015261584c60608301615665565b606082015261585d60808301615665565b608082015260a08201516001600160401b0381111561587b57600080fd5b61588786828501615747565b60a08301525060208301525061589f60408301615665565b60408201526158b0606083016157ae565b60608201526158c1608083016157ae565b60808201526158d260a083016157ae565b60a082015292915050565b8051611f68816143fa565b600060e082840312156158fa57600080fd5b61590261404e565b9050815163ffffffff8116811461591857600080fd5b8152615926602083016158dd565b6020820152615937604083016158dd565b6040820152615948606083016157ae565b6060820152615959608083016157ae565b608082015261596a60a083016157ae565b60a082015260c09182015191810191909152919050565b8051611f68816142be565b60006020828403121561599e57600080fd5b81516001600160401b038111156159b457600080fd5b820161034081850312156159c757600080fd5b6159cf61404e565b81516001600160401b038111156159e557600080fd5b6159f18682850161552c565b82525060208281015190820152615a0b85604084016155db565b6040820152615a1d8560c08401615670565b60608201526102208201516001600160401b03811115615a3c57600080fd5b615a48868285016157b9565b608083015250615a5c8561024084016158e8565b60a0820152615a6e6103208301615981565b60c0820152949350505050565b601f8211156110b457806000526020600020601f840160051c81016020851015615aa25750805b601f840160051c820191505b818110156111d75760008155600101615aae565b81516001600160401b03811115615adb57615adb613fca565b615aef81615ae98454614c20565b84615a7b565b6020601f821160018114615b235760008315615b0b5750848201515b600019600385901b1c1916600184901b1784556111d7565b600084815260208120601f198516915b82811015615b535787850151825560209485019460019092019101615b33565b5084821015615b715786840151600019600387901b60f8161c191681555b50505050600190811b01905550565b600060208284031215615b9257600080fd5b5051919050565b80820180821115610a8657610a86614c70565b81810381811115610a8657610a86614c70565b600081615bce57615bce614c70565b506000190190565b8082028115828204841417610a8657610a86614c70565b60ff8181168382160190811115610a8657610a86614c70565b61ffff8181168382160290811690818114612c1c57612c1c614c70565b600061ffff831680615c3757615c37614c9f565b8061ffff84160491505092915050565b61ffff8281168282160390811115610a8657610a86614c70565b6001600160a01b0385811682528416602082015260408101839052608060608201819052600090613fc090830184614266565b600060208284031215615ca657600080fd5b81516134cf81613e4a565b634e487b7160e01b600052603160045260246000fdfea26469706673582212208124630d3a7501706381968e36b1c7a41886b7ae67b659d8c499c72cb5145e6764736f6c634300081c0033",
  "linkReferences": {},
  "deployedLinkReferences": {}
}