{
  "_format": "hh-sol-artifact-1",
  "contractName": "ImageRenderer",
  "sourceName": "contracts/ImageRenderer.sol",
  "abi": [
    {
      "inputs": [
        {
          "internalType": "address",
          "name": "_renderSpecial",
          "type": "address"
        },
        {
          "internalType": "address",
          "name": "_renderAft",
          "type": "address"
        },
        {
          "internalType": "address",
          "name": "_renderWeapon",
          "type": "address"
        },
        {
          "internalType": "address",
          "name": "_renderBody",
          "type": "address"
        },
        {
          "internalType": "address",
          "name": "_renderFore",
          "type": "address"
        }
      ],
      "stateMutability": "nonpayable",
      "type": "constructor"
    },
    {
      "inputs": [],
      "name": "renderAft",
      "outputs": [
        {
          "internalType": "contract IRenderComponent",
          "name": "",
          "type": "address"
        }
      ],
      "stateMutability": "view",
      "type": "function"
    },
    {
      "inputs": [],
      "name": "renderBody",
      "outputs": [
        {
          "internalType": "contract IRenderComponent",
          "name": "",
          "type": "address"
        }
      ],
      "stateMutability": "view",
      "type": "function"
    },
    {
      "inputs": [],
      "name": "renderFore",
      "outputs": [
        {
          "internalType": "contract IRenderComponent",
          "name": "",
          "type": "address"
        }
      ],
      "stateMutability": "view",
      "type": "function"
    },
    {
      "inputs": [
        {
          "components": [
            {
              "internalType": "string",
              "name": "name",
              "type": "string"
            },
            {
              "internalType": "uint256",
              "name": "id",
              "type": "uint256"
            },
            {
              "components": [
                {
                  "internalType": "enum MainWeapon",
                  "name": "mainWeapon",
                  "type": "uint8"
                },
                {
                  "internalType": "enum Armor",
                  "name": "armor",
                  "type": "uint8"
                },
                {
                  "internalType": "enum Shields",
                  "name": "shields",
                  "type": "uint8"
                },
                {
                  "internalType": "enum Special",
                  "name": "special",
                  "type": "uint8"
                }
              ],
              "internalType": "struct Equipment",
              "name": "equipment",
              "type": "tuple"
            },
            {
              "components": [
                {
                  "internalType": "uint256",
                  "name": "serialNumber",
                  "type": "uint256"
                },
                {
                  "internalType": "uint8",
                  "name": "r1",
                  "type": "uint8"
                },
                {
                  "internalType": "uint8",
                  "name": "g1",
                  "type": "uint8"
                },
                {
                  "internalType": "uint8",
                  "name": "b1",
                  "type": "uint8"
                },
                {
                  "internalType": "uint8",
                  "name": "r2",
                  "type": "uint8"
                },
                {
                  "internalType": "uint8",
                  "name": "g2",
                  "type": "uint8"
                },
                {
                  "internalType": "uint8",
                  "name": "b2",
                  "type": "uint8"
                },
                {
                  "internalType": "uint8",
                  "name": "variant",
                  "type": "uint8"
                },
                {
                  "internalType": "uint8",
                  "name": "accuracy",
                  "type": "uint8"
                },
                {
                  "internalType": "uint8",
                  "name": "hull",
                  "type": "uint8"
                },
                {
                  "internalType": "uint8",
                  "name": "speed",
                  "type": "uint8"
                }
              ],
              "internalType": "struct Traits",
              "name": "traits",
              "type": "tuple"
            },
            {
              "components": [
                {
                  "internalType": "uint256",
                  "name": "gameId",
                  "type": "uint256"
                },
                {
                  "components": [
                    {
                      "internalType": "uint8",
                      "name": "version",
                      "type": "uint8"
                    },
                    {
                      "internalType": "uint8",
                      "name": "range",
                      "type": "uint8"
                    },
                    {
                      "internalType": "uint8",
                      "name": "gunDamage",
                      "type": "uint8"
                    },
                    {
                      "internalType": "uint8",
                      "name": "hullPoints",
                      "type": "uint8"
                    },
                    {
                      "internalType": "uint8",
                      "name": "movement",
                      "type": "uint8"
                    },
                    {
                      "internalType": "uint8[]",
                      "name": "statusEffects",
                      "type": "uint8[]"
                    }
                  ],
                  "internalType": "struct Attributes",
                  "name": "attributes",
                  "type": "tuple"
                },
                {
                  "internalType": "uint8",
                  "name": "damageTaken",
                  "type": "uint8"
                },
                {
                  "internalType": "bool",
                  "name": "inLobby",
                  "type": "bool"
                },
                {
                  "internalType": "bool",
                  "name": "movedThisTurn",
                  "type": "bool"
                },
                {
                  "internalType": "bool",
                  "name": "firedThisTurn",
                  "type": "bool"
                }
              ],
              "internalType": "struct GameData",
              "name": "gameData",
              "type": "tuple"
            },
            {
              "components": [
                {
                  "internalType": "uint32",
                  "name": "shipsDestroyed",
                  "type": "uint32"
                },
                {
                  "internalType": "uint16",
                  "name": "costsVersion",
                  "type": "uint16"
                },
                {
                  "internalType": "uint16",
                  "name": "cost",
                  "type": "uint16"
                },
                {
                  "internalType": "bool",
                  "name": "shiny",
                  "type": "bool"
                },
                {
                  "internalType": "bool",
                  "name": "constructed",
                  "type": "bool"
                },
                {
                  "internalType": "bool",
                  "name": "inFleet",
                  "type": "bool"
                },
                {
                  "internalType": "uint256",
                  "name": "timestampDestroyed",
                  "type": "uint256"
                }
              ],
              "internalType": "struct ShipData",
              "name": "shipData",
              "type": "tuple"
            },
            {
              "internalType": "address",
              "name": "owner",
              "type": "address"
            }
          ],
          "internalType": "struct Ship",
          "name": "ship",
          "type": "tuple"
        }
      ],
      "name": "renderShip",
      "outputs": [
        {
          "internalType": "string",
          "name": "",
          "type": "string"
        }
      ],
      "stateMutability": "view",
      "type": "function"
    },
    {
      "inputs": [],
      "name": "renderSpecial",
      "outputs": [
        {
          "internalType": "contract IRenderComponent",
          "name": "",
          "type": "address"
        }
      ],
      "stateMutability": "view",
      "type": "function"
    },
    {
      "inputs": [],
      "name": "renderWeapon",
      "outputs": [
        {
          "internalType": "contract IRenderComponent",
          "name": "",
          "type": "address"
        }
      ],
      "stateMutability": "view",
      "type": "function"
    }
  ],
  "bytecode": "0x61012060405234801561001157600080fd5b5060405161150838038061150883398101604081905261003091610075565b6001600160a01b0394851660805292841660a05290831660c052821660e05216610100526100da565b80516001600160a01b038116811461007057600080fd5b919050565b600080600080600060a0868803121561008d57600080fd5b61009686610059565b94506100a460208701610059565b93506100b260408701610059565b92506100c060608701610059565b91506100ce60808701610059565b90509295509295909350565b60805160a05160c05160e051610100516113ca61013e6000396000818160b001526104c80152600081816101450152610414015260008181606c015261036001526000818160d701526102ac01526000818161011e01526101e301526113ca6000f3fe608060405234801561001057600080fd5b50600436106100625760003560e01c806322b17617146100675780634144d231146100ab5780635b8fc4f3146100d25780637a14faac146100f9578063c9ff31d114610119578063f8bc249f14610140575b600080fd5b61008e7f000000000000000000000000000000000000000000000000000000000000000081565b6040516001600160a01b0390911681526020015b60405180910390f35b61008e7f000000000000000000000000000000000000000000000000000000000000000081565b61008e7f000000000000000000000000000000000000000000000000000000000000000081565b61010c610107366004610ca0565b610167565b6040516100a29190610ddf565b61008e7f000000000000000000000000000000000000000000000000000000000000000081565b61008e7f000000000000000000000000000000000000000000000000000000000000000081565b60a081015160c00151606090156101975760405180608001604052806042815260200161127a6042913992915050565b8160a00151608001516101c3576040518060800160405280604281526020016113136042913992915050565b60006040518060800160405280605781526020016112bc605791399050807f00000000000000000000000000000000000000000000000000000000000000006001600160a01b03166311ffaed0856040518263ffffffff1660e01b815260040161022d9190611056565b600060405180830381865afa15801561024a573d6000803e3d6000fd5b505050506040513d6000823e601f3d908101601f19168201604052610272919081019061112d565b6040516020016102839291906111a3565b60408051601f198184030181529082905263011ffaed60e41b8252915081906001600160a01b037f000000000000000000000000000000000000000000000000000000000000000016906311ffaed0906102e1908790600401611056565b600060405180830381865afa1580156102fe573d6000803e3d6000fd5b505050506040513d6000823e601f3d908101601f19168201604052610326919081019061112d565b6040516020016103379291906111a3565b60408051601f198184030181529082905263011ffaed60e41b8252915081906001600160a01b037f000000000000000000000000000000000000000000000000000000000000000016906311ffaed090610395908790600401611056565b600060405180830381865afa1580156103b2573d6000803e3d6000fd5b505050506040513d6000823e601f3d908101601f191682016040526103da919081019061112d565b6040516020016103eb9291906111a3565b60408051601f198184030181529082905263011ffaed60e41b8252915081906001600160a01b037f000000000000000000000000000000000000000000000000000000000000000016906311ffaed090610449908790600401611056565b600060405180830381865afa158015610466573d6000803e3d6000fd5b505050506040513d6000823e601f3d908101601f1916820160405261048e919081019061112d565b60405160200161049f9291906111a3565b60408051601f198184030181529082905263011ffaed60e41b8252915081906001600160a01b037f000000000000000000000000000000000000000000000000000000000000000016906311ffaed0906104fd908790600401611056565b600060405180830381865afa15801561051a573d6000803e3d6000fd5b505050506040513d6000823e601f3d908101601f19168201604052610542919081019061112d565b6040516020016105539291906111a3565b60408051601f19818403018152828201825260068352651e17b9bb339f60d11b602084810191909152915190935061058f9284929091016111a3565b604051602081830303815290604052905060006105ab826105d6565b9050806040516020016105be91906111d2565b60405160208183030381529060405292505050919050565b60606105fc82604051806060016040528060408152602001611355604091396001610602565b92915050565b60608351600003610622575060408051602081019091526000815261077c565b60008261065357600385516004610639919061122d565b610644906002611244565b61064e9190611257565b610678565b6003855160026106639190611244565b61066d9190611257565b61067890600461122d565b90506000816001600160401b0381111561069457610694610783565b6040519080825280601f01601f1916602001820160405280156106be576020820181803683370190505b50905060018501602082018788518901602081018051600082525b82841015610734576003840193508351603f8160121c168701518653600186019550603f81600c1c168701518653600186019550603f8160061c168701518653600186019550603f81168701518653506001850194506106d9565b90525050851561077557600388510660018114610758576002811461076b57610773565b603d6001830353603d6002830353610773565b603d60018303535b505b5090925050505b9392505050565b634e487b7160e01b600052604160045260246000fd5b60405161016081016001600160401b03811182821017156107bc576107bc610783565b60405290565b60405160c081016001600160401b03811182821017156107bc576107bc610783565b60405160e081016001600160401b03811182821017156107bc576107bc610783565b604051601f8201601f191681016001600160401b038111828210171561082e5761082e610783565b604052919050565b60006001600160401b0382111561084f5761084f610783565b50601f01601f191660200190565b600082601f83011261086e57600080fd5b813561088161087c82610836565b610806565b81815284602083860101111561089657600080fd5b816020850160208301376000918101602001919091529392505050565b600481106108c057600080fd5b50565b6000608082840312156108d557600080fd5b604051608081016001600160401b03811182821017156108f7576108f7610783565b6040529050808235610908816108b3565b81526020830135610918816108b3565b6020820152604083013561092b816108b3565b6040820152606083013561093e816108b3565b6060919091015292915050565b803560ff8116811461095c57600080fd5b919050565b6000610160828403121561097457600080fd5b61097c610799565b82358152905061098e6020830161094b565b602082015261099f6040830161094b565b60408201526109b06060830161094b565b60608201526109c16080830161094b565b60808201526109d260a0830161094b565b60a08201526109e360c0830161094b565b60c08201526109f460e0830161094b565b60e0820152610a06610100830161094b565b610100820152610a19610120830161094b565b610120820152610a2c610140830161094b565b61014082015292915050565b8035801515811461095c57600080fd5b600060c08284031215610a5a57600080fd5b610a626107c2565b82358152905060208201356001600160401b03811115610a8157600080fd5b820160c08185031215610a9357600080fd5b610a9b6107c2565b610aa48261094b565b8152610ab26020830161094b565b6020820152610ac36040830161094b565b6040820152610ad46060830161094b565b6060820152610ae56080830161094b565b608082015260a08201356001600160401b03811115610b0357600080fd5b80830192505084601f830112610b1857600080fd5b81356001600160401b03811115610b3157610b31610783565b8060051b610b4160208201610806565b91825260208185018101929081019088841115610b5d57600080fd5b6020860195505b83861015610b8657610b758661094b565b825260209586019590910190610b64565b60a0850152505050602083015250610ba06040830161094b565b6040820152610bb160608301610a38565b6060820152610bc260808301610a38565b6080820152610bd360a08301610a38565b60a082015292915050565b803561ffff8116811461095c57600080fd5b600060e08284031215610c0257600080fd5b610c0a6107e4565b9050813563ffffffff81168114610c2057600080fd5b8152610c2e60208301610bde565b6020820152610c3f60408301610bde565b6040820152610c5060608301610a38565b6060820152610c6160808301610a38565b6080820152610c7260a08301610a38565b60a082015260c09182013591810191909152919050565b80356001600160a01b038116811461095c57600080fd5b600060208284031215610cb257600080fd5b81356001600160401b03811115610cc857600080fd5b82016103408185031215610cdb57600080fd5b610ce36107e4565b81356001600160401b03811115610cf957600080fd5b610d058682850161085d565b82525060208281013590820152610d1f85604084016108c3565b6040820152610d318560c08401610961565b60608201526102208201356001600160401b03811115610d5057600080fd5b610d5c86828501610a48565b608083015250610d70856102408401610bf0565b60a0820152610d826103208301610c89565b60c0820152949350505050565b60005b83811015610daa578181015183820152602001610d92565b50506000910152565b60008151808452610dcb816020860160208601610d8f565b601f01601f19169290920160200192915050565b60208152600061077c6020830184610db3565b600481106108c057634e487b7160e01b600052602160045260246000fd5b805182526020810151610e28602084018260ff169052565b506040810151610e3d604084018260ff169052565b506060810151610e52606084018260ff169052565b506080810151610e67608084018260ff169052565b5060a0810151610e7c60a084018260ff169052565b5060c0810151610e9160c084018260ff169052565b5060e0810151610ea660e084018260ff169052565b50610100810151610ebd61010084018260ff169052565b50610120810151610ed461012084018260ff169052565b50610140810151610eeb61014084018260ff169052565b505050565b600081518084526020840193506020830160005b82811015610f2557815160ff16865260209586019590910190600101610f04565b5093949350505050565b805182526000602082015160c0602085015260ff81511660c085015260ff60208201511660e085015260ff60408201511661010085015260ff60608201511661012085015260ff60808201511661014085015260a0810151905060c0610160850152610f9f610180850182610ef0565b90506040830151610fb5604086018260ff169052565b506060830151610fc9606086018215159052565b506080830151610fdd608086018215159052565b5060a0830151610ff160a086018215159052565b509392505050565b63ffffffff815116825261ffff602082015116602083015261ffff604082015116604083015260608101511515606083015260808101511515608083015260a081015161104a60a084018215159052565b5060c090810151910152565b60208152600082516103406020840152611074610360840182610db3565b9050602084015160408401526040840151805161109081610df2565b606085015260208101516110a381610df2565b608085015260408101516110b681610df2565b60a0850152606001516110c881610df2565b60c084015260608401516110df60e0850182610e10565b506080840151838203601f19016102408501526110fc8282610f2f565b91505060a0840151611112610260850182610ff9565b5060c08401516001600160a01b038116610340850152610ff1565b60006020828403121561113f57600080fd5b81516001600160401b0381111561115557600080fd5b8201601f8101841361116657600080fd5b805161117461087c82610836565b81815285602083850101111561118957600080fd5b61119a826020830160208601610d8f565b95945050505050565b600083516111b5818460208801610d8f565b8351908301906111c9818360208801610d8f565b01949350505050565b7f646174613a696d6167652f7376672b786d6c3b6261736536342c00000000000081526000825161120a81601a850160208701610d8f565b91909101601a0192915050565b634e487b7160e01b600052601160045260246000fd5b80820281158282048414176105fc576105fc611217565b808201808211156105fc576105fc611217565b60008261127457634e487b7160e01b600052601260045260246000fd5b50049056fe697066733a2f2f6261666b7265696765337a36696f70736d67797a656669646879646261696b7069707877727374717a75796c7732793263347276776e6e3679766d3c73766720786d6c6e733d22687474703a2f2f7777772e77332e6f72672f323030302f737667222076696577426f783d223020302032353620323536222077696474683d2232353622206865696768743d22323536223e697066733a2f2f6261666b726569626333666472647377346c377a7934776a7267616c76666867366b666433776d696a7765666e79336e786a3532343478327472344142434445464748494a4b4c4d4e4f505152535455565758595a6162636465666768696a6b6c6d6e6f707172737475767778797a303132333435363738392b2fa2646970667358221220f2d439911d3b08320ad1bb97f1f74ad2dfbaeb7fa9afb2cb768cde399df9fb9b64736f6c634300081c0033",
  "linkReferences": {},
  "deployedLinkReferences": {}
}