{
  "_format": "hh-sol-artifact-1",
  "contractName": "Ships",
  "sourceName": "contracts/Ships.sol",
  "abi": [
    {
      "inputs": [
        {
          "internalType": "address",
          "name": "_renderer",
          "type": "address"
        }
      ],
      "stateMutability": "nonpayable",
      "type": "constructor"
    },
    {
      "inputs": [],
      "name": "ArrayLengthMismatch",
      "type": "error"
    },
    {
      "inputs": [
        {
          "internalType": "uint256",
          "name": "",
          "type": "uint256"
        }
      ],
      "name": "CannotRecycleFreeShip",
      "type": "error"
    },
    {
      "inputs": [],
      "name": "ClaimCooldownNotPassed",
      "type": "error"
    },
    {
      "inputs": [
        {
          "internalType": "address",
          "name": "sender",
          "type": "address"
        },
        {
          "internalType": "uint256",
          "name": "tokenId",
          "type": "uint256"
        },
        {
          "internalType": "address",
          "name": "owner",
          "type": "address"
        }
      ],
      "name": "ERC721IncorrectOwner",
      "type": "error"
    },
    {
      "inputs": [
        {
          "internalType": "address",
          "name": "operator",
          "type": "address"
        },
        {
          "internalType": "uint256",
          "name": "tokenId",
          "type": "uint256"
        }
      ],
      "name": "ERC721InsufficientApproval",
      "type": "error"
    },
    {
      "inputs": [
        {
          "internalType": "address",
          "name": "approver",
          "type": "address"
        }
      ],
      "name": "ERC721InvalidApprover",
      "type": "error"
    },
    {
      "inputs": [
        {
          "internalType": "address",
          "name": "operator",
          "type": "address"
        }
      ],
      "name": "ERC721InvalidOperator",
      "type": "error"
    },
    {
      "inputs": [
        {
          "internalType": "address",
          "name": "owner",
          "type": "address"
        }
      ],
      "name": "ERC721InvalidOwner",
      "type": "error"
    },
    {
      "inputs": [
        {
          "internalType": "address",
          "name": "receiver",
          "type": "address"
        }
      ],
      "name": "ERC721InvalidReceiver",
      "type": "error"
    },
    {
      "inputs": [
        {
          "internalType": "address",
          "name": "sender",
          "type": "address"
        }
      ],
      "name": "ERC721InvalidSender",
      "type": "error"
    },
    {
      "inputs": [
        {
          "internalType": "uint256",
          "name": "tokenId",
          "type": "uint256"
        }
      ],
      "name": "ERC721NonexistentToken",
      "type": "error"
    },
    {
      "inputs": [
        {
          "internalType": "address",
          "name": "",
          "type": "address"
        }
      ],
      "name": "InsufficientPurchases",
      "type": "error"
    },
    {
      "inputs": [
        {
          "internalType": "uint256",
          "name": "_tier",
          "type": "uint256"
        },
        {
          "internalType": "uint256",
          "name": "_amount",
          "type": "uint256"
        }
      ],
      "name": "InvalidPurchase",
      "type": "error"
    },
    {
      "inputs": [
        {
          "internalType": "uint16",
          "name": "",
          "type": "uint16"
        }
      ],
      "name": "InvalidVariant",
      "type": "error"
    },
    {
      "inputs": [],
      "name": "MintPaused",
      "type": "error"
    },
    {
      "inputs": [
        {
          "internalType": "address",
          "name": "",
          "type": "address"
        }
      ],
      "name": "NotAuthorized",
      "type": "error"
    },
    {
      "inputs": [
        {
          "internalType": "uint256",
          "name": "",
          "type": "uint256"
        }
      ],
      "name": "NotYourShip",
      "type": "error"
    },
    {
      "inputs": [
        {
          "internalType": "address",
          "name": "owner",
          "type": "address"
        }
      ],
      "name": "OwnableInvalidOwner",
      "type": "error"
    },
    {
      "inputs": [
        {
          "internalType": "address",
          "name": "account",
          "type": "address"
        }
      ],
      "name": "OwnableUnauthorizedAccount",
      "type": "error"
    },
    {
      "inputs": [],
      "name": "ReentrancyGuardReentrantCall",
      "type": "error"
    },
    {
      "inputs": [],
      "name": "ReferralTransferFailed",
      "type": "error"
    },
    {
      "inputs": [
        {
          "internalType": "uint256",
          "name": "",
          "type": "uint256"
        }
      ],
      "name": "ShipAlreadyDestroyed",
      "type": "error"
    },
    {
      "inputs": [
        {
          "internalType": "uint256",
          "name": "",
          "type": "uint256"
        }
      ],
      "name": "ShipConstructed",
      "type": "error"
    },
    {
      "inputs": [],
      "name": "ShipDestroyed",
      "type": "error"
    },
    {
      "inputs": [
        {
          "internalType": "uint256",
          "name": "",
          "type": "uint256"
        }
      ],
      "name": "ShipInFleet",
      "type": "error"
    },
    {
      "inputs": [],
      "name": "WithdrawalFailed",
      "type": "error"
    },
    {
      "anonymous": false,
      "inputs": [
        {
          "indexed": true,
          "internalType": "address",
          "name": "owner",
          "type": "address"
        },
        {
          "indexed": true,
          "internalType": "address",
          "name": "approved",
          "type": "address"
        },
        {
          "indexed": true,
          "internalType": "uint256",
          "name": "tokenId",
          "type": "uint256"
        }
      ],
      "name": "Approval",
      "type": "event"
    },
    {
      "anonymous": false,
      "inputs": [
        {
          "indexed": true,
          "internalType": "address",
          "name": "owner",
          "type": "address"
        },
        {
          "indexed": true,
          "internalType": "address",
          "name": "operator",
          "type": "address"
        },
        {
          "indexed": false,
          "internalType": "bool",
          "name": "approved",
          "type": "bool"
        }
      ],
      "name": "ApprovalForAll",
      "type": "event"
    },
    {
      "anonymous": false,
      "inputs": [
        {
          "indexed": false,
          "internalType": "uint256",
          "name": "tokenId",
          "type": "uint256"
        }
      ],
      "name": "Locked",
      "type": "event"
    },
    {
      "anonymous": false,
      "inputs": [
        {
          "indexed": false,
          "internalType": "uint256",
          "name": "_tokenId",
          "type": "uint256"
        }
      ],
      "name": "MetadataUpdate",
      "type": "event"
    },
    {
      "anonymous": false,
      "inputs": [
        {
          "indexed": true,
          "internalType": "address",
          "name": "previousOwner",
          "type": "address"
        },
        {
          "indexed": true,
          "internalType": "address",
          "name": "newOwner",
          "type": "address"
        }
      ],
      "name": "OwnershipTransferred",
      "type": "event"
    },
    {
      "anonymous": false,
      "inputs": [
        {
          "indexed": true,
          "internalType": "address",
          "name": "from",
          "type": "address"
        },
        {
          "indexed": true,
          "internalType": "address",
          "name": "to",
          "type": "address"
        },
        {
          "indexed": true,
          "internalType": "uint256",
          "name": "tokenId",
          "type": "uint256"
        }
      ],
      "name": "Transfer",
      "type": "event"
    },
    {
      "anonymous": false,
      "inputs": [
        {
          "indexed": false,
          "internalType": "uint256",
          "name": "tokenId",
          "type": "uint256"
        }
      ],
      "name": "Unlocked",
      "type": "event"
    },
    {
      "inputs": [
        {
          "internalType": "address",
          "name": "",
          "type": "address"
        }
      ],
      "name": "amountPurchased",
      "outputs": [
        {
          "internalType": "uint256",
          "name": "",
          "type": "uint256"
        }
      ],
      "stateMutability": "view",
      "type": "function"
    },
    {
      "inputs": [
        {
          "internalType": "address",
          "name": "to",
          "type": "address"
        },
        {
          "internalType": "uint256",
          "name": "tokenId",
          "type": "uint256"
        }
      ],
      "name": "approve",
      "outputs": [],
      "stateMutability": "nonpayable",
      "type": "function"
    },
    {
      "inputs": [
        {
          "internalType": "address",
          "name": "owner",
          "type": "address"
        }
      ],
      "name": "balanceOf",
      "outputs": [
        {
          "internalType": "uint256",
          "name": "",
          "type": "uint256"
        }
      ],
      "stateMutability": "view",
      "type": "function"
    },
    {
      "inputs": [],
      "name": "claimCooldownPeriod",
      "outputs": [
        {
          "internalType": "uint256",
          "name": "",
          "type": "uint256"
        }
      ],
      "stateMutability": "view",
      "type": "function"
    },
    {
      "inputs": [
        {
          "internalType": "uint16",
          "name": "_variant",
          "type": "uint16"
        }
      ],
      "name": "claimFreeShips",
      "outputs": [],
      "stateMutability": "nonpayable",
      "type": "function"
    },
    {
      "inputs": [],
      "name": "config",
      "outputs": [
        {
          "internalType": "address",
          "name": "gameAddress",
          "type": "address"
        },
        {
          "internalType": "address",
          "name": "lobbyAddress",
          "type": "address"
        },
        {
          "internalType": "address",
          "name": "fleetsAddress",
          "type": "address"
        },
        {
          "internalType": "contract IRenderMetadata",
          "name": "metadataRenderer",
          "type": "address"
        },
        {
          "internalType": "contract IRandomManager",
          "name": "randomManager",
          "type": "address"
        },
        {
          "internalType": "contract IGenerateNewShip",
          "name": "shipGenerator",
          "type": "address"
        },
        {
          "internalType": "contract IShipAttributes",
          "name": "shipAttributes",
          "type": "address"
        }
      ],
      "stateMutability": "view",
      "type": "function"
    },
    {
      "inputs": [],
      "name": "constructAllMyShips",
      "outputs": [],
      "stateMutability": "nonpayable",
      "type": "function"
    },
    {
      "inputs": [
        {
          "internalType": "uint256",
          "name": "_id",
          "type": "uint256"
        }
      ],
      "name": "constructShip",
      "outputs": [],
      "stateMutability": "nonpayable",
      "type": "function"
    },
    {
      "inputs": [
        {
          "internalType": "uint256[]",
          "name": "_ids",
          "type": "uint256[]"
        }
      ],
      "name": "constructShips",
      "outputs": [],
      "stateMutability": "nonpayable",
      "type": "function"
    },
    {
      "inputs": [
        {
          "internalType": "address",
          "name": "_to",
          "type": "address"
        },
        {
          "internalType": "uint256",
          "name": "_amount",
          "type": "uint256"
        },
        {
          "internalType": "uint16",
          "name": "_variant",
          "type": "uint16"
        },
        {
          "internalType": "uint8",
          "name": "_tier",
          "type": "uint8"
        }
      ],
      "name": "createShips",
      "outputs": [],
      "stateMutability": "nonpayable",
      "type": "function"
    },
    {
      "inputs": [
        {
          "internalType": "address",
          "name": "_to",
          "type": "address"
        },
        {
          "components": [
            {
              "internalType": "string",
              "name": "name",
              "type": "string"
            },
            {
              "internalType": "uint256",
              "name": "id",
              "type": "uint256"
            },
            {
              "components": [
                {
                  "internalType": "enum MainWeapon",
                  "name": "mainWeapon",
                  "type": "uint8"
                },
                {
                  "internalType": "enum Armor",
                  "name": "armor",
                  "type": "uint8"
                },
                {
                  "internalType": "enum Shields",
                  "name": "shields",
                  "type": "uint8"
                },
                {
                  "internalType": "enum Special",
                  "name": "special",
                  "type": "uint8"
                }
              ],
              "internalType": "struct Equipment",
              "name": "equipment",
              "type": "tuple"
            },
            {
              "components": [
                {
                  "internalType": "uint256",
                  "name": "serialNumber",
                  "type": "uint256"
                },
                {
                  "components": [
                    {
                      "internalType": "uint16",
                      "name": "h1",
                      "type": "uint16"
                    },
                    {
                      "internalType": "uint8",
                      "name": "s1",
                      "type": "uint8"
                    },
                    {
                      "internalType": "uint8",
                      "name": "l1",
                      "type": "uint8"
                    },
                    {
                      "internalType": "uint16",
                      "name": "h2",
                      "type": "uint16"
                    },
                    {
                      "internalType": "uint8",
                      "name": "s2",
                      "type": "uint8"
                    },
                    {
                      "internalType": "uint8",
                      "name": "l2",
                      "type": "uint8"
                    },
                    {
                      "internalType": "uint16",
                      "name": "h3",
                      "type": "uint16"
                    },
                    {
                      "internalType": "uint8",
                      "name": "s3",
                      "type": "uint8"
                    },
                    {
                      "internalType": "uint8",
                      "name": "l3",
                      "type": "uint8"
                    }
                  ],
                  "internalType": "struct Colors",
                  "name": "colors",
                  "type": "tuple"
                },
                {
                  "internalType": "uint16",
                  "name": "variant",
                  "type": "uint16"
                },
                {
                  "internalType": "uint8",
                  "name": "accuracy",
                  "type": "uint8"
                },
                {
                  "internalType": "uint8",
                  "name": "hull",
                  "type": "uint8"
                },
                {
                  "internalType": "uint8",
                  "name": "speed",
                  "type": "uint8"
                }
              ],
              "internalType": "struct Traits",
              "name": "traits",
              "type": "tuple"
            },
            {
              "components": [
                {
                  "internalType": "uint32",
                  "name": "shipsDestroyed",
                  "type": "uint32"
                },
                {
                  "internalType": "uint16",
                  "name": "costsVersion",
                  "type": "uint16"
                },
                {
                  "internalType": "uint16",
                  "name": "cost",
                  "type": "uint16"
                },
                {
                  "internalType": "uint16",
                  "name": "modified",
                  "type": "uint16"
                },
                {
                  "internalType": "bool",
                  "name": "shiny",
                  "type": "bool"
                },
                {
                  "internalType": "bool",
                  "name": "constructed",
                  "type": "bool"
                },
                {
                  "internalType": "bool",
                  "name": "inFleet",
                  "type": "bool"
                },
                {
                  "internalType": "bool",
                  "name": "isFreeShip",
                  "type": "bool"
                },
                {
                  "internalType": "uint256",
                  "name": "timestampDestroyed",
                  "type": "uint256"
                }
              ],
              "internalType": "struct ShipData",
              "name": "shipData",
              "type": "tuple"
            },
            {
              "internalType": "address",
              "name": "owner",
              "type": "address"
            }
          ],
          "internalType": "struct Ship",
          "name": "_ship",
          "type": "tuple"
        }
      ],
      "name": "createSpecificShip",
      "outputs": [
        {
          "internalType": "uint256",
          "name": "",
          "type": "uint256"
        }
      ],
      "stateMutability": "nonpayable",
      "type": "function"
    },
    {
      "inputs": [
        {
          "internalType": "uint256",
          "name": "_id",
          "type": "uint256"
        },
        {
          "components": [
            {
              "internalType": "string",
              "name": "name",
              "type": "string"
            },
            {
              "internalType": "uint256",
              "name": "id",
              "type": "uint256"
            },
            {
              "components": [
                {
                  "internalType": "enum MainWeapon",
                  "name": "mainWeapon",
                  "type": "uint8"
                },
                {
                  "internalType": "enum Armor",
                  "name": "armor",
                  "type": "uint8"
                },
                {
                  "internalType": "enum Shields",
                  "name": "shields",
                  "type": "uint8"
                },
                {
                  "internalType": "enum Special",
                  "name": "special",
                  "type": "uint8"
                }
              ],
              "internalType": "struct Equipment",
              "name": "equipment",
              "type": "tuple"
            },
            {
              "components": [
                {
                  "internalType": "uint256",
                  "name": "serialNumber",
                  "type": "uint256"
                },
                {
                  "components": [
                    {
                      "internalType": "uint16",
                      "name": "h1",
                      "type": "uint16"
                    },
                    {
                      "internalType": "uint8",
                      "name": "s1",
                      "type": "uint8"
                    },
                    {
                      "internalType": "uint8",
                      "name": "l1",
                      "type": "uint8"
                    },
                    {
                      "internalType": "uint16",
                      "name": "h2",
                      "type": "uint16"
                    },
                    {
                      "internalType": "uint8",
                      "name": "s2",
                      "type": "uint8"
                    },
                    {
                      "internalType": "uint8",
                      "name": "l2",
                      "type": "uint8"
                    },
                    {
                      "internalType": "uint16",
                      "name": "h3",
                      "type": "uint16"
                    },
                    {
                      "internalType": "uint8",
                      "name": "s3",
                      "type": "uint8"
                    },
                    {
                      "internalType": "uint8",
                      "name": "l3",
                      "type": "uint8"
                    }
                  ],
                  "internalType": "struct Colors",
                  "name": "colors",
                  "type": "tuple"
                },
                {
                  "internalType": "uint16",
                  "name": "variant",
                  "type": "uint16"
                },
                {
                  "internalType": "uint8",
                  "name": "accuracy",
                  "type": "uint8"
                },
                {
                  "internalType": "uint8",
                  "name": "hull",
                  "type": "uint8"
                },
                {
                  "internalType": "uint8",
                  "name": "speed",
                  "type": "uint8"
                }
              ],
              "internalType": "struct Traits",
              "name": "traits",
              "type": "tuple"
            },
            {
              "components": [
                {
                  "internalType": "uint32",
                  "name": "shipsDestroyed",
                  "type": "uint32"
                },
                {
                  "internalType": "uint16",
                  "name": "costsVersion",
                  "type": "uint16"
                },
                {
                  "internalType": "uint16",
                  "name": "cost",
                  "type": "uint16"
                },
                {
                  "internalType": "uint16",
                  "name": "modified",
                  "type": "uint16"
                },
                {
                  "internalType": "bool",
                  "name": "shiny",
                  "type": "bool"
                },
                {
                  "internalType": "bool",
                  "name": "constructed",
                  "type": "bool"
                },
                {
                  "internalType": "bool",
                  "name": "inFleet",
                  "type": "bool"
                },
                {
                  "internalType": "bool",
                  "name": "isFreeShip",
                  "type": "bool"
                },
                {
                  "internalType": "uint256",
                  "name": "timestampDestroyed",
                  "type": "uint256"
                }
              ],
              "internalType": "struct ShipData",
              "name": "shipData",
              "type": "tuple"
            },
            {
              "internalType": "address",
              "name": "owner",
              "type": "address"
            }
          ],
          "internalType": "struct Ship",
          "name": "_ship",
          "type": "tuple"
        }
      ],
      "name": "customizeShip",
      "outputs": [],
      "stateMutability": "nonpayable",
      "type": "function"
    },
    {
      "inputs": [
        {
          "internalType": "uint256",
          "name": "tokenId",
          "type": "uint256"
        }
      ],
      "name": "getApproved",
      "outputs": [
        {
          "internalType": "address",
          "name": "",
          "type": "address"
        }
      ],
      "stateMutability": "view",
      "type": "function"
    },
    {
      "inputs": [],
      "name": "getPurchaseInfo",
      "outputs": [
        {
          "internalType": "uint8[]",
          "name": "_tierShips",
          "type": "uint8[]"
        },
        {
          "internalType": "uint256[]",
          "name": "_tierPrices",
          "type": "uint256[]"
        }
      ],
      "stateMutability": "view",
      "type": "function"
    },
    {
      "inputs": [
        {
          "internalType": "uint256",
          "name": "_id",
          "type": "uint256"
        }
      ],
      "name": "getShip",
      "outputs": [
        {
          "components": [
            {
              "internalType": "string",
              "name": "name",
              "type": "string"
            },
            {
              "internalType": "uint256",
              "name": "id",
              "type": "uint256"
            },
            {
              "components": [
                {
                  "internalType": "enum MainWeapon",
                  "name": "mainWeapon",
                  "type": "uint8"
                },
                {
                  "internalType": "enum Armor",
                  "name": "armor",
                  "type": "uint8"
                },
                {
                  "internalType": "enum Shields",
                  "name": "shields",
                  "type": "uint8"
                },
                {
                  "internalType": "enum Special",
                  "name": "special",
                  "type": "uint8"
                }
              ],
              "internalType": "struct Equipment",
              "name": "equipment",
              "type": "tuple"
            },
            {
              "components": [
                {
                  "internalType": "uint256",
                  "name": "serialNumber",
                  "type": "uint256"
                },
                {
                  "components": [
                    {
                      "internalType": "uint16",
                      "name": "h1",
                      "type": "uint16"
                    },
                    {
                      "internalType": "uint8",
                      "name": "s1",
                      "type": "uint8"
                    },
                    {
                      "internalType": "uint8",
                      "name": "l1",
                      "type": "uint8"
                    },
                    {
                      "internalType": "uint16",
                      "name": "h2",
                      "type": "uint16"
                    },
                    {
                      "internalType": "uint8",
                      "name": "s2",
                      "type": "uint8"
                    },
                    {
                      "internalType": "uint8",
                      "name": "l2",
                      "type": "uint8"
                    },
                    {
                      "internalType": "uint16",
                      "name": "h3",
                      "type": "uint16"
                    },
                    {
                      "internalType": "uint8",
                      "name": "s3",
                      "type": "uint8"
                    },
                    {
                      "internalType": "uint8",
                      "name": "l3",
                      "type": "uint8"
                    }
                  ],
                  "internalType": "struct Colors",
                  "name": "colors",
                  "type": "tuple"
                },
                {
                  "internalType": "uint16",
                  "name": "variant",
                  "type": "uint16"
                },
                {
                  "internalType": "uint8",
                  "name": "accuracy",
                  "type": "uint8"
                },
                {
                  "internalType": "uint8",
                  "name": "hull",
                  "type": "uint8"
                },
                {
                  "internalType": "uint8",
                  "name": "speed",
                  "type": "uint8"
                }
              ],
              "internalType": "struct Traits",
              "name": "traits",
              "type": "tuple"
            },
            {
              "components": [
                {
                  "internalType": "uint32",
                  "name": "shipsDestroyed",
                  "type": "uint32"
                },
                {
                  "internalType": "uint16",
                  "name": "costsVersion",
                  "type": "uint16"
                },
                {
                  "internalType": "uint16",
                  "name": "cost",
                  "type": "uint16"
                },
                {
                  "internalType": "uint16",
                  "name": "modified",
                  "type": "uint16"
                },
                {
                  "internalType": "bool",
                  "name": "shiny",
                  "type": "bool"
                },
                {
                  "internalType": "bool",
                  "name": "constructed",
                  "type": "bool"
                },
                {
                  "internalType": "bool",
                  "name": "inFleet",
                  "type": "bool"
                },
                {
                  "internalType": "bool",
                  "name": "isFreeShip",
                  "type": "bool"
                },
                {
                  "internalType": "uint256",
                  "name": "timestampDestroyed",
                  "type": "uint256"
                }
              ],
              "internalType": "struct ShipData",
              "name": "shipData",
              "type": "tuple"
            },
            {
              "internalType": "address",
              "name": "owner",
              "type": "address"
            }
          ],
          "internalType": "struct Ship",
          "name": "",
          "type": "tuple"
        }
      ],
      "stateMutability": "view",
      "type": "function"
    },
    {
      "inputs": [
        {
          "internalType": "address",
          "name": "_owner",
          "type": "address"
        }
      ],
      "name": "getShipIdsOwned",
      "outputs": [
        {
          "internalType": "uint256[]",
          "name": "",
          "type": "uint256[]"
        }
      ],
      "stateMutability": "view",
      "type": "function"
    },
    {
      "inputs": [
        {
          "internalType": "uint256[]",
          "name": "_ids",
          "type": "uint256[]"
        }
      ],
      "name": "getShipsByIds",
      "outputs": [
        {
          "components": [
            {
              "internalType": "string",
              "name": "name",
              "type": "string"
            },
            {
              "internalType": "uint256",
              "name": "id",
              "type": "uint256"
            },
            {
              "components": [
                {
                  "internalType": "enum MainWeapon",
                  "name": "mainWeapon",
                  "type": "uint8"
                },
                {
                  "internalType": "enum Armor",
                  "name": "armor",
                  "type": "uint8"
                },
                {
                  "internalType": "enum Shields",
                  "name": "shields",
                  "type": "uint8"
                },
                {
                  "internalType": "enum Special",
                  "name": "special",
                  "type": "uint8"
                }
              ],
              "internalType": "struct Equipment",
              "name": "equipment",
              "type": "tuple"
            },
            {
              "components": [
                {
                  "internalType": "uint256",
                  "name": "serialNumber",
                  "type": "uint256"
                },
                {
                  "components": [
                    {
                      "internalType": "uint16",
                      "name": "h1",
                      "type": "uint16"
                    },
                    {
                      "internalType": "uint8",
                      "name": "s1",
                      "type": "uint8"
                    },
                    {
                      "internalType": "uint8",
                      "name": "l1",
                      "type": "uint8"
                    },
                    {
                      "internalType": "uint16",
                      "name": "h2",
                      "type": "uint16"
                    },
                    {
                      "internalType": "uint8",
                      "name": "s2",
                      "type": "uint8"
                    },
                    {
                      "internalType": "uint8",
                      "name": "l2",
                      "type": "uint8"
                    },
                    {
                      "internalType": "uint16",
                      "name": "h3",
                      "type": "uint16"
                    },
                    {
                      "internalType": "uint8",
                      "name": "s3",
                      "type": "uint8"
                    },
                    {
                      "internalType": "uint8",
                      "name": "l3",
                      "type": "uint8"
                    }
                  ],
                  "internalType": "struct Colors",
                  "name": "colors",
                  "type": "tuple"
                },
                {
                  "internalType": "uint16",
                  "name": "variant",
                  "type": "uint16"
                },
                {
                  "internalType": "uint8",
                  "name": "accuracy",
                  "type": "uint8"
                },
                {
                  "internalType": "uint8",
                  "name": "hull",
                  "type": "uint8"
                },
                {
                  "internalType": "uint8",
                  "name": "speed",
                  "type": "uint8"
                }
              ],
              "internalType": "struct Traits",
              "name": "traits",
              "type": "tuple"
            },
            {
              "components": [
                {
                  "internalType": "uint32",
                  "name": "shipsDestroyed",
                  "type": "uint32"
                },
                {
                  "internalType": "uint16",
                  "name": "costsVersion",
                  "type": "uint16"
                },
                {
                  "internalType": "uint16",
                  "name": "cost",
                  "type": "uint16"
                },
                {
                  "internalType": "uint16",
                  "name": "modified",
                  "type": "uint16"
                },
                {
                  "internalType": "bool",
                  "name": "shiny",
                  "type": "bool"
                },
                {
                  "internalType": "bool",
                  "name": "constructed",
                  "type": "bool"
                },
                {
                  "internalType": "bool",
                  "name": "inFleet",
                  "type": "bool"
                },
                {
                  "internalType": "bool",
                  "name": "isFreeShip",
                  "type": "bool"
                },
                {
                  "internalType": "uint256",
                  "name": "timestampDestroyed",
                  "type": "uint256"
                }
              ],
              "internalType": "struct ShipData",
              "name": "shipData",
              "type": "tuple"
            },
            {
              "internalType": "address",
              "name": "owner",
              "type": "address"
            }
          ],
          "internalType": "struct Ship[]",
          "name": "",
          "type": "tuple[]"
        }
      ],
      "stateMutability": "view",
      "type": "function"
    },
    {
      "inputs": [
        {
          "internalType": "uint256",
          "name": "_trait",
          "type": "uint256"
        }
      ],
      "name": "getTierOfTrait",
      "outputs": [
        {
          "internalType": "uint8",
          "name": "",
          "type": "uint8"
        }
      ],
      "stateMutability": "pure",
      "type": "function"
    },
    {
      "inputs": [
        {
          "internalType": "address",
          "name": "",
          "type": "address"
        }
      ],
      "name": "isAllowedToCreateShips",
      "outputs": [
        {
          "internalType": "bool",
          "name": "",
          "type": "bool"
        }
      ],
      "stateMutability": "view",
      "type": "function"
    },
    {
      "inputs": [
        {
          "internalType": "address",
          "name": "owner",
          "type": "address"
        },
        {
          "internalType": "address",
          "name": "operator",
          "type": "address"
        }
      ],
      "name": "isApprovedForAll",
      "outputs": [
        {
          "internalType": "bool",
          "name": "",
          "type": "bool"
        }
      ],
      "stateMutability": "view",
      "type": "function"
    },
    {
      "inputs": [
        {
          "internalType": "uint256",
          "name": "_id",
          "type": "uint256"
        }
      ],
      "name": "isShipDestroyed",
      "outputs": [
        {
          "internalType": "bool",
          "name": "",
          "type": "bool"
        }
      ],
      "stateMutability": "view",
      "type": "function"
    },
    {
      "inputs": [
        {
          "internalType": "address",
          "name": "",
          "type": "address"
        }
      ],
      "name": "lastClaimTimestamp",
      "outputs": [
        {
          "internalType": "uint256",
          "name": "",
          "type": "uint256"
        }
      ],
      "stateMutability": "view",
      "type": "function"
    },
    {
      "inputs": [],
      "name": "maxVariant",
      "outputs": [
        {
          "internalType": "uint16",
          "name": "",
          "type": "uint16"
        }
      ],
      "stateMutability": "view",
      "type": "function"
    },
    {
      "inputs": [],
      "name": "name",
      "outputs": [
        {
          "internalType": "string",
          "name": "",
          "type": "string"
        }
      ],
      "stateMutability": "view",
      "type": "function"
    },
    {
      "inputs": [],
      "name": "owner",
      "outputs": [
        {
          "internalType": "address",
          "name": "",
          "type": "address"
        }
      ],
      "stateMutability": "view",
      "type": "function"
    },
    {
      "inputs": [
        {
          "internalType": "uint256",
          "name": "tokenId",
          "type": "uint256"
        }
      ],
      "name": "ownerOf",
      "outputs": [
        {
          "internalType": "address",
          "name": "",
          "type": "address"
        }
      ],
      "stateMutability": "view",
      "type": "function"
    },
    {
      "inputs": [],
      "name": "paused",
      "outputs": [
        {
          "internalType": "bool",
          "name": "",
          "type": "bool"
        }
      ],
      "stateMutability": "view",
      "type": "function"
    },
    {
      "inputs": [
        {
          "internalType": "address",
          "name": "_to",
          "type": "address"
        },
        {
          "internalType": "uint8",
          "name": "_tier",
          "type": "uint8"
        },
        {
          "internalType": "address",
          "name": "_referral",
          "type": "address"
        },
        {
          "internalType": "uint16",
          "name": "_variant",
          "type": "uint16"
        }
      ],
      "name": "purchaseWithFlow",
      "outputs": [],
      "stateMutability": "payable",
      "type": "function"
    },
    {
      "inputs": [],
      "name": "recycleReward",
      "outputs": [
        {
          "internalType": "uint256",
          "name": "",
          "type": "uint256"
        }
      ],
      "stateMutability": "view",
      "type": "function"
    },
    {
      "inputs": [
        {
          "internalType": "address",
          "name": "",
          "type": "address"
        }
      ],
      "name": "referralCount",
      "outputs": [
        {
          "internalType": "uint256",
          "name": "",
          "type": "uint256"
        }
      ],
      "stateMutability": "view",
      "type": "function"
    },
    {
      "inputs": [],
      "name": "renounceOwnership",
      "outputs": [],
      "stateMutability": "nonpayable",
      "type": "function"
    },
    {
      "inputs": [
        {
          "internalType": "address",
          "name": "from",
          "type": "address"
        },
        {
          "internalType": "address",
          "name": "to",
          "type": "address"
        },
        {
          "internalType": "uint256",
          "name": "tokenId",
          "type": "uint256"
        }
      ],
      "name": "safeTransferFrom",
      "outputs": [],
      "stateMutability": "nonpayable",
      "type": "function"
    },
    {
      "inputs": [
        {
          "internalType": "address",
          "name": "from",
          "type": "address"
        },
        {
          "internalType": "address",
          "name": "to",
          "type": "address"
        },
        {
          "internalType": "uint256",
          "name": "tokenId",
          "type": "uint256"
        },
        {
          "internalType": "bytes",
          "name": "data",
          "type": "bytes"
        }
      ],
      "name": "safeTransferFrom",
      "outputs": [],
      "stateMutability": "nonpayable",
      "type": "function"
    },
    {
      "inputs": [
        {
          "internalType": "address",
          "name": "operator",
          "type": "address"
        },
        {
          "internalType": "bool",
          "name": "approved",
          "type": "bool"
        }
      ],
      "name": "setApprovalForAll",
      "outputs": [],
      "stateMutability": "nonpayable",
      "type": "function"
    },
    {
      "inputs": [
        {
          "internalType": "uint256",
          "name": "_newCooldownPeriod",
          "type": "uint256"
        }
      ],
      "name": "setClaimCooldownPeriod",
      "outputs": [],
      "stateMutability": "nonpayable",
      "type": "function"
    },
    {
      "inputs": [
        {
          "internalType": "address",
          "name": "_gameAddress",
          "type": "address"
        },
        {
          "internalType": "address",
          "name": "_lobbyAddress",
          "type": "address"
        },
        {
          "internalType": "address",
          "name": "_fleetsAddress",
          "type": "address"
        },
        {
          "internalType": "address",
          "name": "_shipGenerator",
          "type": "address"
        },
        {
          "internalType": "address",
          "name": "_randomManager",
          "type": "address"
        },
        {
          "internalType": "address",
          "name": "_metadataRenderer",
          "type": "address"
        },
        {
          "internalType": "address",
          "name": "_shipAttributes",
          "type": "address"
        },
        {
          "internalType": "address",
          "name": "_universalCredits",
          "type": "address"
        }
      ],
      "name": "setConfig",
      "outputs": [],
      "stateMutability": "nonpayable",
      "type": "function"
    },
    {
      "inputs": [
        {
          "internalType": "uint256",
          "name": "_id",
          "type": "uint256"
        }
      ],
      "name": "setCostOfShip",
      "outputs": [],
      "stateMutability": "nonpayable",
      "type": "function"
    },
    {
      "inputs": [
        {
          "internalType": "uint256",
          "name": "_id",
          "type": "uint256"
        },
        {
          "internalType": "bool",
          "name": "_inFleet",
          "type": "bool"
        }
      ],
      "name": "setInFleet",
      "outputs": [],
      "stateMutability": "nonpayable",
      "type": "function"
    },
    {
      "inputs": [
        {
          "internalType": "address",
          "name": "_address",
          "type": "address"
        },
        {
          "internalType": "bool",
          "name": "_isAllowed",
          "type": "bool"
        }
      ],
      "name": "setIsAllowedToCreateShips",
      "outputs": [],
      "stateMutability": "nonpayable",
      "type": "function"
    },
    {
      "inputs": [
        {
          "internalType": "uint16",
          "name": "_maxVariant",
          "type": "uint16"
        }
      ],
      "name": "setMaxVariant",
      "outputs": [],
      "stateMutability": "nonpayable",
      "type": "function"
    },
    {
      "inputs": [
        {
          "internalType": "bool",
          "name": "_paused",
          "type": "bool"
        }
      ],
      "name": "setPaused",
      "outputs": [],
      "stateMutability": "nonpayable",
      "type": "function"
    },
    {
      "inputs": [
        {
          "internalType": "uint8[]",
          "name": "_tierShips",
          "type": "uint8[]"
        },
        {
          "internalType": "uint256[]",
          "name": "_tierPrices",
          "type": "uint256[]"
        }
      ],
      "name": "setPurchaseInfo",
      "outputs": [],
      "stateMutability": "nonpayable",
      "type": "function"
    },
    {
      "inputs": [
        {
          "internalType": "uint256",
          "name": "_newReward",
          "type": "uint256"
        }
      ],
      "name": "setRecycleReward",
      "outputs": [],
      "stateMutability": "nonpayable",
      "type": "function"
    },
    {
      "inputs": [
        {
          "internalType": "uint256",
          "name": "_id",
          "type": "uint256"
        },
        {
          "internalType": "uint256",
          "name": "_destroyerId",
          "type": "uint256"
        }
      ],
      "name": "setTimestampDestroyed",
      "outputs": [],
      "stateMutability": "nonpayable",
      "type": "function"
    },
    {
      "inputs": [
        {
          "internalType": "uint256[]",
          "name": "_shipIds",
          "type": "uint256[]"
        }
      ],
      "name": "shipBreaker",
      "outputs": [],
      "stateMutability": "nonpayable",
      "type": "function"
    },
    {
      "inputs": [],
      "name": "shipCount",
      "outputs": [
        {
          "internalType": "uint256",
          "name": "",
          "type": "uint256"
        }
      ],
      "stateMutability": "view",
      "type": "function"
    },
    {
      "inputs": [
        {
          "internalType": "uint256",
          "name": "",
          "type": "uint256"
        }
      ],
      "name": "ships",
      "outputs": [
        {
          "internalType": "string",
          "name": "name",
          "type": "string"
        },
        {
          "internalType": "uint256",
          "name": "id",
          "type": "uint256"
        },
        {
          "components": [
            {
              "internalType": "enum MainWeapon",
              "name": "mainWeapon",
              "type": "uint8"
            },
            {
              "internalType": "enum Armor",
              "name": "armor",
              "type": "uint8"
            },
            {
              "internalType": "enum Shields",
              "name": "shields",
              "type": "uint8"
            },
            {
              "internalType": "enum Special",
              "name": "special",
              "type": "uint8"
            }
          ],
          "internalType": "struct Equipment",
          "name": "equipment",
          "type": "tuple"
        },
        {
          "components": [
            {
              "internalType": "uint256",
              "name": "serialNumber",
              "type": "uint256"
            },
            {
              "components": [
                {
                  "internalType": "uint16",
                  "name": "h1",
                  "type": "uint16"
                },
                {
                  "internalType": "uint8",
                  "name": "s1",
                  "type": "uint8"
                },
                {
                  "internalType": "uint8",
                  "name": "l1",
                  "type": "uint8"
                },
                {
                  "internalType": "uint16",
                  "name": "h2",
                  "type": "uint16"
                },
                {
                  "internalType": "uint8",
                  "name": "s2",
                  "type": "uint8"
                },
                {
                  "internalType": "uint8",
                  "name": "l2",
                  "type": "uint8"
                },
                {
                  "internalType": "uint16",
                  "name": "h3",
                  "type": "uint16"
                },
                {
                  "internalType": "uint8",
                  "name": "s3",
                  "type": "uint8"
                },
                {
                  "internalType": "uint8",
                  "name": "l3",
                  "type": "uint8"
                }
              ],
              "internalType": "struct Colors",
              "name": "colors",
              "type": "tuple"
            },
            {
              "internalType": "uint16",
              "name": "variant",
              "type": "uint16"
            },
            {
              "internalType": "uint8",
              "name": "accuracy",
              "type": "uint8"
            },
            {
              "internalType": "uint8",
              "name": "hull",
              "type": "uint8"
            },
            {
              "internalType": "uint8",
              "name": "speed",
              "type": "uint8"
            }
          ],
          "internalType": "struct Traits",
          "name": "traits",
          "type": "tuple"
        },
        {
          "components": [
            {
              "internalType": "uint32",
              "name": "shipsDestroyed",
              "type": "uint32"
            },
            {
              "internalType": "uint16",
              "name": "costsVersion",
              "type": "uint16"
            },
            {
              "internalType": "uint16",
              "name": "cost",
              "type": "uint16"
            },
            {
              "internalType": "uint16",
              "name": "modified",
              "type": "uint16"
            },
            {
              "internalType": "bool",
              "name": "shiny",
              "type": "bool"
            },
            {
              "internalType": "bool",
              "name": "constructed",
              "type": "bool"
            },
            {
              "internalType": "bool",
              "name": "inFleet",
              "type": "bool"
            },
            {
              "internalType": "bool",
              "name": "isFreeShip",
              "type": "bool"
            },
            {
              "internalType": "uint256",
              "name": "timestampDestroyed",
              "type": "uint256"
            }
          ],
          "internalType": "struct ShipData",
          "name": "shipData",
          "type": "tuple"
        },
        {
          "internalType": "address",
          "name": "owner",
          "type": "address"
        }
      ],
      "stateMutability": "view",
      "type": "function"
    },
    {
      "inputs": [
        {
          "internalType": "bytes4",
          "name": "interfaceId",
          "type": "bytes4"
        }
      ],
      "name": "supportsInterface",
      "outputs": [
        {
          "internalType": "bool",
          "name": "",
          "type": "bool"
        }
      ],
      "stateMutability": "view",
      "type": "function"
    },
    {
      "inputs": [],
      "name": "symbol",
      "outputs": [
        {
          "internalType": "string",
          "name": "",
          "type": "string"
        }
      ],
      "stateMutability": "view",
      "type": "function"
    },
    {
      "inputs": [
        {
          "internalType": "uint256",
          "name": "",
          "type": "uint256"
        }
      ],
      "name": "tierPrices",
      "outputs": [
        {
          "internalType": "uint256",
          "name": "",
          "type": "uint256"
        }
      ],
      "stateMutability": "view",
      "type": "function"
    },
    {
      "inputs": [
        {
          "internalType": "uint256",
          "name": "",
          "type": "uint256"
        }
      ],
      "name": "tierShips",
      "outputs": [
        {
          "internalType": "uint8",
          "name": "",
          "type": "uint8"
        }
      ],
      "stateMutability": "view",
      "type": "function"
    },
    {
      "inputs": [
        {
          "internalType": "uint256",
          "name": "_id",
          "type": "uint256"
        }
      ],
      "name": "tokenURI",
      "outputs": [
        {
          "internalType": "string",
          "name": "",
          "type": "string"
        }
      ],
      "stateMutability": "view",
      "type": "function"
    },
    {
      "inputs": [
        {
          "internalType": "address",
          "name": "from",
          "type": "address"
        },
        {
          "internalType": "address",
          "name": "to",
          "type": "address"
        },
        {
          "internalType": "uint256",
          "name": "tokenId",
          "type": "uint256"
        }
      ],
      "name": "transferFrom",
      "outputs": [],
      "stateMutability": "nonpayable",
      "type": "function"
    },
    {
      "inputs": [
        {
          "internalType": "address",
          "name": "newOwner",
          "type": "address"
        }
      ],
      "name": "transferOwnership",
      "outputs": [],
      "stateMutability": "nonpayable",
      "type": "function"
    },
    {
      "inputs": [],
      "name": "universalCredits",
      "outputs": [
        {
          "internalType": "contract IUniversalCredits",
          "name": "",
          "type": "address"
        }
      ],
      "stateMutability": "view",
      "type": "function"
    },
    {
      "inputs": [],
      "name": "withdraw",
      "outputs": [],
      "stateMutability": "nonpayable",
      "type": "function"
    }
  ],
  "bytecode": "0x60806040526224ea00600d556018805462ffff00191661010017905567016345785d8a0000601b5534801561003357600080fd5b5060405161649838038061649883398101604081905261005291610304565b3360405180604001604052806012815260200171566f6964205461637469637320536869707360701b815250604051806040016040528060048152602001630534849560e41b81525081600090816100aa91906103d3565b5060016100b782826103d3565b5050506001600160a01b0381166100e857604051631e4fbdf760e01b81526000600482015260240160405180910390fd5b6100f1816101b1565b506001600755601280546001600160a01b0319166001600160a01b0383161790556040805160a0810182526005808252600b6020830152601692820183905260286060830152603c6080830152610149929190610203565b506040805160a0810182526745400a8fd53300008152678aa39c121a27000060208201526801156abf16a40f0000918101919091526801e595739d72eb000060608201526802b5c0282441c7000060808201526101aa9060179060056102a9565b5050610491565b600680546001600160a01b038381166001600160a01b0319831681179093556040519116919082907f8be0079c531659141344cd1fd0a4f28419497f9722a3daafe3b4186f6b6457e090600090a35050565b82805482825590600052602060002090601f016020900481019282156102995791602002820160005b8382111561026a57835183826101000a81548160ff021916908360ff160217905550926020019260010160208160000104928301926001030261022c565b80156102975782816101000a81549060ff021916905560010160208160000104928301926001030261026a565b505b506102a59291506102ef565b5090565b828054828255906000526020600020908101928215610299579160200282015b8281111561029957825182906001600160481b03169055916020019190600101906102c9565b5b808211156102a557600081556001016102f0565b60006020828403121561031657600080fd5b81516001600160a01b038116811461032d57600080fd5b9392505050565b634e487b7160e01b600052604160045260246000fd5b600181811c9082168061035e57607f821691505b60208210810361037e57634e487b7160e01b600052602260045260246000fd5b50919050565b601f8211156103ce57806000526020600020601f840160051c810160208510156103ab5750805b601f840160051c820191505b818110156103cb57600081556001016103b7565b50505b505050565b81516001600160401b038111156103ec576103ec610334565b610400816103fa845461034a565b84610384565b6020601f821160018114610434576000831561041c5750848201515b600019600385901b1c1916600184901b1784556103cb565b600084815260208120601f198516915b828110156104645787850151825560209485019460019092019101610444565b50848210156104825786840151600019600387901b60f8161c191681555b50505050600190811b01905550565b615ff8806104a06000396000f3fe60806040526004361061036a5760003560e01c80636e0f7a48116101c6578063977216c2116100f7578063db74559b11610095578063e6b5c3351161006f578063e6b5c33514610ada578063e985e9c514610afa578063f25a034214610b1a578063f2fde38b14610b4757600080fd5b8063db74559b14610a6d578063dd77071214610a9a578063dd81d5bf14610aba57600080fd5b8063b88d4fde116100d1578063b88d4fde146109ea578063bd9d518b14610a0a578063c87b56dd14610a37578063d08acd9314610a5757600080fd5b8063977216c214610994578063a22cb465146109b4578063b4e847a0146109d457600080fd5b80637d9e9d30116101645780638c79d7e31161013e5780638c79d7e31461090f5780638da5cb5b1461092f578063959601011461094d57806395d89b411461097f57600080fd5b80637d9e9d30146108ba5780637eebe99d146108da5780638163997c146108fa57600080fd5b8063715018a6116101a0578063715018a6146107c757806375bfe420146107dc57806378fa901c1461080c57806379502c551461082c57600080fd5b80636e0f7a481461077157806370a0823114610791578063710cbc44146107b157600080fd5b806342842e0e116102a05780635b91bbca1161023e578063612124311161021857806361212431146106cc578063614008f1146106fe5780636352211e1461071e57806368382aad1461073e57600080fd5b80635b91bbca1461067f5780635c975abb1461069f578063600917ff146106b957600080fd5b806348cfc19e1161027a57806348cfc19e146105dd5780634d4e8dfa14610600578063514c2ece1461063257806359e651e01461065257600080fd5b806342842e0e1461057d5780634346b1501461059d578063446c00f7146105bd57600080fd5b806316c38b3c1161030d57806323b872dd116102e757806323b872dd146104fb578063300eccab1461051b5780633ccfd60b1461053b5780634025b22d1461055057600080fd5b806316c38b3c1461049b57806317225941146104bb5780631a0111aa146104db57600080fd5b8063074ba79d11610349578063074ba79d146103e8578063081812fc14610423578063095ea7b31461045b57806311a960cd1461047b57600080fd5b8062dbc7381461036f57806301ffc9a71461039157806306fdde03146103c6575b600080fd5b34801561037b57600080fd5b5061038f61038a3660046144e3565b610b67565b005b34801561039d57600080fd5b506103b16103ac3660046145a2565b610bfd565b60405190151581526020015b60405180910390f35b3480156103d257600080fd5b506103db610c4f565b6040516103bd919061460f565b3480156103f457600080fd5b50610415610403366004614622565b600c6020526000908152604090205481565b6040519081526020016103bd565b34801561042f57600080fd5b5061044361043e36600461463f565b610ce1565b6040516001600160a01b0390911681526020016103bd565b34801561046757600080fd5b5061038f610476366004614658565b610d0a565b34801561048757600080fd5b5061038f610496366004614684565b610d19565b3480156104a757600080fd5b5061038f6104b63660046146bf565b610ede565b3480156104c757600080fd5b50601a54610443906001600160a01b031681565b3480156104e757600080fd5b5061038f6104f6366004614727565b610ef9565b34801561050757600080fd5b5061038f610516366004614796565b610f41565b34801561052757600080fd5b5061041561053636600461463f565b610fcc565b34801561054757600080fd5b5061038f610fed565b34801561055c57600080fd5b5061057061056b36600461463f565b61107d565b6040516103bd9190614a4a565b34801561058957600080fd5b5061038f610598366004614796565b61151c565b3480156105a957600080fd5b5061038f6105b8366004614a5d565b61153c565b3480156105c957600080fd5b5061038f6105d836600461463f565b6116c3565b3480156105e957600080fd5b506105f2611712565b6040516103bd929190614ada565b34801561060c57600080fd5b5061062061061b36600461463f565b6117e3565b6040516103bd96959493929190614b2b565b34801561063e57600080fd5b5061038f61064d36600461463f565b611c49565b34801561065e57600080fd5b5061067261066d366004614622565b611c56565b6040516103bd9190614b8d565b34801561068b57600080fd5b5061038f61069a366004614bbb565b611c7a565b3480156106ab57600080fd5b506018546103b19060ff1681565b61038f6106c7366004614bf2565b611d13565b3480156106d857600080fd5b506106ec6106e736600461463f565b611e7f565b60405160ff90911681526020016103bd565b34801561070a57600080fd5b50610415610719366004614c67565b611eb3565b34801561072a57600080fd5b5061044361073936600461463f565b611f26565b34801561074a57600080fd5b5060185461075e90610100900461ffff1681565b60405161ffff90911681526020016103bd565b34801561077d57600080fd5b506106ec61078c36600461463f565b611f31565b34801561079d57600080fd5b506104156107ac366004614622565b611f59565b3480156107bd57600080fd5b50610415600d5481565b3480156107d357600080fd5b5061038f611fa1565b3480156107e857600080fd5b506103b16107f7366004614622565b60196020526000908152604090205460ff1681565b34801561081857600080fd5b5061038f610827366004614cb6565b611fb5565b34801561083857600080fd5b50600f54601054601154601254601354601454601554610871966001600160a01b03908116968116958116948116938116928116911687565b604080516001600160a01b039889168152968816602088015294871694860194909452918516606085015284166080840152831660a083015290911660c082015260e0016103bd565b3480156108c657600080fd5b5061038f6108d5366004614a5d565b612083565b3480156108e657600080fd5b5061038f6108f5366004614cfe565b6120b7565b34801561090657600080fd5b5061038f61219b565b34801561091b57600080fd5b5061038f61092a366004614d2e565b61222f565b34801561093b57600080fd5b506006546001600160a01b0316610443565b34801561095957600080fd5b506103b161096836600461463f565b600090815260086020526040902060070154151590565b34801561098b57600080fd5b506103db612262565b3480156109a057600080fd5b5061038f6109af36600461463f565b612271565b3480156109c057600080fd5b5061038f6109cf366004614d2e565b61227e565b3480156109e057600080fd5b5061041560095481565b3480156109f657600080fd5b5061038f610a05366004614e74565b612289565b348015610a1657600080fd5b50610415610a25366004614622565b600b6020526000908152604090205481565b348015610a4357600080fd5b506103db610a5236600461463f565b6122a1565b348015610a6357600080fd5b50610415601b5481565b348015610a7957600080fd5b50610415610a88366004614622565b600e6020526000908152604090205481565b348015610aa657600080fd5b5061038f610ab5366004614ef3565b612325565b348015610ac657600080fd5b5061038f610ad536600461463f565b612370565b348015610ae657600080fd5b5061038f610af5366004614bbb565b6128d4565b348015610b0657600080fd5b506103b1610b15366004614f23565b6128fa565b348015610b2657600080fd5b50610b3a610b35366004614a5d565b612928565b6040516103bd9190614f51565b348015610b5357600080fd5b5061038f610b62366004614622565b612e5e565b610b6f612e99565b600f80546001600160a01b03199081166001600160a01b039a8b1617909155601080548216988a1698909817909755601180548816968916969096179095556014805487169488169490941790935560138054861692871692909217909155601280548516918616919091179055601580548416918516919091179055601a80549092169216919091179055565b60006001600160e01b031982166380ac58cd60e01b1480610c2e57506001600160e01b03198216635b5e139f60e01b145b80610c4957506301ffc9a760e01b6001600160e01b03198316145b92915050565b606060008054610c5e90614fb6565b80601f0160208091040260200160405190810160405280929190818152602001828054610c8a90614fb6565b8015610cd75780601f10610cac57610100808354040283529160200191610cd7565b820191906000526020600020905b815481529060010190602001808311610cba57829003601f168201915b5050505050905090565b6000610cec82612ec6565b506000828152600460205260409020546001600160a01b0316610c49565b610d15828233612eff565b5050565b6006546001600160a01b03163314801590610d3f5750600f546001600160a01b03163314155b15610d6457604051634a0bfec160e01b81523360048201526024015b60405180910390fd5b60008281526008602052604090206007015415610d975760405163163fe02b60e11b815260048101839052602401610d5b565b600082815260086020526040908190204260079091015551600080516020615fa383398151915290610dcc9084815260200190565b60405180910390a16000818152600860205260408120600601805463ffffffff1691610df783615000565b825463ffffffff9182166101009390930a928302919092021990911617905550600081815260086020819052604090912001546001600160a01b03168015610ea657601a54601b546040516340c10f1960e01b81526001600160a01b03848116600483015260029290921c60248201529116906340c10f1990604401600060405180830381600087803b158015610e8d57600080fd5b505af1158015610ea1573d6000803e3d6000fd5b505050505b6040518381527ff8e1a15aba9398e019f0b49df1a4fde98ee17ae345cb5f6b5e2c27f5033e8ce79060200160405180910390a1505050565b610ee6612e99565b6018805460ff1916911515919091179055565b610f01612e99565b828114610f215760405163512509d360e11b815260040160405180910390fd5b610f2d601685856142a7565b50610f3a60178383614350565b5050505050565b6001600160a01b038216610f6b57604051633250574960e11b815260006004820152602401610d5b565b6000610f78838333612f0c565b9050836001600160a01b0316816001600160a01b031614610fc6576040516364283d7b60e01b81526001600160a01b0380861660048301526024820184905282166044820152606401610d5b565b50505050565b60178181548110610fdc57600080fd5b600091825260209091200154905081565b610ff5612e99565b60006110096006546001600160a01b031690565b6001600160a01b03164760405160006040518083038185875af1925050503d8060008114611053576040519150601f19603f3d011682016040523d82523d6000602084013e611058565b606091505b505090508061107a576040516327fcd9d160e01b815260040160405180910390fd5b50565b61108561438b565b60008281526008602052604090819020815160c081019092528054829082906110ad90614fb6565b80601f01602080910402602001604051908101604052809291908181526020018280546110d990614fb6565b80156111265780601f106110fb57610100808354040283529160200191611126565b820191906000526020600020905b81548152906001019060200180831161110957829003601f168201915b5050509183525050600182015460208201526040805160808101825260028401805492909301929091829060ff166007811115611165576111656147d7565b6007811115611176576111766147d7565b81528154602090910190610100900460ff166007811115611199576111996147d7565b60078111156111aa576111aa6147d7565b8152815460209091019062010000900460ff1660078111156111ce576111ce6147d7565b60078111156111df576111df6147d7565b815281546020909101906301000000900460ff166007811115611204576112046147d7565b6007811115611215576112156147d7565b815250508152602001600382016040518060c00160405290816000820154815260200160018201604051806101200160405290816000820160009054906101000a900461ffff1661ffff1661ffff1681526020016000820160029054906101000a900460ff1660ff1660ff1681526020016000820160039054906101000a900460ff1660ff1660ff1681526020016000820160049054906101000a900461ffff1661ffff1661ffff1681526020016000820160069054906101000a900460ff1660ff1660ff1681526020016000820160079054906101000a900460ff1660ff1660ff1681526020016000820160089054906101000a900461ffff1661ffff1661ffff16815260200160008201600a9054906101000a900460ff1660ff1660ff16815260200160008201600b9054906101000a900460ff1660ff1660ff168152505081526020016002820160009054906101000a900461ffff1661ffff1661ffff1681526020016002820160029054906101000a900460ff1660ff1660ff1681526020016002820160039054906101000a900460ff1660ff1660ff1681526020016002820160049054906101000a900460ff1660ff1660ff1681525050815260200160068201604051806101200160405290816000820160009054906101000a900463ffffffff1663ffffffff1663ffffffff1681526020016000820160049054906101000a900461ffff1661ffff1661ffff1681526020016000820160069054906101000a900461ffff1661ffff1661ffff1681526020016000820160089054906101000a900461ffff1661ffff1661ffff16815260200160008201600a9054906101000a900460ff1615151515815260200160008201600b9054906101000a900460ff1615151515815260200160008201600c9054906101000a900460ff1615151515815260200160008201600d9054906101000a900460ff1615151515815260200160018201548152505081526020016008820160009054906101000a90046001600160a01b03166001600160a01b03166001600160a01b0316815250509050919050565b61153783838360405180602001604052806000815250612289565b505050565b6115446130ec565b6000805b8281101561164c57600084848381811061156457611564615025565b60209081029290920135600081815260089384905260409020928301549093506001600160a01b0316331490506115b05760405162dd34af60e41b815260048101839052602401610d5b565b6006810154600160681b900460ff16156115e05760405163c4d9079d60e01b815260048101839052602401610d5b565b600781015415156000816115f657601b546115fd565b601b5460011c5b426007850155604051858152909150600080516020615fa38339815191529060200160405180910390a161163084613116565b61163a818761503b565b95505060019093019250611548915050565b5080156116b857601a546040516340c10f1960e01b8152336004820152602481018390526001600160a01b03909116906340c10f1990604401600060405180830381600087803b15801561169f57600080fd5b505af11580156116b3573d6000803e3d6000fd5b505050505b50610d156001600755565b6006546001600160a01b031633148015906116e95750600f546001600160a01b03163314155b1561170957604051634a0bfec160e01b8152336004820152602401610d5b565b61107a81613151565b606080601660178180548060200260200160405190810160405280929190818152602001828054801561178257602002820191906000526020600020906000905b825461010083900a900460ff168152602060019283018181049485019490930390920291018084116117535790505b50505050509150808054806020026020016040519081016040528092919081815260200182805480156117d457602002820191906000526020600020905b8154815260200190600101908083116117c0575b50505050509050915091509091565b6008602052600090815260409020805481906117fe90614fb6565b80601f016020809104026020016040519081016040528092919081815260200182805461182a90614fb6565b80156118775780601f1061184c57610100808354040283529160200191611877565b820191906000526020600020905b81548152906001019060200180831161185a57829003601f168201915b505050505090806001015490806002016040518060800160405290816000820160009054906101000a900460ff1660078111156118b6576118b66147d7565b60078111156118c7576118c76147d7565b81528154602090910190610100900460ff1660078111156118ea576118ea6147d7565b60078111156118fb576118fb6147d7565b8152815460209091019062010000900460ff16600781111561191f5761191f6147d7565b6007811115611930576119306147d7565b815281546020909101906301000000900460ff166007811115611955576119556147d7565b6007811115611966576119666147d7565b8152505090806003016040518060c00160405290816000820154815260200160018201604051806101200160405290816000820160009054906101000a900461ffff1661ffff1661ffff1681526020016000820160029054906101000a900460ff1660ff1660ff1681526020016000820160039054906101000a900460ff1660ff1660ff1681526020016000820160049054906101000a900461ffff1661ffff1661ffff1681526020016000820160069054906101000a900460ff1660ff1660ff1681526020016000820160079054906101000a900460ff1660ff1660ff1681526020016000820160089054906101000a900461ffff1661ffff1661ffff16815260200160008201600a9054906101000a900460ff1660ff1660ff16815260200160008201600b9054906101000a900460ff1660ff1660ff168152505081526020016002820160009054906101000a900461ffff1661ffff1661ffff1681526020016002820160029054906101000a900460ff1660ff1660ff1681526020016002820160039054906101000a900460ff1660ff1660ff1681526020016002820160049054906101000a900460ff1660ff1660ff16815250509080600601604051806101200160405290816000820160009054906101000a900463ffffffff1663ffffffff1663ffffffff1681526020016000820160049054906101000a900461ffff1661ffff1661ffff1681526020016000820160069054906101000a900461ffff1661ffff1661ffff1681526020016000820160089054906101000a900461ffff1661ffff1661ffff16815260200160008201600a9054906101000a900460ff1615151515815260200160008201600b9054906101000a900460ff1615151515815260200160008201600c9054906101000a900460ff1615151515815260200160008201600d9054906101000a900460ff16151515158152602001600182015481525050908060080160009054906101000a90046001600160a01b0316905086565b611c51612e99565b600d55565b6001600160a01b0381166000908152600a60205260409020606090610c49906131fe565b336000908152600b6020526040902054600d544290611c99908361503b565b811015611cb9576040516337a193d360e21b815260040160405180910390fd5b60005b600a811015611cfe57611cd133856000613212565b6009546000908152600860205260409020600601805460ff60681b1916600160681b179055600101611cbc565b50336000908152600b60205260409020555050565b611d1b6130ec565b60178360ff1681548110611d3157611d31615025565b90600052602060002001543414611d66576040516312a1605d60e31b815260ff84166004820152346024820152604401610d5b565b600060168460ff1681548110611d7e57611d7e615025565b60009182526020808320908204015460ff601f9092166101000a9004169150611da885600161504e565b905060005b82811015611e0a578160ff16811015611df657600081611dce88600161504e565b60ff16611ddb9190615067565b9050611df08886611deb846133b5565b613212565b50611e02565b611e0287856000613212565b600101611dad565b506001600160a01b03841615611e4557611e45848360178860ff1681548110611e3557611e35615025565b9060005260206000200154613420565b6001600160a01b0386166000908152600c602052604081208054849290611e6d90849061503b565b9091555050600160075550610fc69050565b60168181548110611e8f57600080fd5b9060005260206000209060209182820401919006915054906101000a900460ff1681565b3360009081526019602052604081205460ff16611ee557604051634a0bfec160e01b8152336004820152602401610d5b565b611f0283611efb61022085016102008601614bbb565b6000613212565b6009546000818152600860205260409020611f1e81838661354b565b509392505050565b6000610c4982612ec6565b600060328210611f515760508210611f4a576002610c49565b6001610c49565b600092915050565b60006001600160a01b038216611f85576040516322718ad960e21b815260006004820152602401610d5b565b506001600160a01b031660009081526003602052604090205490565b611fa9612e99565b611fb3600061389a565b565b3360009081526019602052604090205460ff16611fe757604051634a0bfec160e01b8152336004820152602401610d5b565b6000611ff482600161504e565b905060005b8481101561204e578160ff1681101561203a5760008161201a85600161504e565b612024919061507a565b90506120348786611deb846133b5565b50612046565b61204686856000613212565b600101611ff9565b506001600160a01b0385166000908152600c60205260408120805486929061207790849061503b565b90915550505050505050565b60005b81811015611537576120af8383838181106120a3576120a3615025565b90506020020135612370565b600101612086565b6010546001600160a01b031633148015906120dd5750600f546001600160a01b03163314155b80156120f457506011546001600160a01b03163314155b1561211457604051634a0bfec160e01b8152336004820152602401610d5b565b6000828152600860205260409020600601805482158015600160601b0260ff60601b199092169190911790915561216b57604051828152600080516020615fa3833981519152906020015b60405180910390a15050565b6040518281527ff27b6ce5b2f5e68ddb2fd95a8a909d4ecf1daaac270935fff052feacb24f18429060200161215f565b336000908152600a602052604081206121b3906131fe565b905060005b8151811015610d1557600860008383815181106121d7576121d7615025565b60200260200101518152602001908152602001600020600601600001600b9054906101000a900460ff166122275761222782828151811061221a5761221a615025565b6020026020010151612370565b6001016121b8565b612237612e99565b6001600160a01b03919091166000908152601960205260409020805460ff1916911515919091179055565b606060018054610c5e90614fb6565b612279612e99565b601b55565b610d153383836138ec565b612294848484610f41565b610fc6338585858561398b565b601254600082815260086020526040908190209051637c1d0bcb60e01b81526060926001600160a01b031691637c1d0bcb916122e091906004016152f5565b600060405180830381865afa1580156122fd573d6000803e3d6000fd5b505050506040513d6000823e601f3d908101601f19168201604052610c49919081019061534d565b3360009081526019602052604090205460ff1661235757604051634a0bfec160e01b8152336004820152602401610d5b565b600082815260086020526040902061153781848461354b565b6040518181527ff8e1a15aba9398e019f0b49df1a4fde98ee17ae345cb5f6b5e2c27f5033e8ce79060200160405180910390a16000818152600860208190526040909120908101546001600160a01b031633146123e25760405162dd34af60e41b815260048101839052602401610d5b565b6006810154600160581b900460ff161561241257604051635331ce1f60e11b815260048101839052602401610d5b565b6013546003820154604051632f09b60960e21b815260048101919091526000916001600160a01b03169063bc26d824906024016020604051808303816000875af1158015612464573d6000803e3d6000fd5b505050506040513d601f19601f820116820180604052508101906124889190615381565b60145460038401546005850154604051637017ac9560e11b81526004810188905260248101929092526001600160401b038416604483015261ffff1660648201529192506000916001600160a01b039091169063e02f592a90608401600060405180830381865afa158015612501573d6000803e3d6000fd5b505050506040513d6000823e601f3d908101601f1916820160405261252991908101906155dc565b8051909150839061253a9082615742565b508060600151836003016000820151816000015560208201518160010160008201518160000160006101000a81548161ffff021916908361ffff16021790555060208201518160000160026101000a81548160ff021916908360ff16021790555060408201518160000160036101000a81548160ff021916908360ff16021790555060608201518160000160046101000a81548161ffff021916908361ffff16021790555060808201518160000160066101000a81548160ff021916908360ff16021790555060a08201518160000160076101000a81548160ff021916908360ff16021790555060c08201518160000160086101000a81548161ffff021916908361ffff16021790555060e082015181600001600a6101000a81548160ff021916908360ff16021790555061010082015181600001600b6101000a81548160ff021916908360ff160217905550505060408201518160020160006101000a81548161ffff021916908361ffff16021790555060608201518160020160026101000a81548160ff021916908360ff16021790555060808201518160020160036101000a81548160ff021916908360ff16021790555060a08201518160020160046101000a81548160ff021916908360ff16021790555090505080604001518360020160008201518160000160006101000a81548160ff02191690836007811115612745576127456147d7565b021790555060208201518154829061ff00191661010083600781111561276d5761276d6147d7565b021790555060408201518154829062ff0000191662010000836007811115612797576127976147d7565b021790555060608201518154829063ff000000191663010000008360078111156127c3576127c36147d7565b021790555050506080808201510151600684018054911515600160501b0260ff60501b198316811790915563ffffffff9081169116176000036128225760808101515160068401805463ffffffff191663ffffffff9092169190911790555b601554604080516318987be760e11b815290516001600160a01b0390921691633130f7ce916004808201926020929091908290030181865afa15801561286c573d6000803e3d6000fd5b505050506040513d601f19601f820116820180604052508101906128909190615800565b60068401805460ff60581b1961ffff9390931664010000000002929092166bff0000000000ffff000000001990921691909117600160581b179055610fc684613151565b6128dc612e99565b6018805461ffff9092166101000262ffff0019909216919091179055565b6001600160a01b03918216600090815260056020908152604080832093909416825291909152205460ff1690565b60606000826001600160401b0381111561294457612944614d5c565b60405190808252806020026020018201604052801561297d57816020015b61296a61438b565b8152602001906001900390816129625790505b50905060005b83811015611f1e57600860008686848181106129a1576129a1615025565b9050602002013581526020019081526020016000206040518060c00160405290816000820180546129d190614fb6565b80601f01602080910402602001604051908101604052809291908181526020018280546129fd90614fb6565b8015612a4a5780601f10612a1f57610100808354040283529160200191612a4a565b820191906000526020600020905b815481529060010190602001808311612a2d57829003601f168201915b5050509183525050600182015460208201526040805160808101825260028401805492909301929091829060ff166007811115612a8957612a896147d7565b6007811115612a9a57612a9a6147d7565b81528154602090910190610100900460ff166007811115612abd57612abd6147d7565b6007811115612ace57612ace6147d7565b8152815460209091019062010000900460ff166007811115612af257612af26147d7565b6007811115612b0357612b036147d7565b815281546020909101906301000000900460ff166007811115612b2857612b286147d7565b6007811115612b3957612b396147d7565b815250508152602001600382016040518060c00160405290816000820154815260200160018201604051806101200160405290816000820160009054906101000a900461ffff1661ffff1661ffff1681526020016000820160029054906101000a900460ff1660ff1660ff1681526020016000820160039054906101000a900460ff1660ff1660ff1681526020016000820160049054906101000a900461ffff1661ffff1661ffff1681526020016000820160069054906101000a900460ff1660ff1660ff1681526020016000820160079054906101000a900460ff1660ff1660ff1681526020016000820160089054906101000a900461ffff1661ffff1661ffff16815260200160008201600a9054906101000a900460ff1660ff1660ff16815260200160008201600b9054906101000a900460ff1660ff1660ff168152505081526020016002820160009054906101000a900461ffff1661ffff1661ffff1681526020016002820160029054906101000a900460ff1660ff1660ff1681526020016002820160039054906101000a900460ff1660ff1660ff1681526020016002820160049054906101000a900460ff1660ff1660ff1681525050815260200160068201604051806101200160405290816000820160009054906101000a900463ffffffff1663ffffffff1663ffffffff1681526020016000820160049054906101000a900461ffff1661ffff1661ffff1681526020016000820160069054906101000a900461ffff1661ffff1661ffff1681526020016000820160089054906101000a900461ffff1661ffff1661ffff16815260200160008201600a9054906101000a900460ff1615151515815260200160008201600b9054906101000a900460ff1615151515815260200160008201600c9054906101000a900460ff1615151515815260200160008201600d9054906101000a900460ff1615151515815260200160018201548152505081526020016008820160009054906101000a90046001600160a01b03166001600160a01b03166001600160a01b031681525050828281518110612e4b57612e4b615025565b6020908102919091010152600101612983565b612e66612e99565b6001600160a01b038116612e9057604051631e4fbdf760e01b815260006004820152602401610d5b565b61107a8161389a565b6006546001600160a01b03163314611fb35760405163118cdaa760e01b8152336004820152602401610d5b565b6000818152600260205260408120546001600160a01b031680610c4957604051637e27328960e01b815260048101849052602401610d5b565b6115378383836001613ab5565b60008281526008602081905260408220908101546001600160a01b0390811690861615612f5657600782015415612f56576040516398586ca160e01b815260040160405180910390fd5b6006820154600160601b900460ff1615612f865760405163128379f760e11b815260048101869052602401610d5b565b6001600160a01b03811615613057576001600160a01b0381166000908152600c6020526040902054600a1115612fda57604051637c0df70b60e11b81526001600160a01b0382166004820152602401610d5b565b6001600160a01b0386161580159061300a57506001600160a01b0386166000908152600c6020526040902054600a115b1561303357604051637c0df70b60e11b81526001600160a01b0387166004820152602401610d5b565b6001600160a01b0381166000908152600a602052604090206130559086613bbb565b505b6001600160a01b038616156130a7576001600160a01b0386166000908152600a602052604090206130889086613bc7565b506008820180546001600160a01b0319166001600160a01b0388161790555b6001600160a01b0386166130d757604051858152600080516020615fa38339815191529060200160405180910390a15b6130e2868686613bd3565b9695505050505050565b60026007540361310f57604051633ee5aeb560e01b815260040160405180910390fd5b6002600755565b60006131256000836000612f0c565b90506001600160a01b038116610d1557604051637e27328960e01b815260048101839052602401610d5b565b60008181526008602052604090819020601554915163863bea7f60e01b815290916001600160a01b03169063863bea7f906131909084906004016152f5565b602060405180830381865afa1580156131ad573d6000803e3d6000fd5b505050506040513d601f19601f820116820180604052508101906131d19190615800565b6006909101805461ffff9290921666010000000000000267ffff0000000000001990921691909117905550565b6060600061320b83613ccc565b9392505050565b60185460ff161561323657604051636be9245d60e11b815260040160405180910390fd5b60185461ffff61010090910481169083161180613255575061ffff8216155b1561327957604051633a6d207560e11b815261ffff83166004820152602401610d5b565b600980549060006132898361581d565b909155505060095460008181526008602090815260408083206001810194909455601354815163f8413b0760e01b815291516001600160a01b039091169363f8413b07936004848101949193929183900301908290875af11580156132f2573d6000803e3d6000fd5b505050506040513d601f19601f820116820180604052508101906133169190615836565b600382015560058101805461ffff191661ffff858116919091179091558216156133505760068101805463ffffffff191661ffff84161790555b61335c84600954613d28565b6008810180546001600160a01b0319166001600160a01b0386161790556009546040519081527ff27b6ce5b2f5e68ddb2fd95a8a909d4ecf1daaac270935fff052feacb24f18429060200160405180910390a150505050565b600060068260ff16106133cb57506103e8919050565b8160ff166005036133df575061012c919050565b8160ff166004036133f257506064919050565b8160ff166003036134055750601e919050565b8160ff166002036134185750600a919050565b506001919050565b6001600160a01b0383166000908152600e60205260408120805484929061344890849061503b565b90915550506001600160a01b0383166000908152600e6020526040812054620186a0811061347957603291506134b4565b61c350811061348b57602391506134b4565b612710811061349d57601491506134b4565b6103e881106134af57600a91506134b4565b600091505b600060646134c2848661584f565b6134cc9190615866565b90506000866001600160a01b03168260405160006040518083038185875af1925050503d806000811461351b576040519150601f19603f3d011682016040523d82523d6000602084013e613520565b606091505b5050905080613542576040516387df070960e01b815260040160405180910390fd5b50505050505050565b6040518281527ff8e1a15aba9398e019f0b49df1a4fde98ee17ae345cb5f6b5e2c27f5033e8ce79060200160405180910390a16007830154156135a1576040516398586ca160e01b815260040160405180910390fd5b6006830154600160601b900460ff16156135d15760405163128379f760e11b815260048101839052602401610d5b565b60006135e5846135e084615acc565b613d42565b90506135f18280615b6e565b85916135fe919083615bb4565b5061361161024083016102208401615c73565b60058501805460ff92909216620100000262ff00001990921691909117905561364261026083016102408401615c73565b60058501805460ff9290921663010000000263ff0000001990921691909117905561367561028083016102608401615c73565b60058501805460ff929092166401000000000264ff00000000199092169190911790556136aa61022083016102008401614bbb565b60058501805461ffff191661ffff9290921691909117905560e08201600485016136d48282615caa565b505060408201600285016136e88282615e37565b506136fd90506102a083016102808401615eed565b60068501805463ffffffff191663ffffffff9290921691909117905561372b610380830161036084016146bf565b600685018054911515600160681b0260ff60681b1990921691909117905561375b610320830161030084016146bf565b600685018054911515600160501b0260ff60501b199092169190911790819055600160581b900460ff16156137cb576006840180548291906008906137ac908490600160401b900461ffff16615f0a565b92506101000a81548161ffff021916908361ffff160217905550613891565b60068401805460ff60581b1961ffff8416600160401b02166bff00ffff00000000000000001990911617600160581b179055601554604080516318987be760e11b815290516001600160a01b0390921691633130f7ce916004808201926020929091908290030181865afa158015613847573d6000803e3d6000fd5b505050506040513d601f19601f8201168201806040525081019061386b9190615800565b60068501805461ffff929092166401000000000265ffff00000000199092169190911790555b610fc683613151565b600680546001600160a01b038381166001600160a01b0319831681179093556040519116919082907f8be0079c531659141344cd1fd0a4f28419497f9722a3daafe3b4186f6b6457e090600090a35050565b6001600160a01b03821661391e57604051630b61174360e31b81526001600160a01b0383166004820152602401610d5b565b6001600160a01b03838116600081815260056020908152604080832094871680845294825291829020805460ff191686151590811790915591519182527f17307eab39ab6107e8899845ad3d59bd9653f200f220920489ca2b5937696c31910160405180910390a3505050565b6001600160a01b0383163b15610f3a57604051630a85bd0160e11b81526001600160a01b0384169063150b7a02906139cd908890889087908790600401615f24565b6020604051808303816000875af1925050508015613a08575060408051601f3d908101601f19168201909252613a0591810190615f57565b60015b613a71573d808015613a36576040519150601f19603f3d011682016040523d82523d6000602084013e613a3b565b606091505b508051600003613a6957604051633250574960e11b81526001600160a01b0385166004820152602401610d5b565b805181602001fd5b6001600160e01b03198116630a85bd0160e11b14613aad57604051633250574960e11b81526001600160a01b0385166004820152602401610d5b565b505050505050565b8080613ac957506001600160a01b03821615155b15613b8b576000613ad984612ec6565b90506001600160a01b03831615801590613b055750826001600160a01b0316816001600160a01b031614155b8015613b185750613b1681846128fa565b155b15613b415760405163a9fbf51f60e01b81526001600160a01b0384166004820152602401610d5b565b8115613b895783856001600160a01b0316826001600160a01b03167f8c5be1e5ebec7d5bd14f71427d1e84f3dd0314c0f7b2291e5b200ac8c7c3b92560405160405180910390a45b505b5050600090815260046020526040902080546001600160a01b0319166001600160a01b0392909216919091179055565b600061320b838361401e565b600061320b8383614111565b6000828152600260205260408120546001600160a01b0390811690831615613c0057613c00818486614160565b6001600160a01b03811615613c3e57613c1d600085600080613ab5565b6001600160a01b038116600090815260036020526040902080546000190190555b6001600160a01b03851615613c6d576001600160a01b0385166000908152600360205260409020805460010190555b60008481526002602052604080822080546001600160a01b0319166001600160a01b0389811691821790925591518793918516917fddf252ad1be2c89b69c2b068fc378daa952ba7f163c4a11628f55a4df523b3ef91a4949350505050565b606081600001805480602002602001604051908101604052809291908181526020018280548015613d1c57602002820191906000526020600020905b815481526020019060010190808311613d08575b50505050509050919050565b610d158282604051806020016040528060008152506141c4565b60408101515160009081906007811115613d5e57613d5e6147d7565b600285015460ff166007811115613d7757613d776147d7565b14613d8a5780613d8681615f74565b9150505b8260400151602001516007811115613da457613da46147d7565b6002850154610100900460ff166007811115613dc257613dc26147d7565b14613dd55780613dd181615f74565b9150505b8260400151604001516007811115613def57613def6147d7565b600285015462010000900460ff166007811115613e0e57613e0e6147d7565b14613e215780613e1d81615f74565b9150505b8260400151606001516007811115613e3b57613e3b6147d7565b60028501546301000000900460ff166007811115613e5b57613e5b6147d7565b14613e6e5780613e6a81615f74565b9150505b6005840154606080850151015160009160ff620100009091048116911611613eb55760608481015101516005860154613eb0919062010000900460ff1661507a565b613ed5565b60058501546060858101510151613ed59162010000900460ff169061507a565b600586015460608601516080015191925060009160ff63010000009092048216911611613f23576060850151608001516005870154613f1e91906301000000900460ff1661507a565b613f45565b6005860154606086015160800151613f45916301000000900460ff169061507a565b6005870154606087015160a0015191925060009160ff6401000000009092048216911611613f9557606086015160a001516005880154613f909190640100000000900460ff1661507a565b613fb8565b6005870154606087015160a00151613fb891640100000000900460ff169061507a565b905080613fc5838561504e565b613fcf919061504e565b613fdc9060ff1685615f0a565b9350856080015160800151151587600601600001600a9054906101000a900460ff1615151461401357614010600385615f0a565b93505b509195945050505050565b60008181526001830160205260408120548015614107576000614042600183615067565b855490915060009061405690600190615067565b90508082146140bb57600086600001828154811061407657614076615025565b906000526020600020015490508087600001848154811061409957614099615025565b6000918252602080832090910192909255918252600188019052604090208390555b85548690806140cc576140cc615f8c565b600190038181906000526020600020016000905590558560010160008681526020019081526020016000206000905560019350505050610c49565b6000915050610c49565b600081815260018301602052604081205461415857508154600181810184556000848152602080822090930184905584548482528286019093526040902091909155610c49565b506000610c49565b61416b8383836141dc565b611537576001600160a01b03831661419957604051637e27328960e01b815260048101829052602401610d5b565b60405163177e802f60e01b81526001600160a01b038316600482015260248101829052604401610d5b565b6141ce8383614242565b61153733600085858561398b565b60006001600160a01b0383161580159061423a5750826001600160a01b0316846001600160a01b03161480614216575061421684846128fa565b8061423a57506000828152600460205260409020546001600160a01b038481169116145b949350505050565b6001600160a01b03821661426c57604051633250574960e11b815260006004820152602401610d5b565b600061427a83836000612f0c565b90506001600160a01b03811615611537576040516339e3563760e11b815260006004820152602401610d5b565b82805482825590600052602060002090601f016020900481019282156143405791602002820160005b8382111561431157833560ff1683826101000a81548160ff021916908360ff16021790555092602001926001016020816000010492830192600103026142d0565b801561433e5782816101000a81549060ff0219169055600101602081600001049283019260010302614311565b505b5061434c9291506144a9565b5090565b828054828255906000526020600020908101928215614340579160200282015b82811115614340578235825591602001919060010190614370565b6040518060c0016040528060608152602001600081526020016143cf6040805160808101909152806000815260200160008152602001600081526020016000905290565b81526020016144506040805160c0808201835260008083528351610120810185528181526020818101839052948101829052606081018290526080810182905260a0810182905291820181905260e0820181905261010082015290918201908152600060208201819052604082018190526060820181905260809091015290565b8152604080516101208101825260008082526020828101829052928201819052606082018190526080820181905260a0820181905260c0820181905260e082018190526101008201529101908152600060209091015290565b5b8082111561434c57600081556001016144aa565b6001600160a01b038116811461107a57600080fd5b80356144de816144be565b919050565b600080600080600080600080610100898b03121561450057600080fd5b883561450b816144be565b9750602089013561451b816144be565b9650604089013561452b816144be565b9550606089013561453b816144be565b9450608089013561454b816144be565b935060a089013561455b816144be565b925060c089013561456b816144be565b915060e089013561457b816144be565b809150509295985092959890939650565b6001600160e01b03198116811461107a57600080fd5b6000602082840312156145b457600080fd5b813561320b8161458c565b60005b838110156145da5781810151838201526020016145c2565b50506000910152565b600081518084526145fb8160208601602086016145bf565b601f01601f19169290920160200192915050565b60208152600061320b60208301846145e3565b60006020828403121561463457600080fd5b813561320b816144be565b60006020828403121561465157600080fd5b5035919050565b6000806040838503121561466b57600080fd5b8235614676816144be565b946020939093013593505050565b6000806040838503121561469757600080fd5b50508035926020909101359150565b801515811461107a57600080fd5b80356144de816146a6565b6000602082840312156146d157600080fd5b813561320b816146a6565b60008083601f8401126146ee57600080fd5b5081356001600160401b0381111561470557600080fd5b6020830191508360208260051b850101111561472057600080fd5b9250929050565b6000806000806040858703121561473d57600080fd5b84356001600160401b0381111561475357600080fd5b61475f878288016146dc565b90955093505060208501356001600160401b0381111561477e57600080fd5b61478a878288016146dc565b95989497509550505050565b6000806000606084860312156147ab57600080fd5b83356147b6816144be565b925060208401356147c6816144be565b929592945050506040919091013590565b634e487b7160e01b600052602160045260246000fd5b6008811061107a57634e487b7160e01b600052602160045260246000fd5b8051614816816147ed565b82526020810151614826816147ed565b60208301526040810151614839816147ed565b6040830152606081015161484c816147ed565b806060840152505050565b80518252602081015161ffff815116602084015260ff6020820151166040840152604081015161488c606085018260ff169052565b50606081015161ffff8116608085015250608081015160ff811660a08501525060a081015160ff811660c08501525060c081015161ffff811660e08501525060e081015160ff811661010085015250610100015160ff811661012084015250604081015161ffff811661014084015250606081015160ff811661016084015250608081015160ff81166101808401525060a0015160ff166101a09190910152565b63ffffffff815116825261ffff6020820151166020830152604081015161495a604084018261ffff169052565b506060810151614970606084018261ffff169052565b506080810151614984608084018215159052565b5060a081015161499860a084018215159052565b5060c08101516149ac60c084018215159052565b5060e08101516149c060e084018215159052565b5061010090810151910152565b600081516103c084526149e46103c08501826145e3565b9050602083015160208501526040830151614a02604086018261480b565b506060830151614a1560c0860182614857565b506080830151614a2961028086018261492d565b5060a092909201516001600160a01b03166103a09390930192909252919050565b60208152600061320b60208301846149cd565b60008060208385031215614a7057600080fd5b82356001600160401b03811115614a8657600080fd5b614a92858286016146dc565b90969095509350505050565b600081518084526020840193506020830160005b82811015614ad0578151865260209586019590910190600101614ab2565b5093949350505050565b6040808252835190820181905260009060208501906060840190835b81811015614b1757835160ff16835260209384019390920191600101614af6565b505083810360208501526130e28186614a9e565b6103c081526000614b406103c08301896145e3565b9050866020830152614b55604083018761480b565b614b6260c0830186614857565b614b7061028083018561492d565b6001600160a01b03929092166103a0919091015295945050505050565b60208152600061320b6020830184614a9e565b61ffff8116811461107a57600080fd5b80356144de81614ba0565b600060208284031215614bcd57600080fd5b813561320b81614ba0565b60ff8116811461107a57600080fd5b80356144de81614bd8565b60008060008060808587031215614c0857600080fd5b8435614c13816144be565b93506020850135614c2381614bd8565b92506040850135614c33816144be565b91506060850135614c4381614ba0565b939692955090935050565b60006103c08284031215614c6157600080fd5b50919050565b60008060408385031215614c7a57600080fd5b8235614c85816144be565b915060208301356001600160401b03811115614ca057600080fd5b614cac85828601614c4e565b9150509250929050565b60008060008060808587031215614ccc57600080fd5b8435614cd7816144be565b9350602085013592506040850135614cee81614ba0565b91506060850135614c4381614bd8565b60008060408385031215614d1157600080fd5b823591506020830135614d23816146a6565b809150509250929050565b60008060408385031215614d4157600080fd5b8235614d4c816144be565b91506020830135614d23816146a6565b634e487b7160e01b600052604160045260246000fd5b60405160c081016001600160401b0381118282101715614d9457614d94614d5c565b60405290565b60405161012081016001600160401b0381118282101715614d9457614d94614d5c565b604051608081016001600160401b0381118282101715614d9457614d94614d5c565b604051601f8201601f191681016001600160401b0381118282101715614e0757614e07614d5c565b604052919050565b60006001600160401b03821115614e2857614e28614d5c565b50601f01601f191660200190565b6000614e49614e4484614e0f565b614ddf565b9050828152838383011115614e5d57600080fd5b828260208301376000602084830101529392505050565b60008060008060808587031215614e8a57600080fd5b8435614e95816144be565b93506020850135614ea5816144be565b92506040850135915060608501356001600160401b03811115614ec757600080fd5b8501601f81018713614ed857600080fd5b614ee787823560208401614e36565b91505092959194509250565b60008060408385031215614f0657600080fd5b8235915060208301356001600160401b03811115614ca057600080fd5b60008060408385031215614f3657600080fd5b8235614f41816144be565b91506020830135614d23816144be565b6000602082016020835280845180835260408501915060408160051b86010192506020860160005b82811015614faa57603f19878603018452614f958583516149cd565b94506020938401939190910190600101614f79565b50929695505050505050565b600181811c90821680614fca57607f821691505b602082108103614c6157634e487b7160e01b600052602260045260246000fd5b634e487b7160e01b600052601160045260246000fd5b600063ffffffff821663ffffffff810361501c5761501c614fea565b60010192915050565b634e487b7160e01b600052603260045260246000fd5b80820180821115610c4957610c49614fea565b60ff8181168382160190811115610c4957610c49614fea565b81810381811115610c4957610c49614fea565b60ff8281168282160390811115610c4957610c49614fea565b805460ff81166150a2816147ed565b8352600881901c60ff166150b5816147ed565b6020840152601081901c60ff166150cb816147ed565b604084015260181c60ff1661484c816147ed565b805463ffffffff81168352602081811c61ffff1690840152603081901c61ffff166040840152604081901c61ffff1660608401526151276080840160ff8360501c1615159052565b61513b60a0840160ff8360581c1615159052565b61514f60c0840160ff8360601c1615159052565b61516360e0840160ff8360681c1615159052565b50600101546101009190910152565b6103c08252600080825461518581614fb6565b806103c087015260018216600081146151a557600181146151c3576151f9565b60ff1983166103e08801526103e082151560051b88010193506151f9565b85600052602060002060005b838110156151ef5781548982016103e001526001909101906020016151cf565b88016103e0019450505b505050600183015460208501526152166040850160028501615093565b600383015460c0850152600483015461ffff80821660e087015260ff601083811c8216610100890152601884811c83166101208a0152602085811c85166101408b0152603086901c84166101608b0152603886901c84166101808b0152604086901c85166101a08b0152605086901c84166101c08b015260589590951c83166101e08a015260058801549384166102008a01529083901c821661022089015282901c8116610240880152911c166102608501526152da6102808501600685016150df565b60088301546001600160a01b03166103a08501819052611f1e565b60208152600061320b6020830184615172565b600082601f83011261531957600080fd5b8151615327614e4482614e0f565b81815284602083860101111561533c57600080fd5b61423a8260208301602087016145bf565b60006020828403121561535f57600080fd5b81516001600160401b0381111561537557600080fd5b61423a84828501615308565b60006020828403121561539357600080fd5b81516001600160401b038116811461320b57600080fd5b6008811061107a57600080fd5b80516144de81614ba0565b80516144de81614bd8565b60008183036101c08112156153e157600080fd5b6153e9614d72565b835181529150610120601f198201121561540257600080fd5b5061540b614d9a565b615417602084016153b7565b8152615425604084016153c2565b6020820152615436606084016153c2565b6040820152615447608084016153b7565b606082015261545860a084016153c2565b608082015261546960c084016153c2565b60a082015261547a60e084016153b7565b60c082015261548c61010084016153c2565b60e082015261549e61012084016153c2565b61010082015260208201526154b661014083016153b7565b60408201526154c861016083016153c2565b60608201526154da61018083016153c2565b60808201526154ec6101a083016153c2565b60a082015292915050565b63ffffffff8116811461107a57600080fd5b80516144de816154f7565b80516144de816146a6565b6000610120828403121561553257600080fd5b61553a614d9a565b905061554582615509565b8152615553602083016153b7565b6020820152615564604083016153b7565b6040820152615575606083016153b7565b606082015261558660808301615514565b608082015261559760a08301615514565b60a08201526155a860c08301615514565b60c08201526155b960e08301615514565b60e08201526101009182015191810191909152919050565b80516144de816144be565b6000602082840312156155ee57600080fd5b81516001600160401b0381111561560457600080fd5b82018084036103c081121561561857600080fd5b615620614d72565b82516001600160401b0381111561563657600080fd5b61564287828601615308565b825250602083810151908201526080603f198301121561566157600080fd5b615669614dbd565b91506040830151615679816153aa565b82526060830151615689816153aa565b6020830152608083015161569c816153aa565b604083015260a08301516156af816153aa565b6060830152604081018290526156c88660c085016153cd565b60608201526156db86610280850161551f565b60808201526156ed6103a084016155d1565b60a082015295945050505050565b601f82111561153757806000526020600020601f840160051c810160208510156157225750805b601f840160051c820191505b81811015610f3a576000815560010161572e565b81516001600160401b0381111561575b5761575b614d5c565b61576f816157698454614fb6565b846156fb565b6020601f8211600181146157a3576000831561578b5750848201515b600019600385901b1c1916600184901b178455610f3a565b600084815260208120601f198516915b828110156157d357878501518255602094850194600190920191016157b3565b50848210156157f15786840151600019600387901b60f8161c191681555b50505050600190811b01905550565b60006020828403121561581257600080fd5b815161320b81614ba0565b60006001820161582f5761582f614fea565b5060010190565b60006020828403121561584857600080fd5b5051919050565b8082028115828204841417610c4957610c49614fea565b60008261588357634e487b7160e01b600052601260045260246000fd5b500490565b60006080828403121561589a57600080fd5b6158a2614dbd565b905081356158af816153aa565b815260208201356158bf816153aa565b602082015260408201356158d2816153aa565b604082015260608201356158e5816153aa565b606082015292915050565b60008183036101c081121561590457600080fd5b61590c614d72565b833581529150610120601f198201121561592557600080fd5b5061592e614d9a565b61593a60208401614bb0565b815261594860408401614be7565b602082015261595960608401614be7565b604082015261596a60808401614bb0565b606082015261597b60a08401614be7565b608082015261598c60c08401614be7565b60a082015261599d60e08401614bb0565b60c08201526159af6101008401614be7565b60e08201526159c16101208401614be7565b61010082015260208201526159d96101408301614bb0565b60408201526159eb6101608301614be7565b60608201526159fd6101808301614be7565b60808201526154ec6101a08301614be7565b80356144de816154f7565b60006101208284031215615a2d57600080fd5b615a35614d9a565b9050615a4082615a0f565b8152615a4e60208301614bb0565b6020820152615a5f60408301614bb0565b6040820152615a7060608301614bb0565b6060820152615a81608083016146b4565b6080820152615a9260a083016146b4565b60a0820152615aa360c083016146b4565b60c0820152615ab460e083016146b4565b60e08201526101009182013591810191909152919050565b60006103c08236031215615adf57600080fd5b615ae7614d72565b82356001600160401b03811115615afd57600080fd5b830136601f820112615b0e57600080fd5b615b1d36823560208401614e36565b82525060208381013590820152615b373660408501615888565b6040820152615b493660c085016158f0565b6060820152615b5c366102808501615a1a565b60808201526154ec6103a084016144d3565b6000808335601e19843603018112615b8557600080fd5b8301803591506001600160401b03821115615b9f57600080fd5b60200191503681900382131561472057600080fd5b6001600160401b03831115615bcb57615bcb614d5c565b615bdf83615bd98354614fb6565b836156fb565b6000601f841160018114615c135760008515615bfb5750838201355b600019600387901b1c1916600186901b178355610f3a565b600083815260209020601f19861690835b82811015615c445786850135825560209485019460019092019101615c24565b5086821015615c615760001960f88860031b161c19848701351681555b505060018560011b0183555050505050565b600060208284031215615c8557600080fd5b813561320b81614bd8565b60008135610c4981614ba0565b60008135610c4981614bd8565b8135615cb581614ba0565b61ffff811661ffff198354161782555060006020830135615cd581614bd8565b8254909150819062ff00001916601082901b62ff0000161783555050615d1a615d0060408401615c9d565b825463ff000000191660189190911b63ff00000016178255565b615d47615d2960608401615c90565b825465ffff00000000191660209190911b65ffff0000000016178255565b615d76615d5660808401615c9d565b825466ff000000000000191660309190911b66ff00000000000016178255565b615da7615d8560a08401615c9d565b825467ff00000000000000191660389190911b67ff0000000000000016178255565b615ddc615db660c08401615c90565b825469ffff0000000000000000191660409190911b69ffff000000000000000016178255565b615e09615deb60e08401615c9d565b82805460ff60501b191660509290921b60ff60501b16919091179055565b610d15615e196101008401615c9d565b82805460ff60581b191660589290921b60ff60581b16919091179055565b8135615e42816153aa565b615e4b816147ed565b815460ff821691508160ff1982161783556020840135615e6a816153aa565b615e73816147ed565b61ff008160081b168361ffff1984161717925050508082556040830135615e99816153aa565b615ea2816147ed565b62ff0000601082901b1662ff0000198316179150508082556060830135615ec8816153aa565b615ed1816147ed565b63ff000000601882901b1663ff00000019831617835550505050565b600060208284031215615eff57600080fd5b813561320b816154f7565b61ffff8181168382160190811115610c4957610c49614fea565b6001600160a01b03858116825284166020820152604081018390526080606082018190526000906130e2908301846145e3565b600060208284031215615f6957600080fd5b815161320b8161458c565b600061ffff821661ffff810361501c5761501c614fea565b634e487b7160e01b600052603160045260246000fdfe032bc66be43dbccb7487781d168eb7bda224628a3b2c3388bdf69b532a3a1611a2646970667358221220dfead8a0b648a46019e3128e3e3d4a43a7a411442a69fd5dae6877de8a9f6d7464736f6c634300081c0033",
  "linkReferences": {},
  "deployedLinkReferences": {}
}