{
  "_format": "hh-sol-artifact-1",
  "contractName": "GenerateNewShip",
  "sourceName": "contracts/GenerateNewShip.sol",
  "abi": [
    {
      "inputs": [
        {
          "internalType": "address",
          "name": "_shipNames",
          "type": "address"
        }
      ],
      "stateMutability": "nonpayable",
      "type": "constructor"
    },
    {
      "inputs": [
        {
          "internalType": "uint256",
          "name": "id",
          "type": "uint256"
        },
        {
          "internalType": "uint256",
          "name": "serialNumber",
          "type": "uint256"
        },
        {
          "internalType": "uint64",
          "name": "randomBase",
          "type": "uint64"
        },
        {
          "internalType": "uint16",
          "name": "numberOfVariants",
          "type": "uint16"
        }
      ],
      "name": "generateShip",
      "outputs": [
        {
          "components": [
            {
              "internalType": "string",
              "name": "name",
              "type": "string"
            },
            {
              "internalType": "uint256",
              "name": "id",
              "type": "uint256"
            },
            {
              "components": [
                {
                  "internalType": "enum MainWeapon",
                  "name": "mainWeapon",
                  "type": "uint8"
                },
                {
                  "internalType": "enum Armor",
                  "name": "armor",
                  "type": "uint8"
                },
                {
                  "internalType": "enum Shields",
                  "name": "shields",
                  "type": "uint8"
                },
                {
                  "internalType": "enum Special",
                  "name": "special",
                  "type": "uint8"
                }
              ],
              "internalType": "struct Equipment",
              "name": "equipment",
              "type": "tuple"
            },
            {
              "components": [
                {
                  "internalType": "uint256",
                  "name": "serialNumber",
                  "type": "uint256"
                },
                {
                  "components": [
                    {
                      "internalType": "uint8",
                      "name": "h1",
                      "type": "uint8"
                    },
                    {
                      "internalType": "uint8",
                      "name": "s1",
                      "type": "uint8"
                    },
                    {
                      "internalType": "uint8",
                      "name": "l1",
                      "type": "uint8"
                    },
                    {
                      "internalType": "uint8",
                      "name": "h2",
                      "type": "uint8"
                    },
                    {
                      "internalType": "uint8",
                      "name": "s2",
                      "type": "uint8"
                    },
                    {
                      "internalType": "uint8",
                      "name": "l2",
                      "type": "uint8"
                    }
                  ],
                  "internalType": "struct Colors",
                  "name": "colors",
                  "type": "tuple"
                },
                {
                  "internalType": "uint8",
                  "name": "variant",
                  "type": "uint8"
                },
                {
                  "internalType": "uint8",
                  "name": "accuracy",
                  "type": "uint8"
                },
                {
                  "internalType": "uint8",
                  "name": "hull",
                  "type": "uint8"
                },
                {
                  "internalType": "uint8",
                  "name": "speed",
                  "type": "uint8"
                }
              ],
              "internalType": "struct Traits",
              "name": "traits",
              "type": "tuple"
            },
            {
              "components": [
                {
                  "internalType": "uint32",
                  "name": "shipsDestroyed",
                  "type": "uint32"
                },
                {
                  "internalType": "uint16",
                  "name": "costsVersion",
                  "type": "uint16"
                },
                {
                  "internalType": "uint16",
                  "name": "cost",
                  "type": "uint16"
                },
                {
                  "internalType": "bool",
                  "name": "shiny",
                  "type": "bool"
                },
                {
                  "internalType": "bool",
                  "name": "constructed",
                  "type": "bool"
                },
                {
                  "internalType": "bool",
                  "name": "inFleet",
                  "type": "bool"
                },
                {
                  "internalType": "uint256",
                  "name": "timestampDestroyed",
                  "type": "uint256"
                }
              ],
              "internalType": "struct ShipData",
              "name": "shipData",
              "type": "tuple"
            },
            {
              "internalType": "address",
              "name": "owner",
              "type": "address"
            }
          ],
          "internalType": "struct Ship",
          "name": "",
          "type": "tuple"
        }
      ],
      "stateMutability": "view",
      "type": "function"
    },
    {
      "inputs": [
        {
          "internalType": "uint256",
          "name": "id",
          "type": "uint256"
        },
        {
          "internalType": "uint256",
          "name": "",
          "type": "uint256"
        },
        {
          "components": [
            {
              "internalType": "string",
              "name": "name",
              "type": "string"
            },
            {
              "internalType": "uint256",
              "name": "id",
              "type": "uint256"
            },
            {
              "components": [
                {
                  "internalType": "enum MainWeapon",
                  "name": "mainWeapon",
                  "type": "uint8"
                },
                {
                  "internalType": "enum Armor",
                  "name": "armor",
                  "type": "uint8"
                },
                {
                  "internalType": "enum Shields",
                  "name": "shields",
                  "type": "uint8"
                },
                {
                  "internalType": "enum Special",
                  "name": "special",
                  "type": "uint8"
                }
              ],
              "internalType": "struct Equipment",
              "name": "equipment",
              "type": "tuple"
            },
            {
              "components": [
                {
                  "internalType": "uint256",
                  "name": "serialNumber",
                  "type": "uint256"
                },
                {
                  "components": [
                    {
                      "internalType": "uint8",
                      "name": "h1",
                      "type": "uint8"
                    },
                    {
                      "internalType": "uint8",
                      "name": "s1",
                      "type": "uint8"
                    },
                    {
                      "internalType": "uint8",
                      "name": "l1",
                      "type": "uint8"
                    },
                    {
                      "internalType": "uint8",
                      "name": "h2",
                      "type": "uint8"
                    },
                    {
                      "internalType": "uint8",
                      "name": "s2",
                      "type": "uint8"
                    },
                    {
                      "internalType": "uint8",
                      "name": "l2",
                      "type": "uint8"
                    }
                  ],
                  "internalType": "struct Colors",
                  "name": "colors",
                  "type": "tuple"
                },
                {
                  "internalType": "uint8",
                  "name": "variant",
                  "type": "uint8"
                },
                {
                  "internalType": "uint8",
                  "name": "accuracy",
                  "type": "uint8"
                },
                {
                  "internalType": "uint8",
                  "name": "hull",
                  "type": "uint8"
                },
                {
                  "internalType": "uint8",
                  "name": "speed",
                  "type": "uint8"
                }
              ],
              "internalType": "struct Traits",
              "name": "traits",
              "type": "tuple"
            },
            {
              "components": [
                {
                  "internalType": "uint32",
                  "name": "shipsDestroyed",
                  "type": "uint32"
                },
                {
                  "internalType": "uint16",
                  "name": "costsVersion",
                  "type": "uint16"
                },
                {
                  "internalType": "uint16",
                  "name": "cost",
                  "type": "uint16"
                },
                {
                  "internalType": "bool",
                  "name": "shiny",
                  "type": "bool"
                },
                {
                  "internalType": "bool",
                  "name": "constructed",
                  "type": "bool"
                },
                {
                  "internalType": "bool",
                  "name": "inFleet",
                  "type": "bool"
                },
                {
                  "internalType": "uint256",
                  "name": "timestampDestroyed",
                  "type": "uint256"
                }
              ],
              "internalType": "struct ShipData",
              "name": "shipData",
              "type": "tuple"
            },
            {
              "internalType": "address",
              "name": "owner",
              "type": "address"
            }
          ],
          "internalType": "struct Ship",
          "name": "ship",
          "type": "tuple"
        }
      ],
      "name": "generateSpecificShip",
      "outputs": [
        {
          "components": [
            {
              "internalType": "string",
              "name": "name",
              "type": "string"
            },
            {
              "internalType": "uint256",
              "name": "id",
              "type": "uint256"
            },
            {
              "components": [
                {
                  "internalType": "enum MainWeapon",
                  "name": "mainWeapon",
                  "type": "uint8"
                },
                {
                  "internalType": "enum Armor",
                  "name": "armor",
                  "type": "uint8"
                },
                {
                  "internalType": "enum Shields",
                  "name": "shields",
                  "type": "uint8"
                },
                {
                  "internalType": "enum Special",
                  "name": "special",
                  "type": "uint8"
                }
              ],
              "internalType": "struct Equipment",
              "name": "equipment",
              "type": "tuple"
            },
            {
              "components": [
                {
                  "internalType": "uint256",
                  "name": "serialNumber",
                  "type": "uint256"
                },
                {
                  "components": [
                    {
                      "internalType": "uint8",
                      "name": "h1",
                      "type": "uint8"
                    },
                    {
                      "internalType": "uint8",
                      "name": "s1",
                      "type": "uint8"
                    },
                    {
                      "internalType": "uint8",
                      "name": "l1",
                      "type": "uint8"
                    },
                    {
                      "internalType": "uint8",
                      "name": "h2",
                      "type": "uint8"
                    },
                    {
                      "internalType": "uint8",
                      "name": "s2",
                      "type": "uint8"
                    },
                    {
                      "internalType": "uint8",
                      "name": "l2",
                      "type": "uint8"
                    }
                  ],
                  "internalType": "struct Colors",
                  "name": "colors",
                  "type": "tuple"
                },
                {
                  "internalType": "uint8",
                  "name": "variant",
                  "type": "uint8"
                },
                {
                  "internalType": "uint8",
                  "name": "accuracy",
                  "type": "uint8"
                },
                {
                  "internalType": "uint8",
                  "name": "hull",
                  "type": "uint8"
                },
                {
                  "internalType": "uint8",
                  "name": "speed",
                  "type": "uint8"
                }
              ],
              "internalType": "struct Traits",
              "name": "traits",
              "type": "tuple"
            },
            {
              "components": [
                {
                  "internalType": "uint32",
                  "name": "shipsDestroyed",
                  "type": "uint32"
                },
                {
                  "internalType": "uint16",
                  "name": "costsVersion",
                  "type": "uint16"
                },
                {
                  "internalType": "uint16",
                  "name": "cost",
                  "type": "uint16"
                },
                {
                  "internalType": "bool",
                  "name": "shiny",
                  "type": "bool"
                },
                {
                  "internalType": "bool",
                  "name": "constructed",
                  "type": "bool"
                },
                {
                  "internalType": "bool",
                  "name": "inFleet",
                  "type": "bool"
                },
                {
                  "internalType": "uint256",
                  "name": "timestampDestroyed",
                  "type": "uint256"
                }
              ],
              "internalType": "struct ShipData",
              "name": "shipData",
              "type": "tuple"
            },
            {
              "internalType": "address",
              "name": "owner",
              "type": "address"
            }
          ],
          "internalType": "struct Ship",
          "name": "",
          "type": "tuple"
        }
      ],
      "stateMutability": "pure",
      "type": "function"
    },
    {
      "inputs": [
        {
          "internalType": "uint256",
          "name": "_trait",
          "type": "uint256"
        }
      ],
      "name": "getTierOfTrait",
      "outputs": [
        {
          "internalType": "uint8",
          "name": "",
          "type": "uint8"
        }
      ],
      "stateMutability": "pure",
      "type": "function"
    },
    {
      "inputs": [],
      "name": "shipNames",
      "outputs": [
        {
          "internalType": "contract IOnchainRandomShipNames",
          "name": "",
          "type": "address"
        }
      ],
      "stateMutability": "view",
      "type": "function"
    }
  ],
  "bytecode": "0x60a0604052348015600f57600080fd5b5060405161128f38038061128f833981016040819052602c91603c565b6001600160a01b0316608052606a565b600060208284031215604d57600080fd5b81516001600160a01b0381168114606357600080fd5b9392505050565b60805161120461008b600039600081816080015261016a01526112046000f3fe608060405234801561001057600080fd5b506004361061004c5760003560e01c80636e0f7a4814610051578063a355a6da1461007b578063dd1a57a2146100ba578063e02f592a146100da575b600080fd5b61006461005f3660046109da565b6100ed565b60405160ff90911681526020015b60405180910390f35b6100a27f000000000000000000000000000000000000000000000000000000000000000081565b6040516001600160a01b039091168152602001610072565b6100cd6100c8366004610d1c565b61011e565b6040516100729190610fcd565b6100cd6100e836600461106c565b61013c565b6000603282101561010057506000919050565b605082101561011157506001919050565b506002919050565b919050565b6101266108e3565b5060208101929092525060608101516000905290565b6101446108e3565b61014c6108e3565b60208101869052606081015185905283610165816110d7565b9450507f00000000000000000000000000000000000000000000000000000000000000006001600160a01b031663549188c6856040516020016101a89190611104565b60408051808303601f1901815290829052805160209091012060e083901b6001600160e01b03191682526004820152602401600060405180830381865afa1580156101f7573d6000803e3d6000fd5b505050506040513d6000823e601f3d908101601f1916820160405261021f919081019061111c565b81528361022b816110d7565b945050610168846040516020016102429190611104565b6040516020818303038152906040528051906020012060001c6102659190611193565b60608201516020015160ff90911690528361027f816110d7565b9450506064846040516020016102959190611104565b6040516020818303038152906040528051906020012060001c6102b89190611193565b606082015160209081015160ff909216910152836102d5816110d7565b9450506064846040516020016102eb9190611104565b6040516020818303038152906040528051906020012060001c61030e9190611193565b60608201516020015160ff9091166040909101528361032c816110d7565b945050610168846040516020016103439190611104565b6040516020818303038152906040528051906020012060001c6103669190611193565b6060808301516020015160ff90921691015283610382816110d7565b9450506064846040516020016103989190611104565b6040516020818303038152906040528051906020012060001c6103bb9190611193565b60608201516020015160ff909116608090910152836103d9816110d7565b9450506064846040516020016103ef9190611104565b6040516020818303038152906040528051906020012060001c6104129190611193565b60608201516020015160ff90911660a09091015283610430816110d7565b94505061046c6064856040516020016104499190611104565b6040516020818303038152906040528051906020012060001c61005f9190611193565b60608083015160ff90921691015283610484816110d7565b94505061049d6064856040516020016104499190611104565b606082015160ff909116608090910152836104b7816110d7565b9450506104d06064856040516020016104499190611104565b606082015160ff90911660a090910152836104ea816110d7565b9450508261ffff16846040516020016105039190611104565b6040516020818303038152906040528051906020012060001c6105269190611193565b606082015160ff90911660409091015283610540816110d7565b9450506004846040516020016105569190611104565b6040516020818303038152906040528051906020012060001c6105799190611193565b600381111561058a5761058a610e59565b60408201519060038111156105a1576105a1610e59565b908160038111156105b4576105b4610e59565b905250836105c1816110d7565b94505060006002856040516020016105d99190611104565b6040516020818303038152906040528051906020012060001c6105fc9190611193565b15905084610609816110d7565b955050801561068e576004856040516020016106259190611104565b6040516020818303038152906040528051906020012060001c6106489190611193565b600381111561065957610659610e59565b826040015160200190600381111561067357610673610e59565b9081600381111561068657610686610e59565b905250610706565b6004856040516020016106a19190611104565b6040516020818303038152906040528051906020012060001c6106c49190611193565b60038111156106d5576106d5610e59565b82604001516040019060038111156106ef576106ef610e59565b9081600381111561070257610702610e59565b9052505b84610710816110d7565b9550506004856040516020016107269190611104565b6040516020818303038152906040528051906020012060001c6107499190611193565b600381111561075a5761075a610e59565b826040015160600190600381111561077457610774610e59565b9081600381111561078757610787610e59565b8152505060006064866040516020016107a09190611104565b6040516020818303038152906040528051906020012060001c6107c39190611193565b9050600881116107db57608083015160016060909101525b856107e5816110d7565b96505060006064876040516020016107fd9190611104565b6040516020818303038152906040528051906020012060001c6108209190611193565b9050604b81101561085457610836600582611193565b6108419060016111b5565b608085015161ffff9190911690526108d6565b605a81101561087357610868600582611193565b6108419060066111b5565b605f81101561089257610887602882611193565b61084190600b6111b5565b60638110156108b1576108a6603282611193565b6108419060336111b5565b6108bc603282611193565b6108c79060656111b5565b608085015161ffff9190911690525b5091979650505050505050565b6040518060c0016040528060608152602001600081526020016109276040805160808101909152806000815260200160008152602001600081526020016000905290565b81526020016109916040805160c080820183526000808352835191820184528082526020828101829052938201819052606082018190526080820181905260a082015290918201908152600060208201819052604082018190526060820181905260809091015290565b81526040805160e08101825260008082526020828101829052928201819052606082018190526080820181905260a0820181905260c08201529101908152600060209091015290565b6000602082840312156109ec57600080fd5b5035919050565b634e487b7160e01b600052604160045260246000fd5b60405160c0810167ffffffffffffffff81118282101715610a2c57610a2c6109f3565b60405290565b60405160e0810167ffffffffffffffff81118282101715610a2c57610a2c6109f3565b604051601f8201601f1916810167ffffffffffffffff81118282101715610a7e57610a7e6109f3565b604052919050565b600067ffffffffffffffff821115610aa057610aa06109f3565b50601f01601f191660200190565b60048110610abb57600080fd5b50565b600060808284031215610ad057600080fd5b6040516080810167ffffffffffffffff81118282101715610af357610af36109f3565b6040529050808235610b0481610aae565b81526020830135610b1481610aae565b60208201526040830135610b2781610aae565b60408201526060830135610b3a81610aae565b6060919091015292915050565b803560ff8116811461011957600080fd5b6000818303610160811215610b6c57600080fd5b610b74610a09565b83358152915060c0601f1982011215610b8c57600080fd5b50610b95610a09565b610ba160208401610b47565b8152610baf60408401610b47565b6020820152610bc060608401610b47565b6040820152610bd160808401610b47565b6060820152610be260a08401610b47565b6080820152610bf360c08401610b47565b60a08201526020820152610c0960e08301610b47565b6040820152610c1b6101008301610b47565b6060820152610c2d6101208301610b47565b6080820152610c3f6101408301610b47565b60a082015292915050565b803561ffff8116811461011957600080fd5b8035801515811461011957600080fd5b600060e08284031215610c7e57600080fd5b610c86610a32565b9050813563ffffffff81168114610c9c57600080fd5b8152610caa60208301610c4a565b6020820152610cbb60408301610c4a565b6040820152610ccc60608301610c5c565b6060820152610cdd60808301610c5c565b6080820152610cee60a08301610c5c565b60a082015260c09182013591810191909152919050565b80356001600160a01b038116811461011957600080fd5b600080600060608486031215610d3157600080fd5b8335925060208401359150604084013567ffffffffffffffff811115610d5657600080fd5b84016103208187031215610d6957600080fd5b610d71610a09565b813567ffffffffffffffff811115610d8857600080fd5b8201601f81018813610d9957600080fd5b8035610dac610da782610a86565b610a55565b818152896020838501011115610dc157600080fd5b81602084016020830137600060209282018301528352838101359083015250610ded8760408401610abe565b6040820152610dff8760c08401610b58565b6060820152610e12876102208401610c6c565b6080820152610e246103008301610d05565b60a082015280925050509250925092565b60005b83811015610e50578181015183820152602001610e38565b50506000910152565b634e487b7160e01b600052602160045260246000fd5b60048110610abb57634e487b7160e01b600052602160045260246000fd5b8051610e9881610e6f565b82526020810151610ea881610e6f565b60208301526040810151610ebb81610e6f565b60408301526060810151610ece81610e6f565b806060840152505050565b80518252602081015160ff815116602084015260ff602082015116604084015260ff604082015116606084015260ff606082015116608084015260ff60808201511660a084015260ff60a08201511660c0840152506040810151610f4260e084018260ff169052565b50606081015160ff9081166101008401526080820151811661012084015260a0909101511661014090910152565b63ffffffff815116825261ffff602082015116602083015261ffff604082015116604083015260608101511515606083015260808101511515608083015260a0810151610fc160a084018215159052565b5060c090810151910152565b60208152600082516103206020840152805180610340850152610ff881610360860160208501610e35565b60208501516040850152604085015191506110166060850183610e8d565b6060850151915061102a60e0850183610ed9565b6080850151915061103f610240850183610f70565b60a08501516001600160a01b0381166103208601529150601f01601f191692909201610360019392505050565b6000806000806080858703121561108257600080fd5b8435935060208501359250604085013567ffffffffffffffff811681146110a857600080fd5b91506110b660608601610c4a565b905092959194509250565b634e487b7160e01b600052601160045260246000fd5b600067ffffffffffffffff821667ffffffffffffffff81036110fb576110fb6110c1565b60010192915050565b60c09190911b6001600160c01b031916815260080190565b60006020828403121561112e57600080fd5b815167ffffffffffffffff81111561114557600080fd5b8201601f8101841361115657600080fd5b8051611164610da782610a86565b81815285602083850101111561117957600080fd5b61118a826020830160208601610e35565b95945050505050565b6000826111b057634e487b7160e01b600052601260045260246000fd5b500690565b808201808211156111c8576111c86110c1565b9291505056fea2646970667358221220b40ecd06069424ce4ec46e3acd2cf419e31f91ef4d2c37f57a12d30fc324b52364736f6c634300081c0033",
  "linkReferences": {},
  "deployedLinkReferences": {}
}