{
  "_format": "hh-sol-artifact-1",
  "contractName": "RenderAft",
  "sourceName": "contracts/Renderers/RenderAft.sol",
  "abi": [
    {
      "inputs": [
        {
          "internalType": "address[]",
          "name": "renderers",
          "type": "address[]"
        }
      ],
      "stateMutability": "nonpayable",
      "type": "constructor"
    },
    {
      "inputs": [
        {
          "components": [
            {
              "internalType": "string",
              "name": "name",
              "type": "string"
            },
            {
              "internalType": "uint256",
              "name": "id",
              "type": "uint256"
            },
            {
              "components": [
                {
                  "internalType": "enum MainWeapon",
                  "name": "mainWeapon",
                  "type": "uint8"
                },
                {
                  "internalType": "enum Armor",
                  "name": "armor",
                  "type": "uint8"
                },
                {
                  "internalType": "enum Shields",
                  "name": "shields",
                  "type": "uint8"
                },
                {
                  "internalType": "enum Special",
                  "name": "special",
                  "type": "uint8"
                }
              ],
              "internalType": "struct Equipment",
              "name": "equipment",
              "type": "tuple"
            },
            {
              "components": [
                {
                  "internalType": "uint256",
                  "name": "serialNumber",
                  "type": "uint256"
                },
                {
                  "internalType": "uint8",
                  "name": "r1",
                  "type": "uint8"
                },
                {
                  "internalType": "uint8",
                  "name": "g1",
                  "type": "uint8"
                },
                {
                  "internalType": "uint8",
                  "name": "b1",
                  "type": "uint8"
                },
                {
                  "internalType": "uint8",
                  "name": "r2",
                  "type": "uint8"
                },
                {
                  "internalType": "uint8",
                  "name": "g2",
                  "type": "uint8"
                },
                {
                  "internalType": "uint8",
                  "name": "b2",
                  "type": "uint8"
                },
                {
                  "internalType": "uint8",
                  "name": "variant",
                  "type": "uint8"
                },
                {
                  "internalType": "uint8",
                  "name": "accuracy",
                  "type": "uint8"
                },
                {
                  "internalType": "uint8",
                  "name": "hull",
                  "type": "uint8"
                },
                {
                  "internalType": "uint8",
                  "name": "speed",
                  "type": "uint8"
                }
              ],
              "internalType": "struct Traits",
              "name": "traits",
              "type": "tuple"
            },
            {
              "components": [
                {
                  "internalType": "uint256",
                  "name": "gameId",
                  "type": "uint256"
                },
                {
                  "components": [
                    {
                      "internalType": "uint8",
                      "name": "version",
                      "type": "uint8"
                    },
                    {
                      "internalType": "uint8",
                      "name": "range",
                      "type": "uint8"
                    },
                    {
                      "internalType": "uint8",
                      "name": "gunDamage",
                      "type": "uint8"
                    },
                    {
                      "internalType": "uint8",
                      "name": "hullPoints",
                      "type": "uint8"
                    },
                    {
                      "internalType": "uint8",
                      "name": "movement",
                      "type": "uint8"
                    },
                    {
                      "internalType": "uint8[]",
                      "name": "statusEffects",
                      "type": "uint8[]"
                    }
                  ],
                  "internalType": "struct Attributes",
                  "name": "attributes",
                  "type": "tuple"
                },
                {
                  "internalType": "uint8",
                  "name": "damageTaken",
                  "type": "uint8"
                },
                {
                  "internalType": "bool",
                  "name": "inLobby",
                  "type": "bool"
                },
                {
                  "internalType": "bool",
                  "name": "movedThisTurn",
                  "type": "bool"
                },
                {
                  "internalType": "bool",
                  "name": "firedThisTurn",
                  "type": "bool"
                }
              ],
              "internalType": "struct GameData",
              "name": "gameData",
              "type": "tuple"
            },
            {
              "internalType": "uint32",
              "name": "shipsDestroyed",
              "type": "uint32"
            },
            {
              "internalType": "uint16",
              "name": "costsVersion",
              "type": "uint16"
            },
            {
              "internalType": "uint16",
              "name": "cost",
              "type": "uint16"
            },
            {
              "internalType": "bool",
              "name": "shiny",
              "type": "bool"
            },
            {
              "internalType": "bool",
              "name": "constructed",
              "type": "bool"
            },
            {
              "internalType": "uint256",
              "name": "timestampDestroyed",
              "type": "uint256"
            },
            {
              "internalType": "address",
              "name": "owner",
              "type": "address"
            }
          ],
          "internalType": "struct Ship",
          "name": "ship",
          "type": "tuple"
        }
      ],
      "name": "render",
      "outputs": [
        {
          "internalType": "string",
          "name": "",
          "type": "string"
        }
      ],
      "stateMutability": "view",
      "type": "function"
    },
    {
      "inputs": [],
      "name": "renderAft0",
      "outputs": [
        {
          "internalType": "contract IReturnSVG",
          "name": "",
          "type": "address"
        }
      ],
      "stateMutability": "view",
      "type": "function"
    },
    {
      "inputs": [],
      "name": "renderAft1",
      "outputs": [
        {
          "internalType": "contract IReturnSVG",
          "name": "",
          "type": "address"
        }
      ],
      "stateMutability": "view",
      "type": "function"
    },
    {
      "inputs": [],
      "name": "renderAft2",
      "outputs": [
        {
          "internalType": "contract IReturnSVG",
          "name": "",
          "type": "address"
        }
      ],
      "stateMutability": "view",
      "type": "function"
    }
  ],
  "bytecode": "0x60e060405234801561001057600080fd5b50604051610bd6380380610bd683398101604081905261002f9161015a565b80516003146100905760405162461bcd60e51b8152602060048201526024808201527f496e76616c69642072656e64657265727320617272617920696e2052656e64656044820152631c90599d60e21b606482015260840160405180910390fd5b806000815181106100a3576100a3610229565b60200260200101516001600160a01b03166080816001600160a01b031681525050806001815181106100d7576100d7610229565b60200260200101516001600160a01b031660a0816001600160a01b0316815250508060028151811061010b5761010b610229565b60209081029190910101516001600160a01b031660c0525061023f565b634e487b7160e01b600052604160045260246000fd5b80516001600160a01b038116811461015557600080fd5b919050565b60006020828403121561016c57600080fd5b81516001600160401b0381111561018257600080fd5b8201601f8101841361019357600080fd5b80516001600160401b038111156101ac576101ac610128565b604051600582901b90603f8201601f191681016001600160401b03811182821017156101da576101da610128565b6040529182526020818401810192908101878411156101f857600080fd5b6020850194505b8385101561021e576102108561013e565b8152602094850194016101ff565b509695505050505050565b634e487b7160e01b600052603260045260246000fd5b60805160a05160c051610956610280600039600081816056015261021901526000818160c101526101bb015260008181609a015261011b01526109566000f3fe608060405234801561001057600080fd5b506004361061004c5760003560e01c806325aa499614610051578063504d74321461009557806357283e27146100bc5780636610b059146100e3575b600080fd5b6100787f000000000000000000000000000000000000000000000000000000000000000081565b6040516001600160a01b0390911681526020015b60405180910390f35b6100787f000000000000000000000000000000000000000000000000000000000000000081565b6100787f000000000000000000000000000000000000000000000000000000000000000081565b6100f66100f136600461070e565b610103565b60405161008c9190610877565b60608160600151610140015160ff166000036101a5577f00000000000000000000000000000000000000000000000000000000000000006001600160a01b031663d607497a6040518163ffffffff1660e01b8152600401600060405180830381865afa158015610177573d6000803e3d6000fd5b505050506040513d6000823e601f3d908101601f1916820160405261019f91908101906108aa565b92915050565b8160600151610140015160ff16600103610217577f00000000000000000000000000000000000000000000000000000000000000006001600160a01b031663d607497a6040518163ffffffff1660e01b8152600401600060405180830381865afa158015610177573d6000803e3d6000fd5b7f00000000000000000000000000000000000000000000000000000000000000006001600160a01b031663d607497a6040518163ffffffff1660e01b8152600401600060405180830381865afa158015610177573d6000803e3d6000fd5b919050565b634e487b7160e01b600052604160045260246000fd5b60405161016081016001600160401b03811182821017156102b3576102b361027a565b60405290565b60405160c081016001600160401b03811182821017156102b3576102b361027a565b60405161018081016001600160401b03811182821017156102b3576102b361027a565b604051601f8201601f191681016001600160401b03811182821017156103265761032661027a565b604052919050565b60006001600160401b038211156103475761034761027a565b50601f01601f191660200190565b600082601f83011261036657600080fd5b81356103796103748261032e565b6102fe565b81815284602083860101111561038e57600080fd5b816020850160208301376000918101602001919091529392505050565b600481106103b857600080fd5b50565b6000608082840312156103cd57600080fd5b604051608081016001600160401b03811182821017156103ef576103ef61027a565b6040529050808235610400816103ab565b81526020830135610410816103ab565b60208201526040830135610423816103ab565b60408201526060830135610436816103ab565b6060919091015292915050565b803560ff8116811461027557600080fd5b6000610160828403121561046757600080fd5b61046f610290565b82358152905061048160208301610443565b602082015261049260408301610443565b60408201526104a360608301610443565b60608201526104b460808301610443565b60808201526104c560a08301610443565b60a08201526104d660c08301610443565b60c08201526104e760e08301610443565b60e08201526104f96101008301610443565b61010082015261050c6101208301610443565b61012082015261051f6101408301610443565b61014082015292915050565b8035801515811461027557600080fd5b600060c0828403121561054d57600080fd5b6105556102b9565b82358152905060208201356001600160401b0381111561057457600080fd5b820160c0818503121561058657600080fd5b61058e6102b9565b61059782610443565b81526105a560208301610443565b60208201526105b660408301610443565b60408201526105c760608301610443565b60608201526105d860808301610443565b608082015260a08201356001600160401b038111156105f657600080fd5b80830192505084601f83011261060b57600080fd5b81356001600160401b038111156106245761062461027a565b8060051b610634602082016102fe565b9182526020818501810192908101908884111561065057600080fd5b6020860195505b838610156106795761066886610443565b825260209586019590910190610657565b60a085015250505060208301525061069360408301610443565b60408201526106a46060830161052b565b60608201526106b56080830161052b565b60808201526106c660a0830161052b565b60a082015292915050565b803563ffffffff8116811461027557600080fd5b803561ffff8116811461027557600080fd5b80356001600160a01b038116811461027557600080fd5b60006020828403121561072057600080fd5b81356001600160401b0381111561073657600080fd5b8201610320818503121561074957600080fd5b6107516102db565b81356001600160401b0381111561076757600080fd5b61077386828501610355565b8252506020828101359082015261078d85604084016103bb565b604082015261079f8560c08401610454565b60608201526102208201356001600160401b038111156107be57600080fd5b6107ca8682850161053b565b6080830152506107dd61024083016106d1565b60a08201526107ef61026083016106e5565b60c082015261080161028083016106e5565b60e08201526108136102a0830161052b565b6101008201526108266102c0830161052b565b6101208201526102e082013561014082015261084561030083016106f7565b610160820152949350505050565b60005b8381101561086e578181015183820152602001610856565b50506000910152565b6020815260008251806020840152610896816040850160208701610853565b601f01601f19169190910160400192915050565b6000602082840312156108bc57600080fd5b81516001600160401b038111156108d257600080fd5b8201601f810184136108e357600080fd5b80516108f16103748261032e565b81815285602083850101111561090657600080fd5b610917826020830160208601610853565b9594505050505056fea2646970667358221220d74731b3e2d5b0ec2ea3b09aa30810980f5db1c5c04457e863068de432d5709864736f6c634300081c0033",
  "linkReferences": {},
  "deployedLinkReferences": {}
}