{
  "_format": "hh-sol-artifact-1",
  "contractName": "Ships",
  "sourceName": "contracts/Ships.sol",
  "abi": [
    {
      "inputs": [
        {
          "internalType": "address",
          "name": "_renderer",
          "type": "address"
        }
      ],
      "stateMutability": "nonpayable",
      "type": "constructor"
    },
    {
      "inputs": [],
      "name": "ArrayLengthMismatch",
      "type": "error"
    },
    {
      "inputs": [
        {
          "internalType": "address",
          "name": "sender",
          "type": "address"
        },
        {
          "internalType": "uint256",
          "name": "tokenId",
          "type": "uint256"
        },
        {
          "internalType": "address",
          "name": "owner",
          "type": "address"
        }
      ],
      "name": "ERC721IncorrectOwner",
      "type": "error"
    },
    {
      "inputs": [
        {
          "internalType": "address",
          "name": "operator",
          "type": "address"
        },
        {
          "internalType": "uint256",
          "name": "tokenId",
          "type": "uint256"
        }
      ],
      "name": "ERC721InsufficientApproval",
      "type": "error"
    },
    {
      "inputs": [
        {
          "internalType": "address",
          "name": "approver",
          "type": "address"
        }
      ],
      "name": "ERC721InvalidApprover",
      "type": "error"
    },
    {
      "inputs": [
        {
          "internalType": "address",
          "name": "operator",
          "type": "address"
        }
      ],
      "name": "ERC721InvalidOperator",
      "type": "error"
    },
    {
      "inputs": [
        {
          "internalType": "address",
          "name": "owner",
          "type": "address"
        }
      ],
      "name": "ERC721InvalidOwner",
      "type": "error"
    },
    {
      "inputs": [
        {
          "internalType": "address",
          "name": "receiver",
          "type": "address"
        }
      ],
      "name": "ERC721InvalidReceiver",
      "type": "error"
    },
    {
      "inputs": [
        {
          "internalType": "address",
          "name": "sender",
          "type": "address"
        }
      ],
      "name": "ERC721InvalidSender",
      "type": "error"
    },
    {
      "inputs": [
        {
          "internalType": "uint256",
          "name": "tokenId",
          "type": "uint256"
        }
      ],
      "name": "ERC721NonexistentToken",
      "type": "error"
    },
    {
      "inputs": [],
      "name": "InvalidId",
      "type": "error"
    },
    {
      "inputs": [
        {
          "internalType": "uint256",
          "name": "_tier",
          "type": "uint256"
        },
        {
          "internalType": "uint256",
          "name": "_amount",
          "type": "uint256"
        }
      ],
      "name": "InvalidPurchase",
      "type": "error"
    },
    {
      "inputs": [],
      "name": "InvalidReferral",
      "type": "error"
    },
    {
      "inputs": [],
      "name": "InvalidRenderer",
      "type": "error"
    },
    {
      "inputs": [],
      "name": "MintPaused",
      "type": "error"
    },
    {
      "inputs": [
        {
          "internalType": "address",
          "name": "",
          "type": "address"
        }
      ],
      "name": "NotAllowedToTransfer",
      "type": "error"
    },
    {
      "inputs": [
        {
          "internalType": "address",
          "name": "",
          "type": "address"
        }
      ],
      "name": "NotAuthorized",
      "type": "error"
    },
    {
      "inputs": [
        {
          "internalType": "uint256",
          "name": "",
          "type": "uint256"
        }
      ],
      "name": "NotYourShip",
      "type": "error"
    },
    {
      "inputs": [],
      "name": "OldShipCost",
      "type": "error"
    },
    {
      "inputs": [
        {
          "internalType": "address",
          "name": "owner",
          "type": "address"
        }
      ],
      "name": "OwnableInvalidOwner",
      "type": "error"
    },
    {
      "inputs": [
        {
          "internalType": "address",
          "name": "account",
          "type": "address"
        }
      ],
      "name": "OwnableUnauthorizedAccount",
      "type": "error"
    },
    {
      "inputs": [],
      "name": "ReentrancyGuardReentrantCall",
      "type": "error"
    },
    {
      "inputs": [
        {
          "internalType": "uint256",
          "name": "",
          "type": "uint256"
        }
      ],
      "name": "ShipAlreadyDestroyed",
      "type": "error"
    },
    {
      "inputs": [
        {
          "internalType": "uint256",
          "name": "",
          "type": "uint256"
        }
      ],
      "name": "ShipConstructed",
      "type": "error"
    },
    {
      "inputs": [],
      "name": "ShipDestroyed",
      "type": "error"
    },
    {
      "inputs": [
        {
          "internalType": "uint256",
          "name": "",
          "type": "uint256"
        }
      ],
      "name": "ShipInFleet",
      "type": "error"
    },
    {
      "inputs": [],
      "name": "ShipInGame",
      "type": "error"
    },
    {
      "inputs": [],
      "name": "ShipInLobby",
      "type": "error"
    },
    {
      "anonymous": false,
      "inputs": [
        {
          "indexed": true,
          "internalType": "address",
          "name": "owner",
          "type": "address"
        },
        {
          "indexed": true,
          "internalType": "address",
          "name": "approved",
          "type": "address"
        },
        {
          "indexed": true,
          "internalType": "uint256",
          "name": "tokenId",
          "type": "uint256"
        }
      ],
      "name": "Approval",
      "type": "event"
    },
    {
      "anonymous": false,
      "inputs": [
        {
          "indexed": true,
          "internalType": "address",
          "name": "owner",
          "type": "address"
        },
        {
          "indexed": true,
          "internalType": "address",
          "name": "operator",
          "type": "address"
        },
        {
          "indexed": false,
          "internalType": "bool",
          "name": "approved",
          "type": "bool"
        }
      ],
      "name": "ApprovalForAll",
      "type": "event"
    },
    {
      "anonymous": false,
      "inputs": [
        {
          "indexed": false,
          "internalType": "uint256",
          "name": "_tokenId",
          "type": "uint256"
        }
      ],
      "name": "MetadataUpdate",
      "type": "event"
    },
    {
      "anonymous": false,
      "inputs": [
        {
          "indexed": true,
          "internalType": "address",
          "name": "previousOwner",
          "type": "address"
        },
        {
          "indexed": true,
          "internalType": "address",
          "name": "newOwner",
          "type": "address"
        }
      ],
      "name": "OwnershipTransferred",
      "type": "event"
    },
    {
      "anonymous": false,
      "inputs": [
        {
          "indexed": true,
          "internalType": "address",
          "name": "from",
          "type": "address"
        },
        {
          "indexed": true,
          "internalType": "address",
          "name": "to",
          "type": "address"
        },
        {
          "indexed": true,
          "internalType": "uint256",
          "name": "tokenId",
          "type": "uint256"
        }
      ],
      "name": "Transfer",
      "type": "event"
    },
    {
      "inputs": [
        {
          "internalType": "address",
          "name": "",
          "type": "address"
        }
      ],
      "name": "allowedToTransfer",
      "outputs": [
        {
          "internalType": "bool",
          "name": "",
          "type": "bool"
        }
      ],
      "stateMutability": "view",
      "type": "function"
    },
    {
      "inputs": [
        {
          "internalType": "address",
          "name": "to",
          "type": "address"
        },
        {
          "internalType": "uint256",
          "name": "tokenId",
          "type": "uint256"
        }
      ],
      "name": "approve",
      "outputs": [],
      "stateMutability": "nonpayable",
      "type": "function"
    },
    {
      "inputs": [
        {
          "internalType": "address",
          "name": "owner",
          "type": "address"
        }
      ],
      "name": "balanceOf",
      "outputs": [
        {
          "internalType": "uint256",
          "name": "",
          "type": "uint256"
        }
      ],
      "stateMutability": "view",
      "type": "function"
    },
    {
      "inputs": [],
      "name": "config",
      "outputs": [
        {
          "internalType": "address",
          "name": "gameAddress",
          "type": "address"
        },
        {
          "internalType": "address",
          "name": "lobbyAddress",
          "type": "address"
        },
        {
          "internalType": "contract IRenderMetadata",
          "name": "metadataRenderer",
          "type": "address"
        },
        {
          "internalType": "contract IRandomManager",
          "name": "randomManager",
          "type": "address"
        },
        {
          "internalType": "contract IGenerateNewShip",
          "name": "shipGenerator",
          "type": "address"
        }
      ],
      "stateMutability": "view",
      "type": "function"
    },
    {
      "inputs": [],
      "name": "constructAllMyShips",
      "outputs": [],
      "stateMutability": "nonpayable",
      "type": "function"
    },
    {
      "inputs": [
        {
          "internalType": "uint256",
          "name": "_id",
          "type": "uint256"
        }
      ],
      "name": "constructShip",
      "outputs": [],
      "stateMutability": "nonpayable",
      "type": "function"
    },
    {
      "inputs": [
        {
          "internalType": "uint256[]",
          "name": "_ids",
          "type": "uint256[]"
        }
      ],
      "name": "constructShips",
      "outputs": [],
      "stateMutability": "nonpayable",
      "type": "function"
    },
    {
      "inputs": [
        {
          "internalType": "uint256",
          "name": "_id",
          "type": "uint256"
        },
        {
          "components": [
            {
              "internalType": "string",
              "name": "name",
              "type": "string"
            },
            {
              "internalType": "uint256",
              "name": "id",
              "type": "uint256"
            },
            {
              "components": [
                {
                  "internalType": "enum MainWeapon",
                  "name": "mainWeapon",
                  "type": "uint8"
                },
                {
                  "internalType": "enum Armor",
                  "name": "armor",
                  "type": "uint8"
                },
                {
                  "internalType": "enum Shields",
                  "name": "shields",
                  "type": "uint8"
                },
                {
                  "internalType": "enum Special",
                  "name": "special",
                  "type": "uint8"
                }
              ],
              "internalType": "struct Equipment",
              "name": "equipment",
              "type": "tuple"
            },
            {
              "components": [
                {
                  "internalType": "uint256",
                  "name": "serialNumber",
                  "type": "uint256"
                },
                {
                  "components": [
                    {
                      "internalType": "uint16",
                      "name": "h1",
                      "type": "uint16"
                    },
                    {
                      "internalType": "uint8",
                      "name": "s1",
                      "type": "uint8"
                    },
                    {
                      "internalType": "uint8",
                      "name": "l1",
                      "type": "uint8"
                    },
                    {
                      "internalType": "uint16",
                      "name": "h2",
                      "type": "uint16"
                    },
                    {
                      "internalType": "uint8",
                      "name": "s2",
                      "type": "uint8"
                    },
                    {
                      "internalType": "uint8",
                      "name": "l2",
                      "type": "uint8"
                    }
                  ],
                  "internalType": "struct Colors",
                  "name": "colors",
                  "type": "tuple"
                },
                {
                  "internalType": "uint8",
                  "name": "variant",
                  "type": "uint8"
                },
                {
                  "internalType": "uint8",
                  "name": "accuracy",
                  "type": "uint8"
                },
                {
                  "internalType": "uint8",
                  "name": "hull",
                  "type": "uint8"
                },
                {
                  "internalType": "uint8",
                  "name": "speed",
                  "type": "uint8"
                }
              ],
              "internalType": "struct Traits",
              "name": "traits",
              "type": "tuple"
            },
            {
              "components": [
                {
                  "internalType": "uint32",
                  "name": "shipsDestroyed",
                  "type": "uint32"
                },
                {
                  "internalType": "uint16",
                  "name": "costsVersion",
                  "type": "uint16"
                },
                {
                  "internalType": "uint16",
                  "name": "cost",
                  "type": "uint16"
                },
                {
                  "internalType": "bool",
                  "name": "shiny",
                  "type": "bool"
                },
                {
                  "internalType": "bool",
                  "name": "constructed",
                  "type": "bool"
                },
                {
                  "internalType": "bool",
                  "name": "inFleet",
                  "type": "bool"
                },
                {
                  "internalType": "uint256",
                  "name": "timestampDestroyed",
                  "type": "uint256"
                }
              ],
              "internalType": "struct ShipData",
              "name": "shipData",
              "type": "tuple"
            },
            {
              "internalType": "address",
              "name": "owner",
              "type": "address"
            }
          ],
          "internalType": "struct Ship",
          "name": "_ship",
          "type": "tuple"
        }
      ],
      "name": "constructSpecificShip",
      "outputs": [],
      "stateMutability": "nonpayable",
      "type": "function"
    },
    {
      "inputs": [],
      "name": "costs",
      "outputs": [
        {
          "internalType": "uint16",
          "name": "version",
          "type": "uint16"
        },
        {
          "internalType": "uint8",
          "name": "baseCost",
          "type": "uint8"
        }
      ],
      "stateMutability": "view",
      "type": "function"
    },
    {
      "inputs": [],
      "name": "costsVersion",
      "outputs": [
        {
          "internalType": "uint256",
          "name": "",
          "type": "uint256"
        }
      ],
      "stateMutability": "view",
      "type": "function"
    },
    {
      "inputs": [
        {
          "internalType": "uint256",
          "name": "num",
          "type": "uint256"
        }
      ],
      "name": "countDigits",
      "outputs": [
        {
          "internalType": "uint256",
          "name": "",
          "type": "uint256"
        }
      ],
      "stateMutability": "pure",
      "type": "function"
    },
    {
      "inputs": [
        {
          "internalType": "address",
          "name": "_to",
          "type": "address"
        },
        {
          "internalType": "uint256",
          "name": "_amount",
          "type": "uint256"
        }
      ],
      "name": "createShips",
      "outputs": [],
      "stateMutability": "nonpayable",
      "type": "function"
    },
    {
      "inputs": [
        {
          "internalType": "uint256",
          "name": "tokenId",
          "type": "uint256"
        }
      ],
      "name": "getApproved",
      "outputs": [
        {
          "internalType": "address",
          "name": "",
          "type": "address"
        }
      ],
      "stateMutability": "view",
      "type": "function"
    },
    {
      "inputs": [],
      "name": "getCosts",
      "outputs": [
        {
          "internalType": "uint256",
          "name": "",
          "type": "uint256"
        },
        {
          "components": [
            {
              "internalType": "uint16",
              "name": "version",
              "type": "uint16"
            },
            {
              "internalType": "uint8",
              "name": "baseCost",
              "type": "uint8"
            },
            {
              "internalType": "uint8[]",
              "name": "accuracy",
              "type": "uint8[]"
            },
            {
              "internalType": "uint8[]",
              "name": "hull",
              "type": "uint8[]"
            },
            {
              "internalType": "uint8[]",
              "name": "speed",
              "type": "uint8[]"
            },
            {
              "internalType": "uint8[]",
              "name": "mainWeapon",
              "type": "uint8[]"
            },
            {
              "internalType": "uint8[]",
              "name": "armor",
              "type": "uint8[]"
            },
            {
              "internalType": "uint8[]",
              "name": "shields",
              "type": "uint8[]"
            },
            {
              "internalType": "uint8[]",
              "name": "special",
              "type": "uint8[]"
            }
          ],
          "internalType": "struct Costs",
          "name": "",
          "type": "tuple"
        }
      ],
      "stateMutability": "view",
      "type": "function"
    },
    {
      "inputs": [],
      "name": "getPurchaseInfo",
      "outputs": [
        {
          "internalType": "uint8[]",
          "name": "_purchaseTiers",
          "type": "uint8[]"
        },
        {
          "internalType": "uint8[]",
          "name": "_tierShips",
          "type": "uint8[]"
        },
        {
          "internalType": "uint256[]",
          "name": "_tierPrices",
          "type": "uint256[]"
        }
      ],
      "stateMutability": "view",
      "type": "function"
    },
    {
      "inputs": [
        {
          "internalType": "uint256",
          "name": "_shipsDestroyed",
          "type": "uint256"
        }
      ],
      "name": "getRank",
      "outputs": [
        {
          "internalType": "uint8",
          "name": "",
          "type": "uint8"
        }
      ],
      "stateMutability": "pure",
      "type": "function"
    },
    {
      "inputs": [
        {
          "internalType": "uint256",
          "name": "_id",
          "type": "uint256"
        }
      ],
      "name": "getShip",
      "outputs": [
        {
          "components": [
            {
              "internalType": "string",
              "name": "name",
              "type": "string"
            },
            {
              "internalType": "uint256",
              "name": "id",
              "type": "uint256"
            },
            {
              "components": [
                {
                  "internalType": "enum MainWeapon",
                  "name": "mainWeapon",
                  "type": "uint8"
                },
                {
                  "internalType": "enum Armor",
                  "name": "armor",
                  "type": "uint8"
                },
                {
                  "internalType": "enum Shields",
                  "name": "shields",
                  "type": "uint8"
                },
                {
                  "internalType": "enum Special",
                  "name": "special",
                  "type": "uint8"
                }
              ],
              "internalType": "struct Equipment",
              "name": "equipment",
              "type": "tuple"
            },
            {
              "components": [
                {
                  "internalType": "uint256",
                  "name": "serialNumber",
                  "type": "uint256"
                },
                {
                  "components": [
                    {
                      "internalType": "uint16",
                      "name": "h1",
                      "type": "uint16"
                    },
                    {
                      "internalType": "uint8",
                      "name": "s1",
                      "type": "uint8"
                    },
                    {
                      "internalType": "uint8",
                      "name": "l1",
                      "type": "uint8"
                    },
                    {
                      "internalType": "uint16",
                      "name": "h2",
                      "type": "uint16"
                    },
                    {
                      "internalType": "uint8",
                      "name": "s2",
                      "type": "uint8"
                    },
                    {
                      "internalType": "uint8",
                      "name": "l2",
                      "type": "uint8"
                    }
                  ],
                  "internalType": "struct Colors",
                  "name": "colors",
                  "type": "tuple"
                },
                {
                  "internalType": "uint8",
                  "name": "variant",
                  "type": "uint8"
                },
                {
                  "internalType": "uint8",
                  "name": "accuracy",
                  "type": "uint8"
                },
                {
                  "internalType": "uint8",
                  "name": "hull",
                  "type": "uint8"
                },
                {
                  "internalType": "uint8",
                  "name": "speed",
                  "type": "uint8"
                }
              ],
              "internalType": "struct Traits",
              "name": "traits",
              "type": "tuple"
            },
            {
              "components": [
                {
                  "internalType": "uint32",
                  "name": "shipsDestroyed",
                  "type": "uint32"
                },
                {
                  "internalType": "uint16",
                  "name": "costsVersion",
                  "type": "uint16"
                },
                {
                  "internalType": "uint16",
                  "name": "cost",
                  "type": "uint16"
                },
                {
                  "internalType": "bool",
                  "name": "shiny",
                  "type": "bool"
                },
                {
                  "internalType": "bool",
                  "name": "constructed",
                  "type": "bool"
                },
                {
                  "internalType": "bool",
                  "name": "inFleet",
                  "type": "bool"
                },
                {
                  "internalType": "uint256",
                  "name": "timestampDestroyed",
                  "type": "uint256"
                }
              ],
              "internalType": "struct ShipData",
              "name": "shipData",
              "type": "tuple"
            },
            {
              "internalType": "address",
              "name": "owner",
              "type": "address"
            }
          ],
          "internalType": "struct Ship",
          "name": "",
          "type": "tuple"
        }
      ],
      "stateMutability": "view",
      "type": "function"
    },
    {
      "inputs": [
        {
          "internalType": "address",
          "name": "_owner",
          "type": "address"
        }
      ],
      "name": "getShipIdsOwned",
      "outputs": [
        {
          "internalType": "uint256[]",
          "name": "",
          "type": "uint256[]"
        }
      ],
      "stateMutability": "view",
      "type": "function"
    },
    {
      "inputs": [
        {
          "internalType": "uint256[]",
          "name": "_ids",
          "type": "uint256[]"
        }
      ],
      "name": "getShipsByIds",
      "outputs": [
        {
          "components": [
            {
              "internalType": "string",
              "name": "name",
              "type": "string"
            },
            {
              "internalType": "uint256",
              "name": "id",
              "type": "uint256"
            },
            {
              "components": [
                {
                  "internalType": "enum MainWeapon",
                  "name": "mainWeapon",
                  "type": "uint8"
                },
                {
                  "internalType": "enum Armor",
                  "name": "armor",
                  "type": "uint8"
                },
                {
                  "internalType": "enum Shields",
                  "name": "shields",
                  "type": "uint8"
                },
                {
                  "internalType": "enum Special",
                  "name": "special",
                  "type": "uint8"
                }
              ],
              "internalType": "struct Equipment",
              "name": "equipment",
              "type": "tuple"
            },
            {
              "components": [
                {
                  "internalType": "uint256",
                  "name": "serialNumber",
                  "type": "uint256"
                },
                {
                  "components": [
                    {
                      "internalType": "uint16",
                      "name": "h1",
                      "type": "uint16"
                    },
                    {
                      "internalType": "uint8",
                      "name": "s1",
                      "type": "uint8"
                    },
                    {
                      "internalType": "uint8",
                      "name": "l1",
                      "type": "uint8"
                    },
                    {
                      "internalType": "uint16",
                      "name": "h2",
                      "type": "uint16"
                    },
                    {
                      "internalType": "uint8",
                      "name": "s2",
                      "type": "uint8"
                    },
                    {
                      "internalType": "uint8",
                      "name": "l2",
                      "type": "uint8"
                    }
                  ],
                  "internalType": "struct Colors",
                  "name": "colors",
                  "type": "tuple"
                },
                {
                  "internalType": "uint8",
                  "name": "variant",
                  "type": "uint8"
                },
                {
                  "internalType": "uint8",
                  "name": "accuracy",
                  "type": "uint8"
                },
                {
                  "internalType": "uint8",
                  "name": "hull",
                  "type": "uint8"
                },
                {
                  "internalType": "uint8",
                  "name": "speed",
                  "type": "uint8"
                }
              ],
              "internalType": "struct Traits",
              "name": "traits",
              "type": "tuple"
            },
            {
              "components": [
                {
                  "internalType": "uint32",
                  "name": "shipsDestroyed",
                  "type": "uint32"
                },
                {
                  "internalType": "uint16",
                  "name": "costsVersion",
                  "type": "uint16"
                },
                {
                  "internalType": "uint16",
                  "name": "cost",
                  "type": "uint16"
                },
                {
                  "internalType": "bool",
                  "name": "shiny",
                  "type": "bool"
                },
                {
                  "internalType": "bool",
                  "name": "constructed",
                  "type": "bool"
                },
                {
                  "internalType": "bool",
                  "name": "inFleet",
                  "type": "bool"
                },
                {
                  "internalType": "uint256",
                  "name": "timestampDestroyed",
                  "type": "uint256"
                }
              ],
              "internalType": "struct ShipData",
              "name": "shipData",
              "type": "tuple"
            },
            {
              "internalType": "address",
              "name": "owner",
              "type": "address"
            }
          ],
          "internalType": "struct Ship[]",
          "name": "",
          "type": "tuple[]"
        }
      ],
      "stateMutability": "view",
      "type": "function"
    },
    {
      "inputs": [
        {
          "internalType": "uint256",
          "name": "_trait",
          "type": "uint256"
        }
      ],
      "name": "getTierOfTrait",
      "outputs": [
        {
          "internalType": "uint8",
          "name": "",
          "type": "uint8"
        }
      ],
      "stateMutability": "pure",
      "type": "function"
    },
    {
      "inputs": [
        {
          "internalType": "address",
          "name": "",
          "type": "address"
        }
      ],
      "name": "isAllowedToCreateShips",
      "outputs": [
        {
          "internalType": "bool",
          "name": "",
          "type": "bool"
        }
      ],
      "stateMutability": "view",
      "type": "function"
    },
    {
      "inputs": [
        {
          "internalType": "address",
          "name": "owner",
          "type": "address"
        },
        {
          "internalType": "address",
          "name": "operator",
          "type": "address"
        }
      ],
      "name": "isApprovedForAll",
      "outputs": [
        {
          "internalType": "bool",
          "name": "",
          "type": "bool"
        }
      ],
      "stateMutability": "view",
      "type": "function"
    },
    {
      "inputs": [],
      "name": "name",
      "outputs": [
        {
          "internalType": "string",
          "name": "",
          "type": "string"
        }
      ],
      "stateMutability": "view",
      "type": "function"
    },
    {
      "inputs": [
        {
          "internalType": "address",
          "name": "",
          "type": "address"
        }
      ],
      "name": "onboardingStep",
      "outputs": [
        {
          "internalType": "uint256",
          "name": "",
          "type": "uint256"
        }
      ],
      "stateMutability": "view",
      "type": "function"
    },
    {
      "inputs": [],
      "name": "owner",
      "outputs": [
        {
          "internalType": "address",
          "name": "",
          "type": "address"
        }
      ],
      "stateMutability": "view",
      "type": "function"
    },
    {
      "inputs": [
        {
          "internalType": "uint256",
          "name": "tokenId",
          "type": "uint256"
        }
      ],
      "name": "ownerOf",
      "outputs": [
        {
          "internalType": "address",
          "name": "",
          "type": "address"
        }
      ],
      "stateMutability": "view",
      "type": "function"
    },
    {
      "inputs": [],
      "name": "paused",
      "outputs": [
        {
          "internalType": "bool",
          "name": "",
          "type": "bool"
        }
      ],
      "stateMutability": "view",
      "type": "function"
    },
    {
      "inputs": [
        {
          "internalType": "uint256",
          "name": "",
          "type": "uint256"
        }
      ],
      "name": "purchaseTiers",
      "outputs": [
        {
          "internalType": "uint8",
          "name": "",
          "type": "uint8"
        }
      ],
      "stateMutability": "view",
      "type": "function"
    },
    {
      "inputs": [
        {
          "internalType": "address",
          "name": "_to",
          "type": "address"
        },
        {
          "internalType": "uint256",
          "name": "_tier",
          "type": "uint256"
        },
        {
          "internalType": "address",
          "name": "_referral",
          "type": "address"
        }
      ],
      "name": "purchaseWithFlow",
      "outputs": [],
      "stateMutability": "payable",
      "type": "function"
    },
    {
      "inputs": [],
      "name": "recycleReward",
      "outputs": [
        {
          "internalType": "uint256",
          "name": "",
          "type": "uint256"
        }
      ],
      "stateMutability": "view",
      "type": "function"
    },
    {
      "inputs": [
        {
          "internalType": "address",
          "name": "",
          "type": "address"
        }
      ],
      "name": "referralCount",
      "outputs": [
        {
          "internalType": "uint256",
          "name": "",
          "type": "uint256"
        }
      ],
      "stateMutability": "view",
      "type": "function"
    },
    {
      "inputs": [
        {
          "internalType": "uint256",
          "name": "",
          "type": "uint256"
        }
      ],
      "name": "referralPercentages",
      "outputs": [
        {
          "internalType": "uint8",
          "name": "",
          "type": "uint8"
        }
      ],
      "stateMutability": "view",
      "type": "function"
    },
    {
      "inputs": [
        {
          "internalType": "uint256",
          "name": "",
          "type": "uint256"
        }
      ],
      "name": "referralStages",
      "outputs": [
        {
          "internalType": "uint32",
          "name": "",
          "type": "uint32"
        }
      ],
      "stateMutability": "view",
      "type": "function"
    },
    {
      "inputs": [],
      "name": "renounceOwnership",
      "outputs": [],
      "stateMutability": "nonpayable",
      "type": "function"
    },
    {
      "inputs": [
        {
          "internalType": "address",
          "name": "from",
          "type": "address"
        },
        {
          "internalType": "address",
          "name": "to",
          "type": "address"
        },
        {
          "internalType": "uint256",
          "name": "tokenId",
          "type": "uint256"
        }
      ],
      "name": "safeTransferFrom",
      "outputs": [],
      "stateMutability": "nonpayable",
      "type": "function"
    },
    {
      "inputs": [
        {
          "internalType": "address",
          "name": "from",
          "type": "address"
        },
        {
          "internalType": "address",
          "name": "to",
          "type": "address"
        },
        {
          "internalType": "uint256",
          "name": "tokenId",
          "type": "uint256"
        },
        {
          "internalType": "bytes",
          "name": "data",
          "type": "bytes"
        }
      ],
      "name": "safeTransferFrom",
      "outputs": [],
      "stateMutability": "nonpayable",
      "type": "function"
    },
    {
      "inputs": [
        {
          "internalType": "address",
          "name": "operator",
          "type": "address"
        },
        {
          "internalType": "bool",
          "name": "approved",
          "type": "bool"
        }
      ],
      "name": "setApprovalForAll",
      "outputs": [],
      "stateMutability": "nonpayable",
      "type": "function"
    },
    {
      "inputs": [
        {
          "internalType": "address",
          "name": "_gameAddress",
          "type": "address"
        },
        {
          "internalType": "address",
          "name": "_lobbyAddress",
          "type": "address"
        },
        {
          "internalType": "address",
          "name": "_shipGenerator",
          "type": "address"
        },
        {
          "internalType": "address",
          "name": "_randomManager",
          "type": "address"
        },
        {
          "internalType": "address",
          "name": "_metadataRenderer",
          "type": "address"
        }
      ],
      "name": "setConfig",
      "outputs": [],
      "stateMutability": "nonpayable",
      "type": "function"
    },
    {
      "inputs": [
        {
          "internalType": "uint256",
          "name": "_id",
          "type": "uint256"
        }
      ],
      "name": "setCostOfShip",
      "outputs": [],
      "stateMutability": "nonpayable",
      "type": "function"
    },
    {
      "inputs": [
        {
          "components": [
            {
              "internalType": "uint16",
              "name": "version",
              "type": "uint16"
            },
            {
              "internalType": "uint8",
              "name": "baseCost",
              "type": "uint8"
            },
            {
              "internalType": "uint8[]",
              "name": "accuracy",
              "type": "uint8[]"
            },
            {
              "internalType": "uint8[]",
              "name": "hull",
              "type": "uint8[]"
            },
            {
              "internalType": "uint8[]",
              "name": "speed",
              "type": "uint8[]"
            },
            {
              "internalType": "uint8[]",
              "name": "mainWeapon",
              "type": "uint8[]"
            },
            {
              "internalType": "uint8[]",
              "name": "armor",
              "type": "uint8[]"
            },
            {
              "internalType": "uint8[]",
              "name": "shields",
              "type": "uint8[]"
            },
            {
              "internalType": "uint8[]",
              "name": "special",
              "type": "uint8[]"
            }
          ],
          "internalType": "struct Costs",
          "name": "_costs",
          "type": "tuple"
        }
      ],
      "name": "setCosts",
      "outputs": [],
      "stateMutability": "nonpayable",
      "type": "function"
    },
    {
      "inputs": [
        {
          "internalType": "uint256",
          "name": "_id",
          "type": "uint256"
        },
        {
          "internalType": "bool",
          "name": "_inFleet",
          "type": "bool"
        }
      ],
      "name": "setInFleet",
      "outputs": [],
      "stateMutability": "nonpayable",
      "type": "function"
    },
    {
      "inputs": [
        {
          "internalType": "address",
          "name": "_address",
          "type": "address"
        },
        {
          "internalType": "bool",
          "name": "_isAllowed",
          "type": "bool"
        }
      ],
      "name": "setIsAllowedToCreateShips",
      "outputs": [],
      "stateMutability": "nonpayable",
      "type": "function"
    },
    {
      "inputs": [
        {
          "internalType": "uint8",
          "name": "_numberOfVariants",
          "type": "uint8"
        }
      ],
      "name": "setNumberOfVariants",
      "outputs": [],
      "stateMutability": "nonpayable",
      "type": "function"
    },
    {
      "inputs": [
        {
          "internalType": "bool",
          "name": "_paused",
          "type": "bool"
        }
      ],
      "name": "setPaused",
      "outputs": [],
      "stateMutability": "nonpayable",
      "type": "function"
    },
    {
      "inputs": [
        {
          "internalType": "uint8[]",
          "name": "_purchaseTiers",
          "type": "uint8[]"
        },
        {
          "internalType": "uint8[]",
          "name": "_tierShips",
          "type": "uint8[]"
        },
        {
          "internalType": "uint256[]",
          "name": "_tierPrices",
          "type": "uint256[]"
        }
      ],
      "name": "setPurchaseInfo",
      "outputs": [],
      "stateMutability": "nonpayable",
      "type": "function"
    },
    {
      "inputs": [
        {
          "internalType": "uint256",
          "name": "_newReward",
          "type": "uint256"
        }
      ],
      "name": "setRecycleReward",
      "outputs": [],
      "stateMutability": "nonpayable",
      "type": "function"
    },
    {
      "inputs": [
        {
          "internalType": "uint256",
          "name": "_id",
          "type": "uint256"
        }
      ],
      "name": "setTimestampDestroyed",
      "outputs": [],
      "stateMutability": "nonpayable",
      "type": "function"
    },
    {
      "inputs": [
        {
          "internalType": "address",
          "name": "_universalCredits",
          "type": "address"
        }
      ],
      "name": "setUniversalCredits",
      "outputs": [],
      "stateMutability": "nonpayable",
      "type": "function"
    },
    {
      "inputs": [
        {
          "internalType": "uint256[]",
          "name": "_shipIds",
          "type": "uint256[]"
        }
      ],
      "name": "shipBreaker",
      "outputs": [],
      "stateMutability": "nonpayable",
      "type": "function"
    },
    {
      "inputs": [],
      "name": "shipCount",
      "outputs": [
        {
          "internalType": "uint256",
          "name": "",
          "type": "uint256"
        }
      ],
      "stateMutability": "view",
      "type": "function"
    },
    {
      "inputs": [
        {
          "internalType": "uint256",
          "name": "",
          "type": "uint256"
        }
      ],
      "name": "ships",
      "outputs": [
        {
          "internalType": "string",
          "name": "name",
          "type": "string"
        },
        {
          "internalType": "uint256",
          "name": "id",
          "type": "uint256"
        },
        {
          "components": [
            {
              "internalType": "enum MainWeapon",
              "name": "mainWeapon",
              "type": "uint8"
            },
            {
              "internalType": "enum Armor",
              "name": "armor",
              "type": "uint8"
            },
            {
              "internalType": "enum Shields",
              "name": "shields",
              "type": "uint8"
            },
            {
              "internalType": "enum Special",
              "name": "special",
              "type": "uint8"
            }
          ],
          "internalType": "struct Equipment",
          "name": "equipment",
          "type": "tuple"
        },
        {
          "components": [
            {
              "internalType": "uint256",
              "name": "serialNumber",
              "type": "uint256"
            },
            {
              "components": [
                {
                  "internalType": "uint16",
                  "name": "h1",
                  "type": "uint16"
                },
                {
                  "internalType": "uint8",
                  "name": "s1",
                  "type": "uint8"
                },
                {
                  "internalType": "uint8",
                  "name": "l1",
                  "type": "uint8"
                },
                {
                  "internalType": "uint16",
                  "name": "h2",
                  "type": "uint16"
                },
                {
                  "internalType": "uint8",
                  "name": "s2",
                  "type": "uint8"
                },
                {
                  "internalType": "uint8",
                  "name": "l2",
                  "type": "uint8"
                }
              ],
              "internalType": "struct Colors",
              "name": "colors",
              "type": "tuple"
            },
            {
              "internalType": "uint8",
              "name": "variant",
              "type": "uint8"
            },
            {
              "internalType": "uint8",
              "name": "accuracy",
              "type": "uint8"
            },
            {
              "internalType": "uint8",
              "name": "hull",
              "type": "uint8"
            },
            {
              "internalType": "uint8",
              "name": "speed",
              "type": "uint8"
            }
          ],
          "internalType": "struct Traits",
          "name": "traits",
          "type": "tuple"
        },
        {
          "components": [
            {
              "internalType": "uint32",
              "name": "shipsDestroyed",
              "type": "uint32"
            },
            {
              "internalType": "uint16",
              "name": "costsVersion",
              "type": "uint16"
            },
            {
              "internalType": "uint16",
              "name": "cost",
              "type": "uint16"
            },
            {
              "internalType": "bool",
              "name": "shiny",
              "type": "bool"
            },
            {
              "internalType": "bool",
              "name": "constructed",
              "type": "bool"
            },
            {
              "internalType": "bool",
              "name": "inFleet",
              "type": "bool"
            },
            {
              "internalType": "uint256",
              "name": "timestampDestroyed",
              "type": "uint256"
            }
          ],
          "internalType": "struct ShipData",
          "name": "shipData",
          "type": "tuple"
        },
        {
          "internalType": "address",
          "name": "owner",
          "type": "address"
        }
      ],
      "stateMutability": "view",
      "type": "function"
    },
    {
      "inputs": [
        {
          "internalType": "bytes4",
          "name": "interfaceId",
          "type": "bytes4"
        }
      ],
      "name": "supportsInterface",
      "outputs": [
        {
          "internalType": "bool",
          "name": "",
          "type": "bool"
        }
      ],
      "stateMutability": "view",
      "type": "function"
    },
    {
      "inputs": [],
      "name": "symbol",
      "outputs": [
        {
          "internalType": "string",
          "name": "",
          "type": "string"
        }
      ],
      "stateMutability": "view",
      "type": "function"
    },
    {
      "inputs": [
        {
          "internalType": "uint256",
          "name": "",
          "type": "uint256"
        }
      ],
      "name": "tierPrices",
      "outputs": [
        {
          "internalType": "uint256",
          "name": "",
          "type": "uint256"
        }
      ],
      "stateMutability": "view",
      "type": "function"
    },
    {
      "inputs": [
        {
          "internalType": "uint256",
          "name": "",
          "type": "uint256"
        }
      ],
      "name": "tierShips",
      "outputs": [
        {
          "internalType": "uint8",
          "name": "",
          "type": "uint8"
        }
      ],
      "stateMutability": "view",
      "type": "function"
    },
    {
      "inputs": [
        {
          "internalType": "uint256",
          "name": "_id",
          "type": "uint256"
        }
      ],
      "name": "tokenURI",
      "outputs": [
        {
          "internalType": "string",
          "name": "",
          "type": "string"
        }
      ],
      "stateMutability": "view",
      "type": "function"
    },
    {
      "inputs": [
        {
          "internalType": "address",
          "name": "from",
          "type": "address"
        },
        {
          "internalType": "address",
          "name": "to",
          "type": "address"
        },
        {
          "internalType": "uint256",
          "name": "tokenId",
          "type": "uint256"
        }
      ],
      "name": "transferFrom",
      "outputs": [],
      "stateMutability": "nonpayable",
      "type": "function"
    },
    {
      "inputs": [
        {
          "internalType": "address",
          "name": "newOwner",
          "type": "address"
        }
      ],
      "name": "transferOwnership",
      "outputs": [],
      "stateMutability": "nonpayable",
      "type": "function"
    },
    {
      "inputs": [],
      "name": "universalCredits",
      "outputs": [
        {
          "internalType": "contract IUniversalCredits",
          "name": "",
          "type": "address"
        }
      ],
      "stateMutability": "view",
      "type": "function"
    },
    {
      "inputs": [],
      "name": "withdraw",
      "outputs": [],
      "stateMutability": "nonpayable",
      "type": "function"
    }
  ],
  "bytecode": "0x61012060405260006080908152600a60a052601460c052602360e05260326101005261002f90600e906005610406565b506040805160a081018252606481526103e860208201526127109181019190915261c3506060820152620186a0608082015261006f90600f9060056104ac565b506021805462ffff00191661010017905567016345785d8a000060245534801561009857600080fd5b5060405161621d38038061621d8339810160408190526100b7916105a3565b336040518060400160405280600e81526020016d57617270666c6f7720536869707360901b815250604051806040016040528060048152602001630534849560e41b815250816000908161010b9190610672565b5060016101188282610672565b5050506001600160a01b03811661014957604051631e4fbdf760e01b81526000600482015260240160405180910390fd5b610152816103b4565b506001600755601280546001600160a01b0319166001600160a01b0383161790556018805462ffffff1916623200011790556040805160608101825260008152600a602082015260199181018290526101ad91906003610406565b506040805160608101825260008152600a60208201526019918101919091526101da90601a906003610406565b506040805160608101825260008152600a602082015260199181019190915261020790601b906003610406565b506040805160808101825260198152601e60208201526028918101829052606081019190915261023b90601c906004610406565b50604080516080810182526000815260056020820152600a91810191909152600f606082015261026f90601d906004610406565b506040805160808101825260008152600a6020820152601491810191909152601e606082018190526102a2916004610406565b506040805160808101825260008152600a6020820152601491810191909152600f60608201526102d690601f906004610406565b506040805160a08101825260018152600260208201526003918101919091526004606082015260056080820181905261031191601591610406565b506040805160a0810182526005808252600b6020830152601c92820192909252603c6060820152607d608082015261034c9160169190610406565b506040805160a0810182526745400a8fd53300008152678aa39c121a270000602082015268015ace5098e9030000918101919091526802b5c0282441c70000606082015268056ba3d73af34f000060808201526103ad906017906005610548565b5050610730565b600680546001600160a01b038381166001600160a01b0319831681179093556040519116919082907f8be0079c531659141344cd1fd0a4f28419497f9722a3daafe3b4186f6b6457e090600090a35050565b82805482825590600052602060002090601f0160209004810192821561049c5791602002820160005b8382111561046d57835183826101000a81548160ff021916908360ff160217905550926020019260010160208160000104928301926001030261042f565b801561049a5782816101000a81549060ff021916905560010160208160000104928301926001030261046d565b505b506104a892915061058e565b5090565b8280548282559060005260206000209060070160089004810192821561049c5791602002820160005b8382111561051857835183826101000a81548163ffffffff021916908362ffffff16021790555092602001926004016020816003010492830192600103026104d5565b801561049a5782816101000a81549063ffffffff0219169055600401602081600301049283019260010302610518565b82805482825590600052602060002090810192821561049c579160200282015b8281111561049c57825182906001600160481b0316905591602001919060010190610568565b5b808211156104a8576000815560010161058f565b6000602082840312156105b557600080fd5b81516001600160a01b03811681146105cc57600080fd5b9392505050565b634e487b7160e01b600052604160045260246000fd5b600181811c908216806105fd57607f821691505b60208210810361061d57634e487b7160e01b600052602260045260246000fd5b50919050565b601f82111561066d57806000526020600020601f840160051c8101602085101561064a5750805b601f840160051c820191505b8181101561066a5760008155600101610656565b50505b505050565b81516001600160401b0381111561068b5761068b6105d3565b61069f8161069984546105e9565b84610623565b6020601f8211600181146106d357600083156106bb5750848201515b600019600385901b1c1916600184901b17845561066a565b600084815260208120601f198516915b8281101561070357878501518255602094850194600190920191016106e3565b50848210156107215786840151600019600387901b60f8161c191681555b50505050600190811b01905550565b615ade8061073f6000396000f3fe6080604052600436106103975760003560e01c8063715018a6116101dc578063a5099bae11610102578063d08acd93116100a0578063e985e9c51161006f578063e985e9c514610b85578063f25a034214610ba5578063f2fde38b14610bd2578063f9fd0db814610bf257600080fd5b8063d08acd9314610b02578063db74559b14610b18578063dd81d5bf14610b45578063e653ca7f14610b6557600080fd5b8063b88d4fde116100dc578063b88d4fde14610a5d578063c51544c514610a7d578063c87b56dd14610aad578063cfca9a7f14610acd57600080fd5b8063a5099bae14610a07578063b4e847a014610a27578063b662abf514610a3d57600080fd5b80638163997c1161017a57806395d89b411161014957806395d89b41146109925780639636c762146109a7578063977216c2146109c7578063a22cb465146109e757600080fd5b80638163997c1461091f5780638c79d7e3146109345780638da5cb5b146109545780638f270c2d1461097257600080fd5b806379502c55116101b657806379502c551461084c5780637ac2bc03146108bf5780637d9e9d30146108df5780637eebe99d146108ff57600080fd5b8063715018a6146107c557806375bfe420146107da578063776d62f61461080a57600080fd5b80633f0bc9a5116102c157806356a3ee771161025f5780636352211e1161022e5780636352211e1461074f578063643e7afd1461076f5780636e0f7a481461078557806370a08231146107a557600080fd5b806356a3ee77146106bb57806359e651e0146106e85780635c975abb14610715578063612124311461072f57600080fd5b80634346b1501161029b5780634346b15014610625578063446c00f71461064557806348cfc19e146106655780634d4e8dfa1461068957600080fd5b80633f0bc9a5146105a65780634025b22d146105d857806342842e0e1461060557600080fd5b806311bf541f116103395780631d727ba5116103085780631d727ba51461052357806323b872dd14610543578063300eccab146105635780633ccfd60b1461059157600080fd5b806311bf541f146104a357806316c38b3c146104c357806317225941146104e35780631ad7317c1461050357600080fd5b806306fdde031161037557806306fdde0314610416578063081812fc14610438578063095ea7b31461047057806311aaa5c91461049057600080fd5b806301ffc9a71461039c57806303075018146103d1578063053f5bbf146103f4575b600080fd5b3480156103a857600080fd5b506103bc6103b73660046141cf565b610c12565b60405190151581526020015b60405180910390f35b3480156103dd57600080fd5b506103e6610c64565b6040516103c892919061422b565b34801561040057600080fd5b5061041461040f36600461451f565b611029565b005b34801561042257600080fd5b5061042b6110a3565b6040516103c89190614600565b34801561044457600080fd5b50610458610453366004614613565b611135565b6040516001600160a01b0390911681526020016103c8565b34801561047c57600080fd5b5061041461048b36600461464c565b61115e565b61041461049e366004614678565b61116d565b3480156104af57600080fd5b506104146104be3660046146ba565b611291565b3480156104cf57600080fd5b506104146104de3660046146f0565b6112b5565b3480156104ef57600080fd5b50602354610458906001600160a01b031681565b34801561050f57600080fd5b5061041461051e36600461470d565b6112d0565b34801561052f57600080fd5b5061041461053e366004614799565b6113b6565b34801561054f57600080fd5b5061041461055e36600461492f565b6114bd565b34801561056f57600080fd5b5061058361057e366004614613565b611542565b6040519081526020016103c8565b34801561059d57600080fd5b50610414611563565b3480156105b257600080fd5b506105c66105c1366004614613565b611616565b60405160ff90911681526020016103c8565b3480156105e457600080fd5b506105f86105f3366004614613565b61164a565b6040516103c89190614b63565b34801561061157600080fd5b5061041461062036600461492f565b611929565b34801561063157600080fd5b50610414610640366004614b76565b611944565b34801561065157600080fd5b50610414610660366004614613565b611a64565b34801561067157600080fd5b5061067a611ab3565b6040516103c893929190614c1d565b34801561069557600080fd5b506106a96106a4366004614613565b611bfb565b6040516103c896959493929190614c56565b3480156106c757600080fd5b506105836106d6366004614cb8565b600c6020526000908152604090205481565b3480156106f457600080fd5b50610708610703366004614cb8565b611eb0565b6040516103c89190614cd5565b34801561072157600080fd5b506021546103bc9060ff1681565b34801561073b57600080fd5b506105c661074a366004614613565b611ed4565b34801561075b57600080fd5b5061045861076a366004614613565b611ee4565b34801561077b57600080fd5b5061058360205481565b34801561079157600080fd5b506105c66107a0366004614613565b611eef565b3480156107b157600080fd5b506105836107c0366004614cb8565b611f20565b3480156107d157600080fd5b50610414611f68565b3480156107e657600080fd5b506103bc6107f5366004614cb8565b60226020526000908152604090205460ff1681565b34801561081657600080fd5b506018546108309061ffff81169062010000900460ff1682565b6040805161ffff909316835260ff9091166020830152016103c8565b34801561085857600080fd5b50601054601154601254601354601454610885946001600160a01b03908116948116938116928116911685565b604080516001600160a01b03968716815294861660208601529285169284019290925283166060830152909116608082015260a0016103c8565b3480156108cb57600080fd5b506104146108da366004614613565b611f7c565b3480156108eb57600080fd5b506104146108fa366004614ce8565b612014565b34801561090b57600080fd5b5061041461091a366004614d1c565b61204a565b34801561092b57600080fd5b506104146120be565b34801561094057600080fd5b5061041461094f366004614d4c565b612145565b34801561096057600080fd5b506006546001600160a01b0316610458565b34801561097e57600080fd5b5061041461098d366004614cb8565b612178565b34801561099e57600080fd5b5061042b6121a2565b3480156109b357600080fd5b506105836109c2366004614613565b6121b1565b3480156109d357600080fd5b506104146109e2366004614613565b6121ec565b3480156109f357600080fd5b50610414610a02366004614d4c565b6121f9565b348015610a1357600080fd5b506105c6610a22366004614613565b612204565b348015610a3357600080fd5b5061058360095481565b348015610a4957600080fd5b506105c6610a58366004614613565b61220f565b348015610a6957600080fd5b50610414610a78366004614dda565b61221f565b348015610a8957600080fd5b506103bc610a98366004614cb8565b600b6020526000908152604090205460ff1681565b348015610ab957600080fd5b5061042b610ac8366004614613565b612237565b348015610ad957600080fd5b50610aed610ae8366004614613565b6122bb565b60405163ffffffff90911681526020016103c8565b348015610b0e57600080fd5b5061058360245481565b348015610b2457600080fd5b50610583610b33366004614cb8565b600d6020526000908152604090205481565b348015610b5157600080fd5b50610414610b60366004614613565b6122f5565b348015610b7157600080fd5b50610414610b8036600461464c565b612776565b348015610b9157600080fd5b506103bc610ba0366004614e59565b6127ea565b348015610bb157600080fd5b50610bc5610bc0366004614ce8565b612818565b6040516103c89190614e87565b348015610bde57600080fd5b50610414610bed366004614cb8565b612b9b565b348015610bfe57600080fd5b50610414610c0d366004615107565b612bd6565b60006001600160e01b031982166380ac58cd60e01b1480610c4357506001600160e01b03198216635b5e139f60e01b145b80610c5e57506301ffc9a760e01b6001600160e01b03198316145b92915050565b6000610cbc604051806101200160405280600061ffff168152602001600060ff168152602001606081526020016060815260200160608152602001606081526020016060815260200160608152602001606081525090565b6020805460408051610120810182526018805461ffff8116835262010000900460ff168286015260198054845181880281018801865281815295969295939486949086019390929190830182828015610d5257602002820191906000526020600020906000905b825461010083900a900460ff16815260206001928301818104948501949093039092029101808411610d235790505b5050505050815260200160028201805480602002602001604051908101604052809291908181526020018280548015610dc857602002820191906000526020600020906000905b825461010083900a900460ff16815260206001928301818104948501949093039092029101808411610d995790505b5050505050815260200160038201805480602002602001604051908101604052809291908181526020018280548015610e3e57602002820191906000526020600020906000905b825461010083900a900460ff16815260206001928301818104948501949093039092029101808411610e0f5790505b5050505050815260200160048201805480602002602001604051908101604052809291908181526020018280548015610eb457602002820191906000526020600020906000905b825461010083900a900460ff16815260206001928301818104948501949093039092029101808411610e855790505b5050505050815260200160058201805480602002602001604051908101604052809291908181526020018280548015610f2a57602002820191906000526020600020906000905b825461010083900a900460ff16815260206001928301818104948501949093039092029101808411610efb5790505b5050505050815260200160068201805480602002602001604051908101604052809291908181526020018280548015610fa057602002820191906000526020600020906000905b825461010083900a900460ff16815260206001928301818104948501949093039092029101808411610f715790505b505050505081526020016007820180548060200260200160405190810160405280929190818152602001828054801561101657602002820191906000526020600020906000905b825461010083900a900460ff16815260206001928301818104948501949093039092029101808411610fe75790505b5050505050815250509050915091509091565b611031612fba565b8151835114158061104457508051825114155b156110625760405163512509d360e11b815260040160405180910390fd5b8251611075906015906020860190613fcc565b508151611089906016906020850190613fcc565b50805161109d906017906020840190614072565b50505050565b6060600080546110b2906151ea565b80601f01602080910402602001604051908101604052809291908181526020018280546110de906151ea565b801561112b5780601f106111005761010080835404028352916020019161112b565b820191906000526020600020905b81548152906001019060200180831161110e57829003601f168201915b5050505050905090565b600061114082612fe7565b506000828152600460205260409020546001600160a01b0316610c5e565b611169828233613020565b5050565b61117561302d565b6017828154811061118857611188615224565b906000526020600020015434146111c0576040516312a1605d60e31b8152600481018390523460248201526044015b60405180910390fd5b6001600160a01b0381166111e75760405163119833d760e11b815260040160405180910390fd5b6000601683815481106111fc576111fc615224565b60009182526020808320908204015460ff601f9092166101000a90041691505b818110156112355761122d85613057565b60010161121c565b5061125e82826017868154811061124e5761124e615224565b906000526020600020015461314e565b506001600160a01b0383166000908152600b60205260409020805460ff1916600117905561128c6001600755565b505050565b611299612fba565b6021805462ffff00191660ff9290921661010002919091179055565b6112bd612fba565b6021805460ff1916911515919091179055565b6112d8612fba565b6001600160a01b0385161561130357601080546001600160a01b0319166001600160a01b0387161790555b6001600160a01b0384161561132e57601180546001600160a01b0319166001600160a01b0386161790555b6001600160a01b0383161561135957601480546001600160a01b0319166001600160a01b0385161790555b6001600160a01b0382161561138457601380546001600160a01b0319166001600160a01b0384161790555b6001600160a01b038116156113af57601280546001600160a01b0319166001600160a01b0383161790555b5050505050565b6113be612fba565b602080549060006113ce83615250565b909155505080516018805460208085015160ff16620100000262ffffff1990921661ffff9094169390931717815560408301518051849361141492601992910190613fcc565b5060608201518051611430916002840191602090910190613fcc565b506080820151805161144c916003840191602090910190613fcc565b5060a08201518051611468916004840191602090910190613fcc565b5060c08201518051611484916005840191602090910190613fcc565b5060e082015180516114a0916006840191602090910190613fcc565b50610100820151805161109d916007840191602090910190613fcc565b6001600160a01b0382166114e757604051633250574960e11b8152600060048201526024016111b7565b60006114f4838333613302565b9050836001600160a01b0316816001600160a01b03161461109d576040516364283d7b60e01b81526001600160a01b03808616600483015260248201849052821660448201526064016111b7565b6017818154811061155257600080fd5b600091825260209091200154905081565b61156b612fba565b600061157f6006546001600160a01b031690565b6001600160a01b03164760405160006040518083038185875af1925050503d80600081146115c9576040519150601f19603f3d011682016040523d82523d6000602084013e6115ce565b606091505b50509050806116135760405162461bcd60e51b815260206004820152601160248201527015da5d1a191c985dd85b0819985a5b1959607a1b60448201526064016111b7565b50565b6015818154811061162657600080fd5b9060005260206000209060209182820401919006915054906101000a900460ff1681565b6116526140ad565b60008281526008602052604090819020815160c0810190925280548290829061167a906151ea565b80601f01602080910402602001604051908101604052809291908181526020018280546116a6906151ea565b80156116f35780601f106116c8576101008083540402835291602001916116f3565b820191906000526020600020905b8154815290600101906020018083116116d657829003601f168201915b5050509183525050600182015460208201526040805160808101825260028401805492909301929091829060ff16600381111561173257611732614970565b600381111561174357611743614970565b81528154602090910190610100900460ff16600381111561176657611766614970565b600381111561177757611777614970565b8152815460209091019062010000900460ff16600381111561179b5761179b614970565b60038111156117ac576117ac614970565b815281546020909101906301000000900460ff1660038111156117d1576117d1614970565b60038111156117e2576117e2614970565b90525081526040805160c080820183526003850154825282518082018452600486015461ffff808216835260ff62010000808404821660208681019190915263010000008086048416878b015264010000000080870486166060808a0191909152600160301b80890487166080808c0191909152600160381b909904871660a0808c01919091528c86019a909a5260058f01548088168d8f015261010081048816838e01529586048716898d0152929094048516888b0152828c0199909952895160e081018b5260068d015463ffffffff81168252998a04861692810192909252880490931683890152600160401b87048216151583820152600160481b87048216151593830193909352600160501b909504909416151591840191909152600786015491830191909152918301526008909201546001600160a01b031691015292915050565b61128c8383836040518060200160405280600081525061221f565b61194c61302d565b6000805b828110156119ed57600084848381811061196c5761196c615224565b6020908102929092013560008181526008938490526040902090920154919250506001600160a01b031633146119b75760405162dd34af60e41b8152600481018290526024016111b7565b6000818152600860205260409020426007909101556119d5816134f6565b6024546119e29084615269565b925050600101611950565b508015611a59576023546040516340c10f1960e01b8152336004820152602481018390526001600160a01b03909116906340c10f1990604401600060405180830381600087803b158015611a4057600080fd5b505af1158015611a54573d6000803e3d6000fd5b505050505b506111696001600755565b6006546001600160a01b03163314801590611a8a57506010546001600160a01b03163314155b15611aaa57604051634a0bfec160e01b81523360048201526024016111b7565b61161381613531565b606080606060156016601782805480602002602001604051908101604052809291908181526020018280548015611b2757602002820191906000526020600020906000905b825461010083900a900460ff16815260206001928301818104948501949093039092029101808411611af85790505b5050505050925081805480602002602001604051908101604052809291908181526020018280548015611b9757602002820191906000526020600020906000905b825461010083900a900460ff16815260206001928301818104948501949093039092029101808411611b685790505b5050505050915080805480602002602001604051908101604052809291908181526020018280548015611be957602002820191906000526020600020905b815481526020019060010190808311611bd5575b50505050509050925092509250909192565b600860205260009081526040902080548190611c16906151ea565b80601f0160208091040260200160405190810160405280929190818152602001828054611c42906151ea565b8015611c8f5780601f10611c6457610100808354040283529160200191611c8f565b820191906000526020600020905b815481529060010190602001808311611c7257829003601f168201915b505050505090806001015490806002016040518060800160405290816000820160009054906101000a900460ff166003811115611cce57611cce614970565b6003811115611cdf57611cdf614970565b81528154602090910190610100900460ff166003811115611d0257611d02614970565b6003811115611d1357611d13614970565b8152815460209091019062010000900460ff166003811115611d3757611d37614970565b6003811115611d4857611d48614970565b815281546020909101906301000000900460ff166003811115611d6d57611d6d614970565b6003811115611d7e57611d7e614970565b9052506040805160c080820183526003850154825282518082018452600486015461ffff808216835260ff62010000808404821660208681019190915263010000008086048416878b015264010000000080870486166060808a0191909152600160301b80890487166080808c0191909152600160381b909904871660a0808c0191909152858d019a909a5260058f01548088168d8f015261010081048816838e01529586048716898d0152929094048516888b01528a5160e081018c5260068e015463ffffffff8116825291820487169381019390935290810490941698810198909852600160401b83048216151590880152600160481b82048116151592870192909252600160501b9004161515908401526007850154908301526008909301549192916001600160a01b031686565b6001600160a01b0381166000908152600a60205260409020606090610c5e9061388f565b6016818154811061162657600080fd5b6000610c5e82612fe7565b60006032821015611f0257506000919050565b6050821015611f1357506001919050565b506002919050565b919050565b60006001600160a01b038216611f4c576040516322718ad960e21b8152600060048201526024016111b7565b506001600160a01b031660009081526003602052604090205490565b611f70612fba565b611f7a60006138a3565b565b6006546001600160a01b03163314801590611fa257506010546001600160a01b03163314155b15611fc257604051634a0bfec160e01b81523360048201526024016111b7565b6000818152600860205260409081902042600790910155517ff8e1a15aba9398e019f0b49df1a4fde98ee17ae345cb5f6b5e2c27f5033e8ce7906120099083815260200190565b60405180910390a150565b60005b81518110156111695761204282828151811061203557612035615224565b60200260200101516122f5565b600101612017565b6011546001600160a01b0316331480159061207057506010546001600160a01b03163314155b1561209057604051634a0bfec160e01b81523360048201526024016111b7565b6000918252600860205260409091206006018054911515600160501b0260ff60501b19909216919091179055565b336000908152600a602052604081206120d69061388f565b905060005b815181101561116957600860008383815181106120fa576120fa615224565b6020026020010151815260200190815260200160002060060160000160099054906101000a900460ff1661213d5761213d82828151811061203557612035615224565b6001016120db565b61214d612fba565b6001600160a01b03919091166000908152602260205260409020805460ff1916911515919091179055565b612180612fba565b602380546001600160a01b0319166001600160a01b0392909216919091179055565b6060600180546110b2906151ea565b6000816000036121c357506001919050565b60005b8215610c5e57806121d681615250565b91506121e59050600a84615292565b92506121c6565b6121f4612fba565b602455565b6111693383836138f5565b6000610c5e826121b1565b600e818154811061162657600080fd5b61222a8484846114bd565b61109d3385858585613994565b601254600082815260086020526040908190209051635512ecf560e01b81526060926001600160a01b031691635512ecf59161227691906004016153f3565b600060405180830381865afa158015612293573d6000803e3d6000fd5b505050506040513d6000823e601f3d908101601f19168201604052610c5e919081019061552a565b600f81815481106122cb57600080fd5b9060005260206000209060089182820401919006600402915054906101000a900463ffffffff1681565b6040518181527ff8e1a15aba9398e019f0b49df1a4fde98ee17ae345cb5f6b5e2c27f5033e8ce79060200160405180910390a16000818152600860208190526040909120908101546001600160a01b031633146123675760405162dd34af60e41b8152600481018390526024016111b7565b6006810154600160481b900460ff161561239757604051635331ce1f60e11b8152600481018390526024016111b7565b6013546003820154604051632f09b60960e21b815260048101919091526000916001600160a01b03169063bc26d824906024016020604051808303816000875af11580156123e9573d6000803e3d6000fd5b505050506040513d601f19601f8201168201806040525081019061240d919061555e565b6014546003840154602154604051637017ac9560e11b81526004810188905260248101929092526001600160401b0384166044830152610100900461ffff1660648201529192506000916001600160a01b039091169063e02f592a90608401600060405180830381865afa158015612489573d6000803e3d6000fd5b505050506040513d6000823e601f3d908101601f191682016040526124b19190810190615731565b805190915083906124c29082615897565b508060600151836003016000820151816000015560208201518160010160008201518160000160006101000a81548161ffff021916908361ffff16021790555060208201518160000160026101000a81548160ff021916908360ff16021790555060408201518160000160036101000a81548160ff021916908360ff16021790555060608201518160000160046101000a81548161ffff021916908361ffff16021790555060808201518160000160066101000a81548160ff021916908360ff16021790555060a08201518160000160076101000a81548160ff021916908360ff160217905550505060408201518160020160006101000a81548160ff021916908360ff16021790555060608201518160020160016101000a81548160ff021916908360ff16021790555060808201518160020160026101000a81548160ff021916908360ff16021790555060a08201518160020160036101000a81548160ff021916908360ff16021790555090505080604001518360020160008201518160000160006101000a81548160ff0219169083600381111561266557612665614970565b021790555060208201518154829061ff00191661010083600381111561268d5761268d614970565b021790555060408201518154829062ff00001916620100008360038111156126b7576126b7614970565b021790555060608201518154829063ff000000191663010000008360038111156126e3576126e3614970565b0217905550505060808101516060810151600685018054925163ffffffff1663ffffffff19921515600160401b0292831668ff00000000ffffffff198516178117825560185460ff60481b1964010000000061ffff9092169190910265ffffffffffff1990941668ff0000ffffffffffff1990951694909417179190911791909116600160481b17905561109d84613531565b3360009081526022602052604090205460ff166127a857604051634a0bfec160e01b81523360048201526024016111b7565b60005b818110156127c4576127bc83613057565b6001016127ab565b50506001600160a01b03166000908152600b60205260409020805460ff19166001179055565b6001600160a01b03918216600090815260056020908152604080832093909416825291909152205460ff1690565b6060600082516001600160401b0381111561283557612835614339565b60405190808252806020026020018201604052801561286e57816020015b61285b6140ad565b8152602001906001900390816128535790505b50905060005b8351811015612b94576008600085838151811061289357612893615224565b602002602001015181526020019081526020016000206040518060c00160405290816000820180546128c4906151ea565b80601f01602080910402602001604051908101604052809291908181526020018280546128f0906151ea565b801561293d5780601f106129125761010080835404028352916020019161293d565b820191906000526020600020905b81548152906001019060200180831161292057829003601f168201915b5050509183525050600182015460208201526040805160808101825260028401805492909301929091829060ff16600381111561297c5761297c614970565b600381111561298d5761298d614970565b81528154602090910190610100900460ff1660038111156129b0576129b0614970565b60038111156129c1576129c1614970565b8152815460209091019062010000900460ff1660038111156129e5576129e5614970565b60038111156129f6576129f6614970565b815281546020909101906301000000900460ff166003811115612a1b57612a1b614970565b6003811115612a2c57612a2c614970565b90525081526040805160c080820183526003850154825282518082018452600486015461ffff808216835260ff62010000808404821660208681019190915263010000008086048416878b015264010000000080870486166060808a0191909152600160301b80890487166080808c0191909152600160381b909904871660a0808c01919091528c86019a909a5260058f01548088168d8f015261010081048816838e01529586048716898d0152929094048516888b0152828c0199909952895160e081018b5260068d015463ffffffff81168252998a04861692810192909252880490931683890152600160401b87048216151583820152600160481b87048216151593830193909352600160501b909504909416151591840191909152600786015491830191909152918301526008909201546001600160a01b03169101528251839083908110612b8157612b81615224565b6020908102919091010152600101612874565b5092915050565b612ba3612fba565b6001600160a01b038116612bcd57604051631e4fbdf760e01b8152600060048201526024016111b7565b611613816138a3565b6040518281527ff8e1a15aba9398e019f0b49df1a4fde98ee17ae345cb5f6b5e2c27f5033e8ce79060200160405180910390a1600082815260086020908152604080832033845260229092529091205460ff16612c4857604051634a0bfec160e01b81523360048201526024016111b7565b6006810154600160481b900460ff1615612c7857604051635331ce1f60e11b8152600481018490526024016111b7565b601454600382015460405163df1c0f1d60e01b81526000926001600160a01b03169163df1c0f1d91612cb09188918890600401615955565b600060405180830381865afa158015612ccd573d6000803e3d6000fd5b505050506040513d6000823e601f3d908101601f19168201604052612cf59190810190615731565b80519091508290612d069082615897565b508060600151826003016000820151816000015560208201518160010160008201518160000160006101000a81548161ffff021916908361ffff16021790555060208201518160000160026101000a81548160ff021916908360ff16021790555060408201518160000160036101000a81548160ff021916908360ff16021790555060608201518160000160046101000a81548161ffff021916908361ffff16021790555060808201518160000160066101000a81548160ff021916908360ff16021790555060a08201518160000160076101000a81548160ff021916908360ff160217905550505060408201518160020160006101000a81548160ff021916908360ff16021790555060608201518160020160016101000a81548160ff021916908360ff16021790555060808201518160020160026101000a81548160ff021916908360ff16021790555060a08201518160020160036101000a81548160ff021916908360ff16021790555090505080604001518260020160008201518160000160006101000a81548160ff02191690836003811115612ea957612ea9614970565b021790555060208201518154829061ff001916610100836003811115612ed157612ed1614970565b021790555060408201518154829062ff0000191662010000836003811115612efb57612efb614970565b021790555060608201518154829063ff00000019166301000000836003811115612f2757612f27614970565b0217905550505060808101516060810151600684018054925163ffffffff1663ffffffff19921515600160401b0292831668ff00000000ffffffff198516178117825560185460ff60481b1964010000000061ffff9092169190910265ffffffffffff1990941668ff0000ffffffffffff1990951694909417179190911791909116600160481b17905561109d84613531565b6006546001600160a01b03163314611f7a5760405163118cdaa760e01b81523360048201526024016111b7565b6000818152600260205260408120546001600160a01b031680610c5e57604051637e27328960e01b8152600481018490526024016111b7565b61128c8383836001613ab6565b60026007540361305057604051633ee5aeb560e01b815260040160405180910390fd5b6002600755565b60215460ff161561307b57604051636be9245d60e11b815260040160405180910390fd5b6009805490600061308b83615250565b909155505060095460008181526008602090815260408083206001810194909455601354815163f8413b0760e01b815291516001600160a01b039091169363f8413b07936004808501949193929183900301908290875af11580156130f4573d6000803e3d6000fd5b505050506040513d601f19601f820116820180604052508101906131189190615974565b600382015560095461312b908390613bbc565b60080180546001600160a01b0319166001600160a01b0392909216919091179055565b6001600160a01b0383166000908152600d602052604081208054849290613176908490615269565b9091555050600f546001905b801561323c57600f61319560018361598d565b815481106131a5576131a5615224565b600091825260208083206008830401546001600160a01b0389168452600d90915260409092205460079091166004026101000a90910463ffffffff161161322a57600e6131f360018361598d565b8154811061320357613203615224565b60009182526020918290209181049091015460ff601f9092166101000a900416915061323c565b80613234816159a0565b915050613182565b506000606461324b83856159b7565b6132559190615292565b90506000856001600160a01b03168260405160006040518083038185875af1925050503d80600081146132a4576040519150601f19603f3d011682016040523d82523d6000602084013e6132a9565b606091505b50509050806132fa5760405162461bcd60e51b815260206004820152601860248201527f526566657272616c207472616e73666572206661696c6564000000000000000060448201526064016111b7565b505050505050565b60006001600160a01b0384161561336357600083815260086020526040902060070154156133635760405162461bcd60e51b815260206004820152600e60248201526d14da1a5c0819195cdd1c9bde595960921b60448201526064016111b7565b600083815260086020526040902060060154600160501b900460ff16156133a05760405163128379f760e11b8152600481018490526024016111b7565b600083815260086020819052604090912001546001600160a01b03168015613484576001600160a01b0381166000908152600b602052604090205460ff1661340657604051637aff97f360e11b81526001600160a01b03821660048201526024016111b7565b6001600160a01b0385161580159061343757506001600160a01b0385166000908152600b602052604090205460ff16155b1561346057604051637aff97f360e11b81526001600160a01b03861660048201526024016111b7565b6001600160a01b0381166000908152600a602052604090206134829085613bd6565b505b6001600160a01b038516156134e2576001600160a01b0385166000908152600a602052604090206134b59085613be2565b5060008481526008602081905260409091200180546001600160a01b0319166001600160a01b0387161790555b6134ed858585613bee565b95945050505050565b60006135056000836000613302565b90506001600160a01b03811661116957604051637e27328960e01b8152600481018390526024016111b7565b60008181526008602052604081206002810154909190601f906301000000900460ff16600381111561356557613565614970565b60ff168154811061357857613578615224565b600091825260209182902091810490910154600284015460ff601f9093166101000a909104821691601e916201000090041660038111156135bb576135bb614970565b60ff16815481106135ce576135ce615224565b600091825260209182902091810490910154600285015460ff601f90931661010090810a909204831692601d9290910416600381111561361057613610614970565b60ff168154811061362357613623615224565b600091825260209182902091810490910154600286015460ff601f9093166101000a909104821691601c9116600381111561366057613660614970565b60ff168154811061367357613673615224565b6000918252602091829020918104909101546005870154601b8054601f9094166101000a90920460ff908116936301000000909204169081106136b8576136b8615224565b6000918252602091829020918104909101546005880154601a8054601f9094166101000a90920460ff9081169362010000909204169081106136fc576136fc615224565b60009182526020918290209181049091015460058901546019805460ff601f90951661010090810a90940485169491939092041690811061373f5761373f615224565b60009182526020918290209181049091015460185461377492601f166101000a90910460ff90811691620100009004166159ce565b61377e91906159ce565b61378891906159ce565b61379291906159ce565b61379c91906159ce565b6137a691906159ce565b6137b091906159ce565b600683015460ff9190911691506000906137cf9063ffffffff16612204565b60ff169050600060018290036137fd5760646137ec8460006159e7565b6137f69190615a04565b9050613855565b8161ffff166002036138165760646137ec84600a6159e7565b8161ffff1660030361382f5760646137ec8460146159e7565b60048261ffff161061385557606461384884601e6159e7565b6138529190615a04565b90505b60006138618285615a28565b6006909501805461ffff909616600160301b0267ffff00000000000019909616959095179094555050505050565b6060600061389c83613ce7565b9392505050565b600680546001600160a01b038381166001600160a01b0319831681179093556040519116919082907f8be0079c531659141344cd1fd0a4f28419497f9722a3daafe3b4186f6b6457e090600090a35050565b6001600160a01b03821661392757604051630b61174360e31b81526001600160a01b03831660048201526024016111b7565b6001600160a01b03838116600081815260056020908152604080832094871680845294825291829020805460ff191686151590811790915591519182527f17307eab39ab6107e8899845ad3d59bd9653f200f220920489ca2b5937696c31910160405180910390a3505050565b6001600160a01b0383163b156113af57604051630a85bd0160e11b81526001600160a01b0384169063150b7a02906139d6908890889087908790600401615a42565b6020604051808303816000875af1925050508015613a11575060408051601f3d908101601f19168201909252613a0e91810190615a75565b60015b613a7a573d808015613a3f576040519150601f19603f3d011682016040523d82523d6000602084013e613a44565b606091505b508051600003613a7257604051633250574960e11b81526001600160a01b03851660048201526024016111b7565b805181602001fd5b6001600160e01b03198116630a85bd0160e11b146132fa57604051633250574960e11b81526001600160a01b03851660048201526024016111b7565b8080613aca57506001600160a01b03821615155b15613b8c576000613ada84612fe7565b90506001600160a01b03831615801590613b065750826001600160a01b0316816001600160a01b031614155b8015613b195750613b1781846127ea565b155b15613b425760405163a9fbf51f60e01b81526001600160a01b03841660048201526024016111b7565b8115613b8a5783856001600160a01b0316826001600160a01b03167f8c5be1e5ebec7d5bd14f71427d1e84f3dd0314c0f7b2291e5b200ac8c7c3b92560405160405180910390a45b505b5050600090815260046020526040902080546001600160a01b0319166001600160a01b0392909216919091179055565b611169828260405180602001604052806000815250613d43565b600061389c8383613d5b565b600061389c8383613e4e565b6000828152600260205260408120546001600160a01b0390811690831615613c1b57613c1b818486613e9d565b6001600160a01b03811615613c5957613c38600085600080613ab6565b6001600160a01b038116600090815260036020526040902080546000190190555b6001600160a01b03851615613c88576001600160a01b0385166000908152600360205260409020805460010190555b60008481526002602052604080822080546001600160a01b0319166001600160a01b0389811691821790925591518793918516917fddf252ad1be2c89b69c2b068fc378daa952ba7f163c4a11628f55a4df523b3ef91a4949350505050565b606081600001805480602002602001604051908101604052809291908181526020018280548015613d3757602002820191906000526020600020905b815481526020019060010190808311613d23575b50505050509050919050565b613d4d8383613f01565b61128c336000858585613994565b60008181526001830160205260408120548015613e44576000613d7f60018361598d565b8554909150600090613d939060019061598d565b9050808214613df8576000866000018281548110613db357613db3615224565b9060005260206000200154905080876000018481548110613dd657613dd6615224565b6000918252602080832090910192909255918252600188019052604090208390555b8554869080613e0957613e09615a92565b600190038181906000526020600020016000905590558560010160008681526020019081526020016000206000905560019350505050610c5e565b6000915050610c5e565b6000818152600183016020526040812054613e9557508154600181810184556000848152602080822090930184905584548482528286019093526040902091909155610c5e565b506000610c5e565b613ea8838383613f66565b61128c576001600160a01b038316613ed657604051637e27328960e01b8152600481018290526024016111b7565b60405163177e802f60e01b81526001600160a01b0383166004820152602481018290526044016111b7565b6001600160a01b038216613f2b57604051633250574960e11b8152600060048201526024016111b7565b6000613f3983836000613302565b90506001600160a01b0381161561128c576040516339e3563760e11b8152600060048201526024016111b7565b60006001600160a01b03831615801590613fc45750826001600160a01b0316846001600160a01b03161480613fa05750613fa084846127ea565b80613fc457506000828152600460205260409020546001600160a01b038481169116145b949350505050565b82805482825590600052602060002090601f016020900481019282156140625791602002820160005b8382111561403357835183826101000a81548160ff021916908360ff1602179055509260200192600101602081600001049283019260010302613ff5565b80156140605782816101000a81549060ff0219169055600101602081600001049283019260010302614033565b505b5061406e9291506141a4565b5090565b828054828255906000526020600020908101928215614062579160200282015b82811115614062578251825591602001919060010190614092565b6040518060c0016040528060608152602001600081526020016140f16040805160808101909152806000815260200160008152602001600081526020016000905290565b815260200161415b6040805160c080820183526000808352835191820184528082526020828101829052938201819052606082018190526080820181905260a082015290918201908152600060208201819052604082018190526060820181905260809091015290565b81526040805160e08101825260008082526020828101829052928201819052606082018190526080820181905260a0820181905260c08201529101908152600060209091015290565b5b8082111561406e57600081556001016141a5565b6001600160e01b03198116811461161357600080fd5b6000602082840312156141e157600080fd5b813561389c816141b9565b600081518084526020840193506020830160005b8281101561422157815160ff16865260209586019590910190600101614200565b5093949350505050565b8281526040602082015261424660408201835161ffff169052565b6000602083015161425c606084018260ff169052565b50604083015161012060808401526142786101608401826141ec565b90506060840151603f198483030160a085015261429582826141ec565b9150506080840151603f198483030160c08501526142b382826141ec565b91505060a0840151603f198483030160e08501526142d182826141ec565b91505060c0840151603f19848303016101008501526142f082826141ec565b91505060e0840151603f198483030161012085015261430f82826141ec565b915050610100840151603f198483030161014085015261432f82826141ec565b9695505050505050565b634e487b7160e01b600052604160045260246000fd5b60405161012081016001600160401b038111828210171561437257614372614339565b60405290565b604051608081016001600160401b038111828210171561437257614372614339565b60405160c081016001600160401b038111828210171561437257614372614339565b60405160e081016001600160401b038111828210171561437257614372614339565b604051601f8201601f191681016001600160401b038111828210171561440657614406614339565b604052919050565b60006001600160401b0382111561442757614427614339565b5060051b60200190565b60ff8116811461161357600080fd5b8035611f1b81614431565b600082601f83011261445c57600080fd5b813561446f61446a8261440e565b6143de565b8082825260208201915060208360051b86010192508583111561449157600080fd5b602085015b838110156144b75780356144a981614431565b835260209283019201614496565b5095945050505050565b600082601f8301126144d257600080fd5b81356144e061446a8261440e565b8082825260208201915060208360051b86010192508583111561450257600080fd5b602085015b838110156144b7578035835260209283019201614507565b60008060006060848603121561453457600080fd5b83356001600160401b0381111561454a57600080fd5b6145568682870161444b565b93505060208401356001600160401b0381111561457257600080fd5b61457e8682870161444b565b92505060408401356001600160401b0381111561459a57600080fd5b6145a6868287016144c1565b9150509250925092565b60005b838110156145cb5781810151838201526020016145b3565b50506000910152565b600081518084526145ec8160208601602086016145b0565b601f01601f19169290920160200192915050565b60208152600061389c60208301846145d4565b60006020828403121561462557600080fd5b5035919050565b6001600160a01b038116811461161357600080fd5b8035611f1b8161462c565b6000806040838503121561465f57600080fd5b823561466a8161462c565b946020939093013593505050565b60008060006060848603121561468d57600080fd5b83356146988161462c565b92506020840135915060408401356146af8161462c565b809150509250925092565b6000602082840312156146cc57600080fd5b813561389c81614431565b801515811461161357600080fd5b8035611f1b816146d7565b60006020828403121561470257600080fd5b813561389c816146d7565b600080600080600060a0868803121561472557600080fd5b85356147308161462c565b945060208601356147408161462c565b935060408601356147508161462c565b925060608601356147608161462c565b915060808601356147708161462c565b809150509295509295909350565b61ffff8116811461161357600080fd5b8035611f1b8161477e565b6000602082840312156147ab57600080fd5b81356001600160401b038111156147c157600080fd5b820161012081850312156147d457600080fd5b6147dc61434f565b6147e58261478e565b81526147f360208301614440565b602082015260408201356001600160401b0381111561481157600080fd5b61481d8682850161444b565b60408301525060608201356001600160401b0381111561483c57600080fd5b6148488682850161444b565b60608301525060808201356001600160401b0381111561486757600080fd5b6148738682850161444b565b60808301525060a08201356001600160401b0381111561489257600080fd5b61489e8682850161444b565b60a08301525060c08201356001600160401b038111156148bd57600080fd5b6148c98682850161444b565b60c08301525060e08201356001600160401b038111156148e857600080fd5b6148f48682850161444b565b60e0830152506101008201356001600160401b0381111561491457600080fd5b6149208682850161444b565b61010083015250949350505050565b60008060006060848603121561494457600080fd5b833561494f8161462c565b9250602084013561495f8161462c565b929592945050506040919091013590565b634e487b7160e01b600052602160045260246000fd5b6004811061161357634e487b7160e01b600052602160045260246000fd5b80516149af81614986565b825260208101516149bf81614986565b602083015260408101516149d281614986565b604083015260608101516149e581614986565b806060840152505050565b80518252602081015161ffff815116602084015260ff602082015116604084015260ff604082015116606084015261ffff606082015116608084015260ff60808201511660a084015260ff60a08201511660c0840152506040810151614a5b60e084018260ff169052565b50606081015160ff9081166101008401526080820151811661012084015260a0909101511661014090910152565b63ffffffff815116825261ffff602082015116602083015261ffff604082015116604083015260608101511515606083015260808101511515608083015260a0810151614ada60a084018215159052565b5060c090810151910152565b600081516103208452614afd6103208501826145d4565b9050602083015160208501526040830151614b1b60408601826149a4565b506060830151614b2e60c08601826149f0565b506080830151614b42610220860182614a89565b5060a092909201516001600160a01b03166103009390930192909252919050565b60208152600061389c6020830184614ae6565b60008060208385031215614b8957600080fd5b82356001600160401b03811115614b9f57600080fd5b8301601f81018513614bb057600080fd5b80356001600160401b03811115614bc657600080fd5b8560208260051b8401011115614bdb57600080fd5b6020919091019590945092505050565b600081518084526020840193506020830160005b82811015614221578151865260209586019590910190600101614bff565b606081526000614c3060608301866141ec565b8281036020840152614c4281866141ec565b9050828103604084015261432f8185614beb565b61032081526000614c6b6103208301896145d4565b9050866020830152614c8060408301876149a4565b614c8d60c08301866149f0565b614c9b610220830185614a89565b6001600160a01b0392909216610300919091015295945050505050565b600060208284031215614cca57600080fd5b813561389c8161462c565b60208152600061389c6020830184614beb565b600060208284031215614cfa57600080fd5b81356001600160401b03811115614d1057600080fd5b613fc4848285016144c1565b60008060408385031215614d2f57600080fd5b823591506020830135614d41816146d7565b809150509250929050565b60008060408385031215614d5f57600080fd5b8235614d6a8161462c565b91506020830135614d41816146d7565b60006001600160401b03821115614d9357614d93614339565b50601f01601f191660200190565b6000614daf61446a84614d7a565b9050828152838383011115614dc357600080fd5b828260208301376000602084830101529392505050565b60008060008060808587031215614df057600080fd5b8435614dfb8161462c565b93506020850135614e0b8161462c565b92506040850135915060608501356001600160401b03811115614e2d57600080fd5b8501601f81018713614e3e57600080fd5b614e4d87823560208401614da1565b91505092959194509250565b60008060408385031215614e6c57600080fd5b8235614e778161462c565b91506020830135614d418161462c565b6000602082016020835280845180835260408501915060408160051b86010192506020860160005b82811015614ee057603f19878603018452614ecb858351614ae6565b94506020938401939190910190600101614eaf565b50929695505050505050565b6004811061161357600080fd5b600060808284031215614f0b57600080fd5b614f13614378565b90508135614f2081614eec565b81526020820135614f3081614eec565b60208201526040820135614f4381614eec565b60408201526060820135614f5681614eec565b606082015292915050565b6000818303610160811215614f7557600080fd5b614f7d61439a565b83358152915060c0601f1982011215614f9557600080fd5b50614f9e61439a565b6020830135614fac8161477e565b81526040830135614fbc81614431565b60208201526060830135614fcf81614431565b60408201526080830135614fe28161477e565b606082015260a0830135614ff581614431565b608082015260c083013561500881614431565b60a0820152602082015261501e60e08301614440565b60408201526150306101008301614440565b60608201526150426101208301614440565b60808201526150546101408301614440565b60a082015292915050565b63ffffffff8116811461161357600080fd5b600060e0828403121561508357600080fd5b61508b6143bc565b905081356150988161505f565b815260208201356150a88161477e565b602082015260408201356150bb8161477e565b604082015260608201356150ce816146d7565b60608201526150df608083016146e5565b60808201526150f060a083016146e5565b60a082015260c09182013591810191909152919050565b6000806040838503121561511a57600080fd5b8235915060208301356001600160401b0381111561513757600080fd5b8301610320818603121561514a57600080fd5b61515261439a565b81356001600160401b0381111561516857600080fd5b8201601f8101871361517957600080fd5b61518887823560208401614da1565b825250602082810135908201526151a28660408401614ef9565b60408201526151b48660c08401614f61565b60608201526151c7866102208401615071565b60808201526151d96103008301614641565b60a082015280925050509250929050565b600181811c908216806151fe57607f821691505b60208210810361521e57634e487b7160e01b600052602260045260246000fd5b50919050565b634e487b7160e01b600052603260045260246000fd5b634e487b7160e01b600052601160045260246000fd5b6000600182016152625761526261523a565b5060010190565b80820180821115610c5e57610c5e61523a565b634e487b7160e01b600052601260045260246000fd5b6000826152a1576152a161527c565b500490565b805460ff81166152b581614986565b8352600881901c60ff166152c881614986565b6020840152601081901c60ff166152de81614986565b604084015260181c60ff166149e581614986565b80548252600181015461ffff8116602084015260ff8160101c16604084015260ff8160181c16606084015261ffff8160201c16608084015261533f60a0840160ff8360301c1660ff169052565b60381c60ff90811660c08401526002919091015480821660e0840152600881901c8216610100840152601081901c821661012084015260181c1661014090910152565b805463ffffffff8116835261ffff8160201c16602084015261ffff808260301c161660408401526153bd6060840160ff8360401c1615159052565b6153d16080840160ff8360481c1615159052565b6153e560a0840160ff8360501c1615159052565b506001015460c09190910152565b602081526103206020820152600080835461540d816151ea565b80610340860152600182166000811461542d576001811461544b57615481565b60ff19831661036087015261036082151560051b8701019350615481565b86600052602060002060005b838110156154775781548882016103600152600190910190602001615457565b8701610360019450505b5050506001840154604084015261549e60608401600286016152a6565b6154ae60e08401600386016152f2565b6154bf610240840160068601615382565b60088401546001600160a01b03166001600160a01b038116610320850152509392505050565b600082601f8301126154f657600080fd5b815161550461446a82614d7a565b81815284602083860101111561551957600080fd5b613fc48260208301602087016145b0565b60006020828403121561553c57600080fd5b81516001600160401b0381111561555257600080fd5b613fc4848285016154e5565b60006020828403121561557057600080fd5b81516001600160401b038116811461389c57600080fd5b8051611f1b81614431565b60008183036101608112156155a657600080fd5b6155ae61439a565b83518152915060c0601f19820112156155c657600080fd5b506155cf61439a565b60208301516155dd8161477e565b815260408301516155ed81614431565b6020820152606083015161560081614431565b604082015260808301516156138161477e565b606082015260a083015161562681614431565b608082015260c083015161563981614431565b60a0820152602082015261564f60e08301615587565b60408201526156616101008301615587565b60608201526156736101208301615587565b60808201526150546101408301615587565b8051611f1b816146d7565b600060e082840312156156a257600080fd5b6156aa6143bc565b905081516156b78161505f565b815260208201516156c78161477e565b602082015260408201516156da8161477e565b604082015260608201516156ed816146d7565b60608201526156fe60808301615685565b608082015261570f60a08301615685565b60a082015260c09182015191810191909152919050565b8051611f1b8161462c565b60006020828403121561574357600080fd5b81516001600160401b0381111561575957600080fd5b820180840361032081121561576d57600080fd5b61577561439a565b82516001600160401b0381111561578b57600080fd5b615797878286016154e5565b825250602083810151908201526080603f19830112156157b657600080fd5b6157be614378565b915060408301516157ce81614eec565b825260608301516157de81614eec565b602083015260808301516157f181614eec565b604083015260a083015161580481614eec565b60608301526040810182905261581d8660c08501615592565b6060820152615830866102208501615690565b60808201526158426103008401615726565b60a082015295945050505050565b601f82111561128c57806000526020600020601f840160051c810160208510156158775750805b601f840160051c820191505b818110156113af5760008155600101615883565b81516001600160401b038111156158b0576158b0614339565b6158c4816158be84546151ea565b84615850565b6020601f8211600181146158f857600083156158e05750848201515b600019600385901b1c1916600184901b1784556113af565b600084815260208120601f198516915b828110156159285787850151825560209485019460019092019101615908565b50848210156159465786840151600019600387901b60f8161c191681555b50505050600190811b01905550565b8381528260208201526060604082015260006134ed6060830184614ae6565b60006020828403121561598657600080fd5b5051919050565b81810381811115610c5e57610c5e61523a565b6000816159af576159af61523a565b506000190190565b8082028115828204841417610c5e57610c5e61523a565b60ff8181168382160190811115610c5e57610c5e61523a565b61ffff8181168382160290811690818114612b9457612b9461523a565b600061ffff831680615a1857615a1861527c565b8061ffff84160491505092915050565b61ffff8281168282160390811115610c5e57610c5e61523a565b6001600160a01b038581168252841660208201526040810183905260806060820181905260009061432f908301846145d4565b600060208284031215615a8757600080fd5b815161389c816141b9565b634e487b7160e01b600052603160045260246000fdfea2646970667358221220b5566ea30c85dcd0edd78b1d26f493f7f76eddd97796b3d62318491776c2782764736f6c634300081c0033",
  "linkReferences": {},
  "deployedLinkReferences": {}
}